{
  "contracts/MockStaking.sol": {
    "MockStaking": {
      "abi": [
        {
          "inputs": [],
          "name": "advanceEra",
          "outputs": [],
          "stateMutability": "nonpayable",
          "type": "function"
        },
        {
          "inputs": [],
          "name": "bond",
          "outputs": [
            {
              "internalType": "uint128",
              "name": "amount",
              "type": "uint128"
            }
          ],
          "stateMutability": "payable",
          "type": "function"
        },
        {
          "inputs": [],
          "name": "chill",
          "outputs": [
            {
              "internalType": "bool",
              "name": "",
              "type": "bool"
            }
          ],
          "stateMutability": "nonpayable",
          "type": "function"
        },
        {
          "inputs": [],
          "name": "commission",
          "outputs": [
            {
              "internalType": "uint32",
              "name": "",
              "type": "uint32"
            }
          ],
          "stateMutability": "view",
          "type": "function"
        },
        {
          "inputs": [],
          "name": "era",
          "outputs": [
            {
              "internalType": "uint32",
              "name": "",
              "type": "uint32"
            }
          ],
          "stateMutability": "view",
          "type": "function"
        },
        {
          "inputs": [],
          "name": "full_unbond",
          "outputs": [
            {
              "internalType": "uint128",
              "name": "amount",
              "type": "uint128"
            }
          ],
          "stateMutability": "nonpayable",
          "type": "function"
        },
        {
          "inputs": [],
          "name": "max_nominations",
          "outputs": [
            {
              "internalType": "uint32",
              "name": "",
              "type": "uint32"
            }
          ],
          "stateMutability": "pure",
          "type": "function"
        },
        {
          "inputs": [],
          "name": "minimum_active_nominator_bond",
          "outputs": [
            {
              "internalType": "uint128",
              "name": "",
              "type": "uint128"
            }
          ],
          "stateMutability": "pure",
          "type": "function"
        },
        {
          "inputs": [],
          "name": "minimum_bond",
          "outputs": [
            {
              "internalType": "uint128",
              "name": "",
              "type": "uint128"
            }
          ],
          "stateMutability": "pure",
          "type": "function"
        },
        {
          "inputs": [],
          "name": "minimum_nominator_bond",
          "outputs": [
            {
              "internalType": "uint128",
              "name": "",
              "type": "uint128"
            }
          ],
          "stateMutability": "pure",
          "type": "function"
        },
        {
          "inputs": [],
          "name": "minimum_validator_bond",
          "outputs": [
            {
              "internalType": "uint128",
              "name": "",
              "type": "uint128"
            }
          ],
          "stateMutability": "pure",
          "type": "function"
        },
        {
          "inputs": [
            {
              "internalType": "address[]",
              "name": "targets",
              "type": "address[]"
            }
          ],
          "name": "nominate",
          "outputs": [
            {
              "internalType": "bool",
              "name": "",
              "type": "bool"
            }
          ],
          "stateMutability": "nonpayable",
          "type": "function"
        },
        {
          "inputs": [],
          "name": "nominations",
          "outputs": [
            {
              "internalType": "address[]",
              "name": "",
              "type": "address[]"
            }
          ],
          "stateMutability": "view",
          "type": "function"
        },
        {
          "inputs": [],
          "name": "payee",
          "outputs": [
            {
              "internalType": "address",
              "name": "",
              "type": "address"
            }
          ],
          "stateMutability": "view",
          "type": "function"
        },
        {
          "inputs": [],
          "name": "payout",
          "outputs": [
            {
              "internalType": "uint128",
              "name": "",
              "type": "uint128"
            }
          ],
          "stateMutability": "pure",
          "type": "function"
        },
        {
          "inputs": [],
          "name": "pending",
          "outputs": [
            {
              "internalType": "uint128",
              "name": "",
              "type": "uint128"
            }
          ],
          "stateMutability": "pure",
          "type": "function"
        },
        {
          "inputs": [
            {
              "internalType": "uint128",
              "name": "value",
              "type": "uint128"
            }
          ],
          "name": "rebond_unbonded",
          "outputs": [
            {
              "internalType": "uint128",
              "name": "amount",
              "type": "uint128"
            }
          ],
          "stateMutability": "nonpayable",
          "type": "function"
        },
        {
          "inputs": [],
          "name": "role",
          "outputs": [
            {
              "internalType": "enum IStakingRoles.Roles",
              "name": "",
              "type": "uint8"
            }
          ],
          "stateMutability": "view",
          "type": "function"
        },
        {
          "inputs": [
            {
              "internalType": "address",
              "name": "payee_",
              "type": "address"
            }
          ],
          "name": "set_payee",
          "outputs": [
            {
              "internalType": "bool",
              "name": "",
              "type": "bool"
            }
          ],
          "stateMutability": "nonpayable",
          "type": "function"
        },
        {
          "inputs": [],
          "name": "stake_able",
          "outputs": [
            {
              "internalType": "uint128",
              "name": "",
              "type": "uint128"
            }
          ],
          "stateMutability": "pure",
          "type": "function"
        },
        {
          "inputs": [],
          "name": "stake_of",
          "outputs": [
            {
              "components": [
                {
                  "internalType": "uint128",
                  "name": "active",
                  "type": "uint128"
                },
                {
                  "internalType": "uint128",
                  "name": "total",
                  "type": "uint128"
                }
              ],
              "internalType": "struct IStakingBasic.Stake",
              "name": "",
              "type": "tuple"
            }
          ],
          "stateMutability": "view",
          "type": "function"
        },
        {
          "inputs": [
            {
              "internalType": "uint128",
              "name": "value",
              "type": "uint128"
            }
          ],
          "name": "unbond",
          "outputs": [
            {
              "internalType": "uint128",
              "name": "amount",
              "type": "uint128"
            }
          ],
          "stateMutability": "nonpayable",
          "type": "function"
        },
        {
          "inputs": [],
          "name": "unbonding_queue",
          "outputs": [
            {
              "components": [
                {
                  "internalType": "uint32",
                  "name": "era",
                  "type": "uint32"
                },
                {
                  "internalType": "uint128",
                  "name": "amount",
                  "type": "uint128"
                }
              ],
              "internalType": "struct IStakingBasic.Unbonding[]",
              "name": "",
              "type": "tuple[]"
            }
          ],
          "stateMutability": "view",
          "type": "function"
        },
        {
          "inputs": [
            {
              "internalType": "uint32",
              "name": "_commission",
              "type": "uint32"
            }
          ],
          "name": "validate",
          "outputs": [
            {
              "internalType": "bool",
              "name": "",
              "type": "bool"
            }
          ],
          "stateMutability": "nonpayable",
          "type": "function"
        },
        {
          "inputs": [],
          "name": "withdraw_unbonded",
          "outputs": [
            {
              "internalType": "uint128",
              "name": "amount",
              "type": "uint128"
            }
          ],
          "stateMutability": "nonpayable",
          "type": "function"
        }
      ],
      "evm": {
        "assembly": "// RO data = 0/0 bytes\n// RW data = 16/65600 bytes\n// Stack size = 32768 bytes\n\n// Instructions = 7824\n// Code size = 27425 bytes\n\n      : @0 (gas: 2)\n     0: a1 = i32 [0x20018]\n     5: jump @30 if a1 == 0\n      : @1 (gas: 4)\n     9: a0 = 0x30040\n    14: i32 a0 = a0 + 0\n    16: ecalli 7 // 'set_immutable_data'\n    18: jump @30\n      : @2 (gas: 8)\n    21: sp = sp + 0xfffffffffffffff0\n    24: u64 [sp + 0x8] = ra\n    27: u64 [sp] = s0\n    29: a2 = a1\n    31: s0 = a0\n    33: a1 = 0x20\n    36: a0 = a2\n    38: ra = 2, jump @11\n      : @3 [@dyn 1] (gas: 100)\n    43: a1 = u8 [a0 + 0x1]\n    46: a2 = u8 [a0]\n    48: a3 = u8 [a0 + 0x2]\n    51: a4 = u8 [a0 + 0x3]\n    54: a1 = a1 << 0x8\n    57: a1 = a1 | a2\n    60: a3 = a3 << 0x10\n    63: a4 = a4 << 0x18\n    66: a3 = a3 | a4\n    69: a1 = a1 | a3\n    72: a2 = u8 [a0 + 0x5]\n    75: a3 = u8 [a0 + 0x4]\n    78: a4 = u8 [a0 + 0x6]\n    81: a5 = u8 [a0 + 0x7]\n    84: a2 = a2 << 0x8\n    87: a2 = a2 | a3\n    90: a4 = a4 << 0x10\n    93: a5 = a5 << 0x18\n    96: a4 = a4 | a5\n    99: a2 = a2 | a4\n   102: a2 = a2 << 0x20\n   105: t0 = a2 | a1\n   108: a2 = u8 [a0 + 0x9]\n   111: a3 = u8 [a0 + 0x8]\n   114: a4 = u8 [a0 + 0xa]\n   117: a5 = u8 [a0 + 0xb]\n   120: a2 = a2 << 0x8\n   123: a2 = a2 | a3\n   126: a4 = a4 << 0x10\n   129: a5 = a5 << 0x18\n   132: a4 = a4 | a5\n   135: a2 = a2 | a4\n   138: a3 = u8 [a0 + 0xd]\n   141: a4 = u8 [a0 + 0xc]\n   144: a5 = u8 [a0 + 0xe]\n   147: a1 = u8 [a0 + 0xf]\n   150: a3 = a3 << 0x8\n   153: a3 = a3 | a4\n   156: a5 = a5 << 0x10\n   159: a1 = a1 << 0x18\n   162: a1 = a1 | a5\n   165: a1 = a1 | a3\n   168: a1 = a1 << 0x20\n   171: t1 = a1 | a2\n   174: a1 = u8 [a0 + 0x11]\n   177: a3 = u8 [a0 + 0x10]\n   180: a4 = u8 [a0 + 0x12]\n   183: a5 = u8 [a0 + 0x13]\n   186: a1 = a1 << 0x8\n   189: a1 = a1 | a3\n   192: a4 = a4 << 0x10\n   195: a5 = a5 << 0x18\n   198: a4 = a4 | a5\n   201: a1 = a1 | a4\n   204: a3 = u8 [a0 + 0x15]\n   207: a4 = u8 [a0 + 0x14]\n   210: a5 = u8 [a0 + 0x16]\n   213: a2 = u8 [a0 + 0x17]\n   216: a3 = a3 << 0x8\n   219: a3 = a3 | a4\n   222: a5 = a5 << 0x10\n   225: a2 = a2 << 0x18\n   228: a2 = a2 | a5\n   231: a2 = a2 | a3\n   234: a2 = a2 << 0x20\n   237: a3 = a2 | a1\n   240: a1 = u8 [a0 + 0x19]\n   243: a2 = u8 [a0 + 0x18]\n   246: a4 = u8 [a0 + 0x1a]\n   249: a5 = u8 [a0 + 0x1b]\n   252: a1 = a1 << 0x8\n   255: a1 = a1 | a2\n   258: a4 = a4 << 0x10\n   261: a5 = a5 << 0x18\n   264: a4 = a4 | a5\n   267: a1 = a1 | a4\n   270: a2 = u8 [a0 + 0x1d]\n   273: a4 = u8 [a0 + 0x1c]\n   276: a5 = u8 [a0 + 0x1e]\n   279: a0 = u8 [a0 + 0x1f]\n   282: a2 = a2 << 0x8\n   285: a2 = a2 | a4\n   288: a5 = a5 << 0x10\n   291: a0 = a0 << 0x18\n   294: a0 = a0 | a5\n   297: a0 = a0 | a2\n   300: a0 = a0 << 0x20\n   303: a0 = a0 | a1\n   306: a0 = reverse a0\n   308: a1 = reverse a3\n   310: a2 = reverse t1\n   312: a3 = reverse t0\n   314: u64 [s0 + 0x18] = a3\n   317: u64 [s0 + 0x10] = a2\n   320: u64 [s0 + 0x8] = a1\n   323: u64 [s0] = a0\n   325: ra = u64 [sp + 0x8]\n   328: s0 = u64 [sp]\n   330: sp = sp + 0x10\n   333: ret\n      : @4 (gas: 12)\n   335: sp = sp + 0xffffffffffffffd8\n   338: u64 [sp + 0x20] = ra\n   341: u64 [sp + 0x18] = s0\n   344: u64 [sp + 0x10] = s1\n   347: a2 = u64 [a1]\n   349: u64 [sp + 0x8] = a2\n   352: a2 = u64 [a1 + 0x8]\n   355: u64 [sp] = a2\n   357: s0 = u64 [a1 + 0x10]\n   360: s1 = u64 [a1 + 0x18]\n   363: a1 = 0x20\n   366: ra = 4, jump @11\n      : @5 [@dyn 2] (gas: 71)\n   371: a1 = reverse s1\n   373: a2 = reverse s0\n   375: a3 = u64 [sp]\n   377: a3 = reverse a3\n   379: a4 = u64 [sp + 0x8]\n   382: a4 = reverse a4\n   384: u8 [a0 + 0x18] = a4\n   387: u8 [a0 + 0x10] = a3\n   390: u8 [a0 + 0x8] = a2\n   393: u8 [a0] = a1\n   395: a5 = a4 >> 0x38\n   398: u8 [a0 + 0x1f] = a5\n   401: a5 = a4 >> 0x30\n   404: u8 [a0 + 0x1e] = a5\n   407: a5 = a4 >> 0x28\n   410: u8 [a0 + 0x1d] = a5\n   413: a5 = a4 >> 0x20\n   416: u8 [a0 + 0x1c] = a5\n   419: a5 = a4 >> 0x18\n   422: u8 [a0 + 0x1b] = a5\n   425: a5 = a4 >> 0x10\n   428: u8 [a0 + 0x1a] = a5\n   431: a4 = a4 >> 0x8\n   434: u8 [a0 + 0x19] = a4\n   437: a4 = a3 >> 0x38\n   440: u8 [a0 + 0x17] = a4\n   443: a4 = a3 >> 0x30\n   446: u8 [a0 + 0x16] = a4\n   449: a4 = a3 >> 0x28\n   452: u8 [a0 + 0x15] = a4\n   455: a4 = a3 >> 0x20\n   458: u8 [a0 + 0x14] = a4\n   461: a4 = a3 >> 0x18\n   464: u8 [a0 + 0x13] = a4\n   467: a4 = a3 >> 0x10\n   470: u8 [a0 + 0x12] = a4\n   473: a3 = a3 >> 0x8\n   476: u8 [a0 + 0x11] = a3\n   479: a3 = a2 >> 0x38\n   482: u8 [a0 + 0xf] = a3\n   485: a3 = a2 >> 0x30\n   488: u8 [a0 + 0xe] = a3\n   491: a3 = a2 >> 0x28\n   494: u8 [a0 + 0xd] = a3\n   497: a3 = a2 >> 0x20\n   500: u8 [a0 + 0xc] = a3\n   503: a3 = a2 >> 0x18\n   506: u8 [a0 + 0xb] = a3\n   509: a3 = a2 >> 0x10\n   512: u8 [a0 + 0xa] = a3\n   515: a2 = a2 >> 0x8\n   518: u8 [a0 + 0x9] = a2\n   521: a2 = a1 >> 0x38\n   524: u8 [a0 + 0x7] = a2\n   527: a2 = a1 >> 0x30\n   530: u8 [a0 + 0x6] = a2\n   533: a2 = a1 >> 0x28\n   536: u8 [a0 + 0x5] = a2\n   539: a2 = a1 >> 0x20\n   542: u8 [a0 + 0x4] = a2\n   545: a2 = a1 >> 0x18\n   548: u8 [a0 + 0x3] = a2\n   551: a2 = a1 >> 0x10\n   554: u8 [a0 + 0x2] = a2\n   557: a1 = a1 >> 0x8\n   560: u8 [a0 + 0x1] = a1\n   563: ra = u64 [sp + 0x20]\n   566: s0 = u64 [sp + 0x18]\n   569: s1 = u64 [sp + 0x10]\n   572: sp = sp + 0x28\n   575: ret\n      : @6 (gas: 32)\n   577: sp = sp + 0xffffffffffffffa0\n   580: u64 [sp + 0x58] = ra\n   583: u64 [sp + 0x50] = s0\n   586: u64 [sp + 0x48] = s1\n   589: s0 = sp + 0x60\n   592: sp = sp & 0xffffffffffffffe0\n   595: s1 = a0\n   597: a0 = u64 [a1 + 0x18]\n   600: a2 = u64 [a1 + 0x10]\n   603: a3 = u64 [a1 + 0x8]\n   606: a1 = u64 [a1]\n   608: a0 = reverse a0\n   610: a2 = reverse a2\n   612: a3 = reverse a3\n   614: a1 = reverse a1\n   616: u64 [sp + 0x18] = a1\n   619: u64 [sp + 0x10] = a3\n   622: u64 [sp + 0x8] = a2\n   625: u64 [sp] = a0\n   627: u64 [sp + 56] = 0\n   630: u64 [sp + 48] = 0\n   633: u64 [sp + 40] = 0\n   636: u64 [sp + 32] = 0\n   639: u32 [sp + 64] = 0x20\n   643: i32 a1 = sp + 0\n   645: i32 a3 = sp + 0x20\n   648: i32 a4 = sp + 0x40\n   651: a2 = 0xffffffffffffffff\n   654: a0 = 0\n   656: ra = 0x6\n   659: ecalli 4 // 'get_storage'\n   661: fallthrough\n      : @7 [@dyn 3] (gas: 5)\n   662: a0 = u64 [sp + 0x38]\n   665: a1 = u64 [sp + 0x30]\n   668: a2 = u64 [sp + 0x28]\n   671: a3 = u64 [sp + 0x20]\n   674: t0 = 8, jump @1077\n      : @8 [@dyn 4] (gas: 5)\n   679: u64 [s1 + 0x18] = a3\n   682: u64 [s1 + 0x10] = a2\n   685: u64 [s1 + 0x8] = a1\n   688: u64 [s1] = a0\n   690: t0 = 10, jump @1083\n      : @9 [@dyn 5] (gas: 1)\n   695: ret\n      : @10 (gas: 40)\n   697: sp = sp + 0xffffffffffffffa0\n   700: u64 [sp + 0x58] = ra\n   703: u64 [sp + 0x50] = s0\n   706: s0 = sp + 0x60\n   709: sp = sp & 0xffffffffffffffe0\n   712: t0 = u64 [a0]\n   714: a3 = u64 [a0 + 0x8]\n   717: a4 = u64 [a0 + 0x10]\n   720: a0 = u64 [a0 + 0x18]\n   723: t1 = u64 [a1]\n   725: a2 = u64 [a1 + 0x8]\n   728: a5 = u64 [a1 + 0x10]\n   731: a1 = u64 [a1 + 0x18]\n   734: t2 = reverse a0\n   736: a4 = reverse a4\n   738: a3 = reverse a3\n   740: a0 = reverse t0\n   742: t0 = reverse a1\n   744: a5 = reverse a5\n   746: a2 = reverse a2\n   748: a1 = reverse t1\n   750: u64 [sp + 0x18] = a0\n   753: u64 [sp + 0x10] = a3\n   756: u64 [sp + 0x8] = a4\n   759: u64 [sp] = t2\n   761: u64 [sp + 0x38] = a1\n   764: u64 [sp + 0x30] = a2\n   767: u64 [sp + 0x28] = a5\n   770: u64 [sp + 0x20] = t0\n   773: i32 a1 = sp + 0\n   775: i32 a3 = sp + 0x20\n   778: a2 = 0xffffffffffffffff\n   781: a4 = 0x20\n   784: a0 = 0\n   786: ecalli 8 // 'set_storage'\n   788: sp = s0 + 0xffffffffffffffa0\n   791: ra = u64 [sp + 0x58]\n   794: s0 = u64 [sp + 0x50]\n   797: sp = sp + 0x60\n   800: ret\n      : @11 (gas: 2)\n   802: i32 a2 = a0 >> 0x10\n   805: jump @16 if a2 != 0\n      : @12 (gas: 4)\n   808: a1 = a1 + a0\n   811: i32 a1 = a1 + 0x1f\n   814: a1 = a1 & 0xffffffffffffffe0\n   817: jump @16 if a1 >u 65536\n      : @13 (gas: 3)\n   823: a2 = 0x20014\n   828: a3 = i32 [0x20014]\n   833: jump @15 if a3 >=u a1\n      : @14 (gas: 2)\n   836: u32 [0x20014] = a1\n   841: fallthrough\n      : @15 (gas: 4)\n   842: a1 = 0x20020\n   847: i32 a0 = a0 + 0\n   849: a0 = a0 + a1\n   852: ret\n      : @16 (gas: 1)\n   854: trap\n      : @17 (gas: 6)\n   855: sp = sp + 0xfffffffffffffff0\n   858: u64 [sp + 0x8] = ra\n   861: u64 [sp] = s0\n   863: s0 = a0 & 0x1\n   866: ecalli 2 // 'call_data_size'\n   868: fallthrough\n      : @18 (gas: 2)\n   869: u32 [0x20010] = a0\n   874: jump @20 if s0 == 0\n      : @19 (gas: 1)\n   877: ra = 12, jump @21\n      : @20 [@dyn 6] (gas: 1)\n   881: ra = 14, jump @32\n      : @21 [@dyn 7] (gas: 12)\n   886: sp = sp + 0xffffffffffffff20\n   890: u64 [sp + 0xd8] = ra\n   894: u64 [sp + 0xd0] = s0\n   898: s0 = sp + 0xe0\n   902: sp = sp & 0xffffffffffffffe0\n   905: u64 [sp + 56] = 0\n   908: u64 [sp + 48] = 0\n   911: u64 [sp + 32] = 0x80\n   916: a0 = 0x40\n   919: a1 = sp + 0x20\n   922: u64 [sp + 40] = 0\n   925: ra = 16, jump @4\n      : @22 [@dyn 8] (gas: 7)\n   930: u64 [sp + 88] = 0\n   933: u64 [sp + 80] = 0\n   936: u64 [sp + 72] = 0\n   939: u64 [sp + 64] = 0\n   942: i32 a0 = sp + 0x40\n   945: ecalli 9 // 'value_transferred'\n   947: fallthrough\n      : @23 (gas: 8)\n   948: a0 = u64 [sp + 0x50]\n   951: a1 = u64 [sp + 0x58]\n   954: a2 = u64 [sp + 0x48]\n   957: a3 = u64 [sp + 0x40]\n   960: a1 = a1 | a2\n   963: a0 = a0 | a3\n   966: a0 = a0 | a1\n   969: jump @25 if a0 == 0\n      : @24 (gas: 7)\n   972: a1 = 0x20020\n   977: i32 a1 = a1 + 0\n   979: a0 = 0x1\n   982: a2 = 0\n   984: ra = 0x18\n   987: ecalli 6 // 'seal_return'\n   989: jump @32\n      : @25 (gas: 7)\n   992: u64 [sp + 120] = 0\n   995: u64 [sp + 112] = 0\n   998: u64 [sp + 104] = 0\n  1001: u64 [sp + 96] = 0\n  1004: a0 = sp\n  1006: a1 = sp + 0x60\n  1009: ra = 18, jump @6\n      : @26 [@dyn 9] (gas: 17)\n  1014: a0 = u32 [sp + 0x4]\n  1017: a0 = a0 << 0x20\n  1020: a1 = u64 [sp + 0x8]\n  1023: a2 = u64 [sp + 0x10]\n  1026: a3 = u64 [sp + 0x18]\n  1029: a0 = a0 + 0x64\n  1032: u64 [sp + 152] = 0\n  1036: u64 [sp + 144] = 0\n  1040: u64 [sp + 136] = 0\n  1044: u64 [sp + 128] = 0\n  1048: u64 [sp + 0xb8] = a3\n  1052: u64 [sp + 0xb0] = a2\n  1056: u64 [sp + 0xa8] = a1\n  1060: u64 [sp + 0xa0] = a0\n  1064: a0 = sp + 0x80\n  1068: a1 = sp + 0xa0\n  1072: ra = 20, jump @10\n      : @27 [@dyn 10] (gas: 2)\n  1077: a1 = i32 [0x20014]\n  1082: jump @29 if a1 >u 127\n      : @28 (gas: 2)\n  1086: u32 [0x20014] = 0x80\n  1093: fallthrough\n      : @29 (gas: 6)\n  1094: a0 = 0x20020\n  1099: i32 a0 = a0 + 0x80\n  1103: a1 = 0\n  1105: a2 = 0\n  1107: ecalli 0 // 'call_data_copy'\n  1108: jump @0\n      : @30 (gas: 3)\n  1111: a0 = 0x80\n  1115: a1 = 0\n  1117: ra = 22, jump @11\n      : @31 [@dyn 11] (gas: 6)\n  1122: i32 a1 = a0 + 0\n  1124: a0 = 0\n  1126: a2 = 0\n  1128: ra = 0x18\n  1131: ecalli 6 // 'seal_return'\n  1133: fallthrough\n      : @32 [@dyn 12] (gas: 16)\n  1134: sp = sp + 0xfffffffffffffe10\n  1138: u64 [sp + 0x1e8] = ra\n  1142: u64 [sp + 0x1e0] = s0\n  1146: u64 [sp + 0x1d8] = s1\n  1150: s0 = sp + 0x1f0\n  1154: sp = sp + 0xffffffffffffd970\n  1158: sp = sp & 0xffffffffffffffe0\n  1161: s1 = sp\n  1163: a2 = s1 + 0x1898\n  1167: u64 [a2 + 2016] = 0\n  1171: u64 [a2 + 2008] = 0\n  1175: u64 [a2 + 1992] = 0x80\n  1181: a0 = 0x40\n  1184: a1 = s1 + 0x2060\n  1188: u64 [a2 + 2000] = 0\n  1192: ra = 26, jump @4\n      : @33 [@dyn 13] (gas: 4)\n  1197: a0 = 0x20010\n  1202: u64 [s1 + 0x118] = a0\n  1206: a0 = i32 [0x20010]\n  1211: jump @35 if a0 >=u 4\n      : @34 (gas: 1)\n  1215: jump @918\n      : @35 (gas: 6)\n  1218: a0 = s1 + 0x2000\n  1222: i32 a0 = a0 + 0x80\n  1226: a1 = 0\n  1228: ra = 0x1c\n  1231: ecalli 1 // 'call_data_load'\n  1233: fallthrough\n      : @36 [@dyn 14] (gas: 3)\n  1234: a2 = s1 + 0x209c\n  1238: a0 = i32 [a2]\n  1240: jump @38 if a0 != 2886551010\n      : @37 (gas: 1)\n  1247: jump @696\n      : @38 (gas: 1)\n  1250: jump @40 if a0 != 2928718355\n      : @39 (gas: 1)\n  1257: jump @488\n      : @40 (gas: 1)\n  1260: jump @42 if a0 != 3009078342\n      : @41 (gas: 1)\n  1267: jump @511\n      : @42 (gas: 1)\n  1270: jump @44 if a0 != 3520386020\n      : @43 (gas: 1)\n  1277: jump @744\n      : @44 (gas: 1)\n  1280: jump @46 if a0 != 3779629457\n      : @45 (gas: 1)\n  1287: jump @572\n      : @46 (gas: 1)\n  1290: jump @48 if a0 != 3792490179\n      : @47 (gas: 1)\n  1297: jump @477\n      : @48 (gas: 1)\n  1300: jump @88 if a0 == 3893434434\n      : @49 (gas: 1)\n  1308: jump @51 if a0 != 3969591537\n      : @50 (gas: 1)\n  1315: jump @329\n      : @51 (gas: 1)\n  1318: jump @137 if a0 == 4021318640\n      : @52 (gas: 1)\n  1326: jump @54 if a0 != 339629536\n      : @53 (gas: 1)\n  1333: jump @535\n      : @54 (gas: 1)\n  1336: jump @56 if a0 != 398564703\n      : @55 (gas: 1)\n  1343: jump @227\n      : @56 (gas: 1)\n  1346: jump @166 if a0 == 435355053\n      : @57 (gas: 1)\n  1354: jump @59 if a0 != 582099949\n      : @58 (gas: 1)\n  1361: jump @595\n      : @59 (gas: 1)\n  1364: jump @61 if a0 != 640442127\n      : @60 (gas: 1)\n  1371: jump @239\n      : @61 (gas: 1)\n  1374: jump @63 if a0 != 730479334\n      : @62 (gas: 1)\n  1381: jump @637\n      : @63 (gas: 1)\n  1384: jump @65 if a0 != 945067767\n      : @64 (gas: 1)\n  1391: jump @400\n      : @65 (gas: 1)\n  1394: jump @67 if a0 != 1052342124\n      : @66 (gas: 1)\n  1401: jump @559\n      : @67 (gas: 1)\n  1404: jump @69 if a0 != 1233821937\n      : @68 (gas: 1)\n  1411: jump @522\n      : @69 (gas: 1)\n  1414: jump @71 if a0 != 1673338186\n      : @70 (gas: 1)\n  1421: jump @215\n      : @71 (gas: 1)\n  1424: jump @73 if a0 != 1690954863\n      : @72 (gas: 1)\n  1431: jump @368\n      : @73 (gas: 1)\n  1434: jump @75 if a0 != 1692906536\n      : @74 (gas: 1)\n  1441: jump @284\n      : @75 (gas: 1)\n  1444: jump @77 if a0 == 1920931826\n      : @76 (gas: 1)\n  1451: jump @413\n      : @77 (gas: 10)\n  1454: u64 [a2 + 1116] = 0\n  1458: u64 [a2 + 1108] = 0\n  1462: u64 [a2 + 1100] = 0\n  1466: u64 [a2 + 1092] = 0\n  1470: a0 = s1 + 0x2000\n  1474: i32 a0 = a0 + 0x4e0\n  1478: ra = 0x1e\n  1481: ecalli 9 // 'value_transferred'\n  1483: t0 = 0x20\n  1486: jump @1073\n      : @78 [@dyn 15] (gas: 1)\n  1489: t0 = 32, jump @1073\n      : @79 [@dyn 16] (gas: 8)\n  1494: a0 = u64 [a4 + 0x50]\n  1497: a1 = u64 [a4 + 0x58]\n  1500: a2 = u64 [a4 + 0x48]\n  1503: a3 = u64 [a4 + 0x40]\n  1506: a1 = a1 | a2\n  1509: a0 = a0 | a3\n  1512: a0 = a0 | a1\n  1515: jump @81 if a0 == 0\n      : @80 (gas: 1)\n  1518: jump @848\n      : @81 (gas: 3)\n  1521: a0 = u64 [s1 + 0x118]\n  1525: a0 = i32 [a0]\n  1527: jump @83 if a0 >u 3\n      : @82 (gas: 1)\n  1531: jump @849\n      : @83 (gas: 3)\n  1534: a0 = s1 + 0x10a0\n  1538: a1 = 0x40\n  1541: ra = 34, jump @2\n      : @84 [@dyn 17] (gas: 6)\n  1546: a3 = s1 + 0x1098\n  1550: a4 = u64 [a3 + 0x20]\n  1553: a1 = u64 [a3 + 0x18]\n  1556: a2 = u64 [a3 + 0x10]\n  1559: a0 = u64 [a3 + 0x8]\n  1562: t0 = 36, jump @1057\n      : @85 [@dyn 18] (gas: 1)\n  1567: jump @87 if a1 == 0\n      : @86 (gas: 1)\n  1570: jump @836\n      : @87 (gas: 8)\n  1573: u64 [a3 + 0] = 0\n  1575: u64 [a3 + 4294967288] = 0\n  1578: u64 [a3 + 4294967272] = 0x10\n  1582: a1 = s1 + 0x1080\n  1586: u64 [a3 + 4294967280] = 0\n  1589: u64 [s1 + 0x118] = a0\n  1593: ra = 0x35e\n  1597: jump @4\n      : @88 (gas: 10)\n  1600: u64 [a2 + 1660] = 0\n  1604: u64 [a2 + 1652] = 0\n  1608: u64 [a2 + 1644] = 0\n  1612: u64 [a2 + 1636] = 0\n  1616: a0 = s1 + 0x2000\n  1620: i32 a0 = a0 + 0x700\n  1624: ra = 0x26\n  1627: ecalli 9 // 'value_transferred'\n  1629: t0 = 0x28\n  1632: jump @1072\n      : @89 [@dyn 19] (gas: 1)\n  1635: t0 = 40, jump @1072\n      : @90 [@dyn 20] (gas: 1)\n  1640: t0 = 42, jump @1070\n      : @91 [@dyn 21] (gas: 1)\n  1645: jump @93 if a0 == 0\n      : @92 (gas: 1)\n  1648: jump @850\n      : @93 (gas: 3)\n  1651: a0 = u64 [s1 + 0x118]\n  1655: a0 = i32 [a0]\n  1657: jump @95 if a0 >u 35\n      : @94 (gas: 1)\n  1661: jump @851\n      : @95 (gas: 6)\n  1664: a0 = s1 + 0x2000\n  1668: i32 a0 = a0 + 0x720\n  1672: a1 = 0x4\n  1675: ra = 0x2c\n  1678: ecalli 1 // 'call_data_load'\n  1680: fallthrough\n      : @96 [@dyn 22] (gas: 4)\n  1681: a2 = s1 + 0x209c\n  1685: a1 = u64 [a2 + 0x694]\n  1689: a3 = u64 [a2 + 0x69c]\n  1693: t0 = 46, jump @1069\n      : @97 [@dyn 23] (gas: 1)\n  1698: jump @99 if a1 != 0\n      : @98 (gas: 1)\n  1701: jump @852\n      : @99 (gas: 13)\n  1704: a0 = u64 [a2 + 0x68c]\n  1708: u64 [s1 + 0x100] = a0\n  1712: a0 = u64 [a2 + 0x684]\n  1716: u64 [s1 + 0xf8] = a0\n  1720: a0 = 0x30020\n  1725: u64 [s1 + 0xf0] = a0\n  1729: i32 a0 = a0 + 0\n  1731: u64 [s1 + 0xe8] = a0\n  1735: ra = 0x30\n  1738: ecalli 3 // 'caller'\n  1740: a2 = u64 [s1 + 0xf0]\n  1744: t0 = 0x32\n  1747: jump @1050\n      : @100 [@dyn 24] (gas: 2)\n  1750: a2 = u64 [s1 + 0xf0]\n  1754: t0 = 50, jump @1050\n      : @101 [@dyn 25] (gas: 8)\n  1759: u64 [a2 + 1440] = 0\n  1763: a4 = a2 + 0x500\n  1767: u64 [a4 + 0x98] = a1\n  1771: u64 [a4 + 0x90] = a0\n  1775: a1 = s1 + 0x1e20\n  1779: u64 [a4 + 0x88] = a3\n  1783: a0 = 0\n  1785: ra = 52, jump @4\n      : @102 [@dyn 26] (gas: 9)\n  1790: a0 = s1 + 0x1898\n  1794: u64 [a0 + 1408] = 0\n  1798: u64 [a0 + 1400] = 0\n  1802: u64 [a0 + 1392] = 0\n  1806: a3 = a0\n  1808: a0 = 0x20\n  1811: a1 = s1 + 0x1e00\n  1815: u64 [a3 + 1384] = 0x1\n  1820: ra = 54, jump @4\n      : @103 [@dyn 27] (gas: 1)\n  1825: t0 = 56, jump @1064\n      : @104 [@dyn 28] (gas: 3)\n  1830: a1 = 0x20014\n  1835: a0 = i32 [0x20014]\n  1840: jump @106 if a0 >u 63\n      : @105 (gas: 2)\n  1844: u32 [0x20014] = 0x40\n  1850: fallthrough\n      : @106 (gas: 15)\n  1851: a0 = sp + 0xffffffffffffffe0\n  1854: a2 = a0 & 0xffffffffffffffe0\n  1857: u64 [s1 + 0xd0] = a2\n  1861: sp = a2\n  1863: a0 = 0x20020\n  1868: i32 a0 = a0 + 0\n  1870: i32 a2 = a2 + 0\n  1872: u64 [s1 + 0xe0] = a1\n  1876: a1 = 0x40\n  1879: u64 [s1 + 0xd8] = a0\n  1883: ra = 0x3a\n  1886: ecalli 5 // 'hash_keccak_256'\n  1888: a3 = u64 [s1 + 0xd0]\n  1892: t0 = 0x3c\n  1895: jump @1065\n      : @107 [@dyn 29] (gas: 2)\n  1898: a3 = u64 [s1 + 0xd0]\n  1902: t0 = 60, jump @1065\n      : @108 [@dyn 30] (gas: 3)\n  1907: i32 a0 = a0 + 0xfffffffffffffde0\n  1911: a0 = a0 + s1\n  1914: ra = 62, jump @6\n      : @109 [@dyn 31] (gas: 34)\n  1919: t1 = s1 + 0x1898\n  1923: a0 = u64 [t1 + 0x548]\n  1927: a1 = u64 [t1 + 0x550]\n  1931: a0 = a0 & 0xffffffffffffffff\n  1934: a1 = a1 & 0xffffffffffffffff\n  1937: a5 = u64 [s1 + 0x100]\n  1941: a2 = a5 ^ a1\n  1944: a3 = a1 <u a5\n  1947: t0 = u64 [s1 + 0xf8]\n  1951: a4 = a0 <u t0\n  1954: a4 = a3 if a2 != 0\n  1957: t0 = a0 if a4 != 0\n  1960: a5 = a1 if a4 != 0\n  1963: a3 = u64 [s1 + 0x108]\n  1967: a3 = 0 if a4 != 0\n  1969: a2 = u64 [s1 + 0x110]\n  1973: a2 = 0 if a4 != 0\n  1975: u64 [t1 + 1312] = 0\n  1979: u64 [t1 + 1304] = 0\n  1983: a4 = t1 + 0x500\n  1987: u64 [a4 + 0x10] = a1\n  1990: u64 [a4 + 0x8] = a0\n  1993: u64 [s1 + 0x110] = a2\n  1997: u64 [a4] = a2\n  1999: u64 [s1 + 0x108] = a3\n  2003: u64 [t1 + 0x4f8] = a3\n  2007: u64 [s1 + 0x100] = a5\n  2011: u64 [t1 + 0x4f0] = a5\n  2015: a0 = s1 + 0x1dc0\n  2019: a1 = s1 + 0x1da0\n  2023: a2 = s1 + 0x1d80\n  2027: u64 [s1 + 0xf8] = t0\n  2031: u64 [t1 + 0x4e8] = t0\n  2035: ra = 64, jump @1038\n      : @110 [@dyn 32] (gas: 13)\n  2040: a0 = s1 + 0x1898\n  2044: a2 = a0 + 0x500\n  2048: a1 = u64 [a2 + 0x28]\n  2051: u64 [s1 + 0xd0] = a1\n  2055: a1 = u64 [a2 + 0x30]\n  2058: u64 [s1 + 0xc8] = a1\n  2062: a1 = u64 [a2 + 0x40]\n  2065: u64 [s1 + 0xc0] = a1\n  2069: a1 = u64 [a2 + 0x38]\n  2072: u64 [s1 + 0xb8] = a1\n  2076: a0 = s1 + 0x1d60\n  2080: a1 = u64 [s1 + 0x118]\n  2084: ra = 66, jump @6\n      : @111 [@dyn 33] (gas: 18)\n  2089: a1 = s1 + 0x1898\n  2093: a0 = u64 [a1 + 0x4d8]\n  2097: a1 = u64 [a1 + 0x4e0]\n  2101: a2 = u64 [s1 + 0xb8]\n  2105: a0 = a0 | a2\n  2108: a2 = u64 [s1 + 0xc0]\n  2112: a1 = a1 | a2\n  2115: a2 = s1 + 0x209c\n  2119: a3 = u64 [s1 + 0xc8]\n  2123: a4 = a2 + 0x604\n  2127: u64 [a4 + 0xa8] = a3\n  2131: a3 = u64 [s1 + 0xd0]\n  2135: u64 [a4 + 0xa0] = a3\n  2139: u64 [a4 + 0xb8] = a1\n  2143: u64 [a4 + 0xb0] = a0\n  2147: a1 = s1 + 0x2740\n  2151: a0 = u64 [s1 + 0x118]\n  2155: ra = 68, jump @10\n      : @112 [@dyn 34] (gas: 6)\n  2160: a0 = u64 [s1 + 0xe8]\n  2164: ra = 0x46\n  2167: ecalli 3 // 'caller'\n  2169: a2 = u64 [s1 + 0xf0]\n  2173: t0 = 0x48\n  2176: jump @1050\n      : @113 [@dyn 35] (gas: 2)\n  2179: a2 = u64 [s1 + 0xf0]\n  2183: t0 = 72, jump @1050\n      : @114 [@dyn 36] (gas: 8)\n  2188: u64 [a2 + 1216] = 0\n  2192: a4 = a2 + 0x400\n  2196: u64 [a4 + 0xb8] = a1\n  2200: u64 [a4 + 0xb0] = a0\n  2204: a1 = s1 + 0x1d40\n  2208: u64 [a4 + 0xa8] = a3\n  2212: a0 = 0\n  2214: ra = 74, jump @4\n      : @115 [@dyn 37] (gas: 3)\n  2219: t0 = 0x4c\n  2222: a1 = s1 + 0x1898\n  2226: fallthrough\n      : @116 [@dyn 38] (gas: 8)\n  2227: u64 [a1 + 1184] = 0\n  2231: u64 [a1 + 1176] = 0\n  2235: u64 [a1 + 1160] = 0x1\n  2240: a2 = a1\n  2242: a0 = 0x20\n  2245: a1 = s1 + 0x1d20\n  2249: u64 [a2 + 1168] = 0\n  2253: ra = 78, jump @4\n      : @117 [@dyn 39] (gas: 3)\n  2258: a1 = u64 [s1 + 0xe0]\n  2262: a0 = i32 [a1]\n  2264: jump @119 if a0 >u 63\n      : @118 (gas: 3)\n  2268: u32 [a1 + 0] = 0x40\n  2271: t0 = 0x50\n  2274: jump @1058\n      : @119 (gas: 1)\n  2277: t0 = 80, jump @1058\n      : @120 [@dyn 40] (gas: 19)\n  2282: a0 = u64 [s1 + 0xd8]\n  2286: ecalli 5 // 'hash_keccak_256'\n  2288: a1 = u64 [s1 + 0x118]\n  2292: a0 = u64 [a1 + 0x18]\n  2295: u64 [s1 + 0xb8] = a0\n  2299: a0 = u64 [a1 + 0x10]\n  2302: u64 [s1 + 0xb0] = a0\n  2306: a0 = u64 [a1 + 0x8]\n  2309: u64 [s1 + 0xa8] = a0\n  2313: a0 = u64 [a1]\n  2315: u64 [s1 + 0xa0] = a0\n  2319: a0 = s1 + 0x209c\n  2323: u64 [a0 + 1756] = 0\n  2327: u64 [a0 + 1748] = 0\n  2331: u64 [a0 + 1740] = 0\n  2335: u64 [a0 + 1732] = 0\n  2339: a0 = s1 + 0x1d00\n  2343: a1 = s1 + 0x2760\n  2347: ra = 82, jump @6\n      : @121 [@dyn 41] (gas: 9)\n  2352: a2 = s1 + 0x1898\n  2356: a0 = u32 [a2 + 0x468]\n  2360: u64 [a2 + 1088] = 0\n  2364: u64 [a2 + 1080] = 0\n  2368: u64 [a2 + 0x428] = a0\n  2372: a0 = s1 + 0x1ce0\n  2376: a1 = s1 + 0x1cc0\n  2380: u64 [a2 + 1072] = 0\n  2384: ra = 84, jump @954\n      : @122 [@dyn 42] (gas: 3)\n  2389: t0 = 0x56\n  2392: a1 = s1 + 0x1898\n  2396: fallthrough\n      : @123 [@dyn 43] (gas: 12)\n  2397: a2 = a1 + 0x400\n  2401: a0 = u64 [a2 + 0x60]\n  2404: u64 [s1 + 0xd8] = a0\n  2408: a0 = u64 [a2 + 0x58]\n  2411: u64 [s1 + 0xd0] = a0\n  2415: a0 = u64 [a2 + 0x50]\n  2418: u64 [s1 + 0xc8] = a0\n  2422: a0 = u64 [a2 + 0x48]\n  2425: u64 [s1 + 0xc0] = a0\n  2429: a0 = s1 + 0x1ca0\n  2433: a1 = 0x40\n  2436: ra = 88, jump @2\n      : @124 [@dyn 44] (gas: 17)\n  2441: a0 = s1 + 0x1898\n  2445: a5 = a0 + 0x400\n  2449: a1 = u64 [a5 + 0x20]\n  2452: u64 [s1 + 0xe0] = a1\n  2456: a2 = u64 [a5 + 0x18]\n  2459: u64 [s1 + 0xe8] = a2\n  2463: a4 = u64 [a5 + 0x10]\n  2466: u64 [s1 + 0xf0] = a4\n  2470: a3 = u64 [a5 + 0x8]\n  2473: u64 [s1 + 0x118] = a3\n  2477: u64 [a5] = a1\n  2479: u64 [a0 + 0x3f8] = a2\n  2483: u64 [a0 + 0x3f0] = a4\n  2487: a1 = a0\n  2489: a0 = s1 + 0x1c80\n  2493: u64 [a1 + 0x3e8] = a3\n  2497: ra = 90, jump @963\n      : @125 [@dyn 45] (gas: 6)\n  2502: a0 = u64 [s1 + 0xe0]\n  2506: a1 = u64 [s1 + 0xf0]\n  2510: a0 = a0 | a1\n  2513: a2 = u64 [s1 + 0xe8]\n  2517: a1 = u64 [s1 + 0x118]\n  2521: t0 = 92, jump @1091\n      : @126 [@dyn 46] (gas: 1)\n  2526: jump @128 if a0 == 0\n      : @127 (gas: 1)\n  2529: jump @836\n      : @128 (gas: 13)\n  2532: a0 = s1 + 0x1898\n  2536: a1 = u64 [s1 + 0xc0]\n  2540: a3 = a0 + 0x300\n  2544: u64 [a3 + 0xc8] = a1\n  2548: a1 = u64 [s1 + 0xc8]\n  2552: u64 [a3 + 0xd0] = a1\n  2556: a1 = u64 [s1 + 0xd0]\n  2560: u64 [a3 + 0xd8] = a1\n  2564: a1 = s1 + 0x1c60\n  2568: a2 = u64 [s1 + 0xd8]\n  2572: u64 [a3 + 0xe0] = a2\n  2576: a0 = u64 [s1 + 0x118]\n  2580: ra = 94, jump @4\n      : @129 [@dyn 47] (gas: 10)\n  2585: a0 = u64 [s1 + 0xe8]\n  2589: a1 = u64 [s1 + 0xe0]\n  2593: a0 = a0 | a1\n  2596: a1 = 0xffffffe0\n  2606: a2 = u64 [s1 + 0x118]\n  2610: a1 = a2 <u a1\n  2613: a2 = u64 [s1 + 0xf0]\n  2617: a1 = 0 if a2 != 0\n  2619: a1 = 0 if a0 != 0\n  2621: jump @131 if a1 != 0\n      : @130 (gas: 1)\n  2624: jump @836\n      : @131 (gas: 34)\n  2627: a0 = u64 [s1 + 0xa0]\n  2631: a0 = reverse a0\n  2633: a1 = u64 [s1 + 0xa8]\n  2637: a1 = reverse a1\n  2639: a2 = u64 [s1 + 0xb0]\n  2643: a2 = reverse a2\n  2645: a3 = u64 [s1 + 0xb8]\n  2649: a3 = reverse a3\n  2651: a4 = a3 + 0x4\n  2654: u64 [s1 + 0xd8] = a4\n  2658: a3 = a4 <u a3\n  2661: a4 = a2 + a3\n  2664: u64 [s1 + 0xd0] = a4\n  2668: a2 = a4 <u a2\n  2671: a2 = a3 if a3 == 0\n  2674: a2 = a2 + a1\n  2677: u64 [s1 + 0xc8] = a2\n  2681: a1 = a2 <u a1\n  2684: a0 = a0 + a1\n  2687: u64 [s1 + 0xc0] = a0\n  2691: a0 = u64 [s1 + 0x118]\n  2695: i32 a0 = a0 + 0x20\n  2698: a3 = s1 + 0x1898\n  2702: a1 = u64 [s1 + 0xf8]\n  2706: a4 = a3 + 0x300\n  2710: u64 [a4 + 0xa8] = a1\n  2714: a1 = u64 [s1 + 0x100]\n  2718: u64 [a4 + 0xb0] = a1\n  2722: a1 = u64 [s1 + 0x108]\n  2726: u64 [a4 + 0xb8] = a1\n  2730: a1 = s1 + 0x1c40\n  2734: a2 = u64 [s1 + 0x110]\n  2738: u64 [a4 + 0xc0] = a2\n  2742: ra = 96, jump @4\n      : @132 [@dyn 48] (gas: 22)\n  2747: a0 = u64 [s1 + 0xe0]\n  2751: a1 = s1 + 0x1898\n  2755: a2 = a1 + 0x300\n  2759: u64 [a2 + 0x80] = a0\n  2763: a0 = u64 [s1 + 0xe8]\n  2767: u64 [a2 + 0x78] = a0\n  2770: a0 = u64 [s1 + 0xf0]\n  2774: u64 [a2 + 0x70] = a0\n  2777: a0 = u64 [s1 + 0x118]\n  2781: u64 [a2 + 0x68] = a0\n  2784: a0 = u64 [s1 + 0xc0]\n  2788: u64 [a2 + 0xa0] = a0\n  2792: a0 = u64 [s1 + 0xc8]\n  2796: u64 [a2 + 0x98] = a0\n  2800: a0 = u64 [s1 + 0xd0]\n  2804: u64 [a2 + 0x90] = a0\n  2808: a3 = a1\n  2810: a0 = s1 + 0x1c20\n  2814: a1 = s1 + 0x1c00\n  2818: a2 = u64 [s1 + 0xd8]\n  2822: u64 [a3 + 0x388] = a2\n  2826: ra = 98, jump @998\n      : @133 [@dyn 49] (gas: 3)\n  2831: a0 = s1 + 0x1be0\n  2835: a1 = 0x40\n  2838: ra = 100, jump @2\n      : @134 [@dyn 50] (gas: 14)\n  2843: a4 = s1 + 0x1898\n  2847: a5 = a4 + 0x300\n  2851: a0 = u64 [a5 + 0x60]\n  2854: a1 = u64 [a5 + 0x58]\n  2857: a2 = u64 [a5 + 0x50]\n  2860: a3 = u64 [a5 + 0x48]\n  2863: a0 = a0 | a2\n  2866: a2 = a3 | a1\n  2869: a2 = a2 | a0\n  2872: a2 = a2 >> 0x20\n  2875: a0 = a0 | a1\n  2878: a0 = a0 << 0x20\n  2881: a0 = a0 | a2\n  2884: jump @136 if a0 == 0\n      : @135 (gas: 1)\n  2887: jump @836\n      : @136 (gas: 15)\n  2890: a0 = u64 [s1 + 0xf8]\n  2894: a2 = a4 + 0x300\n  2898: u64 [a2 + 0x28] = a0\n  2901: a4 = s1 + 0x100\n  2905: a0 = u64 [a4]\n  2907: u64 [a2 + 0x30] = a0\n  2910: a0 = u64 [a4 + 0x8]\n  2913: u64 [a2 + 0x38] = a0\n  2916: a1 = s1 + 0x1bc0\n  2920: a0 = u64 [a4 + 0x10]\n  2923: u64 [a2 + 0x40] = a0\n  2926: a0 = a3\n  2928: u64 [s1 + 0x118] = a3\n  2932: ra = 0x35e\n  2936: jump @4\n      : @137 (gas: 9)\n  2939: u64 [a2 + 1916] = 0\n  2943: u64 [a2 + 1908] = 0\n  2947: u64 [a2 + 1900] = 0\n  2951: u64 [a2 + 1892] = 0\n  2955: a0 = s1 + 0x3000\n  2959: i32 a0 = a0 + 0xfffffffffffff800\n  2963: ra = 0x66\n  2966: ecalli 9 // 'value_transferred'\n  2968: fallthrough\n      : @138 [@dyn 51] (gas: 3)\n  2969: a3 = s1 + 0x209c\n  2973: a4 = a3 + 0x704\n  2977: t0 = 104, jump @1070\n      : @139 [@dyn 52] (gas: 1)\n  2982: jump @141 if a0 == 0\n      : @140 (gas: 1)\n  2985: jump @853\n      : @141 (gas: 3)\n  2988: a0 = u64 [s1 + 0x118]\n  2992: a0 = i32 [a0]\n  2994: jump @143 if a0 >u 35\n      : @142 (gas: 1)\n  2998: jump @854\n      : @143 (gas: 6)\n  3001: a0 = s1 + 0x3000\n  3005: i32 a0 = a0 + 0xfffffffffffff820\n  3009: a1 = 0x4\n  3012: ra = 0x6a\n  3015: ecalli 1 // 'call_data_load'\n  3017: fallthrough\n      : @144 [@dyn 53] (gas: 4)\n  3018: a2 = s1 + 0x209c\n  3022: a1 = u64 [a2 + 0x794]\n  3026: a3 = u64 [a2 + 0x79c]\n  3030: t0 = 108, jump @1069\n      : @145 [@dyn 54] (gas: 1)\n  3035: jump @147 if a1 != 0\n      : @146 (gas: 1)\n  3038: jump @855\n      : @147 (gas: 12)\n  3041: a0 = u64 [a2 + 0x78c]\n  3045: u64 [s1 + 0x100] = a0\n  3049: a0 = u64 [a2 + 0x784]\n  3053: u64 [s1 + 0xf8] = a0\n  3057: a0 = 0x30020\n  3062: u64 [s1 + 0x118] = a0\n  3066: i32 a0 = a0 + 0\n  3068: ra = 0x6e\n  3071: ecalli 3 // 'caller'\n  3073: a2 = u64 [s1 + 0x118]\n  3077: t0 = 0x70\n  3080: jump @1050\n      : @148 [@dyn 55] (gas: 2)\n  3083: a2 = u64 [s1 + 0x118]\n  3087: t0 = 112, jump @1050\n      : @149 [@dyn 56] (gas: 8)\n  3092: u64 [a2 + 1984] = 0\n  3096: a4 = a2 + 0x700\n  3100: u64 [a4 + 0xb8] = a1\n  3104: u64 [a4 + 0xb0] = a0\n  3108: a1 = s1 + 0x2040\n  3112: u64 [a4 + 0xa8] = a3\n  3116: a0 = 0\n  3118: ra = 114, jump @4\n      : @150 [@dyn 57] (gas: 3)\n  3123: t0 = 0x74\n  3126: a1 = s1 + 0x1898\n  3130: fallthrough\n      : @151 [@dyn 58] (gas: 8)\n  3131: u64 [a1 + 1952] = 0\n  3135: u64 [a1 + 1944] = 0\n  3139: u64 [a1 + 1928] = 0x1\n  3144: a2 = a1\n  3146: a0 = 0x20\n  3149: a1 = s1 + 0x2020\n  3153: u64 [a2 + 1936] = 0\n  3157: ra = 118, jump @4\n      : @152 [@dyn 59] (gas: 1)\n  3162: t0 = 120, jump @1064\n      : @153 [@dyn 60] (gas: 2)\n  3167: a1 = i32 [0x20014]\n  3172: jump @155 if a1 >u 63\n      : @154 (gas: 2)\n  3176: u32 [0x20014] = 0x40\n  3182: fallthrough\n      : @155 (gas: 13)\n  3183: a0 = sp + 0xffffffffffffffe0\n  3186: a2 = a0 & 0xffffffffffffffe0\n  3189: u64 [s1 + 0xf0] = a2\n  3193: sp = a2\n  3195: a0 = 0x20020\n  3200: i32 a0 = a0 + 0\n  3202: i32 a2 = a2 + 0\n  3204: a1 = 0x40\n  3207: ra = 0x7a\n  3210: ecalli 5 // 'hash_keccak_256'\n  3212: a3 = u64 [s1 + 0xf0]\n  3216: t0 = 0x7c\n  3219: jump @1065\n      : @156 [@dyn 61] (gas: 2)\n  3222: a3 = u64 [s1 + 0xf0]\n  3226: t0 = 124, jump @1065\n      : @157 [@dyn 62] (gas: 2)\n  3231: a0 = a0 + s1\n  3234: ra = 126, jump @6\n      : @158 [@dyn 63] (gas: 20)\n  3239: a3 = s1 + 0x1898\n  3243: a4 = a3 + 0x700\n  3247: a0 = u64 [a4 + 0x68]\n  3250: a1 = u64 [a4 + 0x70]\n  3253: a2 = u64 [s1 + 0x110]\n  3257: u64 [a4 + 0x20] = a2\n  3260: a2 = u64 [s1 + 0x108]\n  3264: u64 [a4 + 0x18] = a2\n  3267: a2 = u64 [s1 + 0x100]\n  3271: u64 [a4 + 0x10] = a2\n  3274: a2 = u64 [s1 + 0xf8]\n  3278: u64 [a4 + 0x8] = a2\n  3281: u64 [a3 + 1856] = 0\n  3285: u64 [a4 + 0x30] = a1\n  3288: u64 [a4 + 0x28] = a0\n  3291: a0 = s1 + 0x1fe0\n  3295: a1 = s1 + 0x1fc0\n  3299: a2 = s1 + 0x1fa0\n  3303: u64 [a3 + 1848] = 0\n  3307: ra = 128, jump @1024\n      : @159 [@dyn 64] (gas: 13)\n  3313: a0 = s1 + 0x1898\n  3317: a2 = a0 + 0x700\n  3321: a1 = u64 [a2 + 0x48]\n  3324: u64 [s1 + 0xf0] = a1\n  3328: a1 = u64 [a2 + 0x50]\n  3331: u64 [s1 + 0xe8] = a1\n  3335: a1 = u64 [a2 + 0x60]\n  3338: u64 [s1 + 0xe0] = a1\n  3342: a1 = u64 [a2 + 0x58]\n  3345: u64 [s1 + 0xd8] = a1\n  3349: a0 = s1 + 0x1f80\n  3353: a1 = u64 [s1 + 0x118]\n  3357: ra = 130, jump @6\n      : @160 [@dyn 65] (gas: 18)\n  3363: a1 = s1 + 0x1898\n  3367: a0 = u64 [a1 + 0x6f8]\n  3371: a1 = u64 [a1 + 0x700]\n  3375: a2 = u64 [s1 + 0xd8]\n  3379: a0 = a0 | a2\n  3382: a2 = u64 [s1 + 0xe0]\n  3386: a1 = a1 | a2\n  3389: a2 = s1 + 0x209c\n  3393: a3 = u64 [s1 + 0xe8]\n  3397: a4 = a2 + 0x704\n  3401: u64 [a4 + 0xa8] = a3\n  3405: a3 = u64 [s1 + 0xf0]\n  3409: u64 [a4 + 0xa0] = a3\n  3413: u64 [a4 + 0xb8] = a1\n  3417: u64 [a4 + 0xb0] = a0\n  3421: a1 = s1 + 0x2840\n  3425: a0 = u64 [s1 + 0x118]\n  3429: ra = 132, jump @10\n      : @161 [@dyn 66] (gas: 3)\n  3435: a0 = s1 + 0x1f60\n  3439: a1 = 0x40\n  3442: ra = 134, jump @2\n      : @162 [@dyn 67] (gas: 7)\n  3448: a3 = s1 + 0x1898\n  3452: a5 = a3 + 0x600\n  3456: a0 = u64 [a5 + 0xe0]\n  3460: a1 = u64 [a5 + 0xd8]\n  3464: a2 = u64 [a5 + 0xd0]\n  3468: a4 = u64 [a5 + 0xc8]\n  3472: t0 = 136, jump @1063\n      : @163 [@dyn 68] (gas: 1)\n  3478: jump @165 if a0 == 0\n      : @164 (gas: 1)\n  3481: jump @836\n      : @165 (gas: 15)\n  3484: a0 = u64 [s1 + 0xf8]\n  3488: a2 = a3 + 0x600\n  3492: u64 [a2 + 0xa8] = a0\n  3496: a3 = s1 + 0x100\n  3500: a0 = u64 [a3]\n  3502: u64 [a2 + 0xb0] = a0\n  3506: a0 = u64 [a3 + 0x8]\n  3509: u64 [a2 + 0xb8] = a0\n  3513: a1 = s1 + 0x1f40\n  3517: a0 = u64 [a3 + 0x10]\n  3520: u64 [a2 + 0xc0] = a0\n  3524: a0 = a4\n  3526: u64 [s1 + 0x118] = a4\n  3530: ra = 0x35e\n  3534: jump @4\n      : @166 (gas: 10)\n  3537: u64 [a2 + 188] = 0\n  3541: u64 [a2 + 180] = 0\n  3545: u64 [a2 + 172] = 0\n  3549: u64 [a2 + 164] = 0\n  3553: a0 = s1 + 0x2000\n  3557: i32 a0 = a0 + 0x140\n  3561: ra = 0x8a\n  3565: ecalli 9 // 'value_transferred'\n  3567: t0 = 0x8c\n  3571: jump @1094\n      : @167 [@dyn 69] (gas: 1)\n  3574: t0 = 140, jump @1094\n      : @168 [@dyn 70] (gas: 1)\n  3580: t0 = 142, jump @1074\n      : @169 [@dyn 71] (gas: 1)\n  3586: jump @171 if a0 == 0\n      : @170 (gas: 1)\n  3589: jump @856\n      : @171 (gas: 3)\n  3592: a0 = u64 [s1 + 0x118]\n  3596: a0 = i32 [a0]\n  3598: jump @173 if a0 >u 35\n      : @172 (gas: 1)\n  3602: jump @857\n      : @173 (gas: 5)\n  3605: a0 = s1 + 0x2000\n  3609: i32 a0 = a0 + 0x160\n  3613: a1 = 0x4\n  3616: ecalli 1 // 'call_data_load'\n  3618: fallthrough\n      : @174 (gas: 9)\n  3619: a2 = s1 + 0x209c\n  3623: a0 = a2 + 0x4\n  3626: a5 = u64 [a0 + 0xd8]\n  3630: a3 = u64 [a0 + 0xd0]\n  3634: a4 = u64 [a0 + 0xc8]\n  3638: a0 = a3 | a5\n  3641: a1 = a4 <u 0x1\n  3644: a1 = 0 if a0 != 0\n  3646: jump @176 if a1 != 0\n      : @175 (gas: 1)\n  3649: jump @858\n      : @176 (gas: 19)\n  3652: a1 = u64 [a2 + 0xc4]\n  3656: a0 = u64 [s1 + 0x118]\n  3660: t2 = u32 [a0]\n  3662: a0 = a1 + 0x23\n  3665: a2 = a0 <u a1\n  3668: t1 = a4 + a2\n  3671: u64 [s1 + 0xe8] = a4\n  3675: a4 = t1 <u a4\n  3678: a4 = a2 if a2 == 0\n  3681: a4 = a4 + a3\n  3684: u64 [s1 + 0xf0] = a3\n  3688: a2 = a4 <u a3\n  3691: u64 [s1 + 0x108] = a5\n  3695: a2 = a2 + a5\n  3698: a2 = a2 | a4\n  3701: a0 = a0 <u t2\n  3704: a0 = 0 if t1 != 0\n  3706: a0 = 0 if a2 != 0\n  3708: jump @178 if a0 != 0\n      : @177 (gas: 1)\n  3711: jump @859\n      : @178 (gas: 10)\n  3714: a0 = sp + 0xffffffffffffffe0\n  3717: a0 = a0 & 0xffffffffffffffe0\n  3720: u64 [s1 + 0xf8] = a0\n  3724: sp = a0\n  3726: u64 [s1 + 0x110] = a1\n  3730: i32 a1 = a1 + 0x4\n  3733: a0 = s1 + 0x2000\n  3737: i32 a0 = a0 + 0x180\n  3741: ecalli 1 // 'call_data_load'\n  3743: fallthrough\n      : @179 (gas: 15)\n  3744: a0 = s1 + 0x209c\n  3748: a1 = a0 + 0x4\n  3751: a5 = u64 [a1 + 0xf8]\n  3755: ra = u64 [a0 + 0xf4]\n  3759: a2 = u64 [a1 + 0xe8]\n  3763: a4 = u64 [a1 + 0xe0]\n  3767: a0 = u64 [s1 + 0xf8]\n  3771: u64 [a0 + 0x18] = a5\n  3774: u64 [a0 + 0x10] = ra\n  3777: u64 [a0 + 0x8] = a2\n  3780: a3 = ra | a5\n  3783: a1 = a2 <u 0x1\n  3786: a1 = 0 if a3 != 0\n  3788: u64 [a0] = a4\n  3790: jump @181 if a1 != 0\n      : @180 (gas: 1)\n  3793: jump @860\n      : @181 (gas: 58)\n  3796: a3 = a4 >> 0x3b\n  3799: a1 = a2 << 0x5\n  3802: a0 = a1 | a3\n  3805: u64 [s1 + 0x98] = a4\n  3809: a1 = a4 << 0x5\n  3812: a3 = u64 [s1 + 0x110]\n  3816: a4 = a3 + 0x24\n  3819: t2 = a4 <u a3\n  3822: t0 = u64 [s1 + 0xe8]\n  3826: a3 = t0 + t2\n  3829: a0 = a0 + a3\n  3832: a1 = a1 + a4\n  3835: u64 [s1 + 0xd8] = a1\n  3839: u64 [s1 + 0x110] = a4\n  3843: a4 = a1 <u a4\n  3846: t1 = a0 + a4\n  3849: a1 = t1 ^ a3\n  3852: a0 = t1 <u a3\n  3855: a0 = a4 if a1 == 0\n  3858: a4 = ra >> 0x3b\n  3861: u64 [s1 + 0xb0] = a5\n  3865: a5 = a5 << 0x5\n  3868: a4 = a4 | a5\n  3871: u64 [s1 + 0xa0] = a2\n  3875: a5 = a2 >> 0x3b\n  3878: u64 [s1 + 0xa8] = ra\n  3882: a1 = ra << 0x5\n  3885: a1 = a1 | a5\n  3888: u64 [s1 + 0x100] = a3\n  3892: a5 = a3 <u t0\n  3895: a5 = t2 if t2 == 0\n  3898: a2 = u64 [s1 + 0xf0]\n  3902: a5 = a5 + a2\n  3905: a2 = a5 <u a2\n  3908: a3 = u64 [s1 + 0x108]\n  3912: a2 = a2 + a3\n  3915: a1 = a1 + a5\n  3918: u64 [s1 + 0x108] = a2\n  3922: a4 = a4 + a2\n  3925: u64 [s1 + 0xe0] = a5\n  3929: a2 = a1 <u a5\n  3932: a2 = a2 + a4\n  3935: a4 = u64 [s1 + 0x118]\n  3939: a4 = u32 [a4]\n  3941: a3 = a1 + a0\n  3944: a1 = a3 <u a1\n  3947: a1 = a1 + a2\n  3950: a0 = u64 [s1 + 0xd8]\n  3954: a2 = a4 <u a0\n  3957: a4 = t1 <u 0x1\n  3960: a2 = a2 ^ 0x1\n  3963: a2 = a4 if t1 != 0\n  3966: a0 = a1 <u 0x1\n  3969: a4 = a3 <u 0x1\n  3972: a4 = a0 if a1 != 0\n  3975: a1 = a1 | a3\n  3978: a2 = a4 if a1 != 0\n  3981: jump @183 if a2 != 0\n      : @182 (gas: 1)\n  3984: jump @861\n      : @183 (gas: 9)\n  3987: a0 = 0x30020\n  3992: u64 [s1 + 0x58] = a0\n  3995: i32 a0 = a0 + 0\n  3997: u64 [s1 + 0x50] = a0\n  4000: ra = 0x90\n  4004: ecalli 3 // 'caller'\n  4006: a2 = u64 [s1 + 0x58]\n  4009: t0 = 0x92\n  4013: jump @1053\n      : @184 [@dyn 72] (gas: 2)\n  4016: a2 = u64 [s1 + 0x58]\n  4019: t0 = 146, jump @1053\n      : @185 [@dyn 73] (gas: 8)\n  4025: u64 [s1 + 1048] = 0\n  4029: a2 = s1 + 0x400\n  4033: u64 [a2 + 0x10] = a1\n  4036: u64 [a2 + 0x8] = a0\n  4039: a1 = s1 + 0x400\n  4043: u64 [a2] = a3\n  4045: a0 = 0\n  4047: ra = 148, jump @4\n      : @186 [@dyn 74] (gas: 7)\n  4053: u64 [s1 + 1016] = 0\n  4057: u64 [s1 + 1008] = 0\n  4061: u64 [s1 + 1000] = 0\n  4065: a0 = 0x20\n  4068: a1 = s1 + 0x3e0\n  4072: u64 [s1 + 992] = 0x1\n  4077: ra = 150, jump @4\n      : @187 [@dyn 75] (gas: 1)\n  4083: t0 = 152, jump @1064\n      : @188 [@dyn 76] (gas: 3)\n  4089: a1 = 0x20014\n  4094: a0 = i32 [0x20014]\n  4099: jump @190 if a0 >u 63\n      : @189 (gas: 2)\n  4103: u32 [0x20014] = 0x40\n  4109: fallthrough\n      : @190 (gas: 15)\n  4110: a0 = sp + 0xffffffffffffffe0\n  4113: a2 = a0 & 0xffffffffffffffe0\n  4116: u64 [s1 + 0xf0] = a2\n  4120: sp = a2\n  4122: a0 = 0x20020\n  4127: i32 a0 = a0 + 0\n  4129: u64 [s1 + 0x60] = a1\n  4132: i32 a2 = a2 + 0\n  4134: a1 = 0x40\n  4137: u64 [s1 + 0x68] = a0\n  4140: ra = 0x9a\n  4144: ecalli 5 // 'hash_keccak_256'\n  4146: a3 = u64 [s1 + 0xf0]\n  4150: t0 = 0x9c\n  4154: jump @1059\n      : @191 [@dyn 77] (gas: 2)\n  4157: a3 = u64 [s1 + 0xf0]\n  4161: t0 = 156, jump @1059\n      : @192 [@dyn 78] (gas: 2)\n  4167: a0 = s1 + 0x3c0\n  4171: ra = 158, jump @6\n      : @193 [@dyn 79] (gas: 15)\n  4177: a0 = u64 [s1 + 0x3c0]\n  4181: a1 = u64 [s1 + 0x3c8]\n  4185: a2 = u64 [s1 + 0x3d8]\n  4189: a3 = u64 [s1 + 0x3d0]\n  4193: a0 = a0 & 0xffffffffffffff00\n  4197: a0 = a0 | 0x2\n  4200: a4 = s1 + 0x209c\n  4204: a5 = a4 + 0x104\n  4208: u64 [a5 + 0x18] = a2\n  4211: u64 [a5 + 0x10] = a3\n  4214: u64 [a5 + 0x8] = a1\n  4217: u64 [a5] = a0\n  4219: a1 = s1 + 0x21a0\n  4223: a0 = u64 [s1 + 0x118]\n  4227: ra = 160, jump @10\n      : @194 [@dyn 80] (gas: 6)\n  4233: a0 = u64 [s1 + 0x50]\n  4236: ra = 0xa2\n  4240: ecalli 3 // 'caller'\n  4242: a2 = u64 [s1 + 0x58]\n  4245: t0 = 0xa4\n  4249: jump @1053\n      : @195 [@dyn 81] (gas: 2)\n  4252: a2 = u64 [s1 + 0x58]\n  4255: t0 = 164, jump @1053\n      : @196 [@dyn 82] (gas: 7)\n  4261: u64 [s1 + 952] = 0\n  4265: u64 [s1 + 0x3b0] = a1\n  4269: u64 [s1 + 0x3a8] = a0\n  4273: a1 = s1 + 0x3a0\n  4277: u64 [s1 + 0x3a0] = a3\n  4281: a0 = 0\n  4283: ra = 166, jump @4\n      : @197 [@dyn 83] (gas: 7)\n  4289: u64 [s1 + 920] = 0\n  4293: u64 [s1 + 912] = 0\n  4297: u64 [s1 + 896] = 0x1\n  4302: a0 = 0x20\n  4305: a1 = s1 + 0x380\n  4309: u64 [s1 + 904] = 0\n  4313: ra = 168, jump @4\n      : @198 [@dyn 84] (gas: 7)\n  4319: a1 = u64 [s1 + 0x60]\n  4322: a0 = sp + 0xffffffffffffffe0\n  4325: a0 = a0 & 0xffffffffffffffe0\n  4328: u64 [s1 + 0x118] = a0\n  4332: sp = a0\n  4334: a0 = i32 [a1]\n  4336: jump @200 if a0 >u 63\n      : @199 (gas: 2)\n  4340: u32 [a1 + 0] = 0x40\n  4343: fallthrough\n      : @200 (gas: 12)\n  4344: a0 = sp + 0xffffffffffffffe0\n  4347: a0 = a0 & 0xffffffffffffffe0\n  4350: u64 [s1 + 0xf0] = a0\n  4354: sp = a0\n  4356: i32 a2 = a0 + 0\n  4358: a1 = 0x40\n  4361: a0 = u64 [s1 + 0x68]\n  4364: ra = 0xaa\n  4368: ecalli 5 // 'hash_keccak_256'\n  4370: a3 = u64 [s1 + 0xf0]\n  4374: t0 = 0xac\n  4378: jump @1055\n      : @201 [@dyn 85] (gas: 2)\n  4381: a3 = u64 [s1 + 0xf0]\n  4385: t0 = 172, jump @1055\n      : @202 [@dyn 86] (gas: 11)\n  4391: u64 [s1 + 0x90] = a4\n  4395: a1 = u64 [s1 + 0x118]\n  4399: u64 [a1] = a4\n  4401: u64 [s1 + 0x80] = a5\n  4405: u64 [a1 + 0x8] = a5\n  4408: u64 [s1 + 0x78] = a2\n  4411: u64 [a1 + 0x10] = a2\n  4414: u64 [s1 + 0x88] = a0\n  4418: u64 [a1 + 0x18] = a0\n  4421: a0 = s1 + 0x360\n  4425: ra = 174, jump @6\n      : @203 [@dyn 87] (gas: 12)\n  4431: a1 = s1 + 0x300\n  4435: a0 = u64 [a1 + 0x78]\n  4438: u64 [s1 + 0xf0] = a0\n  4442: a0 = u64 [a1 + 0x70]\n  4445: u64 [s1 + 0xe8] = a0\n  4449: a0 = u64 [a1 + 0x68]\n  4452: u64 [s1 + 0xd0] = a0\n  4456: a0 = u64 [a1 + 0x60]\n  4459: u64 [s1 + 0xd8] = a0\n  4463: a0 = u64 [s1 + 0x118]\n  4467: a1 = u64 [s1 + 0xf8]\n  4471: ra = 176, jump @10\n      : @204 [@dyn 88] (gas: 20)\n  4477: a4 = u64 [s1 + 0xb0]\n  4481: a5 = u64 [s1 + 0xf0]\n  4485: a0 = a4 ^ a5\n  4488: a2 = u64 [s1 + 0xa0]\n  4492: a1 = u64 [s1 + 0xd0]\n  4496: t0 = a2 ^ a1\n  4499: a2 = a2 <u a1\n  4502: a3 = u64 [s1 + 0x98]\n  4506: a1 = u64 [s1 + 0xd8]\n  4510: a3 = a3 <u a1\n  4513: a3 = a2 if t0 != 0\n  4516: a1 = a4 <u a5\n  4519: a4 = u64 [s1 + 0xa8]\n  4523: a5 = u64 [s1 + 0xe8]\n  4527: a2 = a4 <u a5\n  4530: a2 = a1 if a0 != 0\n  4533: a1 = a4 ^ a5\n  4536: a0 = a0 | a1\n  4539: a3 = a2 if a0 != 0\n  4542: jump @206 if a3 != 0\n      : @205 (gas: 1)\n  4545: jump @546\n      : @206 (gas: 12)\n  4548: a0 = u64 [s1 + 0x90]\n  4552: a2 = s1 + 0x300\n  4556: u64 [a2 + 0x40] = a0\n  4559: a0 = u64 [s1 + 0x80]\n  4563: u64 [a2 + 0x48] = a0\n  4566: a0 = u64 [s1 + 0x78]\n  4569: u64 [a2 + 0x50] = a0\n  4572: a1 = s1 + 0x340\n  4576: a0 = u64 [s1 + 0x88]\n  4580: u64 [a2 + 0x58] = a0\n  4583: a0 = 0\n  4585: ra = 178, jump @4\n      : @207 [@dyn 89] (gas: 3)\n  4591: a2 = u64 [s1 + 0x60]\n  4594: a0 = i32 [a2]\n  4596: jump @209 if a0 >u 31\n      : @208 (gas: 3)\n  4600: u32 [a2 + 0] = 0x20\n  4603: t0 = 0xb4\n  4607: jump @1085\n      : @209 (gas: 1)\n  4610: t0 = 180, jump @1085\n      : @210 [@dyn 90] (gas: 56)\n  4616: a0 = u64 [s1 + 0x68]\n  4619: ecalli 5 // 'hash_keccak_256'\n  4621: a1 = u64 [s1 + 0x118]\n  4625: a0 = u64 [a1 + 0x18]\n  4628: a2 = u64 [a1 + 0x10]\n  4631: t0 = u64 [a1 + 0x8]\n  4634: a3 = u64 [a1]\n  4636: a1 = reverse a0\n  4638: a0 = reverse a2\n  4640: a2 = u64 [s1 + 0xd0]\n  4644: a2 = a2 + a0\n  4647: a4 = u64 [s1 + 0xd8]\n  4651: a4 = a4 + a1\n  4654: u64 [s1 + 0xd8] = a4\n  4658: a5 = a4 <u a1\n  4661: a4 = a2 + a5\n  4664: a2 = a4 ^ a0\n  4667: u64 [s1 + 0xd0] = a4\n  4671: a4 = a4 <u a0\n  4674: a4 = a5 if a2 == 0\n  4677: t1 = reverse a3\n  4679: a3 = reverse t0\n  4681: a5 = u64 [s1 + 0xe8]\n  4685: a5 = a5 + a3\n  4688: t0 = u64 [s1 + 0xf0]\n  4692: t0 = t0 + t1\n  4695: a2 = a5 <u a3\n  4698: a2 = a2 + t0\n  4701: a4 = a4 + a5\n  4704: u64 [s1 + 0xc8] = a4\n  4708: a4 = a4 <u a5\n  4711: a2 = a2 + a4\n  4714: u64 [s1 + 0xc0] = a2\n  4718: a2 = sp + 0xffffffffffffffe0\n  4721: t0 = a2 & 0xffffffffffffffe0\n  4724: sp = t0\n  4726: a2 = u64 [s1 + 0xa0]\n  4730: a2 = a2 + a0\n  4733: a4 = u64 [s1 + 0x98]\n  4737: t2 = a1 + a4\n  4740: a1 = t2 <u a1\n  4743: ra = a2 + a1\n  4746: a2 = ra ^ a0\n  4749: a0 = ra <u a0\n  4752: a0 = a1 if a2 == 0\n  4755: a1 = u64 [s1 + 0xa8]\n  4759: a1 = a1 + a3\n  4762: a2 = u64 [s1 + 0xb0]\n  4766: t1 = t1 + a2\n  4769: a2 = a1 <u a3\n  4772: a2 = a2 + t1\n  4775: t1 = a1 + a0\n  4778: a0 = t1 <u a1\n  4781: a5 = a2 + a0\n  4784: u64 [s1 + 0xb8] = t0\n  4788: fallthrough\n      : @211 (gas: 21)\n  4789: a0 = u64 [s1 + 0xd8]\n  4793: a0 = t2 <u a0\n  4796: a2 = u64 [s1 + 0xd0]\n  4800: a1 = ra ^ a2\n  4803: a2 = ra <u a2\n  4806: a2 = a0 if a1 == 0\n  4809: a4 = u64 [s1 + 0xc8]\n  4813: a0 = t1 <u a4\n  4816: a3 = u64 [s1 + 0xc0]\n  4820: a1 = a5 ^ a3\n  4823: a3 = a5 <u a3\n  4826: a3 = a0 if a1 == 0\n  4829: a0 = t1 ^ a4\n  4832: a0 = a0 | a1\n  4835: a3 = a2 if a0 == 0\n  4838: u64 [t0] = t2\n  4840: u64 [t0 + 0x8] = ra\n  4843: u64 [t0 + 0x10] = t1\n  4846: u64 [t0 + 0x18] = a5\n  4849: a0 = s1 + 0x209c\n  4853: jump @213 if a3 != 0\n      : @212 (gas: 1)\n  4856: jump @546\n      : @213 (gas: 11)\n  4859: u64 [a0 + 316] = 0\n  4863: u64 [a0 + 308] = 0\n  4867: u64 [a0 + 300] = 0\n  4871: u64 [a0 + 292] = 0\n  4875: a1 = s1 + 0x21c0\n  4879: a0 = t0\n  4881: u64 [s1 + 0x118] = t2\n  4885: u64 [s1 + 0xf8] = ra\n  4889: u64 [s1 + 0xf0] = a5\n  4893: u64 [s1 + 0xe8] = t1\n  4897: ra = 182, jump @10\n      : @214 [@dyn 91] (gas: 15)\n  4903: a5 = u64 [s1 + 0xf0]\n  4907: ra = u64 [s1 + 0xf8]\n  4911: t2 = u64 [s1 + 0x118]\n  4915: t0 = u64 [s1 + 0xb8]\n  4919: t2 = t2 + 0x1\n  4922: a0 = t2 <u 0x1\n  4925: ra = ra + a0\n  4928: a0 = t2 | ra\n  4931: a0 = a0 <u 0x1\n  4934: a1 = u64 [s1 + 0xe8]\n  4938: a0 = a0 + a1\n  4941: a1 = a0 <u a1\n  4944: a5 = a5 + a1\n  4947: t1 = a0\n  4949: jump @211\n      : @215 (gas: 10)\n  4952: u64 [a2 + 988] = 0\n  4956: u64 [a2 + 980] = 0\n  4960: u64 [a2 + 972] = 0\n  4964: u64 [a2 + 964] = 0\n  4968: a0 = s1 + 0x2000\n  4972: i32 a0 = a0 + 0x460\n  4976: ra = 0xb8\n  4980: ecalli 9 // 'value_transferred'\n  4982: t0 = 0xba\n  4986: jump @1071\n      : @216 [@dyn 92] (gas: 1)\n  4989: t0 = 186, jump @1071\n      : @217 [@dyn 93] (gas: 8)\n  4995: a0 = u64 [a4 + 0xd0]\n  4999: a1 = u64 [a4 + 0xd8]\n  5003: a2 = u64 [a4 + 0xc8]\n  5007: a3 = u64 [a4 + 0xc0]\n  5011: a1 = a1 | a2\n  5014: a0 = a0 | a3\n  5017: a0 = a0 | a1\n  5020: jump @219 if a0 == 0\n      : @218 (gas: 1)\n  5023: jump @862\n      : @219 (gas: 3)\n  5026: a0 = u64 [s1 + 0x118]\n  5030: a0 = i32 [a0]\n  5032: jump @221 if a0 >u 3\n      : @220 (gas: 1)\n  5036: jump @863\n      : @221 (gas: 4)\n  5039: a0 = s1 + 0x7ff\n  5043: a0 = a0 + 0x461\n  5047: a1 = 0x40\n  5050: ra = 188, jump @2\n      : @222 [@dyn 94] (gas: 1)\n  5056: t0 = 190, jump @1082\n      : @223 [@dyn 95] (gas: 5)\n  5062: a4 = u64 [a5 + 0xe0]\n  5066: a1 = u64 [a5 + 0xd8]\n  5070: a2 = u64 [a5 + 0xd0]\n  5074: a0 = u64 [a5 + 0xc8]\n  5078: t0 = 192, jump @1057\n      : @224 [@dyn 96] (gas: 1)\n  5084: jump @226 if a1 == 0\n      : @225 (gas: 1)\n  5087: jump @836\n      : @226 (gas: 9)\n  5090: u64 [a3 + 960] = 0\n  5094: u64 [a3 + 952] = 0\n  5098: u64 [a3 + 936] = 0x1388\n  5104: a1 = s1 + 0x7ff\n  5108: a1 = a1 + 0x441\n  5112: u64 [a3 + 944] = 0\n  5116: u64 [s1 + 0x118] = a0\n  5120: ra = 0x35e\n  5124: jump @4\n      : @227 (gas: 10)\n  5127: u64 [a2 + 156] = 0\n  5131: u64 [a2 + 148] = 0\n  5135: u64 [a2 + 140] = 0\n  5139: u64 [a2 + 132] = 0\n  5143: a0 = s1 + 0x2000\n  5147: i32 a0 = a0 + 0x120\n  5151: ra = 0xc2\n  5155: ecalli 9 // 'value_transferred'\n  5157: t0 = 0xc4\n  5161: jump @1094\n      : @228 [@dyn 97] (gas: 1)\n  5164: t0 = 196, jump @1094\n      : @229 [@dyn 98] (gas: 1)\n  5170: t0 = 198, jump @1068\n      : @230 [@dyn 99] (gas: 1)\n  5176: jump @232 if a0 == 0\n      : @231 (gas: 1)\n  5179: jump @864\n      : @232 (gas: 3)\n  5182: a0 = u64 [s1 + 0x118]\n  5186: a0 = i32 [a0]\n  5188: jump @234 if a0 >u 3\n      : @233 (gas: 1)\n  5192: jump @865\n      : @234 (gas: 3)\n  5195: a0 = s1 + 0x260\n  5199: a1 = 0x40\n  5202: ra = 200, jump @2\n      : @235 [@dyn 100] (gas: 6)\n  5208: a4 = s1 + 0x200\n  5212: a3 = u64 [a4 + 0x78]\n  5215: a1 = u64 [a4 + 0x70]\n  5218: a2 = u64 [a4 + 0x68]\n  5221: a0 = u64 [a4 + 0x60]\n  5224: t0 = 202, jump @1076\n      : @236 [@dyn 101] (gas: 1)\n  5230: jump @238 if a1 == 0\n      : @237 (gas: 1)\n  5233: jump @836\n      : @238 (gas: 9)\n  5236: u64 [s1 + 600] = 0\n  5240: u64 [s1 + 592] = 0\n  5244: a2 = u64 [0x20008]\n  5249: u64 [s1 + 584] = 0x1\n  5254: a1 = s1 + 0x240\n  5258: u64 [s1 + 0x240] = a2\n  5262: u64 [s1 + 0x118] = a0\n  5266: ra = 0x35e\n  5270: jump @4\n      : @239 (gas: 10)\n  5273: u64 [a2 + 668] = 0\n  5277: u64 [a2 + 660] = 0\n  5281: u64 [a2 + 652] = 0\n  5285: u64 [a2 + 644] = 0\n  5289: a0 = s1 + 0x2000\n  5293: i32 a0 = a0 + 0x320\n  5297: ra = 0xcc\n  5301: ecalli 9 // 'value_transferred'\n  5303: t0 = 0xce\n  5307: jump @1093\n      : @240 [@dyn 102] (gas: 1)\n  5310: t0 = 206, jump @1093\n      : @241 [@dyn 103] (gas: 1)\n  5316: t0 = 208, jump @1068\n      : @242 [@dyn 104] (gas: 1)\n  5322: jump @244 if a0 == 0\n      : @243 (gas: 1)\n  5325: jump @866\n      : @244 (gas: 3)\n  5328: a0 = u64 [s1 + 0x118]\n  5332: a0 = i32 [a0]\n  5334: jump @246 if a0 >u 3\n      : @245 (gas: 1)\n  5338: jump @867\n      : @246 (gas: 8)\n  5341: a0 = 0x30020\n  5346: u64 [s1 + 0x118] = a0\n  5350: i32 a0 = a0 + 0\n  5352: ra = 0xd2\n  5356: ecalli 3 // 'caller'\n  5358: a2 = u64 [s1 + 0x118]\n  5362: t0 = 0xd4\n  5366: jump @1051\n      : @247 [@dyn 105] (gas: 2)\n  5369: a2 = u64 [s1 + 0x118]\n  5373: t0 = 212, jump @1051\n      : @248 [@dyn 106] (gas: 8)\n  5379: u64 [a2 + 256] = 0\n  5383: u64 [a2 + 0xf8] = a1\n  5387: u64 [a2 + 0xf0] = a0\n  5391: a1 = s1 + 0x7ff\n  5395: a1 = a1 + 0x181\n  5399: u64 [a2 + 0xe8] = a3\n  5403: a0 = 0\n  5405: ra = 214, jump @4\n      : @249 [@dyn 107] (gas: 11)\n  5411: a1 = s1 + 0x7ff\n  5415: a1 = a1 + 0x99\n  5419: u64 [a1 + 224] = 0\n  5423: u64 [a1 + 216] = 0\n  5427: u64 [a1 + 200] = 0x1\n  5432: a2 = a1\n  5434: a0 = 0x20\n  5437: a1 = s1 + 0x7ff\n  5441: a1 = a1 + 0x161\n  5445: u64 [a2 + 208] = 0\n  5449: ra = 216, jump @4\n      : @250 [@dyn 108] (gas: 1)\n  5455: t0 = 218, jump @1064\n      : @251 [@dyn 109] (gas: 4)\n  5461: a2 = 0x20014\n  5466: a0 = i32 [0x20014]\n  5471: a1 = 0x3f\n  5474: jump @253 if a1 <u a0\n      : @252 (gas: 4)\n  5477: u32 [0x20014] = 0x40\n  5483: u64 [s1 + 0xf8] = a2\n  5487: t0 = 0xdc\n  5491: jump @1086\n      : @253 (gas: 2)\n  5494: u64 [s1 + 0xf8] = a2\n  5498: t0 = 220, jump @1086\n      : @254 [@dyn 110] (gas: 8)\n  5504: a0 = 0x20020\n  5509: i32 a0 = a0 + 0\n  5511: i32 a2 = a2 + 0\n  5513: a1 = 0x40\n  5516: u64 [s1 + 0x100] = a0\n  5520: ra = 0xde\n  5524: ecalli 5 // 'hash_keccak_256'\n  5526: fallthrough\n      : @255 [@dyn 111] (gas: 6)\n  5527: a3 = u64 [s1 + 0x110]\n  5531: a0 = u64 [a3]\n  5533: a1 = u64 [a3 + 0x8]\n  5536: a2 = u64 [a3 + 0x10]\n  5539: a3 = u64 [a3 + 0x18]\n  5542: t0 = 224, jump @1077\n      : @256 [@dyn 112] (gas: 20)\n  5548: a4 = a3 + 0x4\n  5551: a3 = a4 <u a3\n  5554: a5 = a2 + a3\n  5557: a2 = a5 <u a2\n  5560: a2 = a3 if a3 == 0\n  5563: a2 = a2 + a1\n  5566: a1 = a2 <u a1\n  5569: a0 = a0 + a1\n  5572: u64 [s1 + 0xf0] = a4\n  5576: a1 = u64 [s1 + 0x118]\n  5580: u64 [a1] = a4\n  5582: u64 [s1 + 0xe8] = a5\n  5586: u64 [a1 + 0x8] = a5\n  5589: u64 [s1 + 0xe0] = a2\n  5593: u64 [a1 + 0x10] = a2\n  5596: u64 [s1 + 0xd8] = a0\n  5600: u64 [a1 + 0x18] = a0\n  5603: a0 = s1 + 0x7ff\n  5607: a0 = a0 + 0x141\n  5611: ra = 226, jump @6\n      : @257 [@dyn 113] (gas: 15)\n  5617: a3 = s1 + 0x7ff\n  5621: a3 = a3 + 0x99\n  5625: a2 = u64 [a3 + 0xc0]\n  5629: a4 = u64 [a3 + 0xb8]\n  5633: a5 = u64 [a3 + 0xb0]\n  5637: a0 = a2 >u 0\n  5639: a1 = a4 >u 0\n  5641: a1 = a0 if a2 != 0\n  5644: u64 [s1 + 0x70] = a2\n  5647: u64 [s1 + 0x68] = a4\n  5650: a0 = a4 | a2\n  5653: u64 [s1 + 0x60] = a5\n  5656: a2 = a5 >u 0\n  5658: a2 = a1 if a0 != 0\n  5661: jump @259 if a2 == 0\n      : @258 (gas: 1)\n  5664: jump @868\n      : @259 (gas: 6)\n  5667: a0 = u64 [a3 + 0xa8]\n  5671: u64 [s1 + 0x58] = a0\n  5674: a0 = s1 + 0x7ff\n  5678: a0 = a0 + 0x121\n  5682: a1 = 0x40\n  5685: ra = 228, jump @2\n      : @260 [@dyn 114] (gas: 48)\n  5691: ra = s1 + 0x7ff\n  5695: ra = ra + 0x99\n  5699: t1 = u64 [ra + 0xa0]\n  5703: u64 [s1 + 0x118] = t1\n  5707: t0 = u64 [ra + 0x98]\n  5711: u64 [s1 + 0x110] = t0\n  5715: t2 = u64 [ra + 0x90]\n  5719: u64 [s1 + 0x108] = t2\n  5723: a2 = u64 [s1 + 0x68]\n  5726: a0 = a2 >> 0x3b\n  5729: a1 = u64 [s1 + 0x70]\n  5732: a1 = a1 << 0x5\n  5735: a0 = a0 | a1\n  5738: a3 = u64 [s1 + 0x60]\n  5741: a1 = a3 >> 0x3b\n  5744: a2 = a2 << 0x5\n  5747: a1 = a1 | a2\n  5750: a4 = u64 [s1 + 0x58]\n  5753: a2 = a4 >> 0x3b\n  5756: a3 = a3 << 0x5\n  5759: a2 = a2 | a3\n  5762: a3 = a4 << 0x5\n  5765: a4 = a3 + 0x20\n  5768: a3 = a4 <u a3\n  5771: a5 = a2 + a3\n  5774: a2 = a5 <u a2\n  5777: a2 = a3 if a3 == 0\n  5780: a3 = u64 [ra + 0x88]\n  5784: u64 [s1 + 0x28] = a3\n  5787: a2 = a2 + a1\n  5790: a1 = a2 <u a1\n  5793: ra = a0 + a1\n  5796: a0 = s1 + 0x7ff\n  5800: a0 = a0 + 0x99\n  5804: u64 [a0 + 0x48] = a4\n  5807: u64 [a0 + 0x80] = t1\n  5811: u64 [a0 + 0x78] = t0\n  5814: u64 [a0 + 0x70] = t2\n  5817: u64 [a0 + 0x68] = a3\n  5820: u64 [a0 + 0x50] = a5\n  5823: u64 [a0 + 0x58] = a2\n  5826: a2 = a0\n  5828: a0 = s1 + 0x7ff\n  5832: a0 = a0 + 0x101\n  5836: a1 = s1 + 0x7ff\n  5840: a1 = a1 + 0xe1\n  5844: u64 [a2 + 0x60] = ra\n  5847: ra = 230, jump @972\n      : @261 [@dyn 115] (gas: 13)\n  5853: a0 = u64 [s1 + 0x28]\n  5856: a4 = s1 + 0x100\n  5860: a1 = u64 [a4 + 0x18]\n  5863: a2 = u64 [a4 + 0x8]\n  5866: a2 = a2 | a1\n  5869: a3 = u64 [a4 + 0x10]\n  5872: a1 = a0 | a3\n  5875: a1 = a1 | a2\n  5878: a1 = a1 >> 0x20\n  5881: a2 = a2 | a3\n  5884: a2 = a2 << 0x20\n  5887: a1 = a1 | a2\n  5890: jump @263 if a1 == 0\n      : @262 (gas: 1)\n  5893: jump @836\n      : @263 (gas: 13)\n  5896: a3 = s1 + 0x7ff\n  5900: a3 = a3 + 0x99\n  5904: a1 = u64 [s1 + 0x58]\n  5907: u64 [a3 + 0x28] = a1\n  5910: a1 = u64 [s1 + 0x60]\n  5913: u64 [a3 + 0x30] = a1\n  5916: a1 = u64 [s1 + 0x68]\n  5919: u64 [a3 + 0x38] = a1\n  5922: a1 = s1 + 0x7ff\n  5926: a1 = a1 + 0xc1\n  5930: a2 = u64 [s1 + 0x70]\n  5933: u64 [a3 + 0x40] = a2\n  5936: ra = 232, jump @4\n      : @264 [@dyn 116] (gas: 30)\n  5942: a1 = u64 [s1 + 0x28]\n  5945: a0 = a1 + 0x20\n  5948: u64 [s1 + 0x48] = a0\n  5951: a0 = a0 <u a1\n  5954: a3 = s1 + 0x100\n  5958: a2 = u64 [a3 + 0x8]\n  5961: a1 = a2 + a0\n  5964: u64 [s1 + 0x40] = a1\n  5967: a1 = a1 <u a2\n  5970: a1 = a0 if a0 == 0\n  5973: a0 = u64 [a3 + 0x10]\n  5976: a1 = a1 + a0\n  5979: u64 [s1 + 0x38] = a1\n  5982: a0 = a1 <u a0\n  5985: u64 [a3 + 0x10] = a0\n  5988: a0 = u64 [s1 + 0xd8]\n  5992: a1 = s1 + 0x7ff\n  5996: a1 = a1 + 0x99\n  6000: u64 [a1 + 0x20] = a0\n  6003: a0 = u64 [s1 + 0xe0]\n  6007: u64 [a1 + 0x18] = a0\n  6010: a0 = u64 [s1 + 0xe8]\n  6014: u64 [a1 + 0x10] = a0\n  6017: a2 = a1\n  6019: a1 = s1 + 0x7ff\n  6023: a1 = a1 + 0xa1\n  6027: a0 = u64 [s1 + 0xf0]\n  6031: u64 [a2 + 0x8] = a0\n  6034: a0 = 0\n  6036: ra = 234, jump @4\n      : @265 [@dyn 117] (gas: 7)\n  6042: a0 = sp + 0xffffffffffffffe0\n  6045: a0 = a0 & 0xffffffffffffffe0\n  6048: u64 [s1 + 0xd0] = a0\n  6052: sp = a0\n  6054: a2 = u64 [s1 + 0xf8]\n  6058: a0 = i32 [a2]\n  6060: jump @267 if a0 >u 31\n      : @266 (gas: 2)\n  6064: u32 [a2 + 0] = 0x20\n  6067: fallthrough\n      : @267 (gas: 7)\n  6068: a0 = u64 [s1 + 0x118]\n  6072: a1 = u64 [s1 + 0x110]\n  6076: a0 = a0 + a1\n  6079: u64 [s1 + 0x30] = a0\n  6082: a0 = 0xffffffff\n  6092: u64 [s1 + 0x78] = a0\n  6095: t0 = 236, jump @1075\n      : @268 [@dyn 118] (gas: 31)\n  6101: ecalli 5 // 'hash_keccak_256'\n  6103: a2 = 0\n  6105: a1 = 0\n  6107: a5 = 0\n  6109: t2 = 0\n  6111: a3 = u64 [s1 + 0x118]\n  6115: a0 = u64 [a3 + 0x18]\n  6118: a4 = u64 [a3 + 0x10]\n  6121: t0 = u64 [a3 + 0x8]\n  6124: t1 = u64 [a3]\n  6126: ra = reverse a0\n  6128: a3 = reverse a4\n  6130: a4 = reverse t0\n  6132: t0 = reverse t1\n  6134: a0 = u64 [s1 + 0xd0]\n  6138: u64 [a0 + 0x18] = t0\n  6141: u64 [s1 + 0xb8] = a4\n  6145: u64 [a0 + 0x10] = a4\n  6148: u64 [a0 + 0x8] = a3\n  6151: u64 [a0] = ra\n  6153: a0 = 0xffffffe0\n  6163: u64 [s1 + 0x50] = a0\n  6166: a0 = u64 [s1 + 0x48]\n  6169: u64 [s1 + 0xf0] = a0\n  6173: a0 = u64 [s1 + 0x40]\n  6176: u64 [s1 + 0xe8] = a0\n  6180: a0 = u64 [s1 + 0x38]\n  6183: u64 [s1 + 0xf8] = a0\n  6187: a0 = u64 [s1 + 0x30]\n  6190: u64 [s1 + 0x100] = a0\n  6194: fallthrough\n      : @269 (gas: 27)\n  6195: u64 [s1 + 0x90] = t0\n  6199: u64 [s1 + 0x118] = a3\n  6203: u64 [s1 + 0x98] = ra\n  6207: a0 = u64 [s1 + 0x58]\n  6210: u64 [s1 + 0xb0] = a2\n  6214: a0 = a2 <u a0\n  6217: a2 = u64 [s1 + 0x60]\n  6220: a3 = a1 ^ a2\n  6223: u64 [s1 + 0xa8] = a1\n  6227: a2 = a1 <u a2\n  6230: a2 = a0 if a3 == 0\n  6233: a4 = u64 [s1 + 0x68]\n  6236: a0 = a5 <u a4\n  6239: a3 = u64 [s1 + 0x70]\n  6242: a1 = t2 ^ a3\n  6245: u64 [s1 + 0xa0] = t2\n  6249: a3 = t2 <u a3\n  6252: a3 = a0 if a1 == 0\n  6255: u64 [s1 + 0x88] = a5\n  6259: a0 = a5 ^ a4\n  6262: a0 = a0 | a1\n  6265: a3 = a2 if a0 == 0\n  6268: u64 [s1 + 0xc8] = a3\n  6272: a0 = s1 + 0x7ff\n  6276: a0 = a0 + 0x81\n  6280: a1 = 0x40\n  6283: ra = 238, jump @2\n      : @270 [@dyn 119] (gas: 16)\n  6289: a0 = s1 + 0x7ff\n  6293: a0 = a0 + 0x99\n  6297: t2 = u64 [a0]\n  6299: a1 = u64 [a0 + 0xfffffffffffffff8]\n  6302: a0 = s1 + 0x1000\n  6306: a2 = u64 [a0 + 0xfffffffffffff880]\n  6310: a0 = s1 + 0x1000\n  6314: a4 = u64 [a0 + 0xfffffffffffff888]\n  6318: a0 = a2 | a1\n  6321: a3 = a4 | t2\n  6324: a5 = u64 [s1 + 0xc8]\n  6328: u64 [s1 + 0x108] = a2\n  6332: u64 [s1 + 0xe0] = t2\n  6336: u64 [s1 + 0xd8] = a4\n  6340: u64 [s1 + 0x110] = a1\n  6344: jump @272 if a5 != 0\n      : @271 (gas: 1)\n  6347: jump @815\n      : @272 (gas: 9)\n  6350: a5 = s1 + 0x700\n  6354: u64 [a5 + 0x60] = a2\n  6357: u64 [a5 + 0x68] = a4\n  6360: u64 [a5 + 0x70] = a1\n  6363: u64 [s1 + 0xc8] = a0\n  6367: a0 = s1 + 0x760\n  6371: u64 [s1 + 0x778] = t2\n  6375: u64 [s1 + 0xc0] = a3\n  6379: ra = 240, jump @963\n      : @273 [@dyn 120] (gas: 3)\n  6385: a0 = s1 + 0x740\n  6389: a1 = u64 [s1 + 0xd0]\n  6393: ra = 242, jump @6\n      : @274 [@dyn 121] (gas: 9)\n  6399: a0 = u64 [s1 + 0xc8]\n  6403: a2 = u64 [s1 + 0xc0]\n  6407: a0 = a0 | a2\n  6410: a0 = a0 >> 0x20\n  6413: a1 = u64 [s1 + 0x110]\n  6417: a1 = a1 | a2\n  6420: a1 = a1 << 0x20\n  6423: a0 = a0 | a1\n  6426: jump @276 if a0 == 0\n      : @275 (gas: 1)\n  6429: jump @836\n      : @276 (gas: 16)\n  6432: a2 = s1 + 0x700\n  6436: a0 = u64 [a2 + 0x50]\n  6439: u64 [s1 + 0xc8] = a0\n  6443: a1 = u64 [a2 + 0x40]\n  6446: a0 = u64 [a2 + 0x48]\n  6449: u64 [s1 + 0xc0] = a0\n  6453: a0 = u64 [s1 + 0x78]\n  6456: u64 [s1 + 0x80] = a1\n  6460: a0 = a0 & a1\n  6463: u64 [s1 + 1848] = 0\n  6467: u64 [s1 + 1840] = 0\n  6471: u64 [s1 + 1832] = 0\n  6475: a1 = s1 + 0x720\n  6479: u64 [a2 + 0x20] = a0\n  6482: a0 = u64 [s1 + 0x108]\n  6486: ra = 244, jump @4\n      : @277 [@dyn 122] (gas: 10)\n  6492: a0 = u64 [s1 + 0xe0]\n  6496: a1 = u64 [s1 + 0x110]\n  6500: a0 = a0 | a1\n  6503: a1 = u64 [s1 + 0x50]\n  6506: a4 = u64 [s1 + 0x108]\n  6510: a1 = a4 <u a1\n  6513: a2 = u64 [s1 + 0xd8]\n  6517: a1 = 0 if a2 != 0\n  6519: a1 = 0 if a0 != 0\n  6521: jump @279 if a1 != 0\n      : @278 (gas: 1)\n  6524: jump @836\n      : @279 (gas: 18)\n  6527: a0 = u64 [s1 + 0x80]\n  6531: a0 = a0 >> 0x20\n  6534: a2 = u64 [s1 + 0xc0]\n  6538: a1 = a2 << 0x20\n  6541: a0 = a0 | a1\n  6544: a1 = a2 >> 0x20\n  6547: a2 = u64 [s1 + 0xc8]\n  6551: a2 = a2 << 0x20\n  6554: a1 = a1 | a2\n  6557: a2 = a1 & 0xffffffffffffffff\n  6560: a1 = a0 & 0xffffffffffffffff\n  6563: i32 a0 = a4 + 0x20\n  6566: u64 [s1 + 1816] = 0\n  6570: u64 [s1 + 1808] = 0\n  6574: u64 [s1 + 0x700] = a1\n  6578: a1 = s1 + 0x700\n  6582: u64 [s1 + 0x708] = a2\n  6586: ra = 246, jump @4\n      : @280 [@dyn 123] (gas: 12)\n  6592: a3 = u64 [s1 + 0xf8]\n  6596: a4 = u64 [s1 + 0xf0]\n  6600: a0 = a4 | a3\n  6603: a2 = u64 [s1 + 0x100]\n  6607: a5 = u64 [s1 + 0xe8]\n  6611: a1 = a5 | a2\n  6614: a0 = a0 | a1\n  6617: a0 = a0 >> 0x20\n  6620: a1 = a1 | a3\n  6623: a1 = a1 << 0x20\n  6626: a0 = a0 | a1\n  6629: jump @282 if a0 == 0\n      : @281 (gas: 1)\n  6632: jump @836\n      : @282 (gas: 15)\n  6635: a0 = u64 [s1 + 0x108]\n  6639: u64 [s1 + 0x6e0] = a0\n  6643: a0 = u64 [s1 + 0xd8]\n  6647: u64 [s1 + 0x6e8] = a0\n  6651: a0 = u64 [s1 + 0x110]\n  6655: u64 [s1 + 0x6f0] = a0\n  6659: a1 = s1 + 0x6e0\n  6663: a0 = u64 [s1 + 0xe0]\n  6667: u64 [s1 + 0x6f8] = a0\n  6671: a0 = a4\n  6673: u64 [s1 + 0x100] = a2\n  6677: u64 [s1 + 0xf8] = a3\n  6681: u64 [s1 + 0xf0] = a4\n  6685: u64 [s1 + 0xe8] = a5\n  6689: ra = 248, jump @4\n      : @283 [@dyn 124] (gas: 58)\n  6695: ra = u64 [s1 + 0x98]\n  6699: a1 = u64 [s1 + 0xf0]\n  6703: a0 = a1 + 0x20\n  6706: u64 [s1 + 0x110] = a0\n  6710: a2 = a0 <u a1\n  6713: a1 = u64 [s1 + 0xe8]\n  6717: a0 = a1 + a2\n  6720: u64 [s1 + 0x108] = a0\n  6724: a3 = a0 <u a1\n  6727: a3 = a2 if a2 == 0\n  6730: a0 = u64 [s1 + 0xf8]\n  6734: t1 = a0 + a3\n  6737: a3 = t1 <u a0\n  6740: a0 = u64 [s1 + 0x100]\n  6744: a0 = a0 + a3\n  6747: u64 [s1 + 0x100] = a0\n  6751: ra = ra + 0x1\n  6754: a3 = ra <u 0x1\n  6757: a1 = u64 [s1 + 0x118]\n  6761: a1 = a1 + a3\n  6764: u64 [s1 + 0x118] = a1\n  6768: a1 = u64 [s1 + 0x118]\n  6772: a3 = ra | a1\n  6775: a3 = a3 <u 0x1\n  6778: a1 = u64 [s1 + 0xb8]\n  6782: a3 = a3 + a1\n  6785: a4 = a3 <u a1\n  6788: a0 = u64 [s1 + 0x90]\n  6792: a0 = a0 + a4\n  6795: a2 = u64 [s1 + 0xb0]\n  6799: a2 = a2 + 0x1\n  6802: a4 = a2 <u 0x1\n  6805: a1 = u64 [s1 + 0xa8]\n  6809: a1 = a1 + a4\n  6812: a4 = a2 | a1\n  6815: a4 = a4 <u 0x1\n  6818: a5 = u64 [s1 + 0x88]\n  6822: a4 = a4 + a5\n  6825: a5 = a4 <u a5\n  6828: t2 = u64 [s1 + 0xa0]\n  6832: t2 = t2 + a5\n  6835: a5 = u64 [s1 + 0xd0]\n  6839: t0 = u64 [s1 + 0x118]\n  6843: u64 [a5 + 0x8] = t0\n  6846: t0 = a0\n  6848: u64 [a5] = ra\n  6850: u64 [a5 + 0x10] = a3\n  6853: u64 [a5 + 0x18] = a0\n  6856: u64 [s1 + 0xb8] = a3\n  6860: a5 = s1 + 0x100\n  6864: a0 = u64 [a5 + 0x10]\n  6867: u64 [s1 + 0xf0] = a0\n  6871: a0 = u64 [a5 + 0x8]\n  6874: u64 [s1 + 0xe8] = a0\n  6878: a3 = u64 [a5 + 0x18]\n  6881: u64 [s1 + 0xf8] = t1\n  6885: a5 = a4\n  6887: jump @269\n      : @284 (gas: 10)\n  6890: u64 [a2 + 1084] = 0\n  6894: u64 [a2 + 1076] = 0\n  6898: u64 [a2 + 1068] = 0\n  6902: u64 [a2 + 1060] = 0\n  6906: a0 = s1 + 0x2000\n  6910: i32 a0 = a0 + 0x4c0\n  6914: ra = 0xfa\n  6918: ecalli 9 // 'value_transferred'\n  6920: t0 = 0xfc\n  6924: jump @1073\n      : @285 [@dyn 125] (gas: 1)\n  6927: t0 = 252, jump @1073\n      : @286 [@dyn 126] (gas: 8)\n  6933: a0 = u64 [a4 + 0x30]\n  6936: a1 = u64 [a4 + 0x38]\n  6939: a2 = u64 [a4 + 0x28]\n  6942: a3 = u64 [a4 + 0x20]\n  6945: a1 = a1 | a2\n  6948: a0 = a0 | a3\n  6951: a0 = a0 | a1\n  6954: jump @288 if a0 == 0\n      : @287 (gas: 1)\n  6957: jump @873\n      : @288 (gas: 3)\n  6960: a0 = u64 [s1 + 0x118]\n  6964: a0 = i32 [a0]\n  6966: jump @290 if a0 >u 3\n      : @289 (gas: 1)\n  6970: jump @874\n      : @290 (gas: 3)\n  6973: a0 = s1 + 0x1060\n  6977: a1 = 0x40\n  6980: ra = 254, jump @2\n      : @291 [@dyn 127] (gas: 17)\n  6986: a1 = s1 + 0x7ff\n  6990: a1 = a1 + 0x99\n  6994: a5 = a1 + 0x700\n  6998: a0 = u64 [a5 + 0xe0]\n  7002: u64 [s1 + 0x108] = a0\n  7006: a2 = u64 [a5 + 0xd8]\n  7010: u64 [s1 + 0x100] = a2\n  7014: a4 = u64 [a5 + 0xd0]\n  7018: u64 [s1 + 0x110] = a4\n  7022: a3 = u64 [a5 + 0xc8]\n  7026: u64 [s1 + 0x118] = a3\n  7030: u64 [a5 + 0xc0] = a0\n  7034: u64 [a5 + 0xb8] = a2\n  7038: u64 [a5 + 0xb0] = a4\n  7042: a0 = s1 + 0x1040\n  7046: u64 [a5 + 0xa8] = a3\n  7050: ra = 256, jump @963\n      : @292 [@dyn 128] (gas: 7)\n  7056: a3 = s1 + 0x100\n  7060: a0 = u64 [a3 + 0x8]\n  7063: a1 = u64 [a3 + 0x10]\n  7066: a0 = a0 | a1\n  7069: a2 = u64 [a3]\n  7071: a1 = u64 [a3 + 0x18]\n  7074: t0 = 258, jump @1091\n      : @293 [@dyn 129] (gas: 1)\n  7080: jump @295 if a0 == 0\n      : @294 (gas: 1)\n  7083: jump @836\n      : @295 (gas: 9)\n  7086: a0 = s1 + 0x7ff\n  7090: a0 = a0 + 0x99\n  7094: u64 [a0 + 1952] = 0\n  7098: u64 [a0 + 1944] = 0\n  7102: u64 [a0 + 1936] = 0\n  7106: a1 = s1 + 0x1020\n  7110: u64 [a0 + 1928] = 0\n  7114: a0 = u64 [s1 + 0x118]\n  7118: ra = 260, jump @4\n      : @296 [@dyn 130] (gas: 5)\n  7124: a3 = s1 + 0x100\n  7128: a0 = u64 [a3 + 0x8]\n  7131: a1 = u64 [a3]\n  7133: a0 = a0 | a1\n  7136: t0 = 262, jump @1081\n      : @297 [@dyn 131] (gas: 1)\n  7142: jump @299 if a1 != 0\n      : @298 (gas: 1)\n  7145: jump @836\n      : @299 (gas: 10)\n  7148: a0 = u64 [s1 + 0x118]\n  7152: i32 a0 = a0 + 0x20\n  7155: a2 = s1 + 0x7ff\n  7159: a2 = a2 + 0x99\n  7163: u64 [a2 + 1920] = 0\n  7167: u64 [a2 + 1912] = 0\n  7171: u64 [a2 + 1904] = 0\n  7175: a1 = s1 + 0x1000\n  7179: u64 [a2 + 1896] = 0\n  7183: ra = 264, jump @4\n      : @300 [@dyn 132] (gas: 8)\n  7189: a0 = 0x30020\n  7194: u64 [s1 + 0x118] = a0\n  7198: i32 a0 = a0 + 0\n  7200: ra = 0x10a\n  7204: ecalli 3 // 'caller'\n  7206: a2 = u64 [s1 + 0x118]\n  7210: t0 = 0x10c\n  7214: jump @1051\n      : @301 [@dyn 133] (gas: 2)\n  7217: a2 = u64 [s1 + 0x118]\n  7221: t0 = 268, jump @1051\n      : @302 [@dyn 134] (gas: 9)\n  7227: u64 [a2 + 1888] = 0\n  7231: a4 = a2 + 0x700\n  7235: u64 [a4 + 0x58] = a1\n  7238: u64 [a4 + 0x50] = a0\n  7241: a1 = s1 + 0x7ff\n  7245: a1 = a1 + 0x7e1\n  7249: u64 [a4 + 0x48] = a3\n  7252: a0 = 0\n  7254: ra = 270, jump @4\n      : @303 [@dyn 135] (gas: 11)\n  7260: a1 = s1 + 0x7ff\n  7264: a1 = a1 + 0x99\n  7268: u64 [a1 + 1856] = 0\n  7272: u64 [a1 + 1848] = 0\n  7276: u64 [a1 + 1832] = 0x1\n  7281: a2 = a1\n  7283: a0 = 0x20\n  7286: a1 = s1 + 0x7ff\n  7290: a1 = a1 + 0x7c1\n  7294: u64 [a2 + 1840] = 0\n  7298: ra = 272, jump @4\n      : @304 [@dyn 136] (gas: 6)\n  7304: a0 = sp + 0xffffffffffffffe0\n  7307: a0 = a0 & 0xffffffffffffffe0\n  7310: u64 [s1 + 0x110] = a0\n  7314: sp = a0\n  7316: a1 = i32 [0x20014]\n  7321: jump @306 if a1 >u 63\n      : @305 (gas: 4)\n  7325: a1 = 0x40\n  7328: u32 [0x20014] = a1\n  7333: t0 = 0x112\n  7337: jump @1087\n      : @306 (gas: 1)\n  7340: t0 = 274, jump @1087\n      : @307 [@dyn 137] (gas: 7)\n  7346: a0 = 0x20020\n  7351: i32 a0 = a0 + 0\n  7353: i32 a2 = a2 + 0\n  7355: a1 = 0x40\n  7358: ra = 0x114\n  7362: ecalli 5 // 'hash_keccak_256'\n  7364: fallthrough\n      : @308 [@dyn 138] (gas: 6)\n  7365: a3 = u64 [s1 + 0x118]\n  7369: a0 = u64 [a3 + 0x18]\n  7372: a1 = u64 [a3 + 0x10]\n  7375: a2 = u64 [a3 + 0x8]\n  7378: a3 = u64 [a3]\n  7380: t0 = 278, jump @1077\n      : @309 [@dyn 139] (gas: 9)\n  7386: a4 = u64 [s1 + 0x110]\n  7390: u64 [a4 + 0x18] = a3\n  7393: u64 [a4 + 0x10] = a2\n  7396: u64 [a4 + 0x8] = a1\n  7399: u64 [a4] = a0\n  7401: a0 = s1 + 0x7ff\n  7405: a0 = a0 + 0x7a1\n  7409: a1 = 0x40\n  7412: ra = 280, jump @2\n      : @310 [@dyn 140] (gas: 19)\n  7418: a1 = s1 + 0x7ff\n  7422: a1 = a1 + 0x99\n  7426: a5 = a1 + 0x700\n  7430: a0 = u64 [a5 + 0x20]\n  7433: u64 [s1 + 0x100] = a0\n  7437: a2 = u64 [a5 + 0x18]\n  7440: u64 [s1 + 0xf8] = a2\n  7444: a4 = u64 [a5 + 0x10]\n  7447: u64 [s1 + 0x108] = a4\n  7451: a3 = u64 [a5 + 0x8]\n  7454: u64 [s1 + 0x118] = a3\n  7458: u64 [a5] = a0\n  7460: a5 = a1 + 0x600\n  7464: u64 [a5 + 0xf8] = a2\n  7468: u64 [a5 + 0xf0] = a4\n  7472: a0 = s1 + 0x7ff\n  7476: a0 = a0 + 0x781\n  7480: u64 [a5 + 0xe8] = a3\n  7484: ra = 282, jump @963\n      : @311 [@dyn 141] (gas: 4)\n  7490: a0 = s1 + 0x7ff\n  7494: a0 = a0 + 0x761\n  7498: a1 = u64 [s1 + 0x110]\n  7502: ra = 284, jump @6\n      : @312 [@dyn 142] (gas: 7)\n  7508: a3 = s1 + 0x100\n  7512: a0 = u64 [a3]\n  7514: a1 = u64 [a3 + 0x8]\n  7517: a0 = a0 | a1\n  7520: a2 = u64 [s1 + 0xf8]\n  7524: a1 = u64 [a3 + 0x18]\n  7527: t0 = 286, jump @1091\n      : @313 [@dyn 143] (gas: 1)\n  7533: jump @315 if a0 == 0\n      : @314 (gas: 1)\n  7536: jump @836\n      : @315 (gas: 19)\n  7539: a0 = s1 + 0x7ff\n  7543: a0 = a0 + 0x99\n  7547: a3 = a0 + 0x600\n  7551: a1 = u64 [a3 + 0xe0]\n  7555: u64 [s1 + 0x110] = a1\n  7559: a1 = u64 [a3 + 0xd8]\n  7563: u64 [s1 + 0xf0] = a1\n  7567: a2 = u64 [a3 + 0xd0]\n  7571: a1 = u64 [a3 + 0xc8]\n  7575: u64 [a0 + 1728] = 0\n  7579: u64 [a0 + 1720] = 0\n  7583: u64 [s1 + 0xe0] = a1\n  7587: u64 [a3 + 0xa8] = a1\n  7591: a1 = s1 + 0x7ff\n  7595: a1 = a1 + 0x741\n  7599: u64 [s1 + 0xe8] = a2\n  7603: u64 [a3 + 0xb0] = a2\n  7607: a0 = u64 [s1 + 0x118]\n  7611: ra = 288, jump @4\n      : @316 [@dyn 144] (gas: 11)\n  7617: a3 = s1 + 0x100\n  7621: a0 = u64 [a3]\n  7623: a1 = u64 [s1 + 0xf8]\n  7627: a0 = a0 | a1\n  7630: a1 = 0xffffffe0\n  7640: a2 = u64 [a3 + 0x18]\n  7643: a1 = a2 <u a1\n  7646: a2 = u64 [a3 + 0x8]\n  7649: a1 = 0 if a2 != 0\n  7651: a1 = 0 if a0 != 0\n  7653: jump @318 if a1 != 0\n      : @317 (gas: 1)\n  7656: jump @836\n      : @318 (gas: 16)\n  7659: a4 = s1 + 0x100\n  7663: a0 = u64 [a4 + 0x18]\n  7666: i32 a2 = a0 + 0x20\n  7669: a3 = s1 + 0x7ff\n  7673: a3 = a3 + 0x99\n  7677: u64 [a3 + 1696] = 0\n  7681: u64 [a3 + 1688] = 0\n  7685: a0 = u64 [s1 + 0xf0]\n  7689: u64 [a3 + 0x688] = a0\n  7693: a1 = s1 + 0x7ff\n  7697: a1 = a1 + 0x721\n  7701: a0 = u64 [a4 + 0x10]\n  7704: u64 [a3 + 0x690] = a0\n  7708: u64 [a4 + 0x18] = a2\n  7711: a0 = a2\n  7713: ra = 290, jump @4\n      : @319 [@dyn 145] (gas: 4)\n  7719: a0 = s1 + 0x7ff\n  7723: a0 = a0 + 0x701\n  7727: a1 = 0x40\n  7730: ra = 292, jump @2\n      : @320 [@dyn 146] (gas: 15)\n  7736: t0 = s1 + 0x7ff\n  7740: t0 = t0 + 0x99\n  7744: a0 = t0 + 0x600\n  7748: a5 = u64 [a0 + 0x80]\n  7752: a2 = u64 [a0 + 0x78]\n  7755: a4 = u64 [a0 + 0x70]\n  7758: a3 = u64 [a0 + 0x68]\n  7761: a0 = a4 | a5\n  7764: a1 = a3 | a2\n  7767: a1 = a1 | a0\n  7770: a1 = a1 >> 0x20\n  7773: a0 = a0 | a2\n  7776: a0 = a0 << 0x20\n  7779: a0 = a0 | a1\n  7782: jump @322 if a0 == 0\n      : @321 (gas: 1)\n  7785: jump @836\n      : @322 (gas: 14)\n  7788: u64 [t0 + 1632] = 0\n  7792: u64 [t0 + 1624] = 0\n  7796: a0 = u64 [s1 + 0xe0]\n  7800: u64 [t0 + 0x648] = a0\n  7804: a1 = s1 + 0x7ff\n  7808: a1 = a1 + 0x6e1\n  7812: a0 = u64 [s1 + 0xe8]\n  7816: u64 [t0 + 0x650] = a0\n  7820: a0 = a3\n  7822: u64 [s1 + 0x110] = a3\n  7826: u64 [s1 + 0x108] = a4\n  7830: u64 [s1 + 0x100] = a5\n  7834: u64 [s1 + 0xf8] = a2\n  7838: ra = 294, jump @4\n      : @323 [@dyn 147] (gas: 4)\n  7844: a0 = s1 + 0x7ff\n  7848: a0 = a0 + 0x6c1\n  7852: a1 = u64 [s1 + 0x118]\n  7856: ra = 296, jump @2\n      : @324 [@dyn 148] (gas: 11)\n  7862: a3 = s1 + 0x100\n  7866: a4 = u64 [a3 + 0x10]\n  7869: a0 = u64 [a3]\n  7871: a1 = u64 [s1 + 0xf8]\n  7875: a0 = a0 | a1\n  7878: a1 = 0xffffffe0\n  7888: a1 = a4 <u a1\n  7891: a2 = u64 [a3 + 0x8]\n  7894: a1 = 0 if a2 != 0\n  7896: a1 = 0 if a0 != 0\n  7898: jump @326 if a1 != 0\n      : @325 (gas: 1)\n  7901: jump @836\n      : @326 (gas: 14)\n  7904: a5 = s1 + 0x7ff\n  7908: a5 = a5 + 0x99\n  7912: a0 = u64 [a5 + 0x630]\n  7916: a1 = u64 [a5 + 0x628]\n  7920: a3 = a0 & 0xffffffffffffffff\n  7923: a1 = a1 & 0xffffffffffffffff\n  7926: i32 a0 = a4 + 0x20\n  7929: u64 [a5 + 1568] = 0\n  7933: u64 [a5 + 1560] = 0\n  7937: u64 [a5 + 0x608] = a1\n  7941: a1 = s1 + 0x7ff\n  7945: a1 = a1 + 0x6a1\n  7949: u64 [a5 + 0x610] = a3\n  7953: ra = 298, jump @4\n      : @327 [@dyn 149] (gas: 3)\n  7959: a1 = 0x40\n  7962: a0 = u64 [s1 + 0x110]\n  7966: ra = 300, jump @11\n      : @328 [@dyn 150] (gas: 5)\n  7972: i32 a1 = a0 + 0\n  7974: a2 = 0x40\n  7977: a0 = 0\n  7979: ecalli 6 // 'seal_return'\n  7981: jump @801\n      : @329 (gas: 10)\n  7984: u64 [a2 + 1788] = 0\n  7988: u64 [a2 + 1780] = 0\n  7992: u64 [a2 + 1772] = 0\n  7996: u64 [a2 + 1764] = 0\n  8000: a0 = s1 + 0x2000\n  8004: i32 a0 = a0 + 0x780\n  8008: ra = 0x12e\n  8012: ecalli 9 // 'value_transferred'\n  8014: t0 = 0x130\n  8018: jump @1072\n      : @330 [@dyn 151] (gas: 1)\n  8021: t0 = 304, jump @1072\n      : @331 [@dyn 152] (gas: 1)\n  8027: t0 = 306, jump @1089\n      : @332 [@dyn 153] (gas: 1)\n  8033: jump @334 if a0 == 0\n      : @333 (gas: 1)\n  8036: jump @875\n      : @334 (gas: 3)\n  8039: a0 = u64 [s1 + 0x118]\n  8043: a0 = i32 [a0]\n  8045: jump @336 if a0 >u 35\n      : @335 (gas: 1)\n  8049: jump @876\n      : @336 (gas: 5)\n  8052: a0 = s1 + 0x2000\n  8056: i32 a0 = a0 + 0x7a0\n  8060: a1 = 0x4\n  8063: ecalli 1 // 'call_data_load'\n  8065: fallthrough\n      : @337 (gas: 13)\n  8066: a2 = s1 + 0x209c\n  8070: a1 = u64 [a2 + 0x714]\n  8074: a3 = u64 [a2 + 0x71c]\n  8078: a0 = 0x100000000\n  8088: a0 = a0 ^ a1\n  8091: a0 = a0 | a3\n  8094: u64 [s1 + 0x100] = a1\n  8098: a1 = a1 >> 0x20\n  8101: a1 = a1 <u 0x1\n  8104: u64 [s1 + 0xf0] = a3\n  8108: a1 = 0 if a3 != 0\n  8110: a1 = 0 if a0 == 0\n  8112: jump @339 if a1 != 0\n      : @338 (gas: 1)\n  8115: jump @877\n      : @339 (gas: 13)\n  8118: a0 = u64 [a2 + 0x70c]\n  8122: u64 [s1 + 0xd8] = a0\n  8126: a0 = u64 [a2 + 0x704]\n  8130: u64 [s1 + 0xe0] = a0\n  8134: a0 = 0x30020\n  8139: u64 [s1 + 0x118] = a0\n  8143: i32 a0 = a0 + 0\n  8145: u64 [s1 + 0x108] = a0\n  8149: ra = 0x134\n  8153: ecalli 3 // 'caller'\n  8155: a2 = u64 [s1 + 0x118]\n  8159: t0 = 0x136\n  8163: jump @1050\n      : @340 [@dyn 154] (gas: 2)\n  8166: a2 = u64 [s1 + 0x118]\n  8170: t0 = 310, jump @1050\n      : @341 [@dyn 155] (gas: 8)\n  8176: u64 [a2 + 1696] = 0\n  8180: a4 = a2 + 0x600\n  8184: u64 [a4 + 0x98] = a1\n  8188: u64 [a4 + 0x90] = a0\n  8192: a1 = s1 + 0x1f20\n  8196: u64 [a4 + 0x88] = a3\n  8200: a0 = 0\n  8202: ra = 312, jump @4\n      : @342 [@dyn 156] (gas: 2)\n  8208: a1 = s1 + 0x1898\n  8212: t0 = 314, jump @1088\n      : @343 [@dyn 157] (gas: 3)\n  8218: a1 = s1 + 0x1f00\n  8222: u64 [a2 + 1648] = 0\n  8226: ra = 316, jump @4\n      : @344 [@dyn 158] (gas: 7)\n  8232: a0 = sp + 0xffffffffffffffe0\n  8235: a0 = a0 & 0xffffffffffffffe0\n  8238: u64 [s1 + 0x110] = a0\n  8242: sp = a0\n  8244: a1 = 0x20014\n  8249: a0 = i32 [0x20014]\n  8254: jump @346 if a0 >u 63\n      : @345 (gas: 2)\n  8258: u32 [0x20014] = 0x40\n  8264: fallthrough\n      : @346 (gas: 14)\n  8265: a0 = sp + 0xffffffffffffffe0\n  8268: a2 = a0 & 0xffffffffffffffe0\n  8271: u64 [s1 + 0xd0] = a2\n  8275: sp = a2\n  8277: a0 = 0x20020\n  8282: i32 a0 = a0 + 0\n  8284: i32 a2 = a2 + 0\n  8286: u64 [s1 + 0xf8] = a1\n  8290: a1 = 0x40\n  8293: u64 [s1 + 0xe8] = a0\n  8297: ra = 0x13e\n  8301: ecalli 5 // 'hash_keccak_256'\n  8303: t0 = 0x140\n  8307: jump @1062\n      : @347 [@dyn 159] (gas: 1)\n  8310: t0 = 320, jump @1062\n      : @348 [@dyn 160] (gas: 7)\n  8316: a1 = u64 [s1 + 0x110]\n  8320: u64 [a1] = a3\n  8322: u64 [a1 + 0x8] = a2\n  8325: u64 [a1 + 0x10] = a4\n  8328: u64 [a1 + 0x18] = a0\n  8331: a0 = s1 + 0x1ee0\n  8335: ra = 322, jump @6\n      : @349 [@dyn 161] (gas: 32)\n  8341: a0 = s1 + 0x1898\n  8345: t1 = u64 [a0 + 0x660]\n  8349: a1 = u64 [s1 + 0xe0]\n  8353: a3 = a1 >> 0x38\n  8356: a4 = u64 [s1 + 0xd8]\n  8360: a2 = a4 << 0x8\n  8363: t0 = a2 | a3\n  8366: a5 = u64 [s1 + 0x100]\n  8370: a2 = a5 >> 0x38\n  8373: a3 = u64 [s1 + 0xf0]\n  8377: a3 = a3 << 0x8\n  8380: a2 = a2 | a3\n  8383: a3 = u64 [a0 + 0x658]\n  8387: a4 = a4 >> 0x38\n  8390: a5 = a5 << 0x8\n  8393: a4 = a4 | a5\n  8396: a5 = u8 [a0 + 0x648]\n  8400: a3 = a3 >> 0x28\n  8403: a3 = a3 << 0x28\n  8406: a3 = a3 | a4\n  8409: a4 = a1 << 0x8\n  8412: a4 = a4 | a5\n  8415: a0 = t1 | a2\n  8418: a2 = s1 + 0x209c\n  8422: u64 [a2 + 0x72c] = t0\n  8426: a1 = a2 + 0x704\n  8430: u64 [a1 + 0x38] = a0\n  8433: u64 [a1 + 0x20] = a4\n  8436: u64 [a1 + 0x30] = a3\n  8439: a1 = s1 + 0x27c0\n  8443: a0 = u64 [s1 + 0x110]\n  8447: ra = 324, jump @10\n      : @350 [@dyn 162] (gas: 6)\n  8453: a0 = u64 [s1 + 0x108]\n  8457: ra = 0x146\n  8461: ecalli 3 // 'caller'\n  8463: a2 = u64 [s1 + 0x118]\n  8467: t0 = 0x148\n  8471: jump @1050\n      : @351 [@dyn 163] (gas: 2)\n  8474: a2 = u64 [s1 + 0x118]\n  8478: t0 = 328, jump @1050\n      : @352 [@dyn 164] (gas: 8)\n  8484: u64 [a2 + 1600] = 0\n  8488: a4 = a2 + 0x600\n  8492: u64 [a4 + 0x38] = a1\n  8495: u64 [a4 + 0x30] = a0\n  8498: a1 = s1 + 0x1ec0\n  8502: u64 [a4 + 0x28] = a3\n  8505: a0 = 0\n  8507: ra = 330, jump @4\n      : @353 [@dyn 165] (gas: 3)\n  8513: t0 = 0x14c\n  8517: a1 = s1 + 0x1898\n  8521: fallthrough\n      : @354 [@dyn 166] (gas: 8)\n  8522: u64 [a1 + 1568] = 0\n  8526: u64 [a1 + 1560] = 0\n  8530: u64 [a1 + 1544] = 0x1\n  8535: a2 = a1\n  8537: a0 = 0x20\n  8540: a1 = s1 + 0x1ea0\n  8544: u64 [a2 + 1552] = 0\n  8548: ra = 334, jump @4\n      : @355 [@dyn 167] (gas: 3)\n  8554: a1 = u64 [s1 + 0xf8]\n  8558: a0 = i32 [a1]\n  8560: jump @357 if a0 >u 63\n      : @356 (gas: 3)\n  8564: u32 [a1 + 0] = 0x40\n  8567: t0 = 0x150\n  8571: jump @1080\n      : @357 (gas: 1)\n  8574: t0 = 336, jump @1080\n      : @358 [@dyn 168] (gas: 4)\n  8580: ra = 0x152\n  8584: ecalli 5 // 'hash_keccak_256'\n  8586: t0 = 0x154\n  8590: jump @1056\n      : @359 [@dyn 169] (gas: 1)\n  8593: t0 = 340, jump @1056\n      : @360 [@dyn 170] (gas: 8)\n  8599: a5 = a4 + 0x704\n  8603: u64 [a5 + 0x58] = a3\n  8606: u64 [a5 + 0x50] = a2\n  8609: u64 [a5 + 0x48] = a1\n  8612: u64 [a5 + 0x40] = a0\n  8615: a0 = s1 + 0x1e80\n  8619: a1 = s1 + 0x27e0\n  8623: ra = 342, jump @6\n      : @361 [@dyn 171] (gas: 3)\n  8629: t0 = 0x158\n  8633: a1 = s1 + 0x1898\n  8637: fallthrough\n      : @362 [@dyn 172] (gas: 7)\n  8638: a0 = u64 [a1 + 0x5f0]\n  8642: u64 [s1 + 0x118] = a0\n  8646: a0 = u64 [a1 + 0x5e8]\n  8650: u64 [s1 + 0x110] = a0\n  8654: a0 = s1 + 0x1e60\n  8658: a1 = 0x40\n  8661: ra = 346, jump @2\n      : @363 [@dyn 173] (gas: 7)\n  8667: a3 = s1 + 0x1898\n  8671: a5 = a3 + 0x500\n  8675: a4 = u64 [a5 + 0xe0]\n  8679: a1 = u64 [a5 + 0xd8]\n  8683: a2 = u64 [a5 + 0xd0]\n  8687: a0 = u64 [a5 + 0xc8]\n  8691: t0 = 348, jump @1057\n      : @364 [@dyn 174] (gas: 1)\n  8697: jump @366 if a1 == 0\n      : @365 (gas: 1)\n  8700: jump @836\n      : @366 (gas: 1)\n  8703: t0 = 350, jump @1084\n      : @367 [@dyn 175] (gas: 8)\n  8709: u64 [a3 + 1472] = 0\n  8713: u64 [a3 + 1464] = 0\n  8717: u64 [a3 + 0x5a8] = a1\n  8721: a1 = s1 + 0x1e40\n  8725: u64 [a3 + 1456] = 0\n  8729: u64 [s1 + 0x118] = a0\n  8733: ra = 0x35e\n  8737: jump @4\n      : @368 (gas: 3)\n  8740: a0 = u64 [s1 + 0x118]\n  8744: a0 = i32 [a0]\n  8746: jump @370 if a0 >u 3\n      : @369 (gas: 1)\n  8750: jump @878\n      : @370 (gas: 21)\n  8753: u64 [a2 + 1020] = 0\n  8757: u64 [a2 + 1012] = 0\n  8761: u64 [a2 + 1004] = 0\n  8765: u64 [a2 + 996] = 0\n  8769: a0 = s1 + 0x2000\n  8773: i32 a0 = a0 + 0x480\n  8777: ecalli 9 // 'value_transferred'\n  8779: a1 = s1 + 0x209c\n  8783: a0 = u64 [a1 + 0x3ec]\n  8787: u64 [s1 + 0x110] = a0\n  8791: a0 = u64 [a1 + 0x3e4]\n  8795: u64 [s1 + 0x108] = a0\n  8799: a0 = 0x30020\n  8804: u64 [s1 + 0x100] = a0\n  8808: i32 a0 = a0 + 0\n  8810: u64 [s1 + 0xf0] = a0\n  8814: ra = 0x160\n  8818: ecalli 3 // 'caller'\n  8820: a2 = u64 [s1 + 0x100]\n  8824: t0 = 0x162\n  8828: jump @1051\n      : @371 [@dyn 176] (gas: 2)\n  8831: a2 = u64 [s1 + 0x100]\n  8835: t0 = 354, jump @1051\n      : @372 [@dyn 177] (gas: 9)\n  8841: u64 [a2 + 1536] = 0\n  8845: a4 = a2 + 0x500\n  8849: u64 [a4 + 0xf8] = a1\n  8853: u64 [a4 + 0xf0] = a0\n  8857: a1 = s1 + 0x7ff\n  8861: a1 = a1 + 0x681\n  8865: u64 [a4 + 0xe8] = a3\n  8869: a0 = 0\n  8871: ra = 356, jump @4\n      : @373 [@dyn 178] (gas: 11)\n  8877: a0 = s1 + 0x7ff\n  8881: a0 = a0 + 0x99\n  8885: u64 [a0 + 1504] = 0\n  8889: u64 [a0 + 1496] = 0\n  8893: u64 [a0 + 1488] = 0\n  8897: a3 = a0\n  8899: a0 = 0x20\n  8902: a1 = s1 + 0x7ff\n  8906: a1 = a1 + 0x661\n  8910: u64 [a3 + 1480] = 0x1\n  8915: ra = 358, jump @4\n      : @374 [@dyn 179] (gas: 1)\n  8921: t0 = 360, jump @1064\n      : @375 [@dyn 180] (gas: 3)\n  8927: a1 = 0x20014\n  8932: a0 = i32 [0x20014]\n  8937: jump @377 if a0 >u 63\n      : @376 (gas: 2)\n  8941: u32 [0x20014] = 0x40\n  8947: fallthrough\n      : @377 (gas: 15)\n  8948: a0 = sp + 0xffffffffffffffe0\n  8951: a2 = a0 & 0xffffffffffffffe0\n  8954: u64 [s1 + 0xe0] = a2\n  8958: sp = a2\n  8960: a0 = 0x20020\n  8965: i32 a0 = a0 + 0\n  8967: i32 a2 = a2 + 0\n  8969: u64 [s1 + 0xf8] = a1\n  8973: a1 = 0x40\n  8976: u64 [s1 + 0xe8] = a0\n  8980: ra = 0x16a\n  8984: ecalli 5 // 'hash_keccak_256'\n  8986: a3 = u64 [s1 + 0xe0]\n  8990: t0 = 0x16c\n  8994: jump @1066\n      : @378 [@dyn 181] (gas: 2)\n  8997: a3 = u64 [s1 + 0xe0]\n  9001: t0 = 364, jump @1066\n      : @379 [@dyn 182] (gas: 3)\n  9007: a0 = s1 + 0x7ff\n  9011: a0 = a0 + 0x641\n  9015: ra = 366, jump @6\n      : @380 [@dyn 183] (gas: 24)\n  9021: a3 = s1 + 0x7ff\n  9025: a3 = a3 + 0x99\n  9029: a4 = a3 + 0x500\n  9033: a0 = u64 [a4 + 0xa8]\n  9037: a1 = u64 [a4 + 0xb0]\n  9041: a0 = a0 & 0xffffffffffffffff\n  9044: a1 = a1 & 0xffffffffffffffff\n  9047: u64 [a3 + 1376] = 0\n  9051: u64 [a3 + 1368] = 0\n  9055: a2 = u64 [s1 + 0x110]\n  9059: u64 [a4 + 0x50] = a2\n  9062: a2 = u64 [s1 + 0x108]\n  9066: u64 [a4 + 0x48] = a2\n  9069: u64 [a3 + 1408] = 0\n  9073: u64 [a4 + 0x70] = a1\n  9076: u64 [a4 + 0x68] = a0\n  9079: a0 = s1 + 0x7ff\n  9083: a0 = a0 + 0x621\n  9087: a1 = s1 + 0x7ff\n  9091: a1 = a1 + 0x601\n  9095: a2 = s1 + 0x7ff\n  9099: a2 = a2 + 0x5e1\n  9103: u64 [a3 + 1400] = 0\n  9107: ra = 368, jump @1024\n      : @381 [@dyn 184] (gas: 15)\n  9113: a0 = s1 + 0x7ff\n  9117: a0 = a0 + 0x99\n  9121: a2 = a0 + 0x500\n  9125: a1 = u64 [a2 + 0x88]\n  9129: u64 [s1 + 0xe0] = a1\n  9133: a1 = u64 [a2 + 0x90]\n  9137: u64 [s1 + 0xd8] = a1\n  9141: a1 = u64 [a2 + 0xa0]\n  9145: u64 [s1 + 0xd0] = a1\n  9149: a1 = u64 [a2 + 0x98]\n  9153: u64 [s1 + 0xc8] = a1\n  9157: a0 = s1 + 0x7ff\n  9161: a0 = a0 + 0x5c1\n  9165: a1 = u64 [s1 + 0x118]\n  9169: ra = 370, jump @6\n      : @382 [@dyn 185] (gas: 19)\n  9175: a1 = s1 + 0x7ff\n  9179: a1 = a1 + 0x99\n  9183: a0 = u64 [a1 + 0x538]\n  9187: a1 = u64 [a1 + 0x540]\n  9191: a2 = u64 [s1 + 0xc8]\n  9195: a0 = a0 | a2\n  9198: a2 = u64 [s1 + 0xd0]\n  9202: a1 = a1 | a2\n  9205: a2 = s1 + 0x209c\n  9209: a3 = u64 [s1 + 0xd8]\n  9213: a4 = a2 + 0x404\n  9217: u64 [a4 + 0x8] = a3\n  9220: a3 = u64 [s1 + 0xe0]\n  9224: u64 [a4] = a3\n  9226: u64 [a4 + 0x18] = a1\n  9229: u64 [a4 + 0x10] = a0\n  9232: a1 = s1 + 0x24a0\n  9236: a0 = u64 [s1 + 0x118]\n  9240: ra = 372, jump @10\n      : @383 [@dyn 186] (gas: 6)\n  9246: a0 = u64 [s1 + 0xf0]\n  9250: ra = 0x176\n  9254: ecalli 3 // 'caller'\n  9256: a2 = u64 [s1 + 0x100]\n  9260: t0 = 0x178\n  9264: jump @1051\n      : @384 [@dyn 187] (gas: 2)\n  9267: a2 = u64 [s1 + 0x100]\n  9271: t0 = 376, jump @1051\n      : @385 [@dyn 188] (gas: 9)\n  9277: u64 [a2 + 1312] = 0\n  9281: a4 = a2 + 0x500\n  9285: u64 [a4 + 0x18] = a1\n  9288: u64 [a4 + 0x10] = a0\n  9291: a1 = s1 + 0x7ff\n  9295: a1 = a1 + 0x5a1\n  9299: u64 [a4 + 0x8] = a3\n  9302: a0 = 0\n  9304: ra = 378, jump @4\n      : @386 [@dyn 189] (gas: 11)\n  9310: a1 = s1 + 0x7ff\n  9314: a1 = a1 + 0x99\n  9318: u64 [a1 + 1280] = 0\n  9322: u64 [a1 + 1272] = 0\n  9326: u64 [a1 + 1256] = 0x1\n  9331: a2 = a1\n  9333: a0 = 0x20\n  9336: a1 = s1 + 0x7ff\n  9340: a1 = a1 + 0x581\n  9344: u64 [a2 + 1264] = 0\n  9348: ra = 380, jump @4\n      : @387 [@dyn 190] (gas: 7)\n  9354: a1 = u64 [s1 + 0xf8]\n  9358: a0 = sp + 0xffffffffffffffe0\n  9361: a0 = a0 & 0xffffffffffffffe0\n  9364: u64 [s1 + 0x100] = a0\n  9368: sp = a0\n  9370: a0 = i32 [a1]\n  9372: jump @389 if a0 >u 63\n      : @388 (gas: 3)\n  9376: u32 [a1 + 0] = 0x40\n  9379: t0 = 0x17e\n  9383: jump @1080\n      : @389 (gas: 1)\n  9386: t0 = 382, jump @1080\n      : @390 [@dyn 191] (gas: 4)\n  9392: ra = 0x180\n  9396: ecalli 5 // 'hash_keccak_256'\n  9398: t0 = 0x182\n  9402: jump @1078\n      : @391 [@dyn 192] (gas: 1)\n  9405: t0 = 386, jump @1078\n      : @392 [@dyn 193] (gas: 13)\n  9411: u64 [s1 + 0xf8] = a4\n  9415: a2 = reverse a2\n  9417: u64 [s1 + 0xf0] = a2\n  9421: a3 = reverse a3\n  9423: u64 [s1 + 0xe8] = a3\n  9427: a1 = u64 [s1 + 0x100]\n  9431: u64 [a1 + 0x18] = a3\n  9434: u64 [a1 + 0x10] = a2\n  9437: u64 [a1 + 0x8] = a4\n  9440: u64 [a1] = a0\n  9442: a0 = s1 + 0x7ff\n  9446: a0 = a0 + 0x561\n  9450: ra = 388, jump @6\n      : @393 [@dyn 194] (gas: 22)\n  9456: a3 = s1 + 0x7ff\n  9460: a3 = a3 + 0x99\n  9464: a4 = a3 + 0x400\n  9468: a0 = u64 [a4 + 0xd8]\n  9472: a1 = u64 [a4 + 0xe0]\n  9476: u64 [a3 + 1152] = 0\n  9480: u64 [a3 + 1144] = 0\n  9484: a2 = u64 [s1 + 0x110]\n  9488: u64 [a4 + 0x70] = a2\n  9491: a2 = u64 [s1 + 0x108]\n  9495: u64 [a4 + 0x68] = a2\n  9498: u64 [a3 + 1184] = 0\n  9502: u64 [a4 + 0x90] = a1\n  9506: u64 [a4 + 0x88] = a0\n  9510: a0 = s1 + 0x7ff\n  9514: a0 = a0 + 0x541\n  9518: a1 = s1 + 0x7ff\n  9522: a1 = a1 + 0x521\n  9526: a2 = s1 + 0x7ff\n  9530: a2 = a2 + 0x501\n  9534: u64 [a3 + 1176] = 0\n  9538: ra = 390, jump @1024\n      : @394 [@dyn 195] (gas: 26)\n  9544: a4 = s1 + 0x7ff\n  9548: a4 = a4 + 0x99\n  9552: a5 = a4 + 0x400\n  9556: a0 = u64 [a5 + 0xa8]\n  9560: a1 = u64 [a5 + 0xb0]\n  9564: a2 = u64 [a5 + 0xb8]\n  9568: a3 = u64 [a5 + 0xc0]\n  9572: u64 [a5 + 0x40] = a3\n  9575: u64 [a5 + 0x38] = a2\n  9578: u64 [a5 + 0x30] = a1\n  9581: u64 [a5 + 0x28] = a0\n  9584: a0 = u64 [s1 + 0xe8]\n  9588: u64 [a5 + 0x60] = a0\n  9591: a0 = u64 [s1 + 0xf0]\n  9595: u64 [a5 + 0x58] = a0\n  9598: a0 = u64 [s1 + 0xf8]\n  9602: u64 [a5 + 0x50] = a0\n  9605: a0 = s1 + 0x7ff\n  9609: a0 = a0 + 0x4e1\n  9613: a1 = s1 + 0x7ff\n  9617: a1 = a1 + 0x4c1\n  9621: a2 = u64 [s1 + 0x118]\n  9625: u64 [a5 + 0x48] = a2\n  9628: ra = 0x188\n  9632: t0 = 0x40e\n  9636: jump @1097\n      : @395 [@dyn 196] (gas: 4)\n  9639: a0 = s1 + 0x7ff\n  9643: a0 = a0 + 0x4a1\n  9647: a1 = 0x40\n  9650: ra = 394, jump @2\n      : @396 [@dyn 197] (gas: 8)\n  9656: a3 = s1 + 0x7ff\n  9660: a3 = a3 + 0x99\n  9664: a5 = a3 + 0x400\n  9668: a0 = u64 [a5 + 0x20]\n  9671: a1 = u64 [a5 + 0x18]\n  9674: a2 = u64 [a5 + 0x10]\n  9677: a4 = u64 [a5 + 0x8]\n  9680: t0 = 396, jump @1063\n      : @397 [@dyn 198] (gas: 1)\n  9686: jump @399 if a0 == 0\n      : @398 (gas: 1)\n  9689: jump @836\n      : @399 (gas: 12)\n  9692: u64 [a3 + 1024] = 0\n  9696: u64 [a3 + 1016] = 0\n  9700: a0 = u64 [s1 + 0x108]\n  9704: u64 [a3 + 0x3e8] = a0\n  9708: a1 = s1 + 0x7ff\n  9712: a1 = a1 + 0x481\n  9716: a0 = u64 [s1 + 0x110]\n  9720: u64 [a3 + 0x3f0] = a0\n  9724: a0 = a4\n  9726: u64 [s1 + 0x118] = a4\n  9730: ra = 0x35e\n  9734: jump @4\n      : @400 (gas: 10)\n  9737: u64 [a2 + 892] = 0\n  9741: u64 [a2 + 884] = 0\n  9745: u64 [a2 + 876] = 0\n  9749: u64 [a2 + 868] = 0\n  9753: a0 = s1 + 0x2000\n  9757: i32 a0 = a0 + 0x400\n  9761: ra = 0x18e\n  9765: ecalli 9 // 'value_transferred'\n  9767: t0 = 0x190\n  9771: jump @1071\n      : @401 [@dyn 199] (gas: 1)\n  9774: t0 = 400, jump @1071\n      : @402 [@dyn 200] (gas: 1)\n  9780: t0 = 402, jump @1070\n      : @403 [@dyn 201] (gas: 1)\n  9786: jump @405 if a0 == 0\n      : @404 (gas: 1)\n  9789: jump @879\n      : @405 (gas: 3)\n  9792: a0 = u64 [s1 + 0x118]\n  9796: a0 = i32 [a0]\n  9798: jump @407 if a0 >u 3\n      : @406 (gas: 1)\n  9802: jump @880\n      : @407 (gas: 4)\n  9805: a0 = s1 + 0x7ff\n  9809: a0 = a0 + 0x3a1\n  9813: a1 = 0x40\n  9816: ra = 404, jump @2\n      : @408 [@dyn 202] (gas: 1)\n  9822: t0 = 406, jump @1082\n      : @409 [@dyn 203] (gas: 5)\n  9828: a4 = u64 [a5 + 0x20]\n  9831: a1 = u64 [a5 + 0x18]\n  9834: a2 = u64 [a5 + 0x10]\n  9837: a0 = u64 [a5 + 0x8]\n  9840: t0 = 408, jump @1057\n      : @410 [@dyn 204] (gas: 1)\n  9846: jump @412 if a1 == 0\n      : @411 (gas: 1)\n  9849: jump @836\n      : @412 (gas: 10)\n  9852: a1 = u64 [0x20000]\n  9857: u64 [a3 + 768] = 0\n  9861: u64 [a3 + 760] = 0\n  9865: u64 [a3 + 0x2e8] = a1\n  9869: a1 = s1 + 0x7ff\n  9873: a1 = a1 + 0x381\n  9877: u64 [a3 + 752] = 0\n  9881: u64 [s1 + 0x118] = a0\n  9885: ra = 0x35e\n  9889: jump @4\n      : @413 (gas: 1)\n  9892: jump @415 if a0 == 2007039490\n      : @414 (gas: 1)\n  9899: jump @881\n      : @415 (gas: 10)\n  9902: u64 [a2 + 1148] = 0\n  9906: u64 [a2 + 1140] = 0\n  9910: u64 [a2 + 1132] = 0\n  9914: u64 [a2 + 1124] = 0\n  9918: a0 = s1 + 0x2000\n  9922: i32 a0 = a0 + 0x500\n  9926: ra = 0x19a\n  9930: ecalli 9 // 'value_transferred'\n  9932: t0 = 0x19c\n  9936: jump @1073\n      : @416 [@dyn 205] (gas: 1)\n  9939: t0 = 412, jump @1073\n      : @417 [@dyn 206] (gas: 1)\n  9945: t0 = 414, jump @1070\n      : @418 [@dyn 207] (gas: 1)\n  9951: jump @420 if a0 == 0\n      : @419 (gas: 1)\n  9954: jump @887\n      : @420 (gas: 3)\n  9957: a0 = u64 [s1 + 0x118]\n  9961: a0 = i32 [a0]\n  9963: jump @422 if a0 >u 3\n      : @421 (gas: 1)\n  9967: jump @888\n      : @422 (gas: 9)\n  9970: a0 = 0x30020\n  9975: u64 [s1 + 0x30] = a0\n  9978: i32 a0 = a0 + 0\n  9980: u64 [s1 + 0x18] = a0\n  9983: ra = 0x1a0\n  9987: ecalli 3 // 'caller'\n  9989: a2 = u64 [s1 + 0x30]\n  9992: t0 = 0x1a2\n  9996: jump @1052\n      : @423 [@dyn 208] (gas: 2)\n  9999: a2 = u64 [s1 + 0x30]\n 10002: t0 = 418, jump @1052\n      : @424 [@dyn 209] (gas: 8)\n 10008: u64 [a2 + 1536] = 0\n 10012: a4 = a2 + 0x500\n 10016: u64 [a4 + 0xf8] = a1\n 10020: u64 [a4 + 0xf0] = a0\n 10024: a1 = s1 + 0x1680\n 10028: u64 [a4 + 0xe8] = a3\n 10032: a0 = 0\n 10034: ra = 420, jump @4\n      : @425 [@dyn 210] (gas: 3)\n 10040: t0 = 0x1a6\n 10044: a1 = s1 + 0x1098\n 10048: fallthrough\n      : @426 [@dyn 211] (gas: 8)\n 10049: u64 [a1 + 1504] = 0\n 10053: u64 [a1 + 1496] = 0\n 10057: u64 [a1 + 1480] = 0x1\n 10062: a2 = a1\n 10064: a0 = 0x20\n 10067: a1 = s1 + 0x1660\n 10071: u64 [a2 + 1488] = 0\n 10075: ra = 424, jump @4\n      : @427 [@dyn 212] (gas: 7)\n 10081: a0 = sp + 0xffffffffffffffe0\n 10084: a0 = a0 & 0xffffffffffffffe0\n 10087: u64 [s1 + 0xb8] = a0\n 10091: sp = a0\n 10093: a2 = 0x20014\n 10098: a0 = i32 [0x20014]\n 10103: jump @429 if a0 >u 63\n      : @428 (gas: 2)\n 10107: u32 [0x20014] = 0x40\n 10113: fallthrough\n      : @429 (gas: 55)\n 10114: u64 [s1 + 0x28] = a2\n 10117: a1 = 0xffffffff00000000\n 10127: u64 [s1 + 0x38] = a1\n 10130: a0 = 0xffffffff\n 10140: u64 [s1 + 0xa8] = a0\n 10144: a0 = sp + 0xffffffffffffffe0\n 10147: a2 = a0 & 0xffffffffffffffe0\n 10150: u64 [s1 + 0xf8] = a2\n 10154: sp = a2\n 10156: a0 = 0x20020\n 10161: i32 a0 = a0 + 0\n 10163: i32 a2 = a2 + 0\n 10165: a1 = 0x40\n 10168: u64 [s1 + 0x20] = a0\n 10171: ecalli 5 // 'hash_keccak_256'\n 10173: u64 [s1 + 216] = 0\n 10177: u64 [s1 + 208] = 0\n 10181: u64 [s1 + 200] = 0\n 10185: u64 [s1 + 192] = 0\n 10189: u64 [s1 + 160] = 0\n 10193: u64 [s1 + 152] = 0\n 10197: u64 [s1 + 128] = 0\n 10201: u64 [s1 + 120] = 0\n 10204: u64 [s1 + 280] = 0\n 10208: u64 [s1 + 272] = 0\n 10212: u64 [s1 + 256] = 0\n 10216: u64 [s1 + 264] = 0\n 10220: a3 = u64 [s1 + 0xf8]\n 10224: a0 = u64 [a3 + 0x10]\n 10227: a1 = u64 [a3 + 0x18]\n 10230: a2 = u64 [a3 + 0x8]\n 10233: a3 = u64 [a3]\n 10235: a0 = reverse a0\n 10237: a1 = reverse a1\n 10239: a4 = a1 + 0x4\n 10242: a1 = a4 <u a1\n 10245: a5 = a0 + a1\n 10248: a0 = a5 <u a0\n 10251: a0 = a1 if a1 == 0\n 10254: a1 = reverse a3\n 10256: a2 = reverse a2\n 10258: a3 = a2 + a0\n 10261: a0 = a3 <u a2\n 10264: a0 = a0 + a1\n 10267: a1 = u64 [s1 + 0xb8]\n 10271: u64 [s1 + 0xf8] = a4\n 10275: u64 [a1] = a4\n 10277: u64 [s1 + 0xf0] = a5\n 10281: u64 [a1 + 0x8] = a5\n 10284: u64 [s1 + 0xe8] = a3\n 10288: u64 [a1 + 0x10] = a3\n 10291: u64 [s1 + 0xe0] = a0\n 10295: u64 [a1 + 0x18] = a0\n 10298: a0 = s1 + 0x1640\n 10302: ra = 426, jump @6\n      : @430 [@dyn 213] (gas: 22)\n 10308: a5 = s1 + 0x1098\n 10312: a3 = a5 + 0x500\n 10316: a0 = u64 [a3 + 0xb0]\n 10320: a1 = u64 [a3 + 0xc0]\n 10324: a2 = u64 [a3 + 0xa8]\n 10328: t2 = u64 [a5 + 0x5b8]\n 10332: ra = u64 [s1 + 0x110]\n 10336: t1 = ra ^ a0\n 10339: a0 = ra <u a0\n 10342: t0 = u64 [s1 + 0x118]\n 10346: a2 = t0 <u a2\n 10349: a2 = a0 if t1 != 0\n 10352: t1 = u64 [s1 + 0x100]\n 10356: a0 = t1 <u t2\n 10359: a4 = u64 [s1 + 0x108]\n 10363: a3 = a4 ^ a1\n 10366: a1 = a4 <u a1\n 10369: a1 = a0 if a3 == 0\n 10372: a0 = t1 ^ t2\n 10375: a0 = a0 | a3\n 10378: a1 = a2 if a0 == 0\n 10381: jump @457 if a1 == 0\n      : @431 (gas: 24)\n 10385: a0 = sp + 0xffffffffffffffe0\n 10388: a0 = a0 & 0xffffffffffffffe0\n 10391: u64 [s1 + 0xb0] = a0\n 10395: sp = a0\n 10397: u64 [a5 + 0x320] = a4\n 10401: u64 [a5 + 0x318] = t1\n 10405: u64 [a5 + 0x310] = ra\n 10409: u64 [a5 + 0x308] = t0\n 10413: a0 = u64 [s1 + 0xe0]\n 10417: u64 [a5 + 0x340] = a0\n 10421: a0 = u64 [s1 + 0xe8]\n 10425: u64 [a5 + 0x338] = a0\n 10429: a0 = u64 [s1 + 0xf0]\n 10433: u64 [a5 + 0x330] = a0\n 10437: a0 = s1 + 0x13e0\n 10441: a1 = s1 + 0x13c0\n 10445: a2 = s1 + 0x13a0\n 10449: a3 = u64 [s1 + 0xf8]\n 10453: u64 [a5 + 0x328] = a3\n 10457: u64 [s1 + 0x118] = t0\n 10461: u64 [s1 + 0x110] = ra\n 10465: u64 [s1 + 0x108] = a4\n 10469: u64 [s1 + 0x100] = t1\n 10473: ra = 428, jump @981\n      : @432 [@dyn 214] (gas: 16)\n 10479: a0 = s1 + 0x1098\n 10483: a0 = u64 [a0 + 0x358]\n 10487: a1 = s1 + 0x1098\n 10491: a1 = u64 [a1 + 0x360]\n 10495: a2 = s1 + 0x1098\n 10499: a2 = u64 [a2 + 0x348]\n 10503: a3 = s1 + 0x1098\n 10507: a3 = u64 [a3 + 0x350]\n 10511: a4 = u64 [s1 + 0xb0]\n 10515: u64 [a4 + 0x10] = a0\n 10518: u64 [a4 + 0x18] = a1\n 10521: u64 [a4] = a2\n 10523: u64 [a4 + 0x8] = a3\n 10526: a1 = a4\n 10528: a0 = s1 + 0x1380\n 10532: ra = 430, jump @6\n      : @433 [@dyn 215] (gas: 13)\n 10538: a0 = s1 + 0x1098\n 10542: a0 = u64 [a0 + 0x2e8]\n 10546: a1 = u64 [s1 + 0xa8]\n 10550: a0 = a0 & a1\n 10553: u64 [s1 + 0x90] = a0\n 10557: a0 = s1 + 0x209c\n 10561: u64 [a0 + 1180] = 0\n 10565: u64 [a0 + 1172] = 0\n 10569: u64 [a0 + 1164] = 0\n 10573: u64 [a0 + 1156] = 0\n 10577: a0 = s1 + 0x1360\n 10581: a1 = s1 + 0x2520\n 10585: ra = 432, jump @6\n      : @434 [@dyn 216] (gas: 38)\n 10591: a0 = s1 + 0x1098\n 10595: a0 = u64 [a0 + 0x2c8]\n 10599: a1 = u64 [s1 + 0xa8]\n 10603: a0 = a0 & a1\n 10606: u64 [s1 + 0x88] = a0\n 10610: a0 = sp + 0xffffffffffffffe0\n 10613: a0 = a0 & 0xffffffffffffffe0\n 10616: u64 [s1 + 0xb0] = a0\n 10620: sp = a0\n 10622: a0 = s1 + 0x1098\n 10626: a2 = s1 + 0x100\n 10630: a1 = u64 [a2 + 0x8]\n 10633: u64 [a0 + 0x260] = a1\n 10637: a0 = s1 + 0x1098\n 10641: a1 = u64 [a2]\n 10643: u64 [a0 + 0x258] = a1\n 10647: a0 = s1 + 0x1098\n 10651: a1 = u64 [a2 + 0x10]\n 10654: u64 [a0 + 0x250] = a1\n 10658: a0 = s1 + 0x1098\n 10662: a1 = u64 [a2 + 0x18]\n 10665: u64 [a0 + 0x248] = a1\n 10669: a0 = s1 + 0x1098\n 10673: a1 = u64 [s1 + 0xe0]\n 10677: u64 [a0 + 0x280] = a1\n 10681: a0 = s1 + 0x1098\n 10685: a1 = u64 [s1 + 0xe8]\n 10689: u64 [a0 + 0x278] = a1\n 10693: a0 = s1 + 0x1098\n 10697: a1 = u64 [s1 + 0xf0]\n 10701: u64 [a0 + 0x270] = a1\n 10705: a0 = s1 + 0x1320\n 10709: a1 = s1 + 0x1300\n 10713: a2 = s1 + 0x12e0\n 10717: a3 = s1 + 0x1098\n 10721: a4 = u64 [s1 + 0xf8]\n 10725: u64 [a3 + 0x268] = a4\n 10729: ra = 434, jump @981\n      : @435 [@dyn 217] (gas: 14)\n 10735: a1 = u64 [s1 + 0xb0]\n 10739: t1 = s1 + 0x1098\n 10743: t0 = u64 [t1 + 0x298]\n 10747: a2 = t1 + 0x200\n 10751: a0 = u64 [a2 + 0xa0]\n 10755: a4 = u64 [a2 + 0x88]\n 10759: a3 = u64 [a2 + 0x90]\n 10763: u64 [a1 + 0x10] = t0\n 10766: u64 [a1 + 0x18] = a0\n 10769: u64 [a1] = a4\n 10771: u64 [a1 + 0x8] = a3\n 10774: a5 = u64 [s1 + 0x90]\n 10778: a2 = u64 [s1 + 0x88]\n 10782: jump @448 if a2 >=u a5\n      : @436 (gas: 24)\n 10786: u64 [s1 + 0x40] = a4\n 10789: u64 [s1 + 0x48] = a3\n 10792: u64 [s1 + 0x50] = t0\n 10795: u64 [s1 + 0x58] = a0\n 10798: t0 = u64 [s1 + 0xd8]\n 10802: a1 = t0 + 0x1\n 10805: a0 = a1 <u 0x1\n 10808: t2 = u64 [s1 + 0xd0]\n 10812: a4 = t2 + a0\n 10815: a0 = a1 | a4\n 10818: a0 = a0 <u 0x1\n 10821: a5 = u64 [s1 + 0xc8]\n 10825: a3 = a5 + a0\n 10828: a0 = a3 <u a5\n 10831: a2 = u64 [s1 + 0xc0]\n 10835: a0 = a0 + a2\n 10838: u64 [s1 + 0x70] = a4\n 10841: u64 [s1 + 0x60] = a0\n 10844: a0 = a0 | a4\n 10847: u64 [s1 + 0x88] = a1\n 10851: u64 [s1 + 0x68] = a3\n 10854: a1 = a1 | a3\n 10857: a0 = a0 | a1\n 10860: jump @438 if a0 != 0\n      : @437 (gas: 1)\n 10863: jump @840\n      : @438 (gas: 21)\n 10866: a0 = sp + 0xffffffffffffffe0\n 10869: a0 = a0 & 0xffffffffffffffe0\n 10872: u64 [s1 + 0x90] = a0\n 10876: sp = a0\n 10878: a3 = t1 + 0x100\n 10882: u64 [a3 + 0x60] = a2\n 10885: u64 [a3 + 0x58] = a5\n 10888: u64 [t1 + 0x150] = t2\n 10892: u64 [t1 + 0x148] = t0\n 10896: a0 = u64 [s1 + 0xe0]\n 10900: u64 [a3 + 0x80] = a0\n 10904: a0 = u64 [s1 + 0xe8]\n 10908: u64 [a3 + 0x78] = a0\n 10911: a0 = u64 [s1 + 0xf0]\n 10915: u64 [a3 + 0x70] = a0\n 10918: a0 = s1 + 0x1220\n 10922: a1 = s1 + 0x1200\n 10926: a2 = s1 + 0x11e0\n 10930: a4 = u64 [s1 + 0xf8]\n 10934: u64 [a3 + 0x68] = a4\n 10937: ra = 436, jump @981\n      : @439 [@dyn 218] (gas: 19)\n 10943: a2 = s1 + 0x1098\n 10947: t0 = u64 [a2 + 0x1b8]\n 10951: t1 = u64 [a2 + 0x1a8]\n 10955: ra = u64 [a2 + 0x1c0]\n 10959: a1 = a2 + 0x100\n 10963: a0 = u64 [a1 + 0xb0]\n 10967: t2 = u64 [a2 + 0x198]\n 10971: a3 = u64 [a1 + 0xa0]\n 10975: a5 = u64 [a1 + 0x88]\n 10979: a4 = u64 [a1 + 0x90]\n 10983: a1 = u64 [s1 + 0x90]\n 10987: u64 [a1 + 0x10] = t2\n 10990: u64 [a1 + 0x18] = a3\n 10993: u64 [a1] = a5\n 10995: ra = a0 | ra\n 10998: a0 = t1 | t0\n 11001: a0 = a0 | ra\n 11004: u64 [a1 + 0x8] = a4\n 11007: jump @441 if a0 == 0\n      : @440 (gas: 1)\n 11010: jump @843\n      : @441 (gas: 12)\n 11013: a0 = u64 [s1 + 0x40]\n 11016: a0 = a0 ^ a5\n 11019: a1 = u64 [s1 + 0x50]\n 11022: a1 = t2 ^ a1\n 11025: a0 = a0 | a1\n 11028: a1 = u64 [s1 + 0x48]\n 11031: a1 = a1 ^ a4\n 11034: a2 = u64 [s1 + 0x58]\n 11037: a2 = a2 ^ a3\n 11040: a1 = a1 | a2\n 11043: a0 = a0 | a1\n 11046: jump @447 if a0 == 0\n      : @442 (gas: 7)\n 11050: a0 = s1 + 0x1180\n 11054: a1 = u64 [s1 + 0xb0]\n 11058: u64 [s1 + 0xd8] = a5\n 11062: u64 [s1 + 0xc8] = t2\n 11066: u64 [s1 + 0xd0] = a4\n 11070: u64 [s1 + 0xc0] = a3\n 11074: ra = 438, jump @6\n      : @443 [@dyn 219] (gas: 8)\n 11080: a0 = s1 + 0x1098\n 11084: a0 = u64 [a0 + 0xe8]\n 11088: a1 = u64 [s1 + 0xa8]\n 11092: a0 = a0 & a1\n 11095: u64 [s1 + 0x58] = a0\n 11098: a0 = s1 + 0x1160\n 11102: a1 = u64 [s1 + 0x90]\n 11106: ra = 440, jump @6\n      : @444 [@dyn 220] (gas: 21)\n 11112: a3 = s1 + 0x1098\n 11116: a0 = u64 [a3 + 0xd0]\n 11120: a1 = u64 [a3 + 0xd8]\n 11124: a2 = u64 [a3 + 0xe0]\n 11128: a3 = u64 [a3 + 0xc8]\n 11132: a0 = a0 & 0xffffffffffffffff\n 11135: a1 = a1 & 0xffffffffffffffff\n 11138: a2 = a2 & 0xffffffffffffffff\n 11141: a4 = u64 [s1 + 0x38]\n 11144: a3 = a3 & a4\n 11147: a4 = u64 [s1 + 0x58]\n 11150: a3 = a3 | a4\n 11153: a4 = s1 + 0x209c\n 11157: a5 = a4 + 0x404\n 11161: u64 [a5 + 0xb8] = a2\n 11165: u64 [a5 + 0xb0] = a1\n 11169: u64 [a5 + 0xa8] = a0\n 11173: u64 [a5 + 0xa0] = a3\n 11177: a1 = s1 + 0x2540\n 11181: a0 = u64 [s1 + 0x90]\n 11185: ra = 442, jump @10\n      : @445 [@dyn 221] (gas: 3)\n 11191: a0 = s1 + 0x1140\n 11195: a1 = u64 [s1 + 0xb0]\n 11199: ra = 444, jump @6\n      : @446 [@dyn 222] (gas: 28)\n 11205: a4 = s1 + 0x1098\n 11209: a0 = u64 [a4 + 0xb8]\n 11213: a1 = u64 [a4 + 0xb0]\n 11217: a2 = u32 [a4 + 0xac]\n 11221: a0 = a0 << 0x20\n 11224: a3 = a1 >> 0x20\n 11227: a0 = a0 | a3\n 11230: a1 = a1 << 0x20\n 11233: a1 = a1 | a2\n 11236: a2 = a1 & 0xffffffffffffffff\n 11239: a0 = a0 & 0xffffffffffffffff\n 11242: u64 [a4 + 128] = 0\n 11246: u64 [a4 + 120] = 0\n 11249: a3 = u64 [s1 + 0xc0]\n 11253: u64 [a4 + 0xa0] = a3\n 11257: a3 = u64 [s1 + 0xc8]\n 11261: u64 [a4 + 0x98] = a3\n 11265: a3 = u64 [s1 + 0xd0]\n 11269: u64 [a4 + 0x90] = a3\n 11273: a3 = u64 [s1 + 0xd8]\n 11277: u64 [a4 + 0x88] = a3\n 11281: u64 [a4 + 0x70] = a0\n 11284: a0 = s1 + 0x1120\n 11288: a1 = s1 + 0x1100\n 11292: u64 [a4 + 0x68] = a2\n 11295: ra = 0x1be\n 11299: t0 = 0x3e0\n 11303: jump @1097\n      : @447 [@dyn 223] (gas: 11)\n 11306: a0 = u64 [s1 + 0xa0]\n 11310: a1 = u64 [s1 + 0x98]\n 11314: a2 = u64 [s1 + 0x118]\n 11318: a3 = u64 [s1 + 0x110]\n 11322: a4 = u64 [s1 + 0x108]\n 11326: a5 = u64 [s1 + 0x100]\n 11330: t0 = u64 [s1 + 0x88]\n 11334: t1 = u64 [s1 + 0x70]\n 11337: t2 = u64 [s1 + 0x68]\n 11340: ra = u64 [s1 + 0x60]\n 11343: jump @451\n      : @448 (gas: 2)\n 11346: a0 = s1 + 0x12c0\n 11350: ra = 448, jump @6\n      : @449 [@dyn 224] (gas: 29)\n 11356: a4 = s1 + 0x1098\n 11360: a5 = a4 + 0x200\n 11364: a0 = u64 [a5 + 0x38]\n 11367: a1 = u64 [a5 + 0x30]\n 11370: a2 = u32 [a4 + 0x22c]\n 11374: a0 = a0 << 0x20\n 11377: a3 = a1 >> 0x20\n 11380: a0 = a0 | a3\n 11383: a1 = a1 << 0x20\n 11386: a1 = a1 | a2\n 11389: a3 = a1 & 0xffffffffffffffff\n 11392: a0 = a0 & 0xffffffffffffffff\n 11395: u64 [a4 + 480] = 0\n 11399: u64 [a4 + 472] = 0\n 11403: a1 = u64 [s1 + 0x78]\n 11406: u64 [a5] = a1\n 11408: a1 = u64 [s1 + 0x80]\n 11412: a5 = a4 + 0x100\n 11416: u64 [a5 + 0xf8] = a1\n 11420: a1 = u64 [s1 + 0x98]\n 11424: u64 [a5 + 0xf0] = a1\n 11428: a1 = u64 [s1 + 0xa0]\n 11432: u64 [a5 + 0xe8] = a1\n 11436: u64 [a5 + 0xd0] = a0\n 11440: a0 = s1 + 0x12a0\n 11444: a1 = s1 + 0x1280\n 11448: a2 = s1 + 0x1260\n 11452: u64 [a5 + 0xc8] = a3\n 11456: ra = 450, jump @1024\n      : @450 [@dyn 225] (gas: 17)\n 11462: a2 = s1 + 0x1098\n 11466: a3 = a2 + 0x200\n 11470: a0 = u64 [a3 + 0x20]\n 11473: u64 [s1 + 0x78] = a0\n 11476: a0 = u64 [a3 + 0x18]\n 11479: u64 [s1 + 0x80] = a0\n 11483: a1 = u64 [a3 + 0x10]\n 11486: a0 = u64 [a3 + 0x8]\n 11489: t0 = u64 [s1 + 0xd8]\n 11493: t1 = u64 [s1 + 0xd0]\n 11497: t2 = u64 [s1 + 0xc8]\n 11501: ra = u64 [s1 + 0xc0]\n 11505: a2 = u64 [s1 + 0x118]\n 11509: a3 = u64 [s1 + 0x110]\n 11513: a4 = u64 [s1 + 0x108]\n 11517: a5 = u64 [s1 + 0x100]\n 11521: fallthrough\n      : @451 (gas: 22)\n 11522: u64 [s1 + 0x98] = a1\n 11526: u64 [s1 + 0xa0] = a0\n 11530: a2 = a2 + 0x1\n 11533: u64 [s1 + 0x118] = a2\n 11537: a0 = a2 <u 0x1\n 11540: a3 = a3 + a0\n 11543: u64 [s1 + 0x110] = a3\n 11547: a0 = a2 | a3\n 11550: a0 = a0 <u 0x1\n 11553: a0 = a0 + a5\n 11556: a1 = a0 <u a5\n 11559: a4 = a4 + a1\n 11562: u64 [s1 + 0x108] = a4\n 11566: u64 [s1 + 0xd8] = t0\n 11570: u64 [s1 + 0xd0] = t1\n 11574: u64 [s1 + 0xc8] = t2\n 11578: u64 [s1 + 0xc0] = ra\n 11582: u64 [s1 + 0x100] = a0\n 11586: a1 = u64 [s1 + 0xb8]\n 11590: a0 = s1 + 0x1640\n 11594: ra = 0x1aa\n 11598: jump @6\n      : @452 (gas: 37)\n 11601: a1 = sp + 0xffffffffffffffe0\n 11604: a5 = a1 & 0xffffffffffffffe0\n 11607: sp = a5\n 11609: a1 = a0 <u 0x1\n 11612: a1 = a2 - a1\n 11615: a2 = a2 | a0\n 11618: a2 = a2 <u 0x1\n 11621: a4 = a3 - a2\n 11624: a2 = a3 <u a2\n 11627: a2 = t2 - a2\n 11630: a0 = a0 + 0xffffffffffffffff\n 11633: u64 [a5 + 0x18] = a2\n 11636: u64 [a5 + 0x10] = a4\n 11639: u64 [a5 + 0x8] = a1\n 11642: u64 [s1 + 0x118] = a5\n 11646: u64 [a5] = a0\n 11648: a3 = sp + 0xffffffffffffffe0\n 11651: a3 = a3 & 0xffffffffffffffe0\n 11654: u64 [s1 + 0x110] = a3\n 11658: sp = a3\n 11660: a5 = ra + 0x300\n 11664: u64 [a5 + 0xe0] = a2\n 11668: u64 [a5 + 0xd8] = a4\n 11672: u64 [a5 + 0xd0] = a1\n 11676: u64 [a5 + 0xc8] = a0\n 11680: a0 = u64 [s1 + 0xe0]\n 11684: u64 [ra + 0x400] = a0\n 11688: a0 = u64 [s1 + 0xe8]\n 11692: u64 [a5 + 0xf8] = a0\n 11696: a0 = u64 [s1 + 0xf0]\n 11700: u64 [a5 + 0xf0] = a0\n 11704: a0 = s1 + 0x14a0\n 11708: a1 = s1 + 0x1480\n 11712: a2 = s1 + 0x1460\n 11716: a3 = u64 [s1 + 0xf8]\n 11720: u64 [a5 + 0xe8] = a3\n 11724: ra = 452, jump @981\n      : @453 [@dyn 226] (gas: 19)\n 11730: a0 = s1 + 0x1098\n 11734: t0 = u64 [a0 + 0x438]\n 11738: t1 = u64 [a0 + 0x428]\n 11742: t2 = u64 [a0 + 0x440]\n 11746: a3 = u64 [a0 + 0x430]\n 11750: a4 = u64 [a0 + 0x418]\n 11754: a5 = u64 [a0 + 0x420]\n 11758: a2 = u64 [a0 + 0x408]\n 11762: a1 = u64 [a0 + 0x410]\n 11766: a0 = u64 [s1 + 0x110]\n 11770: u64 [a0 + 0x10] = a4\n 11773: u64 [a0 + 0x18] = a5\n 11776: u64 [a0] = a2\n 11778: a2 = a3 | t2\n 11781: a3 = a0\n 11783: a0 = t1 | t0\n 11786: a0 = a0 | a2\n 11789: u64 [a3 + 0x8] = a1\n 11792: jump @455 if a0 == 0\n      : @454 (gas: 1)\n 11795: jump @837\n      : @455 (gas: 8)\n 11798: a0 = s1 + 0x209c\n 11802: u64 [a0 + 1244] = 0\n 11806: u64 [a0 + 1236] = 0\n 11810: u64 [a0 + 1228] = 0\n 11814: u64 [a0 + 1220] = 0\n 11818: a1 = s1 + 0x2560\n 11822: a0 = a3\n 11824: ra = 454, jump @10\n      : @456 [@dyn 227] (gas: 3)\n 11830: a0 = u64 [s1 + 0xb8]\n 11834: a1 = u64 [s1 + 0x118]\n 11838: ra = 456, jump @10\n      : @457 [@dyn 228] (gas: 3)\n 11844: a1 = u64 [s1 + 0xb8]\n 11848: a0 = s1 + 0x1620\n 11852: ra = 458, jump @6\n      : @458 [@dyn 229] (gas: 22)\n 11858: ra = s1 + 0x1098\n 11862: a1 = ra + 0x500\n 11866: a2 = u64 [a1 + 0x90]\n 11870: t2 = u64 [ra + 0x5a0]\n 11874: a0 = u64 [a1 + 0x88]\n 11878: a3 = u64 [a1 + 0x98]\n 11882: a1 = u64 [s1 + 0xd0]\n 11886: t0 = a2 ^ a1\n 11889: a5 = a1 <u a2\n 11892: a1 = u64 [s1 + 0xd8]\n 11896: a4 = a1 <u a0\n 11899: a4 = a5 if t0 != 0\n 11902: a1 = u64 [s1 + 0xc8]\n 11906: t0 = a1 <u a3\n 11909: a5 = u64 [s1 + 0xc0]\n 11913: t1 = t2 ^ a5\n 11916: a5 = a5 <u t2\n 11919: a5 = t0 if t1 == 0\n 11922: a1 = a1 ^ a3\n 11925: a1 = a1 | t1\n 11928: a5 = a4 if a1 == 0\n 11931: jump @452 if a5 != 0\n      : @459 (gas: 6)\n 11935: a0 = u64 [s1 + 0x18]\n 11938: ra = 0x1cc\n 11942: ecalli 3 // 'caller'\n 11944: a2 = u64 [s1 + 0x30]\n 11947: t0 = 0x1ce\n 11951: jump @1052\n      : @460 [@dyn 230] (gas: 2)\n 11954: a2 = u64 [s1 + 0x30]\n 11957: t0 = 462, jump @1052\n      : @461 [@dyn 231] (gas: 8)\n 11963: u64 [a2 + 1408] = 0\n 11967: a4 = a2 + 0x500\n 11971: u64 [a4 + 0x78] = a1\n 11974: u64 [a4 + 0x70] = a0\n 11977: a1 = s1 + 0x1600\n 11981: u64 [a4 + 0x68] = a3\n 11984: a0 = 0\n 11986: ra = 464, jump @4\n      : @462 [@dyn 232] (gas: 3)\n 11992: t0 = 0x1d2\n 11996: a1 = s1 + 0x1098\n 12000: fallthrough\n      : @463 [@dyn 233] (gas: 8)\n 12001: u64 [a1 + 1376] = 0\n 12005: u64 [a1 + 1368] = 0\n 12009: u64 [a1 + 1352] = 0x1\n 12014: a2 = a1\n 12016: a0 = 0x20\n 12019: a1 = s1 + 0x15e0\n 12023: u64 [a2 + 1360] = 0\n 12027: ra = 468, jump @4\n      : @464 [@dyn 234] (gas: 7)\n 12033: a0 = sp + 0xffffffffffffffe0\n 12036: a0 = a0 & 0xffffffffffffffe0\n 12039: u64 [s1 + 0x110] = a0\n 12043: sp = a0\n 12045: a2 = u64 [s1 + 0x28]\n 12048: a0 = i32 [a2]\n 12050: jump @466 if a0 >u 63\n      : @465 (gas: 3)\n 12054: u32 [a2 + 0] = 0x40\n 12057: t0 = 0x1d6\n 12061: jump @1058\n      : @466 (gas: 1)\n 12064: t0 = 470, jump @1058\n      : @467 [@dyn 235] (gas: 5)\n 12070: a0 = u64 [s1 + 0x20]\n 12073: ra = 0x1d8\n 12077: ecalli 5 // 'hash_keccak_256'\n 12079: t0 = 0x1da\n 12083: jump @1078\n      : @468 [@dyn 236] (gas: 1)\n 12086: t0 = 474, jump @1078\n      : @469 [@dyn 237] (gas: 12)\n 12092: u64 [s1 + 0x108] = a4\n 12096: a2 = reverse a2\n 12098: u64 [s1 + 0x100] = a2\n 12102: a3 = reverse a3\n 12104: u64 [s1 + 0xf8] = a3\n 12108: a1 = u64 [s1 + 0x110]\n 12112: u64 [a1 + 0x18] = a3\n 12115: u64 [a1 + 0x10] = a2\n 12118: u64 [a1 + 0x8] = a4\n 12121: u64 [a1] = a0\n 12123: a0 = s1 + 0x15c0\n 12127: ra = 476, jump @6\n      : @470 [@dyn 238] (gas: 21)\n 12133: a2 = s1 + 0x1098\n 12137: a3 = u64 [a2 + 0x538]\n 12141: a0 = u64 [a2 + 0x540]\n 12145: a1 = u64 [s1 + 0x78]\n 12148: a4 = a2 + 0x400\n 12152: u64 [a4 + 0xe0] = a1\n 12156: a1 = u64 [s1 + 0x80]\n 12160: u64 [a4 + 0xd8] = a1\n 12164: a1 = u64 [s1 + 0x98]\n 12168: u64 [a4 + 0xd0] = a1\n 12172: a1 = u64 [s1 + 0xa0]\n 12176: u64 [a4 + 0xc8] = a1\n 12180: u64 [a2 + 1280] = 0\n 12184: u64 [a2 + 1272] = 0\n 12188: u64 [a4 + 0xf0] = a0\n 12192: a4 = a2\n 12194: a0 = s1 + 0x15a0\n 12198: a1 = s1 + 0x1580\n 12202: a2 = s1 + 0x1560\n 12206: u64 [a4 + 0x4e8] = a3\n 12210: ra = 478, jump @1038\n      : @471 [@dyn 239] (gas: 25)\n 12216: a4 = s1 + 0x1098\n 12220: a5 = a4 + 0x500\n 12224: a0 = u64 [a5 + 0x8]\n 12227: a1 = u64 [a5 + 0x10]\n 12230: a2 = u64 [a5 + 0x18]\n 12233: a3 = u64 [a5 + 0x20]\n 12236: a5 = a4 + 0x400\n 12240: u64 [a5 + 0xa0] = a3\n 12244: u64 [a5 + 0x98] = a2\n 12248: u64 [a5 + 0x90] = a1\n 12252: u64 [a5 + 0x88] = a0\n 12256: a0 = u64 [s1 + 0xf8]\n 12260: u64 [a5 + 0xc0] = a0\n 12264: a3 = s1 + 0x100\n 12268: a0 = u64 [a3]\n 12270: u64 [a5 + 0xb8] = a0\n 12274: a0 = u64 [a3 + 0x8]\n 12277: u64 [a5 + 0xb0] = a0\n 12281: a0 = s1 + 0x1540\n 12285: a1 = s1 + 0x1520\n 12289: a2 = u64 [a3 + 0x18]\n 12292: u64 [a5 + 0xa8] = a2\n 12296: ra = 0x1e0\n 12300: t0 = 0x40e\n 12304: jump @1097\n      : @472 [@dyn 240] (gas: 3)\n 12307: a0 = s1 + 0x1500\n 12311: a1 = 0x40\n 12314: ra = 482, jump @2\n      : @473 [@dyn 241] (gas: 7)\n 12320: a3 = s1 + 0x1098\n 12324: a5 = a3 + 0x400\n 12328: a0 = u64 [a5 + 0x80]\n 12332: a1 = u64 [a5 + 0x78]\n 12335: a2 = u64 [a5 + 0x70]\n 12338: a4 = u64 [a5 + 0x68]\n 12341: t0 = 484, jump @1063\n      : @474 [@dyn 242] (gas: 1)\n 12347: jump @476 if a0 == 0\n      : @475 (gas: 1)\n 12350: jump @836\n      : @476 (gas: 13)\n 12353: a0 = u64 [s1 + 0x98]\n 12357: a0 = a0 & 0xffffffffffffffff\n 12360: a2 = u64 [s1 + 0xa0]\n 12364: a1 = a2 & 0xffffffffffffffff\n 12367: u64 [a3 + 1120] = 0\n 12371: u64 [a3 + 1112] = 0\n 12375: u64 [a3 + 0x448] = a1\n 12379: a1 = s1 + 0x14e0\n 12383: u64 [a3 + 0x450] = a0\n 12387: a0 = a4\n 12389: u64 [s1 + 0x118] = a4\n 12393: ra = 0x35e\n 12397: jump @4\n      : @477 (gas: 10)\n 12400: u64 [a2 + 1628] = 0\n 12404: u64 [a2 + 1620] = 0\n 12408: u64 [a2 + 1612] = 0\n 12412: u64 [a2 + 1604] = 0\n 12416: a0 = s1 + 0x2000\n 12420: i32 a0 = a0 + 0x6e0\n 12424: ra = 0x1e6\n 12428: ecalli 9 // 'value_transferred'\n 12430: t0 = 0x1e8\n 12434: jump @1072\n      : @478 [@dyn 243] (gas: 1)\n 12437: t0 = 488, jump @1072\n      : @479 [@dyn 244] (gas: 8)\n 12443: a0 = u64 [a4 + 0x50]\n 12446: a1 = u64 [a4 + 0x58]\n 12449: a2 = u64 [a4 + 0x48]\n 12452: a3 = u64 [a4 + 0x40]\n 12455: a1 = a1 | a2\n 12458: a0 = a0 | a3\n 12461: a0 = a0 | a1\n 12464: jump @481 if a0 == 0\n      : @480 (gas: 1)\n 12467: jump @889\n      : @481 (gas: 3)\n 12470: a0 = u64 [s1 + 0x118]\n 12474: a0 = i32 [a0]\n 12476: jump @483 if a0 >u 3\n      : @482 (gas: 1)\n 12480: jump @890\n      : @483 (gas: 3)\n 12483: a0 = s1 + 0x1ba0\n 12487: a1 = 0x40\n 12490: ra = 490, jump @2\n      : @484 [@dyn 245] (gas: 7)\n 12496: a3 = s1 + 0x1898\n 12500: a5 = a3 + 0x300\n 12504: a4 = u64 [a5 + 0x20]\n 12507: a1 = u64 [a5 + 0x18]\n 12510: a2 = u64 [a5 + 0x10]\n 12513: a0 = u64 [a5 + 0x8]\n 12516: t0 = 492, jump @1057\n      : @485 [@dyn 246] (gas: 1)\n 12522: jump @487 if a1 == 0\n      : @486 (gas: 1)\n 12525: jump @836\n      : @487 (gas: 8)\n 12528: u64 [a3 + 768] = 0\n 12532: u64 [a3 + 760] = 0\n 12536: u64 [a3 + 744] = 0x2\n 12541: a1 = s1 + 0x1b80\n 12545: u64 [a3 + 752] = 0\n 12549: u64 [s1 + 0x118] = a0\n 12553: ra = 0x35e\n 12557: jump @4\n      : @488 (gas: 10)\n 12560: u64 [a2 + 1436] = 0\n 12564: u64 [a2 + 1428] = 0\n 12568: u64 [a2 + 1420] = 0\n 12572: u64 [a2 + 1412] = 0\n 12576: a0 = s1 + 0x2000\n 12580: i32 a0 = a0 + 0x620\n 12584: ra = 0x1ee\n 12588: ecalli 9 // 'value_transferred'\n 12590: t0 = 0x1f0\n 12594: jump @1092\n      : @489 [@dyn 247] (gas: 1)\n 12597: t0 = 496, jump @1092\n      : @490 [@dyn 248] (gas: 1)\n 12603: t0 = 498, jump @1068\n      : @491 [@dyn 249] (gas: 1)\n 12609: jump @493 if a0 == 0\n      : @492 (gas: 1)\n 12612: jump @891\n      : @493 (gas: 3)\n 12615: a0 = u64 [s1 + 0x118]\n 12619: a0 = i32 [a0]\n 12621: jump @495 if a0 >u 3\n      : @494 (gas: 1)\n 12625: jump @892\n      : @495 (gas: 8)\n 12628: a0 = 0x30020\n 12633: u64 [s1 + 0x118] = a0\n 12637: i32 a0 = a0 + 0\n 12639: ra = 0x1f4\n 12643: ecalli 3 // 'caller'\n 12645: a2 = u64 [s1 + 0x118]\n 12649: t0 = 0x1f6\n 12653: jump @1050\n      : @496 [@dyn 250] (gas: 2)\n 12656: a2 = u64 [s1 + 0x118]\n 12660: t0 = 502, jump @1050\n      : @497 [@dyn 251] (gas: 8)\n 12666: u64 [a2 + 0] = 0\n 12668: a4 = a2 + 0xffffffffffffff00\n 12672: u64 [a4 + 0xf8] = a1\n 12676: u64 [a4 + 0xf0] = a0\n 12680: a1 = s1 + 0x1880\n 12684: u64 [a4 + 0xe8] = a3\n 12688: a0 = 0\n 12690: ra = 504, jump @4\n      : @498 [@dyn 252] (gas: 8)\n 12696: a2 = s1 + 0x1098\n 12700: u64 [a2 + 2016] = 0\n 12704: u64 [a2 + 2008] = 0\n 12708: u64 [a2 + 1992] = 0x1\n 12713: a0 = 0x20\n 12716: a1 = s1 + 0x1860\n 12720: u64 [a2 + 2000] = 0\n 12724: ra = 506, jump @4\n      : @499 [@dyn 253] (gas: 2)\n 12730: a1 = i32 [0x20014]\n 12735: jump @501 if a1 >u 63\n      : @500 (gas: 4)\n 12739: a1 = 0x40\n 12742: u32 [0x20014] = a1\n 12747: t0 = 0x1fc\n 12751: jump @1087\n      : @501 (gas: 1)\n 12754: t0 = 508, jump @1087\n      : @502 [@dyn 254] (gas: 9)\n 12760: a0 = 0x20020\n 12765: i32 a0 = a0 + 0\n 12767: i32 a2 = a2 + 0\n 12769: a1 = 0x40\n 12772: ra = 0x1fe\n 12776: ecalli 5 // 'hash_keccak_256'\n 12778: a3 = u64 [s1 + 0x118]\n 12782: t0 = 0x200\n 12786: jump @1060\n      : @503 [@dyn 255] (gas: 2)\n 12789: a3 = u64 [s1 + 0x118]\n 12793: t0 = 512, jump @1060\n      : @504 [@dyn 256] (gas: 8)\n 12799: a5 = a1 + 0x504\n 12803: u64 [a5 + 0xa0] = a3\n 12807: u64 [a5 + 0xa8] = a2\n 12811: u64 [a5 + 0xb0] = a4\n 12815: u64 [a5 + 0xb8] = a0\n 12819: a0 = s1 + 0x1840\n 12823: a1 = s1 + 0x2640\n 12827: ra = 514, jump @6\n      : @505 [@dyn 257] (gas: 3)\n 12833: t0 = 0x204\n 12837: a1 = s1 + 0x1098\n 12841: fallthrough\n      : @506 [@dyn 258] (gas: 11)\n 12842: a2 = a1 + 0x700\n 12846: a0 = u64 [a2 + 0xb8]\n 12850: a1 = s1 + 0x100\n 12854: u64 [a1 + 0x18] = a0\n 12857: a0 = u64 [a2 + 0xb0]\n 12861: u64 [a1 + 0x10] = a0\n 12864: a0 = u64 [a2 + 0xa8]\n 12868: u64 [a1 + 0x8] = a0\n 12871: a0 = s1 + 0x1820\n 12875: a1 = 0x40\n 12878: ra = 518, jump @2\n      : @507 [@dyn 259] (gas: 7)\n 12884: a3 = s1 + 0x1098\n 12888: a5 = a3 + 0x700\n 12892: a4 = u64 [a5 + 0xa0]\n 12896: a1 = u64 [a5 + 0x98]\n 12900: a2 = u64 [a5 + 0x90]\n 12904: a0 = u64 [a5 + 0x88]\n 12908: t0 = 520, jump @1057\n      : @508 [@dyn 260] (gas: 1)\n 12914: jump @510 if a1 == 0\n      : @509 (gas: 1)\n 12917: jump @836\n      : @510 (gas: 20)\n 12920: a2 = u64 [s1 + 0x110]\n 12924: a4 = a2 >> 0x8\n 12927: a5 = u64 [s1 + 0x118]\n 12931: a1 = a5 << 0x38\n 12934: a4 = a4 | a1\n 12937: a1 = u64 [s1 + 0x108]\n 12941: a1 = a1 >> 0x8\n 12944: a2 = a2 << 0x38\n 12947: a1 = a1 | a2\n 12950: a2 = a5 << 0x18\n 12953: a2 = a2 >> 0x20\n 12956: u64 [a3 + 1920] = 0\n 12960: a5 = a3 + 0x700\n 12964: u64 [a5 + 0x68] = a1\n 12967: u64 [a5 + 0x78] = a2\n 12970: a1 = s1 + 0x1800\n 12974: u64 [a5 + 0x70] = a4\n 12977: u64 [s1 + 0x118] = a0\n 12981: ra = 0x35e\n 12985: jump @4\n      : @511 (gas: 10)\n 12988: u64 [a2 + 1500] = 0\n 12992: u64 [a2 + 1492] = 0\n 12996: u64 [a2 + 1484] = 0\n 13000: u64 [a2 + 1476] = 0\n 13004: a0 = s1 + 0x2000\n 13008: i32 a0 = a0 + 0x660\n 13012: ra = 0x20a\n 13016: ecalli 9 // 'value_transferred'\n 13018: t0 = 0x20c\n 13022: jump @1092\n      : @512 [@dyn 261] (gas: 1)\n 13025: t0 = 524, jump @1092\n      : @513 [@dyn 262] (gas: 8)\n 13031: a0 = u64 [a4 + 0xd0]\n 13035: a1 = u64 [a4 + 0xd8]\n 13039: a2 = u64 [a4 + 0xc8]\n 13043: a3 = u64 [a4 + 0xc0]\n 13047: a1 = a1 | a2\n 13050: a0 = a0 | a3\n 13053: a0 = a0 | a1\n 13056: jump @515 if a0 == 0\n      : @514 (gas: 1)\n 13059: jump @893\n      : @515 (gas: 3)\n 13062: a0 = u64 [s1 + 0x118]\n 13066: a0 = i32 [a0]\n 13068: jump @517 if a0 >u 3\n      : @516 (gas: 1)\n 13072: jump @894\n      : @517 (gas: 3)\n 13075: a0 = s1 + 0x18c0\n 13079: a1 = 0x40\n 13082: ra = 526, jump @2\n      : @518 [@dyn 263] (gas: 6)\n 13088: a3 = s1 + 0x1898\n 13092: a0 = u64 [a3 + 0x40]\n 13095: a1 = u64 [a3 + 0x38]\n 13098: a2 = u64 [a3 + 0x30]\n 13101: a4 = u64 [a3 + 0x28]\n 13104: t0 = 528, jump @1063\n      : @519 [@dyn 264] (gas: 1)\n 13110: jump @521 if a0 == 0\n      : @520 (gas: 1)\n 13113: jump @836\n      : @521 (gas: 10)\n 13116: u64 [a3 + 32] = 0\n 13119: u64 [a3 + 16] = 0x5\n 13123: a0 = 0x6bc75e2d63100000\n 13133: u64 [a3 + 0x8] = a0\n 13136: a1 = s1 + 0x18a0\n 13140: u64 [a3 + 24] = 0\n 13143: a0 = a4\n 13145: u64 [s1 + 0x118] = a4\n 13149: ra = 0x35e\n 13153: jump @4\n      : @522 (gas: 10)\n 13156: u64 [a2 + 956] = 0\n 13160: u64 [a2 + 948] = 0\n 13164: u64 [a2 + 940] = 0\n 13168: u64 [a2 + 932] = 0\n 13172: a0 = s1 + 0x2000\n 13176: i32 a0 = a0 + 0x440\n 13180: ra = 0x212\n 13184: ecalli 9 // 'value_transferred'\n 13186: t0 = 0x214\n 13190: jump @1071\n      : @523 [@dyn 265] (gas: 1)\n 13193: t0 = 532, jump @1071\n      : @524 [@dyn 266] (gas: 1)\n 13199: t0 = 534, jump @1074\n      : @525 [@dyn 267] (gas: 1)\n 13205: jump @527 if a0 == 0\n      : @526 (gas: 1)\n 13208: jump @895\n      : @527 (gas: 3)\n 13211: a0 = u64 [s1 + 0x118]\n 13215: a0 = i32 [a0]\n 13217: jump @529 if a0 >u 3\n      : @528 (gas: 1)\n 13221: jump @896\n      : @529 (gas: 4)\n 13224: a0 = s1 + 0x7ff\n 13228: a0 = a0 + 0x421\n 13232: a1 = 0x40\n 13235: ra = 536, jump @2\n      : @530 [@dyn 268] (gas: 1)\n 13241: t0 = 538, jump @1082\n      : @531 [@dyn 269] (gas: 5)\n 13247: a0 = u64 [a5 + 0xa0]\n 13251: a1 = u64 [a5 + 0x98]\n 13255: a2 = u64 [a5 + 0x90]\n 13259: a4 = u64 [a5 + 0x88]\n 13263: t0 = 540, jump @1063\n      : @532 [@dyn 270] (gas: 1)\n 13269: jump @534 if a0 == 0\n      : @533 (gas: 1)\n 13272: jump @836\n      : @534 (gas: 11)\n 13275: u64 [a3 + 896] = 0\n 13279: u64 [a3 + 880] = 0xd3c2\n 13286: a0 = 0x1bcecceda1000000\n 13296: u64 [a3 + 0x368] = a0\n 13300: a1 = s1 + 0x7ff\n 13304: a1 = a1 + 0x401\n 13308: u64 [a3 + 888] = 0\n 13312: a0 = a4\n 13314: u64 [s1 + 0x118] = a4\n 13318: ra = 0x35e\n 13322: jump @4\n      : @535 (gas: 8)\n 13325: u64 [a2 + 92] = 0\n 13328: u64 [a2 + 84] = 0\n 13331: u64 [a2 + 76] = 0\n 13334: u64 [a2 + 68] = 0\n 13337: a0 = s1 + 0x2000\n 13341: i32 a0 = a0 + 0xe0\n 13345: ecalli 9 // 'value_transferred'\n 13347: fallthrough\n      : @536 (gas: 10)\n 13348: a4 = s1 + 0x209c\n 13352: a5 = a4 + 0x4\n 13355: a0 = u64 [a5 + 0x50]\n 13358: a1 = u64 [a5 + 0x58]\n 13361: a2 = u64 [a5 + 0x48]\n 13364: a3 = u64 [a5 + 0x40]\n 13367: a1 = a1 | a2\n 13370: a0 = a0 | a3\n 13373: a0 = a0 | a1\n 13376: jump @538 if a0 == 0\n      : @537 (gas: 1)\n 13379: jump @897\n      : @538 (gas: 3)\n 13382: a0 = u64 [s1 + 0x118]\n 13386: a0 = i32 [a0]\n 13388: jump @540 if a0 >u 3\n      : @539 (gas: 1)\n 13392: jump @898\n      : @540 (gas: 7)\n 13395: u64 [a4 + 124] = 0\n 13398: u64 [a4 + 116] = 0\n 13401: u64 [a4 + 108] = 0\n 13404: u64 [a4 + 100] = 0\n 13407: a0 = s1 + 0x220\n 13411: a1 = s1 + 0x2100\n 13415: ra = 542, jump @6\n      : @541 [@dyn 271] (gas: 5)\n 13421: a0 = u64 [s1 + 0x220]\n 13425: u64 [s1 + 0x118] = a0\n 13429: a0 = s1 + 0x200\n 13433: a1 = 0x40\n 13436: ra = 544, jump @2\n      : @542 [@dyn 272] (gas: 6)\n 13442: a4 = s1 + 0x200\n 13446: a3 = u64 [a4 + 0x18]\n 13449: a1 = u64 [a4 + 0x10]\n 13452: a2 = u64 [a4 + 0x8]\n 13455: a0 = u64 [a4]\n 13457: t0 = 546, jump @1076\n      : @543 [@dyn 273] (gas: 1)\n 13463: jump @545 if a1 == 0\n      : @544 (gas: 1)\n 13466: jump @836\n      : @545 (gas: 11)\n 13469: a1 = u64 [s1 + 0x118]\n 13473: a1 = a1 << 0x20\n 13476: a2 = a1 >> 0x20\n 13479: u64 [s1 + 504] = 0\n 13483: u64 [s1 + 496] = 0\n 13487: u64 [s1 + 488] = 0\n 13491: a1 = s1 + 0x1e0\n 13495: u64 [s1 + 0x1e0] = a2\n 13499: u64 [s1 + 0x118] = a0\n 13503: ra = 0x35e\n 13507: jump @4\n      : @546 (gas: 12)\n 13510: a0 = u64 [s1 + 0x90]\n 13514: a2 = s1 + 0x300\n 13518: u64 [a2 + 0x20] = a0\n 13521: a0 = u64 [s1 + 0x80]\n 13525: u64 [a2 + 0x28] = a0\n 13528: a0 = u64 [s1 + 0x78]\n 13531: u64 [a2 + 0x30] = a0\n 13534: a1 = s1 + 0x320\n 13538: a0 = u64 [s1 + 0x88]\n 13542: u64 [a2 + 0x38] = a0\n 13545: a0 = 0\n 13547: ra = 548, jump @4\n      : @547 [@dyn 274] (gas: 3)\n 13553: a2 = u64 [s1 + 0x60]\n 13556: a0 = i32 [a2]\n 13558: jump @549 if a0 >u 31\n      : @548 (gas: 2)\n 13562: u32 [a2 + 0] = 0x20\n 13565: fallthrough\n      : @549 (gas: 32)\n 13566: a0 = sp + 0xffffffffffffffe0\n 13569: a0 = a0 & 0xffffffffffffffe0\n 13572: u64 [s1 + 0xf8] = a0\n 13576: sp = a0\n 13578: i32 a2 = a0 + 0\n 13580: a1 = 0x20\n 13583: a0 = u64 [s1 + 0x68]\n 13586: ecalli 5 // 'hash_keccak_256'\n 13588: ra = 0\n 13590: a5 = 0\n 13592: u64 [s1 + 280] = 0\n 13596: a3 = u64 [s1 + 0xf8]\n 13600: a0 = u64 [a3]\n 13602: a1 = u64 [a3 + 0x8]\n 13605: a2 = u64 [a3 + 0x10]\n 13608: a3 = u64 [a3 + 0x18]\n 13611: a0 = reverse a0\n 13613: u64 [s1 + 0xb8] = a0\n 13617: a0 = reverse a1\n 13619: u64 [s1 + 0x90] = a0\n 13623: a0 = reverse a2\n 13625: u64 [s1 + 0x88] = a0\n 13629: a0 = reverse a3\n 13631: u64 [s1 + 0x80] = a0\n 13635: a3 = 0\n 13637: a0 = s1 + 0x2000\n 13641: i32 a0 = a0 + 0x1e0\n 13645: u64 [s1 + 0x78] = a0\n 13648: a0 = 0xffffffff\n 13658: u64 [s1 + 0x70] = a0\n 13661: t2 = u64 [s1 + 0xe0]\n 13665: fallthrough\n      : @550 (gas: 19)\n 13666: a0 = u64 [s1 + 0x98]\n 13670: a0 = ra <u a0\n 13673: a2 = u64 [s1 + 0xa0]\n 13677: a1 = a5 ^ a2\n 13680: a2 = a5 <u a2\n 13683: a2 = a0 if a1 == 0\n 13686: a4 = u64 [s1 + 0xa8]\n 13690: t0 = a3 <u a4\n 13693: a0 = a3\n 13695: a3 = u64 [s1 + 0xb0]\n 13699: a1 = u64 [s1 + 0x118]\n 13703: t1 = a1 ^ a3\n 13706: a3 = a1 <u a3\n 13709: a3 = t0 if t1 == 0\n 13712: u64 [s1 + 0xf8] = a0\n 13716: a0 = a0 ^ a4\n 13719: a0 = a0 | t1\n 13722: a3 = a2 if a0 == 0\n 13725: jump @552 if a3 != 0\n      : @551 (gas: 1)\n 13728: jump @784\n      : @552 (gas: 16)\n 13731: a0 = sp + 0xffffffffffffffe0\n 13734: a0 = a0 & 0xffffffffffffffe0\n 13737: u64 [s1 + 0xd8] = a0\n 13741: sp = a0\n 13743: a4 = s1 + 0x100\n 13747: a2 = u64 [a4 + 0x10]\n 13750: a0 = a2 | t2\n 13753: a1 = u64 [a4 + 0x8]\n 13756: a3 = u64 [a4]\n 13758: a1 = a1 | a3\n 13761: a0 = a0 | a1\n 13764: a0 = a0 >> 0x20\n 13767: a1 = a1 | t2\n 13770: a1 = a1 << 0x20\n 13773: a0 = a0 | a1\n 13776: jump @554 if a0 == 0\n      : @553 (gas: 1)\n 13779: jump @836\n      : @554 (gas: 8)\n 13782: u64 [s1 + 0xe8] = a5\n 13786: u64 [s1 + 0xf0] = ra\n 13790: u64 [s1 + 0xe0] = t2\n 13794: i32 a1 = a2 + 0\n 13796: a0 = u64 [s1 + 0x78]\n 13799: u64 [s1 + 0x110] = a2\n 13803: ecalli 1 // 'call_data_load'\n 13805: fallthrough\n      : @555 (gas: 21)\n 13806: t0 = s1 + 0x209c\n 13810: a4 = t0 + 0x104\n 13814: a0 = u64 [a4 + 0x48]\n 13817: a1 = u64 [a4 + 0x58]\n 13820: a2 = u64 [a4 + 0x50]\n 13823: t1 = u64 [s1 + 0xd8]\n 13827: a5 = t1\n 13829: u64 [a5 + 0x8] = a0\n 13832: a0 = a1 >u 0\n 13834: a3 = a2 >> 0x20\n 13837: a3 = a3 >u 0\n 13839: a3 = a0 if a1 != 0\n 13842: a0 = u64 [a4 + 0x40]\n 13845: u64 [a5 + 0x18] = a1\n 13848: u64 [a5 + 0x10] = a2\n 13851: a4 = u64 [s1 + 0x70]\n 13854: a2 = a2 ^ a4\n 13857: a1 = a1 | a2\n 13860: a3 = 0 if a1 == 0\n 13862: u64 [a5] = a0\n 13864: jump @557 if a3 == 0\n      : @556 (gas: 1)\n 13867: jump @839\n      : @557 (gas: 46)\n 13870: a1 = u64 [s1 + 0x110]\n 13874: a0 = a1 + 0x20\n 13877: u64 [s1 + 0xd0] = a0\n 13881: a0 = a0 <u a1\n 13884: a1 = u64 [s1 + 0x100]\n 13888: a2 = a1 + a0\n 13891: u64 [s1 + 0xc8] = a2\n 13895: a1 = a2 <u a1\n 13898: a1 = a0 if a0 == 0\n 13901: a0 = u64 [s1 + 0xe0]\n 13905: a1 = a1 + a0\n 13908: u64 [s1 + 0xc0] = a1\n 13912: a0 = a1 <u a0\n 13915: a1 = u64 [s1 + 0x108]\n 13919: a1 = a1 + a0\n 13922: u64 [s1 + 0x108] = a1\n 13926: a1 = u64 [s1 + 0xf0]\n 13930: a0 = u64 [s1 + 0x80]\n 13934: t2 = a1 + a0\n 13937: a1 = t2 <u a1\n 13940: a0 = u64 [s1 + 0xe8]\n 13944: a2 = u64 [s1 + 0x88]\n 13948: a2 = a2 + a0\n 13951: a2 = a2 + a1\n 13954: a3 = a2 ^ a0\n 13957: a4 = a2 <u a0\n 13960: a4 = a1 if a3 == 0\n 13963: a1 = u64 [s1 + 0x90]\n 13967: a0 = u64 [s1 + 0xf8]\n 13971: a1 = a1 + a0\n 13974: a3 = a1 <u a0\n 13977: a5 = u64 [s1 + 0xb8]\n 13981: a0 = u64 [s1 + 0x118]\n 13985: a5 = a5 + a0\n 13988: a3 = a3 + a5\n 13991: a4 = a4 + a1\n 13994: a1 = a4 <u a1\n 13997: a1 = a1 + a3\n 14000: u64 [t0 + 0x164] = t2\n 14004: a0 = t0 + 0x104\n 14008: u64 [a0 + 0x68] = a2\n 14011: u64 [a0 + 0x70] = a4\n 14014: u64 [a0 + 0x78] = a1\n 14017: a0 = s1 + 0x2200\n 14021: a1 = t1\n 14023: ra = 550, jump @10\n      : @558 [@dyn 275] (gas: 21)\n 14029: a5 = u64 [s1 + 0xe8]\n 14033: ra = u64 [s1 + 0xf0]\n 14037: ra = ra + 0x1\n 14040: a0 = ra <u 0x1\n 14043: a5 = a5 + a0\n 14046: a0 = ra | a5\n 14049: a0 = a0 <u 0x1\n 14052: a1 = u64 [s1 + 0xf8]\n 14056: a0 = a0 + a1\n 14059: a1 = a0 <u a1\n 14062: a3 = s1 + 0x100\n 14066: a2 = u64 [a3 + 0x18]\n 14069: a2 = a2 + a1\n 14072: u64 [a3 + 0x18] = a2\n 14075: a1 = u64 [s1 + 0xd0]\n 14079: u64 [a3 + 0x10] = a1\n 14082: a1 = u64 [s1 + 0xc8]\n 14086: u64 [a3] = a1\n 14088: t2 = u64 [s1 + 0xc0]\n 14092: a3 = a0\n 14094: jump @550\n      : @559 (gas: 10)\n 14097: u64 [a2 + 924] = 0\n 14101: u64 [a2 + 916] = 0\n 14105: u64 [a2 + 908] = 0\n 14109: u64 [a2 + 900] = 0\n 14113: a0 = s1 + 0x2000\n 14117: i32 a0 = a0 + 0x420\n 14121: ra = 0x228\n 14125: ecalli 9 // 'value_transferred'\n 14127: t0 = 0x22a\n 14131: jump @1071\n      : @560 [@dyn 276] (gas: 1)\n 14134: t0 = 554, jump @1071\n      : @561 [@dyn 277] (gas: 1)\n 14140: t0 = 556, jump @1068\n      : @562 [@dyn 278] (gas: 1)\n 14146: jump @564 if a0 == 0\n      : @563 (gas: 1)\n 14149: jump @899\n      : @564 (gas: 3)\n 14152: a0 = u64 [s1 + 0x118]\n 14156: a0 = i32 [a0]\n 14158: jump @566 if a0 >u 3\n      : @565 (gas: 1)\n 14162: jump @900\n      : @566 (gas: 4)\n 14165: a0 = s1 + 0x7ff\n 14169: a0 = a0 + 0x3e1\n 14173: a1 = 0x40\n 14176: ra = 558, jump @2\n      : @567 [@dyn 279] (gas: 1)\n 14182: t0 = 560, jump @1082\n      : @568 [@dyn 280] (gas: 5)\n 14188: a0 = u64 [a5 + 0x60]\n 14191: a1 = u64 [a5 + 0x58]\n 14194: a2 = u64 [a5 + 0x50]\n 14197: a4 = u64 [a5 + 0x48]\n 14200: t0 = 562, jump @1063\n      : @569 [@dyn 281] (gas: 1)\n 14206: jump @571 if a0 == 0\n      : @570 (gas: 1)\n 14209: jump @836\n      : @571 (gas: 11)\n 14212: u64 [a3 + 832] = 0\n 14216: u64 [a3 + 824] = 0\n 14220: a0 = 0xde0b6b3a7640000\n 14230: u64 [a3 + 0x328] = a0\n 14234: a1 = s1 + 0x7ff\n 14238: a1 = a1 + 0x3c1\n 14242: u64 [a3 + 816] = 0\n 14246: a0 = a4\n 14248: u64 [s1 + 0x118] = a4\n 14252: ra = 0x35e\n 14256: jump @4\n      : @572 (gas: 10)\n 14259: u64 [a2 + 1564] = 0\n 14263: u64 [a2 + 1556] = 0\n 14267: u64 [a2 + 1548] = 0\n 14271: u64 [a2 + 1540] = 0\n 14275: a0 = s1 + 0x2000\n 14279: i32 a0 = a0 + 0x6a0\n 14283: ra = 0x234\n 14287: ecalli 9 // 'value_transferred'\n 14289: t0 = 0x236\n 14293: jump @1072\n      : @573 [@dyn 282] (gas: 1)\n 14296: t0 = 566, jump @1072\n      : @574 [@dyn 283] (gas: 1)\n 14302: t0 = 568, jump @1096\n      : @575 [@dyn 284] (gas: 1)\n 14308: jump @577 if a0 == 0\n      : @576 (gas: 1)\n 14311: jump @901\n      : @577 (gas: 3)\n 14314: a0 = u64 [s1 + 0x118]\n 14318: a0 = i32 [a0]\n 14320: jump @579 if a0 >u 3\n      : @578 (gas: 1)\n 14324: jump @902\n      : @579 (gas: 8)\n 14327: a0 = 0x30020\n 14332: u64 [s1 + 0x118] = a0\n 14336: i32 a0 = a0 + 0\n 14338: ra = 0x23a\n 14342: ecalli 3 // 'caller'\n 14344: a2 = u64 [s1 + 0x118]\n 14348: t0 = 0x23c\n 14352: jump @1050\n      : @580 [@dyn 285] (gas: 2)\n 14355: a2 = u64 [s1 + 0x118]\n 14359: t0 = 572, jump @1050\n      : @581 [@dyn 286] (gas: 8)\n 14365: u64 [a2 + 736] = 0\n 14369: a4 = a2 + 0x200\n 14373: u64 [a4 + 0xd8] = a1\n 14377: u64 [a4 + 0xd0] = a0\n 14381: a1 = s1 + 0x1b60\n 14385: u64 [a4 + 0xc8] = a3\n 14389: a0 = 0\n 14391: ra = 574, jump @4\n      : @582 [@dyn 287] (gas: 3)\n 14397: t0 = 0x240\n 14401: a1 = s1 + 0x1898\n 14405: fallthrough\n      : @583 [@dyn 288] (gas: 8)\n 14406: u64 [a1 + 704] = 0\n 14410: u64 [a1 + 696] = 0\n 14414: u64 [a1 + 680] = 0x1\n 14419: a2 = a1\n 14421: a0 = 0x20\n 14424: a1 = s1 + 0x1b40\n 14428: u64 [a2 + 688] = 0\n 14432: ra = 578, jump @4\n      : @584 [@dyn 289] (gas: 2)\n 14438: a1 = i32 [0x20014]\n 14443: jump @586 if a1 >u 63\n      : @585 (gas: 4)\n 14447: a1 = 0x40\n 14450: u32 [0x20014] = a1\n 14455: t0 = 0x244\n 14459: jump @1087\n      : @586 (gas: 1)\n 14462: t0 = 580, jump @1087\n      : @587 [@dyn 290] (gas: 9)\n 14468: a0 = 0x20020\n 14473: i32 a0 = a0 + 0\n 14475: i32 a2 = a2 + 0\n 14477: a1 = 0x40\n 14480: ra = 0x246\n 14484: ecalli 5 // 'hash_keccak_256'\n 14486: a3 = u64 [s1 + 0x118]\n 14490: t0 = 0x248\n 14494: jump @1054\n      : @588 [@dyn 291] (gas: 2)\n 14497: a3 = u64 [s1 + 0x118]\n 14501: t0 = 584, jump @1054\n      : @589 [@dyn 292] (gas: 9)\n 14507: a1 = s1 + 0x209c\n 14511: a3 = a1 + 0x604\n 14515: u64 [a3 + 0x20] = a4\n 14518: u64 [a3 + 0x28] = a5\n 14521: u64 [a3 + 0x30] = a2\n 14524: u64 [a3 + 0x38] = a0\n 14527: a0 = s1 + 0x1b20\n 14531: a1 = s1 + 0x26c0\n 14535: ra = 586, jump @6\n      : @590 [@dyn 293] (gas: 6)\n 14541: a0 = s1 + 0x1898\n 14545: a0 = u64 [a0 + 0x288]\n 14549: u64 [s1 + 0x118] = a0\n 14553: a0 = s1 + 0x1b00\n 14557: a1 = 0x40\n 14560: ra = 588, jump @2\n      : @591 [@dyn 294] (gas: 7)\n 14566: a3 = s1 + 0x1898\n 14570: a5 = a3 + 0x200\n 14574: a4 = u64 [a5 + 0x80]\n 14578: a1 = u64 [a5 + 0x78]\n 14581: a2 = u64 [a5 + 0x70]\n 14584: a0 = u64 [a5 + 0x68]\n 14587: t0 = 590, jump @1057\n      : @592 [@dyn 295] (gas: 1)\n 14593: jump @594 if a1 == 0\n      : @593 (gas: 1)\n 14596: jump @836\n      : @594 (gas: 11)\n 14599: a1 = u64 [s1 + 0x118]\n 14603: a1 = a1 << 0x20\n 14606: a1 = a1 >> 0x20\n 14609: u64 [a3 + 608] = 0\n 14613: u64 [a3 + 600] = 0\n 14617: u64 [a3 + 0x248] = a1\n 14621: a1 = s1 + 0x1ae0\n 14625: u64 [a3 + 592] = 0\n 14629: u64 [s1 + 0x118] = a0\n 14633: ra = 0x35e\n 14637: jump @4\n      : @595 (gas: 9)\n 14640: u64 [a2 + 444] = 0\n 14644: u64 [a2 + 436] = 0\n 14648: u64 [a2 + 428] = 0\n 14652: u64 [a2 + 420] = 0\n 14656: a0 = s1 + 0x2000\n 14660: i32 a0 = a0 + 0x240\n 14664: ra = 0x250\n 14668: ecalli 9 // 'value_transferred'\n 14670: fallthrough\n      : @596 [@dyn 296] (gas: 3)\n 14671: a3 = s1 + 0x209c\n 14675: a4 = a3 + 0x104\n 14679: t0 = 594, jump @1074\n      : @597 [@dyn 297] (gas: 1)\n 14685: jump @599 if a0 == 0\n      : @598 (gas: 1)\n 14688: jump @903\n      : @599 (gas: 3)\n 14691: a0 = u64 [s1 + 0x118]\n 14695: a0 = i32 [a0]\n 14697: jump @601 if a0 >u 3\n      : @600 (gas: 1)\n 14701: jump @904\n      : @601 (gas: 9)\n 14704: a0 = 0x30020\n 14709: u64 [s1 + 0x110] = a0\n 14713: i32 a0 = a0 + 0\n 14715: u64 [s1 + 0x108] = a0\n 14719: ra = 0x254\n 14723: ecalli 3 // 'caller'\n 14725: a2 = u64 [s1 + 0x110]\n 14729: t0 = 0x256\n 14733: jump @1053\n      : @602 [@dyn 298] (gas: 2)\n 14736: a2 = u64 [s1 + 0x110]\n 14740: t0 = 598, jump @1053\n      : @603 [@dyn 299] (gas: 7)\n 14746: u64 [s1 + 1592] = 0\n 14750: u64 [s1 + 0x630] = a1\n 14754: u64 [s1 + 0x628] = a0\n 14758: a1 = s1 + 0x620\n 14762: u64 [s1 + 0x620] = a3\n 14766: a0 = 0\n 14768: ra = 600, jump @4\n      : @604 [@dyn 300] (gas: 7)\n 14774: u64 [s1 + 1560] = 0\n 14778: u64 [s1 + 1552] = 0\n 14782: u64 [s1 + 1544] = 0\n 14786: a0 = 0x20\n 14789: a1 = s1 + 0x600\n 14793: u64 [s1 + 1536] = 0x1\n 14798: ra = 602, jump @4\n      : @605 [@dyn 301] (gas: 1)\n 14804: t0 = 604, jump @1064\n      : @606 [@dyn 302] (gas: 3)\n 14810: a1 = 0x20014\n 14815: a0 = i32 [0x20014]\n 14820: jump @608 if a0 >u 63\n      : @607 (gas: 2)\n 14824: u32 [0x20014] = 0x40\n 14830: fallthrough\n      : @608 (gas: 15)\n 14831: a0 = sp + 0xffffffffffffffe0\n 14834: a2 = a0 & 0xffffffffffffffe0\n 14837: u64 [s1 + 0xf0] = a2\n 14841: sp = a2\n 14843: a0 = 0x20020\n 14848: i32 a0 = a0 + 0\n 14850: i32 a2 = a2 + 0\n 14852: u64 [s1 + 0x100] = a1\n 14856: a1 = 0x40\n 14859: u64 [s1 + 0xf8] = a0\n 14863: ra = 0x25e\n 14867: ecalli 5 // 'hash_keccak_256'\n 14869: a3 = u64 [s1 + 0xf0]\n 14873: t0 = 0x260\n 14877: jump @1066\n      : @609 [@dyn 303] (gas: 2)\n 14880: a3 = u64 [s1 + 0xf0]\n 14884: t0 = 608, jump @1066\n      : @610 [@dyn 304] (gas: 2)\n 14890: a0 = s1 + 0x5e0\n 14894: ra = 610, jump @6\n      : @611 [@dyn 305] (gas: 7)\n 14900: a0 = u64 [s1 + 0x5e8]\n 14904: u64 [s1 + 0xd8] = a0\n 14908: a0 = u64 [s1 + 0x5e0]\n 14912: u64 [s1 + 0xd0] = a0\n 14916: a0 = s1 + 0x5c0\n 14920: a1 = u64 [s1 + 0x118]\n 14924: ra = 612, jump @6\n      : @612 [@dyn 306] (gas: 10)\n 14930: a0 = u64 [s1 + 0x5d8]\n 14934: a1 = u64 [s1 + 0x5d0]\n 14938: a2 = s1 + 0x209c\n 14942: u64 [a2 + 460] = 0\n 14946: u64 [a2 + 452] = 0\n 14950: u64 [a2 + 0x1dc] = a0\n 14954: u64 [a2 + 0x1d4] = a1\n 14958: a1 = s1 + 0x2260\n 14962: a0 = u64 [s1 + 0x118]\n 14966: ra = 614, jump @10\n      : @613 [@dyn 307] (gas: 6)\n 14972: a0 = u64 [s1 + 0x108]\n 14976: ra = 0x268\n 14980: ecalli 3 // 'caller'\n 14982: a2 = u64 [s1 + 0x110]\n 14986: t0 = 0x26a\n 14990: jump @1053\n      : @614 [@dyn 308] (gas: 2)\n 14993: a2 = u64 [s1 + 0x110]\n 14997: t0 = 618, jump @1053\n      : @615 [@dyn 309] (gas: 7)\n 15003: u64 [s1 + 1464] = 0\n 15007: u64 [s1 + 0x5b0] = a1\n 15011: u64 [s1 + 0x5a8] = a0\n 15015: a1 = s1 + 0x5a0\n 15019: u64 [s1 + 0x5a0] = a3\n 15023: a0 = 0\n 15025: ra = 620, jump @4\n      : @616 [@dyn 310] (gas: 7)\n 15031: u64 [s1 + 1432] = 0\n 15035: u64 [s1 + 1424] = 0\n 15039: u64 [s1 + 1408] = 0x1\n 15044: a0 = 0x20\n 15047: a1 = s1 + 0x580\n 15051: u64 [s1 + 1416] = 0\n 15055: ra = 622, jump @4\n      : @617 [@dyn 311] (gas: 3)\n 15061: a1 = u64 [s1 + 0x100]\n 15065: a0 = i32 [a1]\n 15067: jump @619 if a0 >u 63\n      : @618 (gas: 3)\n 15071: u32 [a1 + 0] = 0x40\n 15074: t0 = 0x270\n 15078: jump @1058\n      : @619 (gas: 1)\n 15081: t0 = 624, jump @1058\n      : @620 [@dyn 312] (gas: 19)\n 15087: a0 = u64 [s1 + 0xf8]\n 15091: ecalli 5 // 'hash_keccak_256'\n 15093: a1 = u64 [s1 + 0x118]\n 15097: a0 = u64 [a1 + 0x18]\n 15100: u64 [s1 + 0xc8] = a0\n 15104: a0 = u64 [a1 + 0x10]\n 15107: u64 [s1 + 0xc0] = a0\n 15111: a0 = u64 [a1 + 0x8]\n 15114: u64 [s1 + 0xb8] = a0\n 15118: a0 = u64 [a1]\n 15120: u64 [s1 + 0xb0] = a0\n 15124: a0 = s1 + 0x209c\n 15128: u64 [a0 + 508] = 0\n 15132: u64 [a0 + 500] = 0\n 15136: u64 [a0 + 492] = 0\n 15140: u64 [a0 + 484] = 0\n 15144: a0 = s1 + 0x560\n 15148: a1 = s1 + 0x2280\n 15152: ra = 626, jump @6\n      : @621 [@dyn 313] (gas: 8)\n 15158: a0 = u32 [s1 + 0x560]\n 15162: u64 [s1 + 1336] = 0\n 15166: u64 [s1 + 1328] = 0\n 15170: u64 [s1 + 0x520] = a0\n 15174: a0 = s1 + 0x540\n 15178: a1 = s1 + 0x520\n 15182: u64 [s1 + 1320] = 0\n 15186: ra = 628, jump @954\n      : @622 [@dyn 314] (gas: 11)\n 15192: a0 = u64 [s1 + 0x558]\n 15196: u64 [s1 + 0xf8] = a0\n 15200: a0 = u64 [s1 + 0x550]\n 15204: u64 [s1 + 0xf0] = a0\n 15208: a0 = u64 [s1 + 0x548]\n 15212: u64 [s1 + 0xe8] = a0\n 15216: a0 = u64 [s1 + 0x540]\n 15220: u64 [s1 + 0xe0] = a0\n 15224: a0 = s1 + 0x500\n 15228: a1 = 0x40\n 15231: ra = 630, jump @2\n      : @623 [@dyn 315] (gas: 16)\n 15237: a4 = s1 + 0x500\n 15241: a0 = u64 [a4 + 0x18]\n 15244: u64 [s1 + 0x100] = a0\n 15248: a1 = u64 [a4 + 0x10]\n 15251: u64 [s1 + 0x108] = a1\n 15255: a3 = u64 [a4 + 0x8]\n 15258: u64 [s1 + 0x110] = a3\n 15262: a2 = u64 [a4]\n 15264: u64 [s1 + 0x118] = a2\n 15268: a4 = s1 + 0x400\n 15272: u64 [a4 + 0xf8] = a0\n 15276: u64 [a4 + 0xf0] = a1\n 15280: u64 [a4 + 0xe8] = a3\n 15284: a0 = s1 + 0x4e0\n 15288: u64 [a4 + 0xe0] = a2\n 15292: ra = 632, jump @963\n      : @624 [@dyn 316] (gas: 7)\n 15298: a3 = s1 + 0x100\n 15302: a0 = u64 [a3]\n 15304: a1 = u64 [a3 + 0x10]\n 15307: a0 = a0 | a1\n 15310: a2 = u64 [a3 + 0x8]\n 15313: a1 = u64 [a3 + 0x18]\n 15316: t0 = 634, jump @1091\n      : @625 [@dyn 317] (gas: 1)\n 15322: jump @627 if a0 == 0\n      : @626 (gas: 1)\n 15325: jump @836\n      : @627 (gas: 12)\n 15328: a0 = u64 [s1 + 0xe0]\n 15332: a2 = s1 + 0x400\n 15336: u64 [a2 + 0xc0] = a0\n 15340: a0 = u64 [s1 + 0xe8]\n 15344: u64 [a2 + 0xc8] = a0\n 15348: a0 = u64 [s1 + 0xf0]\n 15352: u64 [a2 + 0xd0] = a0\n 15356: a1 = s1 + 0x4c0\n 15360: a0 = u64 [s1 + 0xf8]\n 15364: u64 [a2 + 0xd8] = a0\n 15368: a0 = u64 [s1 + 0x118]\n 15372: ra = 636, jump @4\n      : @628 [@dyn 318] (gas: 5)\n 15378: a3 = s1 + 0x100\n 15382: a0 = u64 [a3 + 0x8]\n 15385: a1 = u64 [a3]\n 15387: a0 = a0 | a1\n 15390: t0 = 638, jump @1081\n      : @629 [@dyn 319] (gas: 1)\n 15396: jump @631 if a1 != 0\n      : @630 (gas: 1)\n 15399: jump @836\n      : @631 (gas: 30)\n 15402: a0 = u64 [s1 + 0xb0]\n 15406: a0 = reverse a0\n 15408: a1 = u64 [s1 + 0xb8]\n 15412: a1 = reverse a1\n 15414: a2 = u64 [s1 + 0xc0]\n 15418: a2 = reverse a2\n 15420: a3 = u64 [s1 + 0xc8]\n 15424: a3 = reverse a3\n 15426: a4 = a3 + 0x4\n 15429: u64 [s1 + 0xf8] = a4\n 15433: a3 = a4 <u a3\n 15436: a4 = a2 + a3\n 15439: u64 [s1 + 0xf0] = a4\n 15443: a2 = a4 <u a2\n 15446: a2 = a3 if a3 == 0\n 15449: a2 = a2 + a1\n 15452: u64 [s1 + 0xe8] = a2\n 15456: a1 = a2 <u a1\n 15459: a0 = a0 + a1\n 15462: u64 [s1 + 0xe0] = a0\n 15466: a0 = u64 [s1 + 0x118]\n 15470: i32 a0 = a0 + 0x20\n 15473: u64 [s1 + 1208] = 0\n 15477: u64 [s1 + 1200] = 0\n 15481: a1 = u64 [s1 + 0xd0]\n 15485: u64 [s1 + 0x4a0] = a1\n 15489: a1 = s1 + 0x4a0\n 15493: a2 = u64 [s1 + 0xd8]\n 15497: u64 [s1 + 0x4a8] = a2\n 15501: ra = 640, jump @4\n      : @632 [@dyn 320] (gas: 20)\n 15507: a1 = s1 + 0x100\n 15511: a0 = u64 [a1]\n 15513: u64 [s1 + 0x478] = a0\n 15517: a0 = u64 [a1 + 0x8]\n 15520: u64 [s1 + 0x470] = a0\n 15524: a0 = u64 [a1 + 0x10]\n 15527: u64 [s1 + 0x468] = a0\n 15531: a0 = u64 [a1 + 0x18]\n 15534: u64 [s1 + 0x460] = a0\n 15538: a0 = u64 [s1 + 0xe0]\n 15542: u64 [s1 + 0x498] = a0\n 15546: a0 = u64 [s1 + 0xe8]\n 15550: u64 [s1 + 0x490] = a0\n 15554: a0 = u64 [s1 + 0xf0]\n 15558: u64 [s1 + 0x488] = a0\n 15562: a0 = s1 + 0x480\n 15566: a1 = s1 + 0x460\n 15570: a2 = u64 [s1 + 0xf8]\n 15574: u64 [s1 + 0x480] = a2\n 15578: ra = 642, jump @998\n      : @633 [@dyn 321] (gas: 3)\n 15584: a0 = s1 + 0x440\n 15588: a1 = 0x40\n 15591: ra = 644, jump @2\n      : @634 [@dyn 322] (gas: 13)\n 15597: a4 = s1 + 0x400\n 15601: a0 = u64 [a4 + 0x58]\n 15604: a1 = u64 [a4 + 0x50]\n 15607: a2 = u64 [a4 + 0x48]\n 15610: a3 = u64 [a4 + 0x40]\n 15613: a0 = a0 | a2\n 15616: a2 = a3 | a1\n 15619: a2 = a2 | a0\n 15622: a2 = a2 >> 0x20\n 15625: a0 = a0 | a1\n 15628: a0 = a0 << 0x20\n 15631: a0 = a0 | a2\n 15634: jump @636 if a0 == 0\n      : @635 (gas: 1)\n 15637: jump @836\n      : @636 (gas: 11)\n 15640: u64 [s1 + 1080] = 0\n 15644: u64 [s1 + 1072] = 0\n 15648: a0 = u64 [s1 + 0xd0]\n 15652: u64 [s1 + 0x420] = a0\n 15656: a1 = s1 + 0x420\n 15660: a0 = u64 [s1 + 0xd8]\n 15664: u64 [s1 + 0x428] = a0\n 15668: a0 = a3\n 15670: u64 [s1 + 0x118] = a3\n 15674: ra = 0x35e\n 15678: jump @4\n      : @637 (gas: 10)\n 15681: u64 [a2 + 700] = 0\n 15685: u64 [a2 + 692] = 0\n 15689: u64 [a2 + 684] = 0\n 15693: u64 [a2 + 676] = 0\n 15697: a0 = s1 + 0x2000\n 15701: i32 a0 = a0 + 0x340\n 15705: ra = 0x286\n 15709: ecalli 9 // 'value_transferred'\n 15711: t0 = 0x288\n 15715: jump @1093\n      : @638 [@dyn 323] (gas: 1)\n 15718: t0 = 648, jump @1093\n      : @639 [@dyn 324] (gas: 1)\n 15724: t0 = 650, jump @1074\n      : @640 [@dyn 325] (gas: 1)\n 15730: jump @642 if a0 == 0\n      : @641 (gas: 1)\n 15733: jump @905\n      : @642 (gas: 3)\n 15736: a0 = u64 [s1 + 0x118]\n 15740: a0 = i32 [a0]\n 15742: jump @644 if a0 >u 3\n      : @643 (gas: 1)\n 15746: jump @906\n      : @644 (gas: 9)\n 15749: a0 = 0x30020\n 15754: u64 [s1 + 0xd0] = a0\n 15758: i32 a0 = a0 + 0\n 15760: u64 [s1 + 0xb8] = a0\n 15764: ra = 0x28c\n 15768: ecalli 3 // 'caller'\n 15770: a2 = u64 [s1 + 0xd0]\n 15774: t0 = 0x28e\n 15778: jump @1051\n      : @645 [@dyn 326] (gas: 2)\n 15781: a2 = u64 [s1 + 0xd0]\n 15785: t0 = 654, jump @1051\n      : @646 [@dyn 327] (gas: 9)\n 15791: u64 [a2 + 736] = 0\n 15795: a4 = a2 + 0x200\n 15799: u64 [a4 + 0xd8] = a1\n 15803: u64 [a4 + 0xd0] = a0\n 15807: a1 = s1 + 0x7ff\n 15811: a1 = a1 + 0x361\n 15815: u64 [a4 + 0xc8] = a3\n 15819: a0 = 0\n 15821: ra = 656, jump @4\n      : @647 [@dyn 328] (gas: 11)\n 15827: a0 = s1 + 0x7ff\n 15831: a0 = a0 + 0x99\n 15835: u64 [a0 + 704] = 0\n 15839: u64 [a0 + 696] = 0\n 15843: u64 [a0 + 688] = 0\n 15847: a3 = a0\n 15849: a0 = 0x20\n 15852: a1 = s1 + 0x7ff\n 15856: a1 = a1 + 0x341\n 15860: u64 [a3 + 680] = 0x1\n 15865: ra = 658, jump @4\n      : @648 [@dyn 329] (gas: 1)\n 15871: t0 = 660, jump @1064\n      : @649 [@dyn 330] (gas: 3)\n 15877: a1 = 0x20014\n 15882: a0 = i32 [0x20014]\n 15887: jump @651 if a0 >u 63\n      : @650 (gas: 3)\n 15891: u32 [0x20014] = 0x40\n 15897: t0 = 0x296\n 15901: jump @1086\n      : @651 (gas: 1)\n 15904: t0 = 662, jump @1086\n      : @652 [@dyn 331] (gas: 11)\n 15910: a0 = 0x20020\n 15915: i32 a0 = a0 + 0\n 15917: u64 [s1 + 0xc8] = a1\n 15921: i32 a2 = a2 + 0\n 15923: a1 = 0x40\n 15926: u64 [s1 + 0xc0] = a0\n 15930: ra = 0x298\n 15934: ecalli 5 // 'hash_keccak_256'\n 15936: a3 = u64 [s1 + 0x110]\n 15940: t0 = 0x29a\n 15944: jump @1059\n      : @653 [@dyn 332] (gas: 2)\n 15947: a3 = u64 [s1 + 0x110]\n 15951: t0 = 666, jump @1059\n      : @654 [@dyn 333] (gas: 3)\n 15957: a0 = s1 + 0x7ff\n 15961: a0 = a0 + 0x321\n 15965: ra = 668, jump @6\n      : @655 [@dyn 334] (gas: 17)\n 15971: a3 = s1 + 0x7ff\n 15975: a3 = a3 + 0x99\n 15979: a4 = a3 + 0x200\n 15983: a0 = u64 [a4 + 0x88]\n 15987: a1 = u64 [a4 + 0xa0]\n 15991: a2 = u64 [a4 + 0x98]\n 15995: a3 = u64 [a4 + 0x90]\n 15999: a0 = a0 & 0xffffffffffffff00\n 16003: a4 = s1 + 0x209c\n 16007: a5 = a4 + 0x204\n 16011: u64 [a5 + 0xd8] = a1\n 16015: u64 [a5 + 0xd0] = a2\n 16019: u64 [a5 + 0xc8] = a3\n 16023: u64 [a5 + 0xc0] = a0\n 16027: a1 = s1 + 0x2360\n 16031: a0 = u64 [s1 + 0x118]\n 16035: ra = 670, jump @10\n      : @656 [@dyn 335] (gas: 6)\n 16041: a0 = u64 [s1 + 0xb8]\n 16045: ra = 0x2a0\n 16049: ecalli 3 // 'caller'\n 16051: a2 = u64 [s1 + 0xd0]\n 16055: t0 = 0x2a2\n 16059: jump @1051\n      : @657 [@dyn 336] (gas: 2)\n 16062: a2 = u64 [s1 + 0xd0]\n 16066: t0 = 674, jump @1051\n      : @658 [@dyn 337] (gas: 9)\n 16072: u64 [a2 + 640] = 0\n 16076: a4 = a2 + 0x200\n 16080: u64 [a4 + 0x78] = a1\n 16083: u64 [a4 + 0x70] = a0\n 16086: a1 = s1 + 0x7ff\n 16090: a1 = a1 + 0x301\n 16094: u64 [a4 + 0x68] = a3\n 16097: a0 = 0\n 16099: ra = 676, jump @4\n      : @659 [@dyn 338] (gas: 11)\n 16105: a1 = s1 + 0x7ff\n 16109: a1 = a1 + 0x99\n 16113: u64 [a1 + 608] = 0\n 16117: u64 [a1 + 600] = 0\n 16121: u64 [a1 + 584] = 0x1\n 16126: a2 = a1\n 16128: a0 = 0x20\n 16131: a1 = s1 + 0x7ff\n 16135: a1 = a1 + 0x2e1\n 16139: u64 [a2 + 592] = 0\n 16143: ra = 678, jump @4\n      : @660 [@dyn 339] (gas: 7)\n 16149: a1 = u64 [s1 + 0xc8]\n 16153: a0 = sp + 0xffffffffffffffe0\n 16156: a0 = a0 & 0xffffffffffffffe0\n 16159: u64 [s1 + 0x118] = a0\n 16163: sp = a0\n 16165: a0 = i32 [a1]\n 16167: jump @662 if a0 >u 63\n      : @661 (gas: 3)\n 16171: u32 [a1 + 0] = 0x40\n 16174: t0 = 0x2a8\n 16178: jump @1079\n      : @662 (gas: 1)\n 16181: t0 = 680, jump @1079\n      : @663 [@dyn 340] (gas: 5)\n 16187: ra = 0x2aa\n 16191: ecalli 5 // 'hash_keccak_256'\n 16193: a3 = u64 [s1 + 0x110]\n 16197: t0 = 0x2ac\n 16201: jump @1055\n      : @664 [@dyn 341] (gas: 2)\n 16204: a3 = u64 [s1 + 0x110]\n 16208: t0 = 684, jump @1055\n      : @665 [@dyn 342] (gas: 12)\n 16214: a1 = u64 [s1 + 0x118]\n 16218: u64 [s1 + 0xf0] = a4\n 16222: u64 [a1] = a4\n 16224: u64 [s1 + 0xe0] = a5\n 16228: u64 [a1 + 0x8] = a5\n 16231: u64 [s1 + 0xd8] = a2\n 16235: u64 [a1 + 0x10] = a2\n 16238: u64 [s1 + 0xe8] = a0\n 16242: u64 [a1 + 0x18] = a0\n 16245: a0 = s1 + 0x7ff\n 16249: a0 = a0 + 0x2c1\n 16253: ra = 686, jump @6\n      : @666 [@dyn 343] (gas: 19)\n 16259: a0 = s1 + 0x7ff\n 16263: a0 = a0 + 0x99\n 16267: a2 = a0 + 0x200\n 16271: a1 = u64 [a2 + 0x40]\n 16274: u64 [s1 + 0x110] = a1\n 16278: a1 = u64 [a2 + 0x38]\n 16281: u64 [s1 + 0x108] = a1\n 16285: a1 = u64 [a2 + 0x30]\n 16288: u64 [s1 + 0xf8] = a1\n 16292: a0 = u64 [a2 + 0x28]\n 16295: u64 [s1 + 0x100] = a0\n 16299: a0 = s1 + 0x209c\n 16303: u64 [a0 + 764] = 0\n 16307: u64 [a0 + 756] = 0\n 16311: u64 [a0 + 748] = 0\n 16315: u64 [a0 + 740] = 0\n 16319: a1 = s1 + 0x2380\n 16323: a0 = u64 [s1 + 0x118]\n 16327: ra = 688, jump @10\n      : @667 [@dyn 344] (gas: 9)\n 16333: a3 = s1 + 0x100\n 16337: a0 = u64 [a3 + 0x10]\n 16340: a1 = u64 [s1 + 0xf8]\n 16344: a0 = a0 | a1\n 16347: a1 = u64 [a3 + 0x8]\n 16350: a2 = u64 [a3]\n 16352: a1 = a1 | a2\n 16355: a0 = a0 | a1\n 16358: jump @776 if a0 != 0\n      : @668 (gas: 6)\n 16362: a0 = u64 [s1 + 0xb8]\n 16366: ra = 0x2b2\n 16370: ecalli 3 // 'caller'\n 16372: a2 = u64 [s1 + 0xd0]\n 16376: t0 = 0x2b4\n 16380: jump @1051\n      : @669 [@dyn 345] (gas: 2)\n 16383: a2 = u64 [s1 + 0xd0]\n 16387: t0 = 692, jump @1051\n      : @670 [@dyn 346] (gas: 9)\n 16393: u64 [a2 + 512] = 0\n 16397: a4 = a2 + 0x100\n 16401: u64 [a4 + 0xf8] = a1\n 16405: u64 [a4 + 0xf0] = a0\n 16409: a1 = s1 + 0x7ff\n 16413: a1 = a1 + 0x281\n 16417: u64 [a4 + 0xe8] = a3\n 16421: a0 = 0\n 16423: ra = 694, jump @4\n      : @671 [@dyn 347] (gas: 11)\n 16429: a0 = s1 + 0x7ff\n 16433: a0 = a0 + 0x99\n 16437: u64 [a0 + 480] = 0\n 16441: u64 [a0 + 472] = 0\n 16445: u64 [a0 + 464] = 0\n 16449: a3 = a0\n 16451: a0 = 0x20\n 16454: a1 = s1 + 0x7ff\n 16458: a1 = a1 + 0x261\n 16462: u64 [a3 + 456] = 0x1\n 16467: ra = 696, jump @4\n      : @672 [@dyn 348] (gas: 1)\n 16473: t0 = 698, jump @1064\n      : @673 [@dyn 349] (gas: 3)\n 16479: a1 = u64 [s1 + 0xc8]\n 16483: a0 = i32 [a1]\n 16485: jump @675 if a0 >u 63\n      : @674 (gas: 3)\n 16489: u32 [a1 + 0] = 0x40\n 16492: t0 = 0x2bc\n 16496: jump @1079\n      : @675 (gas: 1)\n 16499: t0 = 700, jump @1079\n      : @676 [@dyn 350] (gas: 5)\n 16505: ra = 0x2be\n 16509: ecalli 5 // 'hash_keccak_256'\n 16511: a3 = u64 [s1 + 0x110]\n 16515: t0 = 0x2c0\n 16519: jump @1054\n      : @677 [@dyn 351] (gas: 2)\n 16522: a3 = u64 [s1 + 0x110]\n 16526: t0 = 704, jump @1054\n      : @678 [@dyn 352] (gas: 8)\n 16532: a1 = u64 [s1 + 0x118]\n 16536: u64 [a1] = a4\n 16538: u64 [a1 + 0x8] = a5\n 16541: u64 [a1 + 0x10] = a2\n 16544: u64 [a1 + 0x18] = a0\n 16547: a0 = s1 + 0x7ff\n 16551: a0 = a0 + 0x241\n 16555: ra = 706, jump @6\n      : @679 [@dyn 353] (gas: 17)\n 16561: a3 = s1 + 0x7ff\n 16565: a3 = a3 + 0x99\n 16569: a0 = u32 [a3 + 0x1ac]\n 16573: a4 = a3 + 0x100\n 16577: a1 = u64 [a4 + 0xc0]\n 16581: a2 = u64 [a4 + 0xb8]\n 16585: a3 = u64 [a4 + 0xb0]\n 16589: a0 = a0 << 0x20\n 16592: a4 = s1 + 0x209c\n 16596: a5 = a4 + 0x304\n 16600: u64 [a5 + 0x38] = a1\n 16603: u64 [a5 + 0x30] = a2\n 16606: u64 [a5 + 0x28] = a3\n 16609: u64 [a5 + 0x20] = a0\n 16612: a1 = s1 + 0x23c0\n 16616: a0 = u64 [s1 + 0x118]\n 16620: ra = 708, jump @10\n      : @680 [@dyn 354] (gas: 6)\n 16626: a0 = u64 [s1 + 0xb8]\n 16630: ra = 0x2c6\n 16634: ecalli 3 // 'caller'\n 16636: a2 = u64 [s1 + 0xd0]\n 16640: t0 = 0x2c8\n 16644: jump @1051\n      : @681 [@dyn 355] (gas: 2)\n 16647: a2 = u64 [s1 + 0xd0]\n 16651: t0 = 712, jump @1051\n      : @682 [@dyn 356] (gas: 9)\n 16657: u64 [a2 + 416] = 0\n 16661: a4 = a2 + 0x100\n 16665: u64 [a4 + 0x98] = a1\n 16669: u64 [a4 + 0x90] = a0\n 16673: a1 = s1 + 0x7ff\n 16677: a1 = a1 + 0x221\n 16681: u64 [a4 + 0x88] = a3\n 16685: a0 = 0\n 16687: ra = 714, jump @4\n      : @683 [@dyn 357] (gas: 11)\n 16693: a1 = s1 + 0x7ff\n 16697: a1 = a1 + 0x99\n 16701: u64 [a1 + 384] = 0\n 16705: u64 [a1 + 376] = 0\n 16709: u64 [a1 + 360] = 0x1\n 16714: a2 = a1\n 16716: a0 = 0x20\n 16719: a1 = s1 + 0x7ff\n 16723: a1 = a1 + 0x201\n 16727: u64 [a2 + 368] = 0\n 16731: ra = 716, jump @4\n      : @684 [@dyn 358] (gas: 3)\n 16737: a1 = u64 [s1 + 0xc8]\n 16741: a0 = i32 [a1]\n 16743: jump @686 if a0 >u 63\n      : @685 (gas: 3)\n 16747: u32 [a1 + 0] = 0x40\n 16750: t0 = 0x2ce\n 16754: jump @1058\n      : @686 (gas: 1)\n 16757: t0 = 718, jump @1058\n      : @687 [@dyn 359] (gas: 5)\n 16763: a0 = u64 [s1 + 0xc0]\n 16767: ra = 0x2d0\n 16771: ecalli 5 // 'hash_keccak_256'\n 16773: t0 = 0x2d2\n 16777: jump @1056\n      : @688 [@dyn 360] (gas: 1)\n 16780: t0 = 722, jump @1056\n      : @689 [@dyn 361] (gas: 9)\n 16786: a5 = a4 + 0x304\n 16790: u64 [a5 + 0x58] = a3\n 16793: u64 [a5 + 0x50] = a2\n 16796: u64 [a5 + 0x48] = a1\n 16799: u64 [a5 + 0x40] = a0\n 16802: a0 = s1 + 0x7ff\n 16806: a0 = a0 + 0x1e1\n 16810: a1 = s1 + 0x23e0\n 16814: ra = 724, jump @6\n      : @690 [@dyn 362] (gas: 10)\n 16820: a1 = s1 + 0x7ff\n 16824: a1 = a1 + 0x99\n 16828: a0 = u64 [a1 + 0x150]\n 16832: u64 [s1 + 0x118] = a0\n 16836: a0 = u64 [a1 + 0x148]\n 16840: u64 [s1 + 0x110] = a0\n 16844: a0 = s1 + 0x7ff\n 16848: a0 = a0 + 0x1c1\n 16852: a1 = 0x40\n 16855: ra = 726, jump @2\n      : @691 [@dyn 363] (gas: 8)\n 16861: a3 = s1 + 0x7ff\n 16865: a3 = a3 + 0x99\n 16869: a5 = a3 + 0x100\n 16873: a4 = u64 [a5 + 0x40]\n 16876: a1 = u64 [a5 + 0x38]\n 16879: a2 = u64 [a5 + 0x30]\n 16882: a0 = u64 [a5 + 0x28]\n 16885: t0 = 728, jump @1057\n      : @692 [@dyn 364] (gas: 1)\n 16891: jump @694 if a1 == 0\n      : @693 (gas: 1)\n 16894: jump @836\n      : @694 (gas: 1)\n 16897: t0 = 730, jump @1084\n      : @695 [@dyn 365] (gas: 9)\n 16903: u64 [a3 + 288] = 0\n 16907: u64 [a3 + 280] = 0\n 16911: u64 [a3 + 0x108] = a1\n 16915: a1 = s1 + 0x7ff\n 16919: a1 = a1 + 0x1a1\n 16923: u64 [a3 + 272] = 0\n 16927: u64 [s1 + 0x118] = a0\n 16931: ra = 0x35e\n 16935: jump @4\n      : @696 (gas: 10)\n 16938: u64 [a2 + 1276] = 0\n 16942: u64 [a2 + 1268] = 0\n 16946: u64 [a2 + 1260] = 0\n 16950: u64 [a2 + 1252] = 0\n 16954: a0 = s1 + 0x2000\n 16958: i32 a0 = a0 + 0x580\n 16962: ra = 0x2dc\n 16966: ecalli 9 // 'value_transferred'\n 16968: t0 = 0x2de\n 16972: jump @1073\n      : @697 [@dyn 366] (gas: 1)\n 16975: t0 = 734, jump @1073\n      : @698 [@dyn 367] (gas: 1)\n 16981: t0 = 736, jump @1089\n      : @699 [@dyn 368] (gas: 1)\n 16987: jump @701 if a0 == 0\n      : @700 (gas: 1)\n 16990: jump @907\n      : @701 (gas: 3)\n 16993: a0 = u64 [s1 + 0x118]\n 16997: a0 = i32 [a0]\n 16999: jump @703 if a0 >u 35\n      : @702 (gas: 1)\n 17003: jump @908\n      : @703 (gas: 5)\n 17006: a0 = s1 + 0x2000\n 17010: i32 a0 = a0 + 0x5a0\n 17014: a1 = 0x4\n 17017: ecalli 1 // 'call_data_load'\n 17019: fallthrough\n      : @704 (gas: 18)\n 17020: a0 = s1 + 0x209c\n 17024: a5 = a0 + 0x504\n 17028: a1 = u64 [a5 + 0x18]\n 17031: a2 = u64 [a5 + 0x10]\n 17034: a3 = u64 [a5 + 0x8]\n 17037: a4 = u64 [a5]\n 17039: u64 [s1 + 0xf0] = a1\n 17043: u64 [s1 + 0xe0] = a3\n 17047: a0 = a3 | a1\n 17050: u64 [s1 + 0xd8] = a4\n 17054: a1 = a4 | a2\n 17057: a1 = a1 | a0\n 17060: a1 = a1 >> 0x20\n 17063: u64 [s1 + 0xe8] = a2\n 17067: a0 = a0 | a2\n 17070: a0 = a0 << 0x20\n 17073: a0 = a0 | a1\n 17076: jump @706 if a0 == 0\n      : @705 (gas: 1)\n 17079: jump @909\n      : @706 (gas: 9)\n 17082: a0 = 0x30020\n 17087: u64 [s1 + 0x118] = a0\n 17091: i32 a0 = a0 + 0\n 17093: u64 [s1 + 0x110] = a0\n 17097: ra = 0x2e2\n 17101: ecalli 3 // 'caller'\n 17103: a2 = u64 [s1 + 0x118]\n 17107: t0 = 0x2e4\n 17111: jump @1052\n      : @707 [@dyn 369] (gas: 2)\n 17114: a2 = u64 [s1 + 0x118]\n 17118: t0 = 740, jump @1052\n      : @708 [@dyn 370] (gas: 8)\n 17124: u64 [a2 + 1888] = 0\n 17128: a4 = a2 + 0x700\n 17132: u64 [a4 + 0x58] = a1\n 17135: u64 [a4 + 0x50] = a0\n 17138: a1 = s1 + 0x17e0\n 17142: u64 [a4 + 0x48] = a3\n 17145: a0 = 0\n 17147: ra = 742, jump @4\n      : @709 [@dyn 371] (gas: 9)\n 17153: a0 = s1 + 0x1098\n 17157: u64 [a0 + 1856] = 0\n 17161: u64 [a0 + 1848] = 0\n 17165: u64 [a0 + 1840] = 0\n 17169: a3 = a0\n 17171: a0 = 0x20\n 17174: a1 = s1 + 0x17c0\n 17178: u64 [a3 + 1832] = 0x1\n 17183: ra = 744, jump @4\n      : @710 [@dyn 372] (gas: 7)\n 17189: a0 = sp + 0xffffffffffffffe0\n 17192: a0 = a0 & 0xffffffffffffffe0\n 17195: u64 [s1 + 0xf8] = a0\n 17199: sp = a0\n 17201: a1 = 0x20014\n 17206: a0 = i32 [0x20014]\n 17211: jump @712 if a0 >u 63\n      : @711 (gas: 2)\n 17215: u32 [0x20014] = 0x40\n 17221: fallthrough\n      : @712 (gas: 14)\n 17222: a0 = sp + 0xffffffffffffffe0\n 17225: a2 = a0 & 0xffffffffffffffe0\n 17228: u64 [s1 + 0xd0] = a2\n 17232: sp = a2\n 17234: a0 = 0x20020\n 17239: i32 a0 = a0 + 0\n 17241: i32 a2 = a2 + 0\n 17243: u64 [s1 + 0x108] = a1\n 17247: a1 = 0x40\n 17250: u64 [s1 + 0x100] = a0\n 17254: ra = 0x2ea\n 17258: ecalli 5 // 'hash_keccak_256'\n 17260: t0 = 0x2ec\n 17264: jump @1062\n      : @713 [@dyn 373] (gas: 1)\n 17267: t0 = 748, jump @1062\n      : @714 [@dyn 374] (gas: 7)\n 17273: a1 = u64 [s1 + 0xf8]\n 17277: u64 [a1] = a3\n 17279: u64 [a1 + 0x8] = a2\n 17282: u64 [a1 + 0x10] = a4\n 17285: u64 [a1 + 0x18] = a0\n 17288: a0 = s1 + 0x17a0\n 17292: ra = 750, jump @6\n      : @715 [@dyn 375] (gas: 17)\n 17298: a3 = s1 + 0x1098\n 17302: a4 = a3 + 0x700\n 17306: a0 = u64 [a4 + 0x8]\n 17309: a1 = u64 [a4 + 0x10]\n 17312: a2 = u64 [a4 + 0x20]\n 17315: a3 = u64 [a4 + 0x18]\n 17318: a0 = a0 & 0xffffffffffffff00\n 17322: a0 = a0 | 0x1\n 17325: a4 = s1 + 0x209c\n 17329: a5 = a4 + 0x504\n 17333: u64 [a5 + 0x38] = a2\n 17336: u64 [a5 + 0x30] = a3\n 17339: u64 [a5 + 0x28] = a1\n 17342: u64 [a5 + 0x20] = a0\n 17345: a1 = s1 + 0x25c0\n 17349: a0 = u64 [s1 + 0xf8]\n 17353: ra = 752, jump @10\n      : @716 [@dyn 376] (gas: 6)\n 17359: a0 = u64 [s1 + 0x110]\n 17363: ra = 0x2f2\n 17367: ecalli 3 // 'caller'\n 17369: a2 = u64 [s1 + 0x118]\n 17373: t0 = 0x2f4\n 17377: jump @1052\n      : @717 [@dyn 377] (gas: 2)\n 17380: a2 = u64 [s1 + 0x118]\n 17384: t0 = 756, jump @1052\n      : @718 [@dyn 378] (gas: 8)\n 17390: u64 [a2 + 1792] = 0\n 17394: a4 = a2 + 0x600\n 17398: u64 [a4 + 0xf8] = a1\n 17402: u64 [a4 + 0xf0] = a0\n 17406: a1 = s1 + 0x1780\n 17410: u64 [a4 + 0xe8] = a3\n 17414: a0 = 0\n 17416: ra = 758, jump @4\n      : @719 [@dyn 379] (gas: 3)\n 17422: t0 = 0x2f8\n 17426: a1 = s1 + 0x1098\n 17430: fallthrough\n      : @720 [@dyn 380] (gas: 8)\n 17431: u64 [a1 + 1760] = 0\n 17435: u64 [a1 + 1752] = 0\n 17439: u64 [a1 + 1736] = 0x1\n 17444: a2 = a1\n 17446: a0 = 0x20\n 17449: a1 = s1 + 0x1760\n 17453: u64 [a2 + 1744] = 0\n 17457: ra = 762, jump @4\n      : @721 [@dyn 381] (gas: 7)\n 17463: a1 = u64 [s1 + 0x108]\n 17467: a0 = sp + 0xffffffffffffffe0\n 17470: a0 = a0 & 0xffffffffffffffe0\n 17473: u64 [s1 + 0xf8] = a0\n 17477: sp = a0\n 17479: a0 = i32 [a1]\n 17481: jump @723 if a0 >u 63\n      : @722 (gas: 2)\n 17485: u32 [a1 + 0] = 0x40\n 17488: fallthrough\n      : @723 (gas: 12)\n 17489: a0 = sp + 0xffffffffffffffe0\n 17492: a0 = a0 & 0xffffffffffffffe0\n 17495: u64 [s1 + 0xd0] = a0\n 17499: sp = a0\n 17501: i32 a2 = a0 + 0\n 17503: a1 = 0x40\n 17506: a0 = u64 [s1 + 0x100]\n 17510: ra = 0x2fc\n 17514: ecalli 5 // 'hash_keccak_256'\n 17516: a3 = u64 [s1 + 0xd0]\n 17520: t0 = 0x2fe\n 17524: jump @1054\n      : @724 [@dyn 382] (gas: 2)\n 17527: a3 = u64 [s1 + 0xd0]\n 17531: t0 = 766, jump @1054\n      : @725 [@dyn 383] (gas: 7)\n 17537: a1 = u64 [s1 + 0xf8]\n 17541: u64 [a1] = a4\n 17543: u64 [a1 + 0x8] = a5\n 17546: u64 [a1 + 0x10] = a2\n 17549: u64 [a1 + 0x18] = a0\n 17552: a0 = s1 + 0x1740\n 17556: ra = 768, jump @6\n      : @726 [@dyn 384] (gas: 24)\n 17562: a3 = s1 + 0x1098\n 17566: a0 = u32 [a3 + 0x6ac]\n 17570: a0 = a0 << 0x20\n 17573: a4 = a3 + 0x600\n 17577: a1 = u64 [a4 + 0xb0]\n 17581: a2 = u64 [a4 + 0xb8]\n 17585: a3 = u64 [a4 + 0xc0]\n 17589: a4 = u64 [s1 + 0xd8]\n 17593: a0 = a0 | a4\n 17596: a4 = u64 [s1 + 0xe0]\n 17600: a1 = a1 | a4\n 17603: a4 = u64 [s1 + 0xe8]\n 17607: a2 = a2 | a4\n 17610: a4 = u64 [s1 + 0xf0]\n 17614: a3 = a3 | a4\n 17617: a4 = s1 + 0x209c\n 17621: a5 = a4 + 0x504\n 17625: u64 [a5 + 0x58] = a3\n 17628: u64 [a5 + 0x50] = a2\n 17631: u64 [a5 + 0x48] = a1\n 17634: u64 [a5 + 0x40] = a0\n 17637: a1 = s1 + 0x25e0\n 17641: a0 = u64 [s1 + 0xf8]\n 17645: ra = 770, jump @10\n      : @727 [@dyn 385] (gas: 6)\n 17651: a0 = u64 [s1 + 0x110]\n 17655: ra = 0x304\n 17659: ecalli 3 // 'caller'\n 17661: a2 = u64 [s1 + 0x118]\n 17665: t0 = 0x306\n 17669: jump @1052\n      : @728 [@dyn 386] (gas: 2)\n 17672: a2 = u64 [s1 + 0x118]\n 17676: t0 = 774, jump @1052\n      : @729 [@dyn 387] (gas: 8)\n 17682: u64 [a2 + 1696] = 0\n 17686: a4 = a2 + 0x600\n 17690: u64 [a4 + 0x98] = a1\n 17694: u64 [a4 + 0x90] = a0\n 17698: a1 = s1 + 0x1720\n 17702: u64 [a4 + 0x88] = a3\n 17706: a0 = 0\n 17708: ra = 776, jump @4\n      : @730 [@dyn 388] (gas: 2)\n 17714: a1 = s1 + 0x1098\n 17718: t0 = 778, jump @1088\n      : @731 [@dyn 389] (gas: 3)\n 17724: a1 = s1 + 0x1700\n 17728: u64 [a2 + 1648] = 0\n 17732: ra = 780, jump @4\n      : @732 [@dyn 390] (gas: 3)\n 17738: a1 = u64 [s1 + 0x108]\n 17742: a0 = i32 [a1]\n 17744: jump @734 if a0 >=u 64\n      : @733 (gas: 3)\n 17748: u32 [a1 + 0] = 0x40\n 17751: t0 = 0x30e\n 17755: jump @1058\n      : @734 (gas: 1)\n 17758: t0 = 782, jump @1058\n      : @735 [@dyn 391] (gas: 5)\n 17764: a0 = u64 [s1 + 0x100]\n 17768: ra = 0x310\n 17772: ecalli 5 // 'hash_keccak_256'\n 17774: t0 = 0x312\n 17778: jump @1056\n      : @736 [@dyn 392] (gas: 1)\n 17781: t0 = 786, jump @1056\n      : @737 [@dyn 393] (gas: 8)\n 17787: a5 = a4 + 0x504\n 17791: u64 [a5 + 0x78] = a3\n 17794: u64 [a5 + 0x70] = a2\n 17797: u64 [a5 + 0x68] = a1\n 17800: u64 [a5 + 0x60] = a0\n 17803: a0 = s1 + 0x16e0\n 17807: a1 = s1 + 0x2600\n 17811: ra = 788, jump @6\n      : @738 [@dyn 394] (gas: 3)\n 17817: t0 = 0x316\n 17821: a1 = s1 + 0x1098\n 17825: fallthrough\n      : @739 [@dyn 395] (gas: 7)\n 17826: a0 = u64 [a1 + 0x650]\n 17830: u64 [s1 + 0x118] = a0\n 17834: a0 = u64 [a1 + 0x648]\n 17838: u64 [s1 + 0x110] = a0\n 17842: a0 = s1 + 0x16c0\n 17846: a1 = 0x40\n 17849: ra = 792, jump @2\n      : @740 [@dyn 396] (gas: 7)\n 17855: a3 = s1 + 0x1098\n 17859: a5 = a3 + 0x600\n 17863: a4 = u64 [a5 + 0x40]\n 17866: a1 = u64 [a5 + 0x38]\n 17869: a2 = u64 [a5 + 0x30]\n 17872: a0 = u64 [a5 + 0x28]\n 17875: t0 = 794, jump @1057\n      : @741 [@dyn 397] (gas: 1)\n 17881: jump @836 if a1 != 0\n      : @742 (gas: 1)\n 17885: t0 = 796, jump @1084\n      : @743 [@dyn 398] (gas: 8)\n 17891: u64 [a3 + 1568] = 0\n 17895: u64 [a3 + 1560] = 0\n 17899: u64 [a3 + 0x608] = a1\n 17903: a1 = s1 + 0x16a0\n 17907: u64 [a3 + 1552] = 0\n 17911: u64 [s1 + 0x118] = a0\n 17915: ra = 0x35e\n 17919: jump @4\n      : @744 (gas: 10)\n 17922: u64 [a2 + 1532] = 0\n 17926: u64 [a2 + 1524] = 0\n 17930: u64 [a2 + 1516] = 0\n 17934: u64 [a2 + 1508] = 0\n 17938: a0 = s1 + 0x2000\n 17942: i32 a0 = a0 + 0x680\n 17946: ra = 0x31e\n 17950: ecalli 9 // 'value_transferred'\n 17952: t0 = 0x320\n 17956: jump @1092\n      : @745 [@dyn 399] (gas: 1)\n 17959: t0 = 800, jump @1092\n      : @746 [@dyn 400] (gas: 1)\n 17965: t0 = 802, jump @1089\n      : @747 [@dyn 401] (gas: 1)\n 17971: jump @749 if a0 == 0\n      : @748 (gas: 1)\n 17974: jump @910\n      : @749 (gas: 3)\n 17977: a0 = u64 [s1 + 0x118]\n 17981: a0 = i32 [a0]\n 17983: jump @751 if a0 >u 3\n      : @750 (gas: 1)\n 17987: jump @911\n      : @751 (gas: 8)\n 17990: a0 = 0x30020\n 17995: u64 [s1 + 0x118] = a0\n 17999: i32 a0 = a0 + 0\n 18001: ra = 0x324\n 18005: ecalli 3 // 'caller'\n 18007: a2 = u64 [s1 + 0x118]\n 18011: t0 = 0x326\n 18015: jump @1050\n      : @752 [@dyn 402] (gas: 2)\n 18018: a2 = u64 [s1 + 0x118]\n 18022: t0 = 806, jump @1050\n      : @753 [@dyn 403] (gas: 8)\n 18028: u64 [a2 + 576] = 0\n 18032: a4 = a2 + 0x200\n 18036: u64 [a4 + 0x38] = a1\n 18039: u64 [a4 + 0x30] = a0\n 18042: a1 = s1 + 0x1ac0\n 18046: u64 [a4 + 0x28] = a3\n 18049: a0 = 0\n 18051: ra = 808, jump @4\n      : @754 [@dyn 404] (gas: 3)\n 18057: t0 = 0x32a\n 18061: a1 = s1 + 0x1898\n 18065: fallthrough\n      : @755 [@dyn 405] (gas: 8)\n 18066: u64 [a1 + 544] = 0\n 18070: u64 [a1 + 536] = 0\n 18074: u64 [a1 + 520] = 0x1\n 18079: a2 = a1\n 18081: a0 = 0x20\n 18084: a1 = s1 + 0x1aa0\n 18088: u64 [a2 + 528] = 0\n 18092: ra = 812, jump @4\n      : @756 [@dyn 406] (gas: 1)\n 18098: t0 = 814, jump @1064\n      : @757 [@dyn 407] (gas: 4)\n 18104: a2 = 0x20014\n 18109: a0 = i32 [0x20014]\n 18114: a1 = 0x3f\n 18117: jump @759 if a1 <u a0\n      : @758 (gas: 4)\n 18120: u32 [0x20014] = 0x40\n 18126: u64 [s1 + 0x108] = a2\n 18130: t0 = 0x330\n 18134: jump @1086\n      : @759 (gas: 2)\n 18137: u64 [s1 + 0x108] = a2\n 18141: t0 = 816, jump @1086\n      : @760 [@dyn 408] (gas: 10)\n 18147: a0 = 0x20020\n 18152: i32 a0 = a0 + 0\n 18154: i32 a2 = a2 + 0\n 18156: a1 = 0x40\n 18159: u64 [s1 + 0x100] = a0\n 18163: ra = 0x332\n 18167: ecalli 5 // 'hash_keccak_256'\n 18169: a3 = u64 [s1 + 0x110]\n 18173: t0 = 0x334\n 18177: jump @1055\n      : @761 [@dyn 409] (gas: 2)\n 18180: a3 = u64 [s1 + 0x110]\n 18184: t0 = 820, jump @1055\n      : @762 [@dyn 410] (gas: 12)\n 18190: u64 [s1 + 0x110] = a4\n 18194: a1 = u64 [s1 + 0x118]\n 18198: u64 [a1] = a4\n 18200: u64 [s1 + 0xf8] = a5\n 18204: u64 [a1 + 0x8] = a5\n 18207: u64 [s1 + 0xf0] = a2\n 18211: u64 [a1 + 0x10] = a2\n 18214: u64 [s1 + 0xe8] = a0\n 18218: u64 [a1 + 0x18] = a0\n 18221: a0 = s1 + 0x1a80\n 18225: a1 = 0x40\n 18228: ra = 822, jump @2\n      : @763 [@dyn 411] (gas: 13)\n 18234: a0 = s1 + 0x1898\n 18238: a1 = u64 [a0 + 0x200]\n 18242: u64 [s1 + 0x50] = a1\n 18245: a2 = a0 + 0x100\n 18249: a1 = u64 [a2 + 0xf8]\n 18253: u64 [s1 + 0x48] = a1\n 18256: a1 = u64 [a2 + 0xf0]\n 18260: u64 [s1 + 0x40] = a1\n 18263: a0 = u64 [a2 + 0xe8]\n 18267: u64 [s1 + 0x58] = a0\n 18270: a0 = s1 + 0x1a60\n 18274: a1 = u64 [s1 + 0x118]\n 18278: ra = 824, jump @6\n      : @764 [@dyn 412] (gas: 12)\n 18284: a4 = u64 [s1 + 0x40]\n 18287: a3 = u64 [s1 + 0x48]\n 18290: a0 = u64 [s1 + 0x58]\n 18293: a2 = u64 [s1 + 0x50]\n 18296: a2 = a2 | a4\n 18299: a1 = a0 | a3\n 18302: a1 = a1 | a2\n 18305: a1 = a1 >> 0x20\n 18308: a2 = a2 | a3\n 18311: a2 = a2 << 0x20\n 18314: a1 = a1 | a2\n 18317: jump @836 if a1 != 0\n      : @765 (gas: 17)\n 18321: a1 = s1 + 0x1898\n 18325: t0 = u64 [a1 + 0x1e0]\n 18329: t1 = u64 [a1 + 0x1d8]\n 18333: a3 = a1 + 0x100\n 18337: a5 = u64 [a3 + 0xd0]\n 18341: a2 = u64 [a3 + 0xc8]\n 18345: u64 [s1 + 0x80] = a2\n 18349: u64 [a3 + 0xa8] = a2\n 18353: u64 [s1 + 0x88] = a5\n 18357: u64 [a3 + 0xb0] = a5\n 18361: u64 [s1 + 0x90] = t1\n 18365: u64 [a1 + 0x1b8] = t1\n 18369: a2 = a1\n 18371: a1 = s1 + 0x1a40\n 18375: u64 [s1 + 0x98] = t0\n 18379: u64 [a2 + 0x1c0] = t0\n 18383: ra = 826, jump @4\n      : @766 [@dyn 413] (gas: 28)\n 18389: a1 = u64 [s1 + 0x58]\n 18392: a0 = a1 + 0x20\n 18395: u64 [s1 + 0x68] = a0\n 18398: a0 = a0 <u a1\n 18401: a2 = u64 [s1 + 0x40]\n 18404: a1 = a2 + a0\n 18407: u64 [s1 + 0x78] = a1\n 18410: a1 = a1 <u a2\n 18413: a1 = a0 if a0 == 0\n 18416: a0 = u64 [s1 + 0x48]\n 18419: a1 = a1 + a0\n 18422: u64 [s1 + 0x60] = a1\n 18425: a0 = a1 <u a0\n 18428: u64 [s1 + 0x118] = a0\n 18432: a0 = u64 [s1 + 0xe8]\n 18436: a1 = s1 + 0x1898\n 18440: a2 = a1 + 0x100\n 18444: u64 [a2 + 0xa0] = a0\n 18448: a0 = u64 [s1 + 0xf0]\n 18452: u64 [a2 + 0x98] = a0\n 18456: a0 = u64 [s1 + 0xf8]\n 18460: u64 [a2 + 0x90] = a0\n 18464: a2 = a1\n 18466: a1 = s1 + 0x1a20\n 18470: a0 = u64 [s1 + 0x110]\n 18474: u64 [a2 + 0x188] = a0\n 18478: a0 = 0\n 18480: ra = 828, jump @4\n      : @767 [@dyn 414] (gas: 7)\n 18486: a0 = sp + 0xffffffffffffffe0\n 18489: a0 = a0 & 0xffffffffffffffe0\n 18492: u64 [s1 + 0xa0] = a0\n 18496: sp = a0\n 18498: a2 = u64 [s1 + 0x108]\n 18502: a0 = i32 [a2]\n 18504: jump @769 if a0 >u 31\n      : @768 (gas: 2)\n 18508: u32 [a2 + 0] = 0x20\n 18511: fallthrough\n      : @769 (gas: 7)\n 18512: a0 = u64 [s1 + 0x50]\n 18515: a1 = u64 [s1 + 0x118]\n 18519: a0 = a0 + a1\n 18522: u64 [s1 + 0x70] = a0\n 18525: a0 = 0xffffffff\n 18535: u64 [s1 + 0xa8] = a0\n 18539: t0 = 830, jump @1075\n      : @770 [@dyn 415] (gas: 34)\n 18545: ecalli 5 // 'hash_keccak_256'\n 18547: t0 = 0\n 18549: t1 = 0\n 18551: ra = 0\n 18553: u64 [s1 + 248] = 0\n 18557: a3 = u64 [s1 + 0x118]\n 18561: a0 = u64 [a3 + 0x18]\n 18564: a1 = u64 [a3 + 0x10]\n 18567: a2 = u64 [a3 + 0x8]\n 18570: a5 = u64 [a3]\n 18572: t2 = reverse a0\n 18574: a4 = reverse a1\n 18576: a3 = reverse a2\n 18578: a2 = reverse a5\n 18580: a1 = u64 [s1 + 0xa0]\n 18584: a0 = a2\n 18586: u64 [a1 + 0x18] = a2\n 18589: u64 [s1 + 0xd8] = a3\n 18593: u64 [a1 + 0x10] = a3\n 18596: a5 = a4\n 18598: u64 [a1 + 0x8] = a4\n 18601: a2 = t2\n 18603: u64 [s1 + 0xe0] = a2\n 18607: u64 [a1] = a2\n 18609: a2 = u64 [s1 + 0x68]\n 18612: a3 = s1 + 0x100\n 18616: u64 [a3 + 0x18] = a2\n 18619: a2 = u64 [s1 + 0x78]\n 18622: u64 [a3 + 0x8] = a2\n 18625: a2 = u64 [s1 + 0x60]\n 18628: u64 [a3] = a2\n 18630: a2 = u64 [s1 + 0x70]\n 18633: u64 [a3 + 0x10] = a2\n 18636: fallthrough\n      : @771 (gas: 19)\n 18637: u64 [s1 + 0xe8] = a0\n 18641: u64 [s1 + 0xf0] = a5\n 18645: a0 = u64 [s1 + 0x80]\n 18649: a0 = t0 <u a0\n 18652: a2 = u64 [s1 + 0x88]\n 18656: a3 = t1 ^ a2\n 18659: a2 = t1 <u a2\n 18662: a2 = a0 if a3 == 0\n 18665: a0 = u64 [s1 + 0x90]\n 18669: t2 = ra <u a0\n 18672: a3 = u64 [s1 + 0x98]\n 18676: a5 = u64 [s1 + 0xf8]\n 18680: a4 = a5 ^ a3\n 18683: a3 = a5 <u a3\n 18686: a3 = t2 if a4 == 0\n 18689: a0 = ra ^ a0\n 18692: a0 = a0 | a4\n 18695: a3 = a2 if a0 == 0\n 18698: jump @801 if a3 == 0\n      : @772 (gas: 5)\n 18702: u64 [s1 + 0xc0] = ra\n 18706: u64 [s1 + 0xc8] = t1\n 18710: u64 [s1 + 0xd0] = t0\n 18714: a0 = s1 + 0x1900\n 18718: ra = 832, jump @6\n      : @773 [@dyn 416] (gas: 13)\n 18724: a1 = s1 + 0x100\n 18728: a5 = u64 [a1 + 0x18]\n 18731: a3 = u64 [a1]\n 18733: a0 = a5 | a3\n 18736: a2 = u64 [a1 + 0x10]\n 18739: t0 = u64 [s1 + 0x108]\n 18743: a1 = t0 | a2\n 18746: a0 = a0 | a1\n 18749: a0 = a0 >> 0x20\n 18752: a1 = a1 | a3\n 18755: a1 = a1 << 0x20\n 18758: a0 = a0 | a1\n 18761: jump @836 if a0 != 0\n      : @774 (gas: 21)\n 18765: a0 = s1 + 0x1898\n 18769: u64 [s1 + 0x110] = a2\n 18773: u64 [s1 + 0x100] = a3\n 18777: a3 = a0\n 18779: a0 = u64 [a0 + 0x78]\n 18782: a1 = u64 [a3 + 0x70]\n 18785: a2 = u64 [a3 + 0x68]\n 18788: a4 = u64 [s1 + 0xa8]\n 18792: a0 = a0 & a4\n 18795: a4 = 0xffffffffffffffff\n 18798: a1 = a1 & a4\n 18801: a2 = a2 & a4\n 18804: u64 [a3 + 96] = 0\n 18807: u64 [a3 + 0x48] = a2\n 18810: u64 [a3 + 0x50] = a1\n 18813: a1 = s1 + 0x18e0\n 18817: u64 [a3 + 0x58] = a0\n 18820: a0 = a5\n 18822: u64 [s1 + 0x118] = a5\n 18826: u64 [s1 + 0x108] = t0\n 18830: ra = 834, jump @4\n      : @775 [@dyn 417] (gas: 56)\n 18836: a1 = u64 [s1 + 0x118]\n 18840: a0 = a1 + 0x20\n 18843: u64 [s1 + 0xb8] = a0\n 18847: a2 = a0 <u a1\n 18850: a1 = u64 [s1 + 0x108]\n 18854: a0 = a1 + a2\n 18857: u64 [s1 + 0xb0] = a0\n 18861: a3 = a0 <u a1\n 18864: a3 = a2 if a2 == 0\n 18867: a0 = u64 [s1 + 0x100]\n 18871: ra = a0 + a3\n 18874: a3 = ra <u a0\n 18877: a0 = u64 [s1 + 0x110]\n 18881: a0 = a0 + a3\n 18884: u64 [s1 + 0x110] = a0\n 18888: t2 = u64 [s1 + 0xe0]\n 18892: t2 = t2 + 0x1\n 18895: u64 [s1 + 0xe0] = t2\n 18899: a3 = t2 <u 0x1\n 18902: a0 = u64 [s1 + 0xf0]\n 18906: a0 = a0 + a3\n 18909: a3 = t2 | a0\n 18912: a3 = a3 <u 0x1\n 18915: a1 = u64 [s1 + 0xd8]\n 18919: a3 = a3 + a1\n 18922: a4 = a3 <u a1\n 18925: a2 = u64 [s1 + 0xe8]\n 18929: a2 = a2 + a4\n 18932: t0 = u64 [s1 + 0xd0]\n 18936: t0 = t0 + 0x1\n 18939: a4 = t0 <u 0x1\n 18942: t1 = u64 [s1 + 0xc8]\n 18946: t1 = t1 + a4\n 18949: a4 = t0 | t1\n 18952: a4 = a4 <u 0x1\n 18955: a5 = u64 [s1 + 0xc0]\n 18959: a4 = a4 + a5\n 18962: a5 = a4 <u a5\n 18965: a1 = u64 [s1 + 0xf8]\n 18969: a1 = a1 + a5\n 18972: u64 [s1 + 0xf8] = a1\n 18976: a5 = a0\n 18978: a1 = u64 [s1 + 0xa0]\n 18982: u64 [a1 + 0x8] = a0\n 18985: u64 [a1] = t2\n 18987: u64 [a1 + 0x10] = a3\n 18990: a0 = a2\n 18992: u64 [a1 + 0x18] = a2\n 18995: u64 [s1 + 0xd8] = a3\n 18999: a2 = u64 [s1 + 0xb8]\n 19003: u64 [s1 + 0x118] = a2\n 19007: a2 = u64 [s1 + 0xb0]\n 19011: u64 [s1 + 0x108] = a2\n 19015: u64 [s1 + 0x100] = ra\n 19019: ra = a4\n 19021: jump @771\n      : @776 (gas: 15)\n 19024: a0 = s1 + 0x7ff\n 19028: a0 = a0 + 0x99\n 19032: a1 = u64 [s1 + 0xf0]\n 19036: a3 = a0 + 0x200\n 19040: u64 [a3 + 0x8] = a1\n 19043: a1 = u64 [s1 + 0xe0]\n 19047: u64 [a3 + 0x10] = a1\n 19050: a1 = u64 [s1 + 0xd8]\n 19054: u64 [a3 + 0x18] = a1\n 19057: a1 = s1 + 0x7ff\n 19061: a1 = a1 + 0x2a1\n 19065: a2 = u64 [s1 + 0xe8]\n 19069: u64 [a3 + 0x20] = a2\n 19072: a0 = 0\n 19074: ra = 836, jump @4\n      : @777 [@dyn 418] (gas: 3)\n 19080: a2 = u64 [s1 + 0xc8]\n 19084: a0 = i32 [a2]\n 19086: jump @779 if a0 >u 31\n      : @778 (gas: 3)\n 19090: u32 [a2 + 0] = 0x20\n 19093: t0 = 0x346\n 19097: jump @1085\n      : @779 (gas: 1)\n 19100: t0 = 838, jump @1085\n      : @780 [@dyn 419] (gas: 39)\n 19106: a0 = u64 [s1 + 0xc0]\n 19110: ecalli 5 // 'hash_keccak_256'\n 19112: a5 = s1 + 0x100\n 19116: a2 = u64 [a5 + 0x18]\n 19119: a0 = u64 [a2 + 0x18]\n 19122: a1 = u64 [a2 + 0x10]\n 19125: t0 = u64 [a2 + 0x8]\n 19128: a2 = u64 [a2]\n 19130: ra = reverse a0\n 19132: a4 = reverse a1\n 19134: a0 = u64 [s1 + 0xf8]\n 19138: a0 = a0 + a4\n 19141: a1 = u64 [a5]\n 19143: a1 = a1 + ra\n 19146: u64 [s1 + 0xf8] = a1\n 19150: a1 = a1 <u ra\n 19153: a3 = a0 + a1\n 19156: a0 = a3 ^ a4\n 19159: u64 [s1 + 0xf0] = a3\n 19163: a3 = a3 <u a4\n 19166: a3 = a1 if a0 == 0\n 19169: t1 = reverse a2\n 19171: t0 = reverse t0\n 19173: a0 = u64 [a5 + 0x8]\n 19176: a0 = a0 + t0\n 19179: a1 = u64 [a5 + 0x10]\n 19182: a1 = a1 + t1\n 19185: a2 = a0 <u t0\n 19188: a1 = a1 + a2\n 19191: a3 = a3 + a0\n 19194: u64 [s1 + 0xe8] = a3\n 19198: a0 = a3 <u a0\n 19201: a0 = a0 + a1\n 19204: u64 [s1 + 0xe0] = a0\n 19208: a0 = sp + 0xffffffffffffffe0\n 19211: a5 = a0 & 0xffffffffffffffe0\n 19214: sp = a5\n 19216: u64 [s1 + 0xd8] = a5\n 19220: fallthrough\n      : @781 (gas: 21)\n 19221: a0 = u64 [s1 + 0xf8]\n 19225: a0 = ra <u a0\n 19228: a2 = u64 [s1 + 0xf0]\n 19232: a1 = a4 ^ a2\n 19235: a2 = a4 <u a2\n 19238: a2 = a0 if a1 == 0\n 19241: a0 = u64 [s1 + 0xe8]\n 19245: t2 = t0 <u a0\n 19248: a3 = u64 [s1 + 0xe0]\n 19252: a1 = t1 ^ a3\n 19255: a3 = t1 <u a3\n 19258: a3 = t2 if a1 == 0\n 19261: a0 = t0 ^ a0\n 19264: a0 = a0 | a1\n 19267: a3 = a2 if a0 == 0\n 19270: u64 [a5] = ra\n 19272: u64 [a5 + 0x8] = a4\n 19275: u64 [a5 + 0x10] = t0\n 19278: u64 [a5 + 0x18] = t1\n 19281: a0 = s1 + 0x209c\n 19285: jump @668 if a3 == 0\n      : @782 (gas: 11)\n 19289: u64 [a0 + 796] = 0\n 19293: u64 [a0 + 788] = 0\n 19297: u64 [a0 + 780] = 0\n 19301: u64 [a0 + 772] = 0\n 19305: a1 = s1 + 0x23a0\n 19309: a0 = a5\n 19311: u64 [s1 + 0x118] = ra\n 19315: u64 [s1 + 0x110] = a4\n 19319: u64 [s1 + 0x108] = t1\n 19323: u64 [s1 + 0x100] = t0\n 19327: ra = 840, jump @10\n      : @783 [@dyn 420] (gas: 15)\n 19333: a5 = u64 [s1 + 0xd8]\n 19337: t1 = u64 [s1 + 0x108]\n 19341: a4 = u64 [s1 + 0x110]\n 19345: ra = u64 [s1 + 0x118]\n 19349: ra = ra + 0x1\n 19352: a0 = ra <u 0x1\n 19355: a4 = a4 + a0\n 19358: a0 = ra | a4\n 19361: a0 = a0 <u 0x1\n 19364: a1 = u64 [s1 + 0x100]\n 19368: a0 = a0 + a1\n 19371: a1 = a0 <u a1\n 19374: t1 = t1 + a1\n 19377: t0 = a0\n 19379: jump @781\n      : @784 (gas: 6)\n 19382: a0 = u64 [s1 + 0x50]\n 19385: ra = 0x34a\n 19389: ecalli 3 // 'caller'\n 19391: a2 = u64 [s1 + 0x58]\n 19394: t0 = 0x34c\n 19398: jump @1053\n      : @785 [@dyn 421] (gas: 2)\n 19401: a2 = u64 [s1 + 0x58]\n 19404: t0 = 844, jump @1053\n      : @786 [@dyn 422] (gas: 8)\n 19410: u64 [s1 + 792] = 0\n 19414: a2 = s1 + 0x300\n 19418: u64 [a2 + 0x10] = a1\n 19421: u64 [a2 + 0x8] = a0\n 19424: a1 = s1 + 0x300\n 19428: u64 [a2] = a3\n 19430: a0 = 0\n 19432: ra = 846, jump @4\n      : @787 [@dyn 423] (gas: 7)\n 19438: u64 [s1 + 760] = 0\n 19442: u64 [s1 + 752] = 0\n 19446: u64 [s1 + 736] = 0x1\n 19451: a0 = 0x20\n 19454: a1 = s1 + 0x2e0\n 19458: u64 [s1 + 744] = 0\n 19462: ra = 848, jump @4\n      : @788 [@dyn 424] (gas: 3)\n 19468: a2 = u64 [s1 + 0x60]\n 19471: a0 = i32 [a2]\n 19473: jump @790 if a0 >u 63\n      : @789 (gas: 3)\n 19477: u32 [a2 + 0] = 0x40\n 19480: t0 = 0x352\n 19484: jump @1058\n      : @790 (gas: 1)\n 19487: t0 = 850, jump @1058\n      : @791 [@dyn 425] (gas: 5)\n 19493: a0 = u64 [s1 + 0x68]\n 19496: ra = 0x354\n 19500: ecalli 5 // 'hash_keccak_256'\n 19502: t0 = 0x356\n 19506: jump @1056\n      : @792 [@dyn 426] (gas: 1)\n 19509: t0 = 854, jump @1056\n      : @793 [@dyn 427] (gas: 8)\n 19515: a5 = a4 + 0x104\n 19519: u64 [a5 + 0x98] = a3\n 19523: u64 [a5 + 0x90] = a2\n 19527: u64 [a5 + 0x88] = a1\n 19531: u64 [a5 + 0x80] = a0\n 19535: a0 = s1 + 0x2c0\n 19539: a1 = s1 + 0x2220\n 19543: ra = 856, jump @6\n      : @794 [@dyn 428] (gas: 7)\n 19549: a0 = u64 [s1 + 0x2c8]\n 19553: u64 [s1 + 0x118] = a0\n 19557: a0 = u64 [s1 + 0x2c0]\n 19561: u64 [s1 + 0x110] = a0\n 19565: a0 = s1 + 0x2a0\n 19569: a1 = 0x40\n 19572: ra = 858, jump @2\n      : @795 [@dyn 429] (gas: 6)\n 19578: a4 = s1 + 0x200\n 19582: a3 = u64 [a4 + 0xb8]\n 19586: a1 = u64 [a4 + 0xb0]\n 19590: a2 = u64 [a4 + 0xa8]\n 19594: a0 = u64 [a4 + 0xa0]\n 19598: t0 = 860, jump @1076\n      : @796 [@dyn 430] (gas: 1)\n 19604: jump @836 if a1 != 0\n      : @797 (gas: 11)\n 19608: a1 = u64 [s1 + 0x118]\n 19612: a2 = u64 [s1 + 0x110]\n 19616: a1 = a1 | a2\n 19619: a2 = a1 >u 0\n 19621: u64 [s1 + 664] = 0\n 19625: u64 [s1 + 656] = 0\n 19629: u64 [s1 + 648] = 0\n 19633: a1 = s1 + 0x280\n 19637: u64 [s1 + 0x280] = a2\n 19641: u64 [s1 + 0x118] = a0\n 19645: ra = 862, jump @4\n      : @798 [@dyn 431] (gas: 3)\n 19651: a1 = 0x20\n 19654: a0 = u64 [s1 + 0x118]\n 19658: ra = 864, jump @11\n      : @799 [@dyn 432] (gas: 5)\n 19664: i32 a1 = a0 + 0\n 19666: a2 = 0x20\n 19669: a0 = 0\n 19671: ecalli 6 // 'seal_return'\n 19673: jump @801\n      : @800 (gas: 4)\n 19675: a2 = 0x20\n 19678: a0 = 0\n 19680: ecalli 6 // 'seal_return'\n 19682: fallthrough\n      : @801 (gas: 38)\n 19683: a0 = u64 [s1 + 0x58]\n 19686: a1 = u64 [s1 + 0x118]\n 19690: t2 = a1 <u a0\n 19693: a1 = u64 [s1 + 0x40]\n 19696: a5 = u64 [s1 + 0x108]\n 19700: a3 = a5 ^ a1\n 19703: a2 = a5 <u a1\n 19706: a2 = t2 if a3 == 0\n 19709: t0 = u64 [s1 + 0x48]\n 19712: a3 = u64 [s1 + 0x100]\n 19716: t1 = a3 - t0\n 19719: a3 = a3 <u t0\n 19722: ra = u64 [s1 + 0x50]\n 19725: a4 = u64 [s1 + 0x110]\n 19729: a4 = a4 - ra\n 19732: a4 = a4 - a3\n 19735: a3 = t1 <u a2\n 19738: a4 = a4 - a3\n 19741: u64 [s1 + 0x110] = a4\n 19745: t1 = t1 - a2\n 19748: a2 = a5 - a1\n 19751: a2 = a2 - t2\n 19754: a4 = u64 [s1 + 0x118]\n 19758: a4 = a4 - a0\n 19761: a3 = s1 + 0x1898\n 19765: a5 = a3 + 0x100\n 19769: u64 [a5 + 0x68] = a0\n 19772: u64 [a5 + 0x48] = a4\n 19775: u64 [a5 + 0x70] = a1\n 19778: u64 [a3 + 0x178] = t0\n 19782: u64 [a5 + 0x50] = a2\n 19785: u64 [a3 + 0x180] = ra\n 19789: u64 [a3 + 0x158] = t1\n 19793: a0 = s1 + 0x1a00\n 19797: a1 = s1 + 0x19e0\n 19801: a2 = u64 [s1 + 0x110]\n 19805: u64 [a5 + 0x60] = a2\n 19808: ra = 866, jump @972\n      : @802 [@dyn 433] (gas: 3)\n 19814: a0 = s1 + 0x19c0\n 19818: a1 = 0x40\n 19821: ra = 868, jump @2\n      : @803 [@dyn 434] (gas: 14)\n 19827: a2 = s1 + 0x1898\n 19831: t0 = u64 [a2 + 0x140]\n 19835: a1 = a2 + 0x100\n 19839: a5 = u64 [a1 + 0x38]\n 19842: a4 = u64 [a1 + 0x30]\n 19845: a0 = u64 [a1 + 0x28]\n 19848: a3 = a4 | t0\n 19851: a1 = a0 | a5\n 19854: a1 = a1 | a3\n 19857: a1 = a1 >> 0x20\n 19860: a3 = a3 | a5\n 19863: a3 = a3 << 0x20\n 19866: a1 = a1 | a3\n 19869: jump @836 if a1 != 0\n      : @804 (gas: 22)\n 19873: a1 = a0 + 0x20\n 19876: u64 [s1 + 0x110] = a1\n 19880: t1 = a1 <u a0\n 19883: a1 = a4 + t1\n 19886: u64 [s1 + 0x118] = a1\n 19890: a1 = a1 <u a4\n 19893: a1 = t1 if t1 == 0\n 19896: a1 = a1 + a5\n 19899: u64 [s1 + 0x100] = a1\n 19903: a1 = a1 <u a5\n 19906: a1 = a1 + t0\n 19909: u64 [s1 + 0x108] = a1\n 19913: u64 [a2 + 288] = 0\n 19917: u64 [a2 + 280] = 0\n 19921: u64 [a2 + 272] = 0\n 19925: a1 = s1 + 0x19a0\n 19929: u64 [a2 + 264] = 0x20\n 19934: u64 [s1 + 0xb0] = a0\n 19938: u64 [s1 + 0xa0] = a4\n 19942: u64 [s1 + 0x98] = t0\n 19946: u64 [s1 + 0x90] = a5\n 19950: ra = 870, jump @4\n      : @805 [@dyn 435] (gas: 3)\n 19956: a0 = s1 + 0x1980\n 19960: a1 = u64 [s1 + 0x58]\n 19963: ra = 872, jump @2\n      : @806 [@dyn 436] (gas: 13)\n 19969: a5 = s1 + 0x100\n 19973: a0 = u64 [a5 + 0x10]\n 19976: a3 = u64 [a5]\n 19978: a2 = a0 | a3\n 19981: a1 = u64 [a5 + 0x18]\n 19984: a4 = u64 [a5 + 0x8]\n 19987: a1 = a1 | a4\n 19990: a2 = a2 | a1\n 19993: a2 = a2 >> 0x20\n 19996: a1 = a1 | a3\n 19999: a1 = a1 << 0x20\n 20002: a1 = a1 | a2\n 20005: jump @836 if a1 != 0\n      : @807 (gas: 15)\n 20009: a5 = s1 + 0x1898\n 20013: a4 = u64 [a5 + 0x100]\n 20017: a1 = u64 [a5 + 0xf8]\n 20021: a2 = u64 [a5 + 0xf0]\n 20025: a3 = u64 [a5 + 0xe8]\n 20029: u64 [s1 + 0xb8] = a3\n 20033: u64 [a5 + 0xc8] = a3\n 20037: u64 [s1 + 0xc0] = a2\n 20041: u64 [a5 + 0xd0] = a2\n 20045: u64 [s1 + 0xc8] = a1\n 20049: u64 [a5 + 0xd8] = a1\n 20053: a1 = s1 + 0x1960\n 20057: u64 [s1 + 0xd0] = a4\n 20061: u64 [a5 + 0xe0] = a4\n 20065: ra = 874, jump @4\n      : @808 [@dyn 437] (gas: 24)\n 20071: t0 = 0\n 20073: a4 = 0\n 20075: ra = 0\n 20077: t2 = 0\n 20079: a1 = u64 [s1 + 0xb0]\n 20083: a0 = a1 + 0x40\n 20086: a3 = s1 + 0x100\n 20090: u64 [a3 + 0x10] = a0\n 20093: a0 = a0 <u a1\n 20096: a2 = u64 [s1 + 0xa0]\n 20100: a1 = a2 + a0\n 20103: u64 [a3 + 0x8] = a1\n 20106: a1 = a1 <u a2\n 20109: a1 = a0 if a0 == 0\n 20112: a0 = u64 [s1 + 0x90]\n 20116: a1 = a1 + a0\n 20119: u64 [a3] = a1\n 20121: a0 = a1 <u a0\n 20124: a1 = u64 [s1 + 0x98]\n 20128: a0 = a0 + a1\n 20131: u64 [a3 + 0x18] = a0\n 20134: a1 = u64 [s1 + 0x68]\n 20137: t1 = u64 [s1 + 0x60]\n 20140: fallthrough\n      : @809 (gas: 17)\n 20141: a0 = u64 [s1 + 0xb8]\n 20145: a0 = t0 <u a0\n 20148: a2 = u64 [s1 + 0xc0]\n 20152: a3 = a4 ^ a2\n 20155: u64 [s1 + 0xf8] = a4\n 20159: a2 = a4 <u a2\n 20162: a2 = a0 if a3 == 0\n 20165: a5 = u64 [s1 + 0xc8]\n 20169: a0 = ra <u a5\n 20172: a3 = u64 [s1 + 0xd0]\n 20176: a4 = t2 ^ a3\n 20179: a3 = t2 <u a3\n 20182: a3 = a0 if a4 == 0\n 20185: a0 = ra ^ a5\n 20188: a0 = a0 | a4\n 20191: a3 = a2 if a0 == 0\n 20194: jump @833 if a3 == 0\n      : @810 (gas: 10)\n 20198: a0 = a1 | t1\n 20201: a2 = u64 [s1 + 0x70]\n 20204: a3 = u64 [s1 + 0x78]\n 20207: a2 = a2 | a3\n 20210: a0 = a0 | a2\n 20213: a0 = a0 >> 0x20\n 20216: a2 = a2 | t1\n 20219: a2 = a2 << 0x20\n 20222: a0 = a0 | a2\n 20225: jump @836 if a0 != 0\n      : @811 (gas: 7)\n 20229: u64 [s1 + 0xe0] = ra\n 20233: u64 [s1 + 0xe8] = t2\n 20237: u64 [s1 + 0xf0] = t0\n 20241: u64 [s1 + 0x60] = t1\n 20244: a0 = s1 + 0x1940\n 20248: u64 [s1 + 0x68] = a1\n 20251: ra = 876, jump @2\n      : @812 [@dyn 438] (gas: 13)\n 20257: a1 = s1 + 0x100\n 20261: a5 = u64 [a1 + 0x10]\n 20264: a3 = u64 [a1]\n 20266: a0 = a5 | a3\n 20269: a2 = u64 [a1 + 0x18]\n 20272: t0 = u64 [s1 + 0x108]\n 20276: a1 = t0 | a2\n 20279: a0 = a0 | a1\n 20282: a0 = a0 >> 0x20\n 20285: a1 = a1 | a3\n 20288: a1 = a1 << 0x20\n 20291: a0 = a0 | a1\n 20294: jump @836 if a0 != 0\n      : @813 (gas: 21)\n 20298: a0 = s1 + 0x1898\n 20302: u64 [s1 + 0x118] = a2\n 20306: u64 [s1 + 0x100] = a3\n 20310: a3 = a0\n 20312: a0 = u64 [a0 + 0xb8]\n 20316: a1 = u64 [a3 + 0xb0]\n 20320: a2 = u64 [a3 + 0xa8]\n 20324: a4 = u64 [s1 + 0xa8]\n 20328: a0 = a0 & a4\n 20331: a4 = 0xffffffffffffffff\n 20334: a1 = a1 & a4\n 20337: a2 = a2 & a4\n 20340: u64 [a3 + 160] = 0\n 20344: u64 [a3 + 0x88] = a2\n 20348: u64 [a3 + 0x90] = a1\n 20352: a1 = s1 + 0x1920\n 20356: u64 [a3 + 0x98] = a0\n 20360: a0 = a5\n 20362: u64 [s1 + 0x110] = a5\n 20366: u64 [s1 + 0x108] = t0\n 20370: ra = 878, jump @4\n      : @814 [@dyn 439] (gas: 51)\n 20376: a1 = u64 [s1 + 0x110]\n 20380: a0 = a1 + 0x20\n 20383: u64 [s1 + 0xd8] = a0\n 20387: a2 = a0 <u a1\n 20390: a0 = u64 [s1 + 0x108]\n 20394: t1 = a0 + a2\n 20397: a3 = t1 <u a0\n 20400: a3 = a2 if a2 == 0\n 20403: a0 = u64 [s1 + 0x100]\n 20407: a2 = a0 + a3\n 20410: a3 = a2 <u a0\n 20413: a0 = u64 [s1 + 0x118]\n 20417: a0 = a0 + a3\n 20420: u64 [s1 + 0x118] = a0\n 20424: a0 = u64 [s1 + 0x68]\n 20427: a3 = a0 + 0x20\n 20430: a4 = a3 <u a0\n 20433: a0 = u64 [s1 + 0x78]\n 20436: a5 = a0 + a4\n 20439: a0 = a5 <u a0\n 20442: a0 = a4 if a4 == 0\n 20445: a1 = u64 [s1 + 0x60]\n 20448: a0 = a0 + a1\n 20451: a4 = a0 <u a1\n 20454: a1 = u64 [s1 + 0x70]\n 20457: a1 = a1 + a4\n 20460: u64 [s1 + 0x70] = a1\n 20463: t0 = u64 [s1 + 0xf0]\n 20467: t0 = t0 + 0x1\n 20470: a4 = t0 <u 0x1\n 20473: t2 = u64 [s1 + 0xf8]\n 20477: t2 = t2 + a4\n 20480: a4 = t0 | t2\n 20483: a4 = a4 <u 0x1\n 20486: a1 = u64 [s1 + 0xe0]\n 20490: a4 = a4 + a1\n 20493: a1 = a4 <u a1\n 20496: ra = u64 [s1 + 0xe8]\n 20500: ra = ra + a1\n 20503: a1 = u64 [s1 + 0xd8]\n 20507: u64 [s1 + 0x110] = a1\n 20511: u64 [s1 + 0x108] = t1\n 20515: u64 [s1 + 0x100] = a2\n 20519: a1 = a3\n 20521: u64 [s1 + 0x78] = a5\n 20524: t1 = a0\n 20526: a0 = a4\n 20528: a4 = t2\n 20530: t2 = ra\n 20532: ra = a0\n 20534: jump @809\n      : @815 (gas: 7)\n 20537: a0 = a0 | a3\n 20540: a0 = a0 >> 0x20\n 20543: t1 = a1\n 20545: a1 = a1 | a3\n 20548: a1 = a1 << 0x20\n 20551: a0 = a0 | a1\n 20554: jump @836 if a0 != 0\n      : @816 (gas: 24)\n 20558: a0 = a2 + 0x20\n 20561: u64 [s1 + 0x100] = a0\n 20565: t0 = a0 <u a2\n 20568: a0 = a4 + t0\n 20571: u64 [s1 + 0x118] = a0\n 20575: a1 = a0 <u a4\n 20578: a1 = t0 if t0 == 0\n 20581: a1 = a1 + t1\n 20584: u64 [s1 + 0xf0] = a1\n 20588: a0 = a1 <u t1\n 20591: a0 = a0 + t2\n 20594: u64 [s1 + 0xf8] = a0\n 20598: a0 = s1 + 0x1000\n 20602: u64 [a0 + 4294965368] = 0\n 20606: a0 = s1 + 0x1000\n 20610: u64 [a0 + 4294965360] = 0\n 20614: a0 = s1 + 0x1000\n 20618: u64 [a0 + 4294965352] = 0\n 20622: a1 = s1 + 0x7ff\n 20626: a1 = a1 + 0x61\n 20629: a3 = s1 + 0x1000\n 20633: u64 [a3 + 4294965344] = 0x20\n 20638: a0 = a2\n 20640: ra = 880, jump @4\n      : @817 [@dyn 440] (gas: 4)\n 20646: a0 = s1 + 0x7ff\n 20650: a0 = a0 + 0x41\n 20653: a1 = u64 [s1 + 0x28]\n 20656: ra = 882, jump @2\n      : @818 [@dyn 441] (gas: 12)\n 20662: a0 = u64 [s1 + 0x100]\n 20666: a3 = u64 [s1 + 0xf0]\n 20670: a2 = a0 | a3\n 20673: a1 = u64 [s1 + 0x118]\n 20677: a4 = u64 [s1 + 0xf8]\n 20681: a1 = a1 | a4\n 20684: a2 = a2 | a1\n 20687: a2 = a2 >> 0x20\n 20690: a1 = a1 | a3\n 20693: a1 = a1 << 0x20\n 20696: a1 = a1 | a2\n 20699: jump @836 if a1 != 0\n      : @819 (gas: 23)\n 20703: a1 = s1 + 0x1000\n 20707: a4 = u64 [a1 + 0xfffffffffffff858]\n 20711: a1 = s1 + 0x1000\n 20715: a1 = u64 [a1 + 0xfffffffffffff850]\n 20719: a2 = s1 + 0x1000\n 20723: a2 = u64 [a2 + 0xfffffffffffff848]\n 20727: a3 = s1 + 0x1000\n 20731: a3 = u64 [a3 + 0xfffffffffffff840]\n 20735: u64 [s1 + 0x50] = a3\n 20738: a5 = s1 + 0x1000\n 20742: u64 [a5 + 0xfffffffffffff820] = a3\n 20746: u64 [s1 + 0x58] = a2\n 20749: a3 = s1 + 0x1000\n 20753: u64 [a3 + 0xfffffffffffff828] = a2\n 20757: u64 [s1 + 0x60] = a1\n 20760: a2 = s1 + 0x1000\n 20764: u64 [a2 + 0xfffffffffffff830] = a1\n 20768: a1 = s1 + 0x7ff\n 20772: a1 = a1 + 0x21\n 20775: u64 [s1 + 0x68] = a4\n 20778: a2 = s1 + 0x1000\n 20782: u64 [a2 + 0xfffffffffffff838] = a4\n 20786: ra = 884, jump @4\n      : @820 [@dyn 442] (gas: 16)\n 20792: a2 = 0\n 20794: a4 = 0\n 20796: t0 = 0\n 20798: t1 = 0\n 20800: a0 = 0x100000000\n 20810: u64 [s1 + 0xd0] = a0\n 20814: a0 = 0xffffffc0\n 20824: u64 [s1 + 0x28] = a0\n 20827: a3 = s1 + 0x100\n 20831: a0 = u64 [a3 + 0x8]\n 20834: ra = u64 [s1 + 0xd8]\n 20838: a1 = u64 [a3 + 0x10]\n 20841: u64 [a3] = a1\n 20843: a1 = u64 [s1 + 0xe0]\n 20847: u64 [s1 + 0xf8] = a1\n 20851: fallthrough\n      : @821 (gas: 33)\n 20852: t2 = a0\n 20854: a1 = a0 + 0x40\n 20857: a0 = u64 [s1 + 0x50]\n 20860: u64 [s1 + 0xc0] = a2\n 20864: a0 = a2 <u a0\n 20867: a2 = u64 [s1 + 0x58]\n 20870: a3 = a4 ^ a2\n 20873: u64 [s1 + 0xb8] = a4\n 20877: a2 = a4 <u a2\n 20880: a2 = a0 if a3 == 0\n 20883: a5 = u64 [s1 + 0x60]\n 20886: a0 = t0 <u a5\n 20889: a3 = u64 [s1 + 0x68]\n 20892: a4 = t1 ^ a3\n 20895: u64 [s1 + 0xb0] = t1\n 20899: a3 = t1 <u a3\n 20902: a3 = a0 if a4 == 0\n 20905: a0 = t0 ^ a5\n 20908: a0 = a0 | a4\n 20911: u64 [s1 + 0x118] = a1\n 20915: u64 [s1 + 0xf0] = t2\n 20919: a1 = a1 <u t2\n 20922: a3 = a2 if a0 == 0\n 20925: a4 = ra + a1\n 20928: a0 = a4 <u ra\n 20931: a0 = a1 if a1 == 0\n 20934: a1 = u64 [s1 + 0x100]\n 20938: t2 = a1 + a0\n 20941: a0 = t2 <u a1\n 20944: t1 = u64 [s1 + 0xf8]\n 20948: t1 = t1 + a0\n 20951: u64 [s1 + 0xc8] = t1\n 20955: jump @835 if a3 == 0\n      : @822 (gas: 13)\n 20959: a1 = u64 [s1 + 0x48]\n 20962: a0 = u64 [s1 + 0x38]\n 20965: a5 = a1 | a0\n 20968: a2 = u64 [s1 + 0x30]\n 20971: a3 = u64 [s1 + 0x40]\n 20974: a2 = a2 | a3\n 20977: a3 = a0\n 20979: a0 = a5 | a2\n 20982: a0 = a0 >> 0x20\n 20985: a2 = a2 | a3\n 20988: a2 = a2 << 0x20\n 20991: a0 = a0 | a2\n 20994: jump @836 if a0 != 0\n      : @823 (gas: 7)\n 20998: u64 [s1 + 0x70] = t2\n 21001: u64 [s1 + 0xe8] = ra\n 21005: u64 [s1 + 0x80] = a4\n 21009: u64 [s1 + 0x88] = t0\n 21013: a0 = s1 + 0x7ff\n 21017: a0 = a0 + 0x1\n 21020: ra = 886, jump @2\n      : @824 [@dyn 443] (gas: 16)\n 21026: a0 = s1 + 0x1000\n 21030: a4 = u64 [a0 + 0xfffffffffffff818]\n 21034: a0 = s1 + 0x1000\n 21038: a5 = u64 [a0 + 0xfffffffffffff810]\n 21042: a0 = s1 + 0x1000\n 21046: a3 = u64 [a0 + 0xfffffffffffff808]\n 21050: a0 = s1 + 0x1000\n 21054: a1 = u64 [a0 + 0xfffffffffffff800]\n 21058: a0 = a3 | a4\n 21061: a2 = a1 | a5\n 21064: a2 = a2 | a0\n 21067: a2 = a2 >> 0x20\n 21070: a0 = a0 | a5\n 21073: a0 = a0 << 0x20\n 21076: a0 = a0 | a2\n 21079: jump @836 if a0 != 0\n      : @825 (gas: 6)\n 21083: u64 [s1 + 0x90] = a5\n 21087: u64 [s1 + 0x98] = a4\n 21091: u64 [s1 + 0xa0] = a3\n 21095: a0 = s1 + 0x7e0\n 21099: u64 [s1 + 0xa8] = a1\n 21103: ra = 888, jump @2\n      : @826 [@dyn 444] (gas: 10)\n 21109: a0 = u64 [s1 + 0x100]\n 21113: a1 = u64 [s1 + 0xf8]\n 21117: a2 = a0 | a1\n 21120: a0 = u64 [s1 + 0x28]\n 21123: a1 = u64 [s1 + 0xf0]\n 21127: a0 = a1 <u a0\n 21130: a1 = u64 [s1 + 0xe8]\n 21134: a0 = 0 if a1 != 0\n 21136: a0 = 0 if a2 != 0\n 21138: jump @836 if a0 == 0\n      : @827 (gas: 11)\n 21142: u64 [s1 + 0x100] = a2\n 21146: a0 = u64 [s1 + 0x7e0]\n 21150: a1 = u64 [s1 + 0x78]\n 21153: a0 = a0 & a1\n 21156: u64 [s1 + 2008] = 0\n 21160: u64 [s1 + 2000] = 0\n 21164: u64 [s1 + 1992] = 0\n 21168: a1 = s1 + 0x7c0\n 21172: u64 [s1 + 0x7c0] = a0\n 21176: a0 = u64 [s1 + 0x118]\n 21180: ra = 890, jump @4\n      : @828 [@dyn 445] (gas: 11)\n 21186: a0 = u64 [s1 + 0x98]\n 21190: a1 = u64 [s1 + 0x90]\n 21194: a0 = a0 | a1\n 21197: a1 = u64 [s1 + 0xd0]\n 21201: a1 = a1 + 0xffffffffffffffe0\n 21204: a2 = u64 [s1 + 0xa8]\n 21208: a1 = a2 <u a1\n 21211: a3 = u64 [s1 + 0xa0]\n 21215: a1 = 0 if a3 != 0\n 21217: a1 = 0 if a0 != 0\n 21219: jump @836 if a1 == 0\n      : @829 (gas: 3)\n 21223: i32 a1 = a2 + 0x20\n 21226: a0 = s1 + 0x7a0\n 21230: ra = 892, jump @2\n      : @830 [@dyn 446] (gas: 9)\n 21236: a0 = u64 [s1 + 0xd0]\n 21240: a0 = a0 + 0xffffffffffffffa0\n 21243: a1 = u64 [s1 + 0xf0]\n 21247: a0 = a1 <u a0\n 21250: a1 = u64 [s1 + 0xe8]\n 21254: a0 = 0 if a1 != 0\n 21256: a1 = u64 [s1 + 0x100]\n 21260: a0 = 0 if a1 != 0\n 21262: jump @836 if a0 == 0\n      : @831 (gas: 13)\n 21266: a4 = s1 + 0x700\n 21270: a0 = u64 [a4 + 0xa8]\n 21274: a1 = u64 [a4 + 0xa0]\n 21278: a2 = a0 & 0xffffffffffffffff\n 21281: a1 = a1 & 0xffffffffffffffff\n 21284: a0 = u64 [s1 + 0x118]\n 21288: i32 a0 = a0 + 0x20\n 21291: u64 [s1 + 1944] = 0\n 21295: u64 [s1 + 1936] = 0\n 21299: u64 [a4 + 0x80] = a1\n 21303: a1 = s1 + 0x780\n 21307: u64 [a4 + 0x88] = a2\n 21311: ra = 894, jump @4\n      : @832 [@dyn 447] (gas: 37)\n 21317: a1 = u64 [s1 + 0x48]\n 21320: t0 = a1 + 0x20\n 21323: a1 = t0 <u a1\n 21326: a3 = u64 [s1 + 0x40]\n 21329: t2 = a3 + a1\n 21332: a3 = t2 <u a3\n 21335: a3 = a1 if a1 == 0\n 21338: a1 = u64 [s1 + 0x38]\n 21341: a3 = a3 + a1\n 21344: a1 = a3 <u a1\n 21347: a0 = u64 [s1 + 0x30]\n 21350: a0 = a0 + a1\n 21353: u64 [s1 + 0x30] = a0\n 21356: a2 = u64 [s1 + 0xc0]\n 21360: a2 = a2 + 0x1\n 21363: a1 = a2 <u 0x1\n 21366: a0 = u64 [s1 + 0xb8]\n 21370: a0 = a0 + a1\n 21373: a1 = a2 | a0\n 21376: a1 = a1 <u 0x1\n 21379: a4 = u64 [s1 + 0x88]\n 21383: a5 = a4 + a1\n 21386: a4 = a5 <u a4\n 21389: t1 = u64 [s1 + 0xb0]\n 21393: t1 = t1 + a4\n 21396: a4 = a0\n 21398: a0 = u64 [s1 + 0x118]\n 21402: ra = u64 [s1 + 0x80]\n 21406: a1 = u64 [s1 + 0x70]\n 21409: u64 [s1 + 0x100] = a1\n 21413: a1 = u64 [s1 + 0xc8]\n 21417: u64 [s1 + 0xf8] = a1\n 21421: u64 [s1 + 0x48] = t0\n 21424: u64 [s1 + 0x40] = t2\n 21427: u64 [s1 + 0x38] = a3\n 21430: t0 = a5\n 21432: jump @821\n      : @833 (gas: 30)\n 21435: a0 = u64 [s1 + 0xb0]\n 21439: t2 = u64 [s1 + 0x110]\n 21443: t0 = t2 <u a0\n 21446: a5 = u64 [s1 + 0xa0]\n 21450: a1 = u64 [s1 + 0x108]\n 21454: a3 = a1 ^ a5\n 21457: a2 = a1 <u a5\n 21460: a2 = t0 if a3 == 0\n 21463: a3 = u64 [s1 + 0x90]\n 21467: a4 = u64 [s1 + 0x100]\n 21471: ra = a4 - a3\n 21474: t1 = a4 <u a3\n 21477: a4 = u64 [s1 + 0x98]\n 21481: a3 = u64 [s1 + 0x118]\n 21485: a4 = a3 - a4\n 21488: a4 = a4 - t1\n 21491: a3 = ra <u a2\n 21494: a3 = a4 - a3\n 21497: a4 = ra - a2\n 21500: a2 = a1 - a5\n 21503: a2 = a2 - t0\n 21506: a1 = t2 - a0\n 21509: a2 = a2 | a3\n 21512: a3 = a1 | a4\n 21515: a3 = a3 | a2\n 21518: a2 = a2 | a4\n 21521: a3 = a3 >> 0x20\n 21524: a2 = a2 << 0x20\n 21527: a2 = a2 | a3\n 21530: jump @836 if a2 != 0\n      : @834 (gas: 1)\n 21533: jump @920\n      : @835 (gas: 30)\n 21536: t0 = u64 [s1 + 0x108]\n 21540: a0 = u64 [s1 + 0x118]\n 21544: t1 = a0 <u t0\n 21547: a0 = u64 [s1 + 0xd8]\n 21551: a1 = a4\n 21553: a3 = a4 ^ a0\n 21556: a2 = a4 <u a0\n 21559: a2 = t1 if a3 == 0\n 21562: a3 = u64 [s1 + 0x110]\n 21566: ra = t2 - a3\n 21569: a3 = t2 <u a3\n 21572: a5 = u64 [s1 + 0xe0]\n 21576: a4 = u64 [s1 + 0xc8]\n 21580: a4 = a4 - a5\n 21583: a5 = ra <u a2\n 21586: a3 = a3 + a5\n 21589: a3 = a4 - a3\n 21592: a5 = ra - a2\n 21595: a2 = a1 - a0\n 21598: a2 = a2 - t1\n 21601: a1 = u64 [s1 + 0x118]\n 21605: a1 = a1 - t0\n 21608: a2 = a2 | a3\n 21611: a3 = a1 | a5\n 21614: a3 = a3 | a2\n 21617: a2 = a2 | a5\n 21620: a3 = a3 >> 0x20\n 21623: a2 = a2 << 0x20\n 21626: a2 = a2 | a3\n 21629: jump @919 if a2 == 0\n      : @836 (gas: 1)\n 21633: trap\n      : @837 (gas: 10)\n 21634: a0 = s1 + 0x1098\n 21638: u64 [a0 + 952] = 0\n 21642: u64 [a0 + 944] = 0\n 21646: u64 [a0 + 936] = 0\n 21650: a2 = a0\n 21652: a0 = 0x4e487b7100000000\n 21662: a1 = s1 + 0x1440\n 21666: u64 [a2 + 0x3c0] = a0\n 21670: a0 = 0\n 21672: ra = 896, jump @4\n      : @838 [@dyn 448] (gas: 10)\n 21678: a0 = s1 + 0x1098\n 21682: u64 [a0 + 928] = 0\n 21686: u64 [a0 + 920] = 0\n 21690: u64 [a0 + 912] = 0\n 21694: a2 = a0\n 21696: a0 = 0x4\n 21699: a1 = s1 + 0x1420\n 21703: u64 [a2 + 904] = 0\n 21707: ra = 0x388\n 21711: jump @4\n      : @839 (gas: 5)\n 21714: a0 = 0x1\n 21717: a1 = u64 [s1 + 0x68]\n 21720: a2 = 0\n 21722: ecalli 6 // 'seal_return'\n 21724: fallthrough\n      : @840 (gas: 8)\n 21725: u64 [t1 + 88] = 0\n 21728: u64 [t1 + 80] = 0\n 21731: u64 [t1 + 72] = 0\n 21734: a0 = 0x4e487b7100000000\n 21744: a1 = s1 + 0x10e0\n 21748: u64 [t1 + 0x60] = a0\n 21751: a0 = 0\n 21753: ra = 898, jump @4\n      : @841 [@dyn 449] (gas: 3)\n 21759: t0 = 0x384\n 21763: a1 = s1 + 0x1098\n 21767: fallthrough\n      : @842 [@dyn 450] (gas: 9)\n 21768: u64 [a1 + 64] = 0\n 21771: u64 [a1 + 56] = 0\n 21774: u64 [a1 + 40] = 0x11\n 21778: a2 = a1\n 21780: a0 = 0x4\n 21783: a1 = s1 + 0x10c0\n 21787: u64 [a2 + 48] = 0\n 21790: ra = 0x388\n 21794: jump @4\n      : @843 (gas: 8)\n 21797: u64 [a2 + 312] = 0\n 21801: u64 [a2 + 304] = 0\n 21805: u64 [a2 + 296] = 0\n 21809: a0 = 0x4e487b7100000000\n 21819: a1 = s1 + 0x11c0\n 21823: u64 [a2 + 0x140] = a0\n 21827: a0 = 0\n 21829: ra = 902, jump @4\n      : @844 [@dyn 451] (gas: 9)\n 21835: a0 = s1 + 0x1098\n 21839: u64 [a0 + 288] = 0\n 21843: u64 [a0 + 280] = 0\n 21847: u64 [a0 + 272] = 0\n 21851: a2 = a0\n 21853: a0 = 0x4\n 21856: a1 = s1 + 0x11a0\n 21860: u64 [a2 + 264] = 0\n 21864: ra = 904, jump @4\n      : @845 [@dyn 452] (gas: 3)\n 21870: a0 = u64 [s1 + 0x28]\n 21873: a0 = i32 [a0]\n 21875: jump @847 if a0 >u 63\n      : @846 (gas: 3)\n 21879: a1 = u64 [s1 + 0x28]\n 21882: u32 [a1 + 0] = 0x40\n 21885: fallthrough\n      : @847 (gas: 5)\n 21886: a0 = 0x1\n 21889: a2 = 0x24\n 21892: a1 = u64 [s1 + 0x20]\n 21895: ecalli 6 // 'seal_return'\n 21897: fallthrough\n      : @848 (gas: 6)\n 21898: a1 = 0x20020\n 21903: i32 a1 = a1 + 0\n 21905: a0 = 0x1\n 21908: a2 = 0\n 21910: ecalli 6 // 'seal_return'\n 21912: jump @840\n      : @849 (gas: 6)\n 21915: a1 = 0x20020\n 21920: i32 a1 = a1 + 0\n 21922: a0 = 0x1\n 21925: a2 = 0\n 21927: ecalli 6 // 'seal_return'\n 21929: jump @840\n      : @850 (gas: 6)\n 21932: a1 = 0x20020\n 21937: i32 a1 = a1 + 0\n 21939: a0 = 0x1\n 21942: a2 = 0\n 21944: ecalli 6 // 'seal_return'\n 21946: jump @840\n      : @851 (gas: 6)\n 21949: a1 = 0x20020\n 21954: i32 a1 = a1 + 0\n 21956: a0 = 0x1\n 21959: a2 = 0\n 21961: ecalli 6 // 'seal_return'\n 21963: jump @840\n      : @852 (gas: 6)\n 21966: a1 = 0x20020\n 21971: i32 a1 = a1 + 0\n 21973: a0 = 0x1\n 21976: a2 = 0\n 21978: ecalli 6 // 'seal_return'\n 21980: jump @840\n      : @853 (gas: 6)\n 21983: a1 = 0x20020\n 21988: i32 a1 = a1 + 0\n 21990: a0 = 0x1\n 21993: a2 = 0\n 21995: ecalli 6 // 'seal_return'\n 21997: jump @840\n      : @854 (gas: 6)\n 22000: a1 = 0x20020\n 22005: i32 a1 = a1 + 0\n 22007: a0 = 0x1\n 22010: a2 = 0\n 22012: ecalli 6 // 'seal_return'\n 22014: jump @840\n      : @855 (gas: 6)\n 22017: a1 = 0x20020\n 22022: i32 a1 = a1 + 0\n 22024: a0 = 0x1\n 22027: a2 = 0\n 22029: ecalli 6 // 'seal_return'\n 22031: jump @840\n      : @856 (gas: 6)\n 22034: a1 = 0x20020\n 22039: i32 a1 = a1 + 0\n 22041: a0 = 0x1\n 22044: a2 = 0\n 22046: ecalli 6 // 'seal_return'\n 22048: jump @840\n      : @857 (gas: 6)\n 22051: a1 = 0x20020\n 22056: i32 a1 = a1 + 0\n 22058: a0 = 0x1\n 22061: a2 = 0\n 22063: ecalli 6 // 'seal_return'\n 22065: jump @840\n      : @858 (gas: 6)\n 22068: a1 = 0x20020\n 22073: i32 a1 = a1 + 0\n 22075: a0 = 0x1\n 22078: a2 = 0\n 22080: ecalli 6 // 'seal_return'\n 22082: jump @840\n      : @859 (gas: 6)\n 22085: a1 = 0x20020\n 22090: i32 a1 = a1 + 0\n 22092: a0 = 0x1\n 22095: a2 = 0\n 22097: ecalli 6 // 'seal_return'\n 22099: jump @840\n      : @860 (gas: 6)\n 22102: a1 = 0x20020\n 22107: i32 a1 = a1 + 0\n 22109: a0 = 0x1\n 22112: a2 = 0\n 22114: ecalli 6 // 'seal_return'\n 22116: jump @840\n      : @861 (gas: 5)\n 22119: a1 = 0x20020\n 22124: i32 a1 = a1 + 0\n 22126: a0 = 0x1\n 22129: ecalli 6 // 'seal_return'\n 22131: fallthrough\n      : @862 (gas: 6)\n 22132: a1 = 0x20020\n 22137: i32 a1 = a1 + 0\n 22139: a0 = 0x1\n 22142: a2 = 0\n 22144: ecalli 6 // 'seal_return'\n 22146: jump @840\n      : @863 (gas: 6)\n 22149: a1 = 0x20020\n 22154: i32 a1 = a1 + 0\n 22156: a0 = 0x1\n 22159: a2 = 0\n 22161: ecalli 6 // 'seal_return'\n 22163: jump @840\n      : @864 (gas: 6)\n 22166: a1 = 0x20020\n 22171: i32 a1 = a1 + 0\n 22173: a0 = 0x1\n 22176: a2 = 0\n 22178: ecalli 6 // 'seal_return'\n 22180: jump @840\n      : @865 (gas: 6)\n 22183: a1 = 0x20020\n 22188: i32 a1 = a1 + 0\n 22190: a0 = 0x1\n 22193: a2 = 0\n 22195: ecalli 6 // 'seal_return'\n 22197: jump @840\n      : @866 (gas: 6)\n 22200: a1 = 0x20020\n 22205: i32 a1 = a1 + 0\n 22207: a0 = 0x1\n 22210: a2 = 0\n 22212: ecalli 6 // 'seal_return'\n 22214: jump @840\n      : @867 (gas: 6)\n 22217: a1 = 0x20020\n 22222: i32 a1 = a1 + 0\n 22224: a0 = 0x1\n 22227: a2 = 0\n 22229: ecalli 6 // 'seal_return'\n 22231: jump @840\n      : @868 (gas: 8)\n 22234: u64 [s1 + 1744] = 0\n 22238: u64 [s1 + 1736] = 0\n 22242: u64 [s1 + 1728] = 0\n 22246: a0 = 0x4e487b7100000000\n 22256: a1 = s1 + 0x6c0\n 22260: u64 [s1 + 0x6d8] = a0\n 22264: a0 = 0\n 22266: ra = 906, jump @4\n      : @869 [@dyn 453] (gas: 7)\n 22272: u64 [s1 + 1720] = 0\n 22276: u64 [s1 + 1712] = 0\n 22280: u64 [s1 + 1696] = 0x41\n 22285: a0 = 0x4\n 22288: a1 = s1 + 0x6a0\n 22292: u64 [s1 + 1704] = 0\n 22296: ra = 908, jump @4\n      : @870 [@dyn 454] (gas: 3)\n 22302: a0 = u64 [s1 + 0xf8]\n 22306: a0 = i32 [a0]\n 22308: jump @872 if a0 >u 63\n      : @871 (gas: 3)\n 22312: a1 = u64 [s1 + 0xf8]\n 22316: u32 [a1 + 0] = 0x40\n 22319: fallthrough\n      : @872 (gas: 5)\n 22320: a0 = 0x1\n 22323: a2 = 0x24\n 22326: a1 = u64 [s1 + 0x100]\n 22330: ecalli 6 // 'seal_return'\n 22332: fallthrough\n      : @873 (gas: 6)\n 22333: a1 = 0x20020\n 22338: i32 a1 = a1 + 0\n 22340: a0 = 0x1\n 22343: a2 = 0\n 22345: ecalli 6 // 'seal_return'\n 22347: jump @840\n      : @874 (gas: 6)\n 22350: a1 = 0x20020\n 22355: i32 a1 = a1 + 0\n 22357: a0 = 0x1\n 22360: a2 = 0\n 22362: ecalli 6 // 'seal_return'\n 22364: jump @840\n      : @875 (gas: 6)\n 22367: a1 = 0x20020\n 22372: i32 a1 = a1 + 0\n 22374: a0 = 0x1\n 22377: a2 = 0\n 22379: ecalli 6 // 'seal_return'\n 22381: jump @840\n      : @876 (gas: 6)\n 22384: a1 = 0x20020\n 22389: i32 a1 = a1 + 0\n 22391: a0 = 0x1\n 22394: a2 = 0\n 22396: ecalli 6 // 'seal_return'\n 22398: jump @840\n      : @877 (gas: 6)\n 22401: a1 = 0x20020\n 22406: i32 a1 = a1 + 0\n 22408: a0 = 0x1\n 22411: a2 = 0\n 22413: ecalli 6 // 'seal_return'\n 22415: jump @840\n      : @878 (gas: 6)\n 22418: a1 = 0x20020\n 22423: i32 a1 = a1 + 0\n 22425: a0 = 0x1\n 22428: a2 = 0\n 22430: ecalli 6 // 'seal_return'\n 22432: jump @840\n      : @879 (gas: 6)\n 22435: a1 = 0x20020\n 22440: i32 a1 = a1 + 0\n 22442: a0 = 0x1\n 22445: a2 = 0\n 22447: ecalli 6 // 'seal_return'\n 22449: jump @840\n      : @880 (gas: 6)\n 22452: a1 = 0x20020\n 22457: i32 a1 = a1 + 0\n 22459: a0 = 0x1\n 22462: a2 = 0\n 22464: ecalli 6 // 'seal_return'\n 22466: jump @840\n      : @881 (gas: 1)\n 22469: jump @912 if a0 != 268786717\n      : @882 (gas: 11)\n 22477: a0 = s1 + 0x209c\n 22481: u64 [a0 + 28] = 0\n 22484: u64 [a0 + 20] = 0\n 22487: u64 [a0 + 12] = 0\n 22490: u64 [a0 + 4] = 0\n 22493: a0 = s1 + 0x2000\n 22497: i32 a0 = a0 + 0xa0\n 22501: ra = 0x38e\n 22505: ecalli 9 // 'value_transferred'\n 22507: t0 = 0x390\n 22511: jump @1094\n      : @883 [@dyn 455] (gas: 1)\n 22514: t0 = 912, jump @1094\n      : @884 [@dyn 456] (gas: 1)\n 22520: t0 = 914, jump @1096\n      : @885 [@dyn 457] (gas: 1)\n 22526: jump @922 if a0 == 0\n      : @886 (gas: 6)\n 22530: a1 = 0x20020\n 22535: i32 a1 = a1 + 0\n 22537: a0 = 0x1\n 22540: a2 = 0\n 22542: ecalli 6 // 'seal_return'\n 22544: jump @840\n      : @887 (gas: 6)\n 22547: a1 = 0x20020\n 22552: i32 a1 = a1 + 0\n 22554: a0 = 0x1\n 22557: a2 = 0\n 22559: ecalli 6 // 'seal_return'\n 22561: jump @840\n      : @888 (gas: 6)\n 22564: a1 = 0x20020\n 22569: i32 a1 = a1 + 0\n 22571: a0 = 0x1\n 22574: a2 = 0\n 22576: ecalli 6 // 'seal_return'\n 22578: jump @840\n      : @889 (gas: 6)\n 22581: a1 = 0x20020\n 22586: i32 a1 = a1 + 0\n 22588: a0 = 0x1\n 22591: a2 = 0\n 22593: ecalli 6 // 'seal_return'\n 22595: jump @840\n      : @890 (gas: 6)\n 22598: a1 = 0x20020\n 22603: i32 a1 = a1 + 0\n 22605: a0 = 0x1\n 22608: a2 = 0\n 22610: ecalli 6 // 'seal_return'\n 22612: jump @840\n      : @891 (gas: 6)\n 22615: a1 = 0x20020\n 22620: i32 a1 = a1 + 0\n 22622: a0 = 0x1\n 22625: a2 = 0\n 22627: ecalli 6 // 'seal_return'\n 22629: jump @840\n      : @892 (gas: 6)\n 22632: a1 = 0x20020\n 22637: i32 a1 = a1 + 0\n 22639: a0 = 0x1\n 22642: a2 = 0\n 22644: ecalli 6 // 'seal_return'\n 22646: jump @840\n      : @893 (gas: 6)\n 22649: a1 = 0x20020\n 22654: i32 a1 = a1 + 0\n 22656: a0 = 0x1\n 22659: a2 = 0\n 22661: ecalli 6 // 'seal_return'\n 22663: jump @840\n      : @894 (gas: 6)\n 22666: a1 = 0x20020\n 22671: i32 a1 = a1 + 0\n 22673: a0 = 0x1\n 22676: a2 = 0\n 22678: ecalli 6 // 'seal_return'\n 22680: jump @840\n      : @895 (gas: 6)\n 22683: a1 = 0x20020\n 22688: i32 a1 = a1 + 0\n 22690: a0 = 0x1\n 22693: a2 = 0\n 22695: ecalli 6 // 'seal_return'\n 22697: jump @840\n      : @896 (gas: 6)\n 22700: a1 = 0x20020\n 22705: i32 a1 = a1 + 0\n 22707: a0 = 0x1\n 22710: a2 = 0\n 22712: ecalli 6 // 'seal_return'\n 22714: jump @840\n      : @897 (gas: 6)\n 22717: a1 = 0x20020\n 22722: i32 a1 = a1 + 0\n 22724: a0 = 0x1\n 22727: a2 = 0\n 22729: ecalli 6 // 'seal_return'\n 22731: jump @840\n      : @898 (gas: 6)\n 22734: a1 = 0x20020\n 22739: i32 a1 = a1 + 0\n 22741: a0 = 0x1\n 22744: a2 = 0\n 22746: ecalli 6 // 'seal_return'\n 22748: jump @840\n      : @899 (gas: 6)\n 22751: a1 = 0x20020\n 22756: i32 a1 = a1 + 0\n 22758: a0 = 0x1\n 22761: a2 = 0\n 22763: ecalli 6 // 'seal_return'\n 22765: jump @840\n      : @900 (gas: 6)\n 22768: a1 = 0x20020\n 22773: i32 a1 = a1 + 0\n 22775: a0 = 0x1\n 22778: a2 = 0\n 22780: ecalli 6 // 'seal_return'\n 22782: jump @840\n      : @901 (gas: 6)\n 22785: a1 = 0x20020\n 22790: i32 a1 = a1 + 0\n 22792: a0 = 0x1\n 22795: a2 = 0\n 22797: ecalli 6 // 'seal_return'\n 22799: jump @840\n      : @902 (gas: 6)\n 22802: a1 = 0x20020\n 22807: i32 a1 = a1 + 0\n 22809: a0 = 0x1\n 22812: a2 = 0\n 22814: ecalli 6 // 'seal_return'\n 22816: jump @840\n      : @903 (gas: 6)\n 22819: a1 = 0x20020\n 22824: i32 a1 = a1 + 0\n 22826: a0 = 0x1\n 22829: a2 = 0\n 22831: ecalli 6 // 'seal_return'\n 22833: jump @840\n      : @904 (gas: 6)\n 22836: a1 = 0x20020\n 22841: i32 a1 = a1 + 0\n 22843: a0 = 0x1\n 22846: a2 = 0\n 22848: ecalli 6 // 'seal_return'\n 22850: jump @840\n      : @905 (gas: 6)\n 22853: a1 = 0x20020\n 22858: i32 a1 = a1 + 0\n 22860: a0 = 0x1\n 22863: a2 = 0\n 22865: ecalli 6 // 'seal_return'\n 22867: jump @840\n      : @906 (gas: 6)\n 22870: a1 = 0x20020\n 22875: i32 a1 = a1 + 0\n 22877: a0 = 0x1\n 22880: a2 = 0\n 22882: ecalli 6 // 'seal_return'\n 22884: jump @840\n      : @907 (gas: 6)\n 22887: a1 = 0x20020\n 22892: i32 a1 = a1 + 0\n 22894: a0 = 0x1\n 22897: a2 = 0\n 22899: ecalli 6 // 'seal_return'\n 22901: jump @840\n      : @908 (gas: 6)\n 22904: a1 = 0x20020\n 22909: i32 a1 = a1 + 0\n 22911: a0 = 0x1\n 22914: a2 = 0\n 22916: ecalli 6 // 'seal_return'\n 22918: jump @840\n      : @909 (gas: 6)\n 22921: a1 = 0x20020\n 22926: i32 a1 = a1 + 0\n 22928: a0 = 0x1\n 22931: a2 = 0\n 22933: ecalli 6 // 'seal_return'\n 22935: jump @840\n      : @910 (gas: 6)\n 22938: a1 = 0x20020\n 22943: i32 a1 = a1 + 0\n 22945: a0 = 0x1\n 22948: a2 = 0\n 22950: ecalli 6 // 'seal_return'\n 22952: jump @840\n      : @911 (gas: 6)\n 22955: a1 = 0x20020\n 22960: i32 a1 = a1 + 0\n 22962: a0 = 0x1\n 22965: a2 = 0\n 22967: ecalli 6 // 'seal_return'\n 22969: jump @840\n      : @912 (gas: 1)\n 22972: jump @918 if a0 != 602365732\n      : @913 (gas: 11)\n 22979: a0 = s1 + 0x209c\n 22983: u64 [a0 + 540] = 0\n 22987: u64 [a0 + 532] = 0\n 22991: u64 [a0 + 524] = 0\n 22995: u64 [a0 + 516] = 0\n 22999: a0 = s1 + 0x2000\n 23003: i32 a0 = a0 + 0x2a0\n 23007: ra = 0x394\n 23011: ecalli 9 // 'value_transferred'\n 23013: t0 = 0x396\n 23017: jump @1093\n      : @914 [@dyn 458] (gas: 1)\n 23020: t0 = 918, jump @1093\n      : @915 [@dyn 459] (gas: 1)\n 23026: t0 = 920, jump @1096\n      : @916 [@dyn 460] (gas: 1)\n 23032: jump @924 if a0 == 0\n      : @917 (gas: 6)\n 23035: a1 = 0x20020\n 23040: i32 a1 = a1 + 0\n 23042: a0 = 0x1\n 23045: a2 = 0\n 23047: ecalli 6 // 'seal_return'\n 23049: jump @840\n      : @918 (gas: 6)\n 23052: a1 = 0x20020\n 23057: i32 a1 = a1 + 0\n 23059: a0 = 0x1\n 23062: a2 = 0\n 23064: ecalli 6 // 'seal_return'\n 23066: jump @840\n      : @919 (gas: 4)\n 23069: a0 = t0\n 23071: u64 [s1 + 0x118] = a1\n 23075: ra = 0x39a\n 23079: jump @11\n      : @920 (gas: 2)\n 23082: u64 [s1 + 0x118] = a1\n 23086: ra = 922, jump @11\n      : @921 [@dyn 461] (gas: 5)\n 23092: i32 a1 = a0 + 0\n 23094: a2 = i32 [s1 + 0x118]\n 23098: a0 = 0\n 23100: ecalli 6 // 'seal_return'\n 23102: jump @801\n      : @922 (gas: 3)\n 23105: a0 = u64 [s1 + 0x118]\n 23109: a0 = i32 [a0]\n 23111: jump @926 if a0 >u 3\n      : @923 (gas: 6)\n 23115: a1 = 0x20020\n 23120: i32 a1 = a1 + 0\n 23122: a0 = 0x1\n 23125: a2 = 0\n 23127: ecalli 6 // 'seal_return'\n 23129: jump @840\n      : @924 (gas: 3)\n 23132: a0 = u64 [s1 + 0x118]\n 23136: a0 = i32 [a0]\n 23138: jump @941 if a0 >u 3\n      : @925 (gas: 6)\n 23143: a1 = 0x20020\n 23148: i32 a1 = a1 + 0\n 23150: a0 = 0x1\n 23153: a2 = 0\n 23155: ecalli 6 // 'seal_return'\n 23157: jump @840\n      : @926 (gas: 8)\n 23160: a0 = 0x30020\n 23165: u64 [s1 + 0x118] = a0\n 23169: i32 a0 = a0 + 0\n 23171: ra = 0x39c\n 23175: ecalli 3 // 'caller'\n 23177: a2 = u64 [s1 + 0x118]\n 23181: t0 = 0x39e\n 23185: jump @1053\n      : @927 [@dyn 462] (gas: 2)\n 23188: a2 = u64 [s1 + 0x118]\n 23192: t0 = 926, jump @1053\n      : @928 [@dyn 463] (gas: 7)\n 23198: u64 [s1 + 472] = 0\n 23202: u64 [s1 + 0x1d0] = a1\n 23206: u64 [s1 + 0x1c8] = a0\n 23210: a1 = s1 + 0x1c0\n 23214: u64 [s1 + 0x1c0] = a3\n 23218: a0 = 0\n 23220: ra = 928, jump @4\n      : @929 [@dyn 464] (gas: 7)\n 23226: u64 [s1 + 440] = 0\n 23230: u64 [s1 + 432] = 0\n 23234: u64 [s1 + 416] = 0x1\n 23239: a0 = 0x20\n 23242: a1 = s1 + 0x1a0\n 23246: u64 [s1 + 424] = 0\n 23250: ra = 930, jump @4\n      : @930 [@dyn 465] (gas: 4)\n 23256: a0 = 0x20014\n 23261: u64 [s1 + 0x118] = a0\n 23265: a0 = i32 [0x20014]\n 23270: jump @932 if a0 >u 63\n      : @931 (gas: 3)\n 23274: a1 = u64 [s1 + 0x118]\n 23278: u32 [a1 + 0] = 0x40\n 23281: fallthrough\n      : @932 (gas: 15)\n 23282: a0 = sp + 0xffffffffffffffe0\n 23285: a2 = a0 & 0xffffffffffffffe0\n 23288: u64 [s1 + 0x100] = a2\n 23292: sp = a2\n 23294: a0 = 0x20020\n 23299: u64 [s1 + 0x108] = a0\n 23303: i32 a0 = a0 + 0\n 23305: i32 a2 = a2 + 0\n 23307: a1 = 0x40\n 23310: u64 [s1 + 0x110] = a0\n 23314: ra = 0x3a4\n 23318: ecalli 5 // 'hash_keccak_256'\n 23320: a3 = u64 [s1 + 0x100]\n 23324: t0 = 0x3a6\n 23328: jump @1060\n      : @933 [@dyn 466] (gas: 2)\n 23331: a3 = u64 [s1 + 0x100]\n 23335: t0 = 934, jump @1060\n      : @934 [@dyn 467] (gas: 8)\n 23341: a5 = a1 + 0x4\n 23344: u64 [a5 + 0x20] = a3\n 23347: u64 [a5 + 0x28] = a2\n 23350: u64 [a5 + 0x30] = a4\n 23353: u64 [a5 + 0x38] = a0\n 23356: a0 = s1 + 0x180\n 23360: a1 = s1 + 0x20c0\n 23364: ra = 936, jump @6\n      : @935 [@dyn 468] (gas: 2)\n 23370: a0 = u8 [s1 + 0x180]\n 23374: jump @948 if a0 <=u 2\n      : @936 (gas: 8)\n 23379: u64 [s1 + 336] = 0\n 23383: u64 [s1 + 328] = 0\n 23387: u64 [s1 + 320] = 0\n 23391: a0 = 0x4e487b7100000000\n 23401: a1 = s1 + 0x140\n 23405: u64 [s1 + 0x158] = a0\n 23409: a0 = 0\n 23411: ra = 938, jump @4\n      : @937 [@dyn 469] (gas: 7)\n 23417: u64 [s1 + 312] = 0\n 23421: u64 [s1 + 304] = 0\n 23425: u64 [s1 + 288] = 0x21\n 23430: a0 = 0x4\n 23433: a1 = s1 + 0x120\n 23437: u64 [s1 + 296] = 0\n 23441: ra = 940, jump @4\n      : @938 [@dyn 470] (gas: 3)\n 23447: a0 = u64 [s1 + 0x118]\n 23451: a0 = i32 [a0]\n 23453: jump @940 if a0 >u 63\n      : @939 (gas: 3)\n 23457: a1 = u64 [s1 + 0x118]\n 23461: u32 [a1 + 0] = 0x40\n 23464: fallthrough\n      : @940 (gas: 5)\n 23465: a0 = 0x1\n 23468: a2 = 0x24\n 23471: a1 = u64 [s1 + 0x110]\n 23475: ecalli 6 // 'seal_return'\n 23477: fallthrough\n      : @941 (gas: 8)\n 23478: a0 = s1 + 0x209c\n 23482: u64 [a0 + 572] = 0\n 23486: u64 [a0 + 564] = 0\n 23490: u64 [a0 + 556] = 0\n 23494: u64 [a0 + 548] = 0\n 23498: a0 = s1 + 0x680\n 23502: a1 = s1 + 0x22c0\n 23506: ra = 942, jump @6\n      : @942 [@dyn 471] (gas: 3)\n 23512: a0 = u64 [s1 + 0x680]\n 23516: i32 a1 = a0 + 0\n 23518: jump @952 if a1 != 4294967295\n      : @943 (gas: 8)\n 23523: u64 [s1 + 1648] = 0\n 23527: u64 [s1 + 1640] = 0\n 23531: u64 [s1 + 1632] = 0\n 23535: a0 = 0x4e487b7100000000\n 23545: a1 = s1 + 0x660\n 23549: u64 [s1 + 0x678] = a0\n 23553: a0 = 0\n 23555: ra = 944, jump @4\n      : @944 [@dyn 472] (gas: 7)\n 23561: u64 [s1 + 1624] = 0\n 23565: u64 [s1 + 1616] = 0\n 23569: u64 [s1 + 1600] = 0x11\n 23574: a0 = 0x4\n 23577: a1 = s1 + 0x640\n 23581: u64 [s1 + 1608] = 0\n 23585: ra = 946, jump @4\n      : @945 [@dyn 473] (gas: 2)\n 23591: a1 = i32 [0x20014]\n 23596: jump @947 if a1 >u 63\n      : @946 (gas: 2)\n 23600: u32 [0x20014] = 0x40\n 23606: fallthrough\n      : @947 (gas: 6)\n 23607: a1 = 0x20020\n 23612: i32 a1 = a1 + 0\n 23614: a0 = 0x1\n 23617: a2 = 0x24\n 23620: ecalli 6 // 'seal_return'\n 23622: fallthrough\n      : @948 (gas: 7)\n 23623: u64 [s1 + 376] = 0\n 23627: u64 [s1 + 368] = 0\n 23631: u64 [s1 + 0x160] = a0\n 23635: a0 = 0x80\n 23639: a1 = s1 + 0x160\n 23643: u64 [s1 + 360] = 0\n 23647: ra = 948, jump @4\n      : @949 [@dyn 474] (gas: 3)\n 23653: a0 = u64 [s1 + 0x118]\n 23657: a0 = i32 [a0]\n 23659: jump @951 if a0 >u 159\n      : @950 (gas: 5)\n 23664: a1 = u64 [s1 + 0x118]\n 23668: u32 [a1 + 0] = 0xa0\n 23672: a0 = u64 [s1 + 0x108]\n 23676: i32 a1 = a0 + 0x80\n 23680: jump @800\n      : @951 (gas: 3)\n 23683: a0 = u64 [s1 + 0x108]\n 23687: i32 a1 = a0 + 0x80\n 23691: jump @800\n      : @952 (gas: 23)\n 23694: a1 = 0xffffffff\n 23704: a5 = s1 + 0x600\n 23708: a2 = u64 [a5 + 0x98]\n 23712: a3 = u64 [a5 + 0x90]\n 23716: a4 = u64 [a5 + 0x88]\n 23720: a5 = a0 + 0x1\n 23723: a1 = a1 & a5\n 23726: a0 = a0 >> 0x20\n 23729: a0 = a0 << 0x20\n 23732: a0 = a0 | a1\n 23735: a1 = s1 + 0x209c\n 23739: u64 [a1 + 604] = 0\n 23743: u64 [a1 + 596] = 0\n 23747: u64 [a1 + 588] = 0\n 23751: u64 [a1 + 580] = 0\n 23755: a5 = a1 + 0x204\n 23759: u64 [a5 + 0x68] = a4\n 23762: u64 [a5 + 0x70] = a3\n 23765: u64 [a5 + 0x78] = a2\n 23768: u64 [a5 + 0x60] = a0\n 23771: a0 = s1 + 0x22e0\n 23775: a1 = s1 + 0x2300\n 23779: ra = 950, jump @10\n      : @953 [@dyn 475] (gas: 6)\n 23785: a1 = 0x20020\n 23790: i32 a1 = a1 + 0\n 23792: a0 = 0\n 23794: a2 = 0\n 23796: ecalli 6 // 'seal_return'\n 23798: jump @840\n      : @954 (gas: 3)\n 23801: a1 = u32 [a1]\n 23803: a2 = 0xfffffffd\n 23813: jump @956 if a2 <u a1\n      : @955 (gas: 8)\n 23816: a2 = a1 + 0x2\n 23819: a1 = a2 <u a1\n 23822: u64 [a0 + 24] = 0\n 23825: u64 [a0] = a2\n 23827: u64 [a0 + 0x8] = a1\n 23830: a1 = 0 if a1 != 0\n 23832: u64 [a0 + 0x10] = a1\n 23835: ret\n      : @956 (gas: 6)\n 23837: sp = sp + 0xffffffffffffffb0\n 23840: u64 [sp + 0x48] = ra\n 23843: u64 [sp + 0x40] = s0\n 23846: s0 = sp + 0x50\n 23849: sp = sp & 0xfffffffffffffff0\n 23852: t0 = 952, jump @1061\n      : @957 [@dyn 476] (gas: 1)\n 23858: ra = 954, jump @4\n      : @958 [@dyn 477] (gas: 1)\n 23864: t0 = 956, jump @1095\n      : @959 [@dyn 478] (gas: 1)\n 23870: ra = 958, jump @4\n      : @960 [@dyn 479] (gas: 2)\n 23876: a1 = i32 [0x20014]\n 23881: jump @962 if a1 >u 63\n      : @961 (gas: 2)\n 23885: u32 [0x20014] = 0x40\n 23891: fallthrough\n      : @962 (gas: 7)\n 23892: a1 = 0x20020\n 23897: i32 a1 = a1 + 0\n 23899: a0 = 0x1\n 23902: a2 = 0x24\n 23905: ra = 0x3c0\n 23909: ecalli 6 // 'seal_return'\n 23911: fallthrough\n      : @963 [@dyn 480] (gas: 19)\n 23912: sp = sp + 0xffffffffffffff90\n 23915: u64 [sp + 0x68] = ra\n 23918: u64 [sp + 0x60] = s0\n 23921: s0 = sp + 0x70\n 23924: sp = sp & 0xfffffffffffffff0\n 23927: a3 = u64 [a0 + 0x18]\n 23930: a2 = u64 [a0 + 0x10]\n 23933: t1 = u64 [a0]\n 23935: a0 = u64 [a0 + 0x8]\n 23938: a4 = a3 >u 0\n 23940: a5 = a2 >u 0\n 23942: a5 = a4 if a3 != 0\n 23945: t0 = a0 >u 0\n 23947: a4 = t1 <u 0xffffffffffffffc0\n 23950: a4 = a4 ^ 0x1\n 23953: a4 = t0 if a0 != 0\n 23956: a1 = a2 | a3\n 23959: a4 = a5 if a1 != 0\n 23962: jump @966 if a4 != 0\n      : @964 (gas: 15)\n 23965: a1 = t1 + 0x40\n 23968: a4 = a1 <u t1\n 23971: a5 = a0 + a4\n 23974: a0 = a5 <u a0\n 23977: a0 = a4 if a4 == 0\n 23980: a0 = a0 + a2\n 23983: a2 = a0 <u a2\n 23986: a2 = a2 + a3\n 23989: u64 [sp + 0x40] = a1\n 23992: u64 [sp + 0x48] = a5\n 23995: u64 [sp + 0x50] = a0\n 23998: a0 = 0x40\n 24001: a1 = sp + a0\n 24004: u64 [sp + 0x58] = a2\n 24007: ra = 962, jump @4\n      : @965 [@dyn 481] (gas: 5)\n 24013: sp = s0 + 0xffffffffffffff90\n 24016: ra = u64 [sp + 0x68]\n 24019: s0 = u64 [sp + 0x60]\n 24022: sp = sp + 0x70\n 24025: ret\n      : @966 (gas: 1)\n 24027: t0 = 964, jump @1061\n      : @967 [@dyn 482] (gas: 1)\n 24033: ra = 966, jump @4\n      : @968 [@dyn 483] (gas: 7)\n 24039: u64 [sp + 24] = 0\n 24042: u64 [sp + 16] = 0\n 24045: u64 [sp + 0] = 0x41\n 24048: a0 = 0x4\n 24051: a1 = sp\n 24053: u64 [sp + 8] = 0\n 24056: ra = 968, jump @4\n      : @969 [@dyn 484] (gas: 2)\n 24062: a1 = i32 [0x20014]\n 24067: jump @971 if a1 >u 63\n      : @970 (gas: 2)\n 24071: u32 [0x20014] = 0x40\n 24077: fallthrough\n      : @971 (gas: 7)\n 24078: a1 = 0x20020\n 24083: i32 a1 = a1 + 0\n 24085: a0 = 0x1\n 24088: a2 = 0x24\n 24091: ra = 0x3ca\n 24095: ecalli 6 // 'seal_return'\n 24097: fallthrough\n      : @972 [@dyn 485] (gas: 46)\n 24098: sp = sp + 0xffffffffffffff70\n 24102: u64 [sp + 0x88] = ra\n 24106: u64 [sp + 0x80] = s0\n 24110: u64 [sp + 0x78] = s1\n 24113: s0 = sp + 0x90\n 24117: sp = sp & 0xfffffffffffffff0\n 24120: t0 = a0\n 24122: a2 = u64 [a1]\n 24124: t2 = u64 [a0 + 0x8]\n 24127: a5 = u64 [a1 + 0x8]\n 24130: t1 = u64 [a0]\n 24132: a3 = a2 + 0x1f\n 24135: ra = a3 <u a2\n 24138: a2 = a5 + ra\n 24141: a3 = a3 & 0xffffffffffffffe0\n 24144: u64 [sp + 0x8] = t1\n 24147: t1 = t1 + a3\n 24150: a4 = t1 <u a3\n 24153: a3 = a2 + t2\n 24156: a3 = a3 + a4\n 24159: s1 = a3 ^ a2\n 24162: a0 = a3 <u a2\n 24165: a0 = a4 if s1 == 0\n 24168: a4 = u64 [t0 + 0x18]\n 24171: a5 = a2 <u a5\n 24174: s1 = u64 [a1 + 0x10]\n 24177: t0 = u64 [t0 + 0x10]\n 24180: a1 = u64 [a1 + 0x18]\n 24183: a5 = ra if ra == 0\n 24186: a5 = a5 + s1\n 24189: s1 = a5 <u s1\n 24192: a2 = a5 + t0\n 24195: a0 = a0 + a2\n 24198: a5 = a2 <u a5\n 24201: a2 = a0 <u a2\n 24204: a1 = a1 + a4\n 24207: a1 = a1 + s1\n 24210: a1 = a1 + a5\n 24213: a5 = a1 + a2\n 24216: a1 = a5 >u 0\n 24218: a2 = a0 >u 0\n 24220: a2 = a1 if a5 != 0\n 24223: a1 = a0 | a5\n 24226: s1 = a3 >u 0\n 24228: s1 = a2 if a1 != 0\n 24231: jump @976 if s1 != 0\n      : @973 (gas: 13)\n 24234: a1 = u64 [sp + 0x8]\n 24237: a1 = t1 <u a1\n 24240: a2 = a3 ^ t2\n 24243: s1 = a3 <u t2\n 24246: s1 = a1 if a2 == 0\n 24249: a1 = a0 <u t0\n 24252: a2 = a5 ^ a4\n 24255: a4 = a5 <u a4\n 24258: a4 = a1 if a2 == 0\n 24261: a1 = a0 ^ t0\n 24264: a1 = a1 | a2\n 24267: a4 = s1 if a1 == 0\n 24270: jump @976 if a4 != 0\n      : @974 (gas: 7)\n 24273: u64 [sp + 0x50] = t1\n 24276: u64 [sp + 0x58] = a3\n 24279: u64 [sp + 0x60] = a0\n 24282: a0 = 0x40\n 24285: a1 = sp + 0x50\n 24288: u64 [sp + 0x68] = a5\n 24291: ra = 972, jump @4\n      : @975 [@dyn 486] (gas: 6)\n 24297: sp = s0 + 0xffffffffffffff70\n 24301: ra = u64 [sp + 0x88]\n 24305: s0 = u64 [sp + 0x80]\n 24309: s1 = u64 [sp + 0x78]\n 24312: sp = sp + 0x90\n 24316: ret\n      : @976 (gas: 8)\n 24318: u64 [sp + 64] = 0\n 24321: u64 [sp + 56] = 0\n 24324: u64 [sp + 48] = 0\n 24327: a0 = 0x4e487b7100000000\n 24337: a1 = sp + 0x30\n 24340: u64 [sp + 0x48] = a0\n 24343: a0 = 0\n 24345: ra = 974, jump @4\n      : @977 [@dyn 487] (gas: 7)\n 24351: u64 [sp + 40] = 0\n 24354: u64 [sp + 32] = 0\n 24357: u64 [sp + 16] = 0x41\n 24361: a0 = 0x4\n 24364: a1 = sp + 0x10\n 24367: u64 [sp + 24] = 0\n 24370: ra = 976, jump @4\n      : @978 [@dyn 488] (gas: 2)\n 24376: a1 = i32 [0x20014]\n 24381: jump @980 if a1 >u 63\n      : @979 (gas: 2)\n 24385: u32 [0x20014] = 0x40\n 24391: fallthrough\n      : @980 (gas: 7)\n 24392: a1 = 0x20020\n 24397: i32 a1 = a1 + 0\n 24399: a0 = 0x1\n 24402: a2 = 0x24\n 24405: ra = 0x3d2\n 24409: ecalli 6 // 'seal_return'\n 24411: fallthrough\n      : @981 [@dyn 489] (gas: 31)\n 24412: sp = sp + 0xfffffffffffffee0\n 24416: u64 [sp + 0x118] = ra\n 24420: u64 [sp + 0x110] = s0\n 24424: u64 [sp + 0x108] = s1\n 24428: s0 = sp + 0x120\n 24432: sp = sp & 0xffffffffffffffe0\n 24435: s1 = sp\n 24437: u64 [s1 + 0x38] = a0\n 24440: a0 = u64 [a2]\n 24442: u64 [s1 + 0x48] = a0\n 24445: a0 = u64 [a2 + 0x8]\n 24448: u64 [s1 + 0x40] = a0\n 24451: a0 = u64 [a2 + 0x10]\n 24454: u64 [s1 + 0x50] = a0\n 24457: a0 = u64 [a2 + 0x18]\n 24460: u64 [s1 + 0x58] = a0\n 24463: a0 = u64 [a1 + 0x18]\n 24466: a2 = u64 [a1 + 0x10]\n 24469: a3 = u64 [a1 + 0x8]\n 24472: a1 = u64 [a1]\n 24474: u64 [s1 + 0x30] = a0\n 24477: u64 [s1 + 0xf8] = a0\n 24481: u64 [s1 + 0x28] = a2\n 24484: u64 [s1 + 0xf0] = a2\n 24488: u64 [s1 + 0x20] = a3\n 24491: u64 [s1 + 0xe8] = a3\n 24495: u64 [s1 + 0x18] = a1\n 24498: u64 [s1 + 0xe0] = a1\n 24502: a0 = s1 + 0xc0\n 24506: a1 = s1 + 0xe0\n 24510: ra = 980, jump @6\n      : @982 [@dyn 490] (gas: 20)\n 24516: a0 = u64 [s1 + 0xd8]\n 24520: t0 = u64 [s1 + 0xc0]\n 24524: a2 = u64 [s1 + 0xd0]\n 24528: a3 = u64 [s1 + 0xc8]\n 24532: a1 = u64 [s1 + 0x58]\n 24535: a4 = a0 ^ a1\n 24538: a1 = a1 <u a0\n 24541: a0 = u64 [s1 + 0x50]\n 24544: a5 = a0 <u a2\n 24547: a5 = a1 if a4 != 0\n 24550: a1 = u64 [s1 + 0x40]\n 24553: t1 = a3 ^ a1\n 24556: a3 = a1 <u a3\n 24559: a1 = u64 [s1 + 0x48]\n 24562: a1 = a1 <u t0\n 24565: a1 = a3 if t1 != 0\n 24568: a0 = a0 ^ a2\n 24571: a0 = a0 | a4\n 24574: a1 = a5 if a0 != 0\n 24577: jump @987 if a1 == 0\n      : @983 (gas: 11)\n 24581: a0 = u64 [s1 + 0x18]\n 24584: u64 [s1 + 0x60] = a0\n 24587: a0 = u64 [s1 + 0x20]\n 24590: u64 [s1 + 0x68] = a0\n 24593: a0 = u64 [s1 + 0x28]\n 24596: u64 [s1 + 0x70] = a0\n 24599: a1 = s1 + 0x60\n 24602: a0 = u64 [s1 + 0x30]\n 24605: u64 [s1 + 0x78] = a0\n 24608: a0 = 0\n 24610: ra = 982, jump @4\n      : @984 [@dyn 491] (gas: 2)\n 24616: a1 = i32 [0x20014]\n 24621: jump @986 if a1 >u 31\n      : @985 (gas: 2)\n 24625: u32 [0x20014] = 0x20\n 24631: fallthrough\n      : @986 (gas: 52)\n 24632: a0 = sp + 0xffffffffffffffe0\n 24635: a2 = a0 & 0xffffffffffffffe0\n 24638: u64 [s1 + 0x30] = a2\n 24641: sp = a2\n 24643: a0 = 0x20020\n 24648: i32 a0 = a0 + 0\n 24650: i32 a2 = a2 + 0\n 24652: a1 = 0x20\n 24655: ecalli 5 // 'hash_keccak_256'\n 24657: a3 = u64 [s1 + 0x30]\n 24660: a0 = u64 [a3]\n 24662: a1 = u64 [a3 + 0x8]\n 24665: a2 = u64 [a3 + 0x18]\n 24668: a3 = u64 [a3 + 0x10]\n 24671: t0 = reverse a0\n 24673: a1 = reverse a1\n 24675: a2 = reverse a2\n 24677: a3 = reverse a3\n 24679: a4 = u64 [s1 + 0x40]\n 24682: a4 = a4 + a3\n 24685: t1 = u64 [s1 + 0x48]\n 24688: t1 = t1 + a2\n 24691: a2 = t1 <u a2\n 24694: a4 = a4 + a2\n 24697: a0 = a4 ^ a3\n 24700: a3 = a4 <u a3\n 24703: a3 = a2 if a0 == 0\n 24706: a0 = u64 [s1 + 0x50]\n 24709: a0 = a0 + a1\n 24712: a3 = a3 + a0\n 24715: a2 = a3 <u a0\n 24718: a5 = u64 [s1 + 0x58]\n 24721: t0 = t0 + a5\n 24724: a0 = a0 <u a1\n 24727: a0 = a0 + t0\n 24730: a0 = a0 + a2\n 24733: a1 = u64 [s1 + 0x38]\n 24736: a2 = 0\n 24738: u64 [a1 + 56] = 0\n 24741: u64 [a1 + 48] = 0\n 24744: u64 [a1 + 40] = 0\n 24747: u64 [a1 + 32] = 0\n 24750: u64 [a1] = t1\n 24752: u64 [a1 + 0x8] = a4\n 24755: u64 [a1 + 0x10] = a3\n 24758: u64 [a1 + 0x18] = a0\n 24761: sp = s0 + 0xfffffffffffffee0\n 24765: ra = u64 [sp + 0x118]\n 24769: s0 = u64 [sp + 0x110]\n 24773: s1 = u64 [sp + 0x108]\n 24777: sp = sp + 0x120\n 24781: ret\n      : @987 (gas: 1)\n 24783: t0 = 984, jump @1067\n      : @988 [@dyn 492] (gas: 1)\n 24789: ra = 986, jump @4\n      : @989 [@dyn 493] (gas: 7)\n 24795: u64 [s1 + 152] = 0\n 24799: u64 [s1 + 144] = 0\n 24803: u64 [s1 + 128] = 0x32\n 24808: a0 = 0x4\n 24811: a1 = s1 + 0x80\n 24815: u64 [s1 + 136] = 0\n 24819: ra = 988, jump @4\n      : @990 [@dyn 494] (gas: 2)\n 24825: a1 = i32 [0x20014]\n 24830: jump @992 if a1 >u 63\n      : @991 (gas: 2)\n 24834: u32 [0x20014] = 0x40\n 24840: fallthrough\n      : @992 (gas: 8)\n 24841: a1 = 0x20020\n 24846: i32 a1 = a1 + 0\n 24848: a0 = 0x1\n 24851: a2 = 0x24\n 24854: ra = 0x3de\n 24858: ecalli 6 // 'seal_return'\n 24860: t0 = 0x3e0\n 24864: jump @1097\n      : @993 [@dyn 495] (gas: 1)\n 24867: t0 = 992, jump @1097\n      : @994 [@dyn 496] (gas: 4)\n 24873: a2 = u64 [a1 + 0x8]\n 24876: u64 [sp + 0x18] = a2\n 24879: s1 = u64 [a1]\n 24881: t0 = 994, jump @1090\n      : @995 [@dyn 497] (gas: 1)\n 24887: ra = 996, jump @6\n      : @996 [@dyn 498] (gas: 19)\n 24893: a0 = u32 [sp + 0x34]\n 24896: a0 = a0 << 0x20\n 24899: a1 = u64 [sp + 0x38]\n 24902: a2 = u32 [sp + 0x20]\n 24905: a3 = s1 >> 0x20\n 24908: a5 = u64 [sp + 0x18]\n 24911: a4 = a5 << 0x20\n 24914: a3 = a3 | a4\n 24917: s1 = s1 << 0x20\n 24920: a4 = a5 >> 0x20\n 24923: a0 = a0 | a4\n 24926: a2 = a2 | s1\n 24929: u64 [sp + 0x68] = a3\n 24932: u64 [sp + 0x78] = a1\n 24935: u64 [sp + 0x60] = a2\n 24938: u64 [sp + 0x70] = a0\n 24941: a0 = sp + 0x40\n 24944: a1 = sp + 0x60\n 24947: ra = 998, jump @10\n      : @997 [@dyn 499] (gas: 6)\n 24953: sp = s0 + 0xffffffffffffff60\n 24957: ra = u64 [sp + 0x98]\n 24961: s0 = u64 [sp + 0x90]\n 24965: s1 = u64 [sp + 0x88]\n 24969: sp = sp + 0xa0\n 24973: ret\n      : @998 (gas: 31)\n 24975: sp = sp + 0xfffffffffffffd40\n 24979: a2 = sp + 0x200\n 24983: u64 [a2 + 0xb8] = ra\n 24987: u64 [a2 + 0xb0] = s0\n 24991: u64 [a2 + 0xa8] = s1\n 24995: s0 = sp + 0x2c0\n 24999: sp = sp & 0xffffffffffffffe0\n 25002: s1 = sp\n 25004: a2 = u64 [a1 + 0x18]\n 25007: u64 [s1 + 0x60] = a2\n 25010: a2 = u64 [a1 + 0x10]\n 25013: u64 [s1 + 0x58] = a2\n 25016: a2 = u64 [a1 + 0x8]\n 25019: u64 [s1 + 0x68] = a2\n 25022: a1 = u64 [a1]\n 25024: u64 [s1 + 0x70] = a1\n 25027: a3 = u64 [a0 + 0x18]\n 25030: a2 = u64 [a0 + 0x10]\n 25033: a1 = u64 [a0 + 0x8]\n 25036: a0 = u64 [a0]\n 25038: u64 [s1 + 0x38] = a3\n 25041: u64 [s1 + 0x258] = a3\n 25045: u64 [s1 + 0x40] = a2\n 25048: u64 [s1 + 0x250] = a2\n 25052: u64 [s1 + 0x48] = a1\n 25055: u64 [s1 + 0x248] = a1\n 25059: u64 [s1 + 0x50] = a0\n 25062: u64 [s1 + 0x240] = a0\n 25066: a0 = s1 + 0x220\n 25070: a1 = s1 + 0x240\n 25074: ra = 1000, jump @6\n      : @999 [@dyn 500] (gas: 11)\n 25080: a0 = s1 + 0x200\n 25084: a5 = u64 [a0 + 0x38]\n 25087: a4 = u64 [a0 + 0x30]\n 25090: a3 = u64 [a0 + 0x28]\n 25093: a0 = a5 >u 0\n 25095: a1 = a4 >u 0\n 25097: a1 = a0 if a5 != 0\n 25100: a0 = a4 | a5\n 25103: a2 = a3 >u 0\n 25105: a2 = a1 if a0 != 0\n 25108: jump @1012 if a2 != 0\n      : @1000 (gas: 20)\n 25112: a0 = u64 [s1 + 0x220]\n 25116: u64 [s1 + 0x30] = a0\n 25119: a0 = a0 + 0x1\n 25122: a1 = a0 <u 0x1\n 25125: a1 = a1 + a3\n 25128: a2 = a0 | a1\n 25131: a2 = a2 <u 0x1\n 25134: a2 = a2 + a4\n 25137: u64 [s1 + 0x28] = a3\n 25140: a3 = a2 <u a4\n 25143: a3 = a3 + a5\n 25146: u64 [s1 + 0x260] = a0\n 25150: u64 [s1 + 0x268] = a1\n 25154: u64 [s1 + 0x270] = a2\n 25158: u64 [s1 + 0x278] = a3\n 25162: a0 = s1 + 0x240\n 25166: a1 = s1 + 0x260\n 25170: u64 [s1 + 0x20] = a4\n 25173: u64 [s1 + 0x18] = a5\n 25176: ra = 1002, jump @10\n      : @1001 [@dyn 501] (gas: 24)\n 25182: a0 = sp + 0xffffffffffffffe0\n 25185: a0 = a0 & 0xffffffffffffffe0\n 25188: u64 [s1 + 0x78] = a0\n 25191: sp = a0\n 25193: a0 = u64 [s1 + 0x18]\n 25196: u64 [s1 + 0x1b8] = a0\n 25200: a0 = u64 [s1 + 0x20]\n 25203: u64 [s1 + 0x1b0] = a0\n 25207: a0 = u64 [s1 + 0x28]\n 25210: u64 [s1 + 0x1a8] = a0\n 25214: a0 = u64 [s1 + 0x30]\n 25217: u64 [s1 + 0x1a0] = a0\n 25221: a0 = u64 [s1 + 0x38]\n 25224: u64 [s1 + 0x1d8] = a0\n 25228: a0 = u64 [s1 + 0x40]\n 25231: u64 [s1 + 0x1d0] = a0\n 25235: a0 = u64 [s1 + 0x48]\n 25238: u64 [s1 + 0x1c8] = a0\n 25242: a0 = s1 + 0x1e0\n 25246: a1 = s1 + 0x1c0\n 25250: a2 = s1 + 0x1a0\n 25254: a3 = u64 [s1 + 0x50]\n 25257: u64 [s1 + 0x1c0] = a3\n 25261: ra = 1004, jump @981\n      : @1002 [@dyn 502] (gas: 18)\n 25267: t0 = u64 [s1 + 0x210]\n 25271: t1 = u64 [s1 + 0x200]\n 25275: t2 = u64 [s1 + 0x218]\n 25279: a0 = u64 [s1 + 0x208]\n 25283: a2 = s1 + 0x100\n 25287: a5 = u64 [a2 + 0xf0]\n 25291: a3 = u64 [a2 + 0xf8]\n 25295: a4 = u64 [a2 + 0xe0]\n 25299: a1 = u64 [a2 + 0xe8]\n 25303: a2 = u64 [s1 + 0x78]\n 25306: u64 [a2 + 0x10] = a5\n 25309: u64 [a2 + 0x18] = a3\n 25312: u64 [a2] = a4\n 25314: t2 = a0 | t2\n 25317: a0 = t1 | t0\n 25320: a0 = a0 | t2\n 25323: u64 [a2 + 0x8] = a1\n 25326: jump @1018 if a0 != 0\n      : @1003 (gas: 16)\n 25330: u64 [s1 + 0x38] = a3\n 25333: u64 [s1 + 0x40] = a1\n 25336: u64 [s1 + 0x48] = a5\n 25339: u64 [s1 + 0x50] = a4\n 25342: a1 = u64 [s1 + 0x70]\n 25345: a3 = u64 [s1 + 0x58]\n 25348: a0 = a1 | a3\n 25351: a2 = u64 [s1 + 0x68]\n 25354: a4 = u64 [s1 + 0x60]\n 25357: a2 = a2 | a4\n 25360: a0 = a0 | a2\n 25363: a0 = a0 >> 0x20\n 25366: a2 = a2 | a3\n 25369: a2 = a2 << 0x20\n 25372: a0 = a0 | a2\n 25375: jump @1011 if a0 != 0\n      : @1004 (gas: 2)\n 25379: a0 = s1 + 0x140\n 25383: ra = 1006, jump @2\n      : @1005 [@dyn 503] (gas: 5)\n 25389: a0 = u32 [s1 + 0x140]\n 25393: u64 [s1 + 0x30] = a0\n 25396: a0 = s1 + 0x120\n 25400: a1 = u64 [s1 + 0x78]\n 25403: ra = 1008, jump @6\n      : @1006 [@dyn 504] (gas: 16)\n 25409: a0 = u32 [s1 + 0x124]\n 25413: a0 = a0 << 0x20\n 25416: a4 = s1 + 0x100\n 25420: a1 = u64 [a4 + 0x38]\n 25423: a2 = u64 [a4 + 0x30]\n 25426: a3 = u64 [a4 + 0x28]\n 25429: a4 = u64 [s1 + 0x30]\n 25432: a0 = a0 | a4\n 25435: a4 = s1 + 0x200\n 25439: u64 [a4 + 0x98] = a1\n 25443: u64 [a4 + 0x90] = a2\n 25447: u64 [a4 + 0x88] = a3\n 25451: u64 [a4 + 0x80] = a0\n 25455: a1 = s1 + 0x280\n 25459: a0 = u64 [s1 + 0x78]\n 25462: ra = 1010, jump @10\n      : @1007 [@dyn 505] (gas: 10)\n 25468: a2 = u64 [s1 + 0x70]\n 25471: a0 = u64 [s1 + 0x58]\n 25474: a1 = u64 [s1 + 0x60]\n 25477: a0 = a0 | a1\n 25480: a1 = 0xffffffe0\n 25490: a1 = a2 <u a1\n 25493: a3 = u64 [s1 + 0x68]\n 25496: a1 = 0 if a3 != 0\n 25498: a1 = 0 if a0 != 0\n 25500: jump @1011 if a1 == 0\n      : @1008 (gas: 3)\n 25503: i32 a1 = a2 + 0x20\n 25506: a0 = s1 + 0x100\n 25510: ra = 1012, jump @2\n      : @1009 [@dyn 506] (gas: 19)\n 25516: a0 = u64 [s1 + 0x100]\n 25520: a1 = u64 [s1 + 0x108]\n 25524: u64 [s1 + 216] = 0\n 25528: u64 [s1 + 208] = 0\n 25532: u64 [s1 + 0xc8] = a1\n 25536: u64 [s1 + 0xc0] = a0\n 25540: a0 = u64 [s1 + 0x38]\n 25543: u64 [s1 + 0xf8] = a0\n 25547: a0 = u64 [s1 + 0x48]\n 25550: u64 [s1 + 0xf0] = a0\n 25554: a0 = u64 [s1 + 0x40]\n 25557: u64 [s1 + 0xe8] = a0\n 25561: a0 = s1 + 0xe0\n 25565: a1 = s1 + 0xc0\n 25569: a2 = u64 [s1 + 0x50]\n 25572: u64 [s1 + 0xe0] = a2\n 25576: ra = 0x3f6\n 25580: t0 = 0x3e0\n 25584: jump @1097\n      : @1010 [@dyn 507] (gas: 7)\n 25587: sp = s0 + 0xfffffffffffffd40\n 25591: a0 = sp + 0x200\n 25595: ra = u64 [a0 + 0xb8]\n 25599: s0 = u64 [a0 + 0xb0]\n 25603: s1 = u64 [a0 + 0xa8]\n 25607: sp = sp + 0x2c0\n 25611: ret\n      : @1011 (gas: 1)\n 25613: trap\n      : @1012 (gas: 1)\n 25614: t0 = 1016, jump @1067\n      : @1013 [@dyn 508] (gas: 1)\n 25620: ra = 1018, jump @4\n      : @1014 [@dyn 509] (gas: 7)\n 25626: u64 [s1 + 152] = 0\n 25630: u64 [s1 + 144] = 0\n 25634: u64 [s1 + 128] = 0x41\n 25639: a0 = 0x4\n 25642: a1 = s1 + 0x80\n 25646: u64 [s1 + 136] = 0\n 25650: ra = 1020, jump @4\n      : @1015 [@dyn 510] (gas: 2)\n 25656: a1 = i32 [0x20014]\n 25661: jump @1017 if a1 >u 63\n      : @1016 (gas: 3)\n 25665: u32 [0x20014] = 0x40\n 25671: a1 = 0x20020\n 25676: jump @1023\n      : @1017 (gas: 2)\n 25678: a1 = 0x20020\n 25683: jump @1023\n      : @1018 (gas: 8)\n 25685: u64 [s1 + 400] = 0\n 25689: u64 [s1 + 392] = 0\n 25693: u64 [s1 + 384] = 0\n 25697: a0 = 0x4e487b7100000000\n 25707: a1 = s1 + 0x180\n 25711: u64 [s1 + 0x198] = a0\n 25715: a0 = 0\n 25717: ra = 1022, jump @4\n      : @1019 [@dyn 511] (gas: 7)\n 25723: u64 [s1 + 376] = 0\n 25727: u64 [s1 + 368] = 0\n 25731: u64 [s1 + 360] = 0\n 25735: a0 = 0x4\n 25738: a1 = s1 + 0x160\n 25742: u64 [s1 + 352] = 0\n 25746: ra = 1024, jump @4\n      : @1020 [@dyn 512] (gas: 2)\n 25752: a1 = i32 [0x20014]\n 25757: jump @1022 if a1 >u 63\n      : @1021 (gas: 3)\n 25761: u32 [0x20014] = 0x40\n 25767: a1 = 0x20020\n 25772: jump @1023\n      : @1022 (gas: 2)\n 25774: a1 = 0x20020\n 25779: fallthrough\n      : @1023 (gas: 6)\n 25780: i32 a1 = a1 + 0\n 25782: a0 = 0x1\n 25785: a2 = 0x24\n 25788: ra = 0x402\n 25792: ecalli 6 // 'seal_return'\n 25794: fallthrough\n      : @1024 [@dyn 513] (gas: 14)\n 25795: a3 = u64 [a1]\n 25797: a1 = u64 [a1 + 0x8]\n 25800: a4 = u64 [a2 + 0x8]\n 25803: a2 = u64 [a2]\n 25805: a5 = a4 + a1\n 25808: a1 = a2 + a3\n 25811: a2 = a1 <u a2\n 25814: a5 = a5 + a2\n 25817: t0 = a5 ^ a4\n 25820: a3 = a5 <u a4\n 25823: a3 = a2 if t0 == 0\n 25826: a2 = a3 >u 0\n 25828: a2 = 0 if a3 == 0\n 25830: jump @1026 if a2 != 0\n      : @1025 (gas: 5)\n 25833: u64 [a0 + 24] = 0\n 25836: u64 [a0] = a1\n 25838: u64 [a0 + 0x8] = a5\n 25841: u64 [a0 + 0x10] = a3\n 25844: ret\n      : @1026 (gas: 6)\n 25846: sp = sp + 0xffffffffffffffb0\n 25849: u64 [sp + 0x48] = ra\n 25852: u64 [sp + 0x40] = s0\n 25855: s0 = sp + 0x50\n 25858: sp = sp & 0xfffffffffffffff0\n 25861: t0 = 1028, jump @1061\n      : @1027 [@dyn 514] (gas: 1)\n 25867: ra = 1030, jump @4\n      : @1028 [@dyn 515] (gas: 1)\n 25873: t0 = 1032, jump @1095\n      : @1029 [@dyn 516] (gas: 1)\n 25879: ra = 1034, jump @4\n      : @1030 [@dyn 517] (gas: 2)\n 25885: a1 = i32 [0x20014]\n 25890: jump @1032 if a1 >u 63\n      : @1031 (gas: 2)\n 25894: u32 [0x20014] = 0x40\n 25900: fallthrough\n      : @1032 (gas: 8)\n 25901: a1 = 0x20020\n 25906: i32 a1 = a1 + 0\n 25908: a0 = 0x1\n 25911: a2 = 0x24\n 25914: ra = 0x40c\n 25918: ecalli 6 // 'seal_return'\n 25920: t0 = 0x40e\n 25924: jump @1097\n      : @1033 [@dyn 518] (gas: 1)\n 25927: t0 = 1038, jump @1097\n      : @1034 [@dyn 519] (gas: 4)\n 25933: a2 = u64 [a1]\n 25935: u64 [sp + 0x18] = a2\n 25938: s1 = u64 [a1 + 0x8]\n 25941: t0 = 1040, jump @1090\n      : @1035 [@dyn 520] (gas: 1)\n 25947: ra = 1042, jump @6\n      : @1036 [@dyn 521] (gas: 10)\n 25953: a0 = u64 [sp + 0x28]\n 25956: a1 = u64 [sp + 0x20]\n 25959: u64 [sp + 0x78] = s1\n 25962: a2 = u64 [sp + 0x18]\n 25965: u64 [sp + 0x70] = a2\n 25968: u64 [sp + 0x68] = a0\n 25971: u64 [sp + 0x60] = a1\n 25974: a0 = sp + 0x40\n 25977: a1 = sp + 0x60\n 25980: ra = 1044, jump @10\n      : @1037 [@dyn 522] (gas: 6)\n 25986: sp = s0 + 0xffffffffffffff60\n 25990: ra = u64 [sp + 0x98]\n 25994: s0 = u64 [sp + 0x90]\n 25998: s1 = u64 [sp + 0x88]\n 26002: sp = sp + 0xa0\n 26006: ret\n      : @1038 (gas: 23)\n 26008: sp = sp + 0xffffffffffffffa0\n 26011: u64 [sp + 0x58] = ra\n 26014: u64 [sp + 0x50] = s0\n 26017: u64 [sp + 0x48] = s1\n 26020: s0 = sp + 0x60\n 26023: sp = sp & 0xfffffffffffffff0\n 26026: a3 = u64 [a2 + 0x8]\n 26029: a4 = u64 [a1 + 0x8]\n 26032: t0 = u64 [a2]\n 26034: t1 = u64 [a1]\n 26036: a1 = a4 ^ a3\n 26039: a2 = a4 <u a3\n 26042: t2 = t1 <u t0\n 26045: a2 = t2 if a1 == 0\n 26048: a5 = a2 <u 0x1\n 26051: a5 = a5 + 0xffffffffffffffff\n 26054: a1 = -a2\n 26056: a2 = a1 >u 0\n 26058: s1 = a5 >u 0\n 26060: s1 = a2 if a5 == 0\n 26063: a2 = a1 | a5\n 26066: s1 = 0 if a2 == 0\n 26068: jump @1041 if s1 != 0\n      : @1039 (gas: 8)\n 26071: a4 = a4 - a3\n 26074: a2 = a4 - t2\n 26077: a3 = t1 - t0\n 26080: u64 [a0] = a3\n 26082: u64 [a0 + 0x8] = a2\n 26085: u64 [a0 + 0x10] = a1\n 26088: u64 [a0 + 0x18] = a5\n 26091: t0 = 1046, jump @1083\n      : @1040 [@dyn 523] (gas: 1)\n 26097: ret\n      : @1041 (gas: 1)\n 26099: t0 = 1048, jump @1061\n      : @1042 [@dyn 524] (gas: 1)\n 26105: ra = 1050, jump @4\n      : @1043 [@dyn 525] (gas: 1)\n 26111: t0 = 1052, jump @1095\n      : @1044 [@dyn 526] (gas: 1)\n 26117: ra = 1054, jump @4\n      : @1045 [@dyn 527] (gas: 2)\n 26123: a1 = i32 [0x20014]\n 26128: jump @1047 if a1 >u 63\n      : @1046 (gas: 2)\n 26132: u32 [0x20014] = 0x40\n 26138: fallthrough\n      : @1047 (gas: 8)\n 26139: a1 = 0x20020\n 26144: i32 a1 = a1 + 0\n 26146: a0 = 0x1\n 26149: a2 = 0x24\n 26152: ecalli 6 // 'seal_return'\n 26154: a0 = 0\n 26156: ra = 0x420\n 26160: jump @17\n      : @1048 [export #0: 'call'] (gas: 2)\n 26163: a0 = 0\n 26165: ra = 1056, jump @17\n      : @1049 [@dyn 528] [export #1: 'deploy'] (gas: 2)\n 26171: a0 = 0x1\n 26174: ra = 1058, jump @17\n      : @1050 [@dyn 529] (gas: 15)\n 26180: a0 = u64 [a2 + 0x8]\n 26183: a1 = i32 [a2 + 0x10]\n 26186: a2 = u64 [a2]\n 26188: a0 = reverse a0\n 26190: a3 = a0 << 0x20\n 26193: a1 = reverse a1\n 26195: a1 = a1 >> 0x20\n 26198: a3 = a3 | a1\n 26201: a0 = a0 >> 0x20\n 26204: a1 = reverse a2\n 26206: a2 = a1 << 0x20\n 26209: a0 = a0 | a2\n 26212: a1 = a1 >> 0x20\n 26215: a2 = s1 + 0x1898\n 26219: jump [t0]\n      : @1051 (gas: 16)\n 26221: a0 = u64 [a2 + 0x8]\n 26224: a1 = i32 [a2 + 0x10]\n 26227: a2 = u64 [a2]\n 26229: a0 = reverse a0\n 26231: a3 = a0 << 0x20\n 26234: a1 = reverse a1\n 26236: a1 = a1 >> 0x20\n 26239: a3 = a3 | a1\n 26242: a0 = a0 >> 0x20\n 26245: a1 = reverse a2\n 26247: a2 = a1 << 0x20\n 26250: a0 = a0 | a2\n 26253: a1 = a1 >> 0x20\n 26256: a2 = s1 + 0x7ff\n 26260: a2 = a2 + 0x99\n 26264: jump [t0]\n      : @1052 (gas: 15)\n 26266: a0 = u64 [a2 + 0x8]\n 26269: a1 = i32 [a2 + 0x10]\n 26272: a2 = u64 [a2]\n 26274: a0 = reverse a0\n 26276: a3 = a0 << 0x20\n 26279: a1 = reverse a1\n 26281: a1 = a1 >> 0x20\n 26284: a3 = a3 | a1\n 26287: a0 = a0 >> 0x20\n 26290: a1 = reverse a2\n 26292: a2 = a1 << 0x20\n 26295: a0 = a0 | a2\n 26298: a1 = a1 >> 0x20\n 26301: a2 = s1 + 0x1098\n 26305: jump [t0]\n      : @1053 (gas: 14)\n 26307: a0 = u64 [a2 + 0x8]\n 26310: a1 = i32 [a2 + 0x10]\n 26313: a2 = u64 [a2]\n 26315: a0 = reverse a0\n 26317: a3 = a0 << 0x20\n 26320: a1 = reverse a1\n 26322: a1 = a1 >> 0x20\n 26325: a3 = a3 | a1\n 26328: a0 = a0 >> 0x20\n 26331: a1 = reverse a2\n 26333: a2 = a1 << 0x20\n 26336: a0 = a0 | a2\n 26339: a1 = a1 >> 0x20\n 26342: jump [t0]\n      : @1054 (gas: 17)\n 26344: a0 = u64 [a3]\n 26346: a1 = u64 [a3 + 0x8]\n 26349: a2 = u64 [a3 + 0x10]\n 26352: a3 = u64 [a3 + 0x18]\n 26355: a0 = reverse a0\n 26357: a1 = reverse a1\n 26359: a2 = reverse a2\n 26361: a3 = reverse a3\n 26363: a4 = a3 + 0x3\n 26366: a3 = a4 <u a3\n 26369: a5 = a2 + a3\n 26372: a2 = a5 <u a2\n 26375: a2 = a3 if a3 == 0\n 26378: a2 = a2 + a1\n 26381: a1 = a2 <u a1\n 26384: a0 = a0 + a1\n 26387: jump [t0]\n      : @1055 (gas: 17)\n 26389: a0 = u64 [a3]\n 26391: a1 = u64 [a3 + 0x8]\n 26394: a2 = u64 [a3 + 0x10]\n 26397: a3 = u64 [a3 + 0x18]\n 26400: a0 = reverse a0\n 26402: a1 = reverse a1\n 26404: a2 = reverse a2\n 26406: a3 = reverse a3\n 26408: a4 = a3 + 0x2\n 26411: a3 = a4 <u a3\n 26414: a5 = a2 + a3\n 26417: a2 = a5 <u a2\n 26420: a2 = a3 if a3 == 0\n 26423: a2 = a2 + a1\n 26426: a1 = a2 <u a1\n 26429: a0 = a0 + a1\n 26432: jump [t0]\n      : @1056 (gas: 11)\n 26434: a3 = u64 [s1 + 0x118]\n 26438: a0 = u64 [a3 + 0x18]\n 26441: a1 = u64 [a3 + 0x10]\n 26444: a2 = u64 [a3 + 0x8]\n 26447: a3 = u64 [a3]\n 26449: a0 = reverse a0\n 26451: a1 = reverse a1\n 26453: a2 = reverse a2\n 26455: a3 = reverse a3\n 26457: a4 = s1 + 0x209c\n 26461: jump [t0]\n      : @1057 (gas: 8)\n 26463: a4 = a4 | a2\n 26466: a2 = a0 | a1\n 26469: a2 = a2 | a4\n 26472: a2 = a2 >> 0x20\n 26475: a1 = a1 | a4\n 26478: a1 = a1 << 0x20\n 26481: a1 = a1 | a2\n 26484: jump [t0]\n      : @1058 (gas: 7)\n 26486: a0 = sp + 0xffffffffffffffe0\n 26489: a0 = a0 & 0xffffffffffffffe0\n 26492: u64 [s1 + 0x118] = a0\n 26496: sp = a0\n 26498: i32 a2 = a0 + 0\n 26500: a1 = 0x40\n 26503: jump [t0]\n      : @1059 (gas: 22)\n 26505: a0 = u64 [a3]\n 26507: a1 = u64 [a3 + 0x8]\n 26510: a2 = u64 [a3 + 0x10]\n 26513: a3 = u64 [a3 + 0x18]\n 26516: a0 = reverse a0\n 26518: a1 = reverse a1\n 26520: a2 = reverse a2\n 26522: a3 = reverse a3\n 26524: a3 = a3 + 0x1\n 26527: a4 = a3 <u 0x1\n 26530: a2 = a2 + a4\n 26533: a4 = a3 | a2\n 26536: a4 = a4 <u 0x1\n 26539: a4 = a4 + a1\n 26542: a1 = a4 <u a1\n 26545: a0 = a0 + a1\n 26548: a1 = u64 [s1 + 0x118]\n 26552: u64 [a1] = a3\n 26554: u64 [a1 + 0x8] = a2\n 26557: u64 [a1 + 0x10] = a4\n 26560: u64 [a1 + 0x18] = a0\n 26563: jump [t0]\n      : @1060 (gas: 18)\n 26565: a0 = u64 [a3]\n 26567: a1 = u64 [a3 + 0x8]\n 26570: a2 = u64 [a3 + 0x10]\n 26573: a3 = u64 [a3 + 0x18]\n 26576: a0 = reverse a0\n 26578: a1 = reverse a1\n 26580: a2 = reverse a2\n 26582: a3 = reverse a3\n 26584: a3 = a3 + 0x1\n 26587: a4 = a3 <u 0x1\n 26590: a2 = a2 + a4\n 26593: a4 = a3 | a2\n 26596: a4 = a4 <u 0x1\n 26599: a4 = a4 + a1\n 26602: a1 = a4 <u a1\n 26605: a0 = a0 + a1\n 26608: a1 = s1 + 0x209c\n 26612: jump [t0]\n      : @1061 (gas: 8)\n 26614: u64 [sp + 48] = 0\n 26617: u64 [sp + 40] = 0\n 26620: u64 [sp + 32] = 0\n 26623: a0 = 0x4e487b7100000000\n 26633: a1 = sp + 0x20\n 26636: u64 [sp + 0x38] = a0\n 26639: a0 = 0\n 26641: jump [t0]\n      : @1062 (gas: 18)\n 26643: a3 = u64 [s1 + 0xd0]\n 26647: a0 = u64 [a3]\n 26649: a1 = u64 [a3 + 0x8]\n 26652: a2 = u64 [a3 + 0x10]\n 26655: a3 = u64 [a3 + 0x18]\n 26658: a0 = reverse a0\n 26660: a1 = reverse a1\n 26662: a2 = reverse a2\n 26664: a3 = reverse a3\n 26666: a3 = a3 + 0x1\n 26669: a4 = a3 <u 0x1\n 26672: a2 = a2 + a4\n 26675: a4 = a3 | a2\n 26678: a4 = a4 <u 0x1\n 26681: a4 = a4 + a1\n 26684: a1 = a4 <u a1\n 26687: a0 = a0 + a1\n 26690: jump [t0]\n      : @1063 (gas: 8)\n 26692: a0 = a0 | a2\n 26695: a2 = a4 | a1\n 26698: a2 = a2 | a0\n 26701: a2 = a2 >> 0x20\n 26704: a0 = a0 | a1\n 26707: a0 = a0 << 0x20\n 26710: a0 = a0 | a2\n 26713: jump [t0]\n      : @1064 (gas: 5)\n 26715: a0 = sp + 0xffffffffffffffe0\n 26718: a0 = a0 & 0xffffffffffffffe0\n 26721: u64 [s1 + 0x118] = a0\n 26725: sp = a0\n 26727: jump [t0]\n      : @1065 (gas: 15)\n 26729: a0 = u64 [a3 + 0x18]\n 26732: a1 = u64 [a3 + 0x10]\n 26735: a2 = u64 [a3 + 0x8]\n 26738: a3 = u64 [a3]\n 26740: a0 = reverse a0\n 26742: a4 = reverse a1\n 26744: a2 = reverse a2\n 26746: a3 = reverse a3\n 26748: a1 = u64 [s1 + 0x118]\n 26752: u64 [a1 + 0x18] = a3\n 26755: u64 [a1 + 0x10] = a2\n 26758: u64 [a1 + 0x8] = a4\n 26761: u64 [a1] = a0\n 26763: a0 = 0x2000\n 26767: jump [t0]\n      : @1066 (gas: 14)\n 26769: a0 = u64 [a3 + 0x18]\n 26772: a1 = u64 [a3 + 0x10]\n 26775: a2 = u64 [a3 + 0x8]\n 26778: a3 = u64 [a3]\n 26780: a0 = reverse a0\n 26782: a4 = reverse a1\n 26784: a2 = reverse a2\n 26786: a3 = reverse a3\n 26788: a1 = u64 [s1 + 0x118]\n 26792: u64 [a1 + 0x18] = a3\n 26795: u64 [a1 + 0x10] = a2\n 26798: u64 [a1 + 0x8] = a4\n 26801: u64 [a1] = a0\n 26803: jump [t0]\n      : @1067 (gas: 8)\n 26805: u64 [s1 + 176] = 0\n 26809: u64 [s1 + 168] = 0\n 26813: u64 [s1 + 160] = 0\n 26817: a0 = 0x4e487b7100000000\n 26827: a1 = s1 + 0xa0\n 26831: u64 [s1 + 0xb8] = a0\n 26835: a0 = 0\n 26837: jump [t0]\n      : @1068 (gas: 8)\n 26839: a0 = u64 [a4 + 0x90]\n 26843: a1 = u64 [a4 + 0x98]\n 26847: a2 = u64 [a4 + 0x88]\n 26851: a3 = u64 [a4 + 0x80]\n 26855: a1 = a1 | a2\n 26858: a0 = a0 | a3\n 26861: a0 = a0 | a1\n 26864: jump [t0]\n      : @1069 (gas: 8)\n 26866: a0 = a1 ^ 0x1\n 26869: a0 = a0 | a3\n 26872: u64 [s1 + 0x108] = a1\n 26876: a1 = a1 <u 0x1\n 26879: u64 [s1 + 0x110] = a3\n 26883: a1 = 0 if a3 != 0\n 26885: a1 = 0 if a0 == 0\n 26887: jump [t0]\n      : @1070 (gas: 8)\n 26889: a0 = u64 [a4 + 0x70]\n 26892: a1 = u64 [a4 + 0x78]\n 26895: a2 = u64 [a4 + 0x68]\n 26898: a3 = u64 [a4 + 0x60]\n 26901: a1 = a1 | a2\n 26904: a0 = a0 | a3\n 26907: a0 = a0 | a1\n 26910: jump [t0]\n      : @1071 (gas: 4)\n 26912: a0 = 0x209c\n 26916: a3 = s1 + a0\n 26919: a4 = a3 + 0x304\n 26923: jump [t0]\n      : @1072 (gas: 4)\n 26925: a0 = 0x209c\n 26929: a3 = s1 + a0\n 26932: a4 = a3 + 0x604\n 26936: jump [t0]\n      : @1073 (gas: 4)\n 26938: a0 = 0x209c\n 26942: a3 = s1 + a0\n 26945: a4 = a3 + 0x404\n 26949: jump [t0]\n      : @1074 (gas: 8)\n 26951: a0 = u64 [a4 + 0xb0]\n 26955: a1 = u64 [a4 + 0xb8]\n 26959: a2 = u64 [a4 + 0xa8]\n 26963: a3 = u64 [a4 + 0xa0]\n 26967: a1 = a1 | a2\n 26970: a0 = a0 | a3\n 26973: a0 = a0 | a1\n 26976: jump [t0]\n      : @1075 (gas: 8)\n 26978: a0 = sp + 0xffffffffffffffe0\n 26981: a0 = a0 & 0xffffffffffffffe0\n 26984: u64 [s1 + 0x118] = a0\n 26988: sp = a0\n 26990: i32 a2 = a0 + 0\n 26992: a1 = 0x20\n 26995: a0 = u64 [s1 + 0x100]\n 26999: jump [t0]\n      : @1076 (gas: 8)\n 27001: a3 = a3 | a2\n 27004: a2 = a0 | a1\n 27007: a2 = a2 | a3\n 27010: a2 = a2 >> 0x20\n 27013: a1 = a1 | a3\n 27016: a1 = a1 << 0x20\n 27019: a1 = a1 | a2\n 27022: jump [t0]\n      : @1077 (gas: 5)\n 27024: a0 = reverse a0\n 27026: a1 = reverse a1\n 27028: a2 = reverse a2\n 27030: a3 = reverse a3\n 27032: jump [t0]\n      : @1078 (gas: 9)\n 27034: a3 = u64 [s1 + 0x118]\n 27038: a0 = u64 [a3 + 0x18]\n 27041: a1 = u64 [a3 + 0x10]\n 27044: a2 = u64 [a3 + 0x8]\n 27047: a3 = u64 [a3]\n 27049: a0 = reverse a0\n 27051: u64 [s1 + 0x118] = a0\n 27055: a4 = reverse a1\n 27057: jump [t0]\n      : @1079 (gas: 8)\n 27059: a0 = sp + 0xffffffffffffffe0\n 27062: a0 = a0 & 0xffffffffffffffe0\n 27065: u64 [s1 + 0x110] = a0\n 27069: sp = a0\n 27071: i32 a2 = a0 + 0\n 27073: a1 = 0x40\n 27076: a0 = u64 [s1 + 0xc0]\n 27080: jump [t0]\n      : @1080 (gas: 8)\n 27082: a0 = sp + 0xffffffffffffffe0\n 27085: a0 = a0 & 0xffffffffffffffe0\n 27088: u64 [s1 + 0x118] = a0\n 27092: sp = a0\n 27094: i32 a2 = a0 + 0\n 27096: a1 = 0x40\n 27099: a0 = u64 [s1 + 0xe8]\n 27103: jump [t0]\n      : @1081 (gas: 7)\n 27105: a1 = 0xffffffe0\n 27115: a2 = u64 [a3 + 0x18]\n 27118: a1 = a2 <u a1\n 27121: a2 = u64 [a3 + 0x10]\n 27124: a1 = 0 if a2 != 0\n 27126: a1 = 0 if a0 != 0\n 27128: jump [t0]\n      : @1082 (gas: 4)\n 27130: a3 = s1 + 0x7ff\n 27134: a3 = a3 + 0x99\n 27138: a5 = a3 + 0x300\n 27142: jump [t0]\n      : @1083 (gas: 6)\n 27144: sp = s0 + 0xffffffffffffffa0\n 27147: ra = u64 [sp + 0x58]\n 27150: s0 = u64 [sp + 0x50]\n 27153: s1 = u64 [sp + 0x48]\n 27156: sp = sp + 0x60\n 27159: jump [t0]\n      : @1084 (gas: 5)\n 27161: a1 = u64 [s1 + 0x118]\n 27165: a2 = u64 [s1 + 0x110]\n 27169: a1 = a1 | a2\n 27172: a1 = a1 >u 0\n 27174: jump [t0]\n      : @1085 (gas: 7)\n 27176: a0 = sp + 0xffffffffffffffe0\n 27179: a0 = a0 & 0xffffffffffffffe0\n 27182: u64 [s1 + 0x118] = a0\n 27186: sp = a0\n 27188: i32 a2 = a0 + 0\n 27190: a1 = 0x20\n 27193: jump [t0]\n      : @1086 (gas: 5)\n 27195: a0 = sp + 0xffffffffffffffe0\n 27198: a2 = a0 & 0xffffffffffffffe0\n 27201: u64 [s1 + 0x110] = a2\n 27205: sp = a2\n 27207: jump [t0]\n      : @1087 (gas: 5)\n 27209: a0 = sp + 0xffffffffffffffe0\n 27212: a2 = a0 & 0xffffffffffffffe0\n 27215: u64 [s1 + 0x118] = a2\n 27219: sp = a2\n 27221: jump [t0]\n      : @1088 (gas: 6)\n 27223: u64 [a1 + 1664] = 0\n 27227: u64 [a1 + 1656] = 0\n 27231: u64 [a1 + 1640] = 0x1\n 27236: a2 = a1\n 27238: a0 = 0x20\n 27241: jump [t0]\n      : @1089 (gas: 8)\n 27243: a0 = u64 [a4 + 0xf0]\n 27247: a1 = u64 [a4 + 0xf8]\n 27251: a2 = u64 [a4 + 0xe8]\n 27255: a3 = u64 [a4 + 0xe0]\n 27259: a1 = a1 | a2\n 27262: a0 = a0 | a3\n 27265: a0 = a0 | a1\n 27268: jump [t0]\n      : @1090 (gas: 11)\n 27270: a1 = u64 [a0 + 0x18]\n 27273: a2 = u64 [a0 + 0x10]\n 27276: a3 = u64 [a0 + 0x8]\n 27279: a0 = u64 [a0]\n 27281: u64 [sp + 0x58] = a1\n 27284: u64 [sp + 0x50] = a2\n 27287: u64 [sp + 0x48] = a3\n 27290: u64 [sp + 0x40] = a0\n 27293: a0 = sp + 0x20\n 27296: a1 = sp + 0x40\n 27299: jump [t0]\n      : @1091 (gas: 7)\n 27301: a1 = a1 | a2\n 27304: a1 = a1 | a0\n 27307: a1 = a1 >> 0x20\n 27310: a0 = a0 | a2\n 27313: a0 = a0 << 0x20\n 27316: a0 = a0 | a1\n 27319: jump [t0]\n      : @1092 (gas: 4)\n 27321: a0 = 0x209c\n 27325: a3 = s1 + a0\n 27328: a4 = a3 + 0x504\n 27332: jump [t0]\n      : @1093 (gas: 4)\n 27334: a0 = 0x209c\n 27338: a3 = s1 + a0\n 27341: a4 = a3 + 0x204\n 27345: jump [t0]\n      : @1094 (gas: 4)\n 27347: a0 = 0x209c\n 27351: a3 = s1 + a0\n 27354: a4 = a3 + 0x4\n 27357: jump [t0]\n      : @1095 (gas: 7)\n 27359: u64 [sp + 24] = 0\n 27362: u64 [sp + 16] = 0\n 27365: u64 [sp + 0] = 0x11\n 27368: a0 = 0x4\n 27371: a1 = sp\n 27373: u64 [sp + 8] = 0\n 27376: jump [t0]\n      : @1096 (gas: 8)\n 27378: a0 = u64 [a4 + 0x10]\n 27381: a1 = u64 [a4 + 0x18]\n 27384: a2 = u64 [a4 + 0x8]\n 27387: a3 = u64 [a4]\n 27389: a1 = a1 | a2\n 27392: a0 = a0 | a3\n 27395: a0 = a0 | a1\n 27398: jump [t0]\n      : @1097 (gas: 7)\n 27400: sp = sp + 0xffffffffffffff60\n 27404: u64 [sp + 0x98] = ra\n 27408: u64 [sp + 0x90] = s0\n 27412: u64 [sp + 0x88] = s1\n 27416: s0 = sp + 0xa0\n 27420: sp = sp & 0xffffffffffffffe0\n 27423: jump [t0]\n",
        "bytecode": {
          "object": "50564d00009f7d000000000000010700c14000c0008003100000e8890423c78a0000c4588bd7f15a0480ac0a000000000e0000001c0000002a000000300000003b0000004a00000055000000670000007200000063616c6c5f646174615f636f707963616c6c5f646174615f6c6f616463616c6c5f646174615f73697a6563616c6c65726765745f73746f72616765686173685f6b656363616b5f3235367365616c5f72657475726e7365745f696d6d757461626c655f646174617365745f73746f7261676576616c75655f7472616e73666572726564051302c033660463616c6cc03b66066465706c6f7906c0ae7c821102c0216b2b0073019602a702b70271037603a203f603350462046e04ad04d204d105d6050a061f06630668066d069106a206d606df06fe06210726076a0773077f07f8072908700883088c08ab08b308d208ea08300955095d098909c609de09190abb0a0f0b1b0b990ba60bca0bdb0b0b0c140c330c3b0c5a0c5f0c960c9f0ca70cf10c230d6b0d780d960df60dfc0d020eb00fb90fd50ff30ff90f3d104710511089109c10a510c110df101d1127114f117d11ef11081227137d138313c013c613dc132c143214381458146e14be14c414ca14f914031523154f15551580159715ac15f1153b16dd1636179a17d5179118f118ff185c19c019271a0f1b151b4a1b901ba81bd41be61b151c311c3b1c5c1c881cb21cc51cda1cfa1c421d541d6d1dc11d271e381ea41eb61e171f241f551f5b1f611fe61ff01f10201a20282076207c20952005211a21242141214a216a21842191219721b521be21db21f92105227f228922ad22d922df2225232f233d239923d7231e2433243d245e248a24b024bd24c324f0244825a725b825d6252e2634263a265e2664267626d326d926df260f2718273827412761274428ef282a295f29ef29bf2a482b682bb72bc52b2a2c5c2cc62cd22d362e442e522eb22ebb2ed82ee12e012f262f362f3c2f652fb82f133020303b3095309b30d030ea3035313b31413170317a319831ba31d831f531ff3121322a3254327232e132e7322033363389338f339533b933bf33d5336d3482349734f134cd3636373c37423766376c377e37d837de37e43713381d383d38463866388438a138ab38cd38e63801394f395d3990399a39b639d439da39203a2a3a343a523a7c3a913a9b3ab73ad53aef3a363b583b853bc23bda3b123c243c933ce03ced3c663d6c3d723da53daf3dd33dff3d053e263e4b3e553e633ea93ebe3ec83ee93e153f3b3f4c3f563f833fcd3fff3f09402d4059405f4079408a409440b140f24007411141354161417b418c419241b441dd41fb4107424f4255425b42da42e44201432543734379439243cf43e443ee430e4417443744774481449a44f3440845124532453c454a45644575457b459945a245bf45d945e34527462d46334662466c4689469246b246b846e34604470e473a476c47d5473648714824499449884aa24a854bc94bd24bee4b0c4c254c354c3b4c5d4c7a4c944cc34cd04c664d734df44d014e674e214f984fa650b650385122527552c252f4524553ae54ff5408554b556e5500571e57f257f857fe57ec59f259f859345a945a9e5aba5ad85a235b2d5b4a5b795b975bd85b095c275c655ce95c325d385d3e5d445d685dcd5de15de75dfe5d225ee95e1f5f385f5c5fc45f2860d560db60f9602361296137613d617961f8615e62b3622d6341637c63ac63f36314641a6438647b649864c3640b65116517651d6547654d655b6561658265f165f965ff6505660b663b664466390818000251085204330740000383770a072845049511f07b10087b15648964753308206497501002fc027c78017c797c7a027c7b03978808d4980897aa1097bb18d4ba0ad4a8087c79057c7a047c7b067c7c07979908d4a90997bb1097cc18d4cb0bd4b909979920d489027c79097c7a087c7b0a7c7c0b979908d4a90997bb1097cc18d4cb0bd4b9097c7a0d7c7b0c7c7c0e7c780f97aa08d4ba0a97cc10978818d4c808d4a808978820d498037c78117c7a107c7b127c7c13978808d4a80897bb1097cc18d4cb0bd4b8087c7a157c7b147c7c167c791797aa08d4ba0a97cc10979918d4c909d4a909979920d4890a7c78197c79187c7b1a7c7c1b978808d4980897bb1097cc18d4cb0bd4b8087c791d7c7b1c7c7c1e7c771f979908d4b90997cc10977718d4c707d49707977720d487076f776fa86f396f2a7b5a187b59107b58087b57821008821595111032009511d87b10207b15187b161082897b19088289087b19828510828618330820501004b4016f686f59821a6faa821b086fbb787b18787a10787908787898bc38787c1f98bc30787c1e98bc28787c1d98bc20787c1c98bc18787c1b98bc10787c1a98bb08787b1998ab38787b1798ab30787b1698ab28787b1598ab20787b1498ab18787b1398ab10787b1298aa08787a11989a38787a0f989a30787a0e989a28787a0d989a20787a0c989a18787a0b989a10787a0a98990878790998893878790798893078790698892878790598892078790498891878790398891078790298880878780182102082151882161095112832009511a07b10587b15507b16489515608411e06476828718828910828a0882886f776f996faa6f887b18187b1a107b19087b17491138491130491128491120481140208318831a20831b403309ff33073300060a0401821738821830821928821a20501208ee667b6a187b69107b68087b6750120a566732009511a07b10587b15509515608411e08272827a08827b108277188283828908828c108288186f746fbb6faa6f276f826fcc6f996f387b17187b1a107b1b087b147b18387b19307b1c287b12208318831a203309ff330b2033070a089551a082105882155095116032008b7910520931c8780883881f8488e05638000001253309140002390a140002ae8a093d081400020133082000028377c887073200009511f07b10087b158475010a02013d0710000251050750100c0950100efd00951120ff7b10d8007b15d0009515e0008411e04911384911304911208000330740951820491128501010b2fd4911584911504911484911408317400a0901821750821858821948821a40d49808d4a707d487075107173308200002838833070133093300180a06289100491178491170491168491160641795186050101250fe801704977720821808821910821a18957764492198004921900049218800492180007b1ab8007b19b0007b18a8007b17a000951780009518a00050101489fe390814000256187f0c2003140002800001330720000283778000330833090a28acfb330780003308501016c5fe8378330733093300180a0601951110fe7b10e8017b15e0017b16d8019515f001951170d98411e06416956998184929e0074929d8074929c8078000330740956860204929d00750101aa7fc33071000027b671801390710000255170407284d559567002083778000330833001c0a010195699c2081975247e2450dac0a284b3d524713b290ae0a28272c524746e45ab30a28c92d5247e4d3d4d10a2805415247919148e10a28ac325247c3ce0ce20a285f2b5147421811e82c015247f1289bec0a280d1a5147f073b0ef55065247e0553e140a28d82e52475f9dc1170a28c80e5147adfdf2198f085247ed23b2220a28df3352470f5f2c260a283e0f5247e63a8a2b0a28dc375247f79654380a289a2052476c77b93e0a2898315247f1a08a490a28e12d52474a1dbd630a28cb0d52476fecc9640a288d1c524728b4e7640a2849155147f2177f720a28f92049295c044929540449294c0449294404956700208377e00433001e0a09330220286c63501220696382b75082b85882b94882ba40d49808d4a707d48707510706289c4f8267180181775617030728a04f9567a01033084050102210fa956a981082ab2082a81882a91082a7085012244561510806285f4e490a491af8491ae81095688010491af07b67180133005e032812fb49297c064929740649296c064929640695670020837700073300260a0933022828cd62501228ca6250122aa162510706283c4f8267180181775617230728404f956700208377200733080433002c0a010195699c2082989406829a9c0650122e556252080628294f82978c067b670001829784067b67f80033072000037b67f00083777b67e8003300300a038269f00033023228715f8269f0005012326a5f4929a005959b00057bb898007bb790009568201e7bba8800330750103456fa95679818492780054927780549277005647a3307209568001e492a68050150103633fa5012383a613308140002390714000256173f0b200314000240019517e08479e07b69d00064913307200002837783997b68e0003308407b67d80033003a0a05826ad00033023c280261826ad00050123cfb608377e0fdc8670750103ec7fa9563981882374805823850058477ff8488ff826c0001d38c09d8c80a8262f800d8270bdb9a0bdbb702dbb80c826a080194ba8269100194b94923200549231805953b00057bb8107bb7087b6910017bb97b6a08017b3af8047b6c00017b3cf0049567c01d9568a01d9569801d7b62f8007b32e804501040a55d95679818957900058298287b68d0008298307b68c8008298407b68c0008298387b68b8009567601d826818015010421dfa956898188287d8048288e0048269b800d497078269c000d4980895699c20826ac800959b04067bbaa800826ad0007bbaa0007bb8b8007bb7b00095684027826718015010444efa8267e8003300460a038269f00033024828c45d8269f000501248bd5d4929c004959b00047bb8b8007bb7b0009568401d7bbaa800330750104aa9f833024c95689818014928a00449289804492888040164893307209568201d4929900450104e82f88268e000818756173f0d48084033025028945e501250915e8267d8000a05826818018287187b67b8008287107b67b0008287087b67a80082877b67a00095679c204927dc064927d4064927cc064927c4069567001d9568602750105216f9956998188097680449294004492938047b9728049567e01c9568c01c49293004501054a9533302569568981801958900048297607b67d8008297587b67d0008297507b67c8008297487b67c0009567a01c33084050105891f695679818957c000482c8207b68e00082c9187b69e80082cb107b6bf00082ca087b6a18017bc87b79f8037b7bf00364789567801c7b8ae80350105aa7538267e0008268f000d487078269e8008268180150125ccc6051070628a04a956798188268c000957a00037ba8c8008268c8007ba8d0008268d0007ba8d8009568601c8269d8007ba9e0008267180150105e3bf78267e8008268e000d487071408e0ffffff0000000082691801d889088269f0009498947852080628414a8267a0006f778268a8006f888269b0006f99826ab8006faa95ab047b6bd800d8ab0ac8a90b7b6bd000d89b09daaa09c889097b69c800d88908c887077b67c00082671801837720956a98188268f80095ab00037bb8a800826800017bb8b000826808017bb8b8009568401c826910017bb9c00050106099f68267e00095689818958900037b9780008267e8007b97788267f0007b9770826718017b97688267c0007b97a0008267c8007b9798008267d0007b979000648a9567201c9568001c8269d8007ba9880350106285569567e01b330840501064fff4956b981895bc000382c76082c85882c95082ca48d49707d48a09d47909989920d48707977720d49707510706283a498267f80095b900037b9728956b000182b77b973082b7087b97389568c01b82b7107b974064a77b6a180133005e0328d7f549297c074929740749296c074929640795670030837700f83300660a0901956a9c2095ab0407501268685d51070628364a82671801817756172307283a4a95670030837720f833080433006a0a010195699c2082989407829a9c0750126c1c5d52080628234a82978c077b670001829784077b67f80033072000037b671801837733006e0a0382691801330270283c5a82691801501270355a4929c007959b00077bb8b8007bb7b000956840207bbaa800330750107221f533027495689818014928a00749289807492888070164893307209568202049299007501076faf4501278015c390814000256183f0b200314000240019517e08479e07b69f000649133072000028377839933084033007a0a05826af00033027c28d65b826af00050127ccf5bc8670750107e9ff5956a981895ab000782b76882b870826910017bb920826908017bb918826900017bb9108269f8007bb908492a40077bb8307bb7289567e01f9568c01f9569a01f492a380750208000d85795679818957900078298487b68f0008298507b68e8008298607b68e0008298587b68d8009567801f826818015020820024f5956898188287f806828800078269d800d497078269e000d4980895699c20826ae800959b04077bbaa800826af0007bbaa0007bb8b8007bb7b00095684028826718015020840054f59567601f33084050208600a3f2956a981895ac000682c7e00082c8d80082c9d00082cbc80050228800b45a51070628e8468267f80095a900067b97a800956a000182a77b97b00082a7087b97b8009568401f82a7107b97c00064b77b6b180133005e032881f34929bc004929b4004929ac004929a400956700208377400133008a000a0933028c0028e05c50228c00dd5c50228e004b5b510706280d488267180181775617230728114895670020837760013308040a010195699c20959704827cd800827ad000827bc800d4ca0788b801947852080628f3478298c400826718018074958723d88709c89b037b6be800d8b30bda990bc8ab0b7b6af000d8ab097b6c0801c8c909d4b909d847079437949752070628c6479517e08477e07b67f80064717b68100183880495670020837780010a010195679c20957804828cf8008270f4008289e800828be0008267f8007b7c187b70107b7908d4c00a88980194a87b7b52080628854798ba3b979805d4a8077b6b980097b805826a100195ab24d8ab048262e800c8420ac8a707c8b8087b68d8007b6b1001d8b80bc8b703d3a308d8a307da8b07980b3b7b6cb00097cc05d4cb0b7b69a000989c3b7b60a800970805d4c8087b6a0001d82a0cda440c8269f000c89c0cd89c09826a0801c8a909c8c8087b690801c89b0b7b6ce000d8c809c8b909826b180180bbc8780ad88a08c898088267d800d87b09883b01859901db3b0988870188ab01db870bd4a808db8b0952090628d74633072000037b675883777b6750330090000a038269583302920028165782695850229200105749261804956900047b98107b9708956800047b9a33075020940080f14926f8034926f0034926e8033307209568e0034926e003015020960062f15022980068583308140002390714000256173f0b200314000240019517e08479e07b69f0006491330720000283777b686083993308407b676833009a000a05826af00033029c00284f57826af00050229c0048579567c00350209e00f6f18267c0038268c8038269d803826ad003847700ff867702956b9c2095bc04017bc9187bca107bc8087bc79568a021826718015020a00036f28267503300a2000a038269583302a400282a568269585022a40024564926b8037b68b0037b67a8039568a0037b6aa00333075020a60094f04926980349269003492680030133072095688003492688035020a80076f08268609517e08477e07b6718016471818756173f08480840019517e08477e07b67f000647183793308408267683300aa000a05826af0003302ac0028fb55826af0005022ac00f4557b6b9000826818017b8b7b6c80007b8c087b69787b89107b6788007b8718956760035020ae00f8f0956800038287787b67f0008287707b67e8008287687b67d0008287607b67d800826718018268f8005020b00042f1826bb000826cf000d3cb078269a0008268d000d38902d88909826a98008268d800d88a0adb290ad8cb08826ba800826ce800d8cb09db7809d3cb08d48707db790a520a0628052382679000956900037b9740826780007b97488267787b975095684003826788007b975833075020b20066ef826960819756171f0e4809203302b4002829585022b40026588267680a0582681801828718828910828208828a6f786f978269d000c87909826bd800c88b0b7b6bd800d88b0cc8c90bd37b097b6bd000d87b0bda9c0b6fa36f2a826ce800c8ac0c8262f000c83202d8ac09c82909c8cb0b7b6bc800d8cb0bc8b9097b69c0009519e08492e064218269a000c87909826b9800c8b804d88408c88900d37009d87007da98078268a800c8a8088269b000c89303d8a809c83909c87803d88307c8790c7b62b800018267d800d874078269d000d39008d89009da8709826bc800d8b307826ac000d3ac08d8ac0ada870ad3b307d48707da790a7b247b20087b23107b2c1895679c20520a0628ce2149273c014927340149272c01492724019568c02164277b6418017b60f8007b6cf0007b63e8005020b60098ef826cf0008260f800826418018262b800954401884701c87000d404078877018268e800c88707d88708c88c0c64732860ff4929dc034929d4034929cc034929c40395670020837760043300b8000a093302ba0028a6555022ba00a35582b7d00082b8d80082b9c80082bac000d49808d4a707d4870751070628d5428267180181775617030728d9429567ff07957761043308405020bc005bec5022be003a5682cbe00082c8d80082c9d00082c7c8005022c000895351080628a240492ac003492ab803492aa80388139568ff0795884104492ab0037b67180133005e03284bed49299c004929940049298c004929840095670020837720013300c2000a093302c40028aa565022c400a7565022c600a554510706285b4282671801817756170307285f42956760023308405020c800c3eb956b000282ba7882b87082b96882b7605022ca00115551080628104049265802492650023a090800024926480201956840027b6940027b67180133005e0328b9ec49299c024929940249298c024929840295670020837720033300cc000a093302ce00280b565022ce0008565022d000135451070628eb418267180181775617030728ef4133072000037b67180183773300d2000a03826918013302d400287751826918015022d4007051492900017b98f8007b97f0009568ff07958881017b9ae80033075020d60032ec9568ff07958899004928e0004928d8004928c8000164893307209568ff07958861014929d0005020d80006ec5022da000c533309140002390714000233083fac78142003140002407b69f8003302dc0028c8547b69f8005022dc00c1543307200002837783993308407b6700013300de000a0501826a100182a782a80882a91082aa185022e000ea5395ab04d8ab0ac8a90cd89c09daaa09c88909d88908c887077b6bf000826818017b8b7b6ce8007b8c087b69e0007b89107b67d8007b87189567ff07957741015020e20056ec956aff0795aa990082a9c00082abb80082acb0008e978eb8db97087b69707b6b68d49b077b6c608ec9db780951090628ba4082a7a8007b67589567ff07957721013308405020e400e0e99560ff07950099008203a0007b631801820298007b621001820490007b64080182696898973b826870978805d48707826a6098a83b979905d49808826b5898b93b97aa05d4a90997ba0595ab20d8ab0ac8a90cd89c09daaa09820a88007b6a28c88909d88908c887009567ff07957799007b7b487b7380007b72787b74707b7a687b7c507b795864799567ff07957701019568ff079588e1007b90605020e6004b47826728956b000182b81882b908d4890982ba10d4a708d49808988820d4a909979920d49808510806287c3d956aff0795aa99008268587ba8288268607ba8308268687ba8389568ff079588c1008269707ba9405020e8001fea8268289587207b6748d88707956a000182a908c879087b6840d89808da770882a710c878087b6838d878077ba7108267d8009568ff07958899007b87208267e0007b87188267e8007b871064899568ff079588a1008267f0007b970833075020ea00bbe99517e08477e07b67d00064718269f800819756171f08480920018267180182681001c887077b67301407ffffffff000000007b67785022ec0093510a0533093308330c3304826a180182a71882ab1082a20882a36f706fba6f2b6f328267d0007b72187b6bb8007b7b107b7a087b701407e0ffffff000000007b67508267487b67f0008267407b67e8008267387b67f8008267307b670001017b6290007b6a18017b6098008267587b69b000d87907826960d3980a7b68a800d89809daa709826b68d8bc07826a70d3a4087b64a000d8a40ada870a7b6c8800d3bc07d48707da790a7b6ac8009567ff07957781003308405020ee008ae79567ff079577990082748278f895670010827980f895670010827b88f8d48907d44b0a826cc8007b6908017b64e0007b6bd8007b681001520c06286e37956c00077bc9607bcb687bc8707b67c800956760077b6478077b6ac0005020f0007d44956740078268d0005020f20048e98267c8008269c000d4970798772082681001d49808978820d4870751070628643b956900078297507b67c8008298408297487b67c0008267787b688000d28707492638074926300749262807956820077b9720826708015020f400f9e78267e00082681001d48707826850826b0801d88b088269d8009498947852080628053b826780009877208269c000979820d487079898208269c800979920d498088489ff8478ff83b72049261807492610077b680007956800077b6908075020f60095e7826af800826bf000d4ab0782690001826ce800d49c08d48707987720d4a808978820d4870751070628993a826708017b67e0068267d8007b67e806826710017b67f0069568e0068267e0007b67f80664b77b6900017b6af8007b6bf0007b6ce8005020f8002ee7826098008268f0009587207b671001d887098268e800c898077b670801d8870ada990a8267f800c8a703d8730a82670001c8a7077b670001950001880a0182681801c8a8087b68180182681801d4800a88aa018268b800c88a0ad88a0b82679000c8b7078269b000959901889b018268a800c8b808d4890b88bb01826c8800c8cb0bd8cb0c8264a000c8c404826cd000826218017bc20864727bc07bca107bc7187b6ab800956c000182c7107b67f00082c7087b67e80082ca187b63f80064bc284cfd49293c044929340449292c0449292404956700208377c0043300fa000a093302fc00282e4e5022fc002b4e82b73082b83882b92882ba20d49808d4a707d4870751070628103c8267180181775617030728143c956760103308405020fe00d1e49568ff0795889900958c000782c7e0007b67080182c9d8007b69000182cbd0007b6b100182cac8007b6a18017bc7c0007bc9b8007bcbb000956740107bcaa80050200001de41956a000182a70882a810d4870782a982a81850220201034f51070628d6389567ff07957799004927a00749279807492790079568201049278807826718015020040181e5956a000182a70882a8d4870750220601014e520806289838826718018377209569ff079599990049298007492978074929700795680010492968075020080140e533072000037b671801837733000a010a038269180133020c01283f4a8269180150220c01384a49296007959b00077bb8587bb7509568ff079588e1077bba48330750200e01f9e49568ff07958899004928400749283807492828070164893307209568ff079588c1074929300750201001cde49517e08477e07b6710016471390814000256183f133308403d081400023302120128a04d502212019d4d330720000283778399330840330014010a0501826a180182a71882a81082a90882aa50221601bc4c826b10017bba187bb9107bb8087bb79567ff079577a1073308405020180121e39568ff0795889900958c000782c7207b67000182c9187b69f80082cb107b6b080182ca087b6a18017bc7958c00067bc9f8007bcbf0009567ff07957781077bcae80050201a012c409567ff07957761078268100150201c01f3e4956a000182a782a808d487078269f80082a81850221e013e4d5107062811379567ff0795779900957a000682a8e0007b68100182a8d8007b68f00082a9d00082a8c8004927c0064927b8067b68e0007ba8a8009568ff07958841077b69e8007ba9b000826718015020200194e3956a000182a78268f800d487071408e0ffffff0000000082a918d8890882a90894989478520806289936956b000182b718837920956aff0795aa9900492aa006492a98068267f0007ba788069568ff079588210782b7107ba790067bb9186497502022012ee39567ff079577010733084050202401e3e19562ff079522990095270006827c8000827978827b70827a68d4cb07d49a08d47808988820d49707977720d4870751070628183649226006492258068267e0007b2748069568ff079588e1068267e8007b27500664a77b6a10017b6b08017b6c00017b69f80050202601b1e29567ff079577c106826818015020280165e1956a000182ab1082a78268f800d487071408e0ffffff00000000d88b0882a9089498947852080628a435956cff0795cc990082c7300682c82806847aff8488ff83b720492c2006492c18067bc808069568ff079588a1067bca100650202a013ee23308408267100150202c0104e4837833094033070a0628b62d4929fc064929f4064929ec064929e406956700208377800733002e010a093302300128db4950223001d84950223201104b51070628fb378267180181775617230728ff37956700208377a0073308040a010195699c2082981407829a1c0714070000000001000000d38707d4a7077b6800019888208888017b6af00094a8937852080628ce3782970c077b67d800829704077b67e00033072000037b67180183777b670801330034010a03826918013302360128614682691801502236015a464929a006959b00067bb898007bb790009568201f7bba880033075020380145e19568981850223a01434a9568001f4929700650203c012de19517e08477e07b67100164713308140002390714000256173f0b200314000240019517e08479e07b69d00064913307200002837783997b68f8003308407b67e80033003e010a053302400128a047502240019d47826810017b8a7b89087b8b107b87189567e01e50204201b2e195679818827360068268e000988a38826bd80097b908d4a902826c000198c938826af00097aa08d4a909827a580698bb3897cc08d4cb0b7c7c480698aa2897aa28d4ba0a978b08d4cb0bd4930795699c207b922c07959804077b87387b8b207b8a309568c0278267100150204401bae182670801330046010a038269180133024801282d458269180150224801264549294006959b00067bb8387bb7309568c01e7bba28330750204a0114e033024c0195689818014928200649281806492808060164893307209568a01e4929100650204e01ebdf8268f800818756173f0e48084033025001284f48502250014c48330052010a053302540128b44550225401b14595bc04077bca587bc9507bc8487bc7409567801e9568e0275020560192e03302580195689818018287f0057b6718018287e8057b6710019567601e33084050205a0140de956a981895ac000582cbe00082c8d80082c9d00082c7c80050225c016c4551080628853250225e011a48492ac005492ab8057ba8a8059568401e492ab0057b67180133005e03282edf826718018177561703072864354929fc034929f4034929ec034929e40395670020837780040a0995689c208287ec037b6710018287e4037b67080133072000037b67000183777b67f000330060010a03826900013302620128f1438269000150226201ea4349290006959b00057bb8f8007bb7f0009568ff07958881067bbae800330750206401a8de9567ff07957799004927e0054927d8054927d005647a3307209568ff0795886106492ac80501502066017cde5022680182453308140002390714000256173f0b200314000240019517e08479e07b69e00064913307200002837783997b68f8003308407b67e80033006a010a05826ae00033026c01286f45826ae00050226c0168459567ff079577410650206e010adf956aff0795aa990095ab000582b7a80082b8b0008477ff8488ff492a6005492a5805826910017bb950826908017bb948492a80057bb8707bb7689567ff07957721069568ff07958801069569ff079599e105492a78055020700130419567ff079577990095790005829888007b68e000829890007b68d8008298a0007b68d000829898007b68c8009567ff079577c105826818015020720170de9568ff079588990082873805828840058269c800d497078269d000d4980895699c20826ad800959b04047bba08826ae0007bba7bb8187bb7109568a0248267180150207401a1de8267f000330076010a038269000133027801283d428269000150227801364249292005959b00057bb8187bb7109568ff079588a1057bba08330750207a01f7dc9568ff0795889900492800054928f8044928e8040164893307209568ff07958881054929f00450207c01cbdc8268f8009517e08477e07b6700016471818756173f0e48084033027e0128234550227e012045330080010a053302820128e04450228201dd447b6bf8006f997b69f0006faa7b6ae800826800017b8a187b89107b8b087b879567ff07957761055020840157dd956aff0795aa990095ab000482b7d80082b8e000492a8004492a7804826910017bb970826908017bb968492aa0047bb890007bb788009567ff07957741059568ff07958821059569ff0795990105492a980450208601813f956bff0795bb990095bc000482c7a80082c8b00082c9b80082cac0007bca407bc9387bc8307bc7288267e8007bc7608267f0007bc7588267f8007bc7509567ff079577e1049568ff079588c104826918017bc9483300880133020e042864459567ff079577a10433084050208a0163da956aff0795aa990095ac000482c72082c81882c91082cb0850228c01744251070628a82e492a0004492af803826708017ba7e8039568ff0795888104826710017ba7f00364b77b6b180133005e032849db49297c034929740349296c0349296403956700208377000433008e010a093302900128f54250229001f24250229201d54251070628663182671801817756170307286a319567ff079577a10333084050209401bdd9502296019c4382cb2082c81882c91082c70850229801ef4051080628082e3a08000002492a0003492af8027ba8e8029568ff0795888103492af0027b67180133005e0328aeda514702fea0770a281a3149297c044929740449296c0449296404956700208377000533009a010a0933029c01286a4250229c01674250229e0130425107062831318267180181775617030728353133072000037b673083777b67183300a0010a038269303302a201288e3f8269305022a201883f49290006959b00057bb8f8007bb7f000956880167bbae80033075020a4011dda3302a60195689810014928e0054928d8054928c805016489330720956860164929d0055020a801f4d99517e08477e07b67b80064713309140002390714000256173f0b200314000240017b6928140800000000ffffffff7b68381407ffffffff000000007b67a8009517e08479e07b69f80064913307200002837783993308407b67200a054926d8004926d0004926c8004926c0004926a000492698004926800049167849261801492610014926000149260801826af80082a71082a81882a90882aa6f776f88958b04d88b08c8870cd87c07da88076fa86f99c8790ad89a07c887078268b8007b6bf8007b8b7b6cf0007b8c087b6ae8007b8a107b67e0007b8718956740165020aa0103da956c981095ca000582a7b00082a8c00082a9a80082c4b80582601001d37003d8700782621801d89209db370982630001d84307826b0801d38b0ad88b08daa708d34307d4a707da79085108b7059517e08477e07b67b00064717bcb20037bc318037bc010037bc208038267e0007bc740038267e8007bc738038267f0007bc730039567e0139568c0139569a013826af8007bca28037b6218017b6010017b6b08017b6300015020ac017336956798108277580395689810828860039569981082994803956a981082aa5003826bb0007bb7107bb8187bb97bba0864b8956780135020ae011dd9956798108277e8028268a800d287077b67900095679c2049279c044927940449278c044927840495676013956820255020b001e8d8956798108277c8028268a800d287077b6788009517e08477e07b67b000647195679810956900018298087b7860029567981082987b785802956798108298107b785002956798108298187b784802956798108268e0007b788002956798108268e8007b787802956798108268f0007b78700295672013956800139569e012956a9810826bf8007bab68025020b20173358268b0009563981082329802953900028297a000829b8800829a90007b82107b87187b8b7b8a08826c900082698800aec934027b6b407b6a487b62507b67588262d8009528018887018264d000c8740bd4b807887701826cc800c87c0ad8ca078269c000c897077b6b707b6760d4b7077b6888007b6a68d4a808d48707520706286e2a9517e08477e07b6790006471953a00017ba9607bac587b3450017b3248018267e0007ba780008267e8007ba7788267f0007ba77095672012956800129569e011826bf8007bab685020b401a334956998108292b8018293a8018290c001959800018287b00082949801828aa000828c8800828b9000826890007b84107b8a187b8cd40700d42307d407077b8b0851070628232a826740d3c707826850d38408d48707826848d3b808826958d3a909d49808d4870751070401956780118268b0007b6cd8007b64c8007b6bd0007b6ac0005020b601ffd6956798108277e8008268a800d287077b675895676011826890005020b801dfd6956a981082a7d00082a8d80082a9e00082aac8008477ff8488ff8499ff826b38d2ba0a826b58d4ba0a956b9c2095bc04047bc9b8007bc8b0007bc7a8007bcaa00095684025826790005020ba0108d7956740118268b0005020bc0182d6956b981082b7b80082b8b00080b9ac00977720988a20d4a707978820d498088489ff8477ff492b8000491b78826ac0007bbaa000826ac8007bba9800826ad0007bba9000826ad8007bba88007bb77095672011956800117bb9683300be013302e00328e13e8267a0008268980082691801826a1001826b0801826c00018262880082637082646882606028b3009567c0125020c001ebd5956b981095bc000282c73882c83080b92c02977720988a20d4a707978820d49808848aff8477ff492be001492bd8018268787bc88268800095bc00017bc8f800826898007bc8f0008268a0007bc8e8007bc7d0009567a01295688012956960127bcac8005020c201033895699810959a000282a7207b677882a7187b67800082a81082a7088262d8008263d0008264c8008260c00082691801826a1001826b0801826c0001017b6898007b67a0009599017b691801889701c87a0a7b6a1001d4a907887701c8c707d8c708c88b0b7b6b08017b62d8007b63d0007b64c8007b60c0007b6700018268b800956740163300aa0128f3d49518e0848ce064c1887801c98908d47909889901c99a0bd89a09c994099577ff7bc9187bcb107bc8087b6c18017bc7951ae084aae07b6a100164a1950c00037bc9e0007bcbd8007bc8d0007bc7c8008267e0007b0700048267e8007bc7f8008267f0007bc7f0009567a0149568801495696014826af8007bcae8005020c401903195679810827238048273280482744004827a3004827b1804827c20048279080482781004826710017b7b107b7c187b79d44a09647ad42307d497077ba808510706286f2695679c204927dc044927d4044927cc044927c4049568602564a75020c60189d48267b800826818015020c8017bd48268b800956720165020ca01f5d39560981095080005828990008204a00582878800828a98008268d000d38902d8980c8268d800d8780bdb2c0b8268c800d8a802826cc000d3c403d84c0cda320cd3a808d43808da8b0c520cb6fe8267183300cc010a038269303302ce0128eb378269305022ce01e53749298005959b00057bb8787bb770956800167bba6833075020d0017dd23302d20195689810014928600549285805492848050164893307209568e015492950055020d40154d29517e08477e07b6710016471826928819756173f0e4809403302d6012859385022d60156388267203300d8010a053302da0128673a5022da01643a7b6b08016f997b6900016faa7b6af800826810017b8a187b89107b8b087b879567c0155020dc01e2d295699810829a380582974005826878959b00047bb8e000826880007bb8d800826898007bb8d0008268a0007bb8c800492900054929f8047bb7f000649b9567a01595688015956960157bbae8045020de01e635956b981095bc000582c70882c81082c91882ca2095bc00047bcaa0007bc998007bc890007bc788008267f8007bc7c000956a000182a77bc7b80082a7087bc7b000956740159568201582a9187bc9a8003300e00133020e0428f83a956700153308405020e201fbcf956a981095ac000482c7800082c87882c97082cb685022e4010f38510706284324826798008477ff8269a0008498ff492a6004492a58047ba848049568e0147ba7500464b77b6b180133005e0328e2d049295c064929540649294c0649294406956700208377e0063300e6010a093302e801289b385022e801983882b75082b85882b94882ba40d49808d4a707d48707510706288227826718018177561703072886279567a01b3308405020ea014bcf956a981895ac000382cb2082c81882c91082c7085022ec017b36510806289423492a0003492af802492ae802029568801b492af0027b67180133005e032842d049299c054929940549298c054929840595670020837720063300ee010a093302f0012887395022f00184395022f2019c375107062813278267180181775617030728172733072000037b67180183773300f4010a03826918013302f60128d734826918015022f601d0344909959b00ff7bb8f8007bb7f000956880187bbae80033075020f801bdcf956998104929e0074929d8074929c80701330720956860184929d0075020fa019bcf390814000256183f133308403d081400023302fc01287a385022fc0177383307200002837783993308403300fe010a05826a18013302000228d335826a180150220002cc35958c04057bcaa0007bc9a8007bcbb0007bc7b80095674018956840265020020226d0330204029568981001958900078297b800956800017b87188297b0007b87108297a8007b87089567201833084050200602c7cd956a981095ac000782cba00082c8980082c9900082c7880050220802f334510806280c2282691001989b08826c180197c838d48b0b82680801988808979938d4980897c918989920492a800795ac00077bc8687bc978956800187bcb707b67180133005e032896ce4929dc054929d4054929cc054929c405956700208377600633000a020a0933020c0228db3750220c02d83782b7d00082b8d80082b9c80082bac000d49808d4a707d4870751070628762582671801817756170307287a259567c01833084050200e02fbcc956a981882a74082a83882a93082ab28502210021435510706284821491a20491a10051407000010632d5ec76b7ba7089568a018491a1864b77b6b180133005e0328eecd4929bc034929b4034929ac034929a4039567002083774004330012020a0933021402289a3550221402973550221602b835510706280325826718018177561703072807259567ff07957721043308405020180262cc50221a02413682c7a00082c8980082c9900082cb880050221c02753451070628a920492a8003492a7003c2d3001407000000a1edccce1b7ba768039568ff0795880104492a780364b77b6b180133005e032845cd49195c49195449194c491944956700208377e0000a0901956b9c2095bc0482c75082c85882c94882ca40d49808d4a707d48707510706287a2482671801817756170307287e24491b7c491b74491b6c491b64956720029568002150201e02dacd826720027b671801956700023308405020200299cb956b000282ba1882b81082b90882b750222202e83451080628e71f826818019788209889204926f8014926f0014926e8019568e0017b69e0017b67180133005e03288ccc82679000956900037b9720826780007b97288267787b973095682003826788007b973833075020240264cc826960819756171f08480920019517e08477e07b67f800647183793308208267680a053300330c49261801826af80082a782a80882a91082aa186f777b67b8006f877b6790006f977b6788006fa77b678000330a956700208377e0017b67781407ffffffff000000007b67708264e0000182679800d870078269a000d39c08d89c09da8709826ba800d8ba0264a7826ab00082681801d3a803d8a80ada320a7b67f800d3b707d43707da790a520a062816169517e08477e07b67d8006471956b000182b910d4490782b80882bad4a808d48707987720d44808978820d4870751070628ae1e7b6ce8007b60f0007b64e00083988267787b6910010a010195629c20952b040182b74882b85882b9508263d800643c7bc7088e87989a208eaadb870a82b7407bc8187bc910826b70d3b909d49808938a7bc7510a0628a71e826810019587207b67d000d8870782680001c878097b69c800d88908da77088267e000c878087b68c000d8780782680801c878087b6808018268f00082678000c87804d884088267e80082698800c87909c88909d3790ad8790bdaa80b826890008267f800c87808d8780a826cb80082671801c87c0cc8ca0ac88b0bd88b08c8a8087b246401952704017b79687b7b707b787895670022643850202602f2cb826ce8008260f000950001880701c87c0cd4c0078877018268f800c88707d88708956a000182a918c889097ba9188268d0007ba8108268c8007ba88264c000647a2854fe49299c034929940349298c03492984039567002083772004330028020a0933022a0228ed3150222a02ea3150222c029b31510706289a2182671801817756170307289e219567ff079577e10333084050202e02b5c850223002943282c76082c85882c95082cb4850223202cc3051070628001d492a4003492a38031407000064a7b3b6e00d7ba728039568ff079588c103492a300364b77b6b180133005e03289fc949291c064929140649290c0649290406956700208377a006330034020a0933023602285831502236025531502238021433510706281a2182671801817756170307281e2133072000037b671801837733003a020a038269180133023c0228342e8269180150223c022d2e4929e002959b00027bb8d8007bb7d0009568601b7bbac800330750203e0218c93302400295689818014928c0024928b8024928a8020164893307209568401b4929b00250204202efc8390814000256183f133308403d081400023302440228ce3150224402cb31330720000283778399330840330046020a05826a180133024802284a2e826a180150224802432e95689c20958a04067bab207bac287ba9307ba7389567201b9568c02650204a027ac995679818827788027b6718019567001b33084050204c0235c7956a981895ac000282cb800082c87882c97082c76850224e02642e510806287d1b82681801978820988820492a6002492a58027ba848029568e01a492a50027b67180133005e032822c84929bc014929b4014929ac014929a4019567002083774002330050020a0901956a9c2095ab040150225202f02f51070628c31f8267180181775617030728c71f33072000037b67100183777b670801330054020a03826910013302560228362d82691001502256022f2d492638067b6830067b672806956820067b6a20063307502058029fc749261806492610064926080633072095680006492600060150205a0281c750225c02872e3308140002390714000256173f0b200314000240019517e08479e07b69f00064913307200002837783997b6800013308407b67f80033005e020a05826af0003302600228742e826af000502260026d2e9567e0055020620213c88267e8057b67d8008267e0057b67d0009567c0058268180150206402f5c78267d8058268d00595699c204929cc014929c4017b97dc017b98d40195686022826718015020660243c882670801330068020a038269100133026a0228352c8269100150226a022e2c4926b8057b68b0057b67a8059568a0057b6aa005330750206c029ec649269805492690054926800501330720956880054926880550206e0280c682680001818756173f0e4808403302700228902c502270028d2c8267f8000a05826818018287187b67c8008287107b67c0008287087b67b80082877b67b00095679c204927fc014927f4014927ec014927e40195676005956880225020720211c78067600549263805492630057b67200595674005956820054926280550207402a721826758057b67f800826750057b67f000826748057b67e800826740057b67e000956700053308405020760296c4956b000582b7187b67000182b8107b68080182ba087b6a100182b97b691801956b00047bb7f8007bb8f0007bbae8009567e0047bb9e00050207802ac21956a000182a782a810d4870782a90882a81850227a02d12e51070628a4188267e000956900047b97c0008267e8007b97c8008267f0007b97d0009568c0048267f8007b97d8008267180150207c0243c5956a000182a70882a8d4870750227e02c32d520806285a188267b0006f778268b8006f888269c0006f99826ac8006faa95ab047b6bf800d8ab0ac8a90b7b6bf000d89b09daaa09c889097b69e800d88908c887077b67e000826718018377204926b8044926b0048268d0007b68a0049568a0048269d8007b69a80450208002c2c49568000182877b6778048287087b6770048287107b6768048287187b6760048267e0007b6798048267e8007b6790048267f0007b67880495678004956860048269f8007b69800450208202b52495674004330840502084022ec3956b000482b75882b85082b94882ba40d49707d48a09d47909989920d48707977720d49707510706286c1749263804492630048267d0007b672004956820048267d8007b67280464a77b6a180133005e032811c44929bc024929b4024929ac024929a4029567002083774003330086020a093302880228632d50228802602d50228a02db2b51070628d01b8267180181775617030728d41b33072000037b67d00083777b67b80033008c020a038269d00033028e0228cb288269d00050228e02c4284929e002959b00027bb8d8007bb7d0009568ff07958861037bbac80033075020900282c39567ff07957799004927c0024927b8024927b002647a3307209568ff0795884103492aa802015020920256c3502294025c2a3308140002390714000256173f1120031400024033029602281e2c502296021b2c330720000283777b68c80083993308407b67c000330098020a05826a100133029a02284129826a100150229a023a299567ff079577210350209c02e4c3956aff0795aa990095ab000282b7880082b8a00082b9980082ba9000847700ff956b9c2095bc04027bc8d8007bc9d0007bcac8007bc7c000956860238267180150209e0216c48267b8003300a0020a038269d0003302a20228b2278269d0005022a202ab2749298002959b00027bb8787bb7709568ff07958801037bba6833075020a4026cc29568ff07958899004928600249285802492848020164893307209568ff079588e102492950025020a60240c28268c8009517e08477e07b6718016471818756173f0e4808403302a80228812a5022a8027e2a3300aa020a05826a10013302ac0228cc27826a10015022ac02c527826818017b6bf0007b8b7b6ce0007b8c087b69d8007b89107b67e8007b87189567ff079577c1025020ae02c4c29567ff0795779900957900028298407b6810018298387b6808018298307b68f8008297287b67000195679c204927fc024927f4024927ec024927e40295688023826718015020b002f2c2956a000182a7108268f800d4870782a80882a9d49808d4870752076a0a8267b8003300b2020a038269d0003302b4022871268269d0005022b4026a2649290002959b00017bb8f8007bb7f0009568ff07958881027bbae80033075020b60228c19567ff07957799004927e0014927d8014927d001647a3307209568ff0795886102492ac801015020b802fcc05022ba0202288268c800818756173f0e4808403302bc022843295022bc0240293300be020a05826a10013302c002286126826a10015022c0025a26826818017b8b7b8c087b89107b87189567ff07957741025020c20296c1956aff0795aa990080a7ac0195ab000182b8c00082b9b80082bab000977720956b9c2095bc04037bc8387bc9307bca287bc7209568c023826718015020c402cdc18267b8003300c6020a038269d0003302c8022869258269d0005022c80262254929a001959b00017bb898007bb790009568ff07958821027bba880033075020ca0220c09568ff07958899004928800149287801492868010164893307209568ff0795880102492970015020cc02f4bf8268c800818756173f0e4808403302ce022804265022ce0201268267c0003300d0020a053302d20228b9255022d202b62595bc04037bca587bc9507bc8487bc7409567ff079577e1019568e0235020d40293c09568ff0795889900828750017b671801828748017b6710019567ff079577c1013308405020d6023ebe956aff0795aa990095ac000182cb4082c83882c93082c7285022d8026a255108062883125022da021828492a2001492a18017ba808019568ff079588a101492a10017b67180133005e032828bf4929fc044929f4044929ec044929e40495670020837780053300dc020a093302de0228ee265022de02eb265022e002162851070628091782671801817756172307280d17956700208377a0053308040a010195679c20957c040582c81882c91082ca0882cb7b68f0007b6ae000d48a077b6bd800d49b08d478089888207b69e800d49707977720d4870751070628d21633072000037b67180183777b6710013300e2020a03826918013302e40228c323826918015022e402bc2349296007959b00077bb8587bb7509568e0177bba4833075020e60254be95679810492740074927380749273007647a3307209568c017492a2807015020e80230be9517e08477e07b67f80064713308140002390714000256173f0b200314000240019517e08479e07b69d00064913307200002837783997b6808013308407b6700013300ea020a053302ec0228a3245022ec02a0248268f8007b8a7b89087b8b107b87189567a0175020ee02b5be956a981095ab000782b70882b81082b92082ba18847700ff867701956b9c2095bc04057bc9387bca307bc8287bc7209568c0258267f8005020f002f0be826710013300f2020a03826918013302f40228b922826918015022f402b22249290007959b00067bb8f8007bb7f000956880177bbae80033075020f60247bd3302f80295689810014928e0064928d8064928c806016489330720956860174929d0065020fa021ebd826808019517e08477e07b67f8006471818756173f08480840019517e08477e07b67d00064718379330840826700013300fc020a05826ad0003302fe02287422826ad0005022fe026d228268f8007b8b7b8c087b89107b87189567401750200003adbd956a981080a7ac0697772095ab000682b8b00082b9b80082bac000826bd800d4b707826be000d4b808826be800d4b909826bf000d4ba0a956b9c2095bc04057bca587bc9507bc8487bc7409568e0258267f80050200203ccbd82671001330004030a03826918013302060328952182691801502206038e214929a006959b00067bb898007bb79000956820177bba880033075020080323bc9568981050220a032125956800174929700650200c030bbc8268080181875517400e48084033020e03281b2250220e03182282670001330010030a053302120328d02150221203cd2195bc04057bca787bc9707bc8687bc7609567e0169568002650201403aebc330216039568981001828750067b671801828748067b6710019567c016330840502018035cba956a981095ac000682cb4082c83882c93082c72850221a038c215208a80e50221c033c24492a2006492a18067ba808069568a016492a10067b67180133005e032850bb4929fc054929f4054929ec054929e405956700208377800633001e030a0933022003289524502220039224502222033e245107062864138267180181775617030728681333072000037b6718018377330024030a03826918013302260328e51f8269180150222603de1f49294002959b00027bb8387bb7309568c01a7bba28330750202803ccba33022a0395689818014928200249281802492808020164893307209568a01a4929100250202c03a3ba50222e03a9213309140002390714000233083fac78142003140002407b690801330230032865237b690801502230035e233307200002837783993308407b670001330032030a05826a100133023403281420826a1001502234030d207b6b1001826818017b8b7b6cf8007b8c087b69f0007b89107b67e8007b87189567801a33084050203603e1b895679818827800027b6850957900018298f8007b68488298f0007b68408297e8007b67589567601a8268180150203803dbba826b40826a48826758826950d4b909d4a708d49808988820d4a909979920d498085208f40c956898188282e0018283d801958a000182acd00082a9c8007b6980007ba9a8007b6c88007bacb0007b6390007b83b80164899568401a7b6298007b92c00150203a0380b98268589587207b6768d88707826940c879087b6878d89808da7708826748c878087b6860d878077b6718018267e80095689818958900017b97a0008267f0007b9798008267f8007b97900064899568201a826710017b978801330750203c031fb99517e08477e07b67a000647182690801819756171f084809200182675082681801c887077b67701407ffffffff000000007b67a80050223e03f7200a053302330333004926f800826a180182a71882a81082a90882ac6f746f8b6f9a6fc98268a00064977b89187b6ad8007b8a1064bc7b8b0864497b69e0007b89826968956a00017ba9188269787ba9088269607ba98269707ba910017b67e8007b6cf00082678000d8720782698800d3930ad89309daa70982679000d87004826a9800826cf800d3ac0bd8ac0adab40ad37007d4b707da790a510ad9037b60c0007b63c8007b62d000956700195020400323b995680001828c18828ad4ac0782891082620801d49208d48707987720d4a808978820d487075207380b956798187b6910017b6a0001647a82777882a87082a968826ba800d2b707330bffd2b808d2b909491a607ba9487ba8509568e0187ba75864c77b6c18017b62080150204203c1b7826818019587207b67b800d8870982680801c898077b67b000d8870ada990a82670001c8a700d8700a82671001c8a7077b6710018264e0009544017b64e000884a018267f000c8a707d4740a88aa018268d800c88a0ad88a0b8269e800c8b9098262d000952201882b018263c800c8b303d4320b88bb01826cc000c8cb0bd8cb0c8268f800c8c8087b68f800647c8268a0007b87087b847b8a1064977b89187b6ad8008269b8007b6918018269b0007b6908017b60000164b02880fe9567ff07957799008268f000957a00027ba8088268e0007ba8108268d8007ba8189568ff079588a1028269e8007ba920330750204403cdb68269c800819756171f0e48092033024603288f1f502246038c1f8267c0000a05956c000182c91882971882981082920882996f706f8b8267f800c8b70782c8c808087b68f800d80808c8870ad3ba077b6af000d8ba0ada780a6f936f2282c708c8270782c810c83808d82709c89808c87a0a7b6ae800d87a07c887077b67e0009517e0847ce064c17b6cd800018267f800d870078269f000d39b08d89b09da87098267e800d87204826ae000d3a308d8a30ada840ad37207d48707da790a7bc07bcb087bc2107bc31895679c20510a95f449271c034927140349270c03492704039568a02364c77b6018017b6b10017b6308017b620001502048033ab7826cd80082630801826b100182601801950001880701c87b0bd4b00788770182680001c88707d88708c8830364722862ff82675033004a030a0382695833024c0328fd1a82695850224c03f71a49261803956900037b98107b9708956800037b9a330750204e0367b54926f8024926f0024926e002013307209568e0024926e8025020500349b5826960819756173f0e48094033025203285a1b50225203571b826768330054030a053302560328101b502256030d1b95bc04017bca98007bc990007bc888007bc780009567c0029568202250205803eab58267c8027b6718018267c0027b6710019567a00233084050205a03a1b3956b000282bab80082b8b00082b9a80082b7a00050225c03eb1c5208ed078268180182691001d498088e89492698024926900249268802956880027b6980027b67180150205e0392b4330820826718015020600358b6837833092033070a06280a33092033070a060182675882681801d87804826840826c0801d38c0ad88c09daa409826248826a0001c92a03d82a0a826050826b1001c90b0bc9ab0bd8930ac9ab0b7b6b1001c99303c98c09c94909826b1801c97b0b956a981895ac00017bc7687bcb487bc8707ba278017bc9507ba080017ba358019567001a9568e019826910017bc96050206203c2109567c01933084050206403a8b2956998188292400195980001828c38828b30828728d42b0ad4c708d4a808988820d4ca0a97aa20d4a8085208e4069578207b681001d87803c83b087b681801d8b808da3308c8c8087b680001d8c808c828087b6808014929200149291801492910019568a01949290801207b67b0007b6ba0007b6298007b6c90005020660361b395678019826858502068031ab2956c000182c71082cad4a70982c81882cb08d4b808d48909989920d4a808978820d4980852085c06956c981882cb000182c8f80082c9f00082cae8007b6ab8007bcac8007b69c0007bc9d0007b68c8007bc8d800956860197b6bd0007bcbe00050206a03eeb23302330b330033048268b000958740956a00017ba710d887078269a000c879087ba808d89808da770882679000c878087ba8d8780782689800c887077ba718826868826360018267b800d872078269c000d39b0a7b6bf800d89b09daa709826cc800d8c007826ad000d3a40bd8a40adab70ad3c007d4b707da790a510ad904d43807826970826a78d4a909d49707987720d43909979920d49707520780057b60e0007b64e8007b62f0007b6360956740197b686850206c03fab095680001828c10828ad4ac0782891882620801d49208d48707987720d4a808978820d4870752073b05956798187b6918017b6a0001647a8277b80082a8b00082a9a800826ba800d2b707330bffd2b808d2b909492aa0007ba988007ba89000956820197ba7980064c77b6c10017b62080150206e03bdb1826810019587207b67d800d8870982670801c89703d8730ada990a82670001c8a709d8790a82671801c8a7077b671801826768957a20d87a0b826778c8b70cd87c07dabb07826860c88707d8870b826870c8b8087b68708262f000952201882b018264f800c8b404d4420b88bb018268e000c88b0bd88b088260e800c880008268d8007b6810017b6308017b69000164a87b6c78647364b7644b640464702877fed4a7079877206483d4a808978820d48707520737049597207b670001d89702c82b077b671801d8b708da2208c838087b68f000d83807c847077b67f80095670010492778f895670010492770f895670010492768f89568ff07958861956a0010492a60f820649750207003afb09567ff079577418268285020720365af82670001826af000d4a70982681801826bf800d4b808d48909989920d4a808978820d498085208a60395680010828b58f895680010828850f895690010829948f8956a001082aa40f87b6a50956c00107bca20f87b6958956a00107ba928f87b6860956900107b9830f89568ff079588217b6b68956900107b9b38f8502074031db03309330b33023303140700000000010000007b67d0001407c0ffffff000000007b6728956a000182a7088260d80082a8107ba88268e0007b68f8000164749578408267507b69c000d87907826958d39b0a7b6bb800d89b09daa709826c60d8c207826a68d3a30b7b63b000d8a30adab70ad3c207d4b7077b6818017b64f000d84808da790ac8800bd80b07da880782680001c87804d884078263f800c873037b63c800510a4502826848826738d4780c826930826a40d4a909647ad49c07987720d4a909979920d4970752077f027b64707b60e8007b6b80007b6288009567ff0795770150207603f9ad95670010827b18f895670010827c10f895670010827a08f895670010827800f8d4ba07d4c809d47909989920d4c707977720d4970752072a027b6c90007b6b98007b6aa0009567e0077b68a80050207803a6ad826700018268f800d487098267288268f000d878078268e800948794975107ef017b6900018267e007826878d287074926d8074926d0074926c8079568c0077b67c0078267180150207a0393ae8267980082689000d487078268d0009588e08269a800d88908826aa00094a8947851089e018398209567a00750207c0327ad8267d0009577a08268f000d878078268e800948782680001948751077301956b000782b7a80082b8a0008479ff8488ff8267180183772049269807492690077bb88000956880077bb9880050207e0310ae826848958220d88208826a40c88a04d8a40ada880a826838c88a0ad88a08826730c887077b67308269c0009599018898018267b800c88707d47908888801826b8800c88b0cd8bc0b8263b000c8b303647b82671801826080008268707b6800018268c8007b68f8007b62487b64407b6a3864c228bcfd8267b00082641001d87402826ca00082680801d3c80ad8c809daa209826a9000826b0001c9ab00d8ab03826b9800826a1801c9ba0bc93b0bd8900ac9ab0ac9900bc9c809c92909c97408d4a909d4b80ad49a0ad4b90998aa20979920d4a909520967280d068262080182671801d827038267d80064b8d37b0ad87b09daa309826a1001c9a400d8a40a826ce000826bc800c9cb0bd8900cc8ca0ac9ab0ac9900cc97809c9390982681801c92808d4a909d4c80ad49a0ad4c90998aa20979920d4a9095109a00500956798104927b8034927b0034927a8036479140700000000717b484e956840147b97c003330750208003a7ac956798104927a003492798034927900364793307049568201449298803330088032880ac33070182686833090a0601491358491350491348140700000000717b484e9568e0107b376033075020820356ac3302840395689810014918404918384918281164893307049568c01049193033008803282dac492938014929300149292801140700000000717b484e9568c0117b9740013307502086030aac9567981049272001492718014927100164793307049568a0114929080150208803e7ab826728817756173f0b826828480840013307013309248268200a06013308200002838833070133090a062845ff3308200002838833070133090a062834ff3308200002838833070133090a062823ff3308200002838833070133090a062812ff3308200002838833070133090a062801ff3308200002838833070133090a0628f0fe3308200002838833070133090a0628dffe3308200002838833070133090a0628cefe3308200002838833070133090a0628bdfe3308200002838833070133090a0628acfe3308200002838833070133090a06289bfe3308200002838833070133090a06288afe3308200002838833070133090a062879fe330820000283883307010a06013308200002838833070133090a06285bfe3308200002838833070133090a06284afe3308200002838833070133090a062839fe3308200002838833070133090a062828fe3308200002838833070133090a062817fe3308200002838833070133090a062806fe4926d0064926c8064926c006140700000000717b484e9568c0067b67d806330750208a0355aa4926b8064926b0064926a006413307049568a0064926a80650208c0337aa8267f800817756173f0c8268f80048084001330701330924826800010a06013308200002838833070133090a062892fd3308200002838833070133090a062881fd3308200002838833070133090a062870fd3308200002838833070133090a06285ffd3308200002838833070133090a06284efd3308200002838833070133090a06283dfd3308200002838833070133090a06282cfd3308200002838833070133090a06281bfd52471d5c0510f70195679c2049171c49171449170c491704956700208377a00033008e030a093302900328e41250229003e11250229203fa12510743023308200002838833070133090a0628cdfc3308200002838833070133090a0628bcfc3308200002838833070133090a0628abfc3308200002838833070133090a06289afc3308200002838833070133090a062889fc3308200002838833070133090a062878fc3308200002838833070133090a062867fc3308200002838833070133090a062856fc3308200002838833070133090a062845fc3308200002838833070133090a062834fc3308200002838833070133090a062823fc3308200002838833070133090a062812fc3308200002838833070133090a062801fc3308200002838833070133090a0628f0fb3308200002838833070133090a0628dffb3308200002838833070133090a0628cefb3308200002838833070133090a0628bdfb3308200002838833070133090a0628acfb3308200002838833070133090a06289bfb3308200002838833070133090a06288afb3308200002838833070133090a062879fb3308200002838833070133090a062868fb3308200002838833070133090a062857fb3308200002838833070133090a062846fb3308200002838833070133090a062835fb3308200002838833070133090a062824fb5247245fe7235095679c2049271c024927140249270c0249270402956700208377a002330094030a093302960328dd1050229603da105022980300115107643308200002838833070133090a0628d4fa3308200002838833070133090a0628c3fa64277b68180133009a0328fba87b68180150209a03f4a883788169180133070a0628a5f2826718018177561703313308200002838833070133090a062884fa82671801817756170354013308200002838833070133090a062868fa33072000037b671801837733009c030a038269180133029e0328320c8269180150229e032b0c4926d8017b68d0017b67c8019568c0017b6ac00133075020a0039ba64926b8014926b0014926a001013307209568a0014926a8015020a2037da633071400027b671801390714000256173f0c82681801480840019517e08479e07b690001649133072000027b670801837783993308407b6710013300a4030a05826a00013302a60328a50c826a00015022a6039e0c958c047bca207bc9287bcb307bc738956780019568c0205020a803fda67c678001541702f900492650014926480149264001140700000000717b484e956840017b67580133075020aa03dca54926380149263001492620012133070495682001492628015020ac03bea582671801817756173f0c8268180148084001330701330924826810010a060195679c2049273c024927340249272c0249272402956780069568c0225020ae036fa68267800683785218ffb000492670064926680649266006140700000000717b484e956860067b67780633075020b0034ca54926580649265006492640061133070495684006492648065020b2032ea5390814000256183f0b20031400024001330820000283883307013309240a060149267801492670017b6760013307800095686001492668015020b403f0a482671801817756279f0018826818014808a0008267080183788000285bf082670801837880002850f01408ffffffff00000000956c000682c9980082ca900082cb8800957c01d2c808987720977720d4870795689c2049285c024928540249284c0249284402958c04027bcb687bca707bc9787bc7609567e022956800235020b603d6a533082000028388330733090a0628e7f780881409fdffffff00000000ac8918958902d889084917187b797b780894887b781032009511b07b10487b15409515508411f05022b803ca0a5020ba031da45022bc03a70d5020be0311a4390814000256183f0b20031400024001330820000283883307013309243300c0030a06019511907b10687b15609515708411f0827a1882791082738277088eab8e9cdbab0c8e72883bc085bb01db720bd4a908db8c0b520b41953840d8380bc8b70cd87c07dabb07c89707d89709c8a9097b18407b1c487b1750330740c871087b19585020c20388a395519082106882156095117032005022c4031b0a5020c6036ea349111849111049014133070464184911085020c80357a3390814000256183f0b20031400024001330820000283883307013309243300ca030a0601951170ff7b1088007b1580007b1678951590008411f064728289827408828c088273959a1fd89a00c80c0984aae07b1308c8a303d8a30bc8490ac8ba0ad39a06d89a07da6b07822b18d8c90c828610822210828818da000cc86c0cd86c06c82c09c89707d8c90cd89709c8b808c86808c8c808c8980c8ec88e79dbc809d4c7088ea6db8906520657821808d88308d34a09d84a06da9806d82708d3bc09d8bc0bda980bd32708d49808da860b520b307b13507b1a587b17603307409518507b1c685020cc036ca2955170ff8210880082158000821678951190003200491140491138491130140700000000717b484e9518307b174833075020ce0336a2491128491120491110413307049518104911185020d0031da2390814000256183f0b20031400024001330820000283883307013309243300d2030a06019511e0fe7b1018017b1510017b160801951520018411e064167b673882977b67488297087b67408297107b67508297187b6758828718828910828a0882887b67307b67f8007b69287b69f0007b6a207b6ae8007b68187b68e0009567c0009568e0005020d40383a28267d8008262c0008269d000826ac800826858d3870bd87808826750d8970cdbb80c826840d38a03d8a80a826848d82808db3a08d39707d4b707db7c085108ce008267187b67608267207b67688267287b67709568608267307b677833075020d6032da1390814000256181f0b200314000220019517e08479e07b693064913307200002837783993308200a05826a3082a782a80882a91882aa106f726f886f996faa826b40c8ab0b826348c89303d89309c89b0bd3ab07d8ab0ada790a826750c88707c87a0ad87a09826c58c8c202d88707c82707c8970782683833094918384918304918284918207b837b8b087b8a107b87189551e0fe8210180182151001821608019511200132005022d803e6075020da037aa04926980049269000492680003233070495688000492688005020dc035ca0390814000256183f0b20031400024001330820000283883307013309243300de030a063302e00328e8095022e003e5098289087b191882865022e20355095020e4030aa1801734977720821838801920986a20821c1897cb20d4ba0a97662098cb20d4b707d469097b1a687b18787b19607b17709517409518605020e60346a1955160ff8210980082159000821688009511a0003200951140fd951900027b90b8007b95b0007b96a8009515c0028411e064168289187b69608289107b69588289087b696882887b6870827a1882791082780882777b6a387b6a58027b69407b6950027b68487b6848027b67507b67400295672002956840025020e8034fa095670002827c38827b30827a288ec78eb8dbc708d4cb078ea9db78095209fa01826720027b6730957701887801c8a808d48709889901c8b9097b6a28d8b90ac8ca0a7b6760027b6868027b6970027b6a780295674002956860027b6b207b6c185020ea0361a09517e08477e07b677864718267187b67b8018267207b67b0018267287b67a8018267307b67a0018267387b67d8018267407b67d0018267487b67c8019567e0019568c0019569a001826a507b6ac0015020ec03affc8262100282630002826418028267080295690001829cf000829af800829be0008298e8008269787b9c107b9a187b9bd44704d42307d447077b9808520767017b6a387b68407b6c487b6b50826870826a58d4a807826968826b60d4b909d49707987720d4a909979920d497075207ee00956740015020ee03ee9c806740017b6730956720018268785020f003069f80672401977720956b000182b83882b93082ba28826b30d4b707956b00027bb898007bb990007bba88007bb78000956880028267785020f203439f826970826758826860d487071408e0ffffff00000000d88908826a6894a89478510871839820956700015020f4036f9c82670001826808014926d8004926d0007b68c8007b67c0008267387b67f8008267487b67f0008267407b67e8009567e0009568c0008269507b69e0003300f6033302e003281807955140fd951700028270b8008275b0008276a8009511c0023200005022f803a7045020fa033b9d4926980049269000492680004133070495688000492688005020fc031d9d390814000256183f112003140002403308200002286833082000022861492690014926880149268001140700000000717b484e956880017b67980133075020fe03da9c492678014926700149266801330704956860014926600150200004bd9c390814000256183f11200314000240330820000228083308200002018388330701330924330002040a0601828a828808829b088299c88b0cc8a908d89809c89c0cd3bc02d8bc0ada290a8ea993a95209104917187b787b7c087b7a1032009511b07b10487b15409515508411f050220404f10250200604449c50220804ce0550200a04389c390814000256183f0b200314000240013308200002838833070133092433000c040a0633020e0428c40550220e04c10582897b191882860850221004310550201204e69c8217288218207b16788219187b19707b17687b1860951740951860502014043d9d955160ff8210980082159000821688009511a00032009511a07b10587b15507b16489515608411f0829a08828b0882928283d3ab08d8ab09d82304da8409889c0195ccff9a988e898ec6dac906d4c809939652061fc9ab0bc94b09c9230a7b7a7b79087b78107b7c18502216041d04320050221804030250201a04569b50221c04e00450201e044a9b390814000256183f0b20031400024001330820000283883307013309240a0633073300200428279d330750202004229d33070150202204199d82970881981082996f77977a206f88988820d48a0a9877206f98978920d4970798882095699818320282970881981082996f77977a206f88988820d48a0a9877206f98978920d497079888209569ff0795999900320282970881981082996f77977a206f88988820d48a0a9877206f98978920d4970798882095699810320282970881981082996f77977a206f88988820d48a0a9877206f98978920d49707988820320282a782a80882a91082aa186f776f886f996faa95ab03d8ab0ac8a90cd89c09daaa09c88909d88908c88707320282a782a80882a91082aa186f776f886f996faa95ab02d8ab0ac8a90cd89c09daaa09c88909d88908c887073202826a180182a71882a81082a90882aa6f776f886f996faa956b9c203202d49b0bd48709d4b909989920d4b808978820d4980832029517e08477e07b67180164718379330840320282a782a80882a91082aa186f776f886f996faa95aa0188ab01c8b909d49a0b88bb01c88b0bd88b08c88707826818017b8a7b89087b8b107b8718320282a782a80882a91082aa186f776f886f996faa95aa0188ab01c8b909d49a0b88bb01c88b0bd88b08c8870795689c203202491130491128491120140700000000717b484e9518207b173833073202826ad00082a782a80882a91082aa186f776f886f996faa95aa0188ab01c8b909d49a0b88bb01c88b0bd88b08c887073202d49707d48b09d47909989920d48707977720d4970732029517e08477e07b6718016471320282a71882a81082a90882aa6f776f8b6f996faa826818017b8a187b89107b8b087b8733070020320282a71882a81082a90882aa6f776f8b6f996faa826818017b8a187b89107b8b087b8732024926b0004926a8004926a000140700000000717b484e9568a0007b67b8003307320282b7900082b8980082b9880082ba8000d49808d4a707d487073202858701d4a7077b6808018888017b6a100194a89378320282b77082b87882b96882ba60d49808d4a707d48707320233079c20c8760a95ab0403320233079c20c8760a95ab0406320233079c20c8760a95ab0404320282b7b00082b8b80082b9a80082baa000d49808d4a707d4870732029517e08477e07b67180164718379330820826700013202d49a0ad48709d4a909989920d4a808978820d4980832026f776f886f996faa3202826a180182a71882a81082a90882aa6f777b6718016f8b32029517e08477e07b671001647183793308408267c00032029517e08477e07b671801647183793308408267e80032021408e0ffffff0000000082a918d8890882a910949894783202956aff0795aa990095ac000332029551a082105882155082164895116032028268180182691001d498088e8832029517e08477e07b6718016471837933082032029517e08479e07b691001649132029517e08479e07b69180164913202492880064928780649286806016489330720320282b7f00082b8f80082b9e80082bae000d49808d4a707d487073202827818827910827a0882777b18587b19507b1a487b17409517209518403202d49808d47808988820d49707977720d48707320233079c20c8760a95ab0405320233079c20c8760a95ab0402320233079c20c8760a95ab0432024911184911104901113307046418491108320282b71082b81882b90882bad49808d4a707d487073202951160ff7b1098007b1590007b1688009515a0008411e03202214225a952484992244992244992244992244992244992244992244992244992244992244992542529a524292949a84a494a922449922449922449922449922449922449922449929224294955494a9228496992842485922425294955559292a4249524254982101286d2a4342442444492902424499a2449124a2949524292241111111111214460889a2854694444448a8820112144884494468104124820810412104840208104041248208104124820810412484444444a42922449a24824449284a4442422111111290921892211492322241111218a14498488888842444489104208114ca250914891448884884822892489a28848a2888888880811894422111122221289888888880891228910111151488c082522449124449148248a88888808111111112131128944221222128944a288224244224212111111111111221240242a89a2284a249124928844444444444488888844221111114544844888489224499244244a1249118988884823421245229246444822224294228910111151488c0825228410c1240a951449848488241289442289880822128944222288884824222222222288041111114112115124225144222222a24810245124228d4444521251924812892495245124a291888848925492241249248948922492482491441249249228492449922409295122092292a82022122108428860128552124524820822222211498a081225922022220a224222822451914954124524828822492482482412898820221149449288244912914812918214890429925491482489a42291249144522492248944922431124922912449492289888822228288882449242911111151248888489244918804414444904404111191888888281204491489049124411211424444222222a248102451244451442288888828888808252282208424884804a112d128499024491251241289082222a292242589442488888888489224499224491249129148921411912091244992241149924424419244922449121189448a881424511419910490a0aa485255249202482291488c8844924892249248121109224a4444121111492489880822828824922491482291888844109144a2924824892449444404118948922489888888882222828844229144128924129144128924924412894825118944a244444444912049922451241244444444444444440491a404494444444410294112898888882044514422884822521011114a44044914222112844a3492144492221244442291481411111144441025912089888888888888888808a24800492a8924222222229182880411114992244912111111514444101141a4480049251111492222228244502a1111115124089228129146440049245149444488228a4804111111051144044914420493285424a248102589202212492492481249924444928820a288441091440a2246841211449148104582489288206244442488888808922022222212452222228a88881045149108222222a22022224a44088210229844a12211452482882022229288482492888888082222222222222282888848242212251141441189202289484144442811114412158904512488a2882445041111111189444444444404111111912491482422221291880411912441121111115144222222a24810245124224190244112222222221248444444140982248a8494289104111111051123428908922884082680041049142a2922222212111149aa24492589281289441011111149249148922492282222222222222222228288888888484a11444422222222828848245144228a4844222222222222222282888888484a4424492491249248924892245124111191484444828888888888484a92244992244944444404119144041111912449222222228288202222499244222222221291884444444492441091449224894811111111111141449248222222224624924892444444444492922449924449141111111111111111444444444424a5244944444441441011444444441249249224894489248848220511234289089228452241a248104511498a202212111111111145440411491211111151242212118904119124482291888828221111115124489224491489041149122411212222111111512408922812a2282211141111051111121184488804a11245248288888808224644229148101111112491482249129144221211111145828888244914890491244192082091221211111145822089221109828888208940001111452449221a4992244914499288202212449282249288888848442249440a52641295541125298aa228220124462249a48824912449a24852922449449468449228a524495249241289241289444412912489482292241149a2202249124924894451222222a24810245124224190244112114044441189888888224190449110451189202222a2206244281141888448102a5144228848928820222241442409924822222222111111d188208922218a28221144444441442442108410c1240a1589282211441011111144444444441051442288888882889088208a4482281289441111111141444444041111111191201289441111111144491224111111111111444a904451142592481249442222222288229148444444444404912092244992241111115144222222a248102451244411452482888888288888881211822084082241284a4411892022888888888888888808228a48041149440a22224289882092a848248822124144914824228888442291888888882012494944149108222222a22022224a440882281209a2884410258908222222221149121144149108222222a2202222948808a248248828124492444410111111912022922448828888888844444444912048a248441a91a488449248928428a288441091440a22224a84208942886012858a441409a2241144244924224922828822124144444441c48850228248a22293a844149108a2241144242222128944229224228828221144444414441011449148105124882489082246444482882409228888888844444444912048a24888a288441091440a2246841211042124414422089588221241449148241244242291484490244992242222222222228a882049922449121111111145444112459189248008aa2292541525528a1249523222124922114992444444102989244922224a124992245244108944228924129148248924124924892412454a898888281111894422220551241244912455a44492482a49924412493112492291244949222222a288882022224912494aa244124424514144484490229120512488888888202222124444441011292222224804a54a4d249124912492249244229244222222412488882449922412492489242222424444100922254992242222222222222282aa48249124911249321289241249924492244922221209222591244944441111491211114504914824892412499224499248224924918888525592924422892491444444442442412441442292248988888888442422119144045501440089448a581249224992489288244924918824494a92442222124444444424499288888820228944454412111111442412898a4410894451444412898888204992244912492489245244222249894844928824224992244992241189924412912449224992244644144044414444898824354900918288499448242202882888882811418a6492865209a5124a25944a2895502aa15442a9845209a5124a25944a2895501a4a25944a2895502aa15442a944440011051121114114914934944a2895502aa15442a9845209a5124a25209224228a0441845209a5124a25944a2895502aa15442a9845209a5124a25944a2895502aa15442a9845209a5124a25944a2895502aa15442a9845209a5128888888828120409a5124aa588445054a208a51285502a218a221241444414448444042142442651884a4411892049121144888800220a22422282282293684444440451888800220a2242228210c150d2888888200a11118948001111499288888824890842550a20494a29491204411022184aa24992a4544a9224499224499220490a822429418860288946442295942449922449922449922495942449922449922409222251920092822492042182a1241a111129254992242512894444101191244992244922499224052182490a955292aa244992244992242549492222a22088088908420443491409928220499224499224092222a28888889424494952229148440491a49212912449924444442441921289442291484444228888888888242549244992244992882012092291248988884890240124954410111191482422121189888868104484440421825028220288288888440421825058122d29499254525292240882204430944491a024089224491244444449922495244995942425090a822008110c2515294890544a529228a994a4241125959294244a2a25294925a94a9224a924554992244592aaa224495212954a529524491225a92455499224519200928a92542549929424494aa2925415498a925415492a220288a88888242591a892244991281245a28888242551899224495545928a4aa21225518902485245444992225249544aa292a888508a8848529292242949922251248aa424292529491111910000"
        },
        "methodIdentifiers": {
          "advanceEra()": "23e75f24",
          "bond()": "64c9ec6f",
          "chill()": "2b8a3ae6",
          "commission()": "e1489191",
          "era()": "143e55e0",
          "full_unbond()": "22b223ed",
          "max_nominations()": "727f17f2",
          "minimum_active_nominator_bond()": "17c19d5f",
          "minimum_bond()": "3eb9776c",
          "minimum_nominator_bond()": "385496f7",
          "minimum_validator_bond()": "b35ae446",
          "nominate(address[])": "19f2fdad",
          "nominations()": "d1d4d3e4",
          "payee()": "ae90b213",
          "payout()": "63bd1d4a",
          "pending()": "e20ccec3",
          "rebond_unbonded(uint128)": "efb073f0",
          "role()": "10055c1d",
          "set_payee(address)": "ec9b28f1",
          "stake_able()": "498aa0f1",
          "stake_of()": "64e7b428",
          "unbond(uint128)": "e8111842",
          "unbonding_queue()": "262c5f0f",
          "validate(uint32)": "ac0d45e2",
          "withdraw_unbonded()": "77a0fe02"
        }
      },
      "hash": "c88c88bb63fd435d3cd0c58ab151dfed84084b1e8201f6bec0e8ca32eae86b3c",
      "factoryDependencies": {}
    }
  }
}