{
  "contracts/SleepFine.sol": {
    "SleepFine": {
      "abi": [
        {
          "inputs": [
            {
              "internalType": "contract IStaking",
              "name": "_stakingPrecompile",
              "type": "address"
            }
          ],
          "stateMutability": "nonpayable",
          "type": "constructor"
        },
        {
          "inputs": [],
          "name": "AccessControlBadConfirmation",
          "type": "error"
        },
        {
          "inputs": [
            {
              "internalType": "address",
              "name": "account",
              "type": "address"
            },
            {
              "internalType": "bytes32",
              "name": "neededRole",
              "type": "bytes32"
            }
          ],
          "name": "AccessControlUnauthorizedAccount",
          "type": "error"
        },
        {
          "anonymous": false,
          "inputs": [
            {
              "indexed": true,
              "internalType": "address",
              "name": "user",
              "type": "address"
            },
            {
              "indexed": true,
              "internalType": "uint256",
              "name": "challengeId",
              "type": "uint256"
            }
          ],
          "name": "NewChallenge",
          "type": "event"
        },
        {
          "anonymous": false,
          "inputs": [
            {
              "indexed": true,
              "internalType": "bytes32",
              "name": "role",
              "type": "bytes32"
            },
            {
              "indexed": true,
              "internalType": "bytes32",
              "name": "previousAdminRole",
              "type": "bytes32"
            },
            {
              "indexed": true,
              "internalType": "bytes32",
              "name": "newAdminRole",
              "type": "bytes32"
            }
          ],
          "name": "RoleAdminChanged",
          "type": "event"
        },
        {
          "anonymous": false,
          "inputs": [
            {
              "indexed": true,
              "internalType": "bytes32",
              "name": "role",
              "type": "bytes32"
            },
            {
              "indexed": true,
              "internalType": "address",
              "name": "account",
              "type": "address"
            },
            {
              "indexed": true,
              "internalType": "address",
              "name": "sender",
              "type": "address"
            }
          ],
          "name": "RoleGranted",
          "type": "event"
        },
        {
          "anonymous": false,
          "inputs": [
            {
              "indexed": true,
              "internalType": "bytes32",
              "name": "role",
              "type": "bytes32"
            },
            {
              "indexed": true,
              "internalType": "address",
              "name": "account",
              "type": "address"
            },
            {
              "indexed": true,
              "internalType": "address",
              "name": "sender",
              "type": "address"
            }
          ],
          "name": "RoleRevoked",
          "type": "event"
        },
        {
          "inputs": [],
          "name": "ADMIN_ROLE",
          "outputs": [
            {
              "internalType": "bytes32",
              "name": "",
              "type": "bytes32"
            }
          ],
          "stateMutability": "view",
          "type": "function"
        },
        {
          "inputs": [],
          "name": "AI_AGENT_ROLE",
          "outputs": [
            {
              "internalType": "bytes32",
              "name": "",
              "type": "bytes32"
            }
          ],
          "stateMutability": "view",
          "type": "function"
        },
        {
          "inputs": [],
          "name": "DEFAULT_ADMIN_ROLE",
          "outputs": [
            {
              "internalType": "bytes32",
              "name": "",
              "type": "bytes32"
            }
          ],
          "stateMutability": "view",
          "type": "function"
        },
        {
          "inputs": [
            {
              "internalType": "uint128",
              "name": "amount",
              "type": "uint128"
            }
          ],
          "name": "bond",
          "outputs": [],
          "stateMutability": "nonpayable",
          "type": "function"
        },
        {
          "inputs": [
            {
              "internalType": "uint256",
              "name": "",
              "type": "uint256"
            }
          ],
          "name": "challenges",
          "outputs": [
            {
              "internalType": "address",
              "name": "user",
              "type": "address"
            },
            {
              "internalType": "address",
              "name": "app",
              "type": "address"
            },
            {
              "internalType": "bool",
              "name": "completed",
              "type": "bool"
            },
            {
              "internalType": "uint64",
              "name": "startDate",
              "type": "uint64"
            },
            {
              "internalType": "uint64",
              "name": "durationDays",
              "type": "uint64"
            },
            {
              "internalType": "uint64",
              "name": "missedDaysCount",
              "type": "uint64"
            },
            {
              "internalType": "uint128",
              "name": "deposit",
              "type": "uint128"
            }
          ],
          "stateMutability": "view",
          "type": "function"
        },
        {
          "inputs": [
            {
              "internalType": "uint256",
              "name": "challengeId",
              "type": "uint256"
            }
          ],
          "name": "completeChallenge",
          "outputs": [],
          "stateMutability": "nonpayable",
          "type": "function"
        },
        {
          "inputs": [
            {
              "internalType": "uint256",
              "name": "challengeId",
              "type": "uint256"
            }
          ],
          "name": "getChallenge",
          "outputs": [
            {
              "components": [
                {
                  "internalType": "address",
                  "name": "user",
                  "type": "address"
                },
                {
                  "internalType": "address",
                  "name": "app",
                  "type": "address"
                },
                {
                  "internalType": "bool",
                  "name": "completed",
                  "type": "bool"
                },
                {
                  "internalType": "uint64",
                  "name": "startDate",
                  "type": "uint64"
                },
                {
                  "internalType": "uint64",
                  "name": "durationDays",
                  "type": "uint64"
                },
                {
                  "internalType": "uint64",
                  "name": "missedDaysCount",
                  "type": "uint64"
                },
                {
                  "internalType": "bool[]",
                  "name": "missedDaysArray",
                  "type": "bool[]"
                },
                {
                  "internalType": "uint128",
                  "name": "deposit",
                  "type": "uint128"
                }
              ],
              "internalType": "struct SleepFine.Challenge",
              "name": "",
              "type": "tuple"
            }
          ],
          "stateMutability": "view",
          "type": "function"
        },
        {
          "inputs": [],
          "name": "getCurrentDate",
          "outputs": [
            {
              "internalType": "uint64",
              "name": "",
              "type": "uint64"
            }
          ],
          "stateMutability": "view",
          "type": "function"
        },
        {
          "inputs": [
            {
              "internalType": "bytes32",
              "name": "role",
              "type": "bytes32"
            }
          ],
          "name": "getRoleAdmin",
          "outputs": [
            {
              "internalType": "bytes32",
              "name": "",
              "type": "bytes32"
            }
          ],
          "stateMutability": "view",
          "type": "function"
        },
        {
          "inputs": [
            {
              "internalType": "address",
              "name": "aiAgent",
              "type": "address"
            }
          ],
          "name": "grantAiAgentRole",
          "outputs": [],
          "stateMutability": "nonpayable",
          "type": "function"
        },
        {
          "inputs": [
            {
              "internalType": "bytes32",
              "name": "role",
              "type": "bytes32"
            },
            {
              "internalType": "address",
              "name": "account",
              "type": "address"
            }
          ],
          "name": "grantRole",
          "outputs": [],
          "stateMutability": "nonpayable",
          "type": "function"
        },
        {
          "inputs": [
            {
              "internalType": "bytes32",
              "name": "role",
              "type": "bytes32"
            },
            {
              "internalType": "address",
              "name": "account",
              "type": "address"
            }
          ],
          "name": "hasRole",
          "outputs": [
            {
              "internalType": "bool",
              "name": "",
              "type": "bool"
            }
          ],
          "stateMutability": "view",
          "type": "function"
        },
        {
          "inputs": [
            {
              "internalType": "address[]",
              "name": "targets",
              "type": "address[]"
            }
          ],
          "name": "nominate",
          "outputs": [
            {
              "internalType": "bool",
              "name": "",
              "type": "bool"
            }
          ],
          "stateMutability": "nonpayable",
          "type": "function"
        },
        {
          "inputs": [
            {
              "internalType": "bytes32",
              "name": "role",
              "type": "bytes32"
            },
            {
              "internalType": "address",
              "name": "callerConfirmation",
              "type": "address"
            }
          ],
          "name": "renounceRole",
          "outputs": [],
          "stateMutability": "nonpayable",
          "type": "function"
        },
        {
          "inputs": [
            {
              "internalType": "uint256",
              "name": "challengeId",
              "type": "uint256"
            },
            {
              "internalType": "uint64",
              "name": "dayId",
              "type": "uint64"
            }
          ],
          "name": "reportMissedSleep",
          "outputs": [],
          "stateMutability": "nonpayable",
          "type": "function"
        },
        {
          "inputs": [
            {
              "internalType": "address",
              "name": "aiAgent",
              "type": "address"
            }
          ],
          "name": "revokeAiAgentRole",
          "outputs": [],
          "stateMutability": "nonpayable",
          "type": "function"
        },
        {
          "inputs": [
            {
              "internalType": "bytes32",
              "name": "role",
              "type": "bytes32"
            },
            {
              "internalType": "address",
              "name": "account",
              "type": "address"
            }
          ],
          "name": "revokeRole",
          "outputs": [],
          "stateMutability": "nonpayable",
          "type": "function"
        },
        {
          "inputs": [],
          "name": "stakingPrecompile",
          "outputs": [
            {
              "internalType": "contract IStaking",
              "name": "",
              "type": "address"
            }
          ],
          "stateMutability": "view",
          "type": "function"
        },
        {
          "inputs": [
            {
              "internalType": "uint64",
              "name": "numDays",
              "type": "uint64"
            },
            {
              "internalType": "address",
              "name": "app",
              "type": "address"
            }
          ],
          "name": "startChallenge",
          "outputs": [
            {
              "internalType": "uint256",
              "name": "",
              "type": "uint256"
            }
          ],
          "stateMutability": "payable",
          "type": "function"
        },
        {
          "inputs": [
            {
              "internalType": "bytes4",
              "name": "interfaceId",
              "type": "bytes4"
            }
          ],
          "name": "supportsInterface",
          "outputs": [
            {
              "internalType": "bool",
              "name": "",
              "type": "bool"
            }
          ],
          "stateMutability": "view",
          "type": "function"
        },
        {
          "inputs": [
            {
              "internalType": "uint128",
              "name": "amount",
              "type": "uint128"
            }
          ],
          "name": "unbond",
          "outputs": [],
          "stateMutability": "nonpayable",
          "type": "function"
        }
      ],
      "evm": {
        "assembly": "// RO data = 0/0 bytes\n// RW data = 492/66112 bytes\n// Stack size = 32768 bytes\n\n// Instructions = 13306\n// Code size = 47108 bytes\n\n      : @0 (gas: 7)\n     0: sp = sp + 0xffffffffffffffe8\n     3: u64 [sp + 0x10] = ra\n     6: u64 [sp + 0x8] = s0\n     9: u64 [sp] = s1\n    11: s1 = 0x201e8\n    16: s0 = i32 [0x201e8]\n    21: jump @3 if s0 == 0\n      : @1 (gas: 5)\n    24: a0 = 0x30220\n    29: i32 a0 = a0 + 0\n    31: i32 a1 = s1 + 0\n    33: ecalli 6 // 'get_immutable_data'\n    35: fallthrough\n      : @2 (gas: 3)\n    36: a0 = i32 [0x201e8]\n    41: u32 [0x201e8] = 0\n    46: jump @4 if a0 <u s0\n      : @3 (gas: 5)\n    49: ra = u64 [sp + 0x10]\n    52: s0 = u64 [sp + 0x8]\n    55: s1 = u64 [sp]\n    57: sp = sp + 0x18\n    60: ret\n      : @4 (gas: 1)\n    62: trap\n      : @5 (gas: 2)\n    63: a1 = i32 [0x201e8]\n    68: jump @48 if a1 == 0\n      : @6 (gas: 4)\n    72: a0 = 0x30220\n    77: i32 a0 = a0 + 0\n    79: ecalli 14 // 'set_immutable_data'\n    81: jump @48\n      : @7 (gas: 8)\n    84: sp = sp + 0xfffffffffffffff0\n    87: u64 [sp + 0x8] = ra\n    90: u64 [sp] = s0\n    92: a2 = a1\n    94: s0 = a0\n    96: a1 = 0x20\n    99: a0 = a2\n   101: ra = 2, jump @18\n      : @8 [@dyn 1] (gas: 100)\n   106: a1 = u8 [a0 + 0x1]\n   109: a2 = u8 [a0]\n   111: a3 = u8 [a0 + 0x2]\n   114: a4 = u8 [a0 + 0x3]\n   117: a1 = a1 << 0x8\n   120: a1 = a1 | a2\n   123: a3 = a3 << 0x10\n   126: a4 = a4 << 0x18\n   129: a3 = a3 | a4\n   132: a1 = a1 | a3\n   135: a2 = u8 [a0 + 0x5]\n   138: a3 = u8 [a0 + 0x4]\n   141: a4 = u8 [a0 + 0x6]\n   144: a5 = u8 [a0 + 0x7]\n   147: a2 = a2 << 0x8\n   150: a2 = a2 | a3\n   153: a4 = a4 << 0x10\n   156: a5 = a5 << 0x18\n   159: a4 = a4 | a5\n   162: a2 = a2 | a4\n   165: a2 = a2 << 0x20\n   168: t0 = a2 | a1\n   171: a2 = u8 [a0 + 0x9]\n   174: a3 = u8 [a0 + 0x8]\n   177: a4 = u8 [a0 + 0xa]\n   180: a5 = u8 [a0 + 0xb]\n   183: a2 = a2 << 0x8\n   186: a2 = a2 | a3\n   189: a4 = a4 << 0x10\n   192: a5 = a5 << 0x18\n   195: a4 = a4 | a5\n   198: a2 = a2 | a4\n   201: a3 = u8 [a0 + 0xd]\n   204: a4 = u8 [a0 + 0xc]\n   207: a5 = u8 [a0 + 0xe]\n   210: a1 = u8 [a0 + 0xf]\n   213: a3 = a3 << 0x8\n   216: a3 = a3 | a4\n   219: a5 = a5 << 0x10\n   222: a1 = a1 << 0x18\n   225: a1 = a1 | a5\n   228: a1 = a1 | a3\n   231: a1 = a1 << 0x20\n   234: t1 = a1 | a2\n   237: a1 = u8 [a0 + 0x11]\n   240: a3 = u8 [a0 + 0x10]\n   243: a4 = u8 [a0 + 0x12]\n   246: a5 = u8 [a0 + 0x13]\n   249: a1 = a1 << 0x8\n   252: a1 = a1 | a3\n   255: a4 = a4 << 0x10\n   258: a5 = a5 << 0x18\n   261: a4 = a4 | a5\n   264: a1 = a1 | a4\n   267: a3 = u8 [a0 + 0x15]\n   270: a4 = u8 [a0 + 0x14]\n   273: a5 = u8 [a0 + 0x16]\n   276: a2 = u8 [a0 + 0x17]\n   279: a3 = a3 << 0x8\n   282: a3 = a3 | a4\n   285: a5 = a5 << 0x10\n   288: a2 = a2 << 0x18\n   291: a2 = a2 | a5\n   294: a2 = a2 | a3\n   297: a2 = a2 << 0x20\n   300: a3 = a2 | a1\n   303: a1 = u8 [a0 + 0x19]\n   306: a2 = u8 [a0 + 0x18]\n   309: a4 = u8 [a0 + 0x1a]\n   312: a5 = u8 [a0 + 0x1b]\n   315: a1 = a1 << 0x8\n   318: a1 = a1 | a2\n   321: a4 = a4 << 0x10\n   324: a5 = a5 << 0x18\n   327: a4 = a4 | a5\n   330: a1 = a1 | a4\n   333: a2 = u8 [a0 + 0x1d]\n   336: a4 = u8 [a0 + 0x1c]\n   339: a5 = u8 [a0 + 0x1e]\n   342: a0 = u8 [a0 + 0x1f]\n   345: a2 = a2 << 0x8\n   348: a2 = a2 | a4\n   351: a5 = a5 << 0x10\n   354: a0 = a0 << 0x18\n   357: a0 = a0 | a5\n   360: a0 = a0 | a2\n   363: a0 = a0 << 0x20\n   366: a0 = a0 | a1\n   369: a0 = reverse a0\n   371: a1 = reverse a3\n   373: a2 = reverse t1\n   375: a3 = reverse t0\n   377: u64 [s0 + 0x18] = a3\n   380: u64 [s0 + 0x10] = a2\n   383: u64 [s0 + 0x8] = a1\n   386: u64 [s0] = a0\n   388: ra = u64 [sp + 0x8]\n   391: s0 = u64 [sp]\n   393: sp = sp + 0x10\n   396: ret\n      : @9 (gas: 12)\n   398: sp = sp + 0xffffffffffffffd8\n   401: u64 [sp + 0x20] = ra\n   404: u64 [sp + 0x18] = s0\n   407: u64 [sp + 0x10] = s1\n   410: a2 = u64 [a1]\n   412: u64 [sp + 0x8] = a2\n   415: a2 = u64 [a1 + 0x8]\n   418: u64 [sp] = a2\n   420: s0 = u64 [a1 + 0x10]\n   423: s1 = u64 [a1 + 0x18]\n   426: a1 = 0x20\n   429: ra = 4, jump @18\n      : @10 [@dyn 2] (gas: 71)\n   434: a1 = reverse s1\n   436: a2 = reverse s0\n   438: a3 = u64 [sp]\n   440: a3 = reverse a3\n   442: a4 = u64 [sp + 0x8]\n   445: a4 = reverse a4\n   447: u8 [a0 + 0x18] = a4\n   450: u8 [a0 + 0x10] = a3\n   453: u8 [a0 + 0x8] = a2\n   456: u8 [a0] = a1\n   458: a5 = a4 >> 0x38\n   461: u8 [a0 + 0x1f] = a5\n   464: a5 = a4 >> 0x30\n   467: u8 [a0 + 0x1e] = a5\n   470: a5 = a4 >> 0x28\n   473: u8 [a0 + 0x1d] = a5\n   476: a5 = a4 >> 0x20\n   479: u8 [a0 + 0x1c] = a5\n   482: a5 = a4 >> 0x18\n   485: u8 [a0 + 0x1b] = a5\n   488: a5 = a4 >> 0x10\n   491: u8 [a0 + 0x1a] = a5\n   494: a4 = a4 >> 0x8\n   497: u8 [a0 + 0x19] = a4\n   500: a4 = a3 >> 0x38\n   503: u8 [a0 + 0x17] = a4\n   506: a4 = a3 >> 0x30\n   509: u8 [a0 + 0x16] = a4\n   512: a4 = a3 >> 0x28\n   515: u8 [a0 + 0x15] = a4\n   518: a4 = a3 >> 0x20\n   521: u8 [a0 + 0x14] = a4\n   524: a4 = a3 >> 0x18\n   527: u8 [a0 + 0x13] = a4\n   530: a4 = a3 >> 0x10\n   533: u8 [a0 + 0x12] = a4\n   536: a3 = a3 >> 0x8\n   539: u8 [a0 + 0x11] = a3\n   542: a3 = a2 >> 0x38\n   545: u8 [a0 + 0xf] = a3\n   548: a3 = a2 >> 0x30\n   551: u8 [a0 + 0xe] = a3\n   554: a3 = a2 >> 0x28\n   557: u8 [a0 + 0xd] = a3\n   560: a3 = a2 >> 0x20\n   563: u8 [a0 + 0xc] = a3\n   566: a3 = a2 >> 0x18\n   569: u8 [a0 + 0xb] = a3\n   572: a3 = a2 >> 0x10\n   575: u8 [a0 + 0xa] = a3\n   578: a2 = a2 >> 0x8\n   581: u8 [a0 + 0x9] = a2\n   584: a2 = a1 >> 0x38\n   587: u8 [a0 + 0x7] = a2\n   590: a2 = a1 >> 0x30\n   593: u8 [a0 + 0x6] = a2\n   596: a2 = a1 >> 0x28\n   599: u8 [a0 + 0x5] = a2\n   602: a2 = a1 >> 0x20\n   605: u8 [a0 + 0x4] = a2\n   608: a2 = a1 >> 0x18\n   611: u8 [a0 + 0x3] = a2\n   614: a2 = a1 >> 0x10\n   617: u8 [a0 + 0x2] = a2\n   620: a1 = a1 >> 0x8\n   623: u8 [a0 + 0x1] = a1\n   626: ra = u64 [sp + 0x20]\n   629: s0 = u64 [sp + 0x18]\n   632: s1 = u64 [sp + 0x10]\n   635: sp = sp + 0x28\n   638: ret\n      : @11 (gas: 48)\n   640: sp = sp + 0xffffffffffffffa0\n   643: u64 [sp + 0x58] = ra\n   646: u64 [sp + 0x50] = s0\n   649: u64 [sp + 0x48] = s1\n   652: s0 = sp + 0x60\n   655: sp = sp & 0xffffffffffffffe0\n   658: s1 = a0\n   660: a0 = u64 [a1 + 0x18]\n   663: a2 = u64 [a1 + 0x10]\n   666: a3 = u64 [a1 + 0x8]\n   669: a1 = u64 [a1]\n   671: a0 = reverse a0\n   673: a2 = reverse a2\n   675: a3 = reverse a3\n   677: a1 = reverse a1\n   679: u64 [sp + 0x18] = a1\n   682: u64 [sp + 0x10] = a3\n   685: u64 [sp + 0x8] = a2\n   688: u64 [sp] = a0\n   690: u64 [sp + 56] = 0\n   693: u64 [sp + 48] = 0\n   696: u64 [sp + 40] = 0\n   699: u64 [sp + 32] = 0\n   702: u32 [sp + 64] = 0x20\n   706: i32 a1 = sp + 0\n   708: i32 a3 = sp + 0x20\n   711: i32 a4 = sp + 0x40\n   714: a2 = 0xffffffffffffffff\n   717: a0 = 0\n   719: ecalli 7 // 'get_storage'\n   721: a0 = u64 [sp + 0x38]\n   724: a1 = u64 [sp + 0x30]\n   727: a2 = u64 [sp + 0x28]\n   730: a3 = u64 [sp + 0x20]\n   733: a0 = reverse a0\n   735: a1 = reverse a1\n   737: a2 = reverse a2\n   739: a3 = reverse a3\n   741: u64 [s1 + 0x18] = a3\n   744: u64 [s1 + 0x10] = a2\n   747: u64 [s1 + 0x8] = a1\n   750: u64 [s1] = a0\n   752: sp = s0 + 0xffffffffffffffa0\n   755: ra = u64 [sp + 0x58]\n   758: s0 = u64 [sp + 0x50]\n   761: s1 = u64 [sp + 0x48]\n   764: sp = sp + 0x60\n   767: ret\n      : @12 (gas: 40)\n   769: sp = sp + 0xffffffffffffffa0\n   772: u64 [sp + 0x58] = ra\n   775: u64 [sp + 0x50] = s0\n   778: s0 = sp + 0x60\n   781: sp = sp & 0xffffffffffffffe0\n   784: t0 = u64 [a0]\n   786: a3 = u64 [a0 + 0x8]\n   789: a4 = u64 [a0 + 0x10]\n   792: a0 = u64 [a0 + 0x18]\n   795: t1 = u64 [a1]\n   797: a2 = u64 [a1 + 0x8]\n   800: a5 = u64 [a1 + 0x10]\n   803: a1 = u64 [a1 + 0x18]\n   806: t2 = reverse a0\n   808: a4 = reverse a4\n   810: a3 = reverse a3\n   812: a0 = reverse t0\n   814: t0 = reverse a1\n   816: a5 = reverse a5\n   818: a2 = reverse a2\n   820: a1 = reverse t1\n   822: u64 [sp + 0x18] = a0\n   825: u64 [sp + 0x10] = a3\n   828: u64 [sp + 0x8] = a4\n   831: u64 [sp] = t2\n   833: u64 [sp + 0x38] = a1\n   836: u64 [sp + 0x30] = a2\n   839: u64 [sp + 0x28] = a5\n   842: u64 [sp + 0x20] = t0\n   845: i32 a1 = sp + 0\n   847: i32 a3 = sp + 0x20\n   850: a2 = 0xffffffffffffffff\n   853: a4 = 0x20\n   856: a0 = 0\n   858: ecalli 15 // 'set_storage'\n   860: sp = s0 + 0xffffffffffffffa0\n   863: ra = u64 [sp + 0x58]\n   866: s0 = u64 [sp + 0x50]\n   869: sp = sp + 0x60\n   872: ret\n      : @13 [@dyn 3] (gas: 2)\n   874: u64 [sp + 0x38] = a1\n   877: ra = 8, jump @18\n      : @14 [@dyn 4] (gas: 46)\n   882: a1 = reverse s1\n   884: u64 [sp + 0x78] = a1\n   887: a1 = u64 [sp]\n   889: a1 = reverse a1\n   891: u64 [sp + 0x70] = a1\n   894: a1 = u64 [sp + 0x8]\n   897: a1 = reverse a1\n   899: u64 [sp + 0x68] = a1\n   902: a1 = u64 [sp + 0x10]\n   905: a1 = reverse a1\n   907: u64 [sp + 0x60] = a1\n   910: a1 = u64 [sp + 0x18]\n   913: a1 = reverse a1\n   915: u64 [sp + 0x98] = a1\n   919: a1 = u64 [sp + 0x20]\n   922: a1 = reverse a1\n   924: u64 [sp + 0x90] = a1\n   928: a1 = u64 [sp + 0x28]\n   931: a1 = reverse a1\n   933: u64 [sp + 0x88] = a1\n   937: a1 = u64 [sp + 0x30]\n   940: a1 = reverse a1\n   942: u64 [sp + 0x80] = a1\n   946: a1 = u64 [sp + 0x40]\n   949: a1 = reverse a1\n   951: u64 [sp + 0xb8] = a1\n   955: a1 = u64 [sp + 0x48]\n   958: a1 = reverse a1\n   960: u64 [sp + 0xb0] = a1\n   964: a1 = u64 [sp + 0x50]\n   967: a1 = reverse a1\n   969: u64 [sp + 0xa8] = a1\n   973: a1 = u64 [sp + 0x58]\n   976: a1 = reverse a1\n   978: u64 [sp + 0xa0] = a1\n   982: i32 a2 = a0 + 0\n   984: a3 = i32 [sp + 0x38]\n   987: i32 a0 = sp + 0x60\n   990: a1 = 0x3\n   993: ecalli 5 // 'deposit_event'\n   995: sp = s0 + 0xffffffffffffff20\n   999: ra = u64 [sp + 0xd8]\n  1003: s0 = u64 [sp + 0xd0]\n  1007: s1 = u64 [sp + 0xc8]\n  1011: sp = sp + 0xe0\n  1015: ret\n      : @15 [@dyn 5] (gas: 17)\n  1017: s1 = u64 [a5]\n  1019: u64 [sp + 0x60] = s1\n  1022: s1 = u64 [a5 + 0x8]\n  1025: u64 [sp + 0x68] = s1\n  1028: s1 = u64 [a5 + 0x10]\n  1031: u64 [sp + 0x70] = s1\n  1034: a5 = u64 [a5 + 0x18]\n  1037: u64 [sp + 0x78] = a5\n  1040: a5 = u64 [a4]\n  1042: u64 [sp + 0x38] = a5\n  1045: a5 = u64 [a4 + 0x8]\n  1048: u64 [sp + 0x40] = a5\n  1051: a5 = u64 [a4 + 0x10]\n  1054: u64 [sp + 0x48] = a5\n  1057: a4 = u64 [a4 + 0x18]\n  1060: u64 [sp + 0x50] = a4\n  1063: t0 = 12, jump @1796\n      : @16 [@dyn 6] (gas: 2)\n  1069: u64 [sp + 0x58] = a1\n  1072: ra = 14, jump @18\n      : @17 [@dyn 7] (gas: 58)\n  1077: a1 = reverse s1\n  1079: u64 [sp + 0x98] = a1\n  1083: a1 = u64 [sp]\n  1085: a1 = reverse a1\n  1087: u64 [sp + 0x90] = a1\n  1091: a1 = u64 [sp + 0x8]\n  1094: a1 = reverse a1\n  1096: u64 [sp + 0x88] = a1\n  1100: a1 = u64 [sp + 0x10]\n  1103: a1 = reverse a1\n  1105: u64 [sp + 0x80] = a1\n  1109: a1 = u64 [sp + 0x18]\n  1112: a1 = reverse a1\n  1114: u64 [sp + 0xb8] = a1\n  1118: a1 = u64 [sp + 0x20]\n  1121: a1 = reverse a1\n  1123: u64 [sp + 0xb0] = a1\n  1127: a1 = u64 [sp + 0x28]\n  1130: a1 = reverse a1\n  1132: u64 [sp + 0xa8] = a1\n  1136: a1 = u64 [sp + 0x30]\n  1139: a1 = reverse a1\n  1141: u64 [sp + 0xa0] = a1\n  1145: a1 = u64 [sp + 0x38]\n  1148: a1 = reverse a1\n  1150: u64 [sp + 0xd8] = a1\n  1154: a1 = u64 [sp + 0x40]\n  1157: a1 = reverse a1\n  1159: u64 [sp + 0xd0] = a1\n  1163: a1 = u64 [sp + 0x48]\n  1166: a1 = reverse a1\n  1168: u64 [sp + 0xc8] = a1\n  1172: a1 = u64 [sp + 0x50]\n  1175: a1 = reverse a1\n  1177: u64 [sp + 0xc0] = a1\n  1181: a1 = u64 [sp + 0x60]\n  1184: a1 = reverse a1\n  1186: u64 [sp + 0xf8] = a1\n  1190: a1 = u64 [sp + 0x68]\n  1193: a1 = reverse a1\n  1195: u64 [sp + 0xf0] = a1\n  1199: a1 = u64 [sp + 0x70]\n  1202: a1 = reverse a1\n  1204: u64 [sp + 0xe8] = a1\n  1208: a1 = u64 [sp + 0x78]\n  1211: a1 = reverse a1\n  1213: u64 [sp + 0xe0] = a1\n  1217: i32 a2 = a0 + 0\n  1219: a3 = i32 [sp + 0x58]\n  1222: i32 a0 = sp + 0x80\n  1226: a1 = 0x4\n  1229: ecalli 5 // 'deposit_event'\n  1231: sp = s0 + 0xfffffffffffffee0\n  1235: ra = u64 [sp + 0x118]\n  1239: s0 = u64 [sp + 0x110]\n  1243: s1 = u64 [sp + 0x108]\n  1247: sp = sp + 0x120\n  1251: ret\n      : @18 (gas: 2)\n  1253: i32 a2 = a0 >> 0x10\n  1256: jump @23 if a2 != 0\n      : @19 (gas: 4)\n  1259: a1 = a1 + a0\n  1262: i32 a1 = a1 + 0x1f\n  1265: a1 = a1 & 0xffffffffffffffe0\n  1268: jump @23 if a1 >u 65536\n      : @20 (gas: 3)\n  1274: a2 = 0x201f0\n  1279: a3 = i32 [0x201f0]\n  1284: jump @22 if a3 >=u a1\n      : @21 (gas: 2)\n  1287: u32 [0x201f0] = a1\n  1292: fallthrough\n      : @22 (gas: 4)\n  1293: a1 = 0x20200\n  1298: i32 a0 = a0 + 0\n  1300: a0 = a0 + a1\n  1303: ret\n      : @23 (gas: 1)\n  1305: trap\n      : @24 (gas: 6)\n  1306: sp = sp + 0xfffffffffffffff0\n  1309: u64 [sp + 0x8] = ra\n  1312: u64 [sp] = s0\n  1314: s0 = a0 & 0x1\n  1317: ecalli 3 // 'call_data_size'\n  1319: fallthrough\n      : @25 (gas: 3)\n  1320: a1 = 0x201ec\n  1325: u32 [0x201ec] = a0\n  1330: jump @27 if s0 == 0\n      : @26 (gas: 3)\n  1333: ra = 0x10\n  1336: t0 = 0x14\n  1339: jump @1825\n      : @27 [@dyn 8] (gas: 1)\n  1343: ra = 18, jump @51\n      : @28 [@dyn 9] (gas: 1)\n  1348: t0 = 20, jump @1825\n      : @29 [@dyn 10] (gas: 7)\n  1354: u64 [sp + 248] = 0\n  1358: u64 [sp + 240] = 0\n  1362: u64 [sp + 232] = 0\n  1366: u64 [sp + 224] = 0\n  1370: i32 a0 = sp + 0xe0\n  1374: ecalli 16 // 'value_transferred'\n  1376: fallthrough\n      : @30 (gas: 8)\n  1377: a0 = u64 [sp + 0xf0]\n  1381: a1 = u64 [sp + 0xf8]\n  1385: a2 = u64 [sp + 0xe8]\n  1389: a3 = u64 [sp + 0xe0]\n  1393: a1 = a1 | a2\n  1396: a0 = a0 | a3\n  1399: a0 = a0 | a1\n  1402: jump @42 if a0 != 0\n      : @31 (gas: 15)\n  1406: s1 = i32 [0x201ec]\n  1411: a0 = s1 << 0x20\n  1414: a0 = a0 >> 0x20\n  1417: a0 = a0 + 0x1f\n  1420: a0 = a0 & 0xffffffffffffffe0\n  1423: a1 = a0 + 0xa0\n  1427: a0 = a1 <u a0\n  1430: u64 [sp + 0xc0] = a1\n  1434: u64 [sp + 0xc8] = a0\n  1438: a0 = 0 if a0 != 0\n  1440: u64 [sp + 0xd0] = a0\n  1444: a0 = 0x40\n  1447: a1 = sp + 0xc0\n  1451: u64 [sp + 216] = 0\n  1455: ra = 22, jump @9\n      : @32 [@dyn 11] (gas: 3)\n  1460: a0 = 0xa0\n  1464: a1 = s1\n  1466: ra = 24, jump @18\n      : @33 [@dyn 12] (gas: 5)\n  1471: i32 a0 = a0 + 0\n  1473: a1 = s1\n  1475: a2 = 0\n  1477: ecalli 1 // 'call_data_copy'\n  1479: fallthrough\n      : @34 (gas: 1)\n  1480: jump @43 if s1 <=u 31\n      : @35 (gas: 3)\n  1485: a0 = sp + 0xa0\n  1489: a1 = 0xa0\n  1493: ra = 26, jump @7\n      : @36 [@dyn 13] (gas: 10)\n  1498: a0 = u64 [sp + 0xb0]\n  1502: a2 = u64 [sp + 0xb8]\n  1506: a1 = 0x100000000\n  1516: a1 = a1 ^ a0\n  1519: a1 = a1 | a2\n  1522: a3 = a0 >> 0x20\n  1525: a3 = a3 <u 0x1\n  1528: a3 = 0 if a2 != 0\n  1530: a3 = 0 if a1 == 0\n  1532: jump @44 if a3 == 0\n      : @37 (gas: 9)\n  1536: a1 = u64 [sp + 0xa8]\n  1540: a3 = u64 [sp + 0xa0]\n  1544: u64 [sp + 0x80] = a3\n  1548: u64 [sp + 0x88] = a1\n  1552: u64 [sp + 0x90] = a0\n  1556: a0 = 0x80\n  1560: a1 = sp + a0\n  1563: u64 [sp + 0x98] = a2\n  1567: ra = 28, jump @9\n      : @38 [@dyn 14] (gas: 23)\n  1572: s1 = 0x30200\n  1577: i32 a0 = s1 + 0\n  1579: ecalli 4 // 'caller'\n  1581: a0 = u64 [0x30208]\n  1586: a1 = i32 [0x30210]\n  1591: a2 = u64 [0x30200]\n  1596: a0 = reverse a0\n  1598: a3 = a0 << 0x20\n  1601: a1 = reverse a1\n  1603: a1 = a1 >> 0x20\n  1606: a3 = a3 | a1\n  1609: a0 = a0 >> 0x20\n  1612: a1 = reverse a2\n  1614: a2 = a1 << 0x20\n  1617: a0 = a0 | a2\n  1620: a1 = a1 >> 0x20\n  1623: u64 [sp + 88] = 0\n  1626: u64 [sp + 0x50] = a1\n  1629: u64 [sp + 0x48] = a0\n  1632: a0 = sp + 0x60\n  1635: a1 = sp + 0x40\n  1638: u64 [sp + 0x40] = a3\n  1641: ra = 30, jump @1329\n      : @39 [@dyn 15] (gas: 3)\n  1647: a0 = sp + 0x20\n  1650: a1 = 0x40\n  1653: ra = 32, jump @7\n      : @40 [@dyn 16] (gas: 12)\n  1658: a0 = u64 [sp + 0x38]\n  1661: a1 = u64 [sp + 0x30]\n  1664: a2 = u64 [sp + 0x28]\n  1667: s1 = u64 [sp + 0x20]\n  1670: a0 = a0 | a2\n  1673: a2 = s1 | a1\n  1676: a2 = a2 | a0\n  1679: a2 = a2 >> 0x20\n  1682: a0 = a0 | a1\n  1685: a0 = a0 << 0x20\n  1688: a0 = a0 | a2\n  1691: jump @45 if a0 == 0\n      : @41 (gas: 1)\n  1694: trap\n      : @42 (gas: 4)\n  1695: a1 = 0x20200\n  1700: i32 a1 = a1 + 0\n  1702: a0 = 0x1\n  1705: jump @50\n      : @43 (gas: 4)\n  1707: a1 = 0x20200\n  1712: i32 a1 = a1 + 0\n  1714: a0 = 0x1\n  1717: jump @50\n      : @44 (gas: 4)\n  1719: a1 = 0x20200\n  1724: i32 a1 = a1 + 0\n  1726: a0 = 0x1\n  1729: jump @50\n      : @45 (gas: 3)\n  1731: a0 = s1\n  1733: a1 = 0\n  1735: ra = 34, jump @18\n      : @46 [@dyn 17] (gas: 7)\n  1740: i32 a0 = a0 + 0\n  1742: a1 = 0\n  1744: a2 = 0\n  1746: ecalli 1 // 'call_data_copy'\n  1748: a0 = sp\n  1750: a1 = 0x80\n  1754: ra = 36, jump @7\n      : @47 [@dyn 18] (gas: 9)\n  1759: a0 = u64 [sp + 0x18]\n  1762: a2 = u64 [sp + 0x10]\n  1765: a3 = u64 [sp + 0x8]\n  1768: a4 = u64 [sp]\n  1770: u64 [0x30238] = a0\n  1775: u64 [0x30230] = a2\n  1780: u64 [0x30228] = a3\n  1785: u64 [0x30220] = a4\n  1790: jump @5\n      : @48 (gas: 3)\n  1793: a0 = s1\n  1795: a1 = 0\n  1797: ra = 38, jump @18\n      : @49 [@dyn 19] (gas: 6)\n  1802: i32 a1 = a0 + 0\n  1804: a0 = 0\n  1806: a2 = 0\n  1808: ra = 0x28\n  1811: ecalli 13 // 'seal_return'\n  1813: jump @51\n      : @50 (gas: 4)\n  1815: a2 = 0\n  1817: ra = 0x28\n  1820: ecalli 13 // 'seal_return'\n  1822: fallthrough\n      : @51 [@dyn 20] (gas: 16)\n  1823: sp = sp + 0xfffffffffffffe10\n  1827: u64 [sp + 0x1e8] = ra\n  1831: u64 [sp + 0x1e0] = s0\n  1835: u64 [sp + 0x1d8] = s1\n  1839: s0 = sp + 0x1f0\n  1843: sp = sp + 0xffffffffffffcbf0\n  1847: sp = sp & 0xffffffffffffffe0\n  1850: s1 = sp\n  1852: a2 = s1 + 0x29f8\n  1856: u64 [a2 + 352] = 0\n  1860: u64 [a2 + 344] = 0\n  1864: u64 [a2 + 328] = 0x80\n  1870: a0 = 0x40\n  1873: a1 = s1 + 0x2b40\n  1877: u64 [a2 + 336] = 0\n  1881: ra = 42, jump @9\n      : @52 [@dyn 21] (gas: 4)\n  1886: a0 = 0x201ec\n  1891: u64 [s1 + 0x278] = a0\n  1895: a0 = i32 [0x201ec]\n  1900: jump @54 if a0 >=u 4\n      : @53 (gas: 1)\n  1904: jump @1261\n      : @54 (gas: 6)\n  1907: a0 = s1 + 0x3000\n  1911: i32 a0 = a0 + 0xfffffffffffffb60\n  1915: a1 = 0\n  1917: ra = 0x2c\n  1920: ecalli 2 // 'call_data_load'\n  1922: fallthrough\n      : @55 [@dyn 22] (gas: 3)\n  1923: a2 = s1 + 0x29f8\n  1927: a0 = i32 [a2 + 0x184]\n  1931: jump @57 if a0 != 2401056630\n      : @56 (gas: 1)\n  1938: jump @536\n      : @57 (gas: 1)\n  1941: jump @59 if a0 != 2446411860\n      : @58 (gas: 1)\n  1948: jump @364\n      : @59 (gas: 2)\n  1951: a3 = s1 + 0x31f8\n  1955: jump @104 if a0 == 2455033714\n      : @60 (gas: 1)\n  1963: jump @62 if a0 != 2719481311\n      : @61 (gas: 1)\n  1970: jump @590\n      : @62 (gas: 1)\n  1973: jump @64 if a0 != 2810280892\n      : @63 (gas: 1)\n  1980: jump @387\n      : @64 (gas: 1)\n  1983: jump @66 if a0 != 3741207314\n      : @65 (gas: 1)\n  1990: jump @603\n      : @66 (gas: 1)\n  1993: jump @68 if a0 != 3893434434\n      : @67 (gas: 1)\n  2000: jump @450\n      : @68 (gas: 1)\n  2003: jump @70 if a0 != 4165322163\n      : @69 (gas: 1)\n  2010: jump @577\n      : @70 (gas: 1)\n  2013: jump @72 if a0 != 435355053\n      : @71 (gas: 1)\n  2020: jump @496\n      : @72 (gas: 1)\n  2023: jump @115 if a0 == 467487604\n      : @73 (gas: 1)\n  2031: jump @75 if a0 != 613063843\n      : @74 (gas: 1)\n  2038: jump @436\n      : @75 (gas: 1)\n  2041: jump @77 if a0 != 632874987\n      : @76 (gas: 1)\n  2048: jump @425\n      : @77 (gas: 1)\n  2051: jump @79 if a0 == 1774491868\n      : @78 (gas: 1)\n  2058: jump @483\n      : @79 (gas: 3)\n  2061: a0 = u64 [s1 + 0x278]\n  2065: a0 = i32 [a0]\n  2067: jump @81 if a0 >u 67\n      : @80 (gas: 1)\n  2071: jump @1101\n      : @81 (gas: 5)\n  2074: a0 = s1 + 0x3000\n  2078: i32 a0 = a0 + 0xffffffffffffff20\n  2082: a1 = 0x4\n  2085: ecalli 2 // 'call_data_load'\n  2087: fallthrough\n      : @82 (gas: 13)\n  2088: a2 = s1 + 0x29f8\n  2092: a4 = a2 + 0x500\n  2096: a0 = u64 [a4 + 0x40]\n  2099: a1 = u64 [a4 + 0x38]\n  2102: a3 = u64 [a4 + 0x30]\n  2105: a4 = s1 + 0x200\n  2109: u64 [a4 + 0x40] = a0\n  2112: u64 [a4 + 0x38] = a1\n  2115: a0 = a0 | a1\n  2118: u64 [a4 + 0x30] = a3\n  2121: a1 = a3 <u 0x1\n  2124: a1 = 0 if a0 != 0\n  2126: jump @84 if a1 != 0\n      : @83 (gas: 1)\n  2129: jump @1102\n      : @84 (gas: 6)\n  2132: a0 = u64 [a2 + 0x528]\n  2136: u64 [s1 + 0x270] = a0\n  2140: a0 = s1 + 0x1f20\n  2144: ra = 0x2e\n  2147: t0 = 0x50c\n  2151: jump @1793\n      : @85 [@dyn 23] (gas: 21)\n  2155: a1 = s1 + 0x19f8\n  2159: a2 = a1 + 0x500\n  2163: a0 = u64 [a2 + 0x38]\n  2166: a1 = s1 + 0x200\n  2170: u64 [a1 + 0x18] = a0\n  2173: a0 = u64 [a2 + 0x30]\n  2176: u64 [a1 + 0x20] = a0\n  2179: a0 = u64 [a2 + 0x28]\n  2182: u64 [a1 + 0x28] = a0\n  2185: a0 = s1 + 0x29f8\n  2189: u64 [a0 + 1376] = 0\n  2193: a0 = s1 + 0x29f8\n  2197: u64 [a0 + 1368] = 0\n  2201: a0 = s1 + 0x29f8\n  2205: u64 [a0 + 1360] = 0\n  2209: a0 = s1 + 0x29f8\n  2213: u64 [a0 + 1352] = 0\n  2217: a0 = s1 + 0x3000\n  2221: i32 a0 = a0 + 0xffffffffffffff40\n  2225: ecalli 16 // 'value_transferred'\n  2227: fallthrough\n      : @86 (gas: 10)\n  2228: a4 = s1 + 0x29f8\n  2232: a5 = a4 + 0x500\n  2236: a0 = u64 [a5 + 0x58]\n  2239: a1 = u64 [a5 + 0x60]\n  2242: a2 = u64 [a5 + 0x50]\n  2245: a3 = u64 [a5 + 0x48]\n  2248: a1 = a1 | a2\n  2251: a0 = a0 | a3\n  2254: a0 = a0 | a1\n  2257: jump @88 if a0 == 0\n      : @87 (gas: 1)\n  2260: jump @673\n      : @88 (gas: 3)\n  2263: a0 = s1 + 0x1920\n  2267: a1 = 0x40\n  2270: ra = 48, jump @7\n      : @89 [@dyn 24] (gas: 14)\n  2275: a2 = s1 + 0x11f8\n  2279: t0 = u64 [a2 + 0x740]\n  2283: a1 = a2 + 0x700\n  2287: a5 = u64 [a1 + 0x38]\n  2290: a4 = u64 [a1 + 0x30]\n  2293: a0 = u64 [a1 + 0x28]\n  2296: a3 = a4 | t0\n  2299: a1 = a0 | a5\n  2302: a1 = a1 | a3\n  2305: a1 = a1 >> 0x20\n  2308: a3 = a3 | a5\n  2311: a3 = a3 << 0x20\n  2314: a1 = a1 | a3\n  2317: jump @91 if a1 == 0\n      : @90 (gas: 1)\n  2320: jump @797\n      : @91 (gas: 11)\n  2323: u64 [a2 + 1816] = 0\n  2327: u64 [a2 + 1808] = 0\n  2331: u64 [a2 + 1800] = 0\n  2335: a3 = 0x8c379a000000000\n  2345: a1 = s1 + 0x1900\n  2349: u64 [a2 + 0x720] = a3\n  2353: u64 [s1 + 0x278] = a0\n  2357: u64 [s1 + 0x270] = a4\n  2361: u64 [s1 + 0x260] = t0\n  2365: u64 [s1 + 0x268] = a5\n  2369: ra = 50, jump @9\n      : @92 [@dyn 25] (gas: 6)\n  2374: a5 = s1 + 0x200\n  2378: a1 = u64 [a5 + 0x78]\n  2381: a0 = u64 [a5 + 0x68]\n  2384: a3 = u64 [a5 + 0x60]\n  2387: a3 = a3 | a0\n  2390: t0 = 52, jump @1785\n      : @93 [@dyn 26] (gas: 1)\n  2396: jump @95 if a0 != 0\n      : @94 (gas: 1)\n  2399: jump @797\n      : @95 (gas: 10)\n  2402: i32 a0 = a1 + 0x4\n  2405: a2 = s1 + 0x11f8\n  2409: u64 [a2 + 1792] = 0\n  2413: u64 [a2 + 1784] = 0\n  2417: u64 [a2 + 1768] = 0x20\n  2422: a1 = s1 + 0x18e0\n  2426: u64 [a2 + 1776] = 0\n  2430: u64 [s1 + 0x268] = a3\n  2434: u64 [s1 + 0x260] = a4\n  2438: ra = 54, jump @9\n      : @96 [@dyn 27] (gas: 1)\n  2443: t0 = 56, jump @1799\n      : @97 [@dyn 28] (gas: 1)\n  2449: jump @99 if a0 != 0\n      : @98 (gas: 1)\n  2452: jump @797\n      : @99 (gas: 8)\n  2455: i32 a0 = a1 + 0x24\n  2458: a3 = s1 + 0x11f8\n  2462: u64 [a3 + 1760] = 0\n  2466: u64 [a3 + 1752] = 0\n  2470: u64 [a3 + 1736] = 0x10\n  2475: a1 = s1 + 0x18c0\n  2479: u64 [a3 + 1744] = 0\n  2483: ra = 58, jump @9\n      : @100 [@dyn 29] (gas: 1)\n  2488: t0 = 60, jump @1775\n      : @101 [@dyn 30] (gas: 1)\n  2494: jump @103 if a0 != 0\n      : @102 (gas: 1)\n  2497: jump @797\n      : @103 (gas: 11)\n  2500: i32 a0 = a3 + 0x44\n  2503: a1 = u64 [0x20070]\n  2508: a2 = u64 [0x20078]\n  2513: a4 = s1 + 0x11f8\n  2517: u64 [a4 + 0x6c0] = a1\n  2521: u64 [a4 + 1712] = 0\n  2525: u64 [a4 + 0x6b8] = a2\n  2529: a1 = s1 + 0x18a0\n  2533: u64 [a4 + 1704] = 0\n  2537: ra = 0x262\n  2541: jump @9\n      : @104 (gas: 9)\n  2544: u64 [a3 + 160] = 0\n  2548: u64 [a3 + 152] = 0\n  2552: u64 [a3 + 144] = 0\n  2556: u64 [a3 + 136] = 0\n  2560: a0 = s1 + 0x3000\n  2564: i32 a0 = a0 + 0x280\n  2568: ecalli 16 // 'value_transferred'\n  2570: a3 = s1 + 0x31f8\n  2574: fallthrough\n      : @105 (gas: 8)\n  2575: a0 = u64 [a3 + 0x98]\n  2579: a1 = u64 [a3 + 0xa0]\n  2583: a2 = u64 [a3 + 0x90]\n  2587: a3 = u64 [a3 + 0x88]\n  2591: a1 = a1 | a2\n  2594: a0 = a0 | a3\n  2597: a0 = a0 | a1\n  2600: jump @107 if a0 == 0\n      : @106 (gas: 1)\n  2603: jump @1103\n      : @107 (gas: 4)\n  2606: a0 = u64 [s1 + 0x278]\n  2610: a0 = i32 [a0]\n  2612: a1 = 0x3\n  2615: jump @109 if a1 <u a0\n      : @108 (gas: 1)\n  2618: jump @1104\n      : @109 (gas: 4)\n  2621: a0 = s1 + 0x2320\n  2625: ra = 0x3e\n  2628: t0 = 0x596\n  2632: jump @1793\n      : @110 [@dyn 31] (gas: 6)\n  2636: a0 = s1 + 0x21f8\n  2640: a0 = u64 [a0 + 0x128]\n  2644: u64 [s1 + 0x278] = a0\n  2648: a0 = s1 + 0x2300\n  2652: a1 = 0x40\n  2655: ra = 64, jump @7\n      : @111 [@dyn 32] (gas: 7)\n  2660: a3 = s1 + 0x21f8\n  2664: a5 = a3 + 0x100\n  2668: a4 = u64 [a5 + 0x20]\n  2671: a1 = u64 [a5 + 0x18]\n  2674: a2 = u64 [a5 + 0x10]\n  2677: a0 = u64 [a5 + 0x8]\n  2680: t0 = 66, jump @1784\n      : @112 [@dyn 33] (gas: 1)\n  2686: jump @114 if a1 == 0\n      : @113 (gas: 1)\n  2689: jump @797\n      : @114 (gas: 9)\n  2692: u64 [a3 + 256] = 0\n  2696: u64 [a3 + 248] = 0\n  2700: a1 = u64 [s1 + 0x278]\n  2704: u64 [a3 + 0xe8] = a1\n  2708: a1 = s1 + 0x22e0\n  2712: u64 [a3 + 240] = 0\n  2716: u64 [s1 + 0x278] = a0\n  2720: ra = 0x22a\n  2724: jump @9\n      : @115 (gas: 9)\n  2727: u64 [a2 + 928] = 0\n  2731: u64 [a2 + 920] = 0\n  2735: u64 [a2 + 912] = 0\n  2739: u64 [a2 + 904] = 0\n  2743: a0 = s1 + 0x3000\n  2747: i32 a0 = a0 + 0xfffffffffffffd80\n  2751: ra = 0x44\n  2754: ecalli 16 // 'value_transferred'\n  2756: fallthrough\n      : @116 [@dyn 34] (gas: 3)\n  2757: a3 = s1 + 0x29f8\n  2761: a4 = a3 + 0x300\n  2765: t0 = 70, jump @1807\n      : @117 [@dyn 35] (gas: 1)\n  2771: jump @119 if a0 == 0\n      : @118 (gas: 1)\n  2774: jump @1105\n      : @119 (gas: 1)\n  2777: t0 = 72, jump @1808\n      : @120 [@dyn 36] (gas: 1)\n  2783: jump @122 if a1 <u a0\n      : @121 (gas: 1)\n  2786: jump @1106\n      : @122 (gas: 3)\n  2789: a0 = s1 + 0x15e0\n  2793: a1 = 0x40\n  2796: ra = 74, jump @7\n      : @123 [@dyn 37] (gas: 16)\n  2801: a1 = s1 + 0x11f8\n  2805: a0 = u64 [a1 + 0x400]\n  2809: u64 [s1 + 0x268] = a0\n  2813: a5 = a1 + 0x300\n  2817: a2 = u64 [a5 + 0xf8]\n  2821: u64 [s1 + 0x260] = a2\n  2825: a4 = u64 [a5 + 0xf0]\n  2829: u64 [s1 + 0x270] = a4\n  2833: a3 = u64 [a5 + 0xe8]\n  2837: u64 [s1 + 0x278] = a3\n  2841: u64 [a5 + 0xe0] = a0\n  2845: u64 [a5 + 0xd8] = a2\n  2849: u64 [a5 + 0xd0] = a4\n  2853: a0 = s1 + 0x15c0\n  2857: u64 [a5 + 0xc8] = a3\n  2861: ra = 76, jump @1443\n      : @124 [@dyn 38] (gas: 7)\n  2867: a3 = s1 + 0x200\n  2871: a0 = u64 [a3 + 0x68]\n  2874: a1 = u64 [a3 + 0x70]\n  2877: a0 = a0 | a1\n  2880: a2 = u64 [a3 + 0x60]\n  2883: a1 = u64 [a3 + 0x78]\n  2886: t0 = 78, jump @1823\n      : @125 [@dyn 39] (gas: 1)\n  2892: jump @127 if a0 == 0\n      : @126 (gas: 1)\n  2895: jump @797\n      : @127 (gas: 8)\n  2898: a0 = s1 + 0x11f8\n  2902: u64 [a0 + 960] = 0\n  2906: u64 [a0 + 952] = 0\n  2910: u64 [a0 + 944] = 0\n  2914: a1 = s1 + 0x15a0\n  2918: u64 [a0 + 936] = 0\n  2922: a0 = u64 [s1 + 0x278]\n  2926: ra = 80, jump @9\n      : @128 [@dyn 40] (gas: 12)\n  2931: a4 = s1 + 0x200\n  2935: a0 = u64 [a4 + 0x68]\n  2938: a2 = u64 [a4 + 0x60]\n  2941: a2 = a2 | a0\n  2944: a3 = 0x100000000\n  2954: a0 = 0xffffffe0\n  2964: a1 = u64 [a4 + 0x78]\n  2967: a0 = a1 <u a0\n  2970: a1 = u64 [a4 + 0x70]\n  2973: a0 = 0 if a1 != 0\n  2975: a0 = 0 if a2 != 0\n  2977: jump @130 if a0 != 0\n      : @129 (gas: 1)\n  2980: jump @797\n      : @130 (gas: 12)\n  2983: a0 = u64 [s1 + 0x278]\n  2987: i32 a0 = a0 + 0x20\n  2990: a1 = s1 + 0x11f8\n  2994: u64 [s1 + 0x268] = a2\n  2998: a2 = a1\n  3000: u64 [a1 + 928] = 0\n  3004: u64 [a1 + 920] = 0\n  3008: u64 [a1 + 912] = 0\n  3012: a1 = s1 + 0x1580\n  3016: u64 [a2 + 904] = 0\n  3020: u64 [s1 + 0x260] = a3\n  3024: ra = 82, jump @9\n      : @131 [@dyn 41] (gas: 4)\n  3029: a2 = s1 + 0x200\n  3033: a0 = u64 [a2 + 0x60]\n  3036: a0 = a0 + 0xffffffffffffffc0\n  3039: t0 = 84, jump @1797\n      : @132 [@dyn 42] (gas: 1)\n  3045: jump @134 if a0 != 0\n      : @133 (gas: 1)\n  3048: jump @797\n      : @134 (gas: 9)\n  3051: a0 = u64 [s1 + 0x278]\n  3055: i32 a0 = a0 + 0x40\n  3058: a2 = s1 + 0x11f8\n  3062: u64 [a2 + 896] = 0\n  3066: u64 [a2 + 888] = 0\n  3070: u64 [a2 + 880] = 0\n  3074: a1 = s1 + 0x1560\n  3078: u64 [a2 + 872] = 0\n  3082: ra = 86, jump @9\n      : @135 [@dyn 43] (gas: 3)\n  3087: a2 = 0x100000000\n  3097: a0 = 0xffffffa0\n  3107: t0 = 88, jump @1817\n      : @136 [@dyn 44] (gas: 1)\n  3113: jump @138 if a0 != 0\n      : @137 (gas: 1)\n  3116: jump @797\n      : @138 (gas: 11)\n  3119: a0 = u64 [s1 + 0x278]\n  3123: i32 a0 = a0 + 0x60\n  3126: a1 = s1 + 0x11f8\n  3130: u64 [s1 + 0x260] = a2\n  3134: a2 = a1\n  3136: u64 [a1 + 864] = 0\n  3140: u64 [a1 + 856] = 0\n  3144: u64 [a1 + 848] = 0\n  3148: a1 = s1 + 0x1540\n  3152: u64 [a2 + 840] = 0\n  3156: ra = 90, jump @9\n      : @139 [@dyn 45] (gas: 4)\n  3161: a2 = s1 + 0x200\n  3165: a0 = u64 [a2 + 0x60]\n  3168: a0 = a0 + 0xffffffffffffff80\n  3171: t0 = 92, jump @1797\n      : @140 [@dyn 46] (gas: 1)\n  3177: jump @142 if a0 != 0\n      : @141 (gas: 1)\n  3180: jump @797\n      : @142 (gas: 9)\n  3183: a0 = u64 [s1 + 0x278]\n  3187: i32 a0 = a0 + 0x80\n  3191: a2 = s1 + 0x11f8\n  3195: u64 [a2 + 832] = 0\n  3199: u64 [a2 + 824] = 0\n  3203: u64 [a2 + 816] = 0\n  3207: a1 = s1 + 0x1520\n  3211: u64 [a2 + 808] = 0\n  3215: ra = 94, jump @9\n      : @143 [@dyn 47] (gas: 3)\n  3220: a2 = 0x100000000\n  3230: a0 = 0xffffff60\n  3240: t0 = 96, jump @1817\n      : @144 [@dyn 48] (gas: 1)\n  3246: jump @146 if a0 != 0\n      : @145 (gas: 1)\n  3249: jump @797\n      : @146 (gas: 11)\n  3252: a0 = u64 [s1 + 0x278]\n  3256: i32 a0 = a0 + 0xa0\n  3260: a1 = s1 + 0x11f8\n  3264: u64 [s1 + 0x260] = a2\n  3268: a2 = a1\n  3270: u64 [a1 + 800] = 0\n  3274: u64 [a1 + 792] = 0\n  3278: u64 [a1 + 784] = 0\n  3282: a1 = s1 + 0x1500\n  3286: u64 [a2 + 776] = 0\n  3290: ra = 98, jump @9\n      : @147 [@dyn 49] (gas: 10)\n  3295: a3 = s1 + 0x200\n  3299: a2 = u64 [a3 + 0x68]\n  3302: a0 = u64 [a3 + 0x60]\n  3305: a0 = a0 + 0xffffffffffffff40\n  3309: a1 = u64 [a3 + 0x78]\n  3312: a0 = a1 <u a0\n  3315: a1 = u64 [a3 + 0x70]\n  3318: a0 = 0 if a1 != 0\n  3320: a0 = 0 if a2 != 0\n  3322: jump @149 if a0 != 0\n      : @148 (gas: 1)\n  3325: jump @797\n      : @149 (gas: 9)\n  3328: a0 = u64 [s1 + 0x278]\n  3332: i32 a0 = a0 + 0xc0\n  3336: a2 = s1 + 0x11f8\n  3340: u64 [a2 + 768] = 0\n  3344: u64 [a2 + 760] = 0\n  3348: u64 [a2 + 744] = 0x60\n  3353: a1 = s1 + 0x14e0\n  3357: u64 [a2 + 752] = 0\n  3361: ra = 100, jump @9\n      : @150 [@dyn 50] (gas: 3)\n  3366: a0 = 0xffffff20\n  3376: a2 = s1 + 0x200\n  3380: t0 = 102, jump @1797\n      : @151 [@dyn 51] (gas: 1)\n  3386: jump @153 if a0 != 0\n      : @152 (gas: 1)\n  3389: jump @797\n      : @153 (gas: 9)\n  3392: a0 = u64 [s1 + 0x278]\n  3396: i32 a0 = a0 + 0xe0\n  3400: a2 = s1 + 0x11f8\n  3404: u64 [a2 + 736] = 0\n  3408: u64 [a2 + 728] = 0\n  3412: u64 [a2 + 720] = 0\n  3416: a1 = s1 + 0x14c0\n  3420: u64 [a2 + 712] = 0\n  3424: ra = 104, jump @9\n      : @154 [@dyn 52] (gas: 23)\n  3429: a0 = sp + 0xffffffffffffffe0\n  3432: a0 = a0 & 0xffffffffffffffe0\n  3435: u64 [s1 + 0x278] = a0\n  3439: sp = a0\n  3441: a0 = s1 + 0x3000\n  3445: i32 a0 = a0 + 0xfffffffffffffda0\n  3449: a1 = 0x4\n  3452: ecalli 2 // 'call_data_load'\n  3454: a3 = s1 + 0x29f8\n  3458: a4 = a3 + 0x300\n  3462: a2 = u64 [a4 + 0xa8]\n  3466: a0 = u64 [a4 + 0xb0]\n  3470: a1 = u64 [a4 + 0xb8]\n  3474: a3 = u64 [a4 + 0xc0]\n  3478: a4 = s1 + 0x11f8\n  3482: a5 = a4 + 0x200\n  3486: u64 [a5 + 0x80] = a3\n  3490: u64 [a5 + 0x78] = a1\n  3493: u64 [a5 + 0x70] = a0\n  3496: a0 = s1 + 0x1480\n  3500: a1 = s1 + 0x1460\n  3504: u64 [a5 + 0x68] = a2\n  3507: ra = 106, jump @1373\n      : @155 [@dyn 53] (gas: 18)\n  3513: a2 = s1 + 0x11f8\n  3517: a5 = a2 + 0x200\n  3521: a0 = u64 [a5 + 0x98]\n  3525: a1 = u64 [a5 + 0xa0]\n  3529: a4 = u64 [a5 + 0x88]\n  3533: a3 = u64 [a5 + 0x90]\n  3537: u64 [s1 + 0x88] = a0\n  3541: a2 = u64 [s1 + 0x278]\n  3545: u64 [a2 + 0x10] = a0\n  3548: u64 [s1 + 0x80] = a1\n  3552: u64 [a2 + 0x18] = a1\n  3555: u64 [s1 + 0x70] = a4\n  3558: u64 [a2] = a4\n  3560: u64 [s1 + 0x78] = a3\n  3563: u64 [a2 + 0x8] = a3\n  3566: a0 = s1 + 0x1440\n  3570: a1 = 0x40\n  3573: ra = 108, jump @7\n      : @156 [@dyn 54] (gas: 17)\n  3578: a0 = s1 + 0x11f8\n  3582: a5 = a0 + 0x200\n  3586: a2 = u64 [a5 + 0x60]\n  3589: u64 [s1 + 0x270] = a2\n  3593: a1 = u64 [a5 + 0x58]\n  3596: u64 [s1 + 0x268] = a1\n  3600: a3 = u64 [a5 + 0x50]\n  3603: u64 [s1 + 0x90] = a3\n  3607: a4 = u64 [a5 + 0x48]\n  3610: u64 [s1 + 0x98] = a4\n  3614: u64 [a5 + 0x40] = a2\n  3617: u64 [a5 + 0x38] = a1\n  3620: u64 [a5 + 0x30] = a3\n  3623: a1 = a0\n  3625: a0 = s1 + 0x1420\n  3629: u64 [a1 + 0x228] = a4\n  3633: ra = 110, jump @1443\n      : @157 [@dyn 55] (gas: 3)\n  3639: a0 = s1 + 0x1400\n  3643: a1 = u64 [s1 + 0x278]\n  3647: ra = 112, jump @11\n      : @158 [@dyn 56] (gas: 12)\n  3652: a1 = u64 [s1 + 0x90]\n  3656: a0 = u64 [s1 + 0x98]\n  3660: a2 = u64 [s1 + 0x270]\n  3664: a2 = a2 | a1\n  3667: a4 = u64 [s1 + 0x268]\n  3671: a1 = a0 | a4\n  3674: a1 = a1 | a2\n  3677: a1 = a1 >> 0x20\n  3680: a2 = a2 | a4\n  3683: a2 = a2 << 0x20\n  3686: a1 = a1 | a2\n  3689: jump @160 if a1 == 0\n      : @159 (gas: 1)\n  3692: jump @797\n      : @160 (gas: 14)\n  3695: a4 = s1 + 0x11f8\n  3699: a5 = a4 + 0x200\n  3703: a3 = u64 [a5 + 0x18]\n  3706: a1 = u64 [a5 + 0x10]\n  3709: a2 = u64 [a5 + 0x8]\n  3712: a3 = a3 << 0x20\n  3715: a3 = a3 >> 0x20\n  3718: u64 [a4 + 512] = 0\n  3722: a5 = a4 + 0x100\n  3726: u64 [a5 + 0xe8] = a2\n  3730: u64 [a5 + 0xf0] = a1\n  3734: a1 = s1 + 0x13e0\n  3738: u64 [a5 + 0xf8] = a3\n  3742: ra = 114, jump @9\n      : @161 [@dyn 57] (gas: 21)\n  3747: a0 = u64 [s1 + 0x70]\n  3750: a0 = a0 + 0x1\n  3753: a1 = a0 <u 0x1\n  3756: a2 = u64 [s1 + 0x78]\n  3759: a1 = a1 + a2\n  3762: a2 = a0 | a1\n  3765: a2 = a2 <u 0x1\n  3768: a3 = u64 [s1 + 0x88]\n  3772: a2 = a2 + a3\n  3775: a3 = a2 <u a3\n  3778: a4 = u64 [s1 + 0x80]\n  3782: a3 = a3 + a4\n  3785: a4 = s1 + 0x29f8\n  3789: a5 = a4 + 0x300\n  3793: u64 [a5 + 0xd8] = a2\n  3797: u64 [a5 + 0xd0] = a1\n  3801: u64 [a5 + 0xc8] = a0\n  3805: u64 [a5 + 0xe0] = a3\n  3809: a0 = s1 + 0x13c0\n  3813: a1 = s1 + 0x2dc0\n  3817: ra = 116, jump @11\n      : @162 [@dyn 58] (gas: 14)\n  3822: a3 = u64 [s1 + 0x98]\n  3826: a4 = s1 + 0x200\n  3830: a0 = u64 [a4 + 0x70]\n  3833: a1 = u64 [a4 + 0x68]\n  3836: a2 = a1 | a0\n  3839: a0 = 0x100000000\n  3849: u64 [a4 + 0x78] = a0\n  3852: a0 = 0xffffffe0\n  3862: a0 = a3 <u a0\n  3865: a1 = u64 [s1 + 0x90]\n  3869: a0 = 0 if a1 != 0\n  3871: u64 [s1 + 0x68] = a2\n  3874: a0 = 0 if a2 != 0\n  3876: jump @164 if a0 != 0\n      : @163 (gas: 1)\n  3879: jump @797\n      : @164 (gas: 22)\n  3882: t0 = 0xffffffffffffffff\n  3885: a2 = 0xffffffff\n  3895: a4 = s1 + 0x11f8\n  3899: a5 = u64 [a4 + 0x1d8]\n  3903: t1 = u64 [a4 + 0x1d0]\n  3907: a1 = u64 [a4 + 0x1c8]\n  3911: a0 = u64 [a4 + 0x1e0]\n  3915: u64 [s1 + 0x268] = a0\n  3919: u64 [s1 + 0x60] = a2\n  3922: u64 [s1 + 0x270] = a5\n  3926: a2 = a2 & a5\n  3929: a5 = t1 & t0\n  3932: a1 = a1 & t0\n  3935: i32 a0 = a3 + 0x20\n  3938: u64 [a4 + 448] = 0\n  3942: a3 = a4 + 0x100\n  3946: u64 [a3 + 0xa8] = a1\n  3950: u64 [a3 + 0xb0] = a5\n  3954: a1 = s1 + 0x13a0\n  3958: u64 [a3 + 0xb8] = a2\n  3962: u64 [s1 + 0x58] = a0\n  3965: ra = 118, jump @9\n      : @165 [@dyn 59] (gas: 3)\n  3970: a0 = u64 [s1 + 0x278]\n  3974: a0 = a0 + 0xffffffffffffffc0\n  3977: t0 = 120, jump @1770\n      : @166 [@dyn 60] (gas: 1)\n  3983: jump @168 if a0 != 0\n      : @167 (gas: 1)\n  3986: jump @797\n      : @168 (gas: 15)\n  3989: a0 = 0xff00000000\n  3999: u64 [s1 + 0x118] = a0\n  4003: a1 = u64 [s1 + 0x270]\n  4007: a0 = a0 & a1\n  4010: a2 = a0 >u 0\n  4012: a0 = u64 [s1 + 0x98]\n  4016: i32 a0 = a0 + 0x40\n  4019: a3 = s1 + 0x11f8\n  4023: u64 [a3 + 416] = 0\n  4027: u64 [a3 + 408] = 0\n  4031: u64 [a3 + 400] = 0\n  4035: a1 = s1 + 0x1380\n  4039: u64 [a3 + 0x188] = a2\n  4043: u64 [s1 + 0x50] = a0\n  4046: ra = 122, jump @9\n      : @169 [@dyn 61] (gas: 4)\n  4051: a0 = 0x100000000\n  4061: u64 [s1 + 0x278] = a0\n  4065: a0 = 0xffffffa0\n  4075: t0 = 124, jump @1770\n      : @170 [@dyn 62] (gas: 1)\n  4081: jump @172 if a0 != 0\n      : @171 (gas: 1)\n  4084: jump @797\n      : @172 (gas: 15)\n  4087: a0 = u64 [s1 + 0x270]\n  4091: a0 = a0 >> 0x28\n  4094: a1 = u64 [s1 + 0x268]\n  4098: a1 = a1 << 0x18\n  4101: a2 = a0 | a1\n  4104: a0 = u64 [s1 + 0x98]\n  4108: i32 a0 = a0 + 0x60\n  4111: a3 = s1 + 0x11f8\n  4115: u64 [a3 + 384] = 0\n  4119: u64 [a3 + 376] = 0\n  4123: u64 [a3 + 368] = 0\n  4127: a1 = s1 + 0x1360\n  4131: u64 [a3 + 0x168] = a2\n  4135: u64 [s1 + 0x48] = a0\n  4138: ra = 126, jump @9\n      : @173 [@dyn 63] (gas: 3)\n  4143: a1 = u64 [s1 + 0x70]\n  4146: a0 = a1 + 0x2\n  4149: t0 = 128, jump @1789\n      : @174 [@dyn 64] (gas: 8)\n  4156: a5 = a4 + 0x300\n  4160: u64 [a5 + 0xf8] = a3\n  4164: u64 [a5 + 0xf0] = a2\n  4168: u64 [a5 + 0xe8] = a0\n  4172: u64 [a4 + 0x400] = a1\n  4176: a0 = s1 + 0x1340\n  4180: a1 = s1 + 0x2de0\n  4184: ra = 130, jump @11\n      : @175 [@dyn 65] (gas: 3)\n  4190: a0 = u64 [s1 + 0x278]\n  4194: a0 = a0 + 0xffffffffffffff80\n  4197: t0 = 132, jump @1770\n      : @176 [@dyn 66] (gas: 1)\n  4204: jump @178 if a0 != 0\n      : @177 (gas: 1)\n  4207: jump @797\n      : @178 (gas: 15)\n  4210: a3 = s1 + 0x11f8\n  4214: a4 = a3 + 0x100\n  4218: a0 = u64 [a4 + 0x48]\n  4221: a1 = u64 [a4 + 0x50]\n  4224: u64 [s1 + 0x278] = a1\n  4228: a2 = a0 & 0xffffffffffffffff\n  4231: a0 = u64 [s1 + 0x98]\n  4235: i32 a0 = a0 + 0x80\n  4239: u64 [a3 + 320] = 0\n  4243: u64 [a3 + 312] = 0\n  4247: u64 [a3 + 304] = 0\n  4251: a1 = s1 + 0x1320\n  4255: u64 [a4 + 0x28] = a2\n  4258: u64 [s1 + 0x40] = a0\n  4261: ra = 134, jump @9\n      : @179 [@dyn 67] (gas: 2)\n  4267: a0 = 0xffffff60\n  4277: t0 = 136, jump @1770\n      : @180 [@dyn 68] (gas: 1)\n  4284: jump @182 if a0 != 0\n      : @181 (gas: 1)\n  4287: jump @797\n      : @182 (gas: 12)\n  4290: a2 = u64 [s1 + 0x278]\n  4294: a2 = a2 & 0xffffffffffffffff\n  4297: a1 = u64 [s1 + 0x98]\n  4301: i32 a0 = a1 + 0xa0\n  4305: a3 = s1 + 0x11f8\n  4309: u64 [a3 + 288] = 0\n  4313: u64 [a3 + 280] = 0\n  4317: u64 [a3 + 272] = 0\n  4321: a1 = s1 + 0x1300\n  4325: u64 [a3 + 0x108] = a2\n  4329: u64 [s1 + 0x18] = a0\n  4332: ra = 138, jump @9\n      : @183 [@dyn 69] (gas: 31)\n  4338: a0 = sp + 0xffffffffffffffe0\n  4341: a5 = a0 & 0xffffffffffffffe0\n  4344: sp = a5\n  4346: a0 = u64 [s1 + 0x70]\n  4349: a2 = a0 + 0x3\n  4352: a0 = a2 <u a0\n  4355: a1 = u64 [s1 + 0x78]\n  4358: a3 = a1 + a0\n  4361: a1 = a3 <u a1\n  4364: a1 = a0 if a0 == 0\n  4367: a0 = u64 [s1 + 0x88]\n  4371: a4 = a0 + a1\n  4374: a0 = a4 <u a0\n  4377: a1 = u64 [s1 + 0x80]\n  4381: a0 = a0 + a1\n  4384: u64 [s1 + 0x250] = a0\n  4388: u64 [s1 + 0x270] = a5\n  4392: u64 [a5 + 0x18] = a0\n  4395: u64 [s1 + 0x258] = a4\n  4399: u64 [a5 + 0x10] = a4\n  4402: u64 [s1 + 0x260] = a3\n  4406: u64 [a5 + 0x8] = a3\n  4409: u64 [s1 + 0x268] = a2\n  4413: u64 [a5] = a2\n  4415: a0 = sp + 0xffffffffffffffe0\n  4418: a0 = a0 & 0xffffffffffffffe0\n  4421: u64 [s1 + 0x278] = a0\n  4425: sp = a0\n  4427: a0 = s1 + 0x12e0\n  4431: a1 = 0x40\n  4434: ra = 140, jump @7\n      : @184 [@dyn 70] (gas: 17)\n  4440: a3 = s1 + 0x11f8\n  4444: a1 = u64 [a3 + 0xf8]\n  4448: a0 = u64 [a3 + 0x100]\n  4452: a2 = u64 [a3 + 0xe8]\n  4456: a3 = u64 [a3 + 0xf0]\n  4460: u64 [s1 + 0x30] = a1\n  4463: a4 = u64 [s1 + 0x278]\n  4467: u64 [a4 + 0x10] = a1\n  4470: u64 [s1 + 0x38] = a0\n  4473: u64 [a4 + 0x18] = a0\n  4476: u64 [s1 + 0x28] = a2\n  4479: u64 [a4] = a2\n  4481: u64 [s1 + 0x20] = a3\n  4484: u64 [a4 + 0x8] = a3\n  4487: a0 = s1 + 0x12c0\n  4491: a1 = u64 [s1 + 0x270]\n  4495: ra = 142, jump @11\n      : @185 [@dyn 71] (gas: 2)\n  4501: a0 = u64 [s1 + 0x278]\n  4505: t0 = 144, jump @1781\n      : @186 [@dyn 72] (gas: 1)\n  4512: jump @188 if a1 == 0\n      : @187 (gas: 1)\n  4515: jump @797\n      : @188 (gas: 15)\n  4518: a5 = s1 + 0x11f8\n  4522: a2 = u64 [a5 + 0xe0]\n  4526: a1 = u64 [a5 + 0xd8]\n  4530: a3 = u64 [a5 + 0xd0]\n  4534: a4 = u64 [a5 + 0xc8]\n  4538: u64 [s1 + 0x110] = a4\n  4542: u64 [a5 + 0xa8] = a4\n  4546: u64 [s1 + 0xf8] = a3\n  4550: u64 [a5 + 0xb0] = a3\n  4554: u64 [s1 + 0x108] = a1\n  4558: u64 [a5 + 0xb8] = a1\n  4562: a1 = s1 + 0x12a0\n  4566: u64 [s1 + 0x100] = a2\n  4570: u64 [a5 + 0xc0] = a2\n  4574: ra = 146, jump @9\n      : @189 [@dyn 73] (gas: 31)\n  4580: a1 = u64 [s1 + 0x278]\n  4584: a0 = u64 [a1]\n  4586: t0 = u64 [a1 + 0x18]\n  4589: a2 = u64 [a1 + 0x8]\n  4592: a3 = u64 [a1 + 0x10]\n  4595: a4 = a0 + 0x20\n  4598: a0 = a4 <u a0\n  4601: a5 = a2 + a0\n  4604: a2 = a5 <u a2\n  4607: a2 = a0 if a0 == 0\n  4610: a2 = a2 + a3\n  4613: a0 = a2 <u a3\n  4616: a0 = a0 + t0\n  4619: u64 [a1] = a4\n  4621: u64 [a1 + 0x8] = a5\n  4624: u64 [a1 + 0x10] = a2\n  4627: u64 [a1 + 0x18] = a0\n  4630: a3 = s1 + 0x200\n  4634: a0 = u64 [a3 + 0x50]\n  4637: a1 = s1 + 0x11f8\n  4641: u64 [a1 + 0xa0] = a0\n  4645: a0 = u64 [a3 + 0x58]\n  4648: u64 [a1 + 0x98] = a0\n  4652: a0 = u64 [a3 + 0x60]\n  4655: u64 [a1 + 0x90] = a0\n  4659: a2 = a1\n  4661: a1 = s1 + 0x1280\n  4665: a0 = u64 [a3 + 0x68]\n  4668: u64 [a2 + 0x88] = a0\n  4672: a0 = 0\n  4674: ra = 148, jump @9\n      : @190 [@dyn 74] (gas: 6)\n  4680: a0 = sp + 0xffffffffffffffe0\n  4683: a0 = a0 & 0xffffffffffffffe0\n  4686: u64 [s1 + 0xc0] = a0\n  4690: sp = a0\n  4692: a1 = i32 [0x201f0]\n  4697: jump @192 if a1 >u 31\n      : @191 (gas: 2)\n  4701: u32 [0x201f0] = 0x20\n  4707: fallthrough\n      : @192 (gas: 41)\n  4708: a1 = 0xff000000000000\n  4718: u64 [s1 + 0xf0] = a1\n  4722: a1 = 0xff0000000000\n  4732: u64 [s1 + 0xe8] = a1\n  4736: a1 = 0xff00000000\n  4746: u64 [s1 + 0xe0] = a1\n  4750: a0 = 0xff000000\n  4760: u64 [s1 + 0xd8] = a0\n  4764: u64 [s1 + 208] = 0xff00\n  4771: a0 = 0xff00000000000000\n  4781: u64 [s1 + 0xc8] = a0\n  4785: a0 = sp + 0xffffffffffffffe0\n  4788: a2 = a0 & 0xffffffffffffffe0\n  4791: u64 [s1 + 0x270] = a2\n  4795: sp = a2\n  4797: a0 = 0x20200\n  4802: i32 a0 = a0 + 0\n  4804: i32 a2 = a2 + 0\n  4806: a1 = 0x20\n  4809: ecalli 8 // 'hash_keccak_256'\n  4811: a2 = 0\n  4813: t1 = 0\n  4815: t0 = 0\n  4817: a1 = 0\n  4819: a3 = u64 [s1 + 0x270]\n  4823: a5 = u64 [a3 + 0x18]\n  4826: a4 = u64 [a3 + 0x10]\n  4829: a0 = u64 [a3 + 0x8]\n  4832: t2 = u64 [a3]\n  4834: a3 = reverse a5\n  4836: a5 = reverse a4\n  4838: a4 = reverse a0\n  4840: a0 = reverse t2\n  4842: t2 = u64 [s1 + 0xc0]\n  4846: u64 [t2 + 0x18] = a0\n  4849: u64 [s1 + 0x120] = a4\n  4853: u64 [t2 + 0x10] = a4\n  4856: a4 = t2\n  4858: u64 [a4 + 0x8] = a5\n  4861: u64 [a4] = a3\n  4863: fallthrough\n      : @193 (gas: 33)\n  4864: u64 [s1 + 0x128] = a0\n  4868: u64 [s1 + 0x130] = a5\n  4872: u64 [s1 + 0x138] = a3\n  4876: u64 [s1 + 0x190] = a2\n  4880: a0 = a2 | 0x1f\n  4883: u64 [s1 + 0x270] = a0\n  4887: a0 = u64 [s1 + 0xf8]\n  4891: a5 = t1 ^ a0\n  4894: a3 = u64 [s1 + 0x108]\n  4898: ra = t0 <u a3\n  4901: a4 = u64 [s1 + 0x100]\n  4905: a2 = a1 ^ a4\n  4908: u64 [s1 + 0x180] = a1\n  4912: a4 = a1 <u a4\n  4915: a4 = ra if a2 == 0\n  4918: u64 [s1 + 0x170] = t0\n  4922: a1 = t0 ^ a3\n  4925: a2 = a2 | a1\n  4928: u64 [s1 + 0x178] = t1\n  4932: a0 = t1 <u a0\n  4935: a1 = u64 [s1 + 0x110]\n  4939: a3 = u64 [s1 + 0x270]\n  4943: a1 = a3 <u a1\n  4946: u64 [s1 + 0xb8] = a5\n  4950: u64 [s1 + 0xa0] = a0\n  4954: a1 = a0 if a5 != 0\n  4957: u64 [s1 + 0xb0] = a4\n  4961: u64 [s1 + 0xa8] = a2\n  4965: a1 = a4 if a2 != 0\n  4968: u64 [s1 + 0x270] = a1\n  4972: a0 = s1 + 0x1260\n  4976: a1 = t2\n  4978: ra = 150, jump @11\n      : @194 [@dyn 75] (gas: 83)\n  4984: a1 = s1 + 0x11f8\n  4988: a0 = u64 [a1 + 0x68]\n  4991: a1 = u64 [a1 + 0x70]\n  4994: a3 = a0 & 0xff\n  4998: u64 [s1 + 0x268] = a3\n  5002: a4 = u64 [s1 + 0xd0]\n  5006: a3 = a0 & a4\n  5009: u64 [s1 + 0x260] = a3\n  5013: a3 = a0 & 0xff0000\n  5019: u64 [s1 + 0x258] = a3\n  5023: t1 = u64 [s1 + 0xd8]\n  5027: a3 = a0 & t1\n  5030: u64 [s1 + 0x250] = a3\n  5034: t0 = u64 [s1 + 0xe0]\n  5038: a3 = a0 & t0\n  5041: u64 [s1 + 0x248] = a3\n  5045: a5 = u64 [s1 + 0xe8]\n  5049: a3 = a0 & a5\n  5052: u64 [s1 + 0x240] = a3\n  5056: ra = u64 [s1 + 0xf0]\n  5060: a3 = a0 & ra\n  5063: u64 [s1 + 0x238] = a3\n  5067: t2 = u64 [s1 + 0xc8]\n  5071: a0 = a0 & t2\n  5074: u64 [s1 + 0x230] = a0\n  5078: a2 = s1 + 0x11f8\n  5082: a0 = u64 [a2 + 0x78]\n  5085: a3 = a1 & 0xff\n  5089: u64 [s1 + 0x228] = a3\n  5093: a3 = a1 & a4\n  5096: u64 [s1 + 0x220] = a3\n  5100: a3 = a1 & 0xff0000\n  5106: u64 [s1 + 0x218] = a3\n  5110: a3 = a1 & t1\n  5113: u64 [s1 + 0x210] = a3\n  5117: a3 = a1 & t0\n  5120: u64 [s1 + 0x208] = a3\n  5124: a3 = a1 & a5\n  5127: u64 [s1 + 0x200] = a3\n  5131: a3 = a1 & ra\n  5134: u64 [s1 + 0x1f8] = a3\n  5138: a1 = a1 & t2\n  5141: u64 [s1 + 0x1f0] = a1\n  5145: a1 = u64 [a2 + 0x80]\n  5149: a2 = a0 & 0xff\n  5153: u64 [s1 + 0x1e8] = a2\n  5157: a2 = a0 & a4\n  5160: u64 [s1 + 0x1e0] = a2\n  5164: a2 = a0 & 0xff0000\n  5170: u64 [s1 + 0x1d8] = a2\n  5174: a2 = a0 & t1\n  5177: u64 [s1 + 0x1d0] = a2\n  5181: a2 = u64 [s1 + 0x118]\n  5185: a2 = a2 & a0\n  5188: u64 [s1 + 0x1c8] = a2\n  5192: a2 = a0 & a5\n  5195: u64 [s1 + 0x1c0] = a2\n  5199: a3 = ra\n  5201: a2 = a0 & ra\n  5204: u64 [s1 + 0x1b8] = a2\n  5208: a2 = a0 & t2\n  5211: u64 [s1 + 0x1b0] = a2\n  5215: a2 = a1 & 0xff\n  5219: u64 [s1 + 0x1a8] = a2\n  5223: ra = a1 & a4\n  5226: t2 = a1 & 0xff0000\n  5232: t1 = a1 & t1\n  5235: t0 = a1 & t0\n  5238: a5 = a5 & a1\n  5241: a3 = a3 & a1\n  5244: a2 = a1 >> 0x38\n  5247: a4 = u64 [s1 + 0x270]\n  5251: u64 [s1 + 0x150] = a0\n  5255: a0 = s1 + 0x100\n  5259: u64 [a0 + 0x48] = a1\n  5262: u64 [a0 + 0x40] = a2\n  5265: u64 [a0 + 0x58] = a3\n  5268: u64 [a0 + 0x60] = a5\n  5271: u64 [s1 + 0x168] = t0\n  5275: u64 [s1 + 0x188] = t1\n  5279: u64 [s1 + 0x198] = t2\n  5283: u64 [s1 + 0x1a0] = ra\n  5287: jump @196 if a4 != 0\n      : @195 (gas: 1)\n  5290: jump @800\n      : @196 (gas: 2)\n  5293: a0 = u64 [s1 + 0x278]\n  5297: t0 = 152, jump @1781\n      : @197 [@dyn 76] (gas: 3)\n  5304: a2 = s1 + 0x7ff\n  5308: a2 = a2 + 0x1f9\n  5312: jump @199 if a1 == 0\n      : @198 (gas: 1)\n  5315: jump @797\n      : @199 (gas: 9)\n  5318: a1 = u64 [s1 + 0x268]\n  5322: a1 = a1 >u 0\n  5324: u64 [a2 + 256] = 0\n  5328: u64 [a2 + 248] = 0\n  5332: u64 [a2 + 0xe8] = a1\n  5336: a1 = s1 + 0x7ff\n  5340: a1 = a1 + 0x2e1\n  5344: u64 [a2 + 240] = 0\n  5348: ra = 154, jump @9\n      : @200 [@dyn 77] (gas: 1)\n  5354: t0 = 156, jump @1756\n      : @201 [@dyn 78] (gas: 2)\n  5361: a0 = a1 + 0x20\n  5364: t0 = 158, jump @1753\n      : @202 [@dyn 79] (gas: 1)\n  5371: jump @204 if a1 == 0\n      : @203 (gas: 1)\n  5374: jump @797\n      : @204 (gas: 2)\n  5377: a1 = u64 [s1 + 0x260]\n  5381: t0 = 160, jump @1778\n      : @205 [@dyn 80] (gas: 7)\n  5388: u64 [a2 + 0xe0] = a3\n  5392: u64 [a2 + 0xd8] = a3\n  5396: u64 [a2 + 0xc8] = a1\n  5400: a1 = s1 + 0x7ff\n  5404: a1 = a1 + 0x2c1\n  5408: u64 [a2 + 0xd0] = a3\n  5412: ra = 162, jump @9\n      : @206 [@dyn 81] (gas: 1)\n  5418: t0 = 164, jump @1756\n      : @207 [@dyn 82] (gas: 2)\n  5425: a0 = a1 + 0x40\n  5428: t0 = 166, jump @1753\n      : @208 [@dyn 83] (gas: 1)\n  5435: jump @210 if a1 == 0\n      : @209 (gas: 1)\n  5438: jump @797\n      : @210 (gas: 2)\n  5441: a1 = u64 [s1 + 0x258]\n  5445: t0 = 168, jump @1778\n      : @211 [@dyn 84] (gas: 7)\n  5452: u64 [a2 + 0xc0] = a3\n  5456: u64 [a2 + 0xb8] = a3\n  5460: u64 [a2 + 0xa8] = a1\n  5464: a1 = s1 + 0x7ff\n  5468: a1 = a1 + 0x2a1\n  5472: u64 [a2 + 0xb0] = a3\n  5476: ra = 170, jump @9\n      : @212 [@dyn 85] (gas: 1)\n  5482: t0 = 172, jump @1756\n      : @213 [@dyn 86] (gas: 2)\n  5489: a0 = a1 + 0x60\n  5492: t0 = 174, jump @1753\n      : @214 [@dyn 87] (gas: 1)\n  5499: jump @216 if a1 == 0\n      : @215 (gas: 1)\n  5502: jump @797\n      : @216 (gas: 2)\n  5505: a1 = u64 [s1 + 0x250]\n  5509: t0 = 176, jump @1778\n      : @217 [@dyn 88] (gas: 7)\n  5516: u64 [a2 + 0xa0] = a3\n  5520: u64 [a2 + 0x98] = a3\n  5524: u64 [a2 + 0x88] = a1\n  5528: a1 = s1 + 0x7ff\n  5532: a1 = a1 + 0x281\n  5536: u64 [a2 + 0x90] = a3\n  5540: ra = 178, jump @9\n      : @218 [@dyn 89] (gas: 1)\n  5546: t0 = 180, jump @1756\n      : @219 [@dyn 90] (gas: 2)\n  5553: a0 = a1 + 0x80\n  5557: t0 = 182, jump @1753\n      : @220 [@dyn 91] (gas: 1)\n  5564: jump @222 if a1 == 0\n      : @221 (gas: 1)\n  5567: jump @797\n      : @222 (gas: 2)\n  5570: a1 = u64 [s1 + 0x248]\n  5574: t0 = 184, jump @1778\n      : @223 [@dyn 92] (gas: 7)\n  5581: u64 [a2 + 0x80] = a3\n  5585: u64 [a2 + 0x78] = a3\n  5588: u64 [a2 + 0x68] = a1\n  5591: a1 = s1 + 0x7ff\n  5595: a1 = a1 + 0x261\n  5599: u64 [a2 + 0x70] = a3\n  5602: ra = 186, jump @9\n      : @224 [@dyn 93] (gas: 1)\n  5608: t0 = 188, jump @1756\n      : @225 [@dyn 94] (gas: 2)\n  5615: a0 = a1 + 0xa0\n  5619: t0 = 190, jump @1753\n      : @226 [@dyn 95] (gas: 1)\n  5626: jump @228 if a1 == 0\n      : @227 (gas: 1)\n  5629: jump @797\n      : @228 (gas: 2)\n  5632: a1 = u64 [s1 + 0x240]\n  5636: t0 = 192, jump @1778\n      : @229 [@dyn 96] (gas: 7)\n  5643: u64 [a2 + 0x60] = a3\n  5646: u64 [a2 + 0x58] = a3\n  5649: u64 [a2 + 0x48] = a1\n  5652: a1 = s1 + 0x7ff\n  5656: a1 = a1 + 0x241\n  5660: u64 [a2 + 0x50] = a3\n  5663: ra = 194, jump @9\n      : @230 [@dyn 97] (gas: 1)\n  5669: t0 = 196, jump @1756\n      : @231 [@dyn 98] (gas: 2)\n  5676: a0 = a1 + 0xc0\n  5680: t0 = 198, jump @1753\n      : @232 [@dyn 99] (gas: 1)\n  5687: jump @234 if a1 == 0\n      : @233 (gas: 1)\n  5690: jump @797\n      : @234 (gas: 2)\n  5693: a1 = u64 [s1 + 0x238]\n  5697: t0 = 200, jump @1778\n      : @235 [@dyn 100] (gas: 7)\n  5704: u64 [a2 + 0x40] = a3\n  5707: u64 [a2 + 0x38] = a3\n  5710: u64 [a2 + 0x28] = a1\n  5713: a1 = s1 + 0x7ff\n  5717: a1 = a1 + 0x221\n  5721: u64 [a2 + 0x30] = a3\n  5724: ra = 202, jump @9\n      : @236 [@dyn 101] (gas: 1)\n  5730: t0 = 204, jump @1756\n      : @237 [@dyn 102] (gas: 2)\n  5737: a0 = a1 + 0xe0\n  5741: t0 = 206, jump @1753\n      : @238 [@dyn 103] (gas: 1)\n  5748: jump @240 if a1 == 0\n      : @239 (gas: 1)\n  5751: jump @797\n      : @240 (gas: 2)\n  5754: a1 = u64 [s1 + 0x230]\n  5758: t0 = 208, jump @1778\n      : @241 [@dyn 104] (gas: 7)\n  5765: u64 [a2 + 0x20] = a3\n  5768: u64 [a2 + 0x18] = a3\n  5771: u64 [a2 + 0x8] = a1\n  5774: a1 = s1 + 0x7ff\n  5778: a1 = a1 + 0x201\n  5782: u64 [a2 + 0x10] = a3\n  5785: ra = 210, jump @9\n      : @242 [@dyn 105] (gas: 1)\n  5791: t0 = 212, jump @1756\n      : @243 [@dyn 106] (gas: 2)\n  5798: a0 = a1 + 0x100\n  5802: t0 = 214, jump @1753\n      : @244 [@dyn 107] (gas: 1)\n  5809: jump @246 if a1 == 0\n      : @245 (gas: 1)\n  5812: jump @797\n      : @246 (gas: 2)\n  5815: a1 = u64 [s1 + 0x228]\n  5819: t0 = 216, jump @1757\n      : @247 [@dyn 108] (gas: 9)\n  5826: u64 [a2 + 0] = 0\n  5828: u64 [a2 + 4294967288] = 0\n  5831: a2 = s1 + 0x1000\n  5835: u64 [a2 + 0xfffffffffffff9e0] = a1\n  5839: a1 = s1 + 0x7ff\n  5843: a1 = a1 + 0x1e1\n  5847: a2 = s1 + 0x1000\n  5851: u64 [a2 + 4294965736] = 0\n  5855: ra = 218, jump @9\n      : @248 [@dyn 109] (gas: 1)\n  5861: t0 = 220, jump @1756\n      : @249 [@dyn 110] (gas: 2)\n  5868: a0 = a1 + 0x120\n  5872: t0 = 222, jump @1753\n      : @250 [@dyn 111] (gas: 1)\n  5879: jump @252 if a1 == 0\n      : @251 (gas: 1)\n  5882: jump @797\n      : @252 (gas: 13)\n  5885: a1 = u64 [s1 + 0x220]\n  5889: a1 = a1 >u 0\n  5891: a2 = s1 + 0x1000\n  5895: u64 [a2 + 4294965720] = 0\n  5899: a2 = s1 + 0x1000\n  5903: u64 [a2 + 4294965712] = 0\n  5907: a2 = s1 + 0x1000\n  5911: u64 [a2 + 0xfffffffffffff9c0] = a1\n  5915: a1 = s1 + 0x7ff\n  5919: a1 = a1 + 0x1c1\n  5923: a2 = s1 + 0x1000\n  5927: u64 [a2 + 4294965704] = 0\n  5931: ra = 224, jump @9\n      : @253 [@dyn 112] (gas: 1)\n  5937: t0 = 226, jump @1756\n      : @254 [@dyn 113] (gas: 2)\n  5944: a0 = a1 + 0x140\n  5948: t0 = 228, jump @1753\n      : @255 [@dyn 114] (gas: 1)\n  5955: jump @257 if a1 == 0\n      : @256 (gas: 1)\n  5958: jump @797\n      : @257 (gas: 13)\n  5961: a1 = u64 [s1 + 0x218]\n  5965: a1 = a1 >u 0\n  5967: a2 = s1 + 0x1000\n  5971: u64 [a2 + 4294965688] = 0\n  5975: a2 = s1 + 0x1000\n  5979: u64 [a2 + 4294965680] = 0\n  5983: a2 = s1 + 0x1000\n  5987: u64 [a2 + 0xfffffffffffff9a0] = a1\n  5991: a1 = s1 + 0x7ff\n  5995: a1 = a1 + 0x1a1\n  5999: a2 = s1 + 0x1000\n  6003: u64 [a2 + 4294965672] = 0\n  6007: ra = 230, jump @9\n      : @258 [@dyn 115] (gas: 1)\n  6013: t0 = 232, jump @1756\n      : @259 [@dyn 116] (gas: 2)\n  6020: a0 = a1 + 0x160\n  6024: t0 = 234, jump @1753\n      : @260 [@dyn 117] (gas: 1)\n  6031: jump @262 if a1 == 0\n      : @261 (gas: 1)\n  6034: jump @797\n      : @262 (gas: 13)\n  6037: a1 = u64 [s1 + 0x210]\n  6041: a1 = a1 >u 0\n  6043: a2 = s1 + 0x1000\n  6047: u64 [a2 + 4294965656] = 0\n  6051: a2 = s1 + 0x1000\n  6055: u64 [a2 + 4294965648] = 0\n  6059: a2 = s1 + 0x1000\n  6063: u64 [a2 + 0xfffffffffffff980] = a1\n  6067: a1 = s1 + 0x7ff\n  6071: a1 = a1 + 0x181\n  6075: a2 = s1 + 0x1000\n  6079: u64 [a2 + 4294965640] = 0\n  6083: ra = 236, jump @9\n      : @263 [@dyn 118] (gas: 1)\n  6089: t0 = 238, jump @1756\n      : @264 [@dyn 119] (gas: 2)\n  6096: a0 = a1 + 0x180\n  6100: t0 = 240, jump @1753\n      : @265 [@dyn 120] (gas: 1)\n  6107: jump @267 if a1 == 0\n      : @266 (gas: 1)\n  6110: jump @797\n      : @267 (gas: 13)\n  6113: a1 = u64 [s1 + 0x208]\n  6117: a1 = a1 >u 0\n  6119: a2 = s1 + 0x1000\n  6123: u64 [a2 + 4294965624] = 0\n  6127: a2 = s1 + 0x1000\n  6131: u64 [a2 + 4294965616] = 0\n  6135: a2 = s1 + 0x1000\n  6139: u64 [a2 + 0xfffffffffffff960] = a1\n  6143: a1 = s1 + 0x7ff\n  6147: a1 = a1 + 0x161\n  6151: a2 = s1 + 0x1000\n  6155: u64 [a2 + 4294965608] = 0\n  6159: ra = 242, jump @9\n      : @268 [@dyn 121] (gas: 1)\n  6165: t0 = 244, jump @1756\n      : @269 [@dyn 122] (gas: 2)\n  6172: a0 = a1 + 0x1a0\n  6176: t0 = 246, jump @1753\n      : @270 [@dyn 123] (gas: 1)\n  6183: jump @272 if a1 == 0\n      : @271 (gas: 1)\n  6186: jump @797\n      : @272 (gas: 13)\n  6189: a1 = u64 [s1 + 0x200]\n  6193: a1 = a1 >u 0\n  6195: a2 = s1 + 0x1000\n  6199: u64 [a2 + 4294965592] = 0\n  6203: a2 = s1 + 0x1000\n  6207: u64 [a2 + 4294965584] = 0\n  6211: a2 = s1 + 0x1000\n  6215: u64 [a2 + 0xfffffffffffff940] = a1\n  6219: a1 = s1 + 0x7ff\n  6223: a1 = a1 + 0x141\n  6227: a2 = s1 + 0x1000\n  6231: u64 [a2 + 4294965576] = 0\n  6235: ra = 248, jump @9\n      : @273 [@dyn 124] (gas: 1)\n  6241: t0 = 250, jump @1756\n      : @274 [@dyn 125] (gas: 2)\n  6248: a0 = a1 + 0x1c0\n  6252: t0 = 252, jump @1753\n      : @275 [@dyn 126] (gas: 1)\n  6259: jump @277 if a1 == 0\n      : @276 (gas: 1)\n  6262: jump @797\n      : @277 (gas: 13)\n  6265: a1 = u64 [s1 + 0x1f8]\n  6269: a1 = a1 >u 0\n  6271: a2 = s1 + 0x1000\n  6275: u64 [a2 + 4294965560] = 0\n  6279: a2 = s1 + 0x1000\n  6283: u64 [a2 + 4294965552] = 0\n  6287: a2 = s1 + 0x1000\n  6291: u64 [a2 + 0xfffffffffffff920] = a1\n  6295: a1 = s1 + 0x7ff\n  6299: a1 = a1 + 0x121\n  6303: a2 = s1 + 0x1000\n  6307: u64 [a2 + 4294965544] = 0\n  6311: ra = 254, jump @9\n      : @278 [@dyn 127] (gas: 1)\n  6317: t0 = 256, jump @1756\n      : @279 [@dyn 128] (gas: 2)\n  6324: a0 = a1 + 0x1e0\n  6328: t0 = 258, jump @1753\n      : @280 [@dyn 129] (gas: 1)\n  6335: jump @282 if a1 == 0\n      : @281 (gas: 1)\n  6338: jump @797\n      : @282 (gas: 13)\n  6341: a1 = u64 [s1 + 0x1f0]\n  6345: a1 = a1 >u 0\n  6347: a2 = s1 + 0x1000\n  6351: u64 [a2 + 4294965528] = 0\n  6355: a2 = s1 + 0x1000\n  6359: u64 [a2 + 4294965520] = 0\n  6363: a2 = s1 + 0x1000\n  6367: u64 [a2 + 0xfffffffffffff900] = a1\n  6371: a1 = s1 + 0x7ff\n  6375: a1 = a1 + 0x101\n  6379: a2 = s1 + 0x1000\n  6383: u64 [a2 + 4294965512] = 0\n  6387: ra = 260, jump @9\n      : @283 [@dyn 130] (gas: 1)\n  6393: t0 = 262, jump @1756\n      : @284 [@dyn 131] (gas: 2)\n  6400: a0 = a1 + 0x200\n  6404: t0 = 264, jump @1753\n      : @285 [@dyn 132] (gas: 1)\n  6411: jump @287 if a1 == 0\n      : @286 (gas: 1)\n  6414: jump @797\n      : @287 (gas: 13)\n  6417: a1 = u64 [s1 + 0x1e8]\n  6421: a1 = a1 >u 0\n  6423: a2 = s1 + 0x1000\n  6427: u64 [a2 + 4294965496] = 0\n  6431: a2 = s1 + 0x1000\n  6435: u64 [a2 + 4294965488] = 0\n  6439: a2 = s1 + 0x1000\n  6443: u64 [a2 + 0xfffffffffffff8e0] = a1\n  6447: a1 = s1 + 0x7ff\n  6451: a1 = a1 + 0xe1\n  6455: a2 = s1 + 0x1000\n  6459: u64 [a2 + 4294965480] = 0\n  6463: ra = 266, jump @9\n      : @288 [@dyn 133] (gas: 1)\n  6469: t0 = 268, jump @1756\n      : @289 [@dyn 134] (gas: 2)\n  6476: a0 = a1 + 0x220\n  6480: t0 = 270, jump @1753\n      : @290 [@dyn 135] (gas: 1)\n  6487: jump @292 if a1 == 0\n      : @291 (gas: 1)\n  6490: jump @797\n      : @292 (gas: 13)\n  6493: a1 = u64 [s1 + 0x1e0]\n  6497: a1 = a1 >u 0\n  6499: a2 = s1 + 0x1000\n  6503: u64 [a2 + 4294965464] = 0\n  6507: a2 = s1 + 0x1000\n  6511: u64 [a2 + 4294965456] = 0\n  6515: a2 = s1 + 0x1000\n  6519: u64 [a2 + 0xfffffffffffff8c0] = a1\n  6523: a1 = s1 + 0x7ff\n  6527: a1 = a1 + 0xc1\n  6531: a2 = s1 + 0x1000\n  6535: u64 [a2 + 4294965448] = 0\n  6539: ra = 272, jump @9\n      : @293 [@dyn 136] (gas: 1)\n  6545: t0 = 274, jump @1756\n      : @294 [@dyn 137] (gas: 2)\n  6552: a0 = a1 + 0x240\n  6556: t0 = 276, jump @1753\n      : @295 [@dyn 138] (gas: 1)\n  6563: jump @297 if a1 == 0\n      : @296 (gas: 1)\n  6566: jump @797\n      : @297 (gas: 13)\n  6569: a1 = u64 [s1 + 0x1d8]\n  6573: a1 = a1 >u 0\n  6575: a2 = s1 + 0x1000\n  6579: u64 [a2 + 4294965432] = 0\n  6583: a2 = s1 + 0x1000\n  6587: u64 [a2 + 4294965424] = 0\n  6591: a2 = s1 + 0x1000\n  6595: u64 [a2 + 0xfffffffffffff8a0] = a1\n  6599: a1 = s1 + 0x7ff\n  6603: a1 = a1 + 0xa1\n  6607: a2 = s1 + 0x1000\n  6611: u64 [a2 + 4294965416] = 0\n  6615: ra = 278, jump @9\n      : @298 [@dyn 139] (gas: 1)\n  6621: t0 = 280, jump @1756\n      : @299 [@dyn 140] (gas: 2)\n  6628: a0 = a1 + 0x260\n  6632: t0 = 282, jump @1753\n      : @300 [@dyn 141] (gas: 1)\n  6639: jump @302 if a1 == 0\n      : @301 (gas: 1)\n  6642: jump @797\n      : @302 (gas: 13)\n  6645: a1 = u64 [s1 + 0x1d0]\n  6649: a1 = a1 >u 0\n  6651: a2 = s1 + 0x1000\n  6655: u64 [a2 + 4294965400] = 0\n  6659: a2 = s1 + 0x1000\n  6663: u64 [a2 + 4294965392] = 0\n  6667: a2 = s1 + 0x1000\n  6671: u64 [a2 + 0xfffffffffffff880] = a1\n  6675: a1 = s1 + 0x7ff\n  6679: a1 = a1 + 0x81\n  6683: a2 = s1 + 0x1000\n  6687: u64 [a2 + 4294965384] = 0\n  6691: ra = 284, jump @9\n      : @303 [@dyn 142] (gas: 1)\n  6697: t0 = 286, jump @1756\n      : @304 [@dyn 143] (gas: 2)\n  6704: a0 = a1 + 0x280\n  6708: t0 = 288, jump @1753\n      : @305 [@dyn 144] (gas: 1)\n  6715: jump @307 if a1 == 0\n      : @306 (gas: 1)\n  6718: jump @797\n      : @307 (gas: 13)\n  6721: a1 = u64 [s1 + 0x1c8]\n  6725: a1 = a1 >u 0\n  6727: a2 = s1 + 0x1000\n  6731: u64 [a2 + 4294965368] = 0\n  6735: a2 = s1 + 0x1000\n  6739: u64 [a2 + 4294965360] = 0\n  6743: a2 = s1 + 0x1000\n  6747: u64 [a2 + 0xfffffffffffff860] = a1\n  6751: a1 = s1 + 0x7ff\n  6755: a1 = a1 + 0x61\n  6758: a2 = s1 + 0x1000\n  6762: u64 [a2 + 4294965352] = 0\n  6766: ra = 290, jump @9\n      : @308 [@dyn 145] (gas: 1)\n  6772: t0 = 292, jump @1756\n      : @309 [@dyn 146] (gas: 2)\n  6779: a0 = a1 + 0x2a0\n  6783: t0 = 294, jump @1753\n      : @310 [@dyn 147] (gas: 1)\n  6790: jump @312 if a1 == 0\n      : @311 (gas: 1)\n  6793: jump @797\n      : @312 (gas: 13)\n  6796: a1 = u64 [s1 + 0x1c0]\n  6800: a1 = a1 >u 0\n  6802: a2 = s1 + 0x1000\n  6806: u64 [a2 + 4294965336] = 0\n  6810: a2 = s1 + 0x1000\n  6814: u64 [a2 + 4294965328] = 0\n  6818: a2 = s1 + 0x1000\n  6822: u64 [a2 + 0xfffffffffffff840] = a1\n  6826: a1 = s1 + 0x7ff\n  6830: a1 = a1 + 0x41\n  6833: a2 = s1 + 0x1000\n  6837: u64 [a2 + 4294965320] = 0\n  6841: ra = 296, jump @9\n      : @313 [@dyn 148] (gas: 1)\n  6847: t0 = 298, jump @1756\n      : @314 [@dyn 149] (gas: 2)\n  6854: a0 = a1 + 0x2c0\n  6858: t0 = 300, jump @1753\n      : @315 [@dyn 150] (gas: 1)\n  6865: jump @317 if a1 == 0\n      : @316 (gas: 1)\n  6868: jump @797\n      : @317 (gas: 13)\n  6871: a1 = u64 [s1 + 0x1b8]\n  6875: a1 = a1 >u 0\n  6877: a2 = s1 + 0x1000\n  6881: u64 [a2 + 4294965304] = 0\n  6885: a2 = s1 + 0x1000\n  6889: u64 [a2 + 4294965296] = 0\n  6893: a2 = s1 + 0x1000\n  6897: u64 [a2 + 0xfffffffffffff820] = a1\n  6901: a1 = s1 + 0x7ff\n  6905: a1 = a1 + 0x21\n  6908: a2 = s1 + 0x1000\n  6912: u64 [a2 + 4294965288] = 0\n  6916: ra = 302, jump @9\n      : @318 [@dyn 151] (gas: 1)\n  6922: t0 = 304, jump @1756\n      : @319 [@dyn 152] (gas: 2)\n  6929: a0 = a1 + 0x2e0\n  6933: t0 = 306, jump @1753\n      : @320 [@dyn 153] (gas: 1)\n  6940: jump @322 if a1 == 0\n      : @321 (gas: 1)\n  6943: jump @797\n      : @322 (gas: 13)\n  6946: a1 = u64 [s1 + 0x1b0]\n  6950: a1 = a1 >u 0\n  6952: a2 = s1 + 0x1000\n  6956: u64 [a2 + 4294965272] = 0\n  6960: a2 = s1 + 0x1000\n  6964: u64 [a2 + 4294965264] = 0\n  6968: a2 = s1 + 0x1000\n  6972: u64 [a2 + 0xfffffffffffff800] = a1\n  6976: a1 = s1 + 0x7ff\n  6980: a1 = a1 + 0x1\n  6983: a2 = s1 + 0x1000\n  6987: u64 [a2 + 4294965256] = 0\n  6991: ra = 308, jump @9\n      : @323 [@dyn 154] (gas: 1)\n  6997: t0 = 310, jump @1756\n      : @324 [@dyn 155] (gas: 2)\n  7004: a0 = a1 + 0x300\n  7008: t0 = 312, jump @1753\n      : @325 [@dyn 156] (gas: 1)\n  7015: jump @327 if a1 == 0\n      : @326 (gas: 1)\n  7018: jump @797\n      : @327 (gas: 8)\n  7021: a1 = u64 [s1 + 0x1a8]\n  7025: a1 = a1 >u 0\n  7027: u64 [s1 + 2040] = 0\n  7031: u64 [s1 + 2032] = 0\n  7035: u64 [s1 + 0x7e0] = a1\n  7039: a1 = s1 + 0x7e0\n  7043: u64 [s1 + 2024] = 0\n  7047: ra = 314, jump @9\n      : @328 [@dyn 157] (gas: 1)\n  7053: t0 = 316, jump @1756\n      : @329 [@dyn 158] (gas: 2)\n  7060: a0 = a1 + 0x320\n  7064: t0 = 318, jump @1753\n      : @330 [@dyn 159] (gas: 1)\n  7071: jump @332 if a1 == 0\n      : @331 (gas: 1)\n  7074: jump @797\n      : @332 (gas: 8)\n  7077: a1 = u64 [s1 + 0x1a0]\n  7081: a1 = a1 >u 0\n  7083: u64 [s1 + 2008] = 0\n  7087: u64 [s1 + 2000] = 0\n  7091: u64 [s1 + 0x7c0] = a1\n  7095: a1 = s1 + 0x7c0\n  7099: u64 [s1 + 1992] = 0\n  7103: ra = 320, jump @9\n      : @333 [@dyn 160] (gas: 1)\n  7109: t0 = 322, jump @1756\n      : @334 [@dyn 161] (gas: 2)\n  7116: a0 = a1 + 0x340\n  7120: t0 = 324, jump @1753\n      : @335 [@dyn 162] (gas: 1)\n  7127: jump @337 if a1 == 0\n      : @336 (gas: 1)\n  7130: jump @797\n      : @337 (gas: 8)\n  7133: a1 = u64 [s1 + 0x198]\n  7137: a1 = a1 >u 0\n  7139: u64 [s1 + 1976] = 0\n  7143: u64 [s1 + 1968] = 0\n  7147: u64 [s1 + 0x7a0] = a1\n  7151: a1 = s1 + 0x7a0\n  7155: u64 [s1 + 1960] = 0\n  7159: ra = 326, jump @9\n      : @338 [@dyn 163] (gas: 1)\n  7165: t0 = 328, jump @1756\n      : @339 [@dyn 164] (gas: 2)\n  7172: a0 = a1 + 0x360\n  7176: t0 = 330, jump @1753\n      : @340 [@dyn 165] (gas: 1)\n  7183: jump @342 if a1 == 0\n      : @341 (gas: 1)\n  7186: jump @797\n      : @342 (gas: 8)\n  7189: a1 = u64 [s1 + 0x188]\n  7193: a1 = a1 >u 0\n  7195: u64 [s1 + 1944] = 0\n  7199: u64 [s1 + 1936] = 0\n  7203: u64 [s1 + 0x780] = a1\n  7207: a1 = s1 + 0x780\n  7211: u64 [s1 + 1928] = 0\n  7215: ra = 332, jump @9\n      : @343 [@dyn 166] (gas: 1)\n  7221: t0 = 334, jump @1756\n      : @344 [@dyn 167] (gas: 2)\n  7228: a0 = a1 + 0x380\n  7232: t0 = 336, jump @1753\n      : @345 [@dyn 168] (gas: 1)\n  7239: jump @347 if a1 == 0\n      : @346 (gas: 1)\n  7242: jump @797\n      : @347 (gas: 8)\n  7245: a1 = u64 [s1 + 0x168]\n  7249: a1 = a1 >u 0\n  7251: u64 [s1 + 1912] = 0\n  7255: u64 [s1 + 1904] = 0\n  7259: u64 [s1 + 0x760] = a1\n  7263: a1 = s1 + 0x760\n  7267: u64 [s1 + 1896] = 0\n  7271: ra = 338, jump @9\n      : @348 [@dyn 169] (gas: 1)\n  7277: t0 = 340, jump @1756\n      : @349 [@dyn 170] (gas: 2)\n  7284: a0 = a1 + 0x3a0\n  7288: t0 = 342, jump @1753\n      : @350 [@dyn 171] (gas: 1)\n  7295: jump @352 if a1 == 0\n      : @351 (gas: 1)\n  7298: jump @797\n      : @352 (gas: 8)\n  7301: a1 = u64 [s1 + 0x160]\n  7305: a1 = a1 >u 0\n  7307: u64 [s1 + 1880] = 0\n  7311: u64 [s1 + 1872] = 0\n  7315: u64 [s1 + 0x740] = a1\n  7319: a1 = s1 + 0x740\n  7323: u64 [s1 + 1864] = 0\n  7327: ra = 344, jump @9\n      : @353 [@dyn 172] (gas: 1)\n  7333: t0 = 346, jump @1756\n      : @354 [@dyn 173] (gas: 2)\n  7340: a0 = a1 + 0x3c0\n  7344: t0 = 348, jump @1753\n      : @355 [@dyn 174] (gas: 1)\n  7351: jump @357 if a1 == 0\n      : @356 (gas: 1)\n  7354: jump @797\n      : @357 (gas: 8)\n  7357: a1 = u64 [s1 + 0x158]\n  7361: a1 = a1 >u 0\n  7363: u64 [s1 + 1848] = 0\n  7367: u64 [s1 + 1840] = 0\n  7371: u64 [s1 + 0x720] = a1\n  7375: a1 = s1 + 0x720\n  7379: u64 [s1 + 1832] = 0\n  7383: ra = 350, jump @9\n      : @358 [@dyn 175] (gas: 1)\n  7389: t0 = 352, jump @1756\n      : @359 [@dyn 176] (gas: 2)\n  7396: a0 = a1 + 0x3e0\n  7400: t0 = 354, jump @1753\n      : @360 [@dyn 177] (gas: 1)\n  7407: jump @362 if a1 == 0\n      : @361 (gas: 1)\n  7410: jump @797\n      : @362 (gas: 14)\n  7413: a1 = 0xffffffffffffff\n  7423: a2 = u64 [s1 + 0x148]\n  7427: a1 = a1 ^ a2\n  7430: a2 = u64 [s1 + 0x150]\n  7434: a1 = a1 | ~a2\n  7437: a2 = u64 [s1 + 0x140]\n  7441: a2 = a2 >u 0\n  7443: a2 = 0 if a1 == 0\n  7445: u64 [s1 + 1816] = 0\n  7449: u64 [s1 + 1808] = 0\n  7453: u64 [s1 + 0x700] = a2\n  7457: a1 = s1 + 0x700\n  7461: u64 [s1 + 1800] = 0\n  7465: ra = 356, jump @9\n      : @363 [@dyn 178] (gas: 51)\n  7471: a1 = u64 [s1 + 0x278]\n  7475: a0 = u64 [a1]\n  7477: t0 = u64 [a1 + 0x18]\n  7480: a2 = u64 [a1 + 0x8]\n  7483: a3 = u64 [a1 + 0x10]\n  7486: a4 = a0 + 0x400\n  7490: a0 = a4 <u a0\n  7493: a5 = a2 + a0\n  7496: a2 = a5 <u a2\n  7499: a2 = a0 if a0 == 0\n  7502: a2 = a2 + a3\n  7505: a0 = a2 <u a3\n  7508: a0 = a0 + t0\n  7511: u64 [a1] = a4\n  7513: u64 [a1 + 0x8] = a5\n  7516: u64 [a1 + 0x10] = a2\n  7519: u64 [a1 + 0x18] = a0\n  7522: a3 = u64 [s1 + 0x138]\n  7526: a3 = a3 + 0x1\n  7529: a0 = a3 <u 0x1\n  7532: a5 = u64 [s1 + 0x130]\n  7536: a5 = a5 + a0\n  7539: a0 = a3 | a5\n  7542: a0 = a0 <u 0x1\n  7545: a1 = u64 [s1 + 0x120]\n  7549: ra = a1 + a0\n  7552: a1 = ra <u a1\n  7555: a0 = u64 [s1 + 0x128]\n  7559: a0 = a0 + a1\n  7562: a1 = u64 [s1 + 0x190]\n  7566: t0 = a1 + 0x20\n  7569: a2 = t0 <u a1\n  7572: a1 = u64 [s1 + 0x178]\n  7576: t1 = a1 + a2\n  7579: a4 = t1 <u a1\n  7582: a4 = a2 if a2 == 0\n  7585: a1 = u64 [s1 + 0x170]\n  7589: a4 = a4 + a1\n  7592: a2 = a4 <u a1\n  7595: a1 = u64 [s1 + 0x180]\n  7599: a1 = a1 + a2\n  7602: t2 = u64 [s1 + 0xc0]\n  7606: a2 = t2\n  7608: u64 [a2 + 0x18] = a0\n  7611: u64 [t2 + 0x10] = ra\n  7614: u64 [a2 + 0x8] = a5\n  7617: u64 [a2] = a3\n  7619: u64 [s1 + 0x120] = ra\n  7623: a2 = t0\n  7625: t0 = a4\n  7627: jump @193\n      : @364 (gas: 10)\n  7630: a0 = s1 + 0x31f8\n  7634: u64 [a0 + 96] = 0\n  7637: u64 [a0 + 88] = 0\n  7640: u64 [a0 + 80] = 0\n  7643: u64 [a0 + 72] = 0\n  7646: a0 = s1 + 0x3000\n  7650: i32 a0 = a0 + 0x240\n  7654: ecalli 16 // 'value_transferred'\n  7656: a3 = s1 + 0x31f8\n  7660: fallthrough\n      : @365 (gas: 8)\n  7661: a0 = u64 [a3 + 0x58]\n  7664: a1 = u64 [a3 + 0x60]\n  7667: a2 = u64 [a3 + 0x50]\n  7670: a3 = u64 [a3 + 0x48]\n  7673: a1 = a1 | a2\n  7676: a0 = a0 | a3\n  7679: a0 = a0 | a1\n  7682: jump @367 if a0 == 0\n      : @366 (gas: 1)\n  7685: jump @1107\n      : @367 (gas: 4)\n  7688: a0 = u64 [s1 + 0x278]\n  7692: a0 = i32 [a0]\n  7694: a1 = 0x43\n  7697: jump @369 if a1 <u a0\n      : @368 (gas: 1)\n  7700: jump @1108\n      : @369 (gas: 4)\n  7703: a0 = s1 + 0x22c0\n  7707: ra = 0x166\n  7711: t0 = 0x50c\n  7715: jump @1793\n      : @370 [@dyn 179] (gas: 15)\n  7719: a1 = s1 + 0x21f8\n  7723: a0 = u64 [a1 + 0xd8]\n  7727: a2 = s1 + 0x200\n  7731: u64 [a2 + 0x68] = a0\n  7734: a0 = u64 [a1 + 0xd0]\n  7738: u64 [a2 + 0x70] = a0\n  7741: a0 = u64 [a1 + 0xc8]\n  7745: u64 [a2 + 0x78] = a0\n  7748: a0 = s1 + 0x3000\n  7752: i32 a0 = a0 + 0x260\n  7756: a1 = 0x4\n  7759: ecalli 2 // 'call_data_load'\n  7761: t0 = 0x168\n  7765: a3 = s1 + 0x31f8\n  7769: fallthrough\n      : @371 [@dyn 180] (gas: 12)\n  7770: a0 = u64 [a3 + 0x68]\n  7773: a1 = u64 [a3 + 0x70]\n  7776: a2 = u64 [a3 + 0x78]\n  7779: a3 = u64 [a3 + 0x80]\n  7783: a4 = s1 + 0x21f8\n  7787: u64 [a4 + 0xc0] = a3\n  7791: u64 [a4 + 0xb8] = a2\n  7795: u64 [a4 + 0xb0] = a1\n  7799: a1 = s1 + 0x22a0\n  7803: u64 [a4 + 0xa8] = a0\n  7807: a0 = 0\n  7809: ra = 362, jump @9\n      : @372 [@dyn 181] (gas: 9)\n  7815: a0 = s1 + 0x21f8\n  7819: u64 [a0 + 160] = 0\n  7823: u64 [a0 + 152] = 0\n  7827: u64 [a0 + 144] = 0\n  7831: a2 = a0\n  7833: a0 = 0x20\n  7836: a1 = s1 + 0x2280\n  7840: u64 [a2 + 136] = 0\n  7844: ra = 364, jump @9\n      : @373 [@dyn 182] (gas: 3)\n  7850: a1 = 0x201f0\n  7855: a0 = i32 [0x201f0]\n  7860: jump @375 if a0 >u 63\n      : @374 (gas: 2)\n  7864: u32 [0x201f0] = 0x40\n  7870: fallthrough\n      : @375 (gas: 41)\n  7871: a0 = sp + 0xffffffffffffffe0\n  7874: a2 = a0 & 0xffffffffffffffe0\n  7877: u64 [s1 + 0x250] = a2\n  7881: sp = a2\n  7883: a0 = 0x20200\n  7888: i32 a0 = a0 + 0\n  7890: i32 a2 = a2 + 0\n  7892: u64 [s1 + 0x260] = a1\n  7896: a1 = 0x40\n  7899: u64 [s1 + 0x258] = a0\n  7903: ecalli 8 // 'hash_keccak_256'\n  7905: a3 = u64 [s1 + 0x250]\n  7909: a0 = u64 [a3 + 0x18]\n  7912: a1 = u64 [a3 + 0x10]\n  7915: a2 = u64 [a3 + 0x8]\n  7918: a3 = u64 [a3]\n  7920: a0 = reverse a0\n  7922: u64 [s1 + 0x248] = a0\n  7926: a0 = reverse a1\n  7928: u64 [s1 + 0x240] = a0\n  7932: a0 = reverse a2\n  7934: u64 [s1 + 0x238] = a0\n  7938: a0 = reverse a3\n  7940: u64 [s1 + 0x230] = a0\n  7944: a0 = sp + 0xffffffffffffffe0\n  7947: a0 = a0 & 0xffffffffffffffe0\n  7950: u64 [s1 + 0x250] = a0\n  7954: sp = a0\n  7956: a0 = u64 [s1 + 0x268]\n  7960: a0 = a0 << 0x20\n  7963: a0 = a0 >> 0x20\n  7966: a2 = s1 + 0x21f8\n  7970: u64 [a2 + 128] = 0\n  7974: u64 [a2 + 0x78] = a0\n  7977: a0 = u64 [s1 + 0x270]\n  7981: u64 [a2 + 0x70] = a0\n  7984: a1 = s1 + 0x2260\n  7988: a0 = u64 [s1 + 0x278]\n  7992: u64 [a2 + 0x68] = a0\n  7995: a0 = 0\n  7997: ra = 366, jump @9\n      : @376 [@dyn 183] (gas: 13)\n  8003: a0 = u64 [s1 + 0x230]\n  8007: a1 = s1 + 0x21f8\n  8011: u64 [a1 + 0x60] = a0\n  8014: a0 = u64 [s1 + 0x238]\n  8018: u64 [a1 + 0x58] = a0\n  8021: a0 = u64 [s1 + 0x240]\n  8025: u64 [a1 + 0x50] = a0\n  8028: a3 = a1\n  8030: a0 = 0x20\n  8033: a1 = s1 + 0x2240\n  8037: a2 = u64 [s1 + 0x248]\n  8041: u64 [a3 + 0x48] = a2\n  8044: ra = 368, jump @9\n      : @377 [@dyn 184] (gas: 3)\n  8050: a1 = u64 [s1 + 0x260]\n  8054: a0 = i32 [a1]\n  8056: jump @379 if a0 >u 63\n      : @378 (gas: 2)\n  8060: u32 [a1 + 0] = 0x40\n  8063: fallthrough\n      : @379 (gas: 12)\n  8064: a0 = sp + 0xffffffffffffffe0\n  8067: a0 = a0 & 0xffffffffffffffe0\n  8070: u64 [s1 + 0x278] = a0\n  8074: sp = a0\n  8076: i32 a2 = a0 + 0\n  8078: a1 = 0x40\n  8081: a0 = u64 [s1 + 0x258]\n  8085: ra = 0x172\n  8089: ecalli 8 // 'hash_keccak_256'\n  8091: a3 = u64 [s1 + 0x278]\n  8095: t0 = 0x174\n  8099: jump @1811\n      : @380 [@dyn 185] (gas: 2)\n  8103: a3 = u64 [s1 + 0x278]\n  8107: t0 = 372, jump @1811\n      : @381 [@dyn 186] (gas: 7)\n  8114: a1 = u64 [s1 + 0x250]\n  8118: u64 [a1 + 0x18] = a3\n  8121: u64 [a1 + 0x10] = a2\n  8124: u64 [a1 + 0x8] = a4\n  8127: u64 [a1] = a0\n  8129: a0 = s1 + 0x2220\n  8133: ra = 374, jump @11\n      : @382 [@dyn 187] (gas: 6)\n  8139: a0 = s1 + 0x21f8\n  8143: a0 = u64 [a0 + 0x28]\n  8146: u64 [s1 + 0x278] = a0\n  8150: a0 = s1 + 0x2200\n  8154: a1 = 0x40\n  8157: ra = 376, jump @7\n      : @383 [@dyn 188] (gas: 6)\n  8163: a3 = s1 + 0x21f8\n  8167: a4 = u64 [a3 + 0x20]\n  8170: a1 = u64 [a3 + 0x18]\n  8173: a2 = u64 [a3 + 0x10]\n  8176: a0 = u64 [a3 + 0x8]\n  8179: t0 = 378, jump @1784\n      : @384 [@dyn 189] (gas: 1)\n  8186: jump @386 if a1 == 0\n      : @385 (gas: 1)\n  8189: jump @797\n      : @386 (gas: 10)\n  8192: a1 = u8 [s1 + 0x278]\n  8196: a1 = a1 >u 0\n  8198: u64 [a3 + 0] = 0\n  8200: u64 [a3 + 4294967288] = 0\n  8203: u64 [a3 + 0xffffffffffffffe8] = a1\n  8206: a1 = s1 + 0x21e0\n  8210: u64 [a3 + 4294967280] = 0\n  8213: u64 [s1 + 0x278] = a0\n  8217: ra = 0x22a\n  8221: jump @9\n      : @387 (gas: 10)\n  8224: u64 [a3 + 224] = 0\n  8228: u64 [a3 + 216] = 0\n  8232: u64 [a3 + 208] = 0\n  8236: u64 [a3 + 200] = 0\n  8240: a0 = s1 + 0x3000\n  8244: i32 a0 = a0 + 0x2c0\n  8248: ra = 0x17c\n  8252: ecalli 16 // 'value_transferred'\n  8254: a3 = s1 + 0x31f8\n  8258: jump @389\n      : @388 [@dyn 190] (gas: 2)\n  8260: a3 = s1 + 0x31f8\n  8264: fallthrough\n      : @389 (gas: 8)\n  8265: a0 = u64 [a3 + 0xd8]\n  8269: a1 = u64 [a3 + 0xe0]\n  8273: a2 = u64 [a3 + 0xd0]\n  8277: a3 = u64 [a3 + 0xc8]\n  8281: a1 = a1 | a2\n  8284: a0 = a0 | a3\n  8287: a0 = a0 | a1\n  8290: jump @391 if a0 == 0\n      : @390 (gas: 1)\n  8293: jump @1109\n      : @391 (gas: 1)\n  8296: t0 = 382, jump @1808\n      : @392 [@dyn 191] (gas: 1)\n  8303: jump @394 if a1 <u a0\n      : @393 (gas: 1)\n  8306: jump @1110\n      : @394 (gas: 22)\n  8309: a0 = s1 + 0x3000\n  8313: i32 a0 = a0 + 0x2e0\n  8317: a1 = 0x4\n  8320: ecalli 2 // 'call_data_load'\n  8322: a0 = s1 + 0x31f8\n  8326: a2 = u64 [a0 + 0xe8]\n  8330: u64 [s1 + 0x268] = a2\n  8334: a1 = u64 [a0 + 0xf0]\n  8338: u64 [s1 + 0x260] = a1\n  8342: a3 = u64 [a0 + 0xf8]\n  8346: u64 [s1 + 0x258] = a3\n  8350: a4 = u64 [a0 + 0x100]\n  8354: u64 [s1 + 0x250] = a4\n  8358: a5 = s1 + 0x21f8\n  8362: u64 [a5 + 0x5c0] = a4\n  8366: a4 = a5 + 0x500\n  8370: u64 [a4 + 0xb8] = a3\n  8374: u64 [a4 + 0xb0] = a1\n  8378: a0 = s1 + 0x27c0\n  8382: a1 = s1 + 0x27a0\n  8386: u64 [a4 + 0xa8] = a2\n  8390: ra = 384, jump @1373\n      : @395 [@dyn 192] (gas: 7)\n  8396: a3 = s1 + 0x21f8\n  8400: a4 = a3 + 0x500\n  8404: a0 = u64 [a4 + 0xc8]\n  8408: a1 = u64 [a4 + 0xe0]\n  8412: a2 = u64 [a4 + 0xd0]\n  8416: a3 = u64 [a4 + 0xd8]\n  8420: t0 = 386, jump @1809\n      : @396 [@dyn 193] (gas: 10)\n  8427: i32 a3 = a3 + 0x1f8\n  8431: a3 = a3 + s1\n  8434: a5 = a3 + 0x100\n  8438: u64 [a5 + 0x8] = a0\n  8441: u64 [a5 + 0x10] = a2\n  8444: u64 [a5 + 0x18] = a4\n  8447: u64 [a5 + 0x20] = a1\n  8450: a0 = s1 + 0x2780\n  8454: a1 = s1 + 0x3300\n  8458: ra = 388, jump @11\n      : @397 [@dyn 194] (gas: 15)\n  8464: a0 = s1 + 0x21f8\n  8468: a1 = u64 [a0 + 0x590]\n  8472: u64 [s1 + 0x270] = a1\n  8476: a1 = u64 [a0 + 0x588]\n  8480: u64 [s1 + 0x248] = a1\n  8484: a0 = u32 [a0 + 0x598]\n  8488: u64 [s1 + 0x240] = a0\n  8492: a0 = 0x30200\n  8497: u64 [s1 + 0x278] = a0\n  8501: i32 a0 = a0 + 0\n  8503: ra = 0x186\n  8507: ecalli 4 // 'caller'\n  8509: a2 = u64 [s1 + 0x278]\n  8513: t0 = 0x188\n  8517: jump @1768\n      : @398 [@dyn 195] (gas: 2)\n  8521: a2 = u64 [s1 + 0x278]\n  8525: t0 = 392, jump @1768\n      : @399 [@dyn 196] (gas: 18)\n  8532: a2 = u64 [s1 + 0x240]\n  8536: a1 = a1 ^ a2\n  8539: a2 = u64 [s1 + 0x248]\n  8543: a0 = a0 ^ a2\n  8546: a0 = a0 | a1\n  8549: a1 = u64 [s1 + 0x270]\n  8553: a1 = a1 ^ a3\n  8556: a0 = a0 | a1\n  8559: a0 = a0 <u 0x1\n  8562: a1 = s1 + 0x21f8\n  8566: u64 [a1 + 1408] = 0\n  8570: u64 [a1 + 1400] = 0\n  8574: u64 [a1 + 0x568] = a0\n  8578: a0 = s1 + 0x2760\n  8582: u64 [a1 + 1392] = 0\n  8586: ra = 0x18a\n  8590: t0 = 0x52a\n  8594: jump @1806\n      : @400 [@dyn 197] (gas: 17)\n  8598: a0 = sp + 0xffffffffffffffe0\n  8601: a0 = a0 & 0xffffffffffffffe0\n  8604: u64 [s1 + 0x270] = a0\n  8608: sp = a0\n  8610: a0 = u64 [s1 + 0x250]\n  8614: a3 = s1 + 0x21f8\n  8618: a4 = a3 + 0x500\n  8622: u64 [a4 + 0x20] = a0\n  8625: a0 = u64 [s1 + 0x258]\n  8629: u64 [a4 + 0x18] = a0\n  8632: a0 = u64 [s1 + 0x260]\n  8636: u64 [a4 + 0x10] = a0\n  8639: a0 = s1 + 0x2720\n  8643: a1 = s1 + 0x2700\n  8647: a2 = u64 [s1 + 0x268]\n  8651: u64 [a4 + 0x8] = a2\n  8654: ra = 396, jump @1373\n      : @401 [@dyn 198] (gas: 34)\n  8660: a0 = s1 + 0x21f8\n  8664: a3 = a0 + 0x500\n  8668: a5 = u64 [a3 + 0x38]\n  8671: u64 [s1 + 0x268] = a5\n  8675: a1 = u64 [a3 + 0x40]\n  8678: a2 = u64 [a3 + 0x28]\n  8681: u64 [s1 + 0x250] = a2\n  8685: a4 = u64 [a3 + 0x30]\n  8688: u64 [s1 + 0x258] = a4\n  8692: a0 = u64 [s1 + 0x270]\n  8696: u64 [a0 + 0x10] = a5\n  8699: u64 [a0 + 0x18] = a1\n  8702: t0 = a1\n  8704: u64 [s1 + 0x260] = a1\n  8708: u64 [a0] = a2\n  8710: u64 [a0 + 0x8] = a4\n  8713: a0 = sp + 0xffffffffffffffe0\n  8716: a1 = a0 & 0xffffffffffffffe0\n  8719: sp = a1\n  8721: a0 = a2 + 0x1\n  8724: a2 = a0 <u 0x1\n  8727: a4 = a4 + a2\n  8730: a2 = a0 | a4\n  8733: a2 = a2 <u 0x1\n  8736: a2 = a2 + a5\n  8739: a3 = a2 <u a5\n  8742: a3 = a3 + t0\n  8745: u64 [a1 + 0x10] = a2\n  8748: u64 [a1 + 0x8] = a4\n  8751: u64 [a1] = a0\n  8753: u64 [a1 + 0x18] = a3\n  8756: a0 = s1 + 0x26e0\n  8760: u64 [s1 + 0x210] = a1\n  8764: ra = 398, jump @11\n      : @402 [@dyn 199] (gas: 21)\n  8770: a1 = s1 + 0x21f8\n  8774: a0 = u64 [a1 + 0x500]\n  8778: u64 [s1 + 0x248] = a0\n  8782: a3 = a1 + 0x400\n  8786: a2 = u64 [a3 + 0xf8]\n  8790: u64 [s1 + 0x240] = a2\n  8794: a0 = u64 [a3 + 0xf0]\n  8798: u64 [s1 + 0x208] = a0\n  8802: a0 = u64 [a3 + 0xe8]\n  8806: u64 [s1 + 0x200] = a0\n  8810: a0 = 0xff00000000\n  8820: a0 = a0 & a2\n  8823: a0 = a0 <u 0x1\n  8826: u64 [a1 + 1248] = 0\n  8830: u64 [a1 + 1240] = 0\n  8834: u64 [a3 + 0xc8] = a0\n  8838: a0 = s1 + 0x26c0\n  8842: u64 [a1 + 1232] = 0\n  8846: ra = 0x190\n  8850: t0 = 0x544\n  8854: jump @1806\n      : @403 [@dyn 200] (gas: 2)\n  8858: a1 = u64 [s1 + 0x250]\n  8862: t0 = 402, jump @1790\n      : @404 [@dyn 201] (gas: 10)\n  8869: a1 = a1 + a4\n  8872: a4 = s1 + 0x31f8\n  8876: a5 = a4 + 0x100\n  8880: u64 [a5 + 0x40] = a1\n  8883: u64 [a5 + 0x38] = a3\n  8886: u64 [a5 + 0x30] = a2\n  8889: u64 [a5 + 0x28] = a0\n  8892: a0 = s1 + 0x26a0\n  8896: a1 = s1 + 0x3320\n  8900: ra = 404, jump @11\n      : @405 [@dyn 202] (gas: 20)\n  8906: a2 = s1 + 0x21f8\n  8910: a3 = u64 [a2 + 0x4a8]\n  8914: a4 = s1 + 0x200\n  8918: a0 = u64 [a4 + 0x48]\n  8921: a0 = a0 << 0x18\n  8924: a1 = u64 [a4 + 0x40]\n  8927: a1 = a1 >> 0x28\n  8930: a0 = a0 | a1\n  8933: a0 = a0 + a3\n  8936: u64 [a4 + 0x38] = a3\n  8939: u64 [a4 + 0x18] = a0\n  8942: a0 = a0 <u a3\n  8945: a1 = a0\n  8947: a1 = 0 if a0 != 0\n  8949: a3 = a1 >u 0\n  8951: u64 [a4 + 0x28] = a0\n  8954: u64 [a4 + 0x30] = a1\n  8957: u64 [a4 + 0x20] = a3\n  8960: a0 = a3 if a1 != 0\n  8963: jump @407 if a0 == 0\n      : @406 (gas: 1)\n  8966: jump @1111\n      : @407 (gas: 6)\n  8969: a0 = u64 [a2 + 0x4b0]\n  8973: u64 [s1 + 0x1f8] = a0\n  8977: a0 = s1 + 0x2680\n  8981: ra = 0x196\n  8985: t0 = 0x596\n  8989: jump @1793\n      : @408 [@dyn 203] (gas: 13)\n  8993: a0 = s1 + 0x21f8\n  8997: a0 = u64 [a0 + 0x488]\n  9001: a0 = a0 & 0xffffffffffffffff\n  9004: a3 = s1 + 0x200\n  9008: a1 = u64 [a3 + 0x18]\n  9011: a0 = a0 <u a1\n  9014: a2 = u64 [a3 + 0x28]\n  9017: a1 = a2 >u 0\n  9019: a1 = a0 if a2 == 0\n  9022: a0 = u64 [a3 + 0x30]\n  9025: a2 = u64 [a3 + 0x20]\n  9028: a1 = a2 if a0 != 0\n  9031: jump @410 if a1 != 0\n      : @409 (gas: 1)\n  9034: jump @641\n      : @410 (gas: 3)\n  9037: a0 = s1 + 0x2440\n  9041: a1 = 0x40\n  9044: ra = 408, jump @7\n      : @411 [@dyn 204] (gas: 14)\n  9050: a4 = s1 + 0x21f8\n  9054: t0 = u64 [a4 + 0x260]\n  9058: a1 = a4 + 0x200\n  9062: a5 = u64 [a1 + 0x58]\n  9065: a3 = u64 [a1 + 0x50]\n  9068: a0 = u64 [a1 + 0x48]\n  9071: a2 = a3 | t0\n  9074: a1 = a0 | a5\n  9077: a1 = a1 | a2\n  9080: a1 = a1 >> 0x20\n  9083: a2 = a2 | a5\n  9086: a2 = a2 << 0x20\n  9089: a1 = a1 | a2\n  9092: jump @413 if a1 == 0\n      : @412 (gas: 1)\n  9095: jump @797\n      : @413 (gas: 11)\n  9098: u64 [a4 + 568] = 0\n  9102: u64 [a4 + 560] = 0\n  9106: u64 [a4 + 552] = 0\n  9110: u64 [s1 + 0x270] = a3\n  9114: a3 = 0x8c379a000000000\n  9124: a1 = s1 + 0x2420\n  9128: u64 [a4 + 0x240] = a3\n  9132: u64 [s1 + 0x278] = a0\n  9136: u64 [s1 + 0x268] = t0\n  9140: u64 [s1 + 0x260] = a5\n  9144: ra = 410, jump @9\n      : @414 [@dyn 205] (gas: 6)\n  9150: a5 = s1 + 0x200\n  9154: a1 = u64 [a5 + 0x78]\n  9157: a0 = u64 [a5 + 0x68]\n  9160: a3 = u64 [a5 + 0x60]\n  9163: a3 = a3 | a0\n  9166: t0 = 412, jump @1785\n      : @415 [@dyn 206] (gas: 1)\n  9173: jump @417 if a0 != 0\n      : @416 (gas: 1)\n  9176: jump @797\n      : @417 (gas: 11)\n  9179: i32 a0 = a1 + 0x4\n  9182: a2 = s1 + 0x21f8\n  9186: u64 [a2 + 544] = 0\n  9190: u64 [a2 + 536] = 0\n  9194: u64 [a2 + 528] = 0\n  9198: a5 = 0x20\n  9201: a1 = s1 + 0x2400\n  9205: u64 [a2 + 0x208] = a5\n  9209: u64 [s1 + 0x268] = a3\n  9213: u64 [s1 + 0x260] = a4\n  9217: ra = 414, jump @9\n      : @418 [@dyn 207] (gas: 10)\n  9223: a2 = s1 + 0x200\n  9227: a4 = u64 [a2 + 0x68]\n  9230: a3 = u64 [a2 + 0x70]\n  9233: a1 = u64 [a2 + 0x78]\n  9236: a0 = u64 [a2 + 0x60]\n  9239: a0 = a0 + 0xffffffffffffffdc\n  9242: a0 = a1 <u a0\n  9245: a0 = 0 if a3 != 0\n  9247: a0 = 0 if a4 != 0\n  9249: jump @420 if a0 != 0\n      : @419 (gas: 1)\n  9252: jump @797\n      : @420 (gas: 8)\n  9255: i32 a0 = a1 + 0x24\n  9258: a2 = s1 + 0x21f8\n  9262: u64 [a2 + 512] = 0\n  9266: u64 [a2 + 504] = 0\n  9270: u64 [a2 + 488] = 0x20\n  9275: a1 = s1 + 0x23e0\n  9279: u64 [a2 + 496] = 0\n  9283: ra = 416, jump @9\n      : @421 [@dyn 208] (gas: 1)\n  9289: t0 = 418, jump @1775\n      : @422 [@dyn 209] (gas: 1)\n  9296: jump @424 if a0 != 0\n      : @423 (gas: 1)\n  9299: jump @797\n      : @424 (gas: 14)\n  9302: i32 a0 = a3 + 0x44\n  9305: a1 = u64 [0x20010]\n  9310: a4 = s1 + 0x21f8\n  9314: a5 = a4 + 0x100\n  9318: u64 [a5 + 0xe0] = a1\n  9322: a1 = u64 [0x20018]\n  9327: a2 = u64 [0x20020]\n  9332: a3 = u64 [0x20028]\n  9337: u64 [a5 + 0xd8] = a1\n  9341: u64 [a5 + 0xd0] = a2\n  9345: a1 = s1 + 0x23c0\n  9349: u64 [a5 + 0xc8] = a3\n  9353: ra = 0x262\n  9357: jump @9\n      : @425 (gas: 10)\n  9360: u64 [a2 + 1152] = 0\n  9364: u64 [a2 + 1144] = 0\n  9368: u64 [a2 + 1136] = 0\n  9372: u64 [a2 + 1128] = 0\n  9376: a0 = s1 + 0x3000\n  9380: i32 a0 = a0 + 0xfffffffffffffe60\n  9384: ra = 0x1a4\n  9388: ecalli 16 // 'value_transferred'\n  9390: t0 = 0x1a6\n  9394: jump @1788\n      : @426 [@dyn 210] (gas: 1)\n  9398: t0 = 422, jump @1788\n      : @427 [@dyn 211] (gas: 8)\n  9405: a0 = u64 [a4 + 0x78]\n  9408: a1 = u64 [a4 + 0x80]\n  9412: a2 = u64 [a4 + 0x70]\n  9415: a3 = u64 [a4 + 0x68]\n  9418: a1 = a1 | a2\n  9421: a0 = a0 | a3\n  9424: a0 = a0 | a1\n  9427: jump @429 if a0 == 0\n      : @428 (gas: 1)\n  9430: jump @1118\n      : @429 (gas: 3)\n  9433: a0 = u64 [s1 + 0x278]\n  9437: a0 = i32 [a0]\n  9439: jump @431 if a0 >u 3\n      : @430 (gas: 1)\n  9443: jump @1119\n      : @431 (gas: 3)\n  9446: a0 = s1 + 0x16a0\n  9450: a1 = 0x40\n  9453: ra = 424, jump @7\n      : @432 [@dyn 212] (gas: 7)\n  9459: a3 = s1 + 0x11f8\n  9463: a5 = a3 + 0x400\n  9467: a4 = u64 [a5 + 0xc0]\n  9471: a1 = u64 [a5 + 0xb8]\n  9475: a2 = u64 [a5 + 0xb0]\n  9479: a0 = u64 [a5 + 0xa8]\n  9483: t0 = 426, jump @1784\n      : @433 [@dyn 213] (gas: 1)\n  9490: jump @435 if a1 == 0\n      : @434 (gas: 1)\n  9493: jump @797\n      : @435 (gas: 13)\n  9496: a1 = u64 [0x20080]\n  9501: a5 = a3 + 0x400\n  9505: u64 [a5 + 0xa0] = a1\n  9509: a4 = u64 [0x20088]\n  9514: a1 = u64 [0x20090]\n  9519: a2 = u64 [0x20098]\n  9524: u64 [a5 + 0x98] = a4\n  9528: u64 [a5 + 0x90] = a1\n  9532: a1 = s1 + 0x1680\n  9536: u64 [a5 + 0x88] = a2\n  9540: u64 [s1 + 0x278] = a0\n  9544: ra = 0x22a\n  9548: jump @9\n      : @436 (gas: 10)\n  9551: u64 [a2 + 1088] = 0\n  9555: u64 [a2 + 1080] = 0\n  9559: u64 [a2 + 1072] = 0\n  9563: u64 [a2 + 1064] = 0\n  9567: a0 = s1 + 0x3000\n  9571: i32 a0 = a0 + 0xfffffffffffffe20\n  9575: ra = 0x1ac\n  9579: ecalli 16 // 'value_transferred'\n  9581: t0 = 0x1ae\n  9585: jump @1788\n      : @437 [@dyn 214] (gas: 1)\n  9589: t0 = 430, jump @1788\n      : @438 [@dyn 215] (gas: 8)\n  9596: a0 = u64 [a4 + 0x38]\n  9599: a1 = u64 [a4 + 0x40]\n  9602: a2 = u64 [a4 + 0x30]\n  9605: a3 = u64 [a4 + 0x28]\n  9608: a1 = a1 | a2\n  9611: a0 = a0 | a3\n  9614: a0 = a0 | a1\n  9617: jump @440 if a0 == 0\n      : @439 (gas: 1)\n  9620: jump @1120\n      : @440 (gas: 1)\n  9623: t0 = 432, jump @1808\n      : @441 [@dyn 216] (gas: 1)\n  9630: jump @443 if a1 <u a0\n      : @442 (gas: 1)\n  9633: jump @1121\n      : @443 (gas: 7)\n  9636: a0 = s1 + 0x3000\n  9640: i32 a0 = a0 + 0xfffffffffffffe40\n  9644: a1 = 0x4\n  9647: ra = 0x1b2\n  9651: ecalli 2 // 'call_data_load'\n  9653: t0 = 0x1b4\n  9657: jump @1788\n      : @444 [@dyn 217] (gas: 1)\n  9661: t0 = 436, jump @1788\n      : @445 [@dyn 218] (gas: 13)\n  9668: a2 = u64 [a4 + 0x48]\n  9671: a0 = u64 [a4 + 0x50]\n  9674: a1 = u64 [a4 + 0x58]\n  9677: a3 = u64 [a4 + 0x60]\n  9680: a4 = s1 + 0x11f8\n  9684: a5 = a4 + 0x400\n  9688: u64 [a5 + 0x60] = a3\n  9691: u64 [a5 + 0x58] = a1\n  9694: u64 [a5 + 0x50] = a0\n  9697: a0 = s1 + 0x1660\n  9701: a1 = s1 + 0x1640\n  9705: u64 [a5 + 0x48] = a2\n  9708: ra = 438, jump @1461\n      : @446 [@dyn 219] (gas: 14)\n  9714: a1 = s1 + 0x11f8\n  9718: a2 = a1 + 0x400\n  9722: a0 = u64 [a2 + 0x80]\n  9726: a1 = s1 + 0x200\n  9730: u64 [a1 + 0x78] = a0\n  9733: a0 = u64 [a2 + 0x78]\n  9736: u64 [a1 + 0x70] = a0\n  9739: a0 = u64 [a2 + 0x70]\n  9742: u64 [a1 + 0x68] = a0\n  9745: a0 = u64 [a2 + 0x68]\n  9748: u64 [a1 + 0x60] = a0\n  9751: a0 = s1 + 0x1620\n  9755: a1 = 0x40\n  9758: ra = 440, jump @7\n      : @447 [@dyn 220] (gas: 14)\n  9764: a3 = s1 + 0x11f8\n  9768: a5 = a3 + 0x400\n  9772: a0 = u64 [a5 + 0x40]\n  9775: a1 = u64 [a5 + 0x38]\n  9778: a2 = u64 [a5 + 0x30]\n  9781: a4 = u64 [a5 + 0x28]\n  9784: a0 = a0 | a2\n  9787: a2 = a4 | a1\n  9790: a2 = a2 | a0\n  9793: a2 = a2 >> 0x20\n  9796: a0 = a0 | a1\n  9799: a0 = a0 << 0x20\n  9802: a0 = a0 | a2\n  9805: jump @449 if a0 == 0\n      : @448 (gas: 1)\n  9808: jump @797\n      : @449 (gas: 15)\n  9811: a2 = s1 + 0x200\n  9815: a0 = u64 [a2 + 0x60]\n  9818: a5 = a3 + 0x400\n  9822: u64 [a5 + 0x8] = a0\n  9825: a0 = u64 [a2 + 0x68]\n  9828: u64 [a5 + 0x10] = a0\n  9831: a0 = u64 [a2 + 0x70]\n  9834: u64 [a5 + 0x18] = a0\n  9837: a1 = s1 + 0x1600\n  9841: a0 = u64 [a2 + 0x78]\n  9844: u64 [a5 + 0x20] = a0\n  9847: a0 = a4\n  9849: u64 [a2 + 0x78] = a4\n  9852: ra = 0x22a\n  9856: jump @9\n      : @450 (gas: 9)\n  9859: u64 [a3 + 800] = 0\n  9863: u64 [a3 + 792] = 0\n  9867: u64 [a3 + 784] = 0\n  9871: u64 [a3 + 776] = 0\n  9875: a0 = s1 + 0x3000\n  9879: i32 a0 = a0 + 0x500\n  9883: ra = 0x1ba\n  9887: ecalli 16 // 'value_transferred'\n  9889: fallthrough\n      : @451 [@dyn 221] (gas: 10)\n  9890: a3 = s1 + 0x31f8\n  9894: a4 = a3 + 0x300\n  9898: a0 = u64 [a4 + 0x18]\n  9901: a1 = u64 [a4 + 0x20]\n  9904: a2 = u64 [a4 + 0x10]\n  9907: a3 = u64 [a4 + 0x8]\n  9910: a1 = a1 | a2\n  9913: a0 = a0 | a3\n  9916: a0 = a0 | a1\n  9919: jump @453 if a0 == 0\n      : @452 (gas: 1)\n  9922: jump @1122\n      : @453 (gas: 1)\n  9925: t0 = 444, jump @1808\n      : @454 [@dyn 222] (gas: 1)\n  9932: jump @456 if a1 <u a0\n      : @455 (gas: 1)\n  9935: jump @1123\n      : @456 (gas: 6)\n  9938: a0 = s1 + 0x3000\n  9942: i32 a0 = a0 + 0x520\n  9946: a1 = 0x4\n  9949: ecalli 2 // 'call_data_load'\n  9951: a3 = s1 + 0x31f8\n  9955: fallthrough\n      : @457 (gas: 8)\n  9956: a0 = u64 [a3 + 0x338]\n  9960: a1 = u64 [a3 + 0x340]\n  9964: a2 = a0 ^ 0x1\n  9967: a2 = a2 | a1\n  9970: a0 = a0 <u 0x1\n  9973: a0 = 0 if a1 != 0\n  9975: a0 = 0 if a2 == 0\n  9977: jump @459 if a0 != 0\n      : @458 (gas: 1)\n  9980: jump @1124\n      : @459 (gas: 7)\n  9983: a0 = u64 [a3 + 0x330]\n  9987: u64 [s1 + 0x270] = a0\n  9991: a0 = u64 [a3 + 0x328]\n  9995: u64 [s1 + 0x268] = a0\n  9999: ra = 0x1be\n 10003: t0 = 0x59c\n 10007: jump @1810\n      : @460 [@dyn 223] (gas: 3)\n 10011: a0 = s1 + 0x2ae0\n 10015: a1 = 0x40\n 10018: ra = 448, jump @7\n      : @461 [@dyn 224] (gas: 13)\n 10024: a2 = s1 + 0x29f8\n 10028: t0 = u64 [a2 + 0x100]\n 10032: a5 = u64 [a2 + 0xf8]\n 10036: a4 = u64 [a2 + 0xf0]\n 10040: a0 = u64 [a2 + 0xe8]\n 10044: a3 = a4 | t0\n 10047: a1 = a0 | a5\n 10050: a1 = a1 | a3\n 10053: a1 = a1 >> 0x20\n 10056: a3 = a3 | a5\n 10059: a3 = a3 << 0x20\n 10062: a1 = a1 | a3\n 10065: jump @463 if a1 == 0\n      : @462 (gas: 1)\n 10068: jump @797\n      : @463 (gas: 11)\n 10071: u64 [a2 + 216] = 0\n 10075: u64 [a2 + 208] = 0\n 10079: u64 [a2 + 200] = 0\n 10083: a3 = 0xe811184200000000\n 10093: a1 = s1 + 0x2ac0\n 10097: u64 [a2 + 0xe0] = a3\n 10101: u64 [s1 + 0x278] = a0\n 10105: u64 [s1 + 0x260] = a4\n 10109: u64 [s1 + 0x258] = a5\n 10113: u64 [s1 + 0x250] = t0\n 10117: ra = 450, jump @9\n      : @464 [@dyn 225] (gas: 11)\n 10123: a4 = s1 + 0x200\n 10127: a2 = u64 [a4 + 0x78]\n 10130: a0 = u64 [a4 + 0x58]\n 10133: a1 = u64 [a4 + 0x50]\n 10136: a0 = a0 | a1\n 10139: a1 = 0xfffffffc\n 10149: a1 = a2 <u a1\n 10152: a3 = u64 [a4 + 0x60]\n 10155: a1 = 0 if a3 != 0\n 10157: a1 = 0 if a0 != 0\n 10159: jump @466 if a1 != 0\n      : @465 (gas: 1)\n 10162: jump @797\n      : @466 (gas: 10)\n 10165: i32 a0 = a2 + 0x4\n 10168: a3 = s1 + 0x29f8\n 10172: u64 [a3 + 192] = 0\n 10176: u64 [a3 + 184] = 0\n 10180: a1 = u64 [s1 + 0x268]\n 10184: u64 [a3 + 0xa8] = a1\n 10188: a1 = s1 + 0x2aa0\n 10192: a4 = u64 [s1 + 0x270]\n 10196: u64 [a3 + 0xb0] = a4\n 10200: ra = 452, jump @9\n      : @467 [@dyn 226] (gas: 1)\n 10206: ra = 454, jump @0\n      : @468 [@dyn 227] (gas: 33)\n 10212: a1 = u64 [0x30220]\n 10217: u64 [s1 + 0x270] = a1\n 10221: a1 = u64 [0x30230]\n 10226: u64 [s1 + 0x268] = a1\n 10230: a0 = u64 [0x30228]\n 10235: u64 [s1 + 0x248] = a0\n 10239: ecalli 10 // 'ref_time_left'\n 10241: a0 = u64 [s1 + 0x248]\n 10245: a0 = reverse a0\n 10247: a1 = a0 << 0x20\n 10250: a2 = u64 [s1 + 0x268]\n 10254: a2 = reverse a2\n 10256: a2 = a2 >> 0x20\n 10259: a1 = a1 | a2\n 10262: a0 = a0 >> 0x20\n 10265: a2 = u64 [s1 + 0x270]\n 10269: a2 = reverse a2\n 10271: a4 = 0x30200\n 10276: a3 = a2 << 0x20\n 10279: a0 = a0 | a3\n 10282: a2 = a2 >> 0x20\n 10285: u64 [s1 + 0x270] = a4\n 10289: u32 [0x30210] = a2\n 10294: u64 [0x30208] = a0\n 10299: u64 [0x30200] = a1\n 10304: a0 = s1 + 0x31f8\n 10308: u64 [a0 + 864] = 0\n 10312: u64 [a0 + 856] = 0\n 10316: u64 [a0 + 848] = 0\n 10320: u64 [a0 + 840] = 0\n 10324: a1 = 0x24\n 10327: a0 = u64 [s1 + 0x278]\n 10331: ra = 456, jump @18\n      : @469 [@dyn 228] (gas: 4)\n 10337: u64 [s1 + 0x268] = a0\n 10341: a1 = 0x20\n 10344: a0 = u64 [s1 + 0x278]\n 10348: ra = 458, jump @18\n      : @470 [@dyn 229] (gas: 33)\n 10354: a2 = s1 + 0x31f8\n 10358: a3 = a2 + 0x300\n 10362: u32 [a3 + 104] = 0x20\n 10366: u64 [a3 + 160] = 0xffffffffffffffff\n 10371: u64 [a3 + 152] = 0xffffffffffffffff\n 10376: u64 [a3 + 144] = 0xffffffffffffffff\n 10381: u64 [a3 + 136] = 0xffffffffffffffff\n 10386: a1 = u64 [s1 + 0x270]\n 10390: a1 = a1 << 0x20\n 10393: a1 = a1 >> 0x20\n 10396: a2 = 0x800000000\n 10406: t0 = a1 | a2\n 10409: a1 = s1 + 0x3540\n 10413: a1 = a1 << 0x20\n 10416: a1 = a1 >> 0x20\n 10419: a2 = s1 + 0x3580\n 10423: a2 = a2 << 0x20\n 10426: a3 = a2 | a1\n 10429: a1 = u64 [s1 + 0x268]\n 10433: a1 = a1 << 0x20\n 10436: a1 = a1 >> 0x20\n 10439: a2 = 0x2400000000\n 10449: a4 = a1 | a2\n 10452: a0 = a0 << 0x20\n 10455: a0 = a0 >> 0x20\n 10458: a1 = s1 + 0x3560\n 10462: a1 = a1 << 0x20\n 10465: a5 = a1 | a0\n 10468: a1 = 0xffffffffffffffff\n 10471: a2 = 0xffffffffffffffff\n 10474: a0 = t0\n 10476: ecalli 0 // 'call'\n 10477: fallthrough\n      : @471 (gas: 1)\n 10478: jump @473 if a0 != 0\n      : @472 (gas: 1)\n 10481: jump @1187\n      : @473 (gas: 3)\n 10484: a0 = s1 + 0x2a80\n 10488: a1 = 0x40\n 10491: ra = 460, jump @7\n      : @474 [@dyn 230] (gas: 13)\n 10497: a0 = s1 + 0x29f8\n 10501: a1 = u64 [a0 + 0xa0]\n 10505: u64 [s1 + 0x270] = a1\n 10509: a1 = u64 [a0 + 0x98]\n 10513: u64 [s1 + 0x268] = a1\n 10517: a1 = u64 [a0 + 0x90]\n 10521: u64 [s1 + 0x260] = a1\n 10525: a0 = u64 [a0 + 0x88]\n 10529: u64 [s1 + 0x278] = a0\n 10533: ra = 0x1ce\n 10537: ecalli 12 // 'return_data_size'\n 10539: t0 = 0x1d0\n 10543: jump @1779\n      : @475 [@dyn 231] (gas: 1)\n 10547: t0 = 464, jump @1779\n      : @476 [@dyn 232] (gas: 1)\n 10554: jump @478 if a1 == 0\n      : @477 (gas: 1)\n 10557: jump @797\n      : @478 (gas: 3)\n 10560: a2 = a0\n 10562: a0 = a0 >> 0x20\n 10565: jump @480 if a0 == 0\n      : @479 (gas: 1)\n 10568: jump @797\n      : @480 (gas: 1)\n 10571: t0 = 466, jump @1805\n      : @481 [@dyn 233] (gas: 1)\n 10578: ra = 468, jump @18\n      : @482 [@dyn 234] (gas: 11)\n 10584: a1 = s1 + 0x31f8\n 10588: a2 = u64 [s1 + 0x268]\n 10592: u32 [a1 + 0x3a8] = a2\n 10596: i32 a0 = a0 + 0\n 10598: a1 = s1 + 0x3000\n 10602: i32 a1 = a1 + 0x5a0\n 10606: a2 = 0\n 10608: ecalli 11 // 'return_data_copy'\n 10610: a0 = s1 + 0x31f8\n 10614: a0 = i32 [a0 + 0x3a8]\n 10618: jump @634\n      : @483 (gas: 1)\n 10621: jump @485 if a0 == 1974614268\n      : @484 (gas: 1)\n 10628: jump @1125\n      : @485 (gas: 9)\n 10631: u64 [a2 + 1888] = 0\n 10635: u64 [a2 + 1880] = 0\n 10639: u64 [a2 + 1872] = 0\n 10643: u64 [a2 + 1864] = 0\n 10647: a0 = s1 + 0x3000\n 10651: i32 a0 = a0 + 0x140\n 10655: ra = 0x1d6\n 10659: ecalli 16 // 'value_transferred'\n 10661: fallthrough\n      : @486 [@dyn 235] (gas: 3)\n 10662: a3 = s1 + 0x29f8\n 10666: a4 = a3 + 0x700\n 10670: t0 = 472, jump @1824\n      : @487 [@dyn 236] (gas: 1)\n 10677: jump @489 if a0 == 0\n      : @488 (gas: 1)\n 10680: jump @1130\n      : @489 (gas: 3)\n 10683: a0 = u64 [s1 + 0x278]\n 10687: a0 = i32 [a0]\n 10689: jump @491 if a0 >u 3\n      : @490 (gas: 1)\n 10693: jump @1131\n      : @491 (gas: 3)\n 10696: a0 = s1 + 0x1f60\n 10700: a1 = 0x40\n 10703: ra = 474, jump @7\n      : @492 [@dyn 237] (gas: 7)\n 10709: a3 = s1 + 0x19f8\n 10713: a5 = a3 + 0x500\n 10717: a4 = u64 [a5 + 0x80]\n 10721: a1 = u64 [a5 + 0x78]\n 10724: a2 = u64 [a5 + 0x70]\n 10727: a0 = u64 [a5 + 0x68]\n 10730: t0 = 476, jump @1784\n      : @493 [@dyn 238] (gas: 1)\n 10737: jump @495 if a1 == 0\n      : @494 (gas: 1)\n 10740: jump @797\n      : @495 (gas: 13)\n 10743: a1 = u64 [0x20030]\n 10748: a5 = a3 + 0x500\n 10752: u64 [a5 + 0x60] = a1\n 10755: a4 = u64 [0x20038]\n 10760: a1 = u64 [0x20040]\n 10765: a2 = u64 [0x20048]\n 10770: u64 [a5 + 0x58] = a4\n 10773: u64 [a5 + 0x50] = a1\n 10776: a1 = s1 + 0x1f40\n 10780: u64 [a5 + 0x48] = a2\n 10783: u64 [s1 + 0x278] = a0\n 10787: ra = 0x22a\n 10791: jump @9\n      : @496 (gas: 9)\n 10794: u64 [a2 + 672] = 0\n 10798: u64 [a2 + 664] = 0\n 10802: u64 [a2 + 656] = 0\n 10806: u64 [a2 + 648] = 0\n 10810: a0 = s1 + 0x3000\n 10814: i32 a0 = a0 + 0xfffffffffffffc80\n 10818: ra = 0x1de\n 10822: ecalli 16 // 'value_transferred'\n 10824: fallthrough\n      : @497 [@dyn 239] (gas: 3)\n 10825: a3 = s1 + 0x29f8\n 10829: a4 = a3 + 0x200\n 10833: t0 = 480, jump @1807\n      : @498 [@dyn 240] (gas: 1)\n 10840: jump @500 if a0 == 0\n      : @499 (gas: 1)\n 10843: jump @1132\n      : @500 (gas: 1)\n 10846: t0 = 482, jump @1808\n      : @501 [@dyn 241] (gas: 1)\n 10853: jump @503 if a1 <u a0\n      : @502 (gas: 1)\n 10856: jump @1133\n      : @503 (gas: 5)\n 10859: a0 = s1 + 0x3000\n 10863: i32 a0 = a0 + 0xfffffffffffffca0\n 10867: a1 = 0x4\n 10870: ecalli 2 // 'call_data_load'\n 10872: fallthrough\n      : @504 (gas: 9)\n 10873: a2 = s1 + 0x29f8\n 10877: a0 = a2 + 0x200\n 10881: a5 = u64 [a0 + 0xc0]\n 10885: a3 = u64 [a0 + 0xb8]\n 10889: a4 = u64 [a0 + 0xb0]\n 10893: a0 = a3 | a5\n 10896: a1 = a4 <u 0x1\n 10899: a1 = 0 if a0 != 0\n 10901: jump @506 if a1 != 0\n      : @505 (gas: 1)\n 10904: jump @1134\n      : @506 (gas: 19)\n 10907: a1 = u64 [a2 + 0x2a8]\n 10911: a0 = u64 [s1 + 0x278]\n 10915: t2 = u32 [a0]\n 10917: a0 = a1 + 0x23\n 10920: a2 = a0 <u a1\n 10923: t0 = a4 + a2\n 10926: u64 [s1 + 0x260] = a4\n 10930: a4 = t0 <u a4\n 10933: a4 = a2 if a2 == 0\n 10936: a4 = a4 + a3\n 10939: u64 [s1 + 0x268] = a3\n 10943: a2 = a4 <u a3\n 10946: u64 [s1 + 0x270] = a5\n 10950: a2 = a2 + a5\n 10953: a2 = a2 | a4\n 10956: a0 = a0 <u t2\n 10959: a0 = 0 if t0 != 0\n 10961: a0 = 0 if a2 != 0\n 10963: jump @508 if a0 != 0\n      : @507 (gas: 1)\n 10966: jump @1135\n      : @508 (gas: 6)\n 10969: u64 [s1 + 0x258] = a1\n 10973: i32 a1 = a1 + 0x4\n 10976: a0 = s1 + 0x3000\n 10980: i32 a0 = a0 + 0xfffffffffffffcc0\n 10984: ecalli 2 // 'call_data_load'\n 10986: fallthrough\n      : @509 (gas: 9)\n 10987: a3 = s1 + 0x29f8\n 10991: a0 = u64 [a3 + 0x2e0]\n 10995: ra = u64 [a3 + 0x2d8]\n 10999: a2 = u64 [a3 + 0x2d0]\n 11003: u64 [s1 + 0x210] = a0\n 11007: a0 = ra | a0\n 11010: a1 = a2 <u 0x1\n 11013: a1 = 0 if a0 != 0\n 11015: jump @511 if a1 != 0\n      : @510 (gas: 1)\n 11018: jump @1136\n      : @511 (gas: 59)\n 11021: a3 = u64 [a3 + 0x2c8]\n 11025: a0 = a3 >> 0x3b\n 11028: a1 = a2 << 0x5\n 11031: a4 = a1 | a0\n 11034: u64 [s1 + 0x1f8] = a3\n 11038: a1 = a3 << 0x5\n 11041: a0 = u64 [s1 + 0x258]\n 11045: a3 = a0 + 0x24\n 11048: t2 = a3 <u a0\n 11051: t1 = u64 [s1 + 0x260]\n 11055: a0 = t1 + t2\n 11058: t0 = a0 + a4\n 11061: a1 = a1 + a3\n 11064: u64 [s1 + 0x238] = a1\n 11068: u64 [s1 + 0x248] = a3\n 11072: a4 = a1 <u a3\n 11075: t0 = t0 + a4\n 11078: a5 = t0 ^ a0\n 11081: a3 = t0 <u a0\n 11084: a3 = a4 if a5 == 0\n 11087: a4 = ra >> 0x3b\n 11090: a5 = u64 [s1 + 0x210]\n 11094: a5 = a5 << 0x5\n 11097: a4 = a4 | a5\n 11100: u64 [s1 + 0x200] = a2\n 11104: a5 = a2 >> 0x3b\n 11107: u64 [s1 + 0x208] = ra\n 11111: a1 = ra << 0x5\n 11114: a1 = a1 | a5\n 11117: u64 [s1 + 0x258] = a0\n 11121: a5 = a0 <u t1\n 11124: a5 = t2 if t2 == 0\n 11127: a0 = u64 [s1 + 0x268]\n 11131: a5 = a5 + a0\n 11134: a2 = a5 <u a0\n 11137: a0 = u64 [s1 + 0x270]\n 11141: a2 = a2 + a0\n 11144: a1 = a1 + a5\n 11147: u64 [s1 + 0x250] = a2\n 11151: a4 = a4 + a2\n 11154: u64 [s1 + 0x240] = a5\n 11158: a2 = a1 <u a5\n 11161: a2 = a2 + a4\n 11164: a4 = u64 [s1 + 0x278]\n 11168: a4 = u32 [a4]\n 11170: a3 = a3 + a1\n 11173: a1 = a3 <u a1\n 11176: a1 = a1 + a2\n 11179: a0 = u64 [s1 + 0x238]\n 11183: a2 = a4 <u a0\n 11186: a4 = t0 <u 0x1\n 11189: a2 = a2 ^ 0x1\n 11192: a2 = a4 if t0 != 0\n 11195: a0 = a1 <u 0x1\n 11198: a4 = a3 <u 0x1\n 11201: a4 = a0 if a1 != 0\n 11204: a1 = a1 | a3\n 11207: a2 = a4 if a1 != 0\n 11210: jump @513 if a2 != 0\n      : @512 (gas: 1)\n 11213: jump @1137\n      : @513 (gas: 3)\n 11216: ra = 0x1e4\n 11220: t0 = 0x59c\n 11224: jump @1810\n      : @514 [@dyn 242] (gas: 3)\n 11228: a0 = s1 + 0x6e0\n 11232: a1 = 0x40\n 11235: ra = 486, jump @7\n      : @515 [@dyn 243] (gas: 13)\n 11241: a1 = s1 + 0x600\n 11245: a3 = u64 [a1 + 0xf8]\n 11249: a4 = u64 [a1 + 0xf0]\n 11253: a5 = u64 [a1 + 0xe8]\n 11257: a0 = u64 [a1 + 0xe0]\n 11261: a2 = a5 | a3\n 11264: a1 = a0 | a4\n 11267: a1 = a1 | a2\n 11270: a1 = a1 >> 0x20\n 11273: a2 = a2 | a4\n 11276: a2 = a2 << 0x20\n 11279: a1 = a1 | a2\n 11282: jump @517 if a1 == 0\n      : @516 (gas: 1)\n 11285: jump @797\n      : @517 (gas: 11)\n 11288: u64 [s1 + 1744] = 0\n 11292: u64 [s1 + 1736] = 0\n 11296: u64 [s1 + 1728] = 0\n 11300: a2 = 0x19f2fdad00000000\n 11310: a1 = s1 + 0x6c0\n 11314: u64 [s1 + 0x6d8] = a2\n 11318: u64 [s1 + 0x1e8] = a0\n 11322: u64 [s1 + 0x1d8] = a3\n 11326: u64 [s1 + 0x1d0] = a4\n 11330: u64 [s1 + 0x1e0] = a5\n 11334: ra = 488, jump @9\n      : @518 [@dyn 244] (gas: 12)\n 11340: a2 = s1 + 0x100\n 11344: a1 = u64 [a2 + 0xe8]\n 11348: a0 = u64 [a2 + 0xd8]\n 11352: a4 = u64 [a2 + 0xd0]\n 11356: a4 = a4 | a0\n 11359: a5 = 0x100000000\n 11369: a0 = 0xfffffffc\n 11379: a0 = a1 <u a0\n 11382: a3 = u64 [a2 + 0xe0]\n 11386: a0 = 0 if a3 != 0\n 11388: a0 = 0 if a4 != 0\n 11390: jump @520 if a0 != 0\n      : @519 (gas: 1)\n 11393: jump @797\n      : @520 (gas: 9)\n 11396: i32 a0 = a1 + 0x4\n 11399: u64 [s1 + 1720] = 0\n 11403: u64 [s1 + 1712] = 0\n 11407: u64 [s1 + 1696] = 0x20\n 11412: a1 = s1 + 0x6a0\n 11416: u64 [s1 + 1704] = 0\n 11420: u64 [s1 + 0x278] = a4\n 11424: u64 [s1 + 0x270] = a5\n 11428: ra = 490, jump @9\n      : @521 [@dyn 245] (gas: 9)\n 11434: a3 = u64 [s1 + 0x1e0]\n 11438: a2 = u64 [s1 + 0x1e8]\n 11442: a0 = u64 [s1 + 0x270]\n 11446: a0 = a0 + 0xffffffffffffffdc\n 11449: a0 = a2 <u a0\n 11452: a0 = 0 if a3 != 0\n 11454: a1 = u64 [s1 + 0x278]\n 11458: a0 = 0 if a1 != 0\n 11460: jump @523 if a0 != 0\n      : @522 (gas: 1)\n 11463: jump @797\n      : @523 (gas: 12)\n 11466: i32 a0 = a2 + 0x24\n 11469: a1 = u64 [s1 + 0x1f8]\n 11473: a2 = s1 + 0x600\n 11477: u64 [a2 + 0x80] = a1\n 11481: a1 = u64 [s1 + 0x200]\n 11485: u64 [a2 + 0x88] = a1\n 11489: a1 = u64 [s1 + 0x208]\n 11493: u64 [a2 + 0x90] = a1\n 11497: a1 = s1 + 0x680\n 11501: a4 = u64 [s1 + 0x210]\n 11505: u64 [a2 + 0x98] = a4\n 11509: ra = 492, jump @9\n      : @524 [@dyn 246] (gas: 26)\n 11515: a5 = 0\n 11517: a3 = 0\n 11519: t1 = 0\n 11521: t2 = 0\n 11523: a4 = s1 + 0x100\n 11527: a1 = u64 [a4 + 0xe8]\n 11531: a0 = a1 + 0x44\n 11534: u64 [s1 + 0x270] = a0\n 11538: a0 = a0 <u a1\n 11541: a2 = u64 [a4 + 0xe0]\n 11545: a1 = a2 + a0\n 11548: u64 [s1 + 0x268] = a1\n 11552: a1 = a1 <u a2\n 11555: a1 = a0 if a0 == 0\n 11558: a0 = u64 [a4 + 0xd0]\n 11562: a1 = a1 + a0\n 11565: u64 [s1 + 0x260] = a1\n 11569: a0 = a1 <u a0\n 11572: a1 = u64 [a4 + 0xd8]\n 11576: a0 = a0 + a1\n 11579: u64 [s1 + 0x278] = a0\n 11583: a0 = 0xffffffff\n 11593: u64 [a4 + 0xf0] = a0\n 11597: t0 = u64 [s1 + 0x248]\n 11601: ra = u64 [s1 + 0x240]\n 11605: fallthrough\n      : @525 (gas: 17)\n 11606: a0 = u64 [s1 + 0x1f8]\n 11610: a0 = a5 <u a0\n 11613: a2 = u64 [s1 + 0x200]\n 11617: a1 = a3 ^ a2\n 11620: u64 [s1 + 0x238] = a3\n 11624: a2 = a3 <u a2\n 11627: a2 = a0 if a1 == 0\n 11630: a4 = u64 [s1 + 0x208]\n 11634: a0 = t1 <u a4\n 11637: a3 = u64 [s1 + 0x210]\n 11641: a1 = t2 ^ a3\n 11644: a3 = t2 <u a3\n 11647: a3 = a0 if a1 == 0\n 11650: a0 = t1 ^ a4\n 11653: a0 = a0 | a1\n 11656: a3 = a2 if a0 == 0\n 11659: jump @527 if a3 != 0\n      : @526 (gas: 1)\n 11662: jump @753\n      : @527 (gas: 10)\n 11665: a0 = t0 | ra\n 11668: a1 = u64 [s1 + 0x250]\n 11672: a2 = u64 [s1 + 0x258]\n 11676: a1 = a1 | a2\n 11679: a0 = a0 | a1\n 11682: a0 = a0 >> 0x20\n 11685: a1 = a1 | ra\n 11688: a1 = a1 << 0x20\n 11691: a0 = a0 | a1\n 11694: jump @529 if a0 == 0\n      : @528 (gas: 1)\n 11697: jump @797\n      : @529 (gas: 10)\n 11700: u64 [s1 + 0x220] = t1\n 11704: u64 [s1 + 0x228] = t2\n 11708: u64 [s1 + 0x230] = a5\n 11712: u64 [s1 + 0x240] = ra\n 11716: u64 [s1 + 0x248] = t0\n 11720: i32 a1 = t0 + 0\n 11722: a0 = s1 + 0x3000\n 11726: i32 a0 = a0 + 0xfffffffffffffce0\n 11730: ecalli 2 // 'call_data_load'\n 11732: fallthrough\n      : @530 (gas: 12)\n 11733: t0 = s1 + 0x29f8\n 11737: a4 = u64 [t0 + 0x300]\n 11741: a1 = u64 [t0 + 0x2f8]\n 11745: a2 = a4 >u 0\n 11747: a3 = a1 >> 0x20\n 11750: a3 = a3 >u 0\n 11752: a3 = a2 if a4 != 0\n 11755: a2 = u64 [s1 + 0x1f0]\n 11759: a2 = a2 ^ a1\n 11762: a2 = a2 | a4\n 11765: a3 = 0 if a2 == 0\n 11767: jump @532 if a3 == 0\n      : @531 (gas: 1)\n 11770: jump @798\n      : @532 (gas: 12)\n 11773: a0 = u64 [s1 + 0x270]\n 11777: a5 = u64 [s1 + 0x260]\n 11781: a2 = a0 | a5\n 11784: t2 = u64 [s1 + 0x278]\n 11788: t1 = u64 [s1 + 0x268]\n 11792: a3 = t1 | t2\n 11795: a2 = a2 | a3\n 11798: a2 = a2 >> 0x20\n 11801: a3 = a3 | a5\n 11804: a3 = a3 << 0x20\n 11807: a2 = a2 | a3\n 11810: jump @534 if a2 == 0\n      : @533 (gas: 1)\n 11813: jump @797\n      : @534 (gas: 13)\n 11816: a2 = u64 [t0 + 0x2f0]\n 11820: a3 = u64 [t0 + 0x2e8]\n 11824: u64 [s1 + 0x5a0] = a3\n 11828: a3 = s1 + 0x500\n 11832: u64 [a3 + 0xa8] = a2\n 11836: u64 [a3 + 0xb0] = a1\n 11840: a1 = s1 + 0x5a0\n 11844: u64 [a3 + 0xb8] = a4\n 11848: u64 [s1 + 0x278] = t2\n 11852: u64 [s1 + 0x270] = a0\n 11856: u64 [s1 + 0x268] = t1\n 11860: u64 [s1 + 0x260] = a5\n 11864: ra = 494, jump @9\n      : @535 [@dyn 247] (gas: 47)\n 11870: a1 = u64 [s1 + 0x270]\n 11874: a0 = a1 + 0x20\n 11877: u64 [s1 + 0x218] = a0\n 11881: a2 = a0 <u a1\n 11884: a0 = u64 [s1 + 0x268]\n 11888: t1 = a0 + a2\n 11891: a3 = t1 <u a0\n 11894: a3 = a2 if a2 == 0\n 11897: a0 = u64 [s1 + 0x260]\n 11901: ra = a0 + a3\n 11904: a3 = ra <u a0\n 11907: a0 = u64 [s1 + 0x278]\n 11911: a0 = a0 + a3\n 11914: u64 [s1 + 0x278] = a0\n 11918: a0 = u64 [s1 + 0x248]\n 11922: t0 = a0 + 0x20\n 11925: a4 = t0 <u a0\n 11928: a0 = u64 [s1 + 0x258]\n 11932: a2 = a0 + a4\n 11935: a0 = a2 <u a0\n 11938: a0 = a4 if a4 == 0\n 11941: a1 = u64 [s1 + 0x240]\n 11945: a0 = a0 + a1\n 11948: a4 = a0 <u a1\n 11951: a1 = u64 [s1 + 0x250]\n 11955: a1 = a1 + a4\n 11958: u64 [s1 + 0x250] = a1\n 11962: a5 = u64 [s1 + 0x230]\n 11966: a5 = a5 + 0x1\n 11969: a4 = a5 <u 0x1\n 11972: a3 = u64 [s1 + 0x238]\n 11976: a3 = a3 + a4\n 11979: a4 = a5 | a3\n 11982: a4 = a4 <u 0x1\n 11985: a1 = u64 [s1 + 0x220]\n 11989: a4 = a4 + a1\n 11992: a1 = a4 <u a1\n 11995: t2 = u64 [s1 + 0x228]\n 11999: t2 = t2 + a1\n 12002: a1 = u64 [s1 + 0x218]\n 12006: u64 [s1 + 0x270] = a1\n 12010: u64 [s1 + 0x268] = t1\n 12014: u64 [s1 + 0x260] = ra\n 12018: u64 [s1 + 0x258] = a2\n 12022: ra = a0\n 12024: t1 = a4\n 12026: jump @525\n      : @536 (gas: 9)\n 12029: u64 [a2 + 1920] = 0\n 12033: u64 [a2 + 1912] = 0\n 12037: u64 [a2 + 1904] = 0\n 12041: u64 [a2 + 1896] = 0\n 12045: a0 = s1 + 0x3000\n 12049: i32 a0 = a0 + 0x160\n 12053: ra = 0x1f0\n 12057: ecalli 16 // 'value_transferred'\n 12059: fallthrough\n      : @537 [@dyn 248] (gas: 10)\n 12060: a3 = s1 + 0x29f8\n 12064: a4 = a3 + 0x700\n 12068: a0 = u64 [a4 + 0x78]\n 12071: a1 = u64 [a4 + 0x80]\n 12075: a2 = u64 [a4 + 0x70]\n 12078: a3 = u64 [a4 + 0x68]\n 12081: a1 = a1 | a2\n 12084: a0 = a0 | a3\n 12087: a0 = a0 | a1\n 12090: jump @539 if a0 == 0\n      : @538 (gas: 1)\n 12093: jump @1138\n      : @539 (gas: 1)\n 12096: t0 = 498, jump @1808\n      : @540 [@dyn 249] (gas: 1)\n 12103: jump @542 if a1 <u a0\n      : @541 (gas: 1)\n 12106: jump @1139\n      : @542 (gas: 21)\n 12109: a0 = s1 + 0x3000\n 12113: i32 a0 = a0 + 0x180\n 12117: a1 = 0x4\n 12120: ecalli 2 // 'call_data_load'\n 12122: a1 = s1 + 0x29f8\n 12126: a2 = a1 + 0x700\n 12130: a0 = u64 [a2 + 0xa0]\n 12134: u64 [s1 + 0x270] = a0\n 12138: a0 = u64 [a2 + 0x98]\n 12142: u64 [s1 + 0x278] = a0\n 12146: a0 = u64 [a2 + 0x90]\n 12150: u64 [s1 + 0x268] = a0\n 12154: a0 = u64 [a2 + 0x88]\n 12158: u64 [s1 + 0x260] = a0\n 12162: u64 [a1 + 1984] = 0\n 12166: u64 [a1 + 1976] = 0\n 12170: u64 [a1 + 1968] = 0\n 12174: u64 [a2 + 168] = 0x1\n 12179: a0 = s1 + 0x2160\n 12183: a1 = s1 + 0x31a0\n 12187: ra = 500, jump @11\n      : @543 [@dyn 250] (gas: 22)\n 12193: t2 = u64 [s1 + 0x270]\n 12197: t1 = u64 [s1 + 0x268]\n 12201: t0 = u64 [s1 + 0x260]\n 12205: a5 = s1 + 0x19f8\n 12209: a2 = a5 + 0x700\n 12213: a0 = u64 [a2 + 0x70]\n 12216: a1 = u64 [a2 + 0x68]\n 12219: ra = u64 [a5 + 0x778]\n 12223: a3 = u64 [a2 + 0x80]\n 12227: a4 = t1 ^ a0\n 12230: a0 = t1 <u a0\n 12233: a1 = t0 <u a1\n 12236: a1 = a0 if a4 != 0\n 12239: a0 = t2 ^ a3\n 12242: a2 = t2 <u a3\n 12245: a3 = u64 [s1 + 0x278]\n 12249: a4 = a3 <u ra\n 12252: a4 = a2 if a0 != 0\n 12255: a2 = a3 ^ ra\n 12258: a0 = a0 | a2\n 12261: a1 = a4 if a0 != 0\n 12264: jump @545 if a1 != 0\n      : @544 (gas: 1)\n 12267: jump @1140\n      : @545 (gas: 11)\n 12270: a0 = sp + 0xffffffffffffffe0\n 12273: a0 = a0 & 0xffffffffffffffe0\n 12276: u64 [s1 + 0x258] = a0\n 12280: sp = a0\n 12282: u64 [a5 + 0x720] = t2\n 12286: u64 [a5 + 0x718] = a3\n 12290: u64 [a5 + 0x710] = t1\n 12294: a0 = s1 + 0x2120\n 12298: a1 = s1 + 0x2100\n 12302: u64 [a5 + 0x708] = t0\n 12306: ra = 502, jump @1373\n      : @546 [@dyn 251] (gas: 17)\n 12312: a1 = s1 + 0x19f8\n 12316: a5 = a1 + 0x700\n 12320: a4 = u64 [a5 + 0x38]\n 12323: u64 [s1 + 0x260] = a4\n 12327: a0 = u64 [a5 + 0x40]\n 12330: u64 [s1 + 0x278] = a0\n 12334: a3 = u64 [a5 + 0x28]\n 12337: u64 [s1 + 0x268] = a3\n 12341: a2 = u64 [a5 + 0x30]\n 12344: u64 [s1 + 0x270] = a2\n 12348: a1 = u64 [s1 + 0x258]\n 12352: u64 [a1 + 0x10] = a4\n 12355: u64 [a1 + 0x18] = a0\n 12358: u64 [a1] = a3\n 12360: u64 [a1 + 0x8] = a2\n 12363: a0 = s1 + 0x20e0\n 12367: ra = 504, jump @11\n      : @547 [@dyn 252] (gas: 29)\n 12373: a1 = s1 + 0x19f8\n 12377: a2 = a1 + 0x600\n 12381: a0 = u64 [a2 + 0xf8]\n 12385: u64 [s1 + 0x248] = a0\n 12389: a0 = u64 [a2 + 0xf0]\n 12393: u64 [s1 + 0x258] = a0\n 12397: a0 = u64 [a2 + 0xe8]\n 12401: u64 [s1 + 0x250] = a0\n 12405: a0 = u64 [s1 + 0x268]\n 12409: a0 = a0 + 0x1\n 12412: a1 = a0 <u 0x1\n 12415: a2 = u64 [s1 + 0x270]\n 12419: a1 = a1 + a2\n 12422: a2 = s1 + 0x29f8\n 12426: a3 = a2 + 0x700\n 12430: u64 [a3 + 0xd0] = a1\n 12434: a1 = a1 | a0\n 12437: u64 [a3 + 0xc8] = a0\n 12441: a0 = a1 <u 0x1\n 12444: a1 = u64 [s1 + 0x260]\n 12448: a0 = a0 + a1\n 12451: u64 [a3 + 0xd8] = a0\n 12455: a0 = a0 <u a1\n 12458: a1 = u64 [s1 + 0x278]\n 12462: a0 = a0 + a1\n 12465: u64 [a3 + 0xe0] = a0\n 12469: a0 = s1 + 0x20c0\n 12473: a1 = s1 + 0x31c0\n 12477: ra = 506, jump @11\n      : @548 [@dyn 253] (gas: 13)\n 12483: a1 = s1 + 0x19f8\n 12487: a2 = a1 + 0x600\n 12491: a0 = u64 [a2 + 0xe0]\n 12495: u64 [s1 + 0x228] = a0\n 12499: a0 = u64 [a2 + 0xd8]\n 12503: u64 [s1 + 0x240] = a0\n 12507: a0 = u64 [a2 + 0xd0]\n 12511: u64 [s1 + 0x230] = a0\n 12515: a0 = u64 [a2 + 0xc8]\n 12519: u64 [s1 + 0x238] = a0\n 12523: a1 = u64 [s1 + 0x268]\n 12527: a0 = a1 + 0x2\n 12530: t0 = 508, jump @1780\n      : @549 [@dyn 254] (gas: 8)\n 12536: u64 [a4] = a1\n 12538: a1 = a4 + 0xffffffffffffff00\n 12542: u64 [a1 + 0xf8] = a3\n 12546: u64 [a1 + 0xf0] = a2\n 12550: u64 [a1 + 0xe8] = a0\n 12554: a0 = s1 + 0x20a0\n 12558: a1 = s1 + 0x31e0\n 12562: ra = 510, jump @11\n      : @550 [@dyn 255] (gas: 8)\n 12568: a1 = s1 + 0x19f8\n 12572: a0 = u64 [a1 + 0x6b0]\n 12576: u64 [s1 + 0x218] = a0\n 12580: a0 = u64 [a1 + 0x6a8]\n 12584: u64 [s1 + 0x220] = a0\n 12588: a1 = u64 [s1 + 0x268]\n 12592: a0 = a1 + 0x4\n 12595: t0 = 512, jump @1780\n      : @551 [@dyn 256] (gas: 7)\n 12601: u64 [a4 + 0x20] = a1\n 12604: u64 [a4 + 0x18] = a3\n 12607: u64 [a4 + 0x10] = a2\n 12610: u64 [a4 + 0x8] = a0\n 12613: a0 = s1 + 0x2080\n 12617: a1 = s1 + 0x3200\n 12621: ra = 514, jump @11\n      : @552 [@dyn 257] (gas: 3)\n 12627: t0 = 0x204\n 12631: a1 = s1 + 0x19f8\n 12635: fallthrough\n      : @553 [@dyn 258] (gas: 7)\n 12636: a0 = u64 [a1 + 0x690]\n 12640: u64 [s1 + 0x268] = a0\n 12644: a0 = u64 [a1 + 0x688]\n 12648: u64 [s1 + 0x260] = a0\n 12652: a0 = s1 + 0x2060\n 12656: a1 = 0x40\n 12659: ra = 518, jump @7\n      : @554 [@dyn 259] (gas: 14)\n 12665: a4 = s1 + 0x19f8\n 12669: t0 = u64 [a4 + 0x680]\n 12673: a1 = a4 + 0x600\n 12677: a5 = u64 [a1 + 0x78]\n 12680: a3 = u64 [a1 + 0x70]\n 12683: a0 = u64 [a1 + 0x68]\n 12686: a2 = a3 | t0\n 12689: a1 = a0 | a5\n 12692: a1 = a1 | a2\n 12695: a1 = a1 >> 0x20\n 12698: a2 = a2 | a5\n 12701: a2 = a2 << 0x20\n 12704: a1 = a1 | a2\n 12707: jump @556 if a1 == 0\n      : @555 (gas: 1)\n 12710: jump @797\n      : @556 (gas: 16)\n 12713: a1 = u64 [s1 + 0x248]\n 12717: a1 = a1 << 0x20\n 12720: u64 [s1 + 0x270] = a3\n 12724: a3 = a1 >> 0x20\n 12727: u64 [a4 + 1632] = 0\n 12731: a1 = u64 [s1 + 0x250]\n 12735: a2 = a4 + 0x600\n 12739: u64 [a2 + 0x48] = a1\n 12742: a1 = u64 [s1 + 0x258]\n 12746: u64 [a2 + 0x50] = a1\n 12749: a1 = s1 + 0x2040\n 12753: u64 [a2 + 0x58] = a3\n 12756: u64 [s1 + 0x278] = a0\n 12760: u64 [s1 + 0x258] = t0\n 12764: u64 [s1 + 0x250] = a5\n 12768: ra = 520, jump @9\n      : @557 [@dyn 260] (gas: 12)\n 12774: a3 = s1 + 0x200\n 12778: a4 = u64 [a3 + 0x78]\n 12781: a0 = u64 [a3 + 0x58]\n 12784: a5 = u64 [a3 + 0x50]\n 12787: a5 = a5 | a0\n 12790: a2 = 0x100000000\n 12800: a0 = 0xffffffe0\n 12810: a0 = a4 <u a0\n 12813: a1 = u64 [a3 + 0x70]\n 12816: a0 = 0 if a1 != 0\n 12818: a0 = 0 if a5 != 0\n 12820: jump @559 if a0 != 0\n      : @558 (gas: 1)\n 12823: jump @797\n      : @559 (gas: 17)\n 12826: a1 = 0xffffffff\n 12836: u64 [s1 + 0x250] = a2\n 12840: a2 = u64 [s1 + 0x240]\n 12844: a2 = a2 & a1\n 12847: a1 = u64 [s1 + 0x230]\n 12851: a1 = a1 & 0xffffffffffffffff\n 12854: a3 = u64 [s1 + 0x238]\n 12858: a3 = a3 & 0xffffffffffffffff\n 12861: i32 a0 = a4 + 0x20\n 12864: a4 = s1 + 0x19f8\n 12868: u64 [a4 + 1600] = 0\n 12872: u64 [a4 + 0x628] = a3\n 12876: u64 [a4 + 0x630] = a1\n 12880: a1 = s1 + 0x2020\n 12884: u64 [a4 + 0x638] = a2\n 12888: u64 [s1 + 0x258] = a5\n 12892: ra = 522, jump @9\n      : @560 [@dyn 261] (gas: 10)\n 12898: a3 = s1 + 0x200\n 12902: a2 = u64 [a3 + 0x78]\n 12905: a0 = u64 [a3 + 0x50]\n 12908: a0 = a0 + 0xffffffffffffffc0\n 12911: a0 = a2 <u a0\n 12914: a1 = u64 [a3 + 0x70]\n 12917: a0 = 0 if a1 != 0\n 12919: a1 = u64 [a3 + 0x58]\n 12922: a0 = 0 if a1 != 0\n 12924: jump @562 if a0 != 0\n      : @561 (gas: 1)\n 12927: jump @797\n      : @562 (gas: 12)\n 12930: a0 = 0xff00000000\n 12940: a1 = u64 [s1 + 0x240]\n 12944: a0 = a0 & a1\n 12947: a1 = a0 >u 0\n 12949: i32 a0 = a2 + 0x40\n 12952: a2 = s1 + 0x19f8\n 12956: u64 [a2 + 1568] = 0\n 12960: u64 [a2 + 1560] = 0\n 12964: u64 [a2 + 0x608] = a1\n 12968: a1 = s1 + 0x2000\n 12972: u64 [a2 + 1552] = 0\n 12976: ra = 524, jump @9\n      : @563 [@dyn 262] (gas: 10)\n 12982: a4 = s1 + 0x200\n 12986: a2 = u64 [a4 + 0x78]\n 12989: a3 = 0x100000000\n 12999: a0 = 0xffffffa0\n 13009: a0 = a2 <u a0\n 13012: a1 = u64 [a4 + 0x70]\n 13015: a0 = 0 if a1 != 0\n 13017: a1 = u64 [a4 + 0x58]\n 13020: a0 = 0 if a1 != 0\n 13022: jump @565 if a0 != 0\n      : @564 (gas: 1)\n 13025: jump @797\n      : @565 (gas: 14)\n 13028: a0 = u64 [s1 + 0x240]\n 13032: a0 = a0 >> 0x28\n 13035: a1 = u64 [s1 + 0x228]\n 13039: a1 = a1 << 0x18\n 13042: a1 = a1 | a0\n 13045: i32 a0 = a2 + 0x60\n 13048: a2 = s1 + 0x19f8\n 13052: u64 [a2 + 1536] = 0\n 13056: u64 [a2 + 1528] = 0\n 13060: u64 [a2 + 0x5e8] = a1\n 13064: a1 = s1 + 0x1fe0\n 13068: u64 [a2 + 1520] = 0\n 13072: u64 [s1 + 0x250] = a3\n 13076: ra = 526, jump @9\n      : @566 [@dyn 263] (gas: 10)\n 13082: a3 = s1 + 0x200\n 13086: a2 = u64 [a3 + 0x78]\n 13089: a0 = u64 [a3 + 0x50]\n 13092: a0 = a0 + 0xffffffffffffff80\n 13095: a0 = a2 <u a0\n 13098: a1 = u64 [a3 + 0x70]\n 13101: a0 = 0 if a1 != 0\n 13103: a1 = u64 [a3 + 0x58]\n 13106: a0 = 0 if a1 != 0\n 13108: jump @568 if a0 != 0\n      : @567 (gas: 1)\n 13111: jump @797\n      : @568 (gas: 10)\n 13114: a0 = u64 [s1 + 0x220]\n 13118: a1 = a0 & 0xffffffffffffffff\n 13121: i32 a0 = a2 + 0x80\n 13125: a2 = s1 + 0x19f8\n 13129: u64 [a2 + 1504] = 0\n 13133: u64 [a2 + 1496] = 0\n 13137: u64 [a2 + 0x5c8] = a1\n 13141: a1 = s1 + 0x1fc0\n 13145: u64 [a2 + 1488] = 0\n 13149: ra = 528, jump @9\n      : @569 [@dyn 264] (gas: 10)\n 13155: a0 = s1 + 0x200\n 13159: a4 = u64 [a0 + 0x58]\n 13162: a3 = u64 [a0 + 0x70]\n 13165: a2 = u64 [a0 + 0x78]\n 13168: a1 = 0x100000000\n 13178: a0 = 0xffffff60\n 13188: a0 = a2 <u a0\n 13191: a0 = 0 if a3 != 0\n 13193: a0 = 0 if a4 != 0\n 13195: jump @571 if a0 != 0\n      : @570 (gas: 1)\n 13198: jump @797\n      : @571 (gas: 11)\n 13201: a0 = u64 [s1 + 0x218]\n 13205: u64 [s1 + 0x250] = a1\n 13209: a1 = a0 & 0xffffffffffffffff\n 13212: i32 a0 = a2 + 0xa0\n 13216: a2 = s1 + 0x19f8\n 13220: u64 [a2 + 1472] = 0\n 13224: u64 [a2 + 1464] = 0\n 13228: u64 [a2 + 0x5a8] = a1\n 13232: a1 = s1 + 0x1fa0\n 13236: u64 [a2 + 1456] = 0\n 13240: ra = 530, jump @9\n      : @572 [@dyn 265] (gas: 10)\n 13246: a2 = s1 + 0x200\n 13250: a3 = u64 [a2 + 0x78]\n 13253: a0 = u64 [a2 + 0x50]\n 13256: a0 = a0 + 0xffffffffffffff40\n 13260: a0 = a3 <u a0\n 13263: a1 = u64 [a2 + 0x70]\n 13266: a0 = 0 if a1 != 0\n 13268: a1 = u64 [a2 + 0x58]\n 13271: a0 = 0 if a1 != 0\n 13273: jump @574 if a0 != 0\n      : @573 (gas: 1)\n 13276: jump @797\n      : @574 (gas: 10)\n 13279: i32 a0 = a3 + 0xc0\n 13283: a4 = s1 + 0x19f8\n 13287: u64 [a4 + 1440] = 0\n 13291: u64 [a4 + 1432] = 0\n 13295: a1 = u64 [s1 + 0x260]\n 13299: u64 [a4 + 0x588] = a1\n 13303: a1 = s1 + 0x1f80\n 13307: a2 = u64 [s1 + 0x268]\n 13311: u64 [a4 + 0x590] = a2\n 13315: ra = 532, jump @9\n      : @575 [@dyn 266] (gas: 3)\n 13321: a1 = 0xe0\n 13325: a0 = u64 [s1 + 0x278]\n 13329: ra = 534, jump @18\n      : @576 [@dyn 267] (gas: 5)\n 13335: i32 a1 = a0 + 0\n 13337: a2 = 0xe0\n 13341: a0 = 0\n 13343: ecalli 13 // 'seal_return'\n 13345: jump @603\n      : @577 (gas: 9)\n 13348: u64 [a3 + 992] = 0\n 13352: u64 [a3 + 984] = 0\n 13356: u64 [a3 + 976] = 0\n 13360: u64 [a3 + 968] = 0\n 13364: a0 = s1 + 0x3000\n 13368: i32 a0 = a0 + 0x5c0\n 13372: ra = 0x218\n 13376: ecalli 16 // 'value_transferred'\n 13378: fallthrough\n      : @578 [@dyn 268] (gas: 3)\n 13379: a3 = s1 + 0x31f8\n 13383: a4 = a3 + 0x300\n 13387: t0 = 538, jump @1827\n      : @579 [@dyn 269] (gas: 1)\n 13394: jump @581 if a0 == 0\n      : @580 (gas: 1)\n 13397: jump @1141\n      : @581 (gas: 3)\n 13400: a0 = u64 [s1 + 0x278]\n 13404: a0 = i32 [a0]\n 13406: jump @583 if a0 >u 3\n      : @582 (gas: 1)\n 13410: jump @1142\n      : @583 (gas: 3)\n 13413: a0 = s1 + 0x2b20\n 13417: a1 = 0x40\n 13420: ra = 540, jump @7\n      : @584 [@dyn 270] (gas: 11)\n 13426: a0 = s1 + 0x29f8\n 13430: a2 = a0 + 0x100\n 13434: a1 = u64 [a2 + 0x40]\n 13437: u64 [s1 + 0x278] = a1\n 13441: a1 = u64 [a2 + 0x38]\n 13444: u64 [s1 + 0x270] = a1\n 13448: a1 = u64 [a2 + 0x30]\n 13451: u64 [s1 + 0x260] = a1\n 13455: a0 = u64 [a2 + 0x28]\n 13458: u64 [s1 + 0x268] = a0\n 13462: ra = 542, jump @0\n      : @585 [@dyn 271] (gas: 8)\n 13468: a4 = s1 + 0x200\n 13472: a0 = u64 [a4 + 0x78]\n 13475: a1 = u64 [a4 + 0x60]\n 13478: a0 = a0 | a1\n 13481: a1 = u64 [a4 + 0x68]\n 13484: a3 = a1\n 13486: a2 = u64 [a4 + 0x70]\n 13489: t0 = 544, jump @1823\n      : @586 [@dyn 272] (gas: 1)\n 13496: jump @588 if a0 == 0\n      : @587 (gas: 1)\n 13499: jump @797\n      : @588 (gas: 12)\n 13502: a2 = u64 [0x30220]\n 13507: a1 = u64 [0x30228]\n 13512: a0 = u32 [0x30230]\n 13517: a4 = s1 + 0x29f8\n 13521: u64 [a4 + 288] = 0\n 13525: a5 = a4 + 0x100\n 13529: u64 [a5 + 0x18] = a0\n 13532: u64 [a5 + 0x10] = a1\n 13535: a1 = s1 + 0x2b00\n 13539: u64 [a5 + 0x8] = a2\n 13542: a0 = a3\n 13544: ra = 546, jump @9\n      : @589 [@dyn 273] (gas: 4)\n 13550: a1 = 0x20\n 13553: a0 = u64 [s1 + 0x268]\n 13557: ra = 0x22c\n 13561: jump @18\n      : @590 (gas: 10)\n 13564: u64 [a3 + 192] = 0\n 13568: u64 [a3 + 184] = 0\n 13572: u64 [a3 + 176] = 0\n 13576: u64 [a3 + 168] = 0\n 13580: a0 = s1 + 0x3000\n 13584: i32 a0 = a0 + 0x2a0\n 13588: ecalli 16 // 'value_transferred'\n 13590: t0 = 0x224\n 13594: a3 = s1 + 0x31f8\n 13598: fallthrough\n      : @591 [@dyn 274] (gas: 8)\n 13599: a0 = u64 [a3 + 0xb8]\n 13603: a1 = u64 [a3 + 0xc0]\n 13607: a2 = u64 [a3 + 0xb0]\n 13611: a3 = u64 [a3 + 0xa8]\n 13615: a1 = a1 | a2\n 13618: a0 = a0 | a3\n 13621: a0 = a0 | a1\n 13624: jump @593 if a0 == 0\n      : @592 (gas: 1)\n 13627: jump @1143\n      : @593 (gas: 3)\n 13630: a0 = u64 [s1 + 0x278]\n 13634: a0 = i32 [a0]\n 13636: jump @595 if a0 >u 3\n      : @594 (gas: 1)\n 13640: jump @1144\n      : @595 (gas: 3)\n 13643: a0 = s1 + 0x2360\n 13647: a1 = 0x40\n 13650: ra = 550, jump @7\n      : @596 [@dyn 275] (gas: 7)\n 13656: a3 = s1 + 0x21f8\n 13660: a5 = a3 + 0x100\n 13664: a4 = u64 [a5 + 0x80]\n 13668: a1 = u64 [a5 + 0x78]\n 13671: a2 = u64 [a5 + 0x70]\n 13674: a0 = u64 [a5 + 0x68]\n 13677: t0 = 552, jump @1784\n      : @597 [@dyn 276] (gas: 1)\n 13683: jump @599 if a1 == 0\n      : @598 (gas: 1)\n 13686: jump @797\n      : @599 (gas: 7)\n 13689: u64 [a3 + 352] = 0\n 13693: u64 [a3 + 344] = 0\n 13697: u64 [a3 + 336] = 0\n 13701: a1 = s1 + 0x2340\n 13705: u64 [a3 + 328] = 0\n 13709: u64 [s1 + 0x278] = a0\n 13713: ra = 554, jump @9\n      : @600 [@dyn 277] (gas: 3)\n 13719: a1 = 0x20\n 13722: a0 = u64 [s1 + 0x278]\n 13726: ra = 556, jump @18\n      : @601 [@dyn 278] (gas: 5)\n 13732: i32 a1 = a0 + 0\n 13734: a2 = 0x20\n 13737: a0 = 0\n 13739: ecalli 13 // 'seal_return'\n 13741: jump @603\n      : @602 (gas: 4)\n 13743: a2 = 0x20\n 13746: a0 = 0\n 13748: ecalli 13 // 'seal_return'\n 13750: fallthrough\n      : @603 (gas: 9)\n 13751: u64 [a3 + 608] = 0\n 13755: u64 [a3 + 600] = 0\n 13759: u64 [a3 + 592] = 0\n 13763: u64 [a3 + 584] = 0\n 13767: a0 = s1 + 0x3000\n 13771: i32 a0 = a0 + 0x440\n 13775: ra = 0x22e\n 13779: ecalli 16 // 'value_transferred'\n 13781: fallthrough\n      : @604 [@dyn 279] (gas: 3)\n 13782: a3 = s1 + 0x31f8\n 13786: a4 = a3 + 0x200\n 13790: t0 = 560, jump @1824\n      : @605 [@dyn 280] (gas: 1)\n 13796: jump @607 if a0 == 0\n      : @606 (gas: 1)\n 13799: jump @1145\n      : @607 (gas: 1)\n 13802: t0 = 562, jump @1808\n      : @608 [@dyn 281] (gas: 1)\n 13808: jump @610 if a1 <u a0\n      : @609 (gas: 1)\n 13811: jump @1146\n      : @610 (gas: 6)\n 13814: a0 = s1 + 0x3000\n 13818: i32 a0 = a0 + 0x460\n 13822: a1 = 0x4\n 13825: ecalli 2 // 'call_data_load'\n 13827: a3 = s1 + 0x31f8\n 13831: fallthrough\n      : @611 (gas: 8)\n 13832: a0 = u64 [a3 + 0x278]\n 13836: a1 = u64 [a3 + 0x280]\n 13840: a2 = a0 ^ 0x1\n 13843: a2 = a2 | a1\n 13846: a0 = a0 <u 0x1\n 13849: a0 = 0 if a1 != 0\n 13851: a0 = 0 if a2 == 0\n 13853: jump @613 if a0 != 0\n      : @612 (gas: 1)\n 13856: jump @1147\n      : @613 (gas: 7)\n 13859: a0 = u64 [a3 + 0x270]\n 13863: u64 [s1 + 0x268] = a0\n 13867: a0 = u64 [a3 + 0x268]\n 13871: u64 [s1 + 0x270] = a0\n 13875: ra = 0x234\n 13879: t0 = 0x59c\n 13883: jump @1810\n      : @614 [@dyn 282] (gas: 3)\n 13886: a0 = s1 + 0x29c0\n 13890: a1 = 0x40\n 13893: ra = 566, jump @7\n      : @615 [@dyn 283] (gas: 14)\n 13899: a2 = s1 + 0x21f8\n 13903: t0 = u64 [a2 + 0x7e0]\n 13907: a1 = a2 + 0x700\n 13911: a5 = u64 [a1 + 0xd8]\n 13915: a4 = u64 [a1 + 0xd0]\n 13919: a0 = u64 [a1 + 0xc8]\n 13923: a3 = a4 | t0\n 13926: a1 = a0 | a5\n 13929: a1 = a1 | a3\n 13932: a1 = a1 >> 0x20\n 13935: a3 = a3 | a5\n 13938: a3 = a3 << 0x20\n 13941: a1 = a1 | a3\n 13944: jump @617 if a1 == 0\n      : @616 (gas: 1)\n 13947: jump @797\n      : @617 (gas: 11)\n 13950: u64 [s1 + 0x238] = t0\n 13954: u64 [s1 + 0x240] = a5\n 13958: u64 [s1 + 0x248] = a4\n 13962: u64 [a2 + 1976] = 0\n 13966: u64 [a2 + 1968] = 0\n 13970: u64 [a2 + 1960] = 0\n 13974: a3 = 0x64c9ec6f00000000\n 13984: a1 = s1 + 0x29a0\n 13988: u64 [a2 + 0x7c0] = a3\n 13992: u64 [s1 + 0x278] = a0\n 13996: ra = 568, jump @9\n      : @618 [@dyn 284] (gas: 1)\n 14002: ra = 570, jump @0\n      : @619 [@dyn 285] (gas: 35)\n 14008: a1 = u64 [0x30220]\n 14013: u64 [s1 + 0x260] = a1\n 14017: a1 = u64 [0x30230]\n 14022: u64 [s1 + 0x258] = a1\n 14026: a0 = u64 [0x30228]\n 14031: u64 [s1 + 0x250] = a0\n 14035: ecalli 10 // 'ref_time_left'\n 14037: a0 = u64 [s1 + 0x250]\n 14041: a0 = reverse a0\n 14043: a1 = a0 << 0x20\n 14046: a2 = u64 [s1 + 0x258]\n 14050: a2 = reverse a2\n 14052: a2 = a2 >> 0x20\n 14055: a1 = a1 | a2\n 14058: a0 = a0 >> 0x20\n 14061: a2 = u64 [s1 + 0x260]\n 14065: a2 = reverse a2\n 14067: a4 = 0x30200\n 14072: a3 = a2 << 0x20\n 14075: a0 = a0 | a3\n 14078: a2 = a2 >> 0x20\n 14081: u64 [s1 + 0x260] = a4\n 14085: u32 [0x30210] = a2\n 14090: u64 [0x30208] = a0\n 14095: u64 [0x30200] = a1\n 14100: a1 = s1 + 0x31f8\n 14104: u64 [a1 + 672] = 0\n 14108: u64 [a1 + 664] = 0\n 14112: a0 = u64 [s1 + 0x268]\n 14116: u64 [a1 + 0x290] = a0\n 14120: a0 = u64 [s1 + 0x270]\n 14124: u64 [a1 + 0x288] = a0\n 14128: a1 = 0x4\n 14131: a0 = u64 [s1 + 0x278]\n 14135: ra = 572, jump @18\n      : @620 [@dyn 286] (gas: 4)\n 14141: u64 [s1 + 0x270] = a0\n 14145: a1 = 0x20\n 14148: a0 = u64 [s1 + 0x278]\n 14152: ra = 574, jump @18\n      : @621 [@dyn 287] (gas: 33)\n 14158: a2 = s1 + 0x31f8\n 14162: u32 [a2 + 680] = 0x20\n 14167: a3 = a2 + 0x200\n 14171: u64 [a3 + 224] = 0xffffffffffffffff\n 14176: u64 [a3 + 216] = 0xffffffffffffffff\n 14181: u64 [a3 + 208] = 0xffffffffffffffff\n 14186: u64 [a3 + 200] = 0xffffffffffffffff\n 14191: a1 = u64 [s1 + 0x260]\n 14195: a1 = a1 << 0x20\n 14198: a1 = a1 >> 0x20\n 14201: a3 = 0x800000000\n 14211: t0 = a1 | a3\n 14214: a1 = s1 + 0x3480\n 14218: a1 = a1 << 0x20\n 14221: a1 = a1 >> 0x20\n 14224: a3 = s1 + 0x34c0\n 14228: a3 = a3 << 0x20\n 14231: a3 = a3 | a1\n 14234: a1 = u64 [s1 + 0x270]\n 14238: a1 = a1 << 0x20\n 14241: a1 = a1 >> 0x20\n 14244: a2 = 0x400000000\n 14254: a4 = a1 | a2\n 14257: a0 = a0 << 0x20\n 14260: a0 = a0 >> 0x20\n 14263: a1 = s1 + 0x34a0\n 14267: a1 = a1 << 0x20\n 14270: a5 = a1 | a0\n 14273: a1 = 0xffffffffffffffff\n 14276: a2 = 0xffffffffffffffff\n 14279: a0 = t0\n 14281: ecalli 0 // 'call'\n 14282: fallthrough\n      : @622 (gas: 1)\n 14283: jump @624 if a0 != 0\n      : @623 (gas: 1)\n 14286: jump @1148\n      : @624 (gas: 3)\n 14289: a0 = s1 + 0x2980\n 14293: a1 = 0x40\n 14296: ra = 576, jump @7\n      : @625 [@dyn 288] (gas: 14)\n 14302: a0 = s1 + 0x21f8\n 14306: a2 = a0 + 0x700\n 14310: a1 = u64 [a2 + 0xa0]\n 14314: u64 [s1 + 0x270] = a1\n 14318: a1 = u64 [a2 + 0x98]\n 14322: u64 [s1 + 0x268] = a1\n 14326: a1 = u64 [a2 + 0x90]\n 14330: u64 [s1 + 0x260] = a1\n 14334: a0 = u64 [a2 + 0x88]\n 14338: u64 [s1 + 0x278] = a0\n 14342: ra = 0x242\n 14346: ecalli 12 // 'return_data_size'\n 14348: t0 = 0x244\n 14352: jump @1779\n      : @626 [@dyn 289] (gas: 1)\n 14355: t0 = 580, jump @1779\n      : @627 [@dyn 290] (gas: 1)\n 14361: jump @629 if a1 == 0\n      : @628 (gas: 1)\n 14364: jump @797\n      : @629 (gas: 3)\n 14367: a2 = a0\n 14369: a0 = a0 >> 0x20\n 14372: jump @631 if a0 == 0\n      : @630 (gas: 1)\n 14375: jump @797\n      : @631 (gas: 1)\n 14378: t0 = 582, jump @1805\n      : @632 [@dyn 291] (gas: 1)\n 14384: ra = 584, jump @18\n      : @633 [@dyn 292] (gas: 11)\n 14390: a1 = s1 + 0x31f8\n 14394: a2 = u64 [s1 + 0x268]\n 14398: u32 [a1 + 0x2e8] = a2\n 14402: i32 a0 = a0 + 0\n 14404: a1 = s1 + 0x3000\n 14408: i32 a1 = a1 + 0x4e0\n 14412: a2 = 0\n 14414: ecalli 11 // 'return_data_copy'\n 14416: a0 = s1 + 0x31f8\n 14420: a0 = i32 [a0 + 0x2e8]\n 14424: fallthrough\n      : @634 (gas: 2)\n 14425: a1 = u64 [s1 + 0x270]\n 14429: jump @636 if a0 >=u a1\n      : @635 (gas: 1)\n 14432: jump @797\n      : @636 (gas: 2)\n 14435: ecalli 12 // 'return_data_size'\n 14437: fallthrough\n      : @637 (gas: 3)\n 14438: a1 = a0\n 14440: a0 = a0 >> 0x20\n 14443: jump @639 if a0 == 0\n      : @638 (gas: 1)\n 14446: jump @797\n      : @639 (gas: 3)\n 14449: a0 = u64 [s1 + 0x278]\n 14453: u64 [s1 + 0x270] = a1\n 14457: ra = 586, jump @18\n      : @640 [@dyn 293] (gas: 6)\n 14463: i32 a1 = a0 + 0\n 14465: a2 = i32 [s1 + 0x270]\n 14469: a0 = 0x1\n 14472: ecalli 13 // 'seal_return'\n 14474: a1 = 0x20200\n 14479: jump @799\n      : @641 (gas: 17)\n 14482: a0 = 0xffffff00ffffffff\n 14492: a1 = u64 [s1 + 0x240]\n 14496: a0 = a0 & a1\n 14499: a1 = 0x100000000\n 14509: a0 = a0 | a1\n 14512: a2 = s1 + 0x31f8\n 14516: a1 = u64 [s1 + 0x200]\n 14520: a3 = a2 + 0x100\n 14524: u64 [a3 + 0x48] = a1\n 14527: a1 = u64 [s1 + 0x208]\n 14531: u64 [a3 + 0x50] = a1\n 14534: a1 = u64 [s1 + 0x248]\n 14538: u64 [a3 + 0x60] = a1\n 14541: u64 [a3 + 0x58] = a0\n 14544: a1 = s1 + 0x3340\n 14548: a0 = u64 [s1 + 0x210]\n 14552: ra = 588, jump @12\n      : @642 [@dyn 294] (gas: 22)\n 14558: a5 = s1 + 0x200\n 14562: a1 = u64 [a5 + 0x50]\n 14565: a0 = a1 + 0x4\n 14568: a1 = a0 <u a1\n 14571: a3 = u64 [a5 + 0x58]\n 14574: a2 = a3 + a1\n 14577: a3 = a2 <u a3\n 14580: a3 = a1 if a1 == 0\n 14583: a1 = u64 [a5 + 0x68]\n 14586: a3 = a3 + a1\n 14589: a1 = a3 <u a1\n 14592: a4 = u64 [a5 + 0x60]\n 14595: a1 = a1 + a4\n 14598: a4 = s1 + 0x31f8\n 14602: a5 = a4 + 0x100\n 14606: u64 [a5 + 0x78] = a3\n 14609: u64 [a5 + 0x70] = a2\n 14612: u64 [a5 + 0x68] = a0\n 14615: u64 [a5 + 0x80] = a1\n 14619: a0 = s1 + 0x2660\n 14623: a1 = s1 + 0x3360\n 14627: ra = 590, jump @11\n      : @643 [@dyn 295] (gas: 6)\n 14633: a0 = u64 [s1 + 0x1f8]\n 14637: a1 = a0 & 0xffffffffffffffff\n 14640: ra = u64 [s1 + 0x238]\n 14644: a0 = ra <u a1\n 14647: a2 = -a0\n 14649: jump @645 if a2 == 0\n      : @644 (gas: 1)\n 14652: jump @1154\n      : @645 (gas: 36)\n 14655: t2 = s1 + 0x21f8\n 14659: t0 = u64 [t2 + 0x468]\n 14663: a4 = u64 [t2 + 0x470]\n 14667: a1 = ra - a1\n 14670: a3 = t0 mulhu a1\n 14673: a5 = a4 * a1\n 14676: a0 = a5 + a3\n 14679: a3 = a0 <u a5\n 14682: a5 = a4 mulhu a1\n 14685: a5 = a5 + a3\n 14688: a3 = t0 * a2\n 14691: a0 = a0 + a3\n 14694: u64 [s1 + 0x268] = a0\n 14698: t1 = a0 <u a3\n 14701: a0 = a4 * a2\n 14704: a4 = a4 mulhu a2\n 14707: a2 = t0 mulhu a2\n 14710: t1 = t1 + a2\n 14713: t1 = t1 + a5\n 14716: a5 = t1 <u a5\n 14719: t1 = t1 + a0\n 14722: a4 = a4 + a5\n 14725: a5 = t1 <u a0\n 14728: a4 = a4 + a5\n 14731: a0 = a0 + a2\n 14734: a0 = a0 + a3\n 14737: a3 = a3 + t1\n 14740: a2 = a3 <u t1\n 14743: a0 = a0 + a4\n 14746: a0 = a0 + a2\n 14749: a2 = a0 >u 0\n 14751: a4 = a3 >u 0\n 14753: a4 = a2 if a0 != 0\n 14756: a0 = a0 | a3\n 14759: a4 = 0 if a0 == 0\n 14761: jump @647 if a4 == 0\n      : @646 (gas: 1)\n 14764: jump @1161\n      : @647 (gas: 1)\n 14767: jump @649 if ra != 0\n      : @648 (gas: 1)\n 14770: jump @1168\n      : @649 (gas: 5)\n 14773: a0 = t0 * a1\n 14776: u64 [s1 + 0x260] = a0\n 14780: a0 = s1 + 0x2640\n 14784: a1 = u64 [s1 + 0x270]\n 14788: ra = 592, jump @11\n      : @650 [@dyn 296] (gas: 12)\n 14794: a0 = s1 + 0x21f8\n 14798: a2 = a0 + 0x400\n 14802: a1 = u64 [a2 + 0x48]\n 14805: u64 [s1 + 0x270] = a1\n 14809: a1 = u64 [a2 + 0x58]\n 14812: u64 [s1 + 0x258] = a1\n 14816: a0 = u64 [a2 + 0x50]\n 14819: u64 [s1 + 0x250] = a0\n 14823: a0 = u64 [s1 + 0x260]\n 14827: a1 = u64 [s1 + 0x268]\n 14831: a2 = u64 [s1 + 0x238]\n 14835: ra = 594, jump @1838\n      : @651 [@dyn 297] (gas: 58)\n 14841: u64 [s1 + 0x268] = a0\n 14845: u64 [s1 + 0x260] = a1\n 14849: ecalli 10 // 'ref_time_left'\n 14851: a1 = u64 [s1 + 0x250]\n 14855: a1 = reverse a1\n 14857: a2 = a1 << 0x20\n 14860: a3 = u64 [s1 + 0x258]\n 14864: a3 = reverse a3\n 14866: a3 = a3 >> 0x20\n 14869: a2 = a2 | a3\n 14872: a1 = a1 >> 0x20\n 14875: a3 = u64 [s1 + 0x270]\n 14879: a3 = reverse a3\n 14881: a4 = a3 << 0x20\n 14884: a1 = a1 | a4\n 14887: a3 = a3 >> 0x20\n 14890: a4 = u64 [s1 + 0x278]\n 14894: u32 [a4 + 0x10] = a3\n 14897: u64 [a4 + 0x8] = a1\n 14900: u64 [a4] = a2\n 14902: a2 = s1 + 0x31f8\n 14906: u64 [a2 + 416] = 0\n 14910: u64 [a2 + 408] = 0\n 14914: a1 = u64 [s1 + 0x260]\n 14918: a3 = a2 + 0x100\n 14922: u64 [a3 + 0x90] = a1\n 14926: a1 = u64 [s1 + 0x268]\n 14930: u64 [a3 + 0x88] = a1\n 14934: u32 [a2 + 424] = 0\n 14938: a0 = a0 >u 0x8fc\n 14942: a1 = -a0\n 14944: u64 [a3 + 0xe0] = a1\n 14948: u64 [a3 + 0xd8] = a1\n 14952: u64 [a3 + 0xd0] = a1\n 14956: u64 [a3 + 0xc8] = a1\n 14960: a1 = a4 << 0x20\n 14963: a1 = a1 >> 0x20\n 14966: a0 = a0 << 0x23\n 14969: a0 = a0 | a1\n 14972: a1 = s1 + 0x3380\n 14976: a1 = a1 << 0x20\n 14979: a1 = a1 >> 0x20\n 14982: a4 = 0x20200\n 14987: a2 = s1 + 0x33c0\n 14991: a2 = a2 << 0x20\n 14994: a3 = a2 | a1\n 14997: u64 [s1 + 0x248] = a4\n 15001: a4 = a4 << 0x20\n 15004: a4 = a4 >> 0x20\n 15007: a1 = s1 + 0x33a0\n 15011: a1 = a1 << 0x20\n 15014: a5 = a1 | a4\n 15017: a1 = 0xffffffffffffffff\n 15020: a2 = 0xffffffffffffffff\n 15023: ecalli 0 // 'call'\n 15024: u64 [s1 + 0x278] = a0\n 15028: ecalli 12 // 'return_data_size'\n 15030: fallthrough\n      : @652 (gas: 2)\n 15031: a2 = u64 [s1 + 0x278]\n 15035: jump @728 if a0 != 0\n      : @653 (gas: 1)\n 15039: jump @655 if a2 != 0\n      : @654 (gas: 1)\n 15042: jump @1186\n      : @655 (gas: 3)\n 15045: a0 = s1 + 0x25a0\n 15049: a1 = 0x40\n 15052: ra = 596, jump @7\n      : @656 [@dyn 298] (gas: 14)\n 15058: a2 = s1 + 0x21f8\n 15062: t0 = u64 [a2 + 0x3c0]\n 15066: a1 = a2 + 0x300\n 15070: a5 = u64 [a1 + 0xb8]\n 15074: a4 = u64 [a1 + 0xb0]\n 15078: a0 = u64 [a1 + 0xa8]\n 15082: a3 = a4 | t0\n 15085: a1 = a0 | a5\n 15088: a1 = a1 | a3\n 15091: a1 = a1 >> 0x20\n 15094: a3 = a3 | a5\n 15097: a3 = a3 << 0x20\n 15100: a1 = a1 | a3\n 15103: jump @658 if a1 == 0\n      : @657 (gas: 1)\n 15106: jump @797\n      : @658 (gas: 11)\n 15109: u64 [a2 + 920] = 0\n 15113: u64 [a2 + 912] = 0\n 15117: u64 [a2 + 904] = 0\n 15121: a3 = 0x8c379a000000000\n 15131: a1 = s1 + 0x2580\n 15135: u64 [a2 + 0x3a0] = a3\n 15139: u64 [s1 + 0x278] = a0\n 15143: u64 [s1 + 0x270] = a4\n 15147: u64 [s1 + 0x260] = t0\n 15151: u64 [s1 + 0x268] = a5\n 15155: ra = 598, jump @9\n      : @659 [@dyn 299] (gas: 6)\n 15161: a5 = s1 + 0x200\n 15165: a1 = u64 [a5 + 0x78]\n 15168: a0 = u64 [a5 + 0x68]\n 15171: a3 = u64 [a5 + 0x60]\n 15174: a3 = a3 | a0\n 15177: t0 = 600, jump @1785\n      : @660 [@dyn 300] (gas: 1)\n 15183: jump @662 if a0 != 0\n      : @661 (gas: 1)\n 15186: jump @797\n      : @662 (gas: 10)\n 15189: i32 a0 = a1 + 0x4\n 15192: a2 = s1 + 0x21f8\n 15196: u64 [a2 + 896] = 0\n 15200: u64 [a2 + 888] = 0\n 15204: u64 [a2 + 872] = 0x20\n 15209: a1 = s1 + 0x2560\n 15213: u64 [a2 + 880] = 0\n 15217: u64 [s1 + 0x268] = a3\n 15221: u64 [s1 + 0x260] = a4\n 15225: ra = 602, jump @9\n      : @663 [@dyn 301] (gas: 1)\n 15231: t0 = 604, jump @1799\n      : @664 [@dyn 302] (gas: 1)\n 15237: jump @666 if a0 != 0\n      : @665 (gas: 1)\n 15240: jump @797\n      : @666 (gas: 8)\n 15243: i32 a0 = a1 + 0x24\n 15246: a3 = s1 + 0x21f8\n 15250: u64 [a3 + 864] = 0\n 15254: u64 [a3 + 856] = 0\n 15258: u64 [a3 + 840] = 0xf\n 15263: a1 = s1 + 0x2540\n 15267: u64 [a3 + 848] = 0\n 15271: ra = 606, jump @9\n      : @667 [@dyn 303] (gas: 1)\n 15277: t0 = 608, jump @1775\n      : @668 [@dyn 304] (gas: 1)\n 15283: jump @670 if a0 != 0\n      : @669 (gas: 1)\n 15286: jump @797\n      : @670 (gas: 10)\n 15289: i32 a0 = a3 + 0x44\n 15292: a1 = u64 [0x20000]\n 15297: a2 = u64 [0x20008]\n 15302: a4 = s1 + 0x21f8\n 15306: u64 [a4 + 0x340] = a1\n 15310: u64 [a4 + 816] = 0\n 15314: u64 [a4 + 0x338] = a2\n 15318: a1 = s1 + 0x2520\n 15322: u64 [a4 + 808] = 0\n 15326: ra = 610, jump @9\n      : @671 [@dyn 305] (gas: 3)\n 15332: a1 = 0x64\n 15335: a0 = u64 [s1 + 0x278]\n 15339: ra = 612, jump @18\n      : @672 [@dyn 306] (gas: 5)\n 15345: i32 a1 = a0 + 0\n 15347: a0 = 0x1\n 15350: a2 = 0x64\n 15353: ecalli 13 // 'seal_return'\n 15355: fallthrough\n      : @673 (gas: 7)\n 15356: u64 [a4 + 1408] = 0\n 15360: u64 [a4 + 1400] = 0\n 15364: u64 [a4 + 1392] = 0\n 15368: u64 [a4 + 1384] = 0x1\n 15373: a0 = s1 + 0x1f00\n 15377: a1 = s1 + 0x2f60\n 15381: ra = 614, jump @11\n      : @674 [@dyn 307] (gas: 12)\n 15387: t0 = s1 + 0x19f8\n 15391: a0 = t0 + 0x500\n 15395: a4 = u64 [a0 + 0x20]\n 15398: a5 = u64 [a0 + 0x18]\n 15401: a3 = u64 [a0 + 0x10]\n 15404: a0 = a4 >u 0\n 15406: a1 = a5 >u 0\n 15408: a1 = a0 if a4 != 0\n 15411: a0 = a5 | a4\n 15414: a2 = a3 >u 0\n 15416: a2 = a1 if a0 != 0\n 15419: jump @676 if a2 == 0\n      : @675 (gas: 1)\n 15422: jump @1175\n      : @676 (gas: 25)\n 15425: a0 = u64 [t0 + 0x508]\n 15429: u64 [s1 + 0x188] = a0\n 15433: a0 = a0 + 0x1\n 15436: a2 = s1 + 0x29f8\n 15440: u64 [a2 + 1416] = 0x1\n 15445: a1 = a0 <u 0x1\n 15448: a1 = a1 + a3\n 15451: u64 [a2 + 0x5a8] = a0\n 15455: a0 = a0 | a1\n 15458: u64 [a2 + 0x5b0] = a1\n 15462: a0 = a0 <u 0x1\n 15465: a0 = a0 + a5\n 15468: u64 [a2 + 0x5b8] = a0\n 15472: a0 = a0 <u a5\n 15475: a0 = a0 + a4\n 15478: u64 [a2 + 0x5c0] = a0\n 15482: u64 [a2 + 1440] = 0\n 15486: u64 [a2 + 1432] = 0\n 15490: u64 [a2 + 1424] = 0\n 15494: a0 = s1 + 0x2f80\n 15498: a1 = s1 + 0x2fa0\n 15502: u64 [s1 + 0x1a0] = a4\n 15506: u64 [s1 + 0x198] = a5\n 15510: u64 [s1 + 0x190] = a3\n 15514: ra = 616, jump @12\n      : @677 [@dyn 308] (gas: 13)\n 15520: a3 = s1 + 0x19f8\n 15524: a0 = u64 [s1 + 0x1a0]\n 15528: a4 = a3 + 0x400\n 15532: u64 [a4 + 0xc0] = a0\n 15536: a0 = u64 [s1 + 0x198]\n 15540: u64 [a4 + 0xb8] = a0\n 15544: a0 = u64 [s1 + 0x190]\n 15548: u64 [a4 + 0xb0] = a0\n 15552: a0 = s1 + 0x1ec0\n 15556: a1 = s1 + 0x1ea0\n 15560: a2 = u64 [s1 + 0x188]\n 15564: u64 [a4 + 0xa8] = a2\n 15568: ra = 618, jump @1373\n      : @678 [@dyn 309] (gas: 17)\n 15574: a0 = sp + 0xffffffffffffffe0\n 15577: a0 = a0 & 0xffffffffffffffe0\n 15580: u64 [s1 + 0x250] = a0\n 15584: sp = a0\n 15586: a3 = s1 + 0x19f8\n 15590: a0 = u64 [s1 + 0x1a0]\n 15594: a4 = a3 + 0x400\n 15598: u64 [a4 + 0x60] = a0\n 15601: a0 = u64 [s1 + 0x198]\n 15605: u64 [a4 + 0x58] = a0\n 15608: a0 = u64 [s1 + 0x190]\n 15612: u64 [a4 + 0x50] = a0\n 15615: a0 = s1 + 0x1e60\n 15619: a1 = s1 + 0x1e40\n 15623: a2 = u64 [s1 + 0x188]\n 15627: u64 [a4 + 0x48] = a2\n 15630: ra = 620, jump @1373\n      : @679 [@dyn 310] (gas: 40)\n 15636: a0 = s1 + 0x19f8\n 15640: a5 = a0 + 0x400\n 15644: a4 = u64 [a5 + 0x78]\n 15647: u64 [s1 + 0x268] = a4\n 15651: a1 = u64 [a5 + 0x80]\n 15655: u64 [s1 + 0x260] = a1\n 15659: a3 = u64 [a5 + 0x68]\n 15662: u64 [s1 + 0x248] = a3\n 15666: a2 = u64 [a5 + 0x70]\n 15669: u64 [s1 + 0x258] = a2\n 15673: a0 = u64 [s1 + 0x250]\n 15677: u64 [a0 + 0x10] = a4\n 15680: u64 [a0 + 0x18] = a1\n 15683: u64 [a0] = a3\n 15685: u64 [a0 + 0x8] = a2\n 15688: a0 = 0x30200\n 15693: u64 [s1 + 0x180] = a0\n 15697: i32 a0 = a0 + 0\n 15699: u64 [s1 + 0x178] = a0\n 15703: ecalli 4 // 'caller'\n 15705: a2 = u64 [s1 + 0x180]\n 15709: a0 = u64 [a2 + 0x8]\n 15712: a1 = i32 [a2 + 0x10]\n 15715: a2 = u64 [a2]\n 15717: a0 = reverse a0\n 15719: a3 = a0 << 0x20\n 15722: a1 = reverse a1\n 15724: a1 = a1 >> 0x20\n 15727: a1 = a1 | a3\n 15730: u64 [s1 + 0x210] = a1\n 15734: a0 = a0 >> 0x20\n 15737: a1 = reverse a2\n 15739: a2 = a1 << 0x20\n 15742: a0 = a0 | a2\n 15745: u64 [s1 + 0x208] = a0\n 15749: a1 = a1 >> 0x20\n 15752: u64 [s1 + 0x200] = a1\n 15756: a0 = s1 + 0x1e20\n 15760: a1 = u64 [s1 + 0x250]\n 15764: ra = 622, jump @11\n      : @680 [@dyn 311] (gas: 17)\n 15770: a1 = s1 + 0x19f8\n 15774: a0 = u32 [a1 + 0x43c]\n 15778: a1 = u64 [a1 + 0x440]\n 15782: a0 = a0 << 0x20\n 15785: a2 = u64 [s1 + 0x200]\n 15789: a0 = a0 | a2\n 15792: a2 = s1 + 0x29f8\n 15796: a3 = a2 + 0x500\n 15800: u64 [a3 + 0xe0] = a1\n 15804: a1 = u64 [s1 + 0x208]\n 15808: u64 [a3 + 0xd0] = a1\n 15812: a1 = u64 [s1 + 0x210]\n 15816: u64 [a3 + 0xc8] = a1\n 15820: u64 [a3 + 0xd8] = a0\n 15824: a1 = s1 + 0x2fc0\n 15828: a0 = u64 [s1 + 0x250]\n 15832: ra = 624, jump @12\n      : @681 [@dyn 312] (gas: 27)\n 15838: a0 = sp + 0xffffffffffffffe0\n 15841: a5 = a0 & 0xffffffffffffffe0\n 15844: sp = a5\n 15846: a0 = u64 [s1 + 0x248]\n 15850: a0 = a0 + 0x1\n 15853: a1 = a0 <u 0x1\n 15856: a2 = u64 [s1 + 0x258]\n 15860: a1 = a1 + a2\n 15863: a2 = a0 | a1\n 15866: a2 = a2 <u 0x1\n 15869: a3 = u64 [s1 + 0x268]\n 15873: a2 = a2 + a3\n 15876: a3 = a2 <u a3\n 15879: a4 = u64 [s1 + 0x260]\n 15883: a3 = a3 + a4\n 15886: u64 [a5 + 0x18] = a3\n 15889: u64 [a5 + 0x10] = a2\n 15892: u64 [a5 + 0x8] = a1\n 15895: u64 [a5] = a0\n 15897: a1 = a5\n 15899: u64 [s1 + 0x1a8] = a5\n 15903: a0 = u64 [s1 + 0x218]\n 15907: a0 = a0 << 0x20\n 15910: a0 = a0 >> 0x20\n 15913: u64 [s1 + 0x250] = a0\n 15917: a0 = s1 + 0x1e00\n 15921: ra = 626, jump @11\n      : @682 [@dyn 313] (gas: 17)\n 15927: a1 = s1 + 0x19f8\n 15931: a0 = u32 [a1 + 0x41c]\n 15935: a0 = a0 << 0x20\n 15938: a1 = u64 [a1 + 0x420]\n 15942: a2 = u64 [s1 + 0x250]\n 15946: a0 = a0 | a2\n 15949: a2 = u64 [s1 + 0x220]\n 15953: a3 = s1 + 0x29f8\n 15957: a4 = a3 + 0x500\n 15961: u64 [a4 + 0xf0] = a2\n 15965: a2 = u64 [s1 + 0x228]\n 15969: u64 [a4 + 0xe8] = a2\n 15973: u64 [a3 + 0x600] = a1\n 15977: u64 [a4 + 0xf8] = a0\n 15981: a1 = s1 + 0x2fe0\n 15985: a0 = u64 [s1 + 0x1a8]\n 15989: ra = 628, jump @12\n      : @683 [@dyn 314] (gas: 4)\n 15995: a0 = s1 + 0x1de0\n 15999: ra = 0x276\n 16003: t0 = 0x596\n 16007: jump @1793\n      : @684 [@dyn 315] (gas: 6)\n 16010: a0 = s1 + 0x19f8\n 16014: a0 = u64 [a0 + 0x3e8]\n 16018: u64 [s1 + 0x250] = a0\n 16022: a0 = s1 + 0x1dc0\n 16026: a1 = u64 [s1 + 0x1a8]\n 16030: ra = 632, jump @11\n      : @685 [@dyn 316] (gas: 24)\n 16036: a3 = s1 + 0x19f8\n 16040: a4 = a3 + 0x300\n 16044: a0 = u64 [a4 + 0xc8]\n 16048: a1 = u64 [a4 + 0xd0]\n 16052: a2 = u64 [a4 + 0xe0]\n 16056: a3 = u64 [a4 + 0xd8]\n 16060: a5 = u64 [s1 + 0x250]\n 16064: a4 = a5 >> 0x18\n 16067: a5 = a5 << 0x28\n 16070: a2 = a2 >> 0x28\n 16073: a2 = a2 << 0x28\n 16076: a3 = a3 << 0x18\n 16079: a3 = a3 >> 0x18\n 16082: a3 = a3 | a5\n 16085: a2 = a2 | a4\n 16088: a4 = s1 + 0x29f8\n 16092: a5 = a4 + 0x600\n 16096: u64 [a5 + 0x10] = a1\n 16099: u64 [a5 + 0x8] = a0\n 16102: u64 [a5 + 0x20] = a2\n 16105: u64 [a5 + 0x18] = a3\n 16108: a1 = s1 + 0x3000\n 16112: a0 = u64 [s1 + 0x1a8]\n 16116: ra = 634, jump @12\n      : @686 [@dyn 317] (gas: 5)\n 16122: a0 = sp + 0xffffffffffffffe0\n 16125: a5 = a0 & 0xffffffffffffffe0\n 16128: sp = a5\n 16130: a1 = u64 [s1 + 0x248]\n 16134: t0 = 636, jump @1790\n      : @687 [@dyn 318] (gas: 9)\n 16140: a4 = a4 + a1\n 16143: a1 = a5\n 16145: u64 [s1 + 0x250] = a5\n 16149: u64 [a5 + 0x18] = a4\n 16152: u64 [a5 + 0x10] = a3\n 16155: u64 [a5 + 0x8] = a2\n 16158: u64 [a5] = a0\n 16160: a0 = s1 + 0x1da0\n 16164: ra = 638, jump @11\n      : @688 [@dyn 319] (gas: 21)\n 16170: a2 = s1 + 0x19f8\n 16174: a3 = a2 + 0x300\n 16178: a0 = u64 [a3 + 0xb0]\n 16182: a1 = u64 [a3 + 0xb8]\n 16186: a2 = u64 [a3 + 0xc0]\n 16190: a3 = u64 [s1 + 0x230]\n 16194: a0 = a0 | a3\n 16197: a3 = u64 [s1 + 0x238]\n 16201: a1 = a1 | a3\n 16204: a3 = u64 [s1 + 0x240]\n 16208: a2 = a2 | a3\n 16211: a3 = s1 + 0x29f8\n 16215: a4 = u64 [s1 + 0x270]\n 16219: a5 = a3 + 0x600\n 16223: u64 [a5 + 0x28] = a4\n 16226: u64 [a5 + 0x40] = a2\n 16229: u64 [a5 + 0x38] = a1\n 16232: u64 [a5 + 0x30] = a0\n 16235: a1 = s1 + 0x3020\n 16239: a0 = u64 [s1 + 0x250]\n 16243: ra = 640, jump @12\n      : @689 [@dyn 320] (gas: 36)\n 16249: a0 = sp + 0xffffffffffffffe0\n 16252: a5 = a0 & 0xffffffffffffffe0\n 16255: sp = a5\n 16257: a1 = u64 [s1 + 0x248]\n 16261: a0 = a1 + 0x4\n 16264: a1 = a0 <u a1\n 16267: a3 = u64 [s1 + 0x258]\n 16271: a2 = a3 + a1\n 16274: a3 = a2 <u a3\n 16277: a3 = a1 if a1 == 0\n 16280: a1 = u64 [s1 + 0x268]\n 16284: a3 = a3 + a1\n 16287: a1 = a3 <u a1\n 16290: a4 = u64 [s1 + 0x260]\n 16294: a1 = a1 + a4\n 16297: u64 [s1 + 0x240] = a5\n 16301: u64 [a5 + 0x18] = a1\n 16304: u64 [a5 + 0x10] = a3\n 16307: u64 [a5 + 0x8] = a2\n 16310: u64 [a5] = a0\n 16312: a0 = s1 + 0x29f8\n 16316: u64 [a0 + 1632] = 0\n 16320: u64 [a0 + 1624] = 0\n 16324: u64 [a0 + 1616] = 0\n 16328: u64 [a0 + 1608] = 0\n 16332: a0 = s1 + 0x3000\n 16336: i32 a0 = a0 + 0x40\n 16339: ecalli 16 // 'value_transferred'\n 16341: a0 = s1 + 0x29f8\n 16345: a1 = u64 [a0 + 0x648]\n 16349: u64 [s1 + 0x238] = a1\n 16353: a1 = u64 [a0 + 0x650]\n 16357: u64 [s1 + 0x230] = a1\n 16361: a0 = s1 + 0x1d80\n 16365: a1 = u64 [s1 + 0x240]\n 16369: ra = 642, jump @11\n      : @690 [@dyn 321] (gas: 14)\n 16375: a1 = s1 + 0x19f8\n 16379: a0 = u64 [a1 + 0x3a0]\n 16383: a1 = u64 [a1 + 0x398]\n 16387: a2 = s1 + 0x29f8\n 16391: a3 = u64 [s1 + 0x230]\n 16395: a4 = a2 + 0x600\n 16399: u64 [a4 + 0x70] = a3\n 16402: a3 = u64 [s1 + 0x238]\n 16406: u64 [a4 + 0x68] = a3\n 16409: u64 [a4 + 0x80] = a0\n 16413: u64 [a4 + 0x78] = a1\n 16416: a1 = s1 + 0x3060\n 16420: a0 = u64 [s1 + 0x240]\n 16424: ra = 644, jump @12\n      : @691 [@dyn 322] (gas: 3)\n 16430: a0 = s1 + 0x1d60\n 16434: a1 = u64 [s1 + 0x250]\n 16438: ra = 646, jump @11\n      : @692 [@dyn 323] (gas: 14)\n 16444: a2 = s1 + 0x19f8\n 16448: a3 = a2 + 0x300\n 16452: a0 = u64 [a3 + 0x80]\n 16456: a1 = u64 [a3 + 0x78]\n 16459: a2 = u64 [a3 + 0x68]\n 16462: a3 = s1 + 0x29f8\n 16466: u64 [a3 + 1680] = 0\n 16470: a4 = a3 + 0x600\n 16474: u64 [a4 + 0xa0] = a0\n 16478: u64 [a4 + 0x98] = a1\n 16482: u64 [a4 + 0x88] = a2\n 16486: a1 = s1 + 0x3080\n 16490: a0 = u64 [s1 + 0x250]\n 16494: ra = 648, jump @12\n      : @693 [@dyn 324] (gas: 9)\n 16500: a2 = s1 + 0x19f8\n 16504: u64 [a2 + 832] = 0\n 16508: u64 [a2 + 824] = 0\n 16512: u64 [a2 + 816] = 0\n 16516: a0 = s1 + 0x1d40\n 16520: a1 = s1 + 0x1d20\n 16524: a3 = u64 [s1 + 0x270]\n 16528: u64 [a2 + 0x328] = a3\n 16532: ra = 650, jump @1467\n      : @694 [@dyn 325] (gas: 13)\n 16538: a0 = s1 + 0x19f8\n 16542: a2 = a0 + 0x300\n 16546: a1 = u64 [a2 + 0x48]\n 16549: u64 [s1 + 0x250] = a1\n 16553: a1 = u64 [a2 + 0x50]\n 16556: u64 [s1 + 0x230] = a1\n 16560: a1 = u64 [a2 + 0x58]\n 16563: u64 [s1 + 0x228] = a1\n 16567: a1 = u64 [a2 + 0x60]\n 16570: u64 [s1 + 0x220] = a1\n 16574: a0 = s1 + 0x1d00\n 16578: a1 = 0x40\n 16581: ra = 652, jump @7\n      : @695 [@dyn 326] (gas: 25)\n 16587: a0 = s1 + 0x19f8\n 16591: a2 = u64 [a0 + 0x320]\n 16595: u64 [s1 + 0x210] = a2\n 16599: a1 = u64 [a0 + 0x318]\n 16603: u64 [s1 + 0x218] = a1\n 16607: a5 = u64 [a0 + 0x310]\n 16611: u64 [s1 + 0x238] = a5\n 16615: a4 = u64 [a0 + 0x308]\n 16619: u64 [s1 + 0x240] = a4\n 16623: a3 = u64 [s1 + 0x220]\n 16627: u64 [a0 + 0x2e0] = a3\n 16631: a3 = u64 [s1 + 0x228]\n 16635: u64 [a0 + 0x2d8] = a3\n 16639: a3 = u64 [s1 + 0x230]\n 16643: u64 [a0 + 0x2d0] = a3\n 16647: a3 = u64 [s1 + 0x250]\n 16651: u64 [a0 + 0x2c8] = a3\n 16655: u64 [a0 + 0x300] = a2\n 16659: u64 [a0 + 0x2f8] = a1\n 16663: u64 [a0 + 0x2f0] = a5\n 16667: a2 = a0\n 16669: a0 = s1 + 0x1ce0\n 16673: a1 = s1 + 0x1cc0\n 16677: u64 [a2 + 0x2e8] = a4\n 16681: ra = 654, jump @1452\n      : @696 [@dyn 327] (gas: 7)\n 16687: a3 = s1 + 0x200\n 16691: a0 = u64 [a3 + 0x10]\n 16694: a1 = u64 [a3 + 0x38]\n 16697: a0 = a0 | a1\n 16700: a2 = u64 [a3 + 0x18]\n 16703: a1 = u64 [a3 + 0x40]\n 16706: t0 = 656, jump @1823\n      : @697 [@dyn 328] (gas: 1)\n 16712: jump @699 if a0 == 0\n      : @698 (gas: 1)\n 16715: jump @797\n      : @699 (gas: 9)\n 16718: a0 = s1 + 0x19f8\n 16722: u64 [a0 + 704] = 0\n 16726: u64 [a0 + 696] = 0\n 16730: u64 [a0 + 688] = 0\n 16734: a1 = s1 + 0x1ca0\n 16738: a2 = u64 [s1 + 0x270]\n 16742: u64 [a0 + 0x2a8] = a2\n 16746: a0 = u64 [s1 + 0x240]\n 16750: ra = 658, jump @9\n      : @700 [@dyn 329] (gas: 9)\n 16756: a2 = s1 + 0x19f8\n 16760: u64 [a2 + 640] = 0\n 16764: u64 [a2 + 632] = 0\n 16768: a0 = u64 [s1 + 0x270]\n 16772: u64 [a2 + 0x268] = a0\n 16776: a0 = s1 + 0x1c80\n 16780: a1 = s1 + 0x1c60\n 16784: u64 [a2 + 624] = 0\n 16788: ra = 660, jump @1467\n      : @701 [@dyn 330] (gas: 27)\n 16794: a3 = s1 + 0x19f8\n 16798: a4 = a3 + 0x200\n 16802: a0 = u64 [a4 + 0x88]\n 16806: a1 = u64 [a4 + 0xa0]\n 16810: a2 = u64 [a4 + 0x90]\n 16814: a3 = u64 [a4 + 0x98]\n 16818: t0 = a0 + 0xffffffffffffffe0\n 16821: a0 = t0 <u a0\n 16824: a4 = a2 + a0\n 16827: a4 = a4 + 0xffffffffffffffff\n 16830: a5 = a4 ^ a2\n 16833: a2 = a4 <u a2\n 16836: a2 = a0 if a5 == 0\n 16839: a0 = a3 + 0xffffffffffffffff\n 16842: a2 = a2 + a0\n 16845: a0 = a2 <u a0\n 16848: a3 = a3 <u 0x1\n 16851: a1 = a1 - a3\n 16854: a0 = a0 + a1\n 16857: a1 = t0 | a2\n 16860: a0 = a0 | a4\n 16863: a1 = a1 | a0\n 16866: a1 = a1 >> 0x20\n 16869: a0 = a0 | a2\n 16872: a0 = a0 << 0x20\n 16875: a0 = a0 | a1\n 16878: jump @703 if a0 == 0\n      : @702 (gas: 1)\n 16881: jump @797\n      : @703 (gas: 11)\n 16884: a3 = s1 + 0x200\n 16888: a0 = u64 [a3 + 0x10]\n 16891: a1 = u64 [a3 + 0x18]\n 16894: a0 = a0 | a1\n 16897: a1 = 0xffffffe0\n 16907: a2 = u64 [a3 + 0x40]\n 16910: a1 = a2 <u a1\n 16913: a2 = u64 [a3 + 0x38]\n 16916: a1 = 0 if a2 != 0\n 16918: a1 = 0 if a0 != 0\n 16920: jump @705 if a1 != 0\n      : @704 (gas: 1)\n 16923: jump @797\n      : @705 (gas: 9)\n 16926: a0 = u64 [s1 + 0x278]\n 16930: a0 = i32 [a0]\n 16932: u64 [s1 + 0x278] = a0\n 16936: a0 = u64 [s1 + 0x240]\n 16940: a0 = a0 + 0x20\n 16943: u64 [s1 + 0x250] = a0\n 16947: a1 = t0\n 16949: u64 [s1 + 0x270] = t0\n 16953: ra = 662, jump @18\n      : @706 [@dyn 331] (gas: 35)\n 16959: i32 a0 = a0 + 0\n 16961: a1 = i32 [s1 + 0x270]\n 16965: a2 = u64 [s1 + 0x278]\n 16969: ecalli 1 // 'call_data_copy'\n 16971: a0 = sp + 0xffffffffffffffe0\n 16974: a5 = a0 & 0xffffffffffffffe0\n 16977: sp = a5\n 16979: a0 = u64 [s1 + 0x248]\n 16983: a2 = a0 + 0x3\n 16986: a0 = a2 <u a0\n 16989: a1 = u64 [s1 + 0x258]\n 16993: a3 = a1 + a0\n 16996: a1 = a3 <u a1\n 16999: a1 = a0 if a0 == 0\n 17002: a0 = u64 [s1 + 0x268]\n 17006: a4 = a0 + a1\n 17009: a0 = a4 <u a0\n 17012: a1 = u64 [s1 + 0x260]\n 17016: a0 = a0 + a1\n 17019: u64 [s1 + 0x1e0] = a0\n 17023: u64 [a5 + 0x18] = a0\n 17026: u64 [s1 + 0x1d0] = a4\n 17030: u64 [a5 + 0x10] = a4\n 17033: u64 [s1 + 0x1d8] = a3\n 17037: u64 [a5 + 0x8] = a3\n 17040: u64 [s1 + 0x1e8] = a2\n 17044: u64 [s1 + 0x278] = a5\n 17048: u64 [a5] = a2\n 17050: a0 = sp + 0xffffffffffffffe0\n 17053: a0 = a0 & 0xffffffffffffffe0\n 17056: u64 [s1 + 0x270] = a0\n 17060: sp = a0\n 17062: a0 = s1 + 0x1c40\n 17066: a1 = u64 [s1 + 0x240]\n 17070: ra = 664, jump @7\n      : @707 [@dyn 332] (gas: 2)\n 17076: a1 = s1 + 0x19f8\n 17080: fallthrough\n      : @708 (gas: 22)\n 17081: a5 = a1 + 0x200\n 17085: a2 = u64 [a5 + 0x58]\n 17088: a3 = u64 [a5 + 0x60]\n 17091: a0 = u64 [a5 + 0x48]\n 17094: a4 = u64 [a5 + 0x50]\n 17097: a1 = u64 [s1 + 0x270]\n 17101: u64 [a1 + 0x10] = a2\n 17104: u64 [a1 + 0x18] = a3\n 17107: u64 [s1 + 0x1f0] = a0\n 17111: u64 [a1] = a0\n 17113: a5 = a1\n 17115: a0 = a3 >u 0\n 17117: a1 = a2 >u 0\n 17119: a1 = a0 if a3 != 0\n 17122: u64 [s1 + 0x208] = a2\n 17126: u64 [s1 + 0x200] = a3\n 17130: a0 = a2 | a3\n 17133: a2 = a4 >u 0\n 17135: a2 = a1 if a0 != 0\n 17138: u64 [s1 + 0x1f8] = a4\n 17142: u64 [a5 + 0x8] = a4\n 17145: jump @710 if a2 == 0\n      : @709 (gas: 1)\n 17148: jump @1212\n      : @710 (gas: 14)\n 17151: a0 = u64 [s1 + 0x240]\n 17155: a1 = u64 [s1 + 0x250]\n 17159: a0 = a1 <u a0\n 17162: a2 = u64 [s1 + 0x238]\n 17166: a1 = a2 + a0\n 17169: u64 [s1 + 0x240] = a1\n 17173: a1 = a1 <u a2\n 17176: a1 = a0 if a0 == 0\n 17179: a0 = u64 [s1 + 0x218]\n 17183: a1 = a1 + a0\n 17186: u64 [s1 + 0x248] = a1\n 17190: a0 = s1 + 0x1c20\n 17194: a1 = u64 [s1 + 0x278]\n 17198: ra = 666, jump @11\n      : @711 [@dyn 333] (gas: 13)\n 17204: a0 = s1 + 0x19f8\n 17208: a2 = a0 + 0x200\n 17212: a1 = u64 [a2 + 0x40]\n 17215: u64 [s1 + 0x260] = a1\n 17219: a1 = u64 [a2 + 0x38]\n 17222: u64 [s1 + 0x268] = a1\n 17226: a1 = u64 [a2 + 0x30]\n 17229: u64 [s1 + 0x258] = a1\n 17233: a0 = u64 [a2 + 0x28]\n 17236: u64 [s1 + 0x238] = a0\n 17240: a0 = u64 [s1 + 0x278]\n 17244: a1 = u64 [s1 + 0x270]\n 17248: ra = 668, jump @12\n      : @712 [@dyn 334] (gas: 22)\n 17254: a1 = u64 [s1 + 0x1f8]\n 17258: a2 = u64 [s1 + 0x258]\n 17262: a0 = a1 ^ a2\n 17265: a1 = a1 <u a2\n 17268: a4 = u64 [s1 + 0x1f0]\n 17272: a2 = u64 [s1 + 0x238]\n 17276: a2 = a4 <u a2\n 17279: a2 = a1 if a0 != 0\n 17282: a5 = u64 [s1 + 0x208]\n 17286: a0 = u64 [s1 + 0x268]\n 17290: t0 = a5 <u a0\n 17293: a3 = u64 [s1 + 0x200]\n 17297: a1 = u64 [s1 + 0x260]\n 17301: t1 = a3 ^ a1\n 17304: a3 = a3 <u a1\n 17307: a3 = t0 if t1 == 0\n 17310: a0 = a0 ^ a5\n 17313: a0 = a0 | t1\n 17316: a3 = a2 if a0 == 0\n 17319: a0 = a4 & 0x1f\n 17322: u64 [s1 + 0x1b0] = a0\n 17326: jump @739 if a3 == 0\n      : @713 (gas: 14)\n 17330: a0 = s1 + 0x19f8\n 17334: a3 = s1 + 0x100\n 17338: a1 = u64 [a3 + 0xe8]\n 17342: a4 = a0 + 0x200\n 17346: u64 [a4 + 0x8] = a1\n 17349: a1 = u64 [a3 + 0xd8]\n 17353: u64 [a4 + 0x10] = a1\n 17356: a1 = u64 [a3 + 0xd0]\n 17360: u64 [a4 + 0x18] = a1\n 17363: a1 = s1 + 0x1c00\n 17367: a2 = u64 [a3 + 0xe0]\n 17371: u64 [a4 + 0x20] = a2\n 17374: a0 = 0\n 17376: ra = 670, jump @9\n      : @714 [@dyn 335] (gas: 2)\n 17382: a1 = i32 [0x201f0]\n 17387: jump @716 if a1 >u 31\n      : @715 (gas: 2)\n 17391: u32 [0x201f0] = 0x20\n 17397: fallthrough\n      : @716 (gas: 10)\n 17398: a0 = sp + 0xffffffffffffffe0\n 17401: a2 = a0 & 0xffffffffffffffe0\n 17404: u64 [s1 + 0x230] = a2\n 17408: sp = a2\n 17410: a0 = 0x20200\n 17415: i32 a0 = a0 + 0\n 17417: i32 a2 = a2 + 0\n 17419: a1 = 0x20\n 17422: ecalli 8 // 'hash_keccak_256'\n 17424: fallthrough\n      : @717 (gas: 90)\n 17425: a0 = u64 [s1 + 0x1f0]\n 17429: a1 = a0 + 0x1f\n 17432: a0 = a1 <u a0\n 17435: a3 = u64 [s1 + 0x1f8]\n 17439: a2 = a3 + a0\n 17442: a3 = a2 <u a3\n 17445: a3 = a0 if a0 == 0\n 17448: t0 = u64 [s1 + 0x208]\n 17452: t0 = t0 + a3\n 17455: a3 = t0 << 0x3b\n 17458: a4 = a2 >> 0x5\n 17461: a3 = a3 | a4\n 17464: a0 = u64 [s1 + 0x230]\n 17468: a4 = u64 [a0 + 0x18]\n 17471: a2 = a2 << 0x3b\n 17474: a5 = u64 [a0 + 0x10]\n 17477: a1 = a1 >> 0x5\n 17480: a1 = a1 | a2\n 17483: a4 = reverse a4\n 17485: a2 = reverse a5\n 17487: a1 = a1 + a4\n 17490: u64 [s1 + 0x278] = a1\n 17494: a5 = a1 <u a4\n 17497: a1 = a2 + a5\n 17500: a1 = a1 + a3\n 17503: a3 = a1 ^ a2\n 17506: u64 [s1 + 0x270] = a1\n 17510: t1 = a1 <u a2\n 17513: t1 = a5 if a3 == 0\n 17516: a0 = u64 [s1 + 0x238]\n 17520: t2 = a0 + 0x1f\n 17523: a0 = t2 <u a0\n 17526: a1 = u64 [s1 + 0x258]\n 17530: a5 = a1 + a0\n 17533: a3 = a5 <u a1\n 17536: a3 = a0 if a0 == 0\n 17539: ra = u64 [s1 + 0x268]\n 17543: ra = ra + a3\n 17546: a0 = ra << 0x3b\n 17549: a1 = a5 >> 0x5\n 17552: a0 = a0 | a1\n 17555: a5 = a5 << 0x3b\n 17558: a1 = t2 >> 0x5\n 17561: a1 = a1 | a5\n 17564: a1 = a1 + a4\n 17567: u64 [s1 + 0x258] = a1\n 17571: a1 = a1 <u a4\n 17574: a4 = a2 + a1\n 17577: a4 = a4 + a0\n 17580: a0 = a4 ^ a2\n 17583: u64 [s1 + 0x238] = a4\n 17587: a2 = a4 <u a2\n 17590: a2 = a1 if a0 == 0\n 17593: a1 = u64 [s1 + 0x230]\n 17597: a0 = u64 [a1 + 0x8]\n 17600: a1 = u64 [a1]\n 17602: a3 = u64 [s1 + 0x208]\n 17606: a4 = t0 <u a3\n 17609: a3 = u64 [s1 + 0x200]\n 17613: a3 = a3 + a4\n 17616: a5 = t0 >> 0x5\n 17619: a4 = a3 << 0x3b\n 17622: a4 = a4 | a5\n 17625: a1 = reverse a1\n 17627: a0 = reverse a0\n 17629: a3 = a3 >> 0x5\n 17632: a4 = a4 + a0\n 17635: a3 = a3 + a1\n 17638: a5 = a4 <u a0\n 17641: a3 = a3 + a5\n 17644: t1 = t1 + a4\n 17647: a4 = t1 <u a4\n 17650: t0 = a3 + a4\n 17653: a3 = u64 [s1 + 0x268]\n 17657: a3 = ra <u a3\n 17660: a4 = u64 [s1 + 0x260]\n 17664: a3 = a3 + a4\n 17667: a4 = ra >> 0x5\n 17670: a5 = a3 << 0x3b\n 17673: a4 = a4 | a5\n 17676: a3 = a3 >> 0x5\n 17679: a1 = a1 + a3\n 17682: a4 = a4 + a0\n 17685: a0 = a4 <u a0\n 17688: a5 = a1 + a0\n 17691: a2 = a2 + a4\n 17694: u64 [s1 + 0x230] = a2\n 17698: a2 = a2 <u a4\n 17701: a0 = u64 [s1 + 0x1b0]\n 17705: jump @724 if a0 == 0\n      : @718 (gas: 24)\n 17709: a0 = sp + 0xffffffffffffffe0\n 17712: a1 = a0 & 0xffffffffffffffe0\n 17715: u64 [s1 + 0x1c0] = a1\n 17719: sp = a1\n 17721: a3 = u64 [s1 + 0x278]\n 17725: a0 = a3 <u 0x1\n 17728: u64 [s1 + 0x220] = a5\n 17732: a4 = u64 [s1 + 0x270]\n 17736: a0 = a4 - a0\n 17739: a4 = a4 | a3\n 17742: a4 = a4 <u 0x1\n 17745: u64 [s1 + 0x1c8] = a2\n 17749: a2 = t1 - a4\n 17752: a4 = t1 <u a4\n 17755: a4 = t0 - a4\n 17758: a3 = a3 + 0xffffffffffffffff\n 17761: u64 [a1 + 0x18] = a4\n 17764: u64 [a1 + 0x10] = a2\n 17767: u64 [a1 + 0x8] = a0\n 17770: u64 [a1] = a3\n 17772: a0 = s1 + 0x1be0\n 17776: u64 [s1 + 0x268] = t0\n 17780: u64 [s1 + 0x260] = t1\n 17784: ra = 672, jump @11\n      : @719 [@dyn 336] (gas: 18)\n 17790: a0 = s1 + 0x19f8\n 17794: a1 = u64 [a0 + 0x200]\n 17798: u64 [s1 + 0x1b8] = a1\n 17802: a2 = a0 + 0x100\n 17806: a1 = u64 [a2 + 0xf8]\n 17810: u64 [s1 + 0x170] = a1\n 17814: a1 = u64 [a2 + 0xf0]\n 17818: u64 [s1 + 0x168] = a1\n 17822: a0 = u64 [a2 + 0xe8]\n 17826: u64 [s1 + 0x160] = a0\n 17830: a0 = u64 [s1 + 0x1b0]\n 17834: a1 = a0 << 0x3\n 17837: u64 [s1 + 0x148] = a1\n 17841: a2 = 0x100 - a1\n 17845: u64 [s1 + 0x228] = a2\n 17849: a0 = 0xffffffffffffffff\n 17852: a1 = 0xffffffffffffffff\n 17855: ra = 674, jump @1828\n      : @720 [@dyn 337] (gas: 15)\n 17861: u64 [s1 + 0x140] = a0\n 17865: u64 [s1 + 0x128] = a1\n 17869: a3 = u64 [s1 + 0x228]\n 17873: a2 = a3 <u 0x80\n 17877: u64 [s1 + 0x138] = a2\n 17881: a4 = a1\n 17883: a4 = 0 if a2 == 0\n 17885: u64 [s1 + 0x158] = a4\n 17889: a1 = a0\n 17891: a1 = 0 if a2 == 0\n 17893: u64 [s1 + 0x150] = a1\n 17897: a2 = 0x80 - a3\n 17901: a0 = 0xffffffffffffffff\n 17904: a1 = 0xffffffffffffffff\n 17907: ra = 676, jump @1833\n      : @721 [@dyn 338] (gas: 9)\n 17913: u64 [s1 + 0x130] = a0\n 17917: a0 = u64 [s1 + 0x128]\n 17921: a0 = a0 | a1\n 17924: u64 [s1 + 0x128] = a0\n 17928: a0 = u64 [s1 + 0x148]\n 17932: a2 = 0x80 - a0\n 17936: a0 = 0xffffffffffffffff\n 17939: a1 = 0xffffffffffffffff\n 17942: ra = 678, jump @1828\n      : @722 [@dyn 339] (gas: 29)\n 17948: a3 = u64 [s1 + 0x138]\n 17952: a2 = u64 [s1 + 0x128]\n 17956: a1 = a2 if a3 != 0\n 17959: a2 = u64 [s1 + 0x140]\n 17963: a4 = u64 [s1 + 0x130]\n 17967: a2 = a2 | a4\n 17970: a2 = a0 if a3 == 0\n 17973: a3 = u64 [s1 + 0x228]\n 17977: a1 = 0xffffffffffffffff if a3 == 0\n 17980: a2 = 0xffffffffffffffff if a3 == 0\n 17983: a0 = u64 [s1 + 0x160]\n 17987: a0 = a0 & a2\n 17990: a2 = u64 [s1 + 0x168]\n 17994: a1 = a1 & a2\n 17997: a2 = u64 [s1 + 0x170]\n 18001: a3 = u64 [s1 + 0x150]\n 18005: a2 = a2 & a3\n 18008: a3 = u64 [s1 + 0x1b8]\n 18012: a4 = u64 [s1 + 0x158]\n 18016: a3 = a3 & a4\n 18019: a4 = s1 + 0x29f8\n 18023: a5 = a4 + 0x600\n 18027: u64 [a5 + 0xc0] = a3\n 18031: u64 [a5 + 0xb8] = a2\n 18035: u64 [a5 + 0xb0] = a1\n 18039: u64 [a5 + 0xa8] = a0\n 18043: a1 = s1 + 0x30a0\n 18047: a0 = u64 [s1 + 0x1c0]\n 18051: ra = 680, jump @12\n      : @723 [@dyn 340] (gas: 5)\n 18057: a2 = u64 [s1 + 0x1c8]\n 18061: a5 = u64 [s1 + 0x220]\n 18065: t1 = u64 [s1 + 0x260]\n 18069: t0 = u64 [s1 + 0x268]\n 18073: fallthrough\n      : @724 (gas: 10)\n 18074: a2 = a2 + a5\n 18077: a1 = s1 + 0x200\n 18081: u64 [a1 + 0x28] = a2\n 18084: a0 = sp + 0xffffffffffffffe0\n 18087: ra = a0 & 0xffffffffffffffe0\n 18090: sp = ra\n 18092: a4 = u64 [a1 + 0x78]\n 18095: a5 = u64 [a1 + 0x70]\n 18098: u64 [s1 + 0x220] = ra\n 18102: fallthrough\n      : @725 (gas: 22)\n 18103: a0 = u64 [s1 + 0x258]\n 18107: a0 = a4 <u a0\n 18110: a2 = u64 [s1 + 0x238]\n 18114: a1 = a5 ^ a2\n 18117: a2 = a5 <u a2\n 18120: a2 = a0 if a1 == 0\n 18123: a0 = u64 [s1 + 0x230]\n 18127: t2 = t1 <u a0\n 18130: a3 = u64 [s1 + 0x228]\n 18134: a1 = t0 ^ a3\n 18137: a3 = t0 <u a3\n 18140: a3 = t2 if a1 == 0\n 18143: a0 = t1 ^ a0\n 18146: a0 = a0 | a1\n 18149: a3 = a2 if a0 == 0\n 18152: a0 = ra\n 18154: u64 [a0] = a4\n 18156: u64 [a0 + 0x8] = a5\n 18159: u64 [ra + 0x10] = t1\n 18162: u64 [ra + 0x18] = t0\n 18165: a0 = s1 + 0x29f8\n 18169: jump @739 if a3 == 0\n      : @726 (gas: 11)\n 18173: u64 [a0 + 1760] = 0\n 18177: u64 [a0 + 1752] = 0\n 18181: u64 [a0 + 1744] = 0\n 18185: u64 [a0 + 1736] = 0\n 18189: a1 = s1 + 0x30c0\n 18193: a0 = ra\n 18195: u64 [s1 + 0x278] = a4\n 18199: u64 [s1 + 0x270] = a5\n 18203: u64 [s1 + 0x268] = t0\n 18207: u64 [s1 + 0x260] = t1\n 18211: ra = 682, jump @12\n      : @727 [@dyn 341] (gas: 16)\n 18217: ra = u64 [s1 + 0x220]\n 18221: t0 = u64 [s1 + 0x268]\n 18225: a2 = s1 + 0x200\n 18229: a5 = u64 [a2 + 0x70]\n 18232: a4 = u64 [a2 + 0x78]\n 18235: a4 = a4 + 0x1\n 18238: a0 = a4 <u 0x1\n 18241: a5 = a5 + a0\n 18244: a0 = a4 | a5\n 18247: a0 = a0 <u 0x1\n 18250: a1 = u64 [a2 + 0x60]\n 18253: a0 = a0 + a1\n 18256: a1 = a0 <u a1\n 18259: t0 = t0 + a1\n 18262: t1 = a0\n 18264: jump @725\n      : @728 (gas: 5)\n 18267: ecalli 12 // 'return_data_size'\n 18269: u64 [s1 + 0x258] = a0\n 18273: a0 = s1 + 0x2620\n 18277: a1 = 0x40\n 18280: ra = 684, jump @7\n      : @729 [@dyn 342] (gas: 29)\n 18286: a5 = s1 + 0x21f8\n 18290: t0 = u64 [a5 + 0x440]\n 18294: u64 [s1 + 0x260] = t0\n 18298: t1 = u64 [a5 + 0x438]\n 18302: u64 [s1 + 0x250] = t1\n 18306: t2 = u64 [a5 + 0x430]\n 18310: u64 [s1 + 0x268] = t2\n 18314: ra = u64 [a5 + 0x428]\n 18318: u64 [s1 + 0x270] = ra\n 18322: a1 = u64 [s1 + 0x258]\n 18326: a0 = a1 + 0x1f\n 18329: a1 = a0 <u a1\n 18332: a0 = a0 & 0xffffffffffffffe0\n 18335: a2 = a0 + 0x20\n 18338: a0 = a2 <u a0\n 18341: a3 = a1 + a0\n 18344: a4 = a3 <u a1\n 18347: a4 = a0 if a0 == 0\n 18350: u64 [a5 + 1024] = 0\n 18354: u64 [a5 + 0x3e8] = a2\n 18358: u64 [a5 + 0x420] = t0\n 18362: u64 [a5 + 0x418] = t1\n 18366: u64 [a5 + 0x410] = t2\n 18370: u64 [a5 + 0x408] = ra\n 18374: u64 [a5 + 0x3f0] = a3\n 18378: a0 = s1 + 0x2600\n 18382: a1 = s1 + 0x25e0\n 18386: u64 [a5 + 0x3f8] = a4\n 18390: ra = 686, jump @1452\n      : @730 [@dyn 343] (gas: 13)\n 18396: a4 = s1 + 0x200\n 18400: a2 = u64 [a4 + 0x70]\n 18403: a0 = u64 [a4 + 0x60]\n 18406: a1 = u64 [a4 + 0x68]\n 18409: a0 = a0 | a1\n 18412: a3 = u64 [a4 + 0x50]\n 18415: a1 = a2 | a3\n 18418: a1 = a1 | a0\n 18421: a1 = a1 >> 0x20\n 18424: a0 = a0 | a3\n 18427: a0 = a0 << 0x20\n 18430: a0 = a0 | a1\n 18433: jump @797 if a0 != 0\n      : @731 (gas: 9)\n 18437: a0 = s1 + 0x21f8\n 18441: u64 [a0 + 992] = 0\n 18445: u64 [a0 + 984] = 0\n 18449: u64 [a0 + 976] = 0\n 18453: a1 = s1 + 0x25c0\n 18457: a3 = u64 [s1 + 0x258]\n 18461: u64 [a0 + 0x3c8] = a3\n 18465: a0 = a2\n 18467: ra = 688, jump @9\n      : @732 [@dyn 344] (gas: 2)\n 18473: ecalli 12 // 'return_data_size'\n 18475: fallthrough\n      : @733 (gas: 11)\n 18476: a5 = s1 + 0x200\n 18480: a3 = u64 [a5 + 0x70]\n 18483: a1 = u64 [a5 + 0x60]\n 18486: a2 = u64 [a5 + 0x50]\n 18489: a1 = a1 | a2\n 18492: a2 = 0xffffffe0\n 18502: a2 = a3 <u a2\n 18505: a4 = u64 [a5 + 0x68]\n 18508: a2 = 0 if a4 != 0\n 18510: a2 = 0 if a1 != 0\n 18512: jump @797 if a2 == 0\n      : @734 (gas: 3)\n 18516: a1 = a0\n 18518: a0 = a0 >> 0x20\n 18521: jump @797 if a0 != 0\n      : @735 (gas: 7)\n 18525: i32 a0 = a3 + 0x20\n 18528: a2 = a1\n 18530: u64 [s1 + 0x268] = a1\n 18534: i32 a1 = a1 + 0\n 18536: u64 [s1 + 0x270] = a1\n 18540: a1 = a2\n 18542: ra = 690, jump @18\n      : @736 [@dyn 345] (gas: 9)\n 18548: a1 = s1 + 0x31f8\n 18552: a2 = u64 [s1 + 0x268]\n 18556: u32 [a1 + 0x1e8] = a2\n 18560: i32 a0 = a0 + 0\n 18562: a1 = s1 + 0x3000\n 18566: i32 a1 = a1 + 0x3e0\n 18570: a2 = 0\n 18572: ecalli 11 // 'return_data_copy'\n 18574: fallthrough\n      : @737 (gas: 5)\n 18575: a0 = s1 + 0x31f8\n 18579: a0 = i32 [a0 + 0x1e8]\n 18583: a2 = u64 [s1 + 0x278]\n 18587: a1 = u64 [s1 + 0x270]\n 18591: jump @797 if a0 <u a1\n      : @738 (gas: 1)\n 18595: jump @653\n      : @739 (gas: 19)\n 18598: a2 = s1 + 0x200\n 18602: a0 = u64 [a2 + 0x48]\n 18605: a1 = u64 [a2 + 0x18]\n 18608: a0 = a0 <u a1\n 18611: u64 [a2 + 0x78] = a0\n 18614: a0 = s1 + 0x19f8\n 18618: a3 = s1 + 0x100\n 18622: a1 = u64 [a3 + 0xe8]\n 18626: a4 = a0 + 0x100\n 18630: u64 [a4 + 0xc8] = a1\n 18634: a1 = u64 [a3 + 0xd8]\n 18638: u64 [a4 + 0xd0] = a1\n 18642: a1 = u64 [a3 + 0xd0]\n 18646: u64 [a4 + 0xd8] = a1\n 18650: a1 = s1 + 0x1bc0\n 18654: a2 = u64 [a3 + 0xe0]\n 18658: u64 [a4 + 0xe0] = a2\n 18662: a0 = 0\n 18664: ra = 692, jump @9\n      : @740 [@dyn 346] (gas: 2)\n 18670: a1 = i32 [0x201f0]\n 18675: jump @742 if a1 >u 31\n      : @741 (gas: 2)\n 18679: u32 [0x201f0] = 0x20\n 18685: fallthrough\n      : @742 (gas: 50)\n 18686: a0 = u64 [s1 + 0x210]\n 18690: a1 = u64 [s1 + 0x278]\n 18694: a0 = a0 + a1\n 18697: u64 [s1 + 0x268] = a0\n 18701: a0 = sp + 0xffffffffffffffe0\n 18704: a2 = a0 & 0xffffffffffffffe0\n 18707: u64 [s1 + 0x278] = a2\n 18711: sp = a2\n 18713: a0 = 0x20200\n 18718: i32 a0 = a0 + 0\n 18720: i32 a2 = a2 + 0\n 18722: a1 = 0x20\n 18725: ecalli 8 // 'hash_keccak_256'\n 18727: t0 = 0\n 18729: a5 = 0\n 18731: t1 = 0\n 18733: a0 = u64 [s1 + 0x1f0]\n 18737: a0 = a0 >> 0x5\n 18740: a2 = u64 [s1 + 0x1f8]\n 18744: a1 = a2 << 0x3b\n 18747: a0 = a0 | a1\n 18750: u64 [s1 + 0x1e0] = a0\n 18754: a0 = a2 >> 0x5\n 18757: a2 = u64 [s1 + 0x208]\n 18761: a1 = a2 << 0x3b\n 18764: a0 = a0 | a1\n 18767: u64 [s1 + 0x1d8] = a0\n 18771: a0 = a2 >> 0x5\n 18774: a4 = u64 [s1 + 0x200]\n 18778: a1 = a4 << 0x3b\n 18781: a0 = a0 | a1\n 18784: u64 [s1 + 0x1f0] = a0\n 18788: a3 = u64 [s1 + 0x278]\n 18792: a0 = u64 [a3]\n 18794: a1 = u64 [a3 + 0x8]\n 18797: a2 = u64 [a3 + 0x10]\n 18800: a3 = u64 [a3 + 0x18]\n 18803: a0 = reverse a0\n 18805: u64 [s1 + 0x1c8] = a0\n 18809: a0 = reverse a1\n 18811: a1 = s1 + 0x100\n 18815: u64 [a1 + 0xd0] = a0\n 18819: a0 = reverse a2\n 18821: u64 [a1 + 0xc0] = a0\n 18825: a0 = reverse a3\n 18827: a3 = 0\n 18829: u64 [a1 + 0xb8] = a0\n 18833: a4 = a4 >> 0x5\n 18836: u64 [a1 + 0xe8] = a4\n 18840: fallthrough\n      : @743 (gas: 18)\n 18841: a0 = u64 [s1 + 0x1e0]\n 18845: a0 = t0 <u a0\n 18848: a2 = u64 [s1 + 0x1d8]\n 18852: a1 = a5 ^ a2\n 18855: a2 = a5 <u a2\n 18858: a2 = a0 if a1 == 0\n 18861: a4 = u64 [s1 + 0x1f0]\n 18865: t2 = a3 <u a4\n 18868: a0 = a3\n 18870: a3 = u64 [s1 + 0x1e8]\n 18874: a1 = t1 ^ a3\n 18877: a3 = t1 <u a3\n 18880: a3 = t2 if a1 == 0\n 18883: u64 [s1 + 0x218] = a0\n 18887: a0 = a0 ^ a4\n 18890: a0 = a0 | a1\n 18893: a3 = a2 if a0 == 0\n 18896: jump @780 if a3 == 0\n      : @744 (gas: 20)\n 18900: a2 = s1 + 0x200\n 18904: u64 [a2 + 0x8] = a5\n 18907: u64 [s1 + 0x210] = t0\n 18911: a0 = sp + 0xffffffffffffffe0\n 18914: a0 = a0 & 0xffffffffffffffe0\n 18917: u64 [s1 + 0x1f8] = a0\n 18921: sp = a0\n 18923: u64 [s1 + 544] = 0\n 18927: u64 [s1 + 568] = 0\n 18931: u64 [s1 + 560] = 0\n 18935: u64 [s1 + 552] = 0\n 18939: t2 = 0\n 18941: ra = 0\n 18943: u64 [s1 + 0x200] = t1\n 18947: t1 = 0\n 18949: u64 [s1 + 632] = 0\n 18953: a1 = u64 [a2 + 0x50]\n 18956: a4 = u64 [a2 + 0x48]\n 18959: a5 = u64 [a2 + 0x40]\n 18962: fallthrough\n      : @745 (gas: 16)\n 18963: a0 = ra >u 0\n 18965: a2 = t2 <u 0x20\n 18968: a3 = a2 ^ 0x1\n 18971: a3 = a0 if ra != 0\n 18974: a0 = t1 >u 0\n 18976: t0 = u64 [s1 + 0x278]\n 18980: a2 = t0 >u 0\n 18982: a2 = a0 if t0 == 0\n 18985: u64 [s1 + 0x270] = t1\n 18989: a0 = t1 | t0\n 18992: a2 = a3 if a0 == 0\n 18995: a0 = s1 + 0x200\n 18999: u64 [a0 + 0x50] = a1\n 19002: u64 [a0 + 0x48] = a4\n 19005: u64 [a0 + 0x40] = a5\n 19008: jump @751 if a2 != 0\n      : @746 (gas: 9)\n 19012: a0 = a1 | a4\n 19015: a2 = u64 [s1 + 0x268]\n 19019: a2 = a2 | a5\n 19022: a0 = a0 | a2\n 19025: a0 = a0 >> 0x20\n 19028: a2 = a2 | a4\n 19031: a2 = a2 << 0x20\n 19034: a0 = a0 | a2\n 19037: jump @797 if a0 != 0\n      : @747 (gas: 4)\n 19041: a0 = s1 + 0x1a40\n 19045: u64 [s1 + 0x260] = t2\n 19049: u64 [s1 + 0x258] = ra\n 19053: ra = 694, jump @7\n      : @748 [@dyn 347] (gas: 2)\n 19059: a4 = s1 + 0x19f8\n 19063: t0 = 696, jump @1824\n      : @749 [@dyn 348] (gas: 28)\n 19069: t0 = a0 >u 0\n 19071: a5 = s1 + 0x11f8\n 19075: u64 [a5 + 2016] = 0\n 19079: u64 [a5 + 2008] = 0\n 19083: u64 [a5 + 2000] = 0\n 19087: a0 = u64 [s1 + 0x278]\n 19091: u64 [a4] = a0\n 19093: a0 = u64 [s1 + 0x270]\n 19097: a1 = a4 + 0xffffffffffffff00\n 19101: u64 [a1 + 0xf8] = a0\n 19105: a0 = u64 [s1 + 0x258]\n 19109: u64 [a1 + 0xf0] = a0\n 19113: a0 = u64 [s1 + 0x260]\n 19117: u64 [a1 + 0xe8] = a0\n 19121: a0 = u64 [s1 + 0x228]\n 19125: u64 [a4 + 0x20] = a0\n 19128: a0 = u64 [s1 + 0x230]\n 19132: u64 [a4 + 0x18] = a0\n 19135: a0 = u64 [s1 + 0x238]\n 19139: u64 [a4 + 0x10] = a0\n 19142: a0 = u64 [s1 + 0x220]\n 19146: u64 [a4 + 0x8] = a0\n 19149: a0 = s1 + 0x1a20\n 19153: a1 = s1 + 0x1a00\n 19157: a2 = s1 + 0x19e0\n 19161: a3 = s1 + 0x19c0\n 19165: u64 [a5 + 0x7c8] = t0\n 19169: ra = 698, jump @1436\n      : @750 [@dyn 349] (gas: 39)\n 19175: ra = u64 [s1 + 0x258]\n 19179: t2 = u64 [s1 + 0x260]\n 19183: a1 = s1 + 0x19f8\n 19187: a0 = u64 [a1 + 0x40]\n 19190: u64 [s1 + 0x228] = a0\n 19194: a0 = u64 [a1 + 0x38]\n 19197: u64 [s1 + 0x230] = a0\n 19201: a0 = u64 [a1 + 0x30]\n 19204: a4 = a1\n 19206: u64 [s1 + 0x238] = a0\n 19210: a1 = u64 [s1 + 0x250]\n 19214: a0 = a1 + 0x20\n 19217: a2 = a0 <u a1\n 19220: a1 = u64 [s1 + 0x240]\n 19224: a5 = a1 + a2\n 19227: a3 = a5 <u a1\n 19230: a3 = a2 if a2 == 0\n 19233: a1 = u64 [a4 + 0x28]\n 19236: u64 [s1 + 0x220] = a1\n 19240: a1 = u64 [s1 + 0x248]\n 19244: a3 = a3 + a1\n 19247: a2 = a3 <u a1\n 19250: a1 = u64 [s1 + 0x268]\n 19254: a1 = a1 + a2\n 19257: u64 [s1 + 0x268] = a1\n 19261: t2 = t2 + 0x1\n 19264: a2 = t2 <u 0x1\n 19267: ra = ra + a2\n 19270: a2 = t2 | ra\n 19273: a2 = a2 <u 0x1\n 19276: a1 = u64 [s1 + 0x270]\n 19280: t1 = a1 + a2\n 19283: a4 = t1 <u a1\n 19286: a1 = u64 [s1 + 0x278]\n 19290: a1 = a1 + a4\n 19293: u64 [s1 + 0x278] = a1\n 19297: a1 = a0\n 19299: a4 = a3\n 19301: jump @745\n      : @751 (gas: 39)\n 19304: a4 = u64 [s1 + 0x1f8]\n 19308: a0 = u64 [s1 + 0x220]\n 19312: u64 [a4] = a0\n 19314: a0 = u64 [s1 + 0x238]\n 19318: u64 [a4 + 0x8] = a0\n 19321: a0 = u64 [s1 + 0x230]\n 19325: u64 [a4 + 0x10] = a0\n 19328: a0 = u64 [s1 + 0x228]\n 19332: u64 [a4 + 0x18] = a0\n 19335: a0 = u64 [s1 + 0x1b8]\n 19339: a1 = u64 [s1 + 0x210]\n 19343: t0 = a1 + a0\n 19346: a1 = t0 <u a1\n 19349: a2 = u64 [s1 + 0x1c0]\n 19353: a0 = u64 [s1 + 0x208]\n 19357: a2 = a2 + a0\n 19360: a2 = a2 + a1\n 19363: a3 = a2 ^ a0\n 19366: a0 = a2 <u a0\n 19369: a0 = a1 if a3 == 0\n 19372: a1 = u64 [s1 + 0x1d0]\n 19376: a3 = u64 [s1 + 0x218]\n 19380: a1 = a1 + a3\n 19383: t1 = a1 <u a3\n 19386: a5 = u64 [s1 + 0x1c8]\n 19390: a3 = u64 [s1 + 0x200]\n 19394: a5 = a5 + a3\n 19397: a3 = a5 + t1\n 19400: a0 = a0 + a1\n 19403: a1 = a0 <u a1\n 19406: a1 = a1 + a3\n 19409: a3 = s1 + 0x29f8\n 19413: u64 [a3 + 0x6e8] = t0\n 19417: u64 [a3 + 0x6f0] = a2\n 19421: u64 [a3 + 0x6f8] = a0\n 19425: u64 [a3 + 0x700] = a1\n 19429: a0 = s1 + 0x30e0\n 19433: a1 = a4\n 19435: ra = 700, jump @12\n      : @752 [@dyn 350] (gas: 14)\n 19441: t1 = u64 [s1 + 0x200]\n 19445: a5 = u64 [s1 + 0x208]\n 19449: t0 = u64 [s1 + 0x210]\n 19453: t0 = t0 + 0x1\n 19456: a0 = t0 <u 0x1\n 19459: a5 = a5 + a0\n 19462: a0 = t0 | a5\n 19465: a0 = a0 <u 0x1\n 19468: a1 = u64 [s1 + 0x218]\n 19472: a0 = a0 + a1\n 19475: a1 = a0 <u a1\n 19478: t1 = t1 + a1\n 19481: a3 = a0\n 19483: jump @743\n      : @753 (gas: 27)\n 19486: a0 = u64 [s1 + 0x1e8]\n 19490: t1 = u64 [s1 + 0x270]\n 19494: t2 = t1 <u a0\n 19497: a5 = u64 [s1 + 0x1e0]\n 19501: a1 = u64 [s1 + 0x268]\n 19505: a3 = a1 ^ a5\n 19508: a2 = a1 <u a5\n 19511: a2 = t2 if a3 == 0\n 19514: a3 = u64 [s1 + 0x1d0]\n 19518: a4 = u64 [s1 + 0x260]\n 19522: ra = a4 - a3\n 19525: t0 = a4 <u a3\n 19528: a4 = u64 [s1 + 0x1d8]\n 19532: a3 = u64 [s1 + 0x278]\n 19536: a4 = a3 - a4\n 19539: a4 = a4 - t0\n 19542: a3 = ra <u a2\n 19545: a4 = a4 - a3\n 19548: u64 [s1 + 0x260] = a4\n 19552: a2 = ra - a2\n 19555: u64 [s1 + 0x258] = a2\n 19559: a1 = a1 - a5\n 19562: a1 = a1 - t2\n 19565: u64 [s1 + 0x268] = a1\n 19569: a0 = t1 - a0\n 19572: u64 [s1 + 0x278] = a0\n 19576: ra = 702, jump @0\n      : @754 [@dyn 351] (gas: 8)\n 19582: a1 = u64 [0x30220]\n 19587: u64 [s1 + 0x270] = a1\n 19591: a1 = u64 [0x30230]\n 19596: u64 [s1 + 0x250] = a1\n 19600: a0 = u64 [0x30228]\n 19605: u64 [s1 + 0x248] = a0\n 19609: ecalli 10 // 'ref_time_left'\n 19611: fallthrough\n      : @755 (gas: 35)\n 19612: a0 = u64 [s1 + 0x248]\n 19616: a0 = reverse a0\n 19618: a1 = a0 << 0x20\n 19621: a2 = u64 [s1 + 0x250]\n 19625: a2 = reverse a2\n 19627: a2 = a2 >> 0x20\n 19630: a1 = a1 | a2\n 19633: a0 = a0 >> 0x20\n 19636: a2 = u64 [s1 + 0x270]\n 19640: a2 = reverse a2\n 19642: a4 = 0x30200\n 19647: a3 = a2 << 0x20\n 19650: a0 = a0 | a3\n 19653: a2 = a2 >> 0x20\n 19656: u32 [0x30210] = a2\n 19661: u64 [0x30208] = a0\n 19666: u64 [0x30200] = a1\n 19671: a2 = s1 + 0x29f8\n 19675: u64 [a2 + 800] = 0\n 19679: u64 [a2 + 792] = 0\n 19683: u64 [a2 + 784] = 0\n 19687: a0 = u64 [s1 + 0x278]\n 19691: t0 = a0\n 19693: a5 = u64 [s1 + 0x258]\n 19697: a0 = a0 | a5\n 19700: a1 = u64 [s1 + 0x260]\n 19704: a3 = u64 [s1 + 0x268]\n 19708: a1 = a1 | a3\n 19711: a0 = a0 | a1\n 19714: a0 = a0 >> 0x20\n 19717: a1 = a1 | a5\n 19720: a1 = a1 << 0x20\n 19723: a0 = a0 | a1\n 19726: u64 [a2 + 776] = 0\n 19730: jump @797 if a0 != 0\n      : @756 (gas: 4)\n 19734: a0 = u64 [s1 + 0x1e8]\n 19738: a1 = t0\n 19740: u64 [s1 + 0x268] = a4\n 19744: ra = 704, jump @18\n      : @757 [@dyn 352] (gas: 4)\n 19750: u64 [s1 + 0x270] = a0\n 19754: a1 = 0x20\n 19757: a0 = u64 [s1 + 0x1e8]\n 19761: ra = 706, jump @18\n      : @758 [@dyn 353] (gas: 35)\n 19767: a2 = s1 + 0x29f8\n 19771: a3 = a2 + 0x300\n 19775: u32 [a3 + 40] = 0x20\n 19779: u64 [a3 + 96] = 0xffffffffffffffff\n 19783: u64 [a3 + 88] = 0xffffffffffffffff\n 19787: u64 [a3 + 80] = 0xffffffffffffffff\n 19791: u64 [a3 + 72] = 0xffffffffffffffff\n 19795: a5 = s1 + 0x200\n 19799: a1 = u64 [a5 + 0x68]\n 19802: a1 = a1 << 0x20\n 19805: a1 = a1 >> 0x20\n 19808: a2 = 0x800000000\n 19818: t0 = a1 | a2\n 19821: a1 = s1 + 0x2d00\n 19825: a1 = a1 << 0x20\n 19828: a1 = a1 >> 0x20\n 19831: a2 = s1 + 0x2d40\n 19835: a2 = a2 << 0x20\n 19838: a3 = a2 | a1\n 19841: a1 = u64 [a5 + 0x70]\n 19844: a1 = a1 << 0x20\n 19847: a1 = a1 >> 0x20\n 19850: a4 = u64 [a5 + 0x78]\n 19853: a4 = a4 << 0x20\n 19856: a4 = a4 | a1\n 19859: a0 = a0 << 0x20\n 19862: a0 = a0 >> 0x20\n 19865: a1 = s1 + 0x2d20\n 19869: a1 = a1 << 0x20\n 19872: a5 = a1 | a0\n 19875: a1 = 0xffffffffffffffff\n 19878: a2 = 0xffffffffffffffff\n 19881: a0 = t0\n 19883: ecalli 0 // 'call'\n 19884: fallthrough\n      : @759 (gas: 1)\n 19885: jump @772 if a0 != 0\n      : @760 (gas: 2)\n 19889: ecalli 12 // 'return_data_size'\n 19891: fallthrough\n      : @761 (gas: 2)\n 19892: a1 = 0x20\n 19895: jump @763 if a0 >=u a1\n      : @762 (gas: 3)\n 19898: ecalli 12 // 'return_data_size'\n 19900: a1 = a0\n 19902: fallthrough\n      : @763 (gas: 19)\n 19903: a4 = s1 + 0x100\n 19907: a2 = u64 [a4 + 0xe8]\n 19911: a3 = u64 [a4 + 0xd8]\n 19915: u64 [s1 + 0x270] = a1\n 19919: a5 = s1 + 0x600\n 19923: u64 [a5 + 0x20] = a1\n 19926: u64 [a5 + 0x40] = a2\n 19929: u64 [s1 + 1576] = 0\n 19933: u64 [s1 + 632] = 0\n 19937: a0 = u64 [a4 + 0xe0]\n 19941: u64 [a5 + 0x48] = a0\n 19944: u64 [s1 + 1584] = 0\n 19948: a0 = u64 [a4 + 0xd0]\n 19952: u64 [a5 + 0x50] = a0\n 19955: u64 [s1 + 1592] = 0\n 19959: a0 = s1 + 0x640\n 19963: a1 = s1 + 0x620\n 19967: u64 [a5 + 0x58] = a3\n 19970: ra = 708, jump @1452\n      : @764 [@dyn 354] (gas: 12)\n 19976: a3 = u64 [s1 + 0x278]\n 19980: a0 = a3 >u 0\n 19982: a1 = u64 [s1 + 0x270]\n 19986: a1 = a1 <u 0x20\n 19989: a1 = a1 ^ 0x1\n 19992: a1 = a0 if a3 != 0\n 19995: a0 = a3 >u 0\n 19997: a2 = a3 >u 0\n 19999: a2 = a0 if a3 == 0\n 20002: a0 = a3 | a3\n 20005: a2 = a1 if a0 == 0\n 20008: jump @766 if a2 != 0\n      : @765 (gas: 1)\n 20011: jump @1244\n      : @766 (gas: 3)\n 20014: a0 = s1 + 0x600\n 20018: a1 = u64 [s1 + 0x1e8]\n 20022: ra = 710, jump @7\n      : @767 [@dyn 355] (gas: 15)\n 20028: a4 = s1 + 0x600\n 20032: a0 = u64 [a4 + 0x18]\n 20035: a1 = u64 [a4 + 0x10]\n 20038: a2 = u64 [a4]\n 20040: a3 = u64 [a4 + 0x8]\n 20043: a4 = s1 + 0x200\n 20047: u64 [a4 + 0x78] = a0\n 20050: u64 [a4 + 0x70] = a1\n 20053: a0 = a0 | a1\n 20056: u64 [a4 + 0x68] = a2\n 20059: a1 = a2 <u 0x2\n 20062: u64 [a4 + 0x60] = a3\n 20065: a1 = 0 if a3 != 0\n 20067: a1 = 0 if a0 != 0\n 20069: jump @769 if a1 != 0\n      : @768 (gas: 1)\n 20072: jump @1245\n      : @769 (gas: 3)\n 20075: a0 = s1 + 0x5e0\n 20079: a1 = 0x40\n 20082: ra = 712, jump @7\n      : @770 [@dyn 356] (gas: 13)\n 20088: a4 = s1 + 0x500\n 20092: a0 = u64 [a4 + 0xf8]\n 20096: a1 = u64 [a4 + 0xf0]\n 20100: a2 = u64 [a4 + 0xe8]\n 20104: a3 = u64 [a4 + 0xe0]\n 20108: a0 = a0 | a2\n 20111: a2 = a3 | a1\n 20114: a2 = a2 | a0\n 20117: a2 = a2 >> 0x20\n 20120: a0 = a0 | a1\n 20123: a0 = a0 << 0x20\n 20126: a0 = a0 | a2\n 20129: jump @797 if a0 != 0\n      : @771 (gas: 15)\n 20133: a2 = s1 + 0x200\n 20137: a0 = u64 [a2 + 0x68]\n 20140: a4 = s1 + 0x500\n 20144: u64 [a4 + 0xc0] = a0\n 20148: a0 = u64 [a2 + 0x60]\n 20151: u64 [a4 + 0xc8] = a0\n 20155: a0 = u64 [a2 + 0x70]\n 20158: u64 [a4 + 0xd0] = a0\n 20162: a1 = s1 + 0x5c0\n 20166: a0 = u64 [a2 + 0x78]\n 20169: u64 [a4 + 0xd8] = a0\n 20173: a0 = a3\n 20175: u64 [a2 + 0x78] = a3\n 20178: ra = 0x22a\n 20182: jump @9\n      : @772 (gas: 3)\n 20185: a0 = s1 + 0x660\n 20189: a1 = 0x40\n 20192: ra = 714, jump @7\n      : @773 [@dyn 357] (gas: 13)\n 20198: a1 = s1 + 0x600\n 20202: a0 = u64 [a1 + 0x78]\n 20205: u64 [s1 + 0x270] = a0\n 20209: a0 = u64 [a1 + 0x70]\n 20212: u64 [s1 + 0x268] = a0\n 20216: a0 = u64 [a1 + 0x68]\n 20219: u64 [s1 + 0x260] = a0\n 20223: a0 = u64 [a1 + 0x60]\n 20226: u64 [s1 + 0x278] = a0\n 20230: ra = 0x2cc\n 20234: ecalli 12 // 'return_data_size'\n 20236: t0 = 0x2ce\n 20240: jump @1779\n      : @774 [@dyn 358] (gas: 1)\n 20243: t0 = 718, jump @1779\n      : @775 [@dyn 359] (gas: 1)\n 20249: jump @797 if a1 != 0\n      : @776 (gas: 3)\n 20253: a2 = a0\n 20255: a0 = a0 >> 0x20\n 20258: jump @797 if a0 != 0\n      : @777 (gas: 1)\n 20262: t0 = 720, jump @1805\n      : @778 [@dyn 360] (gas: 1)\n 20268: ra = 722, jump @18\n      : @779 [@dyn 361] (gas: 11)\n 20274: a1 = s1 + 0x29f8\n 20278: a2 = u64 [s1 + 0x268]\n 20282: u32 [a1 + 0x368] = a2\n 20286: i32 a0 = a0 + 0\n 20288: a1 = s1 + 0x3000\n 20292: i32 a1 = a1 + 0xfffffffffffffd60\n 20296: a2 = 0\n 20298: ecalli 11 // 'return_data_copy'\n 20300: a0 = s1 + 0x29f8\n 20304: a0 = i32 [a0 + 0x368]\n 20308: jump @634\n      : @780 (gas: 2)\n 20311: a0 = u64 [s1 + 0x1b0]\n 20315: jump @788 if a0 == 0\n      : @781 (gas: 18)\n 20319: a0 = sp + 0xffffffffffffffe0\n 20322: a0 = a0 & 0xffffffffffffffe0\n 20325: u64 [s1 + 0x218] = a0\n 20329: sp = a0\n 20331: u64 [s1 + 544] = 0\n 20335: u64 [s1 + 568] = 0\n 20339: u64 [s1 + 560] = 0\n 20343: u64 [s1 + 552] = 0\n 20347: a5 = 0\n 20349: a2 = 0\n 20351: t2 = 0\n 20353: t1 = 0\n 20355: a0 = s1 + 0x200\n 20359: a1 = u64 [a0 + 0x50]\n 20362: a3 = u64 [a0 + 0x48]\n 20365: t0 = u64 [s1 + 0x240]\n 20369: a4 = u64 [a0 + 0x68]\n 20372: fallthrough\n      : @782 (gas: 10)\n 20373: a0 = u64 [s1 + 0x1b0]\n 20377: a0 = a5 <u a0\n 20380: a0 = a0 ^ 0x1\n 20383: u64 [s1 + 0x278] = a2\n 20387: a0 = 0x1 if a2 != 0\n 20390: u64 [s1 + 0x270] = t1\n 20394: u64 [s1 + 0x260] = t2\n 20398: a2 = t2 | t1\n 20401: a0 = 0x1 if a2 != 0\n 20404: jump @787 if a0 != 0\n      : @783 (gas: 12)\n 20408: u64 [s1 + 0x258] = a5\n 20412: a0 = a1 | a3\n 20415: a2 = t0 | a4\n 20418: a0 = a0 | a2\n 20421: a0 = a0 >> 0x20\n 20424: a2 = a2 | a3\n 20427: a2 = a2 << 0x20\n 20430: a0 = a0 | a2\n 20433: u64 [s1 + 0x248] = a3\n 20437: u64 [s1 + 0x240] = t0\n 20441: u64 [s1 + 0x268] = a4\n 20445: jump @797 if a0 != 0\n      : @784 (gas: 3)\n 20449: a0 = s1 + 0x1ba0\n 20453: u64 [s1 + 0x250] = a1\n 20457: ra = 724, jump @7\n      : @785 [@dyn 362] (gas: 34)\n 20463: a5 = s1 + 0x19f8\n 20467: a0 = u64 [a5 + 0x1b8]\n 20471: a1 = u64 [a5 + 0x1c0]\n 20475: a2 = u64 [a5 + 0x1b0]\n 20479: a3 = u64 [a5 + 0x1a8]\n 20483: a1 = a1 | a2\n 20486: a0 = a0 | a3\n 20489: a0 = a0 | a1\n 20492: a4 = a0 >u 0\n 20494: u64 [a5 + 320] = 0\n 20498: u64 [a5 + 312] = 0\n 20502: u64 [a5 + 304] = 0\n 20506: a0 = u64 [s1 + 0x270]\n 20510: u64 [a5 + 0x160] = a0\n 20514: a0 = u64 [s1 + 0x260]\n 20518: u64 [a5 + 0x158] = a0\n 20522: a0 = u64 [s1 + 0x278]\n 20526: u64 [a5 + 0x150] = a0\n 20530: a0 = u64 [s1 + 0x258]\n 20534: u64 [a5 + 0x148] = a0\n 20538: a0 = u64 [s1 + 0x228]\n 20542: u64 [a5 + 0x180] = a0\n 20546: a0 = u64 [s1 + 0x230]\n 20550: u64 [a5 + 0x178] = a0\n 20554: a0 = u64 [s1 + 0x238]\n 20558: u64 [a5 + 0x170] = a0\n 20562: a0 = u64 [s1 + 0x220]\n 20566: u64 [a5 + 0x168] = a0\n 20570: a0 = s1 + 0x1b80\n 20574: a1 = s1 + 0x1b60\n 20578: a2 = s1 + 0x1b40\n 20582: a3 = s1 + 0x1b20\n 20586: u64 [a5 + 0x128] = a4\n 20590: ra = 726, jump @1436\n      : @786 [@dyn 363] (gas: 40)\n 20596: a4 = s1 + 0x200\n 20600: a5 = u64 [a4 + 0x58]\n 20603: a1 = s1 + 0x19f8\n 20607: a0 = u64 [a1 + 0x1a0]\n 20611: u64 [a4 + 0x28] = a0\n 20614: a0 = u64 [a1 + 0x198]\n 20618: u64 [a4 + 0x30] = a0\n 20621: a0 = u64 [a1 + 0x190]\n 20625: u64 [a4 + 0x38] = a0\n 20628: a0 = u64 [a4 + 0x50]\n 20631: t0 = a0 + 0x20\n 20634: a2 = t0 <u a0\n 20637: a0 = u64 [a4 + 0x40]\n 20640: t2 = a0 + a2\n 20643: a3 = t2 <u a0\n 20646: a3 = a2 if a2 == 0\n 20649: a1 = u64 [a1 + 0x188]\n 20653: u64 [a4 + 0x20] = a1\n 20656: a0 = u64 [a4 + 0x48]\n 20659: a3 = a3 + a0\n 20662: a2 = a3 <u a0\n 20665: a0 = u64 [a4 + 0x68]\n 20668: a0 = a0 + a2\n 20671: a5 = a5 + 0x1\n 20674: a2 = a5 <u 0x1\n 20677: ra = u64 [s1 + 0x278]\n 20681: ra = ra + a2\n 20684: a2 = a5 | ra\n 20687: a2 = a2 <u 0x1\n 20690: a1 = u64 [a4 + 0x60]\n 20693: a2 = a2 + a1\n 20696: a4 = a2 <u a1\n 20699: t1 = u64 [s1 + 0x270]\n 20703: t1 = t1 + a4\n 20706: a1 = t0\n 20708: t0 = t2\n 20710: t2 = a2\n 20712: a2 = ra\n 20714: a4 = a0\n 20716: jump @782\n      : @787 (gas: 40)\n 20719: a0 = u64 [s1 + 0x1e0]\n 20723: a1 = u64 [s1 + 0x1b8]\n 20727: t0 = a1 + a0\n 20730: a2 = t0 <u a1\n 20733: a1 = u64 [s1 + 0x1d8]\n 20737: a4 = u64 [s1 + 0x1c0]\n 20741: a1 = a1 + a4\n 20744: a0 = a1 + a2\n 20747: a3 = a0 ^ a4\n 20750: a4 = a0 <u a4\n 20753: a4 = a2 if a3 == 0\n 20756: a3 = s1 + 0x200\n 20760: a1 = u64 [a3 + 0x18]\n 20763: a2 = u64 [a3 + 0x20]\n 20766: u64 [a1] = a2\n 20768: a2 = u64 [a3 + 0x38]\n 20771: u64 [a1 + 0x8] = a2\n 20774: a2 = u64 [a3 + 0x30]\n 20777: u64 [a1 + 0x10] = a2\n 20780: a2 = u64 [a3 + 0x28]\n 20783: u64 [a1 + 0x18] = a2\n 20786: a2 = u64 [s1 + 0x1c8]\n 20790: a3 = u64 [s1 + 0x1e8]\n 20794: a2 = a2 + a3\n 20797: a3 = u64 [s1 + 0x1f0]\n 20801: a5 = u64 [s1 + 0x1d0]\n 20805: a3 = a3 + a5\n 20808: a5 = a3 <u a5\n 20811: a2 = a2 + a5\n 20814: a4 = a4 + a3\n 20817: a3 = a4 <u a3\n 20820: a2 = a2 + a3\n 20823: a3 = s1 + 0x29f8\n 20827: u64 [a3 + 0x708] = t0\n 20831: a5 = a3 + 0x700\n 20835: u64 [a5 + 0x10] = a0\n 20838: u64 [a5 + 0x18] = a4\n 20841: u64 [a5 + 0x20] = a2\n 20844: a0 = s1 + 0x3100\n 20848: ra = 728, jump @12\n      : @788 [@dyn 364] (gas: 3)\n 20854: a0 = s1 + 0x1b00\n 20858: a1 = u64 [s1 + 0x1a8]\n 20862: ra = 730, jump @11\n      : @789 [@dyn 365] (gas: 17)\n 20868: a3 = s1 + 0x19f8\n 20872: a4 = a3 + 0x100\n 20876: a0 = u64 [a4 + 0x8]\n 20879: a1 = u64 [a4 + 0x10]\n 20882: a2 = u64 [a4 + 0x18]\n 20885: a3 = u64 [a4 + 0x20]\n 20888: a4 = 0xffffff00ffffffff\n 20898: a2 = a2 & a4\n 20901: a4 = s1 + 0x29f8\n 20905: a5 = a4 + 0x700\n 20909: u64 [a5 + 0x40] = a3\n 20912: u64 [a5 + 0x30] = a1\n 20915: u64 [a5 + 0x28] = a0\n 20918: u64 [a5 + 0x38] = a2\n 20921: a1 = s1 + 0x3120\n 20925: a0 = u64 [s1 + 0x1a8]\n 20929: ra = 732, jump @12\n      : @790 [@dyn 366] (gas: 3)\n 20935: a0 = s1 + 0x1ae0\n 20939: a1 = 0x40\n 20942: ra = 734, jump @7\n      : @791 [@dyn 367] (gas: 15)\n 20948: a1 = s1 + 0x19f8\n 20952: a0 = u64 [a1 + 0x100]\n 20956: u64 [s1 + 0x278] = a0\n 20960: a0 = u64 [a1 + 0xf8]\n 20964: u64 [s1 + 0x270] = a0\n 20968: a0 = u64 [a1 + 0xf0]\n 20972: u64 [s1 + 0x268] = a0\n 20976: a0 = u64 [a1 + 0xe8]\n 20980: u64 [s1 + 0x260] = a0\n 20984: a0 = u64 [s1 + 0x178]\n 20988: ra = 0x2e0\n 20992: ecalli 4 // 'caller'\n 20994: a2 = u64 [s1 + 0x180]\n 20998: t0 = 0x2e2\n 21002: jump @1767\n      : @792 [@dyn 368] (gas: 2)\n 21005: a2 = u64 [s1 + 0x180]\n 21009: t0 = 738, jump @1767\n      : @793 [@dyn 369] (gas: 49)\n 21015: t0 = a1 | a0\n 21018: a3 = a3 >> 0x20\n 21021: a2 = reverse a2\n 21023: a1 = a2 << 0x20\n 21026: a1 = a1 | a3\n 21029: a2 = a2 >> 0x20\n 21032: a3 = u64 [s1 + 0x1a0]\n 21036: a0 = s1 + 0x19f8\n 21040: u64 [a0 + 0xa0] = a3\n 21044: a3 = u64 [0x20050]\n 21049: a4 = u64 [0x20058]\n 21054: a5 = u64 [s1 + 0x198]\n 21058: u64 [a0 + 0x98] = a5\n 21062: a5 = u64 [s1 + 0x190]\n 21066: u64 [a0 + 0x90] = a5\n 21070: u64 [a0 + 0xe0] = a3\n 21074: u64 [a0 + 0xd8] = a4\n 21078: a3 = u64 [0x20060]\n 21083: a4 = u64 [0x20068]\n 21088: a5 = u64 [s1 + 0x188]\n 21092: u64 [a0 + 0x88] = a5\n 21096: u64 [a0 + 192] = 0\n 21100: u64 [a0 + 0xd0] = a3\n 21104: u64 [a0 + 0xc8] = a4\n 21108: u64 [a0 + 0xb8] = a2\n 21112: u64 [a0 + 0xb0] = a1\n 21116: a2 = s1 + 0x1ac0\n 21120: a3 = s1 + 0x1aa0\n 21124: a4 = s1 + 0x1a80\n 21128: u64 [a0 + 0xa8] = t0\n 21132: a0 = 0\n 21134: a1 = 0\n 21136: ra = 0x2e4\n 21140: sp = sp + 0xffffffffffffff20\n 21144: u64 [sp + 0xd8] = ra\n 21148: u64 [sp + 0xd0] = s0\n 21152: u64 [sp + 0xc8] = s1\n 21156: s0 = sp + 0xe0\n 21160: sp = sp & 0xffffffffffffffe0\n 21163: a5 = u64 [a4]\n 21165: u64 [sp + 0x40] = a5\n 21168: a5 = u64 [a4 + 0x8]\n 21171: u64 [sp + 0x48] = a5\n 21174: a5 = u64 [a4 + 0x10]\n 21177: u64 [sp + 0x50] = a5\n 21180: a4 = u64 [a4 + 0x18]\n 21183: u64 [sp + 0x58] = a4\n 21186: t0 = 0x6\n 21189: jump @1796\n      : @794 [@dyn 370] (gas: 8)\n 21192: a4 = s1 + 0x200\n 21196: a0 = u64 [a4 + 0x78]\n 21199: a1 = u64 [a4 + 0x68]\n 21202: a0 = a0 | a1\n 21205: a1 = u64 [a4 + 0x60]\n 21208: a3 = a1\n 21210: a2 = u64 [a4 + 0x70]\n 21213: t0 = 742, jump @1823\n      : @795 [@dyn 371] (gas: 1)\n 21219: jump @797 if a0 != 0\n      : @796 (gas: 1)\n 21222: jump @1246\n      : @797 (gas: 1)\n 21225: trap\n      : @798 (gas: 6)\n 21226: a1 = 0x20200\n 21231: i32 a1 = a1 + 0\n 21233: a0 = 0x1\n 21236: a2 = 0\n 21238: ecalli 13 // 'seal_return'\n 21240: jump @800\n      : @799 (gas: 5)\n 21242: i32 a1 = a1 + 0\n 21244: a0 = 0x1\n 21247: a2 = 0\n 21249: ecalli 13 // 'seal_return'\n 21251: fallthrough\n      : @800 (gas: 16)\n 21252: a0 = u64 [s1 + 0x110]\n 21256: a1 = u64 [s1 + 0x190]\n 21260: a5 = a1 <u a0\n 21263: a0 = u64 [s1 + 0x278]\n 21267: a1 = u64 [a0 + 0x18]\n 21270: u64 [s1 + 0x270] = a1\n 21274: ra = u64 [a0 + 0x10]\n 21277: t1 = u64 [a0 + 0x8]\n 21280: a0 = u64 [a0]\n 21282: a1 = u64 [s1 + 0xb8]\n 21286: a2 = u64 [s1 + 0xa0]\n 21290: a5 = a2 if a1 != 0\n 21293: a1 = u64 [s1 + 0xb0]\n 21297: a2 = u64 [s1 + 0xa8]\n 21301: a5 = a1 if a2 != 0\n 21304: jump @805 if a5 == 0\n      : @801 (gas: 9)\n 21308: a5 = a0 | ra\n 21311: a1 = u64 [s1 + 0x270]\n 21315: a1 = t1 | a1\n 21318: a5 = a5 | a1\n 21321: a5 = a5 >> 0x20\n 21324: a1 = a1 | ra\n 21327: a1 = a1 << 0x20\n 21330: a1 = a1 | a5\n 21333: jump @797 if a1 != 0\n      : @802 (gas: 2)\n 21336: a1 = u64 [s1 + 0x268]\n 21340: t0 = 744, jump @1821\n      : @803 [@dyn 372] (gas: 6)\n 21346: u64 [a2 + 0x60] = a3\n 21349: u64 [a2 + 0x58] = a3\n 21352: u64 [a2 + 0x48] = a1\n 21355: a1 = s1 + 0x1240\n 21359: u64 [a2 + 0x50] = a3\n 21362: ra = 746, jump @9\n      : @804 [@dyn 373] (gas: 22)\n 21368: a3 = u64 [s1 + 0x278]\n 21372: a1 = u64 [a3]\n 21374: t0 = u64 [a3 + 0x18]\n 21377: a2 = u64 [a3 + 0x8]\n 21380: a4 = u64 [a3 + 0x10]\n 21383: a0 = a1 + 0x20\n 21386: a5 = a0 <u a1\n 21389: t1 = a2 + a5\n 21392: a2 = t1 <u a2\n 21395: a2 = a5 if a5 == 0\n 21398: ra = a4 + a2\n 21401: a4 = ra <u a4\n 21404: a4 = a4 + t0\n 21407: u64 [a3] = a0\n 21409: u64 [a3 + 0x8] = t1\n 21412: u64 [a3 + 0x10] = ra\n 21415: u64 [s1 + 0x270] = a4\n 21419: u64 [a3 + 0x18] = a4\n 21422: a1 = u64 [s1 + 0x190]\n 21426: a1 = a1 | 0x1\n 21429: u64 [s1 + 0x190] = a1\n 21433: fallthrough\n      : @805 (gas: 21)\n 21434: a1 = u64 [s1 + 0x110]\n 21438: a2 = u64 [s1 + 0x190]\n 21442: a4 = a2 <u a1\n 21445: a1 = u64 [s1 + 0xf8]\n 21449: a2 = u64 [s1 + 0x178]\n 21453: a5 = a2 ^ a1\n 21456: a3 = a2 <u a1\n 21459: a3 = a4 if a5 == 0\n 21462: t0 = u64 [s1 + 0x108]\n 21466: a2 = s1 + 0x100\n 21470: a4 = u64 [a2 + 0x70]\n 21473: t2 = a4 <u t0\n 21476: a1 = u64 [a2]\n 21478: a5 = u64 [a2 + 0x80]\n 21482: a2 = a5 ^ a1\n 21485: a1 = a5 <u a1\n 21488: a1 = t2 if a2 == 0\n 21491: a4 = a4 ^ t0\n 21494: a4 = a4 | a2\n 21497: a1 = a3 if a4 == 0\n 21500: jump @811 if a1 == 0\n      : @806 (gas: 1)\n 21504: t0 = 748, jump @1755\n      : @807 [@dyn 374] (gas: 1)\n 21510: jump @797 if a1 != 0\n      : @808 (gas: 2)\n 21514: a1 = u64 [s1 + 0x260]\n 21518: t0 = 750, jump @1821\n      : @809 [@dyn 375] (gas: 6)\n 21524: u64 [a2 + 0x40] = a3\n 21527: u64 [a2 + 0x38] = a3\n 21530: u64 [a2 + 0x28] = a1\n 21533: a1 = s1 + 0x1220\n 21537: u64 [a2 + 0x30] = a3\n 21540: ra = 752, jump @9\n      : @810 [@dyn 376] (gas: 37)\n 21546: a4 = u64 [s1 + 0x278]\n 21550: a1 = u64 [a4]\n 21552: t0 = u64 [a4 + 0x18]\n 21555: a2 = u64 [a4 + 0x8]\n 21558: a3 = u64 [a4 + 0x10]\n 21561: a0 = a1 + 0x20\n 21564: a1 = a0 <u a1\n 21567: t1 = a2 + a1\n 21570: a2 = t1 <u a2\n 21573: a2 = a1 if a1 == 0\n 21576: ra = a3 + a2\n 21579: a1 = ra <u a3\n 21582: t0 = t0 + a1\n 21585: a5 = s1 + 0x100\n 21589: a3 = u64 [a5 + 0x90]\n 21593: a3 = a3 + 0x1\n 21596: a1 = a3 <u 0x1\n 21599: a2 = u64 [a5 + 0x78]\n 21602: a2 = a2 + a1\n 21605: u64 [a5 + 0x78] = a2\n 21608: u64 [a5 + 0x90] = a3\n 21612: a1 = a3 | a2\n 21615: a1 = a1 <u 0x1\n 21618: a2 = u64 [a5 + 0x70]\n 21621: a1 = a1 + a2\n 21624: a3 = a1 <u a2\n 21627: a2 = u64 [a5 + 0x80]\n 21631: a2 = a2 + a3\n 21634: u64 [a5 + 0x80] = a2\n 21638: u64 [a4] = a0\n 21640: u64 [a4 + 0x8] = t1\n 21643: u64 [a4 + 0x10] = ra\n 21646: u64 [s1 + 0x270] = t0\n 21650: u64 [a4 + 0x18] = t0\n 21653: u64 [a5 + 0x70] = a1\n 21656: t0 = 0x2f2\n 21660: jump @1754\n      : @811 (gas: 1)\n 21663: t0 = 754, jump @1754\n      : @812 [@dyn 377] (gas: 13)\n 21669: t0 = u64 [s1 + 0x108]\n 21673: a2 = s1 + 0x100\n 21677: a1 = u64 [a2 + 0x70]\n 21680: t2 = a1 <u t0\n 21683: a5 = u64 [a2]\n 21685: a3 = u64 [a2 + 0x80]\n 21689: a2 = a3 ^ a5\n 21692: a5 = a3 <u a5\n 21695: a5 = t2 if a2 == 0\n 21698: a1 = a1 ^ t0\n 21701: a1 = a1 | a2\n 21704: a5 = a4 if a1 == 0\n 21707: jump @818 if a5 == 0\n      : @813 (gas: 1)\n 21711: t0 = 756, jump @1755\n      : @814 [@dyn 378] (gas: 1)\n 21717: jump @797 if a1 != 0\n      : @815 (gas: 2)\n 21721: a1 = u64 [s1 + 0x258]\n 21725: t0 = 758, jump @1821\n      : @816 [@dyn 379] (gas: 6)\n 21731: u64 [a2 + 0x20] = a3\n 21734: u64 [a2 + 0x18] = a3\n 21737: u64 [a2 + 0x8] = a1\n 21740: a1 = s1 + 0x1200\n 21744: u64 [a2 + 0x10] = a3\n 21747: ra = 760, jump @9\n      : @817 [@dyn 380] (gas: 37)\n 21753: a4 = u64 [s1 + 0x278]\n 21757: a1 = u64 [a4]\n 21759: t0 = u64 [a4 + 0x18]\n 21762: a2 = u64 [a4 + 0x8]\n 21765: a3 = u64 [a4 + 0x10]\n 21768: a0 = a1 + 0x20\n 21771: a1 = a0 <u a1\n 21774: t1 = a2 + a1\n 21777: a2 = t1 <u a2\n 21780: a2 = a1 if a1 == 0\n 21783: ra = a3 + a2\n 21786: a1 = ra <u a3\n 21789: t0 = t0 + a1\n 21792: a5 = s1 + 0x100\n 21796: a3 = u64 [a5 + 0x90]\n 21800: a3 = a3 + 0x1\n 21803: a1 = a3 <u 0x1\n 21806: a2 = u64 [a5 + 0x78]\n 21809: a2 = a2 + a1\n 21812: u64 [a5 + 0x78] = a2\n 21815: u64 [a5 + 0x90] = a3\n 21819: a1 = a3 | a2\n 21822: a1 = a1 <u 0x1\n 21825: a2 = u64 [a5 + 0x70]\n 21828: a1 = a1 + a2\n 21831: a3 = a1 <u a2\n 21834: a2 = u64 [a5 + 0x80]\n 21838: a2 = a2 + a3\n 21841: u64 [a5 + 0x80] = a2\n 21845: u64 [a4] = a0\n 21847: u64 [a4 + 0x8] = t1\n 21850: u64 [a4 + 0x10] = ra\n 21853: u64 [s1 + 0x270] = t0\n 21857: u64 [a4 + 0x18] = t0\n 21860: u64 [a5 + 0x70] = a1\n 21863: t0 = 0x2fa\n 21867: jump @1754\n      : @818 (gas: 1)\n 21870: t0 = 762, jump @1754\n      : @819 [@dyn 381] (gas: 13)\n 21876: t0 = u64 [s1 + 0x108]\n 21880: a2 = s1 + 0x100\n 21884: a1 = u64 [a2 + 0x70]\n 21887: t2 = a1 <u t0\n 21890: a5 = u64 [a2]\n 21892: a3 = u64 [a2 + 0x80]\n 21896: a2 = a3 ^ a5\n 21899: a5 = a3 <u a5\n 21902: a5 = t2 if a2 == 0\n 21905: a1 = a1 ^ t0\n 21908: a1 = a1 | a2\n 21911: a5 = a4 if a1 == 0\n 21914: jump @824 if a5 == 0\n      : @820 (gas: 1)\n 21918: t0 = 764, jump @1755\n      : @821 [@dyn 382] (gas: 1)\n 21924: jump @797 if a1 != 0\n      : @822 (gas: 9)\n 21928: a1 = u64 [s1 + 0x250]\n 21932: a1 = a1 >u 0\n 21934: a2 = s1 + 0x11f8\n 21938: u64 [a2 + 0] = 0\n 21940: u64 [a2 + 4294967288] = 0\n 21943: u64 [a2 + 0xffffffffffffffe8] = a1\n 21946: a1 = s1 + 0x11e0\n 21950: u64 [a2 + 4294967280] = 0\n 21953: ra = 766, jump @9\n      : @823 [@dyn 383] (gas: 37)\n 21959: a4 = u64 [s1 + 0x278]\n 21963: a1 = u64 [a4]\n 21965: t0 = u64 [a4 + 0x18]\n 21968: a2 = u64 [a4 + 0x8]\n 21971: a3 = u64 [a4 + 0x10]\n 21974: a0 = a1 + 0x20\n 21977: a1 = a0 <u a1\n 21980: t1 = a2 + a1\n 21983: a2 = t1 <u a2\n 21986: a2 = a1 if a1 == 0\n 21989: ra = a3 + a2\n 21992: a1 = ra <u a3\n 21995: t0 = t0 + a1\n 21998: a5 = s1 + 0x100\n 22002: a3 = u64 [a5 + 0x90]\n 22006: a3 = a3 + 0x1\n 22009: a1 = a3 <u 0x1\n 22012: a2 = u64 [a5 + 0x78]\n 22015: a2 = a2 + a1\n 22018: u64 [a5 + 0x78] = a2\n 22021: u64 [a5 + 0x90] = a3\n 22025: a1 = a3 | a2\n 22028: a1 = a1 <u 0x1\n 22031: a2 = u64 [a5 + 0x70]\n 22034: a1 = a1 + a2\n 22037: a3 = a1 <u a2\n 22040: a2 = u64 [a5 + 0x80]\n 22044: a2 = a2 + a3\n 22047: u64 [a5 + 0x80] = a2\n 22051: u64 [a4] = a0\n 22053: u64 [a4 + 0x8] = t1\n 22056: u64 [a4 + 0x10] = ra\n 22059: u64 [s1 + 0x270] = t0\n 22063: u64 [a4 + 0x18] = t0\n 22066: u64 [a5 + 0x70] = a1\n 22069: t0 = 0x300\n 22073: jump @1754\n      : @824 (gas: 1)\n 22076: t0 = 768, jump @1754\n      : @825 [@dyn 384] (gas: 13)\n 22082: t0 = u64 [s1 + 0x108]\n 22086: a2 = s1 + 0x100\n 22090: a1 = u64 [a2 + 0x70]\n 22093: t2 = a1 <u t0\n 22096: a5 = u64 [a2]\n 22098: a3 = u64 [a2 + 0x80]\n 22102: a2 = a3 ^ a5\n 22105: a5 = a3 <u a5\n 22108: a5 = t2 if a2 == 0\n 22111: a1 = a1 ^ t0\n 22114: a1 = a1 | a2\n 22117: a5 = a4 if a1 == 0\n 22120: jump @831 if a5 == 0\n      : @826 (gas: 1)\n 22124: t0 = 770, jump @1755\n      : @827 [@dyn 385] (gas: 1)\n 22130: jump @797 if a1 != 0\n      : @828 (gas: 2)\n 22134: a1 = u64 [s1 + 0x248]\n 22138: t0 = 772, jump @1757\n      : @829 [@dyn 386] (gas: 6)\n 22144: u64 [a2 + 2016] = 0\n 22148: u64 [a2 + 2008] = 0\n 22152: u64 [a2 + 0x7c8] = a1\n 22156: a1 = s1 + 0x11c0\n 22160: u64 [a2 + 2000] = 0\n 22164: ra = 774, jump @9\n      : @830 [@dyn 387] (gas: 37)\n 22170: a4 = u64 [s1 + 0x278]\n 22174: a1 = u64 [a4]\n 22176: t0 = u64 [a4 + 0x18]\n 22179: a2 = u64 [a4 + 0x8]\n 22182: a3 = u64 [a4 + 0x10]\n 22185: a0 = a1 + 0x20\n 22188: a1 = a0 <u a1\n 22191: t1 = a2 + a1\n 22194: a2 = t1 <u a2\n 22197: a2 = a1 if a1 == 0\n 22200: ra = a3 + a2\n 22203: a1 = ra <u a3\n 22206: t0 = t0 + a1\n 22209: a5 = s1 + 0x100\n 22213: a3 = u64 [a5 + 0x90]\n 22217: a3 = a3 + 0x1\n 22220: a1 = a3 <u 0x1\n 22223: a2 = u64 [a5 + 0x78]\n 22226: a2 = a2 + a1\n 22229: u64 [a5 + 0x78] = a2\n 22232: u64 [a5 + 0x90] = a3\n 22236: a1 = a3 | a2\n 22239: a1 = a1 <u 0x1\n 22242: a2 = u64 [a5 + 0x70]\n 22245: a1 = a1 + a2\n 22248: a3 = a1 <u a2\n 22251: a2 = u64 [a5 + 0x80]\n 22255: a2 = a2 + a3\n 22258: u64 [a5 + 0x80] = a2\n 22262: u64 [a4] = a0\n 22264: u64 [a4 + 0x8] = t1\n 22267: u64 [a4 + 0x10] = ra\n 22270: u64 [s1 + 0x270] = t0\n 22274: u64 [a4 + 0x18] = t0\n 22277: u64 [a5 + 0x70] = a1\n 22280: t0 = 0x308\n 22284: jump @1754\n      : @831 (gas: 1)\n 22287: t0 = 776, jump @1754\n      : @832 [@dyn 388] (gas: 13)\n 22293: t0 = u64 [s1 + 0x108]\n 22297: a2 = s1 + 0x100\n 22301: a1 = u64 [a2 + 0x70]\n 22304: t2 = a1 <u t0\n 22307: a5 = u64 [a2]\n 22309: a3 = u64 [a2 + 0x80]\n 22313: a2 = a3 ^ a5\n 22316: a5 = a3 <u a5\n 22319: a5 = t2 if a2 == 0\n 22322: a1 = a1 ^ t0\n 22325: a1 = a1 | a2\n 22328: a5 = a4 if a1 == 0\n 22331: jump @838 if a5 == 0\n      : @833 (gas: 1)\n 22335: t0 = 778, jump @1755\n      : @834 [@dyn 389] (gas: 1)\n 22341: jump @797 if a1 != 0\n      : @835 (gas: 2)\n 22345: a1 = u64 [s1 + 0x240]\n 22349: t0 = 780, jump @1757\n      : @836 [@dyn 390] (gas: 6)\n 22355: u64 [a2 + 1984] = 0\n 22359: u64 [a2 + 1976] = 0\n 22363: u64 [a2 + 0x7a8] = a1\n 22367: a1 = s1 + 0x11a0\n 22371: u64 [a2 + 1968] = 0\n 22375: ra = 782, jump @9\n      : @837 [@dyn 391] (gas: 37)\n 22381: a4 = u64 [s1 + 0x278]\n 22385: a1 = u64 [a4]\n 22387: t0 = u64 [a4 + 0x18]\n 22390: a2 = u64 [a4 + 0x8]\n 22393: a3 = u64 [a4 + 0x10]\n 22396: a0 = a1 + 0x20\n 22399: a1 = a0 <u a1\n 22402: t1 = a2 + a1\n 22405: a2 = t1 <u a2\n 22408: a2 = a1 if a1 == 0\n 22411: ra = a3 + a2\n 22414: a1 = ra <u a3\n 22417: t0 = t0 + a1\n 22420: a5 = s1 + 0x100\n 22424: a3 = u64 [a5 + 0x90]\n 22428: a3 = a3 + 0x1\n 22431: a1 = a3 <u 0x1\n 22434: a2 = u64 [a5 + 0x78]\n 22437: a2 = a2 + a1\n 22440: u64 [a5 + 0x78] = a2\n 22443: u64 [a5 + 0x90] = a3\n 22447: a1 = a3 | a2\n 22450: a1 = a1 <u 0x1\n 22453: a2 = u64 [a5 + 0x70]\n 22456: a1 = a1 + a2\n 22459: a3 = a1 <u a2\n 22462: a2 = u64 [a5 + 0x80]\n 22466: a2 = a2 + a3\n 22469: u64 [a5 + 0x80] = a2\n 22473: u64 [a4] = a0\n 22475: u64 [a4 + 0x8] = t1\n 22478: u64 [a4 + 0x10] = ra\n 22481: u64 [s1 + 0x270] = t0\n 22485: u64 [a4 + 0x18] = t0\n 22488: u64 [a5 + 0x70] = a1\n 22491: t0 = 0x310\n 22495: jump @1754\n      : @838 (gas: 1)\n 22498: t0 = 784, jump @1754\n      : @839 [@dyn 392] (gas: 13)\n 22504: t0 = u64 [s1 + 0x108]\n 22508: a2 = s1 + 0x100\n 22512: a1 = u64 [a2 + 0x70]\n 22515: t2 = a1 <u t0\n 22518: a5 = u64 [a2]\n 22520: a3 = u64 [a2 + 0x80]\n 22524: a2 = a3 ^ a5\n 22527: a5 = a3 <u a5\n 22530: a5 = t2 if a2 == 0\n 22533: a1 = a1 ^ t0\n 22536: a1 = a1 | a2\n 22539: a5 = a4 if a1 == 0\n 22542: jump @845 if a5 == 0\n      : @840 (gas: 1)\n 22546: t0 = 786, jump @1755\n      : @841 [@dyn 393] (gas: 1)\n 22552: jump @797 if a1 != 0\n      : @842 (gas: 2)\n 22556: a1 = u64 [s1 + 0x238]\n 22560: t0 = 788, jump @1757\n      : @843 [@dyn 394] (gas: 6)\n 22566: u64 [a2 + 1952] = 0\n 22570: u64 [a2 + 1944] = 0\n 22574: u64 [a2 + 0x788] = a1\n 22578: a1 = s1 + 0x1180\n 22582: u64 [a2 + 1936] = 0\n 22586: ra = 790, jump @9\n      : @844 [@dyn 395] (gas: 37)\n 22592: a4 = u64 [s1 + 0x278]\n 22596: a1 = u64 [a4]\n 22598: t0 = u64 [a4 + 0x18]\n 22601: a2 = u64 [a4 + 0x8]\n 22604: a3 = u64 [a4 + 0x10]\n 22607: a0 = a1 + 0x20\n 22610: a1 = a0 <u a1\n 22613: t1 = a2 + a1\n 22616: a2 = t1 <u a2\n 22619: a2 = a1 if a1 == 0\n 22622: ra = a3 + a2\n 22625: a1 = ra <u a3\n 22628: t0 = t0 + a1\n 22631: a5 = s1 + 0x100\n 22635: a3 = u64 [a5 + 0x90]\n 22639: a3 = a3 + 0x1\n 22642: a1 = a3 <u 0x1\n 22645: a2 = u64 [a5 + 0x78]\n 22648: a2 = a2 + a1\n 22651: u64 [a5 + 0x78] = a2\n 22654: u64 [a5 + 0x90] = a3\n 22658: a1 = a3 | a2\n 22661: a1 = a1 <u 0x1\n 22664: a2 = u64 [a5 + 0x70]\n 22667: a1 = a1 + a2\n 22670: a3 = a1 <u a2\n 22673: a2 = u64 [a5 + 0x80]\n 22677: a2 = a2 + a3\n 22680: u64 [a5 + 0x80] = a2\n 22684: u64 [a4] = a0\n 22686: u64 [a4 + 0x8] = t1\n 22689: u64 [a4 + 0x10] = ra\n 22692: u64 [s1 + 0x270] = t0\n 22696: u64 [a4 + 0x18] = t0\n 22699: u64 [a5 + 0x70] = a1\n 22702: t0 = 0x318\n 22706: jump @1754\n      : @845 (gas: 1)\n 22709: t0 = 792, jump @1754\n      : @846 [@dyn 396] (gas: 13)\n 22715: t0 = u64 [s1 + 0x108]\n 22719: a2 = s1 + 0x100\n 22723: a1 = u64 [a2 + 0x70]\n 22726: t2 = a1 <u t0\n 22729: a5 = u64 [a2]\n 22731: a3 = u64 [a2 + 0x80]\n 22735: a2 = a3 ^ a5\n 22738: a5 = a3 <u a5\n 22741: a5 = t2 if a2 == 0\n 22744: a1 = a1 ^ t0\n 22747: a1 = a1 | a2\n 22750: a5 = a4 if a1 == 0\n 22753: jump @852 if a5 == 0\n      : @847 (gas: 1)\n 22757: t0 = 794, jump @1755\n      : @848 [@dyn 397] (gas: 1)\n 22763: jump @797 if a1 != 0\n      : @849 (gas: 2)\n 22767: a1 = u64 [s1 + 0x230]\n 22771: t0 = 796, jump @1757\n      : @850 [@dyn 398] (gas: 6)\n 22777: u64 [a2 + 1920] = 0\n 22781: u64 [a2 + 1912] = 0\n 22785: u64 [a2 + 0x768] = a1\n 22789: a1 = s1 + 0x1160\n 22793: u64 [a2 + 1904] = 0\n 22797: ra = 798, jump @9\n      : @851 [@dyn 399] (gas: 37)\n 22803: a4 = u64 [s1 + 0x278]\n 22807: a1 = u64 [a4]\n 22809: t0 = u64 [a4 + 0x18]\n 22812: a2 = u64 [a4 + 0x8]\n 22815: a3 = u64 [a4 + 0x10]\n 22818: a0 = a1 + 0x20\n 22821: a1 = a0 <u a1\n 22824: t1 = a2 + a1\n 22827: a2 = t1 <u a2\n 22830: a2 = a1 if a1 == 0\n 22833: ra = a3 + a2\n 22836: a1 = ra <u a3\n 22839: t0 = t0 + a1\n 22842: a5 = s1 + 0x100\n 22846: a3 = u64 [a5 + 0x90]\n 22850: a3 = a3 + 0x1\n 22853: a1 = a3 <u 0x1\n 22856: a2 = u64 [a5 + 0x78]\n 22859: a2 = a2 + a1\n 22862: u64 [a5 + 0x78] = a2\n 22865: u64 [a5 + 0x90] = a3\n 22869: a1 = a3 | a2\n 22872: a1 = a1 <u 0x1\n 22875: a2 = u64 [a5 + 0x70]\n 22878: a1 = a1 + a2\n 22881: a3 = a1 <u a2\n 22884: a2 = u64 [a5 + 0x80]\n 22888: a2 = a2 + a3\n 22891: u64 [a5 + 0x80] = a2\n 22895: u64 [a4] = a0\n 22897: u64 [a4 + 0x8] = t1\n 22900: u64 [a4 + 0x10] = ra\n 22903: u64 [s1 + 0x270] = t0\n 22907: u64 [a4 + 0x18] = t0\n 22910: u64 [a5 + 0x70] = a1\n 22913: t0 = 0x320\n 22917: jump @1754\n      : @852 (gas: 1)\n 22920: t0 = 800, jump @1754\n      : @853 [@dyn 400] (gas: 13)\n 22926: t0 = u64 [s1 + 0x108]\n 22930: a2 = s1 + 0x100\n 22934: a1 = u64 [a2 + 0x70]\n 22937: t2 = a1 <u t0\n 22940: a5 = u64 [a2]\n 22942: a3 = u64 [a2 + 0x80]\n 22946: a2 = a3 ^ a5\n 22949: a5 = a3 <u a5\n 22952: a5 = t2 if a2 == 0\n 22955: a1 = a1 ^ t0\n 22958: a1 = a1 | a2\n 22961: a5 = a4 if a1 == 0\n 22964: jump @859 if a5 == 0\n      : @854 (gas: 1)\n 22968: t0 = 802, jump @1755\n      : @855 [@dyn 401] (gas: 1)\n 22974: jump @797 if a1 != 0\n      : @856 (gas: 2)\n 22978: a1 = u64 [s1 + 0x228]\n 22982: t0 = 804, jump @1757\n      : @857 [@dyn 402] (gas: 6)\n 22988: u64 [a2 + 1888] = 0\n 22992: u64 [a2 + 1880] = 0\n 22996: u64 [a2 + 0x748] = a1\n 23000: a1 = s1 + 0x1140\n 23004: u64 [a2 + 1872] = 0\n 23008: ra = 806, jump @9\n      : @858 [@dyn 403] (gas: 37)\n 23014: a4 = u64 [s1 + 0x278]\n 23018: a1 = u64 [a4]\n 23020: t0 = u64 [a4 + 0x18]\n 23023: a2 = u64 [a4 + 0x8]\n 23026: a3 = u64 [a4 + 0x10]\n 23029: a0 = a1 + 0x20\n 23032: a1 = a0 <u a1\n 23035: t1 = a2 + a1\n 23038: a2 = t1 <u a2\n 23041: a2 = a1 if a1 == 0\n 23044: ra = a3 + a2\n 23047: a1 = ra <u a3\n 23050: t0 = t0 + a1\n 23053: a5 = s1 + 0x100\n 23057: a3 = u64 [a5 + 0x90]\n 23061: a3 = a3 + 0x1\n 23064: a1 = a3 <u 0x1\n 23067: a2 = u64 [a5 + 0x78]\n 23070: a2 = a2 + a1\n 23073: u64 [a5 + 0x78] = a2\n 23076: u64 [a5 + 0x90] = a3\n 23080: a1 = a3 | a2\n 23083: a1 = a1 <u 0x1\n 23086: a2 = u64 [a5 + 0x70]\n 23089: a1 = a1 + a2\n 23092: a3 = a1 <u a2\n 23095: a2 = u64 [a5 + 0x80]\n 23099: a2 = a2 + a3\n 23102: u64 [a5 + 0x80] = a2\n 23106: u64 [a4] = a0\n 23108: u64 [a4 + 0x8] = t1\n 23111: u64 [a4 + 0x10] = ra\n 23114: u64 [s1 + 0x270] = t0\n 23118: u64 [a4 + 0x18] = t0\n 23121: u64 [a5 + 0x70] = a1\n 23124: t0 = 0x328\n 23128: jump @1754\n      : @859 (gas: 1)\n 23131: t0 = 808, jump @1754\n      : @860 [@dyn 404] (gas: 13)\n 23137: t0 = u64 [s1 + 0x108]\n 23141: a2 = s1 + 0x100\n 23145: a1 = u64 [a2 + 0x70]\n 23148: t2 = a1 <u t0\n 23151: a5 = u64 [a2]\n 23153: a3 = u64 [a2 + 0x80]\n 23157: a2 = a3 ^ a5\n 23160: a5 = a3 <u a5\n 23163: a5 = t2 if a2 == 0\n 23166: a1 = a1 ^ t0\n 23169: a1 = a1 | a2\n 23172: a5 = a4 if a1 == 0\n 23175: jump @866 if a5 == 0\n      : @861 (gas: 1)\n 23179: t0 = 810, jump @1755\n      : @862 [@dyn 405] (gas: 1)\n 23185: jump @797 if a1 != 0\n      : @863 (gas: 2)\n 23189: a1 = u64 [s1 + 0x220]\n 23193: t0 = 812, jump @1757\n      : @864 [@dyn 406] (gas: 6)\n 23199: u64 [a2 + 1856] = 0\n 23203: u64 [a2 + 1848] = 0\n 23207: u64 [a2 + 0x728] = a1\n 23211: a1 = s1 + 0x1120\n 23215: u64 [a2 + 1840] = 0\n 23219: ra = 814, jump @9\n      : @865 [@dyn 407] (gas: 37)\n 23225: a4 = u64 [s1 + 0x278]\n 23229: a1 = u64 [a4]\n 23231: t0 = u64 [a4 + 0x18]\n 23234: a2 = u64 [a4 + 0x8]\n 23237: a3 = u64 [a4 + 0x10]\n 23240: a0 = a1 + 0x20\n 23243: a1 = a0 <u a1\n 23246: t1 = a2 + a1\n 23249: a2 = t1 <u a2\n 23252: a2 = a1 if a1 == 0\n 23255: ra = a3 + a2\n 23258: a1 = ra <u a3\n 23261: t0 = t0 + a1\n 23264: a5 = s1 + 0x100\n 23268: a3 = u64 [a5 + 0x90]\n 23272: a3 = a3 + 0x1\n 23275: a1 = a3 <u 0x1\n 23278: a2 = u64 [a5 + 0x78]\n 23281: a2 = a2 + a1\n 23284: u64 [a5 + 0x78] = a2\n 23287: u64 [a5 + 0x90] = a3\n 23291: a1 = a3 | a2\n 23294: a1 = a1 <u 0x1\n 23297: a2 = u64 [a5 + 0x70]\n 23300: a1 = a1 + a2\n 23303: a3 = a1 <u a2\n 23306: a2 = u64 [a5 + 0x80]\n 23310: a2 = a2 + a3\n 23313: u64 [a5 + 0x80] = a2\n 23317: u64 [a4] = a0\n 23319: u64 [a4 + 0x8] = t1\n 23322: u64 [a4 + 0x10] = ra\n 23325: u64 [s1 + 0x270] = t0\n 23329: u64 [a4 + 0x18] = t0\n 23332: u64 [a5 + 0x70] = a1\n 23335: t0 = 0x330\n 23339: jump @1754\n      : @866 (gas: 1)\n 23342: t0 = 816, jump @1754\n      : @867 [@dyn 408] (gas: 13)\n 23348: t0 = u64 [s1 + 0x108]\n 23352: a2 = s1 + 0x100\n 23356: a1 = u64 [a2 + 0x70]\n 23359: t2 = a1 <u t0\n 23362: a5 = u64 [a2]\n 23364: a3 = u64 [a2 + 0x80]\n 23368: a2 = a3 ^ a5\n 23371: a5 = a3 <u a5\n 23374: a5 = t2 if a2 == 0\n 23377: a1 = a1 ^ t0\n 23380: a1 = a1 | a2\n 23383: a5 = a4 if a1 == 0\n 23386: jump @873 if a5 == 0\n      : @868 (gas: 1)\n 23390: t0 = 818, jump @1755\n      : @869 [@dyn 409] (gas: 1)\n 23396: jump @797 if a1 != 0\n      : @870 (gas: 2)\n 23400: a1 = u64 [s1 + 0x218]\n 23404: t0 = 820, jump @1757\n      : @871 [@dyn 410] (gas: 6)\n 23410: u64 [a2 + 1824] = 0\n 23414: u64 [a2 + 1816] = 0\n 23418: u64 [a2 + 0x708] = a1\n 23422: a1 = s1 + 0x1100\n 23426: u64 [a2 + 1808] = 0\n 23430: ra = 822, jump @9\n      : @872 [@dyn 411] (gas: 37)\n 23436: a4 = u64 [s1 + 0x278]\n 23440: a1 = u64 [a4]\n 23442: t0 = u64 [a4 + 0x18]\n 23445: a2 = u64 [a4 + 0x8]\n 23448: a3 = u64 [a4 + 0x10]\n 23451: a0 = a1 + 0x20\n 23454: a1 = a0 <u a1\n 23457: t1 = a2 + a1\n 23460: a2 = t1 <u a2\n 23463: a2 = a1 if a1 == 0\n 23466: ra = a3 + a2\n 23469: a1 = ra <u a3\n 23472: t0 = t0 + a1\n 23475: a5 = s1 + 0x100\n 23479: a3 = u64 [a5 + 0x90]\n 23483: a3 = a3 + 0x1\n 23486: a1 = a3 <u 0x1\n 23489: a2 = u64 [a5 + 0x78]\n 23492: a2 = a2 + a1\n 23495: u64 [a5 + 0x78] = a2\n 23498: u64 [a5 + 0x90] = a3\n 23502: a1 = a3 | a2\n 23505: a1 = a1 <u 0x1\n 23508: a2 = u64 [a5 + 0x70]\n 23511: a1 = a1 + a2\n 23514: a3 = a1 <u a2\n 23517: a2 = u64 [a5 + 0x80]\n 23521: a2 = a2 + a3\n 23524: u64 [a5 + 0x80] = a2\n 23528: u64 [a4] = a0\n 23530: u64 [a4 + 0x8] = t1\n 23533: u64 [a4 + 0x10] = ra\n 23536: u64 [s1 + 0x270] = t0\n 23540: u64 [a4 + 0x18] = t0\n 23543: u64 [a5 + 0x70] = a1\n 23546: t0 = 0x338\n 23550: jump @1754\n      : @873 (gas: 1)\n 23553: t0 = 824, jump @1754\n      : @874 [@dyn 412] (gas: 13)\n 23559: t0 = u64 [s1 + 0x108]\n 23563: a2 = s1 + 0x100\n 23567: a1 = u64 [a2 + 0x70]\n 23570: t2 = a1 <u t0\n 23573: a5 = u64 [a2]\n 23575: a3 = u64 [a2 + 0x80]\n 23579: a2 = a3 ^ a5\n 23582: a5 = a3 <u a5\n 23585: a5 = t2 if a2 == 0\n 23588: a1 = a1 ^ t0\n 23591: a1 = a1 | a2\n 23594: a5 = a4 if a1 == 0\n 23597: jump @880 if a5 == 0\n      : @875 (gas: 1)\n 23601: t0 = 826, jump @1755\n      : @876 [@dyn 413] (gas: 1)\n 23607: jump @797 if a1 != 0\n      : @877 (gas: 2)\n 23611: a1 = u64 [s1 + 0x210]\n 23615: t0 = 828, jump @1757\n      : @878 [@dyn 414] (gas: 6)\n 23621: u64 [a2 + 1792] = 0\n 23625: u64 [a2 + 1784] = 0\n 23629: u64 [a2 + 0x6e8] = a1\n 23633: a1 = s1 + 0x10e0\n 23637: u64 [a2 + 1776] = 0\n 23641: ra = 830, jump @9\n      : @879 [@dyn 415] (gas: 37)\n 23647: a4 = u64 [s1 + 0x278]\n 23651: a1 = u64 [a4]\n 23653: t0 = u64 [a4 + 0x18]\n 23656: a2 = u64 [a4 + 0x8]\n 23659: a3 = u64 [a4 + 0x10]\n 23662: a0 = a1 + 0x20\n 23665: a1 = a0 <u a1\n 23668: t1 = a2 + a1\n 23671: a2 = t1 <u a2\n 23674: a2 = a1 if a1 == 0\n 23677: ra = a3 + a2\n 23680: a1 = ra <u a3\n 23683: t0 = t0 + a1\n 23686: a5 = s1 + 0x100\n 23690: a3 = u64 [a5 + 0x90]\n 23694: a3 = a3 + 0x1\n 23697: a1 = a3 <u 0x1\n 23700: a2 = u64 [a5 + 0x78]\n 23703: a2 = a2 + a1\n 23706: u64 [a5 + 0x78] = a2\n 23709: u64 [a5 + 0x90] = a3\n 23713: a1 = a3 | a2\n 23716: a1 = a1 <u 0x1\n 23719: a2 = u64 [a5 + 0x70]\n 23722: a1 = a1 + a2\n 23725: a3 = a1 <u a2\n 23728: a2 = u64 [a5 + 0x80]\n 23732: a2 = a2 + a3\n 23735: u64 [a5 + 0x80] = a2\n 23739: u64 [a4] = a0\n 23741: u64 [a4 + 0x8] = t1\n 23744: u64 [a4 + 0x10] = ra\n 23747: u64 [s1 + 0x270] = t0\n 23751: u64 [a4 + 0x18] = t0\n 23754: u64 [a5 + 0x70] = a1\n 23757: t0 = 0x340\n 23761: jump @1754\n      : @880 (gas: 1)\n 23764: t0 = 832, jump @1754\n      : @881 [@dyn 416] (gas: 13)\n 23770: t0 = u64 [s1 + 0x108]\n 23774: a2 = s1 + 0x100\n 23778: a1 = u64 [a2 + 0x70]\n 23781: t2 = a1 <u t0\n 23784: a5 = u64 [a2]\n 23786: a3 = u64 [a2 + 0x80]\n 23790: a2 = a3 ^ a5\n 23793: a5 = a3 <u a5\n 23796: a5 = t2 if a2 == 0\n 23799: a1 = a1 ^ t0\n 23802: a1 = a1 | a2\n 23805: a5 = a4 if a1 == 0\n 23808: jump @887 if a5 == 0\n      : @882 (gas: 1)\n 23812: t0 = 834, jump @1755\n      : @883 [@dyn 417] (gas: 1)\n 23818: jump @797 if a1 != 0\n      : @884 (gas: 2)\n 23822: a1 = u64 [s1 + 0x208]\n 23826: t0 = 836, jump @1757\n      : @885 [@dyn 418] (gas: 6)\n 23832: u64 [a2 + 1760] = 0\n 23836: u64 [a2 + 1752] = 0\n 23840: u64 [a2 + 0x6c8] = a1\n 23844: a1 = s1 + 0x10c0\n 23848: u64 [a2 + 1744] = 0\n 23852: ra = 838, jump @9\n      : @886 [@dyn 419] (gas: 37)\n 23858: a4 = u64 [s1 + 0x278]\n 23862: a1 = u64 [a4]\n 23864: t0 = u64 [a4 + 0x18]\n 23867: a2 = u64 [a4 + 0x8]\n 23870: a3 = u64 [a4 + 0x10]\n 23873: a0 = a1 + 0x20\n 23876: a1 = a0 <u a1\n 23879: t1 = a2 + a1\n 23882: a2 = t1 <u a2\n 23885: a2 = a1 if a1 == 0\n 23888: ra = a3 + a2\n 23891: a1 = ra <u a3\n 23894: t0 = t0 + a1\n 23897: a5 = s1 + 0x100\n 23901: a3 = u64 [a5 + 0x90]\n 23905: a3 = a3 + 0x1\n 23908: a1 = a3 <u 0x1\n 23911: a2 = u64 [a5 + 0x78]\n 23914: a2 = a2 + a1\n 23917: u64 [a5 + 0x78] = a2\n 23920: u64 [a5 + 0x90] = a3\n 23924: a1 = a3 | a2\n 23927: a1 = a1 <u 0x1\n 23930: a2 = u64 [a5 + 0x70]\n 23933: a1 = a1 + a2\n 23936: a3 = a1 <u a2\n 23939: a2 = u64 [a5 + 0x80]\n 23943: a2 = a2 + a3\n 23946: u64 [a5 + 0x80] = a2\n 23950: u64 [a4] = a0\n 23952: u64 [a4 + 0x8] = t1\n 23955: u64 [a4 + 0x10] = ra\n 23958: u64 [s1 + 0x270] = t0\n 23962: u64 [a4 + 0x18] = t0\n 23965: u64 [a5 + 0x70] = a1\n 23968: t0 = 0x348\n 23972: jump @1754\n      : @887 (gas: 1)\n 23975: t0 = 840, jump @1754\n      : @888 [@dyn 420] (gas: 13)\n 23981: t0 = u64 [s1 + 0x108]\n 23985: a2 = s1 + 0x100\n 23989: a1 = u64 [a2 + 0x70]\n 23992: t2 = a1 <u t0\n 23995: a5 = u64 [a2]\n 23997: a3 = u64 [a2 + 0x80]\n 24001: a2 = a3 ^ a5\n 24004: a5 = a3 <u a5\n 24007: a5 = t2 if a2 == 0\n 24010: a1 = a1 ^ t0\n 24013: a1 = a1 | a2\n 24016: a5 = a4 if a1 == 0\n 24019: jump @894 if a5 == 0\n      : @889 (gas: 1)\n 24023: t0 = 842, jump @1755\n      : @890 [@dyn 421] (gas: 1)\n 24029: jump @797 if a1 != 0\n      : @891 (gas: 2)\n 24033: a1 = u64 [s1 + 0x200]\n 24037: t0 = 844, jump @1757\n      : @892 [@dyn 422] (gas: 6)\n 24043: u64 [a2 + 1728] = 0\n 24047: u64 [a2 + 1720] = 0\n 24051: u64 [a2 + 0x6a8] = a1\n 24055: a1 = s1 + 0x10a0\n 24059: u64 [a2 + 1712] = 0\n 24063: ra = 846, jump @9\n      : @893 [@dyn 423] (gas: 37)\n 24069: a4 = u64 [s1 + 0x278]\n 24073: a1 = u64 [a4]\n 24075: t0 = u64 [a4 + 0x18]\n 24078: a2 = u64 [a4 + 0x8]\n 24081: a3 = u64 [a4 + 0x10]\n 24084: a0 = a1 + 0x20\n 24087: a1 = a0 <u a1\n 24090: t1 = a2 + a1\n 24093: a2 = t1 <u a2\n 24096: a2 = a1 if a1 == 0\n 24099: ra = a3 + a2\n 24102: a1 = ra <u a3\n 24105: t0 = t0 + a1\n 24108: a5 = s1 + 0x100\n 24112: a3 = u64 [a5 + 0x90]\n 24116: a3 = a3 + 0x1\n 24119: a1 = a3 <u 0x1\n 24122: a2 = u64 [a5 + 0x78]\n 24125: a2 = a2 + a1\n 24128: u64 [a5 + 0x78] = a2\n 24131: u64 [a5 + 0x90] = a3\n 24135: a1 = a3 | a2\n 24138: a1 = a1 <u 0x1\n 24141: a2 = u64 [a5 + 0x70]\n 24144: a1 = a1 + a2\n 24147: a3 = a1 <u a2\n 24150: a2 = u64 [a5 + 0x80]\n 24154: a2 = a2 + a3\n 24157: u64 [a5 + 0x80] = a2\n 24161: u64 [a4] = a0\n 24163: u64 [a4 + 0x8] = t1\n 24166: u64 [a4 + 0x10] = ra\n 24169: u64 [s1 + 0x270] = t0\n 24173: u64 [a4 + 0x18] = t0\n 24176: u64 [a5 + 0x70] = a1\n 24179: t0 = 0x350\n 24183: jump @1754\n      : @894 (gas: 1)\n 24186: t0 = 848, jump @1754\n      : @895 [@dyn 424] (gas: 13)\n 24192: t0 = u64 [s1 + 0x108]\n 24196: a2 = s1 + 0x100\n 24200: a1 = u64 [a2 + 0x70]\n 24203: t2 = a1 <u t0\n 24206: a5 = u64 [a2]\n 24208: a3 = u64 [a2 + 0x80]\n 24212: a2 = a3 ^ a5\n 24215: a5 = a3 <u a5\n 24218: a5 = t2 if a2 == 0\n 24221: a1 = a1 ^ t0\n 24224: a1 = a1 | a2\n 24227: a5 = a4 if a1 == 0\n 24230: jump @901 if a5 == 0\n      : @896 (gas: 1)\n 24234: t0 = 850, jump @1755\n      : @897 [@dyn 425] (gas: 1)\n 24240: jump @797 if a1 != 0\n      : @898 (gas: 2)\n 24244: a1 = u64 [s1 + 0x1f8]\n 24248: t0 = 852, jump @1757\n      : @899 [@dyn 426] (gas: 6)\n 24254: u64 [a2 + 1696] = 0\n 24258: u64 [a2 + 1688] = 0\n 24262: u64 [a2 + 0x688] = a1\n 24266: a1 = s1 + 0x1080\n 24270: u64 [a2 + 1680] = 0\n 24274: ra = 854, jump @9\n      : @900 [@dyn 427] (gas: 37)\n 24280: a4 = u64 [s1 + 0x278]\n 24284: a1 = u64 [a4]\n 24286: t0 = u64 [a4 + 0x18]\n 24289: a2 = u64 [a4 + 0x8]\n 24292: a3 = u64 [a4 + 0x10]\n 24295: a0 = a1 + 0x20\n 24298: a1 = a0 <u a1\n 24301: t1 = a2 + a1\n 24304: a2 = t1 <u a2\n 24307: a2 = a1 if a1 == 0\n 24310: ra = a3 + a2\n 24313: a1 = ra <u a3\n 24316: t0 = t0 + a1\n 24319: a5 = s1 + 0x100\n 24323: a3 = u64 [a5 + 0x90]\n 24327: a3 = a3 + 0x1\n 24330: a1 = a3 <u 0x1\n 24333: a2 = u64 [a5 + 0x78]\n 24336: a2 = a2 + a1\n 24339: u64 [a5 + 0x78] = a2\n 24342: u64 [a5 + 0x90] = a3\n 24346: a1 = a3 | a2\n 24349: a1 = a1 <u 0x1\n 24352: a2 = u64 [a5 + 0x70]\n 24355: a1 = a1 + a2\n 24358: a3 = a1 <u a2\n 24361: a2 = u64 [a5 + 0x80]\n 24365: a2 = a2 + a3\n 24368: u64 [a5 + 0x80] = a2\n 24372: u64 [a4] = a0\n 24374: u64 [a4 + 0x8] = t1\n 24377: u64 [a4 + 0x10] = ra\n 24380: u64 [s1 + 0x270] = t0\n 24384: u64 [a4 + 0x18] = t0\n 24387: u64 [a5 + 0x70] = a1\n 24390: t0 = 0x358\n 24394: jump @1754\n      : @901 (gas: 1)\n 24397: t0 = 856, jump @1754\n      : @902 [@dyn 428] (gas: 13)\n 24403: t0 = u64 [s1 + 0x108]\n 24407: a2 = s1 + 0x100\n 24411: a1 = u64 [a2 + 0x70]\n 24414: t2 = a1 <u t0\n 24417: a5 = u64 [a2]\n 24419: a3 = u64 [a2 + 0x80]\n 24423: a2 = a3 ^ a5\n 24426: a5 = a3 <u a5\n 24429: a5 = t2 if a2 == 0\n 24432: a1 = a1 ^ t0\n 24435: a1 = a1 | a2\n 24438: a5 = a4 if a1 == 0\n 24441: jump @909 if a5 == 0\n      : @903 (gas: 1)\n 24445: t0 = 858, jump @1755\n      : @904 [@dyn 429] (gas: 1)\n 24451: jump @906 if a1 == 0\n      : @905 (gas: 1)\n 24454: jump @797\n      : @906 (gas: 2)\n 24457: a1 = u64 [s1 + 0x1f0]\n 24461: t0 = 860, jump @1757\n      : @907 [@dyn 430] (gas: 6)\n 24467: u64 [a2 + 1664] = 0\n 24471: u64 [a2 + 1656] = 0\n 24475: u64 [a2 + 0x668] = a1\n 24479: a1 = s1 + 0x1060\n 24483: u64 [a2 + 1648] = 0\n 24487: ra = 862, jump @9\n      : @908 [@dyn 431] (gas: 37)\n 24493: a4 = u64 [s1 + 0x278]\n 24497: a1 = u64 [a4]\n 24499: t0 = u64 [a4 + 0x18]\n 24502: a2 = u64 [a4 + 0x8]\n 24505: a3 = u64 [a4 + 0x10]\n 24508: a0 = a1 + 0x20\n 24511: a1 = a0 <u a1\n 24514: t1 = a2 + a1\n 24517: a2 = t1 <u a2\n 24520: a2 = a1 if a1 == 0\n 24523: ra = a3 + a2\n 24526: a1 = ra <u a3\n 24529: t0 = t0 + a1\n 24532: a5 = s1 + 0x100\n 24536: a3 = u64 [a5 + 0x90]\n 24540: a3 = a3 + 0x1\n 24543: a1 = a3 <u 0x1\n 24546: a2 = u64 [a5 + 0x78]\n 24549: a2 = a2 + a1\n 24552: u64 [a5 + 0x78] = a2\n 24555: u64 [a5 + 0x90] = a3\n 24559: a1 = a3 | a2\n 24562: a1 = a1 <u 0x1\n 24565: a2 = u64 [a5 + 0x70]\n 24568: a1 = a1 + a2\n 24571: a3 = a1 <u a2\n 24574: a2 = u64 [a5 + 0x80]\n 24578: a2 = a2 + a3\n 24581: u64 [a5 + 0x80] = a2\n 24585: u64 [a4] = a0\n 24587: u64 [a4 + 0x8] = t1\n 24590: u64 [a4 + 0x10] = ra\n 24593: u64 [s1 + 0x270] = t0\n 24597: u64 [a4 + 0x18] = t0\n 24600: u64 [a5 + 0x70] = a1\n 24603: t0 = 0x360\n 24607: jump @1754\n      : @909 (gas: 1)\n 24610: t0 = 864, jump @1754\n      : @910 [@dyn 432] (gas: 13)\n 24616: t0 = u64 [s1 + 0x108]\n 24620: a2 = s1 + 0x100\n 24624: a1 = u64 [a2 + 0x70]\n 24627: t2 = a1 <u t0\n 24630: a5 = u64 [a2]\n 24632: a3 = u64 [a2 + 0x80]\n 24636: a2 = a3 ^ a5\n 24639: a5 = a3 <u a5\n 24642: a5 = t2 if a2 == 0\n 24645: a1 = a1 ^ t0\n 24648: a1 = a1 | a2\n 24651: a5 = a4 if a1 == 0\n 24654: jump @917 if a5 == 0\n      : @911 (gas: 1)\n 24658: t0 = 866, jump @1755\n      : @912 [@dyn 433] (gas: 1)\n 24664: jump @914 if a1 == 0\n      : @913 (gas: 1)\n 24667: jump @797\n      : @914 (gas: 2)\n 24670: a1 = u64 [s1 + 0x1e8]\n 24674: t0 = 868, jump @1757\n      : @915 [@dyn 434] (gas: 6)\n 24680: u64 [a2 + 1632] = 0\n 24684: u64 [a2 + 1624] = 0\n 24688: u64 [a2 + 0x648] = a1\n 24692: a1 = s1 + 0x1040\n 24696: u64 [a2 + 1616] = 0\n 24700: ra = 870, jump @9\n      : @916 [@dyn 435] (gas: 37)\n 24706: a4 = u64 [s1 + 0x278]\n 24710: a1 = u64 [a4]\n 24712: t0 = u64 [a4 + 0x18]\n 24715: a2 = u64 [a4 + 0x8]\n 24718: a3 = u64 [a4 + 0x10]\n 24721: a0 = a1 + 0x20\n 24724: a1 = a0 <u a1\n 24727: t1 = a2 + a1\n 24730: a2 = t1 <u a2\n 24733: a2 = a1 if a1 == 0\n 24736: ra = a3 + a2\n 24739: a1 = ra <u a3\n 24742: t0 = t0 + a1\n 24745: a5 = s1 + 0x100\n 24749: a3 = u64 [a5 + 0x90]\n 24753: a3 = a3 + 0x1\n 24756: a1 = a3 <u 0x1\n 24759: a2 = u64 [a5 + 0x78]\n 24762: a2 = a2 + a1\n 24765: u64 [a5 + 0x78] = a2\n 24768: u64 [a5 + 0x90] = a3\n 24772: a1 = a3 | a2\n 24775: a1 = a1 <u 0x1\n 24778: a2 = u64 [a5 + 0x70]\n 24781: a1 = a1 + a2\n 24784: a3 = a1 <u a2\n 24787: a2 = u64 [a5 + 0x80]\n 24791: a2 = a2 + a3\n 24794: u64 [a5 + 0x80] = a2\n 24798: u64 [a4] = a0\n 24800: u64 [a4 + 0x8] = t1\n 24803: u64 [a4 + 0x10] = ra\n 24806: u64 [s1 + 0x270] = t0\n 24810: u64 [a4 + 0x18] = t0\n 24813: u64 [a5 + 0x70] = a1\n 24816: t0 = 0x368\n 24820: jump @1754\n      : @917 (gas: 1)\n 24823: t0 = 872, jump @1754\n      : @918 [@dyn 436] (gas: 13)\n 24829: t0 = u64 [s1 + 0x108]\n 24833: a2 = s1 + 0x100\n 24837: a1 = u64 [a2 + 0x70]\n 24840: t2 = a1 <u t0\n 24843: a5 = u64 [a2]\n 24845: a3 = u64 [a2 + 0x80]\n 24849: a2 = a3 ^ a5\n 24852: a5 = a3 <u a5\n 24855: a5 = t2 if a2 == 0\n 24858: a1 = a1 ^ t0\n 24861: a1 = a1 | a2\n 24864: a5 = a4 if a1 == 0\n 24867: jump @925 if a5 == 0\n      : @919 (gas: 1)\n 24871: t0 = 874, jump @1755\n      : @920 [@dyn 437] (gas: 1)\n 24877: jump @922 if a1 == 0\n      : @921 (gas: 1)\n 24880: jump @797\n      : @922 (gas: 2)\n 24883: a1 = u64 [s1 + 0x1e0]\n 24887: t0 = 876, jump @1757\n      : @923 [@dyn 438] (gas: 6)\n 24893: u64 [a2 + 1600] = 0\n 24897: u64 [a2 + 1592] = 0\n 24901: u64 [a2 + 0x628] = a1\n 24905: a1 = s1 + 0x1020\n 24909: u64 [a2 + 1584] = 0\n 24913: ra = 878, jump @9\n      : @924 [@dyn 439] (gas: 37)\n 24919: a4 = u64 [s1 + 0x278]\n 24923: a1 = u64 [a4]\n 24925: t0 = u64 [a4 + 0x18]\n 24928: a2 = u64 [a4 + 0x8]\n 24931: a3 = u64 [a4 + 0x10]\n 24934: a0 = a1 + 0x20\n 24937: a1 = a0 <u a1\n 24940: t1 = a2 + a1\n 24943: a2 = t1 <u a2\n 24946: a2 = a1 if a1 == 0\n 24949: ra = a3 + a2\n 24952: a1 = ra <u a3\n 24955: t0 = t0 + a1\n 24958: a5 = s1 + 0x100\n 24962: a3 = u64 [a5 + 0x90]\n 24966: a3 = a3 + 0x1\n 24969: a1 = a3 <u 0x1\n 24972: a2 = u64 [a5 + 0x78]\n 24975: a2 = a2 + a1\n 24978: u64 [a5 + 0x78] = a2\n 24981: u64 [a5 + 0x90] = a3\n 24985: a1 = a3 | a2\n 24988: a1 = a1 <u 0x1\n 24991: a2 = u64 [a5 + 0x70]\n 24994: a1 = a1 + a2\n 24997: a3 = a1 <u a2\n 25000: a2 = u64 [a5 + 0x80]\n 25004: a2 = a2 + a3\n 25007: u64 [a5 + 0x80] = a2\n 25011: u64 [a4] = a0\n 25013: u64 [a4 + 0x8] = t1\n 25016: u64 [a4 + 0x10] = ra\n 25019: u64 [s1 + 0x270] = t0\n 25023: u64 [a4 + 0x18] = t0\n 25026: u64 [a5 + 0x70] = a1\n 25029: t0 = 0x370\n 25033: jump @1754\n      : @925 (gas: 1)\n 25036: t0 = 880, jump @1754\n      : @926 [@dyn 440] (gas: 13)\n 25042: t0 = u64 [s1 + 0x108]\n 25046: a2 = s1 + 0x100\n 25050: a1 = u64 [a2 + 0x70]\n 25053: t2 = a1 <u t0\n 25056: a5 = u64 [a2]\n 25058: a3 = u64 [a2 + 0x80]\n 25062: a2 = a3 ^ a5\n 25065: a5 = a3 <u a5\n 25068: a5 = t2 if a2 == 0\n 25071: a1 = a1 ^ t0\n 25074: a1 = a1 | a2\n 25077: a5 = a4 if a1 == 0\n 25080: jump @933 if a5 == 0\n      : @927 (gas: 1)\n 25084: t0 = 882, jump @1755\n      : @928 [@dyn 441] (gas: 1)\n 25090: jump @930 if a1 == 0\n      : @929 (gas: 1)\n 25093: jump @797\n      : @930 (gas: 2)\n 25096: a1 = u64 [s1 + 0x1d8]\n 25100: t0 = 884, jump @1757\n      : @931 [@dyn 442] (gas: 6)\n 25106: u64 [a2 + 1568] = 0\n 25110: u64 [a2 + 1560] = 0\n 25114: u64 [a2 + 0x608] = a1\n 25118: a1 = s1 + 0x1000\n 25122: u64 [a2 + 1552] = 0\n 25126: ra = 886, jump @9\n      : @932 [@dyn 443] (gas: 37)\n 25132: a4 = u64 [s1 + 0x278]\n 25136: a1 = u64 [a4]\n 25138: t0 = u64 [a4 + 0x18]\n 25141: a2 = u64 [a4 + 0x8]\n 25144: a3 = u64 [a4 + 0x10]\n 25147: a0 = a1 + 0x20\n 25150: a1 = a0 <u a1\n 25153: t1 = a2 + a1\n 25156: a2 = t1 <u a2\n 25159: a2 = a1 if a1 == 0\n 25162: ra = a3 + a2\n 25165: a1 = ra <u a3\n 25168: t0 = t0 + a1\n 25171: a5 = s1 + 0x100\n 25175: a3 = u64 [a5 + 0x90]\n 25179: a3 = a3 + 0x1\n 25182: a1 = a3 <u 0x1\n 25185: a2 = u64 [a5 + 0x78]\n 25188: a2 = a2 + a1\n 25191: u64 [a5 + 0x78] = a2\n 25194: u64 [a5 + 0x90] = a3\n 25198: a1 = a3 | a2\n 25201: a1 = a1 <u 0x1\n 25204: a2 = u64 [a5 + 0x70]\n 25207: a1 = a1 + a2\n 25210: a3 = a1 <u a2\n 25213: a2 = u64 [a5 + 0x80]\n 25217: a2 = a2 + a3\n 25220: u64 [a5 + 0x80] = a2\n 25224: u64 [a4] = a0\n 25226: u64 [a4 + 0x8] = t1\n 25229: u64 [a4 + 0x10] = ra\n 25232: u64 [s1 + 0x270] = t0\n 25236: u64 [a4 + 0x18] = t0\n 25239: u64 [a5 + 0x70] = a1\n 25242: t0 = 0x378\n 25246: jump @1754\n      : @933 (gas: 1)\n 25249: t0 = 888, jump @1754\n      : @934 [@dyn 444] (gas: 13)\n 25255: t0 = u64 [s1 + 0x108]\n 25259: a2 = s1 + 0x100\n 25263: a1 = u64 [a2 + 0x70]\n 25266: t2 = a1 <u t0\n 25269: a5 = u64 [a2]\n 25271: a3 = u64 [a2 + 0x80]\n 25275: a2 = a3 ^ a5\n 25278: a5 = a3 <u a5\n 25281: a5 = t2 if a2 == 0\n 25284: a1 = a1 ^ t0\n 25287: a1 = a1 | a2\n 25290: a5 = a4 if a1 == 0\n 25293: jump @941 if a5 == 0\n      : @935 (gas: 1)\n 25297: t0 = 890, jump @1755\n      : @936 [@dyn 445] (gas: 1)\n 25303: jump @938 if a1 == 0\n      : @937 (gas: 1)\n 25306: jump @797\n      : @938 (gas: 2)\n 25309: a1 = u64 [s1 + 0x1d0]\n 25313: t0 = 892, jump @1757\n      : @939 [@dyn 446] (gas: 7)\n 25319: u64 [a2 + 1536] = 0\n 25323: u64 [a2 + 1528] = 0\n 25327: u64 [a2 + 0x5e8] = a1\n 25331: a1 = s1 + 0x7ff\n 25335: a1 = a1 + 0x7e1\n 25339: u64 [a2 + 1520] = 0\n 25343: ra = 894, jump @9\n      : @940 [@dyn 447] (gas: 37)\n 25349: a4 = u64 [s1 + 0x278]\n 25353: a1 = u64 [a4]\n 25355: t0 = u64 [a4 + 0x18]\n 25358: a2 = u64 [a4 + 0x8]\n 25361: a3 = u64 [a4 + 0x10]\n 25364: a0 = a1 + 0x20\n 25367: a1 = a0 <u a1\n 25370: t1 = a2 + a1\n 25373: a2 = t1 <u a2\n 25376: a2 = a1 if a1 == 0\n 25379: ra = a3 + a2\n 25382: a1 = ra <u a3\n 25385: t0 = t0 + a1\n 25388: a5 = s1 + 0x100\n 25392: a3 = u64 [a5 + 0x90]\n 25396: a3 = a3 + 0x1\n 25399: a1 = a3 <u 0x1\n 25402: a2 = u64 [a5 + 0x78]\n 25405: a2 = a2 + a1\n 25408: u64 [a5 + 0x78] = a2\n 25411: u64 [a5 + 0x90] = a3\n 25415: a1 = a3 | a2\n 25418: a1 = a1 <u 0x1\n 25421: a2 = u64 [a5 + 0x70]\n 25424: a1 = a1 + a2\n 25427: a3 = a1 <u a2\n 25430: a2 = u64 [a5 + 0x80]\n 25434: a2 = a2 + a3\n 25437: u64 [a5 + 0x80] = a2\n 25441: u64 [a4] = a0\n 25443: u64 [a4 + 0x8] = t1\n 25446: u64 [a4 + 0x10] = ra\n 25449: u64 [s1 + 0x270] = t0\n 25453: u64 [a4 + 0x18] = t0\n 25456: u64 [a5 + 0x70] = a1\n 25459: t0 = 0x380\n 25463: jump @1754\n      : @941 (gas: 1)\n 25466: t0 = 896, jump @1754\n      : @942 [@dyn 448] (gas: 13)\n 25472: t0 = u64 [s1 + 0x108]\n 25476: a2 = s1 + 0x100\n 25480: a1 = u64 [a2 + 0x70]\n 25483: t2 = a1 <u t0\n 25486: a5 = u64 [a2]\n 25488: a3 = u64 [a2 + 0x80]\n 25492: a2 = a3 ^ a5\n 25495: a5 = a3 <u a5\n 25498: a5 = t2 if a2 == 0\n 25501: a1 = a1 ^ t0\n 25504: a1 = a1 | a2\n 25507: a5 = a4 if a1 == 0\n 25510: jump @949 if a5 == 0\n      : @943 (gas: 1)\n 25514: t0 = 898, jump @1755\n      : @944 [@dyn 449] (gas: 1)\n 25520: jump @946 if a1 == 0\n      : @945 (gas: 1)\n 25523: jump @797\n      : @946 (gas: 2)\n 25526: a1 = u64 [s1 + 0x1c8]\n 25530: t0 = 900, jump @1757\n      : @947 [@dyn 450] (gas: 7)\n 25536: u64 [a2 + 1504] = 0\n 25540: u64 [a2 + 1496] = 0\n 25544: u64 [a2 + 0x5c8] = a1\n 25548: a1 = s1 + 0x7ff\n 25552: a1 = a1 + 0x7c1\n 25556: u64 [a2 + 1488] = 0\n 25560: ra = 902, jump @9\n      : @948 [@dyn 451] (gas: 37)\n 25566: a4 = u64 [s1 + 0x278]\n 25570: a1 = u64 [a4]\n 25572: t0 = u64 [a4 + 0x18]\n 25575: a2 = u64 [a4 + 0x8]\n 25578: a3 = u64 [a4 + 0x10]\n 25581: a0 = a1 + 0x20\n 25584: a1 = a0 <u a1\n 25587: t1 = a2 + a1\n 25590: a2 = t1 <u a2\n 25593: a2 = a1 if a1 == 0\n 25596: ra = a3 + a2\n 25599: a1 = ra <u a3\n 25602: t0 = t0 + a1\n 25605: a5 = s1 + 0x100\n 25609: a3 = u64 [a5 + 0x90]\n 25613: a3 = a3 + 0x1\n 25616: a1 = a3 <u 0x1\n 25619: a2 = u64 [a5 + 0x78]\n 25622: a2 = a2 + a1\n 25625: u64 [a5 + 0x78] = a2\n 25628: u64 [a5 + 0x90] = a3\n 25632: a1 = a3 | a2\n 25635: a1 = a1 <u 0x1\n 25638: a2 = u64 [a5 + 0x70]\n 25641: a1 = a1 + a2\n 25644: a3 = a1 <u a2\n 25647: a2 = u64 [a5 + 0x80]\n 25651: a2 = a2 + a3\n 25654: u64 [a5 + 0x80] = a2\n 25658: u64 [a4] = a0\n 25660: u64 [a4 + 0x8] = t1\n 25663: u64 [a4 + 0x10] = ra\n 25666: u64 [s1 + 0x270] = t0\n 25670: u64 [a4 + 0x18] = t0\n 25673: u64 [a5 + 0x70] = a1\n 25676: t0 = 0x388\n 25680: jump @1754\n      : @949 (gas: 1)\n 25683: t0 = 904, jump @1754\n      : @950 [@dyn 452] (gas: 13)\n 25689: t0 = u64 [s1 + 0x108]\n 25693: a2 = s1 + 0x100\n 25697: a1 = u64 [a2 + 0x70]\n 25700: t2 = a1 <u t0\n 25703: a5 = u64 [a2]\n 25705: a3 = u64 [a2 + 0x80]\n 25709: a2 = a3 ^ a5\n 25712: a5 = a3 <u a5\n 25715: a5 = t2 if a2 == 0\n 25718: a1 = a1 ^ t0\n 25721: a1 = a1 | a2\n 25724: a5 = a4 if a1 == 0\n 25727: jump @957 if a5 == 0\n      : @951 (gas: 1)\n 25731: t0 = 906, jump @1755\n      : @952 [@dyn 453] (gas: 1)\n 25737: jump @954 if a1 == 0\n      : @953 (gas: 1)\n 25740: jump @797\n      : @954 (gas: 2)\n 25743: a1 = u64 [s1 + 0x1c0]\n 25747: t0 = 908, jump @1757\n      : @955 [@dyn 454] (gas: 7)\n 25753: u64 [a2 + 1472] = 0\n 25757: u64 [a2 + 1464] = 0\n 25761: u64 [a2 + 0x5a8] = a1\n 25765: a1 = s1 + 0x7ff\n 25769: a1 = a1 + 0x7a1\n 25773: u64 [a2 + 1456] = 0\n 25777: ra = 910, jump @9\n      : @956 [@dyn 455] (gas: 37)\n 25783: a4 = u64 [s1 + 0x278]\n 25787: a1 = u64 [a4]\n 25789: t0 = u64 [a4 + 0x18]\n 25792: a2 = u64 [a4 + 0x8]\n 25795: a3 = u64 [a4 + 0x10]\n 25798: a0 = a1 + 0x20\n 25801: a1 = a0 <u a1\n 25804: t1 = a2 + a1\n 25807: a2 = t1 <u a2\n 25810: a2 = a1 if a1 == 0\n 25813: ra = a3 + a2\n 25816: a1 = ra <u a3\n 25819: t0 = t0 + a1\n 25822: a5 = s1 + 0x100\n 25826: a3 = u64 [a5 + 0x90]\n 25830: a3 = a3 + 0x1\n 25833: a1 = a3 <u 0x1\n 25836: a2 = u64 [a5 + 0x78]\n 25839: a2 = a2 + a1\n 25842: u64 [a5 + 0x78] = a2\n 25845: u64 [a5 + 0x90] = a3\n 25849: a1 = a3 | a2\n 25852: a1 = a1 <u 0x1\n 25855: a2 = u64 [a5 + 0x70]\n 25858: a1 = a1 + a2\n 25861: a3 = a1 <u a2\n 25864: a2 = u64 [a5 + 0x80]\n 25868: a2 = a2 + a3\n 25871: u64 [a5 + 0x80] = a2\n 25875: u64 [a4] = a0\n 25877: u64 [a4 + 0x8] = t1\n 25880: u64 [a4 + 0x10] = ra\n 25883: u64 [s1 + 0x270] = t0\n 25887: u64 [a4 + 0x18] = t0\n 25890: u64 [a5 + 0x70] = a1\n 25893: t0 = 0x390\n 25897: jump @1754\n      : @957 (gas: 1)\n 25900: t0 = 912, jump @1754\n      : @958 [@dyn 456] (gas: 13)\n 25906: t0 = u64 [s1 + 0x108]\n 25910: a2 = s1 + 0x100\n 25914: a1 = u64 [a2 + 0x70]\n 25917: t2 = a1 <u t0\n 25920: a5 = u64 [a2]\n 25922: a3 = u64 [a2 + 0x80]\n 25926: a2 = a3 ^ a5\n 25929: a5 = a3 <u a5\n 25932: a5 = t2 if a2 == 0\n 25935: a1 = a1 ^ t0\n 25938: a1 = a1 | a2\n 25941: a5 = a4 if a1 == 0\n 25944: jump @965 if a5 == 0\n      : @959 (gas: 1)\n 25948: t0 = 914, jump @1755\n      : @960 [@dyn 457] (gas: 1)\n 25954: jump @962 if a1 == 0\n      : @961 (gas: 1)\n 25957: jump @797\n      : @962 (gas: 2)\n 25960: a1 = u64 [s1 + 0x1b8]\n 25964: t0 = 916, jump @1757\n      : @963 [@dyn 458] (gas: 7)\n 25970: u64 [a2 + 1440] = 0\n 25974: u64 [a2 + 1432] = 0\n 25978: u64 [a2 + 0x588] = a1\n 25982: a1 = s1 + 0x7ff\n 25986: a1 = a1 + 0x781\n 25990: u64 [a2 + 1424] = 0\n 25994: ra = 918, jump @9\n      : @964 [@dyn 459] (gas: 37)\n 26000: a4 = u64 [s1 + 0x278]\n 26004: a1 = u64 [a4]\n 26006: t0 = u64 [a4 + 0x18]\n 26009: a2 = u64 [a4 + 0x8]\n 26012: a3 = u64 [a4 + 0x10]\n 26015: a0 = a1 + 0x20\n 26018: a1 = a0 <u a1\n 26021: t1 = a2 + a1\n 26024: a2 = t1 <u a2\n 26027: a2 = a1 if a1 == 0\n 26030: ra = a3 + a2\n 26033: a1 = ra <u a3\n 26036: t0 = t0 + a1\n 26039: a5 = s1 + 0x100\n 26043: a3 = u64 [a5 + 0x90]\n 26047: a3 = a3 + 0x1\n 26050: a1 = a3 <u 0x1\n 26053: a2 = u64 [a5 + 0x78]\n 26056: a2 = a2 + a1\n 26059: u64 [a5 + 0x78] = a2\n 26062: u64 [a5 + 0x90] = a3\n 26066: a1 = a3 | a2\n 26069: a1 = a1 <u 0x1\n 26072: a2 = u64 [a5 + 0x70]\n 26075: a1 = a1 + a2\n 26078: a3 = a1 <u a2\n 26081: a2 = u64 [a5 + 0x80]\n 26085: a2 = a2 + a3\n 26088: u64 [a5 + 0x80] = a2\n 26092: u64 [a4] = a0\n 26094: u64 [a4 + 0x8] = t1\n 26097: u64 [a4 + 0x10] = ra\n 26100: u64 [s1 + 0x270] = t0\n 26104: u64 [a4 + 0x18] = t0\n 26107: u64 [a5 + 0x70] = a1\n 26110: t0 = 0x398\n 26114: jump @1754\n      : @965 (gas: 1)\n 26117: t0 = 920, jump @1754\n      : @966 [@dyn 460] (gas: 13)\n 26123: t0 = u64 [s1 + 0x108]\n 26127: a2 = s1 + 0x100\n 26131: a1 = u64 [a2 + 0x70]\n 26134: t2 = a1 <u t0\n 26137: a5 = u64 [a2]\n 26139: a3 = u64 [a2 + 0x80]\n 26143: a2 = a3 ^ a5\n 26146: a5 = a3 <u a5\n 26149: a5 = t2 if a2 == 0\n 26152: a1 = a1 ^ t0\n 26155: a1 = a1 | a2\n 26158: a5 = a4 if a1 == 0\n 26161: jump @973 if a5 == 0\n      : @967 (gas: 1)\n 26165: t0 = 922, jump @1755\n      : @968 [@dyn 461] (gas: 1)\n 26171: jump @970 if a1 == 0\n      : @969 (gas: 1)\n 26174: jump @797\n      : @970 (gas: 2)\n 26177: a1 = u64 [s1 + 0x1b0]\n 26181: t0 = 924, jump @1757\n      : @971 [@dyn 462] (gas: 7)\n 26187: u64 [a2 + 1408] = 0\n 26191: u64 [a2 + 1400] = 0\n 26195: u64 [a2 + 0x568] = a1\n 26199: a1 = s1 + 0x7ff\n 26203: a1 = a1 + 0x761\n 26207: u64 [a2 + 1392] = 0\n 26211: ra = 926, jump @9\n      : @972 [@dyn 463] (gas: 37)\n 26217: a4 = u64 [s1 + 0x278]\n 26221: a1 = u64 [a4]\n 26223: t0 = u64 [a4 + 0x18]\n 26226: a2 = u64 [a4 + 0x8]\n 26229: a3 = u64 [a4 + 0x10]\n 26232: a0 = a1 + 0x20\n 26235: a1 = a0 <u a1\n 26238: t1 = a2 + a1\n 26241: a2 = t1 <u a2\n 26244: a2 = a1 if a1 == 0\n 26247: ra = a3 + a2\n 26250: a1 = ra <u a3\n 26253: t0 = t0 + a1\n 26256: a5 = s1 + 0x100\n 26260: a3 = u64 [a5 + 0x90]\n 26264: a3 = a3 + 0x1\n 26267: a1 = a3 <u 0x1\n 26270: a2 = u64 [a5 + 0x78]\n 26273: a2 = a2 + a1\n 26276: u64 [a5 + 0x78] = a2\n 26279: u64 [a5 + 0x90] = a3\n 26283: a1 = a3 | a2\n 26286: a1 = a1 <u 0x1\n 26289: a2 = u64 [a5 + 0x70]\n 26292: a1 = a1 + a2\n 26295: a3 = a1 <u a2\n 26298: a2 = u64 [a5 + 0x80]\n 26302: a2 = a2 + a3\n 26305: u64 [a5 + 0x80] = a2\n 26309: u64 [a4] = a0\n 26311: u64 [a4 + 0x8] = t1\n 26314: u64 [a4 + 0x10] = ra\n 26317: u64 [s1 + 0x270] = t0\n 26321: u64 [a4 + 0x18] = t0\n 26324: u64 [a5 + 0x70] = a1\n 26327: t0 = 0x3a0\n 26331: jump @1754\n      : @973 (gas: 1)\n 26334: t0 = 928, jump @1754\n      : @974 [@dyn 464] (gas: 13)\n 26340: t0 = u64 [s1 + 0x108]\n 26344: a2 = s1 + 0x100\n 26348: a1 = u64 [a2 + 0x70]\n 26351: t2 = a1 <u t0\n 26354: a5 = u64 [a2]\n 26356: a3 = u64 [a2 + 0x80]\n 26360: a2 = a3 ^ a5\n 26363: a5 = a3 <u a5\n 26366: a5 = t2 if a2 == 0\n 26369: a1 = a1 ^ t0\n 26372: a1 = a1 | a2\n 26375: a5 = a4 if a1 == 0\n 26378: jump @981 if a5 == 0\n      : @975 (gas: 1)\n 26382: t0 = 930, jump @1755\n      : @976 [@dyn 465] (gas: 1)\n 26388: jump @978 if a1 == 0\n      : @977 (gas: 1)\n 26391: jump @797\n      : @978 (gas: 2)\n 26394: a1 = u64 [s1 + 0x1a8]\n 26398: t0 = 932, jump @1757\n      : @979 [@dyn 466] (gas: 7)\n 26404: u64 [a2 + 1376] = 0\n 26408: u64 [a2 + 1368] = 0\n 26412: u64 [a2 + 0x548] = a1\n 26416: a1 = s1 + 0x7ff\n 26420: a1 = a1 + 0x741\n 26424: u64 [a2 + 1360] = 0\n 26428: ra = 934, jump @9\n      : @980 [@dyn 467] (gas: 37)\n 26434: a4 = u64 [s1 + 0x278]\n 26438: a1 = u64 [a4]\n 26440: t0 = u64 [a4 + 0x18]\n 26443: a2 = u64 [a4 + 0x8]\n 26446: a3 = u64 [a4 + 0x10]\n 26449: a0 = a1 + 0x20\n 26452: a1 = a0 <u a1\n 26455: t1 = a2 + a1\n 26458: a2 = t1 <u a2\n 26461: a2 = a1 if a1 == 0\n 26464: ra = a3 + a2\n 26467: a1 = ra <u a3\n 26470: t0 = t0 + a1\n 26473: a5 = s1 + 0x100\n 26477: a3 = u64 [a5 + 0x90]\n 26481: a3 = a3 + 0x1\n 26484: a1 = a3 <u 0x1\n 26487: a2 = u64 [a5 + 0x78]\n 26490: a2 = a2 + a1\n 26493: u64 [a5 + 0x78] = a2\n 26496: u64 [a5 + 0x90] = a3\n 26500: a1 = a3 | a2\n 26503: a1 = a1 <u 0x1\n 26506: a2 = u64 [a5 + 0x70]\n 26509: a1 = a1 + a2\n 26512: a3 = a1 <u a2\n 26515: a2 = u64 [a5 + 0x80]\n 26519: a2 = a2 + a3\n 26522: u64 [a5 + 0x80] = a2\n 26526: u64 [a4] = a0\n 26528: u64 [a4 + 0x8] = t1\n 26531: u64 [a4 + 0x10] = ra\n 26534: u64 [s1 + 0x270] = t0\n 26538: u64 [a4 + 0x18] = t0\n 26541: u64 [a5 + 0x70] = a1\n 26544: t0 = 0x3a8\n 26548: jump @1754\n      : @981 (gas: 1)\n 26551: t0 = 936, jump @1754\n      : @982 [@dyn 468] (gas: 13)\n 26557: t0 = u64 [s1 + 0x108]\n 26561: a2 = s1 + 0x100\n 26565: a1 = u64 [a2 + 0x70]\n 26568: t2 = a1 <u t0\n 26571: a5 = u64 [a2]\n 26573: a3 = u64 [a2 + 0x80]\n 26577: a2 = a3 ^ a5\n 26580: a5 = a3 <u a5\n 26583: a5 = t2 if a2 == 0\n 26586: a1 = a1 ^ t0\n 26589: a1 = a1 | a2\n 26592: a5 = a4 if a1 == 0\n 26595: jump @989 if a5 == 0\n      : @983 (gas: 1)\n 26599: t0 = 938, jump @1755\n      : @984 [@dyn 469] (gas: 1)\n 26605: jump @986 if a1 == 0\n      : @985 (gas: 1)\n 26608: jump @797\n      : @986 (gas: 2)\n 26611: a1 = u64 [s1 + 0x1a0]\n 26615: t0 = 940, jump @1757\n      : @987 [@dyn 470] (gas: 7)\n 26621: u64 [a2 + 1344] = 0\n 26625: u64 [a2 + 1336] = 0\n 26629: u64 [a2 + 0x528] = a1\n 26633: a1 = s1 + 0x7ff\n 26637: a1 = a1 + 0x721\n 26641: u64 [a2 + 1328] = 0\n 26645: ra = 942, jump @9\n      : @988 [@dyn 471] (gas: 37)\n 26651: a4 = u64 [s1 + 0x278]\n 26655: a1 = u64 [a4]\n 26657: t0 = u64 [a4 + 0x18]\n 26660: a2 = u64 [a4 + 0x8]\n 26663: a3 = u64 [a4 + 0x10]\n 26666: a0 = a1 + 0x20\n 26669: a1 = a0 <u a1\n 26672: t1 = a2 + a1\n 26675: a2 = t1 <u a2\n 26678: a2 = a1 if a1 == 0\n 26681: ra = a3 + a2\n 26684: a1 = ra <u a3\n 26687: t0 = t0 + a1\n 26690: a5 = s1 + 0x100\n 26694: a3 = u64 [a5 + 0x90]\n 26698: a3 = a3 + 0x1\n 26701: a1 = a3 <u 0x1\n 26704: a2 = u64 [a5 + 0x78]\n 26707: a2 = a2 + a1\n 26710: u64 [a5 + 0x78] = a2\n 26713: u64 [a5 + 0x90] = a3\n 26717: a1 = a3 | a2\n 26720: a1 = a1 <u 0x1\n 26723: a2 = u64 [a5 + 0x70]\n 26726: a1 = a1 + a2\n 26729: a3 = a1 <u a2\n 26732: a2 = u64 [a5 + 0x80]\n 26736: a2 = a2 + a3\n 26739: u64 [a5 + 0x80] = a2\n 26743: u64 [a4] = a0\n 26745: u64 [a4 + 0x8] = t1\n 26748: u64 [a4 + 0x10] = ra\n 26751: u64 [s1 + 0x270] = t0\n 26755: u64 [a4 + 0x18] = t0\n 26758: u64 [a5 + 0x70] = a1\n 26761: t0 = 0x3b0\n 26765: jump @1754\n      : @989 (gas: 1)\n 26768: t0 = 944, jump @1754\n      : @990 [@dyn 472] (gas: 13)\n 26774: t0 = u64 [s1 + 0x108]\n 26778: a2 = s1 + 0x100\n 26782: a1 = u64 [a2 + 0x70]\n 26785: t2 = a1 <u t0\n 26788: a5 = u64 [a2]\n 26790: a3 = u64 [a2 + 0x80]\n 26794: a2 = a3 ^ a5\n 26797: a5 = a3 <u a5\n 26800: a5 = t2 if a2 == 0\n 26803: a1 = a1 ^ t0\n 26806: a1 = a1 | a2\n 26809: a5 = a4 if a1 == 0\n 26812: jump @997 if a5 == 0\n      : @991 (gas: 1)\n 26816: t0 = 946, jump @1755\n      : @992 [@dyn 473] (gas: 1)\n 26822: jump @994 if a1 == 0\n      : @993 (gas: 1)\n 26825: jump @797\n      : @994 (gas: 2)\n 26828: a1 = u64 [s1 + 0x198]\n 26832: t0 = 948, jump @1757\n      : @995 [@dyn 474] (gas: 7)\n 26838: u64 [a2 + 1312] = 0\n 26842: u64 [a2 + 1304] = 0\n 26846: u64 [a2 + 0x508] = a1\n 26850: a1 = s1 + 0x7ff\n 26854: a1 = a1 + 0x701\n 26858: u64 [a2 + 1296] = 0\n 26862: ra = 950, jump @9\n      : @996 [@dyn 475] (gas: 37)\n 26868: a4 = u64 [s1 + 0x278]\n 26872: a1 = u64 [a4]\n 26874: t0 = u64 [a4 + 0x18]\n 26877: a2 = u64 [a4 + 0x8]\n 26880: a3 = u64 [a4 + 0x10]\n 26883: a0 = a1 + 0x20\n 26886: a1 = a0 <u a1\n 26889: t1 = a2 + a1\n 26892: a2 = t1 <u a2\n 26895: a2 = a1 if a1 == 0\n 26898: ra = a3 + a2\n 26901: a1 = ra <u a3\n 26904: t0 = t0 + a1\n 26907: a5 = s1 + 0x100\n 26911: a3 = u64 [a5 + 0x90]\n 26915: a3 = a3 + 0x1\n 26918: a1 = a3 <u 0x1\n 26921: a2 = u64 [a5 + 0x78]\n 26924: a2 = a2 + a1\n 26927: u64 [a5 + 0x78] = a2\n 26930: u64 [a5 + 0x90] = a3\n 26934: a1 = a3 | a2\n 26937: a1 = a1 <u 0x1\n 26940: a2 = u64 [a5 + 0x70]\n 26943: a1 = a1 + a2\n 26946: a3 = a1 <u a2\n 26949: a2 = u64 [a5 + 0x80]\n 26953: a2 = a2 + a3\n 26956: u64 [a5 + 0x80] = a2\n 26960: u64 [a4] = a0\n 26962: u64 [a4 + 0x8] = t1\n 26965: u64 [a4 + 0x10] = ra\n 26968: u64 [s1 + 0x270] = t0\n 26972: u64 [a4 + 0x18] = t0\n 26975: u64 [a5 + 0x70] = a1\n 26978: t0 = 0x3b8\n 26982: jump @1754\n      : @997 (gas: 1)\n 26985: t0 = 952, jump @1754\n      : @998 [@dyn 476] (gas: 13)\n 26991: t0 = u64 [s1 + 0x108]\n 26995: a2 = s1 + 0x100\n 26999: a1 = u64 [a2 + 0x70]\n 27002: t2 = a1 <u t0\n 27005: a5 = u64 [a2]\n 27007: a3 = u64 [a2 + 0x80]\n 27011: a2 = a3 ^ a5\n 27014: a5 = a3 <u a5\n 27017: a5 = t2 if a2 == 0\n 27020: a1 = a1 ^ t0\n 27023: a1 = a1 | a2\n 27026: a5 = a4 if a1 == 0\n 27029: jump @1005 if a5 == 0\n      : @999 (gas: 1)\n 27033: t0 = 954, jump @1755\n      : @1000 [@dyn 477] (gas: 1)\n 27039: jump @1002 if a1 == 0\n      : @1001 (gas: 1)\n 27042: jump @797\n      : @1002 (gas: 2)\n 27045: a1 = u64 [s1 + 0x188]\n 27049: t0 = 956, jump @1757\n      : @1003 [@dyn 478] (gas: 7)\n 27055: u64 [a2 + 1280] = 0\n 27059: u64 [a2 + 1272] = 0\n 27063: u64 [a2 + 0x4e8] = a1\n 27067: a1 = s1 + 0x7ff\n 27071: a1 = a1 + 0x6e1\n 27075: u64 [a2 + 1264] = 0\n 27079: ra = 958, jump @9\n      : @1004 [@dyn 479] (gas: 37)\n 27085: a4 = u64 [s1 + 0x278]\n 27089: a1 = u64 [a4]\n 27091: t0 = u64 [a4 + 0x18]\n 27094: a2 = u64 [a4 + 0x8]\n 27097: a3 = u64 [a4 + 0x10]\n 27100: a0 = a1 + 0x20\n 27103: a1 = a0 <u a1\n 27106: t1 = a2 + a1\n 27109: a2 = t1 <u a2\n 27112: a2 = a1 if a1 == 0\n 27115: ra = a3 + a2\n 27118: a1 = ra <u a3\n 27121: t0 = t0 + a1\n 27124: a5 = s1 + 0x100\n 27128: a3 = u64 [a5 + 0x90]\n 27132: a3 = a3 + 0x1\n 27135: a1 = a3 <u 0x1\n 27138: a2 = u64 [a5 + 0x78]\n 27141: a2 = a2 + a1\n 27144: u64 [a5 + 0x78] = a2\n 27147: u64 [a5 + 0x90] = a3\n 27151: a1 = a3 | a2\n 27154: a1 = a1 <u 0x1\n 27157: a2 = u64 [a5 + 0x70]\n 27160: a1 = a1 + a2\n 27163: a3 = a1 <u a2\n 27166: a2 = u64 [a5 + 0x80]\n 27170: a2 = a2 + a3\n 27173: u64 [a5 + 0x80] = a2\n 27177: u64 [a4] = a0\n 27179: u64 [a4 + 0x8] = t1\n 27182: u64 [a4 + 0x10] = ra\n 27185: u64 [s1 + 0x270] = t0\n 27189: u64 [a4 + 0x18] = t0\n 27192: u64 [a5 + 0x70] = a1\n 27195: t0 = 0x3c0\n 27199: jump @1754\n      : @1005 (gas: 1)\n 27202: t0 = 960, jump @1754\n      : @1006 [@dyn 480] (gas: 13)\n 27208: t0 = u64 [s1 + 0x108]\n 27212: a2 = s1 + 0x100\n 27216: a1 = u64 [a2 + 0x70]\n 27219: t2 = a1 <u t0\n 27222: a5 = u64 [a2]\n 27224: a3 = u64 [a2 + 0x80]\n 27228: a2 = a3 ^ a5\n 27231: a5 = a3 <u a5\n 27234: a5 = t2 if a2 == 0\n 27237: a1 = a1 ^ t0\n 27240: a1 = a1 | a2\n 27243: a5 = a4 if a1 == 0\n 27246: jump @1013 if a5 == 0\n      : @1007 (gas: 1)\n 27250: t0 = 962, jump @1755\n      : @1008 [@dyn 481] (gas: 1)\n 27256: jump @1010 if a1 == 0\n      : @1009 (gas: 1)\n 27259: jump @797\n      : @1010 (gas: 2)\n 27262: a1 = u64 [s1 + 0x168]\n 27266: t0 = 964, jump @1757\n      : @1011 [@dyn 482] (gas: 7)\n 27272: u64 [a2 + 1248] = 0\n 27276: u64 [a2 + 1240] = 0\n 27280: u64 [a2 + 0x4c8] = a1\n 27284: a1 = s1 + 0x7ff\n 27288: a1 = a1 + 0x6c1\n 27292: u64 [a2 + 1232] = 0\n 27296: ra = 966, jump @9\n      : @1012 [@dyn 483] (gas: 37)\n 27302: a4 = u64 [s1 + 0x278]\n 27306: a1 = u64 [a4]\n 27308: t0 = u64 [a4 + 0x18]\n 27311: a2 = u64 [a4 + 0x8]\n 27314: a3 = u64 [a4 + 0x10]\n 27317: a0 = a1 + 0x20\n 27320: a1 = a0 <u a1\n 27323: t1 = a2 + a1\n 27326: a2 = t1 <u a2\n 27329: a2 = a1 if a1 == 0\n 27332: ra = a3 + a2\n 27335: a1 = ra <u a3\n 27338: t0 = t0 + a1\n 27341: a5 = s1 + 0x100\n 27345: a3 = u64 [a5 + 0x90]\n 27349: a3 = a3 + 0x1\n 27352: a1 = a3 <u 0x1\n 27355: a2 = u64 [a5 + 0x78]\n 27358: a2 = a2 + a1\n 27361: u64 [a5 + 0x78] = a2\n 27364: u64 [a5 + 0x90] = a3\n 27368: a1 = a3 | a2\n 27371: a1 = a1 <u 0x1\n 27374: a2 = u64 [a5 + 0x70]\n 27377: a1 = a1 + a2\n 27380: a3 = a1 <u a2\n 27383: a2 = u64 [a5 + 0x80]\n 27387: a2 = a2 + a3\n 27390: u64 [a5 + 0x80] = a2\n 27394: u64 [a4] = a0\n 27396: u64 [a4 + 0x8] = t1\n 27399: u64 [a4 + 0x10] = ra\n 27402: u64 [s1 + 0x270] = t0\n 27406: u64 [a4 + 0x18] = t0\n 27409: u64 [a5 + 0x70] = a1\n 27412: t0 = 0x3c8\n 27416: jump @1754\n      : @1013 (gas: 1)\n 27419: t0 = 968, jump @1754\n      : @1014 [@dyn 484] (gas: 13)\n 27425: t0 = u64 [s1 + 0x108]\n 27429: a2 = s1 + 0x100\n 27433: a1 = u64 [a2 + 0x70]\n 27436: t2 = a1 <u t0\n 27439: a5 = u64 [a2]\n 27441: a3 = u64 [a2 + 0x80]\n 27445: a2 = a3 ^ a5\n 27448: a5 = a3 <u a5\n 27451: a5 = t2 if a2 == 0\n 27454: a1 = a1 ^ t0\n 27457: a1 = a1 | a2\n 27460: a5 = a4 if a1 == 0\n 27463: jump @1021 if a5 == 0\n      : @1015 (gas: 1)\n 27467: t0 = 970, jump @1755\n      : @1016 [@dyn 485] (gas: 1)\n 27473: jump @1018 if a1 == 0\n      : @1017 (gas: 1)\n 27476: jump @797\n      : @1018 (gas: 2)\n 27479: a1 = u64 [s1 + 0x160]\n 27483: t0 = 972, jump @1757\n      : @1019 [@dyn 486] (gas: 7)\n 27489: u64 [a2 + 1216] = 0\n 27493: u64 [a2 + 1208] = 0\n 27497: u64 [a2 + 0x4a8] = a1\n 27501: a1 = s1 + 0x7ff\n 27505: a1 = a1 + 0x6a1\n 27509: u64 [a2 + 1200] = 0\n 27513: ra = 974, jump @9\n      : @1020 [@dyn 487] (gas: 37)\n 27519: a4 = u64 [s1 + 0x278]\n 27523: a1 = u64 [a4]\n 27525: t0 = u64 [a4 + 0x18]\n 27528: a2 = u64 [a4 + 0x8]\n 27531: a3 = u64 [a4 + 0x10]\n 27534: a0 = a1 + 0x20\n 27537: a1 = a0 <u a1\n 27540: t1 = a2 + a1\n 27543: a2 = t1 <u a2\n 27546: a2 = a1 if a1 == 0\n 27549: ra = a3 + a2\n 27552: a1 = ra <u a3\n 27555: t0 = t0 + a1\n 27558: a5 = s1 + 0x100\n 27562: a3 = u64 [a5 + 0x90]\n 27566: a3 = a3 + 0x1\n 27569: a1 = a3 <u 0x1\n 27572: a2 = u64 [a5 + 0x78]\n 27575: a2 = a2 + a1\n 27578: u64 [a5 + 0x78] = a2\n 27581: u64 [a5 + 0x90] = a3\n 27585: a1 = a3 | a2\n 27588: a1 = a1 <u 0x1\n 27591: a2 = u64 [a5 + 0x70]\n 27594: a1 = a1 + a2\n 27597: a3 = a1 <u a2\n 27600: a2 = u64 [a5 + 0x80]\n 27604: a2 = a2 + a3\n 27607: u64 [a5 + 0x80] = a2\n 27611: u64 [a4] = a0\n 27613: u64 [a4 + 0x8] = t1\n 27616: u64 [a4 + 0x10] = ra\n 27619: u64 [s1 + 0x270] = t0\n 27623: u64 [a4 + 0x18] = t0\n 27626: u64 [a5 + 0x70] = a1\n 27629: t0 = 0x3d0\n 27633: jump @1754\n      : @1021 (gas: 1)\n 27636: t0 = 976, jump @1754\n      : @1022 [@dyn 488] (gas: 13)\n 27642: t0 = u64 [s1 + 0x108]\n 27646: a2 = s1 + 0x100\n 27650: a1 = u64 [a2 + 0x70]\n 27653: t2 = a1 <u t0\n 27656: a5 = u64 [a2]\n 27658: a3 = u64 [a2 + 0x80]\n 27662: a2 = a3 ^ a5\n 27665: a5 = a3 <u a5\n 27668: a5 = t2 if a2 == 0\n 27671: a1 = a1 ^ t0\n 27674: a1 = a1 | a2\n 27677: a5 = a4 if a1 == 0\n 27680: jump @1029 if a5 == 0\n      : @1023 (gas: 1)\n 27684: t0 = 978, jump @1755\n      : @1024 [@dyn 489] (gas: 1)\n 27690: jump @1026 if a1 == 0\n      : @1025 (gas: 1)\n 27693: jump @797\n      : @1026 (gas: 2)\n 27696: a1 = u64 [s1 + 0x158]\n 27700: t0 = 980, jump @1757\n      : @1027 [@dyn 490] (gas: 7)\n 27706: u64 [a2 + 1184] = 0\n 27710: u64 [a2 + 1176] = 0\n 27714: u64 [a2 + 0x488] = a1\n 27718: a1 = s1 + 0x7ff\n 27722: a1 = a1 + 0x681\n 27726: u64 [a2 + 1168] = 0\n 27730: ra = 982, jump @9\n      : @1028 [@dyn 491] (gas: 37)\n 27736: a4 = u64 [s1 + 0x278]\n 27740: a1 = u64 [a4]\n 27742: t0 = u64 [a4 + 0x18]\n 27745: a2 = u64 [a4 + 0x8]\n 27748: a3 = u64 [a4 + 0x10]\n 27751: a0 = a1 + 0x20\n 27754: a1 = a0 <u a1\n 27757: t1 = a2 + a1\n 27760: a2 = t1 <u a2\n 27763: a2 = a1 if a1 == 0\n 27766: ra = a3 + a2\n 27769: a1 = ra <u a3\n 27772: t0 = t0 + a1\n 27775: a5 = s1 + 0x100\n 27779: a3 = u64 [a5 + 0x90]\n 27783: a3 = a3 + 0x1\n 27786: a1 = a3 <u 0x1\n 27789: a2 = u64 [a5 + 0x78]\n 27792: a2 = a2 + a1\n 27795: u64 [a5 + 0x78] = a2\n 27798: u64 [a5 + 0x90] = a3\n 27802: a1 = a3 | a2\n 27805: a1 = a1 <u 0x1\n 27808: a2 = u64 [a5 + 0x70]\n 27811: a1 = a1 + a2\n 27814: a3 = a1 <u a2\n 27817: a2 = u64 [a5 + 0x80]\n 27821: a2 = a2 + a3\n 27824: u64 [a5 + 0x80] = a2\n 27828: u64 [a4] = a0\n 27830: u64 [a4 + 0x8] = t1\n 27833: u64 [a4 + 0x10] = ra\n 27836: u64 [s1 + 0x270] = t0\n 27840: u64 [a4 + 0x18] = t0\n 27843: u64 [a5 + 0x70] = a1\n 27846: t0 = 0x3d8\n 27850: jump @1754\n      : @1029 (gas: 1)\n 27853: t0 = 984, jump @1754\n      : @1030 [@dyn 492] (gas: 13)\n 27859: t0 = u64 [s1 + 0x108]\n 27863: a2 = s1 + 0x100\n 27867: a1 = u64 [a2 + 0x70]\n 27870: t2 = a1 <u t0\n 27873: a5 = u64 [a2]\n 27875: a3 = u64 [a2 + 0x80]\n 27879: a2 = a3 ^ a5\n 27882: a5 = a3 <u a5\n 27885: a5 = t2 if a2 == 0\n 27888: a1 = a1 ^ t0\n 27891: a1 = a1 | a2\n 27894: a5 = a4 if a1 == 0\n 27897: jump @1036 if a5 == 0\n      : @1031 (gas: 1)\n 27901: t0 = 986, jump @1755\n      : @1032 [@dyn 493] (gas: 1)\n 27907: jump @1034 if a1 == 0\n      : @1033 (gas: 1)\n 27910: jump @797\n      : @1034 (gas: 18)\n 27913: a1 = 0xffffffffffffff\n 27923: a3 = s1 + 0x100\n 27927: a2 = u64 [a3 + 0x48]\n 27930: a1 = a1 ^ a2\n 27933: a2 = u64 [a3 + 0x50]\n 27936: a1 = a1 | ~a2\n 27939: a2 = u64 [a3 + 0x40]\n 27942: a2 = a2 >u 0\n 27944: a2 = 0 if a1 == 0\n 27946: a3 = s1 + 0x7ff\n 27950: a3 = a3 + 0x1f9\n 27954: u64 [a3 + 1152] = 0\n 27958: u64 [a3 + 1144] = 0\n 27962: u64 [a3 + 0x468] = a2\n 27966: a1 = s1 + 0x7ff\n 27970: a1 = a1 + 0x661\n 27974: u64 [a3 + 1136] = 0\n 27978: ra = 988, jump @9\n      : @1035 [@dyn 494] (gas: 19)\n 27984: a4 = u64 [s1 + 0x278]\n 27988: a1 = u64 [a4]\n 27990: t0 = u64 [a4 + 0x18]\n 27993: a2 = u64 [a4 + 0x8]\n 27996: a3 = u64 [a4 + 0x10]\n 27999: a0 = a1 + 0x20\n 28002: a1 = a0 <u a1\n 28005: t1 = a2 + a1\n 28008: a2 = t1 <u a2\n 28011: a2 = a1 if a1 == 0\n 28014: ra = a3 + a2\n 28017: a1 = ra <u a3\n 28020: a1 = a1 + t0\n 28023: u64 [a4] = a0\n 28025: u64 [a4 + 0x8] = t1\n 28028: u64 [a4 + 0x10] = ra\n 28031: u64 [s1 + 0x270] = a1\n 28035: u64 [a4 + 0x18] = a1\n 28038: fallthrough\n      : @1036 (gas: 38)\n 28039: t0 = u64 [s1 + 0x28]\n 28042: a2 = a0 <u t0\n 28045: u64 [s1 + 0x278] = a2\n 28049: a3 = u64 [s1 + 0x20]\n 28052: a1 = t1 ^ a3\n 28055: a4 = t1 <u a3\n 28058: a4 = a2 if a1 == 0\n 28061: t2 = u64 [s1 + 0x30]\n 28064: a1 = ra - t2\n 28067: ra = ra <u t2\n 28070: a5 = u64 [s1 + 0x270]\n 28074: a2 = u64 [s1 + 0x38]\n 28077: a5 = a5 - a2\n 28080: a5 = a5 - ra\n 28083: a2 = a1 <u a4\n 28086: ra = a5 - a2\n 28089: a5 = a1 - a4\n 28092: a2 = t1 - a3\n 28095: a1 = u64 [s1 + 0x278]\n 28099: a2 = a2 - a1\n 28102: a0 = a0 - t0\n 28105: a4 = s1 + 0x7ff\n 28109: a4 = a4 + 0x1f9\n 28113: u64 [a4 + 0x448] = t0\n 28117: a1 = a4 + 0x400\n 28121: u64 [a1 + 0x28] = a0\n 28124: u64 [a1 + 0x50] = a3\n 28127: u64 [a4 + 0x458] = t2\n 28131: u64 [a1 + 0x30] = a2\n 28134: a0 = u64 [s1 + 0x38]\n 28137: u64 [a1 + 0x60] = a0\n 28140: u64 [a1 + 0x38] = a5\n 28143: a0 = s1 + 0x7ff\n 28147: a0 = a0 + 0x641\n 28151: a1 = s1 + 0x7ff\n 28155: a1 = a1 + 0x621\n 28159: u64 [a4 + 0x440] = ra\n 28163: ra = 990, jump @1452\n      : @1037 [@dyn 495] (gas: 4)\n 28169: a0 = 0x100000000\n 28179: u64 [s1 + 0x278] = a0\n 28183: a0 = 0xffffff40\n 28193: t0 = 992, jump @1770\n      : @1038 [@dyn 496] (gas: 1)\n 28199: jump @1040 if a0 != 0\n      : @1039 (gas: 1)\n 28202: jump @797\n      : @1040 (gas: 18)\n 28205: a0 = u64 [s1 + 0x98]\n 28209: i32 a3 = a0 + 0xc0\n 28213: a0 = s1 + 0x7ff\n 28217: a0 = a0 + 0x1f9\n 28221: a1 = u64 [s1 + 0x28]\n 28224: a4 = a0 + 0x400\n 28228: u64 [a4 + 0x8] = a1\n 28231: a1 = u64 [s1 + 0x20]\n 28234: u64 [a4 + 0x10] = a1\n 28237: a1 = u64 [s1 + 0x30]\n 28240: u64 [a4 + 0x18] = a1\n 28243: a1 = s1 + 0x7ff\n 28247: a1 = a1 + 0x601\n 28251: a2 = u64 [s1 + 0x38]\n 28254: u64 [a4 + 0x20] = a2\n 28257: u64 [s1 + 0x270] = a3\n 28261: a0 = a3\n 28263: ra = 994, jump @9\n      : @1041 [@dyn 497] (gas: 3)\n 28269: a1 = u64 [s1 + 0x70]\n 28272: a0 = a1 + 0x4\n 28275: t0 = 996, jump @1789\n      : @1042 [@dyn 498] (gas: 9)\n 28281: a5 = a4 + 0x400\n 28285: u64 [a5 + 0x10] = a2\n 28288: u64 [a5 + 0x8] = a0\n 28291: u64 [a5 + 0x18] = a3\n 28294: u64 [a5 + 0x20] = a1\n 28297: a0 = s1 + 0x7ff\n 28301: a0 = a0 + 0x5e1\n 28305: a1 = s1 + 0x2e00\n 28309: ra = 998, jump @11\n      : @1043 [@dyn 499] (gas: 3)\n 28315: a0 = u64 [s1 + 0x278]\n 28319: a0 = a0 + 0xffffffffffffff20\n 28323: t0 = 1000, jump @1770\n      : @1044 [@dyn 500] (gas: 1)\n 28329: jump @1046 if a0 != 0\n      : @1045 (gas: 1)\n 28332: jump @797\n      : @1046 (gas: 15)\n 28335: a4 = s1 + 0x7ff\n 28339: a4 = a4 + 0x1f9\n 28343: a5 = a4 + 0x300\n 28347: a3 = u64 [a5 + 0xf0]\n 28351: a1 = u64 [a5 + 0xe8]\n 28355: a2 = u64 [s1 + 0x98]\n 28359: i32 a0 = a2 + 0xe0\n 28363: u64 [a4 + 992] = 0\n 28367: u64 [a4 + 984] = 0\n 28371: u64 [a5 + 0xc8] = a1\n 28375: a1 = s1 + 0x7ff\n 28379: a1 = a1 + 0x5c1\n 28383: u64 [a5 + 0xd0] = a3\n 28387: u64 [s1 + 0x1b8] = a0\n 28391: ra = 1002, jump @9\n      : @1047 [@dyn 501] (gas: 4)\n 28397: a0 = s1 + 0x7ff\n 28401: a0 = a0 + 0x5a1\n 28405: a1 = 0x40\n 28408: ra = 1004, jump @7\n      : @1048 [@dyn 502] (gas: 20)\n 28414: a1 = s1 + 0x7ff\n 28418: a1 = a1 + 0x1f9\n 28422: a4 = a1 + 0x300\n 28426: a2 = u64 [a4 + 0xc0]\n 28430: a3 = u64 [a4 + 0xb8]\n 28434: a0 = u64 [a4 + 0xb0]\n 28438: a1 = u64 [a4 + 0xa8]\n 28442: a4 = s1 + 0x100\n 28446: u64 [a4 + 0xd0] = a0\n 28450: u64 [a4 + 0xc8] = a2\n 28454: a0 = a0 | a2\n 28457: u64 [a4 + 0xd8] = a1\n 28461: a1 = a1 | a3\n 28464: a1 = a1 | a0\n 28467: a1 = a1 >> 0x20\n 28470: u64 [a4 + 0xc0] = a3\n 28474: a0 = a0 | a3\n 28477: a0 = a0 << 0x20\n 28480: a0 = a0 | a1\n 28483: jump @1050 if a0 == 0\n      : @1049 (gas: 1)\n 28486: jump @797\n      : @1050 (gas: 10)\n 28489: a2 = s1 + 0x7ff\n 28493: a2 = a2 + 0x1f9\n 28497: u64 [a2 + 928] = 0\n 28501: u64 [a2 + 920] = 0\n 28505: u64 [a2 + 912] = 0\n 28509: a1 = s1 + 0x7ff\n 28513: a1 = a1 + 0x581\n 28517: u64 [a2 + 904] = 0x20\n 28522: a0 = u64 [s1 + 0x1d8]\n 28526: ra = 1006, jump @9\n      : @1051 [@dyn 503] (gas: 4)\n 28532: a0 = s1 + 0x7ff\n 28536: a0 = a0 + 0x561\n 28540: a1 = u64 [s1 + 0x98]\n 28544: ra = 1008, jump @7\n      : @1052 [@dyn 504] (gas: 14)\n 28550: a3 = s1 + 0x100\n 28554: a0 = u64 [a3 + 0xc8]\n 28558: a1 = u64 [a3 + 0xc0]\n 28562: a2 = a1 | a0\n 28565: a0 = 0x100000000\n 28575: u64 [s1 + 0x278] = a0\n 28579: a0 = 0xffffffe0\n 28589: a1 = u64 [a3 + 0xd8]\n 28593: a0 = a1 <u a0\n 28596: a1 = u64 [a3 + 0xd0]\n 28600: a0 = 0 if a1 != 0\n 28602: u64 [s1 + 0x250] = a2\n 28606: a0 = 0 if a2 != 0\n 28608: jump @1054 if a0 != 0\n      : @1053 (gas: 1)\n 28611: jump @797\n      : @1054 (gas: 19)\n 28614: a4 = s1 + 0x7ff\n 28618: a4 = a4 + 0x1f9\n 28622: a5 = a4 + 0x300\n 28626: a0 = u64 [a5 + 0x78]\n 28629: a1 = u64 [a5 + 0x70]\n 28632: a2 = u64 [a5 + 0x68]\n 28635: a3 = u64 [s1 + 0x60]\n 28638: a3 = a3 & a0\n 28641: a1 = a1 & 0xffffffffffffffff\n 28644: a2 = a2 & 0xffffffffffffffff\n 28647: a0 = u64 [s1 + 0x1d8]\n 28651: i32 a0 = a0 + 0x20\n 28654: u64 [a4 + 864] = 0\n 28658: u64 [a5 + 0x48] = a2\n 28661: u64 [a5 + 0x50] = a1\n 28664: a1 = s1 + 0x7ff\n 28668: a1 = a1 + 0x541\n 28672: u64 [a5 + 0x58] = a3\n 28675: ra = 1010, jump @9\n      : @1055 [@dyn 505] (gas: 4)\n 28681: a0 = s1 + 0x7ff\n 28685: a0 = a0 + 0x521\n 28689: a1 = u64 [s1 + 0x58]\n 28692: ra = 1012, jump @7\n      : @1056 [@dyn 506] (gas: 3)\n 28698: a0 = u64 [s1 + 0x278]\n 28702: a0 = a0 + 0xffffffffffffffc0\n 28705: t0 = 1014, jump @1759\n      : @1057 [@dyn 507] (gas: 1)\n 28711: jump @1059 if a0 != 0\n      : @1058 (gas: 1)\n 28714: jump @797\n      : @1059 (gas: 19)\n 28717: a4 = s1 + 0x7ff\n 28721: a4 = a4 + 0x1f9\n 28725: a5 = a4 + 0x300\n 28729: a0 = u64 [a5 + 0x38]\n 28732: a1 = u64 [a5 + 0x30]\n 28735: a2 = u64 [a5 + 0x28]\n 28738: a3 = u64 [s1 + 0x60]\n 28741: a3 = a3 & a0\n 28744: a1 = a1 & 0xffffffffffffffff\n 28747: a2 = a2 & 0xffffffffffffffff\n 28750: a0 = u64 [s1 + 0x1d8]\n 28754: i32 a0 = a0 + 0x40\n 28757: u64 [a4 + 800] = 0\n 28761: u64 [a5 + 0x8] = a2\n 28764: u64 [a5 + 0x10] = a1\n 28767: a1 = s1 + 0x7ff\n 28771: a1 = a1 + 0x501\n 28775: u64 [a5 + 0x18] = a3\n 28778: ra = 1016, jump @9\n      : @1060 [@dyn 508] (gas: 4)\n 28784: a0 = s1 + 0x7ff\n 28788: a0 = a0 + 0x4e1\n 28792: a1 = u64 [s1 + 0x50]\n 28795: ra = 1018, jump @7\n      : @1061 [@dyn 509] (gas: 4)\n 28801: a0 = 0x100000000\n 28811: u64 [s1 + 0x278] = a0\n 28815: a0 = 0xffffffa0\n 28825: t0 = 1020, jump @1759\n      : @1062 [@dyn 510] (gas: 1)\n 28831: jump @1064 if a0 != 0\n      : @1063 (gas: 1)\n 28834: jump @797\n      : @1064 (gas: 20)\n 28837: a4 = s1 + 0x7ff\n 28841: a4 = a4 + 0x1f9\n 28845: a0 = u64 [a4 + 0x300]\n 28849: a5 = a4 + 0x200\n 28853: a1 = u64 [a5 + 0xf8]\n 28857: a2 = u64 [a5 + 0xe8]\n 28861: a3 = u64 [a5 + 0xf0]\n 28865: a1 = a1 | a2\n 28868: a0 = a0 | a3\n 28871: a0 = a0 | a1\n 28874: a1 = a0 >u 0\n 28876: a0 = u64 [s1 + 0x1d8]\n 28880: i32 a0 = a0 + 0x60\n 28883: u64 [a4 + 736] = 0\n 28887: u64 [a4 + 728] = 0\n 28891: u64 [a5 + 0xc8] = a1\n 28895: a1 = s1 + 0x7ff\n 28899: a1 = a1 + 0x4c1\n 28903: u64 [a4 + 720] = 0\n 28907: ra = 1022, jump @9\n      : @1065 [@dyn 511] (gas: 4)\n 28913: a0 = s1 + 0x7ff\n 28917: a0 = a0 + 0x4a1\n 28921: a1 = u64 [s1 + 0x48]\n 28924: ra = 1024, jump @7\n      : @1066 [@dyn 512] (gas: 3)\n 28930: a0 = u64 [s1 + 0x278]\n 28934: a0 = a0 + 0xffffffffffffff80\n 28937: t0 = 1026, jump @1759\n      : @1067 [@dyn 513] (gas: 1)\n 28943: jump @1069 if a0 != 0\n      : @1068 (gas: 1)\n 28946: jump @797\n      : @1069 (gas: 13)\n 28949: a2 = s1 + 0x7ff\n 28953: a2 = a2 + 0x1f9\n 28957: a0 = u64 [a2 + 0x2a8]\n 28961: a1 = a0 & 0xffffffffffffffff\n 28964: a0 = u64 [s1 + 0x1d8]\n 28968: i32 a0 = a0 + 0x80\n 28972: u64 [a2 + 672] = 0\n 28976: u64 [a2 + 664] = 0\n 28980: u64 [a2 + 0x288] = a1\n 28984: a1 = s1 + 0x7ff\n 28988: a1 = a1 + 0x481\n 28992: u64 [a2 + 656] = 0\n 28996: ra = 1028, jump @9\n      : @1070 [@dyn 514] (gas: 4)\n 29002: a0 = s1 + 0x7ff\n 29006: a0 = a0 + 0x461\n 29010: a1 = u64 [s1 + 0x40]\n 29013: ra = 1030, jump @7\n      : @1071 [@dyn 515] (gas: 4)\n 29019: a0 = 0x100000000\n 29029: u64 [s1 + 0x278] = a0\n 29033: a0 = 0xffffff60\n 29043: t0 = 1032, jump @1759\n      : @1072 [@dyn 516] (gas: 1)\n 29049: jump @1074 if a0 != 0\n      : @1073 (gas: 1)\n 29052: jump @797\n      : @1074 (gas: 13)\n 29055: a2 = s1 + 0x7ff\n 29059: a2 = a2 + 0x1f9\n 29063: a0 = u64 [a2 + 0x268]\n 29067: a1 = a0 & 0xffffffffffffffff\n 29070: a0 = u64 [s1 + 0x1d8]\n 29074: i32 a0 = a0 + 0xa0\n 29078: u64 [a2 + 608] = 0\n 29082: u64 [a2 + 600] = 0\n 29086: u64 [a2 + 0x248] = a1\n 29090: a1 = s1 + 0x7ff\n 29094: a1 = a1 + 0x441\n 29098: u64 [a2 + 592] = 0\n 29102: ra = 1034, jump @9\n      : @1075 [@dyn 517] (gas: 4)\n 29108: a0 = s1 + 0x7ff\n 29112: a0 = a0 + 0x421\n 29116: a1 = u64 [s1 + 0x18]\n 29119: ra = 1036, jump @7\n      : @1076 [@dyn 518] (gas: 3)\n 29125: a0 = u64 [s1 + 0x278]\n 29129: a0 = a0 + 0xffffffffffffff40\n 29133: t0 = 1038, jump @1759\n      : @1077 [@dyn 519] (gas: 1)\n 29139: jump @1079 if a0 != 0\n      : @1078 (gas: 1)\n 29142: jump @797\n      : @1079 (gas: 13)\n 29145: a2 = s1 + 0x7ff\n 29149: a2 = a2 + 0x1f9\n 29153: a0 = u64 [a2 + 0x228]\n 29157: a1 = a0 & 0xffffffffffffffff\n 29160: a0 = u64 [s1 + 0x1d8]\n 29164: i32 a0 = a0 + 0xc0\n 29168: u64 [a2 + 544] = 0\n 29172: u64 [a2 + 536] = 0\n 29176: u64 [a2 + 0x208] = a1\n 29180: a1 = s1 + 0x7ff\n 29184: a1 = a1 + 0x401\n 29188: u64 [a2 + 528] = 0\n 29192: ra = 1040, jump @9\n      : @1080 [@dyn 520] (gas: 4)\n 29198: a0 = s1 + 0x7ff\n 29202: a0 = a0 + 0x3e1\n 29206: a1 = u64 [s1 + 0x270]\n 29210: ra = 1042, jump @7\n      : @1081 [@dyn 521] (gas: 2)\n 29216: a0 = 0xffffff20\n 29226: t0 = 1044, jump @1759\n      : @1082 [@dyn 522] (gas: 1)\n 29232: jump @1084 if a0 != 0\n      : @1083 (gas: 1)\n 29235: jump @797\n      : @1084 (gas: 20)\n 29238: a2 = s1 + 0x7ff\n 29242: a2 = a2 + 0x1f9\n 29246: a0 = u64 [a2 + 0x200]\n 29250: u64 [s1 + 0x268] = a0\n 29254: a3 = a2 + 0x100\n 29258: a0 = u64 [a3 + 0xf8]\n 29262: u64 [s1 + 0x260] = a0\n 29266: a0 = u64 [a3 + 0xf0]\n 29270: u64 [s1 + 0x258] = a0\n 29274: a0 = u64 [a3 + 0xe8]\n 29278: u64 [s1 + 0x278] = a0\n 29282: a0 = u64 [s1 + 0x1d8]\n 29286: i32 a0 = a0 + 0xe0\n 29290: u64 [a2 + 480] = 0\n 29294: u64 [a2 + 472] = 0\n 29298: u64 [a3 + 200] = 0x100\n 29304: a1 = s1 + 0x7ff\n 29308: a1 = a1 + 0x3c1\n 29312: u64 [a2 + 464] = 0\n 29316: ra = 1046, jump @9\n      : @1085 [@dyn 523] (gas: 13)\n 29322: a4 = s1 + 0x200\n 29326: a2 = u64 [a4 + 0x60]\n 29329: a0 = u64 [a4 + 0x78]\n 29332: a0 = a0 | a2\n 29335: a1 = u64 [a4 + 0x68]\n 29338: a3 = u64 [a4 + 0x58]\n 29341: a1 = a1 | a3\n 29344: a0 = a0 | a1\n 29347: a0 = a0 >> 0x20\n 29350: a1 = a1 | a2\n 29353: a1 = a1 << 0x20\n 29356: a0 = a0 | a1\n 29359: jump @1087 if a0 == 0\n      : @1086 (gas: 1)\n 29362: jump @797\n      : @1087 (gas: 4)\n 29365: a0 = s1 + 0x7ff\n 29369: a0 = a0 + 0x3a1\n 29373: a1 = u64 [s1 + 0x278]\n 29377: ra = 1048, jump @7\n      : @1088 [@dyn 524] (gas: 4)\n 29383: a0 = 0x100000000\n 29393: u64 [s1 + 0x218] = a0\n 29397: a0 = 0xfffffee0\n 29407: t0 = 1050, jump @1759\n      : @1089 [@dyn 525] (gas: 1)\n 29413: jump @1091 if a0 != 0\n      : @1090 (gas: 1)\n 29416: jump @797\n      : @1091 (gas: 20)\n 29419: a2 = s1 + 0x7ff\n 29423: a2 = a2 + 0x1f9\n 29427: t0 = u64 [a2 + 0x1c0]\n 29431: a3 = a2 + 0x100\n 29435: a1 = u64 [a3 + 0xb8]\n 29439: a4 = u64 [a3 + 0xb0]\n 29443: a5 = u64 [a3 + 0xa8]\n 29447: a0 = u64 [s1 + 0x1d8]\n 29451: i32 a0 = a0 + 0x120\n 29455: u64 [s1 + 0x1e8] = a5\n 29459: u64 [a3 + 0x88] = a5\n 29463: u64 [s1 + 0x1f0] = a4\n 29467: u64 [a3 + 0x90] = a4\n 29471: u64 [s1 + 0x1f8] = a1\n 29475: u64 [a3 + 0x98] = a1\n 29479: a1 = s1 + 0x7ff\n 29483: a1 = a1 + 0x381\n 29487: u64 [s1 + 0x200] = t0\n 29491: u64 [a2 + 0x1a0] = t0\n 29495: ra = 1052, jump @9\n      : @1092 [@dyn 526] (gas: 26)\n 29501: u64 [s1 + 568] = 0\n 29505: u64 [s1 + 560] = 0\n 29509: u64 [s1 + 544] = 0\n 29513: u64 [s1 + 552] = 0\n 29517: a3 = s1 + 0x100\n 29521: a1 = u64 [a3 + 0xd8]\n 29525: a0 = a1 + 0x140\n 29529: a4 = s1 + 0x200\n 29533: u64 [a4 + 0x70] = a0\n 29536: a0 = a0 <u a1\n 29539: a1 = u64 [a3 + 0xd0]\n 29543: a2 = a1 + a0\n 29546: u64 [a4 + 0x48] = a2\n 29549: a1 = a2 <u a1\n 29552: a1 = a0 if a0 == 0\n 29555: a0 = u64 [a3 + 0xc0]\n 29559: a1 = a1 + a0\n 29562: u64 [a4 + 0x40] = a1\n 29565: a0 = a1 <u a0\n 29568: a1 = u64 [a3 + 0xc8]\n 29572: a0 = a0 + a1\n 29575: u64 [a4 + 0x50] = a0\n 29578: a0 = u64 [a4 + 0x18]\n 29581: a0 = a0 + 0xffffffffffffffe0\n 29584: u64 [a3 + 0xe0] = a0\n 29588: fallthrough\n      : @1093 (gas: 22)\n 29589: a5 = s1 + 0x100\n 29593: a0 = u64 [a5 + 0xe8]\n 29597: a1 = u64 [s1 + 0x238]\n 29601: a0 = a1 <u a0\n 29604: a2 = u64 [a5 + 0xf0]\n 29608: a3 = u64 [s1 + 0x230]\n 29612: a1 = a3 ^ a2\n 29615: a2 = a3 <u a2\n 29618: a2 = a0 if a1 == 0\n 29621: a4 = u64 [a5 + 0xf8]\n 29625: a1 = s1 + 0x200\n 29629: a0 = u64 [a1 + 0x20]\n 29632: t0 = a0 <u a4\n 29635: a3 = u64 [a1]\n 29637: a5 = u64 [a1 + 0x28]\n 29640: a1 = a5 ^ a3\n 29643: a3 = a5 <u a3\n 29646: a3 = t0 if a1 == 0\n 29649: a0 = a0 ^ a4\n 29652: a0 = a0 | a1\n 29655: a3 = a2 if a0 == 0\n 29658: jump @1248 if a3 == 0\n      : @1094 (gas: 11)\n 29662: a3 = s1 + 0x200\n 29666: a0 = u64 [a3 + 0x68]\n 29669: a1 = u64 [a3 + 0x60]\n 29672: a0 = a0 | a1\n 29675: a1 = u64 [a3 + 0x78]\n 29678: a2 = u64 [s1 + 0x1e0]\n 29682: a1 = a1 <u a2\n 29685: a2 = u64 [a3 + 0x58]\n 29688: a1 = 0 if a2 != 0\n 29690: a1 = 0 if a0 != 0\n 29692: jump @1096 if a1 != 0\n      : @1095 (gas: 1)\n 29695: jump @797\n      : @1096 (gas: 6)\n 29698: a0 = u64 [s1 + 0x278]\n 29702: a1 = a0 + 0x20\n 29705: a0 = s1 + 0x7ff\n 29709: a0 = a0 + 0x321\n 29713: u64 [s1 + 0x218] = a1\n 29717: ra = 1054, jump @7\n      : @1097 [@dyn 527] (gas: 13)\n 29723: a4 = s1 + 0x200\n 29727: a0 = u64 [a4 + 0x70]\n 29730: a3 = u64 [a4 + 0x40]\n 29733: a0 = a0 | a3\n 29736: a1 = u64 [a4 + 0x50]\n 29739: a2 = u64 [a4 + 0x48]\n 29742: a1 = a1 | a2\n 29745: a0 = a0 | a1\n 29748: a0 = a0 >> 0x20\n 29751: a1 = a1 | a3\n 29754: a1 = a1 << 0x20\n 29757: a0 = a0 | a1\n 29760: jump @1099 if a0 == 0\n      : @1098 (gas: 1)\n 29763: jump @797\n      : @1099 (gas: 33)\n 29766: a0 = u64 [s1 + 0x278]\n 29770: a1 = u64 [s1 + 0x218]\n 29774: a0 = a1 <u a0\n 29777: a1 = u64 [s1 + 0x258]\n 29781: a2 = a1 + a0\n 29784: u64 [s1 + 0x210] = a2\n 29788: a1 = a2 <u a1\n 29791: a1 = a0 if a0 == 0\n 29794: a4 = u64 [s1 + 0x260]\n 29798: a1 = a1 + a4\n 29801: u64 [s1 + 0x208] = a1\n 29805: a5 = s1 + 0x7ff\n 29809: a5 = a5 + 0x1f9\n 29813: t0 = u64 [a5 + 0x140]\n 29817: t1 = u64 [a5 + 0x138]\n 29821: a2 = u64 [a5 + 0x128]\n 29825: a3 = u64 [a5 + 0x130]\n 29829: a4 = a1 <u a4\n 29832: a0 = u64 [s1 + 0x268]\n 29836: a0 = a0 + a4\n 29839: u64 [s1 + 0x268] = a0\n 29843: a1 = a2 | t1\n 29846: a0 = a3 | t0\n 29849: a0 = a0 | a1\n 29852: a0 = a0 >u 0\n 29854: u64 [a5 + 288] = 0\n 29858: u64 [a5 + 280] = 0\n 29862: u64 [a5 + 272] = 0\n 29866: a1 = s1 + 0x7ff\n 29870: a1 = a1 + 0x301\n 29874: u64 [a5 + 0x108] = a0\n 29878: a0 = u64 [s1 + 0x270]\n 29882: ra = 1056, jump @9\n      : @1100 [@dyn 528] (gas: 40)\n 29888: a1 = u64 [s1 + 0x270]\n 29892: a0 = a1 + 0x20\n 29895: a1 = a0 <u a1\n 29898: a3 = u64 [s1 + 0x248]\n 29902: a2 = a3 + a1\n 29905: a3 = a2 <u a3\n 29908: a3 = a1 if a1 == 0\n 29911: a1 = u64 [s1 + 0x240]\n 29915: a3 = a3 + a1\n 29918: a1 = a3 <u a1\n 29921: a4 = u64 [s1 + 0x250]\n 29925: a4 = a4 + a1\n 29928: u64 [s1 + 0x250] = a4\n 29932: a4 = u64 [s1 + 0x238]\n 29936: a4 = a4 + 0x1\n 29939: a1 = a4 <u 0x1\n 29942: a5 = u64 [s1 + 0x230]\n 29946: a5 = a5 + a1\n 29949: u64 [s1 + 0x238] = a4\n 29953: u64 [s1 + 0x230] = a5\n 29957: a1 = a4 | a5\n 29960: a1 = a1 <u 0x1\n 29963: a4 = u64 [s1 + 0x220]\n 29967: a1 = a1 + a4\n 29970: a4 = a1 <u a4\n 29973: a5 = u64 [s1 + 0x228]\n 29977: a5 = a5 + a4\n 29980: a4 = s1 + 0x200\n 29984: u64 [a4 + 0x28] = a5\n 29987: u64 [a4 + 0x70] = a0\n 29990: u64 [a4 + 0x48] = a2\n 29993: u64 [a4 + 0x40] = a3\n 29996: a0 = u64 [a4 + 0x18]\n 29999: u64 [a4 + 0x78] = a0\n 30002: a0 = u64 [a4 + 0x10]\n 30005: u64 [a4 + 0x58] = a0\n 30008: a0 = u64 [a4 + 0x8]\n 30011: u64 [a4 + 0x60] = a0\n 30014: u64 [a4 + 0x20] = a1\n 30017: jump @1093\n      : @1101 (gas: 2)\n 30020: a1 = 0x20200\n 30025: jump @799\n      : @1102 (gas: 2)\n 30028: a1 = 0x20200\n 30033: jump @799\n      : @1103 (gas: 2)\n 30036: a1 = 0x20200\n 30041: jump @799\n      : @1104 (gas: 2)\n 30044: a1 = 0x20200\n 30049: jump @799\n      : @1105 (gas: 2)\n 30052: a1 = 0x20200\n 30057: jump @799\n      : @1106 (gas: 2)\n 30060: a1 = 0x20200\n 30065: jump @799\n      : @1107 (gas: 2)\n 30068: a1 = 0x20200\n 30073: jump @799\n      : @1108 (gas: 2)\n 30076: a1 = 0x20200\n 30081: jump @799\n      : @1109 (gas: 2)\n 30084: a1 = 0x20200\n 30089: jump @799\n      : @1110 (gas: 2)\n 30092: a1 = 0x20200\n 30097: jump @799\n      : @1111 (gas: 7)\n 30100: u64 [a2 + 440] = 0\n 30104: u64 [a2 + 432] = 0\n 30108: u64 [a2 + 424] = 0\n 30112: t0 = 0x422\n 30116: a0 = 0x4e487b7100000000\n 30126: a1 = 0x2000\n 30130: fallthrough\n      : @1112 [@dyn 529] (gas: 5)\n 30131: i32 a1 = a1 + 0x3a0\n 30135: a1 = a1 + s1\n 30138: u64 [a2 + 0x1c0] = a0\n 30142: a0 = 0\n 30144: ra = 1060, jump @9\n      : @1113 [@dyn 530] (gas: 3)\n 30150: t0 = 0x426\n 30154: a1 = s1 + 0x21f8\n 30158: fallthrough\n      : @1114 [@dyn 531] (gas: 8)\n 30159: u64 [a1 + 416] = 0\n 30163: u64 [a1 + 408] = 0\n 30167: u64 [a1 + 392] = 0x11\n 30172: a2 = a1\n 30174: a0 = 0x4\n 30177: a1 = s1 + 0x2380\n 30181: u64 [a2 + 400] = 0\n 30185: ra = 1064, jump @9\n      : @1115 [@dyn 532] (gas: 2)\n 30191: a1 = i32 [0x201f0]\n 30196: jump @1117 if a1 >u 63\n      : @1116 (gas: 3)\n 30200: u32 [0x201f0] = 0x40\n 30206: a1 = 0x20200\n 30211: jump @1181\n      : @1117 (gas: 2)\n 30214: a1 = 0x20200\n 30219: jump @1181\n      : @1118 (gas: 2)\n 30222: a1 = 0x20200\n 30227: jump @799\n      : @1119 (gas: 2)\n 30230: a1 = 0x20200\n 30235: jump @799\n      : @1120 (gas: 2)\n 30238: a1 = 0x20200\n 30243: jump @799\n      : @1121 (gas: 2)\n 30246: a1 = 0x20200\n 30251: jump @799\n      : @1122 (gas: 2)\n 30254: a1 = 0x20200\n 30259: jump @799\n      : @1123 (gas: 2)\n 30262: a1 = 0x20200\n 30267: jump @799\n      : @1124 (gas: 2)\n 30270: a1 = 0x20200\n 30275: jump @799\n      : @1125 (gas: 1)\n 30278: jump @1182 if a0 != 2439880275\n      : @1126 (gas: 11)\n 30286: a0 = s1 + 0x31f8\n 30290: u64 [a0 + 64] = 0\n 30293: u64 [a0 + 56] = 0\n 30296: u64 [a0 + 48] = 0\n 30299: u64 [a0 + 40] = 0\n 30302: a0 = s1 + 0x3000\n 30306: i32 a0 = a0 + 0x220\n 30310: ra = 0x42a\n 30314: ecalli 16 // 'value_transferred'\n 30316: a3 = s1 + 0x31f8\n 30320: jump @1128\n      : @1127 [@dyn 533] (gas: 2)\n 30322: a3 = s1 + 0x31f8\n 30326: fallthrough\n      : @1128 (gas: 8)\n 30327: a0 = u64 [a3 + 0x38]\n 30330: a1 = u64 [a3 + 0x40]\n 30333: a2 = u64 [a3 + 0x30]\n 30336: a3 = u64 [a3 + 0x28]\n 30339: a1 = a1 | a2\n 30342: a0 = a0 | a3\n 30345: a0 = a0 | a1\n 30348: jump @1198 if a0 == 0\n      : @1129 (gas: 2)\n 30352: a1 = 0x20200\n 30357: jump @799\n      : @1130 (gas: 2)\n 30360: a1 = 0x20200\n 30365: jump @799\n      : @1131 (gas: 2)\n 30368: a1 = 0x20200\n 30373: jump @799\n      : @1132 (gas: 2)\n 30376: a1 = 0x20200\n 30381: jump @799\n      : @1133 (gas: 2)\n 30384: a1 = 0x20200\n 30389: jump @799\n      : @1134 (gas: 2)\n 30392: a1 = 0x20200\n 30397: jump @799\n      : @1135 (gas: 2)\n 30400: a1 = 0x20200\n 30405: jump @799\n      : @1136 (gas: 2)\n 30408: a1 = 0x20200\n 30413: jump @799\n      : @1137 (gas: 6)\n 30416: a1 = 0x20200\n 30421: i32 a1 = a1 + 0\n 30423: a0 = 0x1\n 30426: ecalli 13 // 'seal_return'\n 30428: a1 = 0x20200\n 30433: jump @799\n      : @1138 (gas: 2)\n 30436: a1 = 0x20200\n 30441: jump @799\n      : @1139 (gas: 2)\n 30444: a1 = 0x20200\n 30449: jump @799\n      : @1140 (gas: 2)\n 30452: a1 = 0x20200\n 30457: jump @799\n      : @1141 (gas: 2)\n 30460: a1 = 0x20200\n 30465: jump @799\n      : @1142 (gas: 2)\n 30468: a1 = 0x20200\n 30473: jump @799\n      : @1143 (gas: 2)\n 30476: a1 = 0x20200\n 30481: jump @799\n      : @1144 (gas: 2)\n 30484: a1 = 0x20200\n 30489: jump @799\n      : @1145 (gas: 2)\n 30492: a1 = 0x20200\n 30497: jump @799\n      : @1146 (gas: 2)\n 30500: a1 = 0x20200\n 30505: jump @799\n      : @1147 (gas: 2)\n 30508: a1 = 0x20200\n 30513: jump @799\n      : @1148 (gas: 3)\n 30516: u64 [s1 + 624] = 0x20\n 30521: ecalli 12 // 'return_data_size'\n 30523: fallthrough\n      : @1149 (gas: 1)\n 30524: jump @1151 if a0 >u 31\n      : @1150 (gas: 3)\n 30528: ecalli 12 // 'return_data_size'\n 30530: u64 [s1 + 0x270] = a0\n 30534: fallthrough\n      : @1151 (gas: 19)\n 30535: a2 = s1 + 0x21f8\n 30539: a0 = u64 [s1 + 0x270]\n 30543: a4 = a2 + 0x700\n 30547: u64 [a4 + 0x48] = a0\n 30550: a0 = u64 [s1 + 0x278]\n 30554: u64 [a4 + 0x68] = a0\n 30557: u64 [s1 + 616] = 0\n 30561: u64 [a2 + 1872] = 0\n 30565: a0 = u64 [s1 + 0x248]\n 30569: u64 [a4 + 0x70] = a0\n 30572: u64 [a2 + 1880] = 0\n 30576: a0 = u64 [s1 + 0x240]\n 30580: u64 [a4 + 0x78] = a0\n 30583: u64 [a2 + 1888] = 0\n 30587: a0 = s1 + 0x2960\n 30591: a1 = s1 + 0x2940\n 30595: a3 = u64 [s1 + 0x238]\n 30599: u64 [a4 + 0x80] = a3\n 30603: ra = 1068, jump @1452\n      : @1152 [@dyn 534] (gas: 34)\n 30609: t0 = u64 [s1 + 0x278]\n 30613: a0 = u64 [s1 + 0x270]\n 30617: ra = a0 + t0\n 30620: a1 = ra <u a0\n 30623: t1 = u64 [s1 + 0x248]\n 30627: a5 = u64 [s1 + 0x268]\n 30631: a2 = a5 + t1\n 30634: a2 = a2 + a1\n 30637: a3 = a2 ^ a5\n 30640: a4 = a2 <u a5\n 30643: a4 = a1 if a3 == 0\n 30646: a3 = u64 [s1 + 0x240]\n 30650: a1 = a5 + a3\n 30653: a4 = a4 + a1\n 30656: t2 = a4 <u a1\n 30659: a1 = a1 <u a5\n 30662: a0 = u64 [s1 + 0x238]\n 30666: a5 = a5 + a0\n 30669: a1 = a1 + a5\n 30672: t2 = t2 + a1\n 30675: a1 = s1 + 0x21f8\n 30679: u64 [a1 + 0x6f8] = a4\n 30683: u64 [a1 + 0x6f0] = a2\n 30687: u64 [a1 + 0x6e8] = ra\n 30691: u64 [a1 + 0x720] = a0\n 30695: u64 [a1 + 0x718] = a3\n 30699: u64 [a1 + 0x710] = t1\n 30703: u64 [a1 + 0x708] = t0\n 30707: a4 = a1\n 30709: a0 = s1 + 0x2920\n 30713: a1 = s1 + 0x2900\n 30717: a2 = s1 + 0x28e0\n 30721: u64 [a4 + 0x700] = t2\n 30725: ra = 1070, jump @1477\n      : @1153 [@dyn 535] (gas: 6)\n 30731: a1 = 0x20200\n 30736: i32 a1 = a1 + 0\n 30738: a0 = 0\n 30740: a2 = 0\n 30742: ecalli 13 // 'seal_return'\n 30744: jump @800\n      : @1154 (gas: 9)\n 30747: a0 = s1 + 0x21f8\n 30751: u64 [a0 + 664] = 0\n 30755: u64 [a0 + 656] = 0\n 30759: u64 [a0 + 648] = 0\n 30763: a2 = a0\n 30765: t0 = 0x430\n 30769: a0 = 0x4e487b7100000000\n 30779: a1 = 0x2000\n 30783: fallthrough\n      : @1155 [@dyn 536] (gas: 5)\n 30784: i32 a1 = a1 + 0x480\n 30788: a1 = a1 + s1\n 30791: u64 [a2 + 0x2a0] = a0\n 30795: a0 = 0\n 30797: ra = 1074, jump @9\n      : @1156 [@dyn 537] (gas: 3)\n 30803: t0 = 0x434\n 30807: a1 = s1 + 0x21f8\n 30811: fallthrough\n      : @1157 [@dyn 538] (gas: 8)\n 30812: u64 [a1 + 640] = 0\n 30816: u64 [a1 + 632] = 0\n 30820: u64 [a1 + 616] = 0x11\n 30825: a2 = a1\n 30827: a0 = 0x4\n 30830: a1 = s1 + 0x2460\n 30834: u64 [a2 + 624] = 0\n 30838: ra = 1078, jump @9\n      : @1158 [@dyn 539] (gas: 2)\n 30844: a1 = i32 [0x201f0]\n 30849: jump @1160 if a1 >u 63\n      : @1159 (gas: 3)\n 30853: u32 [0x201f0] = 0x40\n 30859: a1 = 0x20200\n 30864: jump @1181\n      : @1160 (gas: 2)\n 30867: a1 = 0x20200\n 30872: jump @1181\n      : @1161 (gas: 7)\n 30875: u64 [t2 + 728] = 0\n 30879: u64 [t2 + 720] = 0\n 30883: u64 [t2 + 712] = 0\n 30887: t0 = 0x438\n 30891: a0 = 0x4e487b7100000000\n 30901: a1 = 0x2000\n 30905: fallthrough\n      : @1162 [@dyn 540] (gas: 5)\n 30906: i32 a1 = a1 + 0x4c0\n 30910: a1 = a1 + s1\n 30913: u64 [t2 + 0x2e0] = a0\n 30917: a0 = 0\n 30919: ra = 1082, jump @9\n      : @1163 [@dyn 541] (gas: 3)\n 30925: t0 = 0x43c\n 30929: a1 = s1 + 0x21f8\n 30933: fallthrough\n      : @1164 [@dyn 542] (gas: 8)\n 30934: u64 [a1 + 704] = 0\n 30938: u64 [a1 + 696] = 0\n 30942: u64 [a1 + 680] = 0x11\n 30947: a2 = a1\n 30949: a0 = 0x4\n 30952: a1 = s1 + 0x24a0\n 30956: u64 [a2 + 688] = 0\n 30960: ra = 1086, jump @9\n      : @1165 [@dyn 543] (gas: 2)\n 30966: a1 = i32 [0x201f0]\n 30971: jump @1167 if a1 >u 63\n      : @1166 (gas: 3)\n 30975: u32 [0x201f0] = 0x40\n 30981: a1 = 0x20200\n 30986: jump @1181\n      : @1167 (gas: 2)\n 30989: a1 = 0x20200\n 30994: jump @1181\n      : @1168 (gas: 9)\n 30997: a0 = s1 + 0x21f8\n 31001: u64 [a0 + 792] = 0\n 31005: u64 [a0 + 784] = 0\n 31009: u64 [a0 + 776] = 0\n 31013: a2 = a0\n 31015: t0 = 0x440\n 31019: a0 = 0x4e487b7100000000\n 31029: a1 = 0x2000\n 31033: fallthrough\n      : @1169 [@dyn 544] (gas: 5)\n 31034: i32 a1 = a1 + 0x500\n 31038: a1 = a1 + s1\n 31041: u64 [a2 + 0x320] = a0\n 31045: a0 = 0\n 31047: ra = 1090, jump @9\n      : @1170 [@dyn 545] (gas: 3)\n 31053: t0 = 0x444\n 31057: a1 = s1 + 0x21f8\n 31061: fallthrough\n      : @1171 [@dyn 546] (gas: 8)\n 31062: u64 [a1 + 768] = 0\n 31066: u64 [a1 + 760] = 0\n 31070: u64 [a1 + 744] = 0x12\n 31075: a2 = a1\n 31077: a0 = 0x4\n 31080: a1 = s1 + 0x24e0\n 31084: u64 [a2 + 752] = 0\n 31088: ra = 1094, jump @9\n      : @1172 [@dyn 547] (gas: 2)\n 31094: a1 = i32 [0x201f0]\n 31099: jump @1174 if a1 >u 63\n      : @1173 (gas: 3)\n 31103: u32 [0x201f0] = 0x40\n 31109: a1 = 0x20200\n 31114: jump @1181\n      : @1174 (gas: 2)\n 31117: a1 = 0x20200\n 31122: jump @1181\n      : @1175 (gas: 9)\n 31124: a0 = s1 + 0x11f8\n 31128: u64 [a0 + 1912] = 0\n 31132: u64 [a0 + 1904] = 0\n 31136: u64 [a0 + 1896] = 0\n 31140: a2 = a0\n 31142: t0 = 0x448\n 31146: a0 = 0x4e487b7100000000\n 31156: a1 = 0x2000\n 31160: fallthrough\n      : @1176 [@dyn 548] (gas: 5)\n 31161: i32 a1 = a1 + 0xfffffffffffff960\n 31165: a1 = a1 + s1\n 31168: u64 [a2 + 0x780] = a0\n 31172: a0 = 0\n 31174: ra = 1098, jump @9\n      : @1177 [@dyn 549] (gas: 9)\n 31180: a1 = s1 + 0x11f8\n 31184: u64 [a1 + 1888] = 0\n 31188: u64 [a1 + 1880] = 0\n 31192: u64 [a1 + 1864] = 0x41\n 31197: a2 = a1\n 31199: a0 = 0x4\n 31202: a1 = s1 + 0x1940\n 31206: u64 [a2 + 1872] = 0\n 31210: ra = 1100, jump @9\n      : @1178 [@dyn 550] (gas: 2)\n 31216: a1 = i32 [0x201f0]\n 31221: jump @1180 if a1 >u 63\n      : @1179 (gas: 3)\n 31225: u32 [0x201f0] = 0x40\n 31231: a1 = 0x20200\n 31236: jump @1181\n      : @1180 (gas: 2)\n 31238: a1 = 0x20200\n 31243: fallthrough\n      : @1181 (gas: 6)\n 31244: i32 a1 = a1 + 0\n 31246: a0 = 0x1\n 31249: a2 = 0x24\n 31252: ra = 0x44e\n 31256: ecalli 13 // 'seal_return'\n 31258: fallthrough\n      : @1182 [@dyn 551] (gas: 1)\n 31259: jump @1193 if a0 != 3578229791\n      : @1183 (gas: 9)\n 31267: a0 = s1 + 0x31f8\n 31271: u64 [a0 + 544] = 0\n 31275: u64 [a0 + 536] = 0\n 31279: u64 [a0 + 528] = 0\n 31283: u64 [a0 + 520] = 0\n 31287: a0 = s1 + 0x3000\n 31291: i32 a0 = a0 + 0x400\n 31295: ecalli 16 // 'value_transferred'\n 31297: fallthrough\n      : @1184 (gas: 10)\n 31298: a3 = s1 + 0x31f8\n 31302: a4 = a3 + 0x200\n 31306: a0 = u64 [a4 + 0x18]\n 31309: a1 = u64 [a4 + 0x20]\n 31312: a2 = u64 [a4 + 0x10]\n 31315: a3 = u64 [a4 + 0x8]\n 31318: a1 = a1 | a2\n 31321: a0 = a0 | a3\n 31324: a0 = a0 | a1\n 31327: jump @1206 if a0 == 0\n      : @1185 (gas: 2)\n 31331: a1 = 0x20200\n 31336: jump @799\n      : @1186 (gas: 4)\n 31339: a1 = i32 [s1 + 0x248]\n 31343: a0 = 0\n 31345: ecalli 13 // 'seal_return'\n 31347: jump @603\n      : @1187 (gas: 3)\n 31350: u64 [s1 + 624] = 0x20\n 31355: ecalli 12 // 'return_data_size'\n 31357: fallthrough\n      : @1188 (gas: 1)\n 31358: jump @1190 if a0 >u 31\n      : @1189 (gas: 3)\n 31362: ecalli 12 // 'return_data_size'\n 31364: u64 [s1 + 0x270] = a0\n 31368: fallthrough\n      : @1190 (gas: 19)\n 31369: a0 = s1 + 0x29f8\n 31373: a1 = u64 [s1 + 0x270]\n 31377: u64 [a0 + 0x48] = a1\n 31380: a1 = u64 [s1 + 0x278]\n 31384: u64 [a0 + 0x68] = a1\n 31387: u64 [s1 + 616] = 0\n 31391: u64 [a0 + 80] = 0\n 31394: a1 = u64 [s1 + 0x260]\n 31398: u64 [a0 + 0x70] = a1\n 31401: u64 [a0 + 88] = 0\n 31404: a1 = u64 [s1 + 0x258]\n 31408: u64 [a0 + 0x78] = a1\n 31411: u64 [a0 + 96] = 0\n 31414: a2 = a0\n 31416: a0 = s1 + 0x2a60\n 31420: a1 = s1 + 0x2a40\n 31424: a3 = u64 [s1 + 0x250]\n 31428: u64 [a2 + 0x80] = a3\n 31432: ra = 1104, jump @1452\n      : @1191 [@dyn 552] (gas: 36)\n 31438: t0 = u64 [s1 + 0x278]\n 31442: a1 = u64 [s1 + 0x270]\n 31446: a0 = a1 + t0\n 31449: a1 = a0 <u a1\n 31452: t1 = u64 [s1 + 0x260]\n 31456: a5 = u64 [s1 + 0x268]\n 31460: a2 = a5 + t1\n 31463: a2 = a2 + a1\n 31466: a3 = a2 ^ a5\n 31469: a4 = a2 <u a5\n 31472: a4 = a1 if a3 == 0\n 31475: ra = u64 [s1 + 0x258]\n 31479: a1 = a5 + ra\n 31482: a4 = a4 + a1\n 31485: t2 = a4 <u a1\n 31488: a1 = a1 <u a5\n 31491: a3 = u64 [s1 + 0x250]\n 31495: a5 = a5 + a3\n 31498: a1 = a1 + a5\n 31501: t2 = t2 + a1\n 31504: a1 = s1 + 0x21f8\n 31508: a5 = a1 + 0x700\n 31512: u64 [a5 + 0xf8] = a4\n 31516: u64 [a5 + 0xf0] = a2\n 31520: u64 [a5 + 0xe8] = a0\n 31524: a0 = s1 + 0x29f8\n 31528: u64 [a0 + 0x20] = a3\n 31531: u64 [a0 + 0x18] = ra\n 31534: u64 [a0 + 0x10] = t1\n 31537: u64 [a0 + 0x8] = t0\n 31540: a4 = a0\n 31542: a0 = s1 + 0x2a20\n 31546: a1 = s1 + 0x2a00\n 31550: a2 = s1 + 0x29e0\n 31554: u64 [a4] = t2\n 31556: ra = 1106, jump @1477\n      : @1192 [@dyn 553] (gas: 6)\n 31562: a1 = 0x20200\n 31567: i32 a1 = a1 + 0\n 31569: a0 = 0\n 31571: a2 = 0\n 31573: ecalli 13 // 'seal_return'\n 31575: jump @800\n      : @1193 (gas: 1)\n 31578: jump @1201 if a0 != 33540519\n      : @1194 (gas: 10)\n 31585: a0 = s1 + 0x29f8\n 31589: u64 [a0 + 416] = 0\n 31593: u64 [a0 + 408] = 0\n 31597: u64 [a0 + 400] = 0\n 31601: u64 [a0 + 392] = 0\n 31605: a0 = s1 + 0x3000\n 31609: i32 a0 = a0 + 0xfffffffffffffb80\n 31613: ra = 0x454\n 31617: ecalli 16 // 'value_transferred'\n 31619: fallthrough\n      : @1195 [@dyn 554] (gas: 3)\n 31620: a3 = s1 + 0x29f8\n 31624: a4 = a3 + 0x100\n 31628: t0 = 1110, jump @1807\n      : @1196 [@dyn 555] (gas: 1)\n 31634: jump @1224 if a0 == 0\n      : @1197 (gas: 2)\n 31638: a1 = 0x20200\n 31643: jump @799\n      : @1198 (gas: 1)\n 31646: t0 = 1112, jump @1808\n      : @1199 [@dyn 556] (gas: 1)\n 31652: jump @1208 if a1 <u a0\n      : @1200 (gas: 2)\n 31655: a1 = 0x20200\n 31660: jump @799\n      : @1201 (gas: 1)\n 31663: jump @1218 if a0 != 292064369\n      : @1202 (gas: 10)\n 31671: a0 = s1 + 0x29f8\n 31675: u64 [a0 + 480] = 0\n 31679: u64 [a0 + 472] = 0\n 31683: u64 [a0 + 464] = 0\n 31687: u64 [a0 + 456] = 0\n 31691: a0 = s1 + 0x3000\n 31695: i32 a0 = a0 + 0xfffffffffffffbc0\n 31699: ra = 0x45a\n 31703: ecalli 16 // 'value_transferred'\n 31705: fallthrough\n      : @1203 [@dyn 557] (gas: 3)\n 31706: a3 = s1 + 0x29f8\n 31710: a4 = a3 + 0x100\n 31714: t0 = 1116, jump @1827\n      : @1204 [@dyn 558] (gas: 1)\n 31720: jump @1239 if a0 == 0\n      : @1205 (gas: 2)\n 31724: a1 = 0x20200\n 31729: jump @799\n      : @1206 (gas: 3)\n 31732: a0 = u64 [s1 + 0x278]\n 31736: a0 = i32 [a0]\n 31738: jump @1227 if a0 >u 67\n      : @1207 (gas: 2)\n 31743: a1 = 0x20200\n 31748: jump @799\n      : @1208 (gas: 4)\n 31751: a0 = s1 + 0x21c0\n 31755: ra = 0x45e\n 31759: t0 = 0x516\n 31763: jump @1793\n      : @1209 [@dyn 559] (gas: 13)\n 31766: a0 = s1 + 0x19f8\n 31770: a2 = a0 + 0x700\n 31774: a1 = u64 [a2 + 0xc8]\n 31778: u64 [s1 + 0x278] = a1\n 31782: a1 = u64 [a2 + 0xd0]\n 31786: u64 [s1 + 0x270] = a1\n 31790: a1 = u64 [a2 + 0xd8]\n 31794: u64 [s1 + 0x268] = a1\n 31798: a1 = u64 [a2 + 0xe0]\n 31802: u64 [s1 + 0x260] = a1\n 31806: ra = 0x460\n 31810: t0 = 0x5ca\n 31814: jump @1810\n      : @1210 [@dyn 560] (gas: 17)\n 31817: a0 = s1 + 0x19f8\n 31821: a4 = s1 + 0x200\n 31825: a1 = u64 [a4 + 0x60]\n 31828: a2 = a0 + 0x700\n 31832: u64 [a2 + 0xa0] = a1\n 31836: a1 = u64 [a4 + 0x68]\n 31839: u64 [a2 + 0x98] = a1\n 31843: a1 = u64 [a4 + 0x70]\n 31846: u64 [a2 + 0x90] = a1\n 31850: a3 = a0\n 31852: a0 = s1 + 0x21a0\n 31856: a1 = s1 + 0x2180\n 31860: a2 = u64 [a4 + 0x78]\n 31863: u64 [a3 + 0x788] = a2\n 31867: ra = 0x462\n 31871: t0 = 0x6a8\n 31875: jump @1815\n      : @1211 [@dyn 561] (gas: 6)\n 31878: a1 = 0x20200\n 31883: i32 a1 = a1 + 0\n 31885: a0 = 0\n 31887: a2 = 0\n 31889: ecalli 13 // 'seal_return'\n 31891: jump @800\n      : @1212 (gas: 9)\n 31894: a0 = s1 + 0x11f8\n 31898: u64 [a0 + 1976] = 0\n 31902: u64 [a0 + 1968] = 0\n 31906: u64 [a0 + 1960] = 0\n 31910: a2 = a0\n 31912: t0 = 0x464\n 31916: a0 = 0x4e487b7100000000\n 31926: a1 = 0x2000\n 31930: fallthrough\n      : @1213 [@dyn 562] (gas: 5)\n 31931: i32 a1 = a1 + 0xfffffffffffff9a0\n 31935: a1 = a1 + s1\n 31938: u64 [a2 + 0x7c0] = a0\n 31942: a0 = 0\n 31944: ra = 1126, jump @9\n      : @1214 [@dyn 563] (gas: 9)\n 31950: a1 = s1 + 0x11f8\n 31954: u64 [a1 + 1952] = 0\n 31958: u64 [a1 + 1944] = 0\n 31962: u64 [a1 + 1928] = 0x41\n 31967: a2 = a1\n 31969: a0 = 0x4\n 31972: a1 = s1 + 0x1980\n 31976: u64 [a2 + 1936] = 0\n 31980: ra = 1128, jump @9\n      : @1215 [@dyn 564] (gas: 2)\n 31986: a1 = i32 [0x201f0]\n 31991: jump @1217 if a1 >u 63\n      : @1216 (gas: 3)\n 31995: u32 [0x201f0] = 0x40\n 32001: a1 = 0x20200\n 32006: jump @1181\n      : @1217 (gas: 2)\n 32009: a1 = 0x20200\n 32014: jump @1181\n      : @1218 (gas: 1)\n 32017: jump @1233 if a0 != 791671133\n      : @1219 (gas: 11)\n 32025: a0 = s1 + 0x29f8\n 32029: u64 [a0 + 1184] = 0\n 32033: u64 [a0 + 1176] = 0\n 32037: u64 [a0 + 1168] = 0\n 32041: u64 [a0 + 1160] = 0\n 32045: a0 = s1 + 0x3000\n 32049: i32 a0 = a0 + 0xfffffffffffffe80\n 32053: ra = 0x46a\n 32057: ecalli 16 // 'value_transferred'\n 32059: t0 = 0x46c\n 32063: jump @1788\n      : @1220 [@dyn 565] (gas: 1)\n 32066: t0 = 1132, jump @1788\n      : @1221 [@dyn 566] (gas: 1)\n 32072: t0 = 1134, jump @1807\n      : @1222 [@dyn 567] (gas: 1)\n 32078: jump @1254 if a0 == 0\n      : @1223 (gas: 2)\n 32082: a1 = 0x20200\n 32087: jump @799\n      : @1224 (gas: 1)\n 32090: t0 = 1136, jump @1808\n      : @1225 [@dyn 568] (gas: 1)\n 32096: jump @1241 if a1 <u a0\n      : @1226 (gas: 2)\n 32100: a1 = 0x20200\n 32105: jump @799\n      : @1227 (gas: 18)\n 32108: a0 = s1 + 0x3000\n 32112: i32 a0 = a0 + 0x420\n 32116: a1 = 0x4\n 32119: ecalli 2 // 'call_data_load'\n 32121: a0 = s1 + 0x31f8\n 32125: a2 = a0 + 0x200\n 32129: a1 = u64 [a2 + 0x28]\n 32132: u64 [s1 + 0x278] = a1\n 32136: a1 = u64 [a2 + 0x30]\n 32139: u64 [s1 + 0x270] = a1\n 32143: a1 = u64 [a2 + 0x38]\n 32146: u64 [s1 + 0x268] = a1\n 32150: a0 = u64 [a2 + 0x40]\n 32153: u64 [s1 + 0x260] = a0\n 32157: a0 = s1 + 0x28c0\n 32161: ra = 0x472\n 32165: t0 = 0x50c\n 32169: jump @1793\n      : @1228 [@dyn 569] (gas: 3)\n 32172: t0 = 0x474\n 32176: a1 = s1 + 0x21f8\n 32180: fallthrough\n      : @1229 [@dyn 570] (gas: 21)\n 32181: a2 = a1 + 0x600\n 32185: a0 = u64 [a2 + 0xc8]\n 32189: u64 [s1 + 0x258] = a0\n 32193: a0 = u64 [a2 + 0xd0]\n 32197: u64 [s1 + 0x250] = a0\n 32201: a0 = u64 [a2 + 0xd8]\n 32205: u64 [s1 + 0x248] = a0\n 32209: a0 = u64 [a2 + 0xe0]\n 32213: u64 [s1 + 0x240] = a0\n 32217: a0 = u64 [s1 + 0x260]\n 32221: u64 [a2 + 0xa0] = a0\n 32225: a0 = u64 [s1 + 0x268]\n 32229: u64 [a2 + 0x98] = a0\n 32233: a0 = u64 [s1 + 0x270]\n 32237: u64 [a2 + 0x90] = a0\n 32241: a3 = a1\n 32243: a0 = s1 + 0x28a0\n 32247: a1 = s1 + 0x2880\n 32251: a2 = u64 [s1 + 0x278]\n 32255: u64 [a3 + 0x688] = a2\n 32259: ra = 1142, jump @1461\n      : @1230 [@dyn 571] (gas: 14)\n 32265: a4 = s1 + 0x21f8\n 32269: a5 = a4 + 0x600\n 32273: a1 = u64 [a5 + 0xa8]\n 32277: a0 = u64 [a5 + 0xb0]\n 32281: a2 = u64 [a5 + 0xb8]\n 32285: a3 = u64 [a5 + 0xc0]\n 32289: u64 [a5 + 0x80] = a3\n 32293: u64 [a5 + 0x78] = a2\n 32296: u64 [a5 + 0x70] = a0\n 32299: a0 = s1 + 0x2860\n 32303: u64 [a5 + 0x68] = a1\n 32306: ra = 0x478\n 32310: t0 = 0x5f8\n 32314: jump @1810\n      : @1231 [@dyn 572] (gas: 26)\n 32317: a0 = s1 + 0x21f8\n 32321: a5 = s1 + 0x200\n 32325: a1 = u64 [a5 + 0x40]\n 32328: a2 = a0 + 0x600\n 32332: u64 [a2 + 0x20] = a1\n 32335: a1 = u64 [a5 + 0x48]\n 32338: u64 [a2 + 0x18] = a1\n 32341: a1 = u64 [a5 + 0x50]\n 32344: u64 [a2 + 0x10] = a1\n 32347: a1 = u64 [a5 + 0x58]\n 32350: u64 [a2 + 0x8] = a1\n 32353: a1 = u64 [a5 + 0x60]\n 32356: u64 [a2 + 0x40] = a1\n 32359: a1 = u64 [a5 + 0x68]\n 32362: u64 [a2 + 0x38] = a1\n 32365: a1 = u64 [a5 + 0x70]\n 32368: u64 [a2 + 0x30] = a1\n 32371: a4 = a0\n 32373: a0 = s1 + 0x2840\n 32377: a1 = s1 + 0x2820\n 32381: a2 = s1 + 0x2800\n 32385: a3 = u64 [a5 + 0x78]\n 32388: u64 [a4 + 0x628] = a3\n 32392: ra = 0x47a\n 32396: t0 = 0x6ea\n 32400: jump @1816\n      : @1232 [@dyn 573] (gas: 6)\n 32403: a1 = 0x20200\n 32408: i32 a1 = a1 + 0\n 32410: a0 = 0\n 32412: a2 = 0\n 32414: ecalli 13 // 'seal_return'\n 32416: jump @800\n      : @1233 (gas: 1)\n 32419: jump @1256 if a0 != 911613028\n      : @1234 (gas: 11)\n 32427: a0 = s1 + 0x29f8\n 32431: u64 [a0 + 1248] = 0\n 32435: u64 [a0 + 1240] = 0\n 32439: u64 [a0 + 1232] = 0\n 32443: u64 [a0 + 1224] = 0\n 32447: a0 = s1 + 0x3000\n 32451: i32 a0 = a0 + 0xfffffffffffffec0\n 32455: ra = 0x47c\n 32459: ecalli 16 // 'value_transferred'\n 32461: t0 = 0x47e\n 32465: jump @1788\n      : @1235 [@dyn 574] (gas: 1)\n 32468: t0 = 1150, jump @1788\n      : @1236 [@dyn 575] (gas: 1)\n 32474: t0 = 1152, jump @1827\n      : @1237 [@dyn 576] (gas: 1)\n 32480: jump @1262 if a0 == 0\n      : @1238 (gas: 2)\n 32484: a1 = 0x20200\n 32489: jump @799\n      : @1239 (gas: 3)\n 32492: a0 = u64 [s1 + 0x278]\n 32496: a0 = i32 [a0]\n 32498: jump @1265 if a0 >u 67\n      : @1240 (gas: 2)\n 32503: a1 = 0x20200\n 32508: jump @799\n      : @1241 (gas: 5)\n 32511: a0 = s1 + 0x3000\n 32515: i32 a0 = a0 + 0xfffffffffffffba0\n 32519: a1 = 0x4\n 32522: ecalli 2 // 'call_data_load'\n 32524: fallthrough\n      : @1242 (gas: 12)\n 32525: a1 = s1 + 0x29f8\n 32529: a4 = a1 + 0x100\n 32533: a0 = u64 [a4 + 0xc0]\n 32537: a2 = u64 [a4 + 0xb8]\n 32541: a3 = u64 [a4 + 0xa8]\n 32545: a1 = u64 [a4 + 0xb0]\n 32549: a4 = a0 << 0x20\n 32552: a4 = a4 >> 0x20\n 32555: a2 = a2 | a3\n 32558: a4 = a4 | a1\n 32561: a4 = a4 | a2\n 32564: jump @1268 if a4 == 0\n      : @1243 (gas: 2)\n 32568: a1 = 0x20200\n 32573: jump @799\n      : @1244 (gas: 6)\n 32576: a1 = 0x20200\n 32581: i32 a1 = a1 + 0\n 32583: a0 = 0x1\n 32586: ecalli 13 // 'seal_return'\n 32588: a1 = 0x20200\n 32593: jump @799\n      : @1245 (gas: 2)\n 32596: a1 = 0x20200\n 32601: jump @799\n      : @1246 (gas: 13)\n 32604: a0 = s1 + 0x19f8\n 32608: a4 = s1 + 0x100\n 32612: a1 = u64 [a4 + 0x88]\n 32616: u64 [a0 + 0x68] = a1\n 32619: a1 = u64 [a4 + 0x90]\n 32623: u64 [a0 + 0x70] = a1\n 32626: a1 = u64 [a4 + 0x98]\n 32630: u64 [a0 + 0x78] = a1\n 32633: a1 = s1 + 0x1a60\n 32637: a2 = u64 [a4 + 0xa0]\n 32641: u64 [a0 + 0x80] = a2\n 32645: a0 = a3\n 32647: ra = 1154, jump @9\n      : @1247 [@dyn 577] (gas: 4)\n 32653: a1 = 0x20\n 32656: a0 = u64 [s1 + 0x260]\n 32660: ra = 0x22c\n 32664: jump @18\n      : @1248 (gas: 4)\n 32667: a0 = s1 + 0x7ff\n 32671: a0 = a0 + 0x361\n 32675: a1 = u64 [s1 + 0x1b8]\n 32679: ra = 1156, jump @7\n      : @1249 [@dyn 578] (gas: 17)\n 32685: a3 = s1 + 0x7ff\n 32689: a3 = a3 + 0x1f9\n 32693: a5 = a3 + 0x100\n 32697: a0 = u64 [a5 + 0x68]\n 32700: a1 = u64 [a5 + 0x70]\n 32703: a4 = 0xffffffffffffffff\n 32706: a2 = a0 & a4\n 32709: a1 = a1 & a4\n 32712: a0 = u64 [s1 + 0x1d8]\n 32716: i32 a0 = a0 + 0x100\n 32720: u64 [a3 + 352] = 0\n 32724: u64 [a3 + 344] = 0\n 32728: u64 [a5 + 0x50] = a1\n 32731: a1 = s1 + 0x7ff\n 32735: a1 = a1 + 0x341\n 32739: u64 [a5 + 0x48] = a2\n 32742: ra = 1158, jump @9\n      : @1250 [@dyn 579] (gas: 31)\n 32748: t1 = u64 [s1 + 0x270]\n 32752: ra = u64 [s1 + 0x1d8]\n 32756: t2 = t1 <u ra\n 32759: a5 = u64 [s1 + 0x1d0]\n 32763: a1 = u64 [s1 + 0x248]\n 32767: a3 = a1 ^ a5\n 32770: a2 = a1 <u a5\n 32773: a2 = t2 if a3 == 0\n 32776: a3 = u64 [s1 + 0x1c0]\n 32780: a4 = u64 [s1 + 0x240]\n 32784: a0 = a4 - a3\n 32787: t0 = a4 <u a3\n 32790: a4 = u64 [s1 + 0x1c8]\n 32794: a3 = u64 [s1 + 0x250]\n 32798: a4 = a3 - a4\n 32801: a4 = a4 - t0\n 32804: a3 = a0 <u a2\n 32807: a4 = a4 - a3\n 32810: a3 = a0 - a2\n 32813: a2 = a1 - a5\n 32816: a2 = a2 - t2\n 32819: a0 = t1 - ra\n 32822: a2 = a2 | a4\n 32825: a4 = a0\n 32827: a0 = a0 | a3\n 32830: a0 = a0 | a2\n 32833: a1 = a2 | a3\n 32836: a0 = a0 >> 0x20\n 32839: a1 = a1 << 0x20\n 32842: a0 = a0 | a1\n 32845: jump @1252 if a0 == 0\n      : @1251 (gas: 1)\n 32848: jump @797\n      : @1252 (gas: 4)\n 32851: a0 = u64 [s1 + 0x1d8]\n 32855: a1 = a4\n 32857: u64 [s1 + 0x278] = a4\n 32861: ra = 1160, jump @18\n      : @1253 [@dyn 580] (gas: 5)\n 32867: i32 a1 = a0 + 0\n 32869: a2 = i32 [s1 + 0x278]\n 32873: a0 = 0\n 32875: ecalli 13 // 'seal_return'\n 32877: jump @603\n      : @1254 (gas: 3)\n 32880: a0 = u64 [s1 + 0x278]\n 32884: a0 = i32 [a0]\n 32886: jump @1272 if a0 >u 67\n      : @1255 (gas: 2)\n 32891: a1 = 0x20200\n 32896: jump @799\n      : @1256 (gas: 2)\n 32899: a2 = s1 + 0x29f8\n 32903: jump @1261 if a0 != 911641278\n      : @1257 (gas: 10)\n 32910: u64 [a2 + 1280] = 0\n 32914: u64 [a2 + 1272] = 0\n 32918: u64 [a2 + 1264] = 0\n 32922: u64 [a2 + 1256] = 0\n 32926: a0 = s1 + 0x3000\n 32930: i32 a0 = a0 + 0xfffffffffffffee0\n 32934: ra = 0x48a\n 32938: ecalli 16 // 'value_transferred'\n 32940: t0 = 0x48c\n 32944: jump @1788\n      : @1258 [@dyn 581] (gas: 1)\n 32947: t0 = 1164, jump @1788\n      : @1259 [@dyn 582] (gas: 8)\n 32953: a0 = u64 [a4 + 0xf8]\n 32957: a1 = u64 [a3 + 0x500]\n 32961: a2 = u64 [a4 + 0xf0]\n 32965: a3 = u64 [a4 + 0xe8]\n 32969: a1 = a1 | a2\n 32972: a0 = a0 | a3\n 32975: a0 = a0 | a1\n 32978: jump @1277 if a0 == 0\n      : @1260 (gas: 2)\n 32982: a1 = 0x20200\n 32987: jump @799\n      : @1261 (gas: 2)\n 32990: a1 = 0x20200\n 32995: jump @799\n      : @1262 (gas: 1)\n 32998: t0 = 1166, jump @1808\n      : @1263 [@dyn 583] (gas: 1)\n 33004: jump @1279 if a1 <u a0\n      : @1264 (gas: 2)\n 33008: a1 = 0x20200\n 33013: jump @799\n      : @1265 (gas: 19)\n 33016: a0 = s1 + 0x3000\n 33020: i32 a0 = a0 + 0xfffffffffffffbe0\n 33024: a1 = 0x4\n 33027: ecalli 2 // 'call_data_load'\n 33029: a1 = s1 + 0x29f8\n 33033: a0 = u64 [a1 + 0x200]\n 33037: u64 [s1 + 0x240] = a0\n 33041: a2 = a1 + 0x100\n 33045: a0 = u64 [a2 + 0xf8]\n 33049: u64 [s1 + 0x248] = a0\n 33053: a0 = u64 [a2 + 0xf0]\n 33057: u64 [s1 + 0x250] = a0\n 33061: a0 = u64 [a2 + 0xe8]\n 33065: u64 [s1 + 0x258] = a0\n 33069: a0 = s1 + 0x3000\n 33073: i32 a0 = a0 + 0xfffffffffffffc00\n 33077: a1 = 0x24\n 33080: ecalli 2 // 'call_data_load'\n 33082: fallthrough\n      : @1266 (gas: 13)\n 33083: a1 = s1 + 0x29f8\n 33087: a3 = a1 + 0x200\n 33091: a2 = u64 [a3 + 0x20]\n 33094: a0 = u64 [a3 + 0x18]\n 33097: a1 = u64 [a3 + 0x10]\n 33100: a3 = s1 + 0x200\n 33104: u64 [a3 + 0x70] = a0\n 33107: u64 [a3 + 0x68] = a2\n 33110: a0 = a0 | a2\n 33113: u64 [a3 + 0x78] = a1\n 33116: a1 = a1 <u 0x1\n 33119: a1 = 0 if a0 != 0\n 33121: jump @1283 if a1 != 0\n      : @1267 (gas: 2)\n 33125: a1 = 0x20200\n 33130: jump @799\n      : @1268 (gas: 18)\n 33133: a3 = 0x7965db0b00000000\n 33143: a3 = a3 ^ a0\n 33146: a3 = a3 | a1\n 33149: a3 = a3 | a2\n 33152: a3 = a3 <u 0x1\n 33155: a4 = 0x1ffc9a700000000\n 33165: a0 = a0 ^ a4\n 33168: a0 = a0 | a1\n 33171: a0 = a0 | a2\n 33174: a0 = a0 <u 0x1\n 33177: a0 = a0 | a3\n 33180: u64 [s1 + 664] = 0\n 33184: u64 [s1 + 656] = 0\n 33188: u64 [s1 + 0x280] = a0\n 33192: a0 = 0x80\n 33196: a1 = s1 + 0x280\n 33200: u64 [s1 + 648] = 0\n 33204: ra = 1168, jump @9\n      : @1269 [@dyn 584] (gas: 2)\n 33211: a1 = i32 [0x201f0]\n 33216: jump @1271 if a1 >u 159\n      : @1270 (gas: 4)\n 33221: u32 [0x201f0] = 0xa0\n 33228: a0 = 0x20200\n 33233: i32 a1 = a0 + 0x80\n 33237: jump @602\n      : @1271 (gas: 3)\n 33240: a0 = 0x20200\n 33245: i32 a1 = a0 + 0x80\n 33249: jump @602\n      : @1272 (gas: 18)\n 33252: a0 = s1 + 0x3000\n 33256: i32 a0 = a0 + 0xfffffffffffffea0\n 33260: a1 = 0x4\n 33263: ecalli 2 // 'call_data_load'\n 33265: a0 = s1 + 0x29f8\n 33269: a2 = a0 + 0x400\n 33273: a1 = u64 [a2 + 0xa8]\n 33277: u64 [s1 + 0x278] = a1\n 33281: a1 = u64 [a2 + 0xb0]\n 33285: u64 [s1 + 0x270] = a1\n 33289: a1 = u64 [a2 + 0xb8]\n 33293: u64 [s1 + 0x268] = a1\n 33297: a0 = u64 [a2 + 0xc0]\n 33301: u64 [s1 + 0x260] = a0\n 33305: a0 = s1 + 0x1780\n 33309: ra = 0x492\n 33313: t0 = 0x50c\n 33317: jump @1793\n      : @1273 [@dyn 585] (gas: 22)\n 33320: a1 = s1 + 0x11f8\n 33324: a2 = a1 + 0x500\n 33328: a0 = u64 [a2 + 0x88]\n 33332: u64 [s1 + 0x258] = a0\n 33336: a0 = u64 [a2 + 0x90]\n 33340: u64 [s1 + 0x250] = a0\n 33344: a0 = u64 [a2 + 0x98]\n 33348: u64 [s1 + 0x248] = a0\n 33352: a0 = u64 [a2 + 0xa0]\n 33356: u64 [s1 + 0x240] = a0\n 33360: a0 = u64 [s1 + 0x260]\n 33364: u64 [a2 + 0x60] = a0\n 33367: a0 = u64 [s1 + 0x268]\n 33371: u64 [a2 + 0x58] = a0\n 33374: a0 = u64 [s1 + 0x270]\n 33378: u64 [a2 + 0x50] = a0\n 33381: a3 = a1\n 33383: a0 = s1 + 0x1760\n 33387: a1 = s1 + 0x1740\n 33391: a2 = u64 [s1 + 0x278]\n 33395: u64 [a3 + 0x548] = a2\n 33399: ra = 1172, jump @1461\n      : @1274 [@dyn 586] (gas: 14)\n 33405: a4 = s1 + 0x11f8\n 33409: a5 = a4 + 0x500\n 33413: a1 = u64 [a5 + 0x68]\n 33416: a0 = u64 [a5 + 0x70]\n 33419: a2 = u64 [a5 + 0x78]\n 33422: a3 = u64 [a5 + 0x80]\n 33426: u64 [a5 + 0x40] = a3\n 33429: u64 [a5 + 0x38] = a2\n 33432: u64 [a5 + 0x30] = a0\n 33435: a0 = s1 + 0x1720\n 33439: u64 [a5 + 0x28] = a1\n 33442: ra = 0x496\n 33446: t0 = 0x5f8\n 33450: jump @1810\n      : @1275 [@dyn 587] (gas: 26)\n 33453: a0 = s1 + 0x11f8\n 33457: a5 = s1 + 0x200\n 33461: a1 = u64 [a5 + 0x40]\n 33464: a2 = a0 + 0x400\n 33468: u64 [a2 + 0xe0] = a1\n 33472: a1 = u64 [a5 + 0x48]\n 33475: u64 [a2 + 0xd8] = a1\n 33479: a1 = u64 [a5 + 0x50]\n 33482: u64 [a2 + 0xd0] = a1\n 33486: a1 = u64 [a5 + 0x58]\n 33489: u64 [a2 + 0xc8] = a1\n 33493: a1 = u64 [a5 + 0x60]\n 33496: u64 [a0 + 0x500] = a1\n 33500: a1 = u64 [a5 + 0x68]\n 33503: u64 [a2 + 0xf8] = a1\n 33507: a1 = u64 [a5 + 0x70]\n 33510: u64 [a2 + 0xf0] = a1\n 33514: a4 = a0\n 33516: a0 = s1 + 0x1700\n 33520: a1 = s1 + 0x16e0\n 33524: a2 = s1 + 0x16c0\n 33528: a3 = u64 [a5 + 0x78]\n 33531: u64 [a4 + 0x4e8] = a3\n 33535: ra = 0x498\n 33539: t0 = 0x666\n 33543: jump @1816\n      : @1276 [@dyn 588] (gas: 6)\n 33546: a1 = 0x20200\n 33551: i32 a1 = a1 + 0\n 33553: a0 = 0\n 33555: a2 = 0\n 33557: ecalli 13 // 'seal_return'\n 33559: jump @800\n      : @1277 (gas: 4)\n 33562: a0 = u64 [s1 + 0x278]\n 33566: a0 = i32 [a0]\n 33568: a1 = 0x43\n 33571: jump @1316 if a1 <u a0\n      : @1278 (gas: 2)\n 33575: a1 = 0x20200\n 33580: jump @799\n      : @1279 (gas: 4)\n 33583: a0 = s1 + 0x17e0\n 33587: ra = 0x49a\n 33591: t0 = 0x516\n 33595: jump @1793\n      : @1280 [@dyn 589] (gas: 13)\n 33598: a0 = s1 + 0x11f8\n 33602: a2 = a0 + 0x500\n 33606: a1 = u64 [a2 + 0xe8]\n 33610: u64 [s1 + 0x278] = a1\n 33614: a1 = u64 [a2 + 0xf0]\n 33618: u64 [s1 + 0x270] = a1\n 33622: a1 = u64 [a2 + 0xf8]\n 33626: u64 [s1 + 0x268] = a1\n 33630: a1 = u64 [a0 + 0x600]\n 33634: u64 [s1 + 0x260] = a1\n 33638: ra = 0x49c\n 33642: t0 = 0x5ca\n 33646: jump @1810\n      : @1281 [@dyn 590] (gas: 17)\n 33649: a0 = s1 + 0x11f8\n 33653: a4 = s1 + 0x200\n 33657: a1 = u64 [a4 + 0x60]\n 33660: a2 = a0 + 0x500\n 33664: u64 [a2 + 0xc0] = a1\n 33668: a1 = u64 [a4 + 0x68]\n 33671: u64 [a2 + 0xb8] = a1\n 33675: a1 = u64 [a4 + 0x70]\n 33678: u64 [a2 + 0xb0] = a1\n 33682: a3 = a0\n 33684: a0 = s1 + 0x17c0\n 33688: a1 = s1 + 0x17a0\n 33692: a2 = u64 [a4 + 0x78]\n 33695: u64 [a3 + 0x5a8] = a2\n 33699: ra = 0x49e\n 33703: t0 = 0x624\n 33707: jump @1815\n      : @1282 [@dyn 591] (gas: 6)\n 33710: a1 = 0x20200\n 33715: i32 a1 = a1 + 0\n 33717: a0 = 0\n 33719: a2 = 0\n 33721: ecalli 13 // 'seal_return'\n 33723: jump @800\n      : @1283 (gas: 14)\n 33726: a0 = s1 + 0x29f8\n 33730: a0 = u64 [a0 + 0x208]\n 33734: u64 [s1 + 0x260] = a0\n 33738: a0 = u64 [s1 + 0x258]\n 33742: u64 [s1 + 0x540] = a0\n 33746: a0 = u64 [s1 + 0x250]\n 33750: u64 [s1 + 0x548] = a0\n 33754: a0 = u64 [s1 + 0x248]\n 33758: u64 [s1 + 0x550] = a0\n 33762: a0 = s1 + 0x560\n 33766: a1 = s1 + 0x540\n 33770: a2 = u64 [s1 + 0x240]\n 33774: u64 [s1 + 0x558] = a2\n 33778: ra = 1184, jump @1373\n      : @1284 [@dyn 592] (gas: 5)\n 33784: a0 = u64 [s1 + 0x560]\n 33788: a1 = u64 [s1 + 0x578]\n 33792: a2 = u64 [s1 + 0x568]\n 33796: a3 = u64 [s1 + 0x570]\n 33800: t0 = 1186, jump @1809\n      : @1285 [@dyn 593] (gas: 10)\n 33806: i32 a3 = a3 + 0xfffffffffffff9f8\n 33810: a3 = a3 + s1\n 33813: a5 = a3 + 0x200\n 33817: u64 [a5 + 0x28] = a0\n 33820: u64 [a5 + 0x30] = a2\n 33823: u64 [a5 + 0x38] = a4\n 33826: u64 [a5 + 0x40] = a1\n 33829: a0 = s1 + 0x520\n 33833: a1 = s1 + 0x2c20\n 33837: ra = 1188, jump @11\n      : @1286 [@dyn 594] (gas: 14)\n 33844: a0 = u64 [s1 + 0x528]\n 33848: u64 [s1 + 0x238] = a0\n 33852: a0 = u64 [s1 + 0x520]\n 33856: u64 [s1 + 0x230] = a0\n 33860: a0 = u32 [s1 + 0x530]\n 33864: u64 [s1 + 0x228] = a0\n 33868: a0 = 0x30200\n 33873: u64 [s1 + 0x220] = a0\n 33877: i32 a0 = a0 + 0\n 33879: ra = 0x4a6\n 33883: ecalli 4 // 'caller'\n 33885: a2 = u64 [s1 + 0x220]\n 33889: t0 = 0x4a8\n 33893: jump @1768\n      : @1287 [@dyn 595] (gas: 2)\n 33896: a2 = u64 [s1 + 0x220]\n 33900: t0 = 1192, jump @1768\n      : @1288 [@dyn 596] (gas: 17)\n 33906: a2 = u64 [s1 + 0x228]\n 33910: a1 = a1 ^ a2\n 33913: a2 = u64 [s1 + 0x230]\n 33917: a0 = a0 ^ a2\n 33920: a0 = a0 | a1\n 33923: a1 = u64 [s1 + 0x238]\n 33927: a1 = a1 ^ a3\n 33930: a0 = a0 | a1\n 33933: a0 = a0 <u 0x1\n 33936: u64 [s1 + 1304] = 0\n 33940: u64 [s1 + 1296] = 0\n 33944: u64 [s1 + 0x500] = a0\n 33948: a0 = s1 + 0x500\n 33952: u64 [s1 + 1288] = 0\n 33956: ra = 0x4aa\n 33960: t0 = 0x52a\n 33964: jump @1806\n      : @1289 [@dyn 597] (gas: 11)\n 33967: a0 = u64 [s1 + 0x240]\n 33971: u64 [s1 + 0x4b8] = a0\n 33975: a0 = u64 [s1 + 0x248]\n 33979: u64 [s1 + 0x4b0] = a0\n 33983: a0 = u64 [s1 + 0x250]\n 33987: u64 [s1 + 0x4a8] = a0\n 33991: a0 = s1 + 0x4c0\n 33995: a1 = s1 + 0x4a0\n 33999: a2 = u64 [s1 + 0x258]\n 34003: u64 [s1 + 0x4a0] = a2\n 34007: ra = 1196, jump @1373\n      : @1290 [@dyn 598] (gas: 25)\n 34013: a0 = u64 [s1 + 0x4c0]\n 34017: u64 [s1 + 0x248] = a0\n 34021: a4 = u64 [s1 + 0x4d8]\n 34025: u64 [s1 + 0x258] = a4\n 34029: a2 = u64 [s1 + 0x4c8]\n 34033: u64 [s1 + 0x240] = a2\n 34037: a3 = u64 [s1 + 0x4d0]\n 34041: u64 [s1 + 0x250] = a3\n 34045: a0 = a0 + 0x1\n 34048: a1 = a0 <u 0x1\n 34051: a1 = a1 + a2\n 34054: a2 = a0 | a1\n 34057: a2 = a2 <u 0x1\n 34060: a2 = a2 + a3\n 34063: a3 = a2 <u a3\n 34066: a3 = a3 + a4\n 34069: a4 = s1 + 0x29f8\n 34073: a5 = a4 + 0x200\n 34077: u64 [a5 + 0x48] = a0\n 34080: u64 [a5 + 0x50] = a1\n 34083: u64 [a5 + 0x58] = a2\n 34086: u64 [a5 + 0x60] = a3\n 34089: a0 = s1 + 0x480\n 34093: a1 = s1 + 0x2c40\n 34097: ra = 1198, jump @11\n      : @1291 [@dyn 599] (gas: 10)\n 34104: a0 = u8 [s1 + 0x494]\n 34108: a0 = a0 <u 0x1\n 34111: u64 [s1 + 1144] = 0\n 34115: u64 [s1 + 1136] = 0\n 34119: u64 [s1 + 0x460] = a0\n 34123: a0 = s1 + 0x460\n 34127: u64 [s1 + 1128] = 0\n 34131: ra = 0x4b0\n 34135: t0 = 0x544\n 34139: jump @1806\n      : @1292 [@dyn 600] (gas: 38)\n 34142: a0 = u64 [s1 + 0x248]\n 34146: a3 = a0 + 0x3\n 34149: a0 = a3 <u a0\n 34152: a1 = u64 [s1 + 0x240]\n 34156: a2 = a1 + a0\n 34159: a1 = a2 <u a1\n 34162: a1 = a0 if a0 == 0\n 34165: a0 = u64 [s1 + 0x250]\n 34169: a1 = a1 + a0\n 34172: a0 = a1 <u a0\n 34175: a4 = u64 [s1 + 0x258]\n 34179: a4 = a4 + a0\n 34182: a0 = sp + 0xffffffffffffffe0\n 34185: a0 = a0 & 0xffffffffffffffe0\n 34188: u64 [s1 + 0x208] = a0\n 34192: sp = a0\n 34194: a0 = u64 [s1 + 0x268]\n 34198: u64 [s1 + 0x3f8] = a0\n 34202: a0 = u64 [s1 + 0x270]\n 34206: u64 [s1 + 0x3f0] = a0\n 34210: a0 = u64 [s1 + 0x278]\n 34214: u64 [s1 + 0x3e8] = a0\n 34218: a0 = u64 [s1 + 0x260]\n 34222: u64 [s1 + 0x3e0] = a0\n 34226: u64 [s1 + 0x210] = a4\n 34230: u64 [s1 + 0x418] = a4\n 34234: u64 [s1 + 0x218] = a1\n 34238: u64 [s1 + 0x410] = a1\n 34242: u64 [s1 + 0x220] = a2\n 34246: u64 [s1 + 0x408] = a2\n 34250: a0 = s1 + 0x420\n 34254: a1 = s1 + 0x400\n 34258: a2 = s1 + 0x3e0\n 34262: u64 [s1 + 0x228] = a3\n 34266: u64 [s1 + 0x400] = a3\n 34270: ra = 0x4b2\n 34274: t0 = 0x55e\n 34278: jump @1825\n      : @1293 [@dyn 601] (gas: 21)\n 34281: a4 = s1 + 0x400\n 34285: a0 = u64 [a4 + 0x58]\n 34288: u64 [s1 + 0x238] = a0\n 34292: a0 = u64 [a4 + 0x50]\n 34295: u64 [s1 + 0x1e8] = a0\n 34299: a0 = u64 [a4 + 0x48]\n 34302: u64 [s1 + 0x1e0] = a0\n 34306: a0 = u64 [a4 + 0x40]\n 34309: u64 [s1 + 0x230] = a0\n 34313: a0 = u64 [a4 + 0x30]\n 34316: a1 = u64 [a4 + 0x38]\n 34319: a2 = u64 [a4 + 0x20]\n 34322: a3 = u64 [a4 + 0x28]\n 34325: a4 = u64 [s1 + 0x208]\n 34329: u64 [a4 + 0x10] = a0\n 34332: u64 [a4 + 0x18] = a1\n 34335: u64 [a4] = a2\n 34337: u64 [a4 + 0x8] = a3\n 34340: a1 = a4\n 34342: a0 = s1 + 0x3c0\n 34346: ra = 1204, jump @11\n      : @1294 [@dyn 602] (gas: 38)\n 34353: a1 = s1 + 0x300\n 34357: a0 = u64 [a1 + 0xd0]\n 34361: u64 [s1 + 0x208] = a0\n 34365: a0 = u64 [a1 + 0xd8]\n 34369: u64 [s1 + 0x200] = a0\n 34373: a0 = u64 [a1 + 0xc0]\n 34377: u64 [s1 + 0x1f8] = a0\n 34381: a0 = u64 [a1 + 0xc8]\n 34385: u64 [s1 + 0x1f0] = a0\n 34389: a4 = u64 [s1 + 0x230]\n 34393: a0 = a4 >> 0x3d\n 34396: a2 = u64 [s1 + 0x1e0]\n 34400: a1 = a2 << 0x3\n 34403: a0 = a0 | a1\n 34406: a1 = a2 >> 0x3d\n 34409: a3 = u64 [s1 + 0x1e8]\n 34413: a2 = a3 << 0x3\n 34416: a1 = a1 | a2\n 34419: a2 = a3 >> 0x3d\n 34422: a3 = u64 [s1 + 0x238]\n 34426: a3 = a3 << 0x3\n 34429: a2 = a2 | a3\n 34432: a5 = a4 << 0x3\n 34435: u64 [s1 + 0x238] = a5\n 34439: a3 = a0 >u 0\n 34441: a4 = a5 <u 0x100\n 34445: a4 = a4 ^ 0x1\n 34448: a4 = a3 if a0 != 0\n 34451: a0 = a2 >u 0\n 34453: a3 = a1 >u 0\n 34455: a3 = a0 if a2 != 0\n 34458: a1 = a1 | a2\n 34461: a4 = a3 if a1 != 0\n 34464: u64 [s1 + 0x1d0] = a4\n 34468: i32 a2 = a5 + 0xffffffffffffff80\n 34471: a0 = 0xff\n 34475: a1 = 0\n 34477: ra = 1206, jump @1833\n      : @1295 [@dyn 603] (gas: 7)\n 34483: u64 [s1 + 0x1c8] = a0\n 34487: u64 [s1 + 0x1e0] = a1\n 34491: a1 = u64 [s1 + 0x238]\n 34495: i32 a2 = 0x80 - a1\n 34499: a0 = 0xff\n 34503: a1 = 0\n 34505: ra = 1208, jump @1828\n      : @1296 [@dyn 604] (gas: 7)\n 34511: u64 [s1 + 0x1e8] = a0\n 34515: u64 [s1 + 0x1d8] = a1\n 34519: a0 = u64 [s1 + 0x230]\n 34523: i32 a2 = a0 << 0x3\n 34526: a0 = 0xff\n 34530: a1 = 0\n 34532: ra = 1210, jump @1833\n      : @1297 [@dyn 605] (gas: 2)\n 34538: a2 = u64 [s1 + 0x1d0]\n 34542: jump @1299 if a2 != 0\n      : @1298 (gas: 24)\n 34545: t0 = u64 [s1 + 0x238]\n 34549: a2 = t0 <u 0x80\n 34553: a4 = u64 [s1 + 0x1e8]\n 34557: a3 = u64 [s1 + 0x1c8]\n 34561: a4 = a3 if a2 == 0\n 34564: a5 = u64 [s1 + 0x1e0]\n 34568: a3 = u64 [s1 + 0x1d8]\n 34572: a3 = a5 if a2 == 0\n 34575: a4 = 0 if t0 == 0\n 34577: a3 = 0 if t0 == 0\n 34579: a0 = 0 if a2 == 0\n 34581: a1 = 0 if a2 == 0\n 34583: a2 = u64 [s1 + 0x1f0]\n 34587: a1 = a1 & a2\n 34590: a2 = u64 [s1 + 0x1f8]\n 34594: a0 = a0 & a2\n 34597: a2 = u64 [s1 + 0x200]\n 34601: a2 = a2 & a3\n 34604: a3 = u64 [s1 + 0x208]\n 34608: a3 = a3 & a4\n 34611: a0 = a0 | a3\n 34614: a1 = a1 | a2\n 34617: a0 = a0 | a1\n 34620: jump @1324 if a0 != 0\n      : @1299 (gas: 26)\n 34624: a0 = sp + 0xffffffffffffffe0\n 34627: a0 = a0 & 0xffffffffffffffe0\n 34630: u64 [s1 + 0x238] = a0\n 34634: sp = a0\n 34636: a0 = u64 [s1 + 0x268]\n 34640: u64 [s1 + 0x358] = a0\n 34644: a0 = u64 [s1 + 0x270]\n 34648: u64 [s1 + 0x350] = a0\n 34652: a0 = u64 [s1 + 0x278]\n 34656: u64 [s1 + 0x348] = a0\n 34660: a0 = u64 [s1 + 0x260]\n 34664: u64 [s1 + 0x340] = a0\n 34668: a0 = u64 [s1 + 0x210]\n 34672: u64 [s1 + 0x378] = a0\n 34676: a0 = u64 [s1 + 0x218]\n 34680: u64 [s1 + 0x370] = a0\n 34684: a0 = u64 [s1 + 0x220]\n 34688: u64 [s1 + 0x368] = a0\n 34692: a0 = s1 + 0x380\n 34696: a1 = s1 + 0x360\n 34700: a2 = s1 + 0x340\n 34704: a3 = u64 [s1 + 0x228]\n 34708: u64 [s1 + 0x360] = a3\n 34712: ra = 0x4bc\n 34716: t0 = 0x55e\n 34720: jump @1825\n      : @1300 [@dyn 606] (gas: 19)\n 34723: a0 = u64 [s1 + 0x3b8]\n 34727: u64 [s1 + 0x278] = a0\n 34731: a0 = u64 [s1 + 0x3b0]\n 34735: u64 [s1 + 0x270] = a0\n 34739: a0 = u64 [s1 + 0x3a8]\n 34743: u64 [s1 + 0x268] = a0\n 34747: a0 = u64 [s1 + 0x3a0]\n 34751: u64 [s1 + 0x260] = a0\n 34755: a0 = u64 [s1 + 0x390]\n 34759: a4 = u64 [s1 + 0x398]\n 34763: a2 = u64 [s1 + 0x380]\n 34767: a3 = u64 [s1 + 0x388]\n 34771: a1 = u64 [s1 + 0x238]\n 34775: u64 [a1 + 0x10] = a0\n 34778: u64 [a1 + 0x18] = a4\n 34781: u64 [a1] = a2\n 34783: u64 [a1 + 0x8] = a3\n 34786: a0 = s1 + 0x320\n 34790: ra = 1214, jump @11\n      : @1301 [@dyn 607] (gas: 43)\n 34797: a0 = u64 [s1 + 0x320]\n 34801: u64 [s1 + 0x220] = a0\n 34805: a0 = u64 [s1 + 0x328]\n 34809: u64 [s1 + 0x218] = a0\n 34813: a0 = u64 [s1 + 0x330]\n 34817: u64 [s1 + 0x210] = a0\n 34821: a0 = u64 [s1 + 0x338]\n 34825: u64 [s1 + 0x200] = a0\n 34829: a0 = sp + 0xffffffffffffffe0\n 34832: a0 = a0 & 0xffffffffffffffe0\n 34835: u64 [s1 + 0x208] = a0\n 34839: sp = a0\n 34841: a4 = u64 [s1 + 0x260]\n 34845: a0 = a4 >> 0x3d\n 34848: a2 = u64 [s1 + 0x268]\n 34852: a1 = a2 << 0x3\n 34855: a0 = a0 | a1\n 34858: a1 = a2 >> 0x3d\n 34861: a3 = u64 [s1 + 0x270]\n 34865: a2 = a3 << 0x3\n 34868: a1 = a1 | a2\n 34871: a2 = a3 >> 0x3d\n 34874: a3 = u64 [s1 + 0x278]\n 34878: a3 = a3 << 0x3\n 34881: a2 = a2 | a3\n 34884: a3 = a4 << 0x3\n 34887: u64 [s1 + 0x278] = a3\n 34891: t0 = a4\n 34893: a5 = a2 >u 0\n 34895: a4 = a1 >u 0\n 34897: a4 = a5 if a2 != 0\n 34900: t1 = a0 >u 0\n 34902: a5 = a3 <u 0x100\n 34906: a5 = a5 ^ 0x1\n 34909: a5 = t1 if a0 != 0\n 34912: a1 = a1 | a2\n 34915: a5 = a4 if a1 != 0\n 34918: u64 [s1 + 0x228] = a5\n 34922: i32 a2 = t0 << 0x3\n 34925: u64 [s1 + 0x230] = a2\n 34929: a0 = 0x1\n 34932: a1 = 0\n 34934: ra = 1216, jump @1833\n      : @1302 [@dyn 608] (gas: 12)\n 34940: a3 = u64 [s1 + 0x278]\n 34944: a2 = a3 <u 0x80\n 34948: u64 [s1 + 0x260] = a2\n 34952: a0 = 0 if a2 == 0\n 34954: u64 [s1 + 0x270] = a0\n 34958: a1 = 0 if a2 == 0\n 34960: u64 [s1 + 0x268] = a1\n 34964: i32 a2 = a3 + 0xffffffffffffff80\n 34967: u64 [s1 + 0x1e8] = a2\n 34971: a0 = 0x1\n 34974: a1 = 0\n 34976: ra = 1218, jump @1833\n      : @1303 [@dyn 609] (gas: 8)\n 34982: u64 [s1 + 0x1f0] = a0\n 34986: u64 [s1 + 0x1f8] = a1\n 34990: a1 = u64 [s1 + 0x278]\n 34994: i32 a2 = 0x80 - a1\n 34998: u64 [s1 + 0x1e0] = a2\n 35002: a0 = 0x1\n 35005: a1 = 0\n 35007: ra = 1220, jump @1828\n      : @1304 [@dyn 610] (gas: 24)\n 35013: a2 = a0\n 35015: a3 = u64 [s1 + 0x260]\n 35019: a0 = u64 [s1 + 0x1f0]\n 35023: a2 = a0 if a3 == 0\n 35026: a0 = u64 [s1 + 0x278]\n 35030: a2 = 0 if a0 == 0\n 35032: a4 = u64 [s1 + 0x1f8]\n 35036: a1 = a4 if a3 == 0\n 35039: a1 = 0 if a0 == 0\n 35041: a0 = u64 [s1 + 0x228]\n 35045: a1 = 0 if a0 != 0\n 35047: u64 [s1 + 0x1f8] = a1\n 35051: a2 = 0 if a0 != 0\n 35053: u64 [s1 + 0x1f0] = a2\n 35057: a1 = u64 [s1 + 0x268]\n 35061: a1 = 0 if a0 != 0\n 35063: u64 [s1 + 0x268] = a1\n 35067: a1 = u64 [s1 + 0x270]\n 35071: a1 = 0 if a0 != 0\n 35073: u64 [s1 + 0x270] = a1\n 35077: a0 = 0xff\n 35081: a1 = 0\n 35083: a2 = u64 [s1 + 0x1e8]\n 35087: ra = 1222, jump @1833\n      : @1305 [@dyn 611] (gas: 6)\n 35093: u64 [s1 + 0x1d8] = a0\n 35097: u64 [s1 + 0x1e8] = a1\n 35101: a0 = 0xff\n 35105: a1 = 0\n 35107: a2 = u64 [s1 + 0x1e0]\n 35111: ra = 1224, jump @1828\n      : @1306 [@dyn 612] (gas: 6)\n 35117: u64 [s1 + 0x1e0] = a0\n 35121: u64 [s1 + 0x1d0] = a1\n 35125: a0 = 0\n 35127: a1 = 0\n 35129: a2 = u64 [s1 + 0x230]\n 35133: ra = 1226, jump @1833\n      : @1307 [@dyn 613] (gas: 18)\n 35139: a3 = u64 [s1 + 0x1e0]\n 35143: a3 = a3 | a0\n 35146: a0 = u64 [s1 + 0x260]\n 35150: a2 = u64 [s1 + 0x1d8]\n 35154: a3 = a2 if a0 == 0\n 35157: a2 = u64 [s1 + 0x278]\n 35161: a3 = 0 if a2 == 0\n 35163: u64 [s1 + 0x1e0] = a3\n 35167: a3 = u64 [s1 + 0x1d0]\n 35171: a3 = a3 | a1\n 35174: a1 = u64 [s1 + 0x1e8]\n 35178: a3 = a1 if a0 == 0\n 35181: a3 = 0 if a2 == 0\n 35183: u64 [s1 + 0x278] = a3\n 35187: a0 = 0xff\n 35191: a1 = 0\n 35193: a2 = u64 [s1 + 0x230]\n 35197: ra = 1228, jump @1833\n      : @1308 [@dyn 614] (gas: 38)\n 35203: a2 = u64 [s1 + 0x260]\n 35207: a0 = 0 if a2 == 0\n 35209: a1 = 0 if a2 == 0\n 35211: a2 = u64 [s1 + 0x278]\n 35215: a2 = a2 ^ 0xffffffffffffffff\n 35218: a3 = u64 [s1 + 0x1e0]\n 35222: a3 = a3 ^ 0xffffffffffffffff\n 35225: a1 = a1 ^ 0xffffffffffffffff\n 35228: a0 = a0 ^ 0xffffffffffffffff\n 35231: a4 = u64 [s1 + 0x228]\n 35235: a3 = 0xffffffffffffffff if a4 != 0\n 35238: a2 = 0xffffffffffffffff if a4 != 0\n 35241: a0 = 0xffffffffffffffff if a4 != 0\n 35244: a1 = 0xffffffffffffffff if a4 != 0\n 35247: a4 = u64 [s1 + 0x200]\n 35251: a2 = a2 & a4\n 35254: a4 = u64 [s1 + 0x210]\n 35258: a3 = a3 & a4\n 35261: a4 = u64 [s1 + 0x218]\n 35265: a1 = a1 & a4\n 35268: a4 = u64 [s1 + 0x220]\n 35272: a0 = a0 & a4\n 35275: a4 = u64 [s1 + 0x270]\n 35279: a0 = a0 | a4\n 35282: a4 = u64 [s1 + 0x268]\n 35286: a1 = a1 | a4\n 35289: a4 = u64 [s1 + 0x1f0]\n 35293: a3 = a3 | a4\n 35296: a4 = u64 [s1 + 0x1f8]\n 35300: a2 = a2 | a4\n 35303: a4 = u64 [s1 + 0x208]\n 35307: u64 [a4 + 0x18] = a2\n 35310: u64 [a4 + 0x10] = a3\n 35313: u64 [a4 + 0x8] = a1\n 35316: u64 [a4] = a0\n 35318: a1 = a4\n 35320: a0 = u64 [s1 + 0x238]\n 35324: ra = 1230, jump @12\n      : @1309 [@dyn 615] (gas: 22)\n 35331: a0 = sp + 0xffffffffffffffe0\n 35334: a1 = a0 & 0xffffffffffffffe0\n 35337: sp = a1\n 35339: a2 = u64 [s1 + 0x248]\n 35343: a0 = a2 + 0x2\n 35346: a4 = a0 <u a2\n 35349: a3 = u64 [s1 + 0x240]\n 35353: a2 = a3 + a4\n 35356: a3 = a2 <u a3\n 35359: a3 = a4 if a4 == 0\n 35362: a4 = u64 [s1 + 0x250]\n 35366: a3 = a3 + a4\n 35369: a5 = a3 <u a4\n 35372: a4 = u64 [s1 + 0x258]\n 35376: a4 = a4 + a5\n 35379: u64 [a1 + 0x18] = a4\n 35382: u64 [a1 + 0x10] = a3\n 35385: u64 [a1 + 0x8] = a2\n 35388: u64 [a1] = a0\n 35390: a0 = s1 + 0x300\n 35394: u64 [s1 + 0x278] = a1\n 35398: ra = 1232, jump @11\n      : @1310 [@dyn 616] (gas: 3)\n 35405: a1 = u64 [s1 + 0x308]\n 35409: u64 [s1 + 0x270] = a1\n 35413: jump @1322 if a1 != 4294967295\n      : @1311 (gas: 8)\n 35418: u64 [s1 + 720] = 0\n 35422: u64 [s1 + 712] = 0\n 35426: u64 [s1 + 704] = 0\n 35430: a0 = 0x4e487b7100000000\n 35440: a1 = s1 + 0x2c0\n 35444: u64 [s1 + 0x2d8] = a0\n 35448: a0 = 0\n 35450: ra = 1234, jump @9\n      : @1312 [@dyn 617] (gas: 7)\n 35457: u64 [s1 + 696] = 0\n 35461: u64 [s1 + 688] = 0\n 35465: u64 [s1 + 672] = 0x11\n 35470: a0 = 0x4\n 35473: a1 = s1 + 0x2a0\n 35477: u64 [s1 + 680] = 0\n 35481: ra = 1236, jump @9\n      : @1313 [@dyn 618] (gas: 2)\n 35488: a1 = i32 [0x201f0]\n 35493: jump @1315 if a1 >u 63\n      : @1314 (gas: 3)\n 35497: u32 [0x201f0] = 0x40\n 35503: a1 = 0x20200\n 35508: jump @1181\n      : @1315 (gas: 2)\n 35511: a1 = 0x20200\n 35516: jump @1181\n      : @1316 (gas: 4)\n 35519: a0 = s1 + 0x1880\n 35523: ra = 0x4d6\n 35527: t0 = 0x50c\n 35531: jump @1793\n      : @1317 [@dyn 619] (gas: 16)\n 35534: a0 = s1 + 0x11f8\n 35538: a2 = a0 + 0x600\n 35542: a1 = u64 [a2 + 0xa0]\n 35546: u64 [s1 + 0x260] = a1\n 35550: a1 = u64 [a2 + 0x98]\n 35554: u64 [s1 + 0x268] = a1\n 35558: a1 = u64 [a2 + 0x90]\n 35562: u64 [s1 + 0x270] = a1\n 35566: a0 = u64 [a2 + 0x88]\n 35570: u64 [s1 + 0x278] = a0\n 35574: a0 = 0x30200\n 35579: u64 [s1 + 0x258] = a0\n 35583: i32 a0 = a0 + 0\n 35585: ra = 0x4d8\n 35589: ecalli 4 // 'caller'\n 35591: fallthrough\n      : @1318 [@dyn 620] (gas: 3)\n 35592: a5 = s1 + 0x200\n 35596: a2 = u64 [a5 + 0x58]\n 35599: t0 = 1242, jump @1768\n      : @1319 [@dyn 621] (gas: 11)\n 35605: a2 = u64 [a5 + 0x68]\n 35608: a2 = a2 << 0x20\n 35611: a2 = a2 >> 0x20\n 35614: a1 = a1 ^ a2\n 35617: a2 = u64 [a5 + 0x78]\n 35620: a0 = a0 ^ a2\n 35623: a0 = a0 | a1\n 35626: a1 = u64 [a5 + 0x70]\n 35629: a1 = a1 ^ a3\n 35632: a0 = a0 | a1\n 35635: jump @1325 if a0 != 0\n      : @1320 (gas: 30)\n 35639: a0 = s1 + 0x3000\n 35643: i32 a0 = a0 + 0xffffffffffffff00\n 35647: a1 = 0x4\n 35650: ecalli 2 // 'call_data_load'\n 35652: a2 = s1 + 0x29f8\n 35656: a4 = a2 + 0x500\n 35660: a3 = u64 [a4 + 0x8]\n 35663: a0 = u64 [a4 + 0x10]\n 35666: a1 = u64 [a4 + 0x18]\n 35669: a2 = u64 [a4 + 0x20]\n 35672: a4 = s1 + 0x11f8\n 35676: a5 = u64 [s1 + 0x260]\n 35680: u64 [a4 + 0x620] = a5\n 35684: a5 = u64 [s1 + 0x268]\n 35688: u64 [a4 + 0x618] = a5\n 35692: a5 = u64 [s1 + 0x270]\n 35696: u64 [a4 + 0x610] = a5\n 35700: a5 = u64 [s1 + 0x278]\n 35704: u64 [a4 + 0x608] = a5\n 35708: a5 = a4 + 0x600\n 35712: u64 [a5 + 0x40] = a2\n 35715: u64 [a5 + 0x38] = a1\n 35718: u64 [a5 + 0x30] = a0\n 35721: a0 = s1 + 0x1840\n 35725: a1 = s1 + 0x1820\n 35729: a2 = s1 + 0x1800\n 35733: u64 [a5 + 0x28] = a3\n 35736: ra = 0x4dc\n 35740: t0 = 0x6ea\n 35744: jump @1816\n      : @1321 [@dyn 622] (gas: 6)\n 35747: a1 = 0x20200\n 35752: i32 a1 = a1 + 0\n 35754: a0 = 0\n 35756: a2 = 0\n 35758: ecalli 13 // 'seal_return'\n 35760: jump @800\n      : @1322 (gas: 3)\n 35763: a0 = s1 + 0x2e0\n 35767: a1 = u64 [s1 + 0x278]\n 35771: ra = 1246, jump @11\n      : @1323 [@dyn 623] (gas: 15)\n 35778: a5 = s1 + 0x200\n 35782: a0 = u64 [a5 + 0xe0]\n 35786: a1 = u64 [a5 + 0xf8]\n 35790: a2 = u64 [a5 + 0xf0]\n 35794: a3 = u64 [a5 + 0x70]\n 35797: a3 = a3 + 0x1\n 35800: a4 = s1 + 0x29f8\n 35804: u64 [a4 + 0x270] = a3\n 35808: a3 = a4 + 0x200\n 35812: u64 [a3 + 0x80] = a1\n 35816: u64 [a3 + 0x78] = a2\n 35819: u64 [a3 + 0x68] = a0\n 35822: a1 = s1 + 0x2c60\n 35826: a0 = u64 [a5 + 0x78]\n 35829: ra = 1248, jump @12\n      : @1324 [@dyn 624] (gas: 6)\n 35836: a1 = 0x20200\n 35841: i32 a1 = a1 + 0\n 35843: a0 = 0\n 35845: a2 = 0\n 35847: ecalli 13 // 'seal_return'\n 35849: jump @800\n      : @1325 (gas: 9)\n 35852: a2 = s1 + 0x11f8\n 35856: u64 [a2 + 1656] = 0\n 35860: u64 [a2 + 1648] = 0\n 35864: a0 = 0x6697b23200000000\n 35874: u64 [a2 + 0x680] = a0\n 35878: a1 = s1 + 0x1860\n 35882: u64 [a2 + 1640] = 0\n 35886: a0 = 0\n 35888: ra = 1250, jump @9\n      : @1326 [@dyn 625] (gas: 2)\n 35895: a1 = i32 [0x201f0]\n 35900: jump @1328 if a1 >u 31\n      : @1327 (gas: 2)\n 35904: u32 [0x201f0] = 0x20\n 35910: fallthrough\n      : @1328 (gas: 7)\n 35911: a1 = 0x20200\n 35916: i32 a1 = a1 + 0\n 35918: a0 = 0x1\n 35921: a2 = 0x4\n 35924: ra = 0x4e4\n 35928: ecalli 13 // 'seal_return'\n 35930: fallthrough\n      : @1329 [@dyn 626] (gas: 22)\n 35931: sp = sp + 0xfffffffffffffda0\n 35935: a2 = sp + 0x200\n 35939: u64 [a2 + 0x58] = ra\n 35942: u64 [a2 + 0x50] = s0\n 35945: u64 [a2 + 0x48] = s1\n 35948: s0 = sp + 0x260\n 35952: sp = sp & 0xffffffffffffffe0\n 35955: s1 = sp\n 35957: a2 = u64 [a1 + 0x10]\n 35960: u64 [s1 + 0x30] = a2\n 35963: a2 = u64 [a1 + 0x8]\n 35966: u64 [s1 + 0x50] = a2\n 35969: a1 = u64 [a1]\n 35971: u64 [s1 + 0x58] = a1\n 35974: u64 [s1 + 0x38] = a0\n 35977: u64 [s1 + 536] = 0\n 35981: u64 [s1 + 528] = 0\n 35985: u64 [s1 + 520] = 0\n 35989: a1 = s1 + 0x200\n 35993: u64 [s1 + 512] = 0\n 35997: a0 = 0\n 35999: ra = 1254, jump @9\n      : @1330 [@dyn 627] (gas: 7)\n 36006: u64 [s1 + 504] = 0\n 36010: u64 [s1 + 496] = 0\n 36014: u64 [s1 + 488] = 0\n 36018: a0 = 0x20\n 36021: a1 = s1 + 0x1e0\n 36025: u64 [s1 + 480] = 0\n 36029: ra = 1256, jump @9\n      : @1331 [@dyn 628] (gas: 3)\n 36036: a1 = 0x201f0\n 36041: a0 = i32 [0x201f0]\n 36046: jump @1333 if a0 >u 63\n      : @1332 (gas: 2)\n 36050: u32 [0x201f0] = 0x40\n 36056: fallthrough\n      : @1333 (gas: 41)\n 36057: a0 = sp + 0xffffffffffffffe0\n 36060: a2 = a0 & 0xffffffffffffffe0\n 36063: u64 [s1 + 0x28] = a2\n 36066: sp = a2\n 36068: a0 = 0x20200\n 36073: i32 a0 = a0 + 0\n 36075: i32 a2 = a2 + 0\n 36077: u64 [s1 + 0x48] = a1\n 36080: a1 = 0x40\n 36083: u64 [s1 + 0x40] = a0\n 36086: ecalli 8 // 'hash_keccak_256'\n 36088: a3 = u64 [s1 + 0x28]\n 36091: a0 = u64 [a3 + 0x18]\n 36094: a1 = u64 [a3 + 0x10]\n 36097: a2 = u64 [a3 + 0x8]\n 36100: a3 = u64 [a3]\n 36102: a0 = reverse a0\n 36104: u64 [s1 + 0x20] = a0\n 36107: a0 = reverse a1\n 36109: u64 [s1 + 0x18] = a0\n 36112: a0 = reverse a2\n 36114: u64 [s1 + 0x10] = a0\n 36117: a0 = reverse a3\n 36119: u64 [s1 + 0x8] = a0\n 36122: a0 = sp + 0xffffffffffffffe0\n 36125: a0 = a0 & 0xffffffffffffffe0\n 36128: u64 [s1 + 0x28] = a0\n 36131: sp = a0\n 36133: a0 = u64 [s1 + 0x30]\n 36136: a0 = a0 << 0x20\n 36139: a0 = a0 >> 0x20\n 36142: u64 [s1 + 472] = 0\n 36146: u64 [s1] = a0\n 36148: u64 [s1 + 0x1d0] = a0\n 36152: a0 = u64 [s1 + 0x50]\n 36155: u64 [s1 + 0x1c8] = a0\n 36159: a1 = s1 + 0x1c0\n 36163: a0 = u64 [s1 + 0x58]\n 36166: u64 [s1 + 0x1c0] = a0\n 36170: a0 = 0\n 36172: ra = 1258, jump @9\n      : @1334 [@dyn 629] (gas: 12)\n 36179: a0 = u64 [s1 + 0x8]\n 36182: a3 = s1 + 0x100\n 36186: u64 [a3 + 0xb8] = a0\n 36190: a0 = u64 [s1 + 0x10]\n 36193: u64 [a3 + 0xb0] = a0\n 36197: a0 = u64 [s1 + 0x18]\n 36200: u64 [a3 + 0xa8] = a0\n 36204: a0 = 0x20\n 36207: a1 = s1 + 0x1a0\n 36211: a2 = u64 [s1 + 0x20]\n 36214: u64 [a3 + 0xa0] = a2\n 36218: ra = 1260, jump @9\n      : @1335 [@dyn 630] (gas: 3)\n 36225: a1 = u64 [s1 + 0x48]\n 36228: a0 = i32 [a1]\n 36230: jump @1337 if a0 >u 63\n      : @1336 (gas: 3)\n 36234: u32 [a1 + 0] = 0x40\n 36237: t0 = 0x4ee\n 36241: jump @1826\n      : @1337 (gas: 1)\n 36244: t0 = 1262, jump @1826\n      : @1338 [@dyn 631] (gas: 17)\n 36250: ecalli 8 // 'hash_keccak_256'\n 36252: a3 = u64 [s1 + 0x30]\n 36255: a0 = u64 [a3 + 0x18]\n 36258: a1 = u64 [a3 + 0x10]\n 36261: a2 = u64 [a3 + 0x8]\n 36264: a3 = u64 [a3]\n 36266: a0 = reverse a0\n 36268: a4 = reverse a1\n 36270: a2 = reverse a2\n 36272: a3 = reverse a3\n 36274: a1 = u64 [s1 + 0x28]\n 36277: u64 [a1 + 0x18] = a3\n 36280: u64 [a1 + 0x10] = a2\n 36283: u64 [a1 + 0x8] = a4\n 36286: u64 [a1] = a0\n 36288: a0 = s1 + 0x180\n 36292: ra = 1264, jump @11\n      : @1339 [@dyn 632] (gas: 2)\n 36299: a0 = u8 [s1 + 0x180]\n 36303: jump @1341 if a0 == 0\n      : @1340 (gas: 2)\n 36306: a1 = 0\n 36308: jump @1359\n      : @1341 (gas: 6)\n 36311: u64 [s1 + 376] = 0\n 36315: u64 [s1 + 368] = 0\n 36319: u64 [s1 + 360] = 0\n 36323: a1 = s1 + 0x160\n 36327: u64 [s1 + 352] = 0\n 36331: ra = 1266, jump @9\n      : @1342 [@dyn 633] (gas: 1)\n 36338: t0 = 1268, jump @1771\n      : @1343 [@dyn 634] (gas: 1)\n 36344: ra = 1270, jump @9\n      : @1344 [@dyn 635] (gas: 3)\n 36351: a1 = u64 [s1 + 0x48]\n 36354: a0 = i32 [a1]\n 36356: jump @1346 if a0 >u 63\n      : @1345 (gas: 3)\n 36360: u32 [a1 + 0] = 0x40\n 36363: t0 = 0x4f8\n 36367: jump @1826\n      : @1346 (gas: 1)\n 36370: t0 = 1272, jump @1826\n      : @1347 [@dyn 636] (gas: 28)\n 36376: ecalli 8 // 'hash_keccak_256'\n 36378: a3 = u64 [s1 + 0x30]\n 36381: a0 = u64 [a3 + 0x18]\n 36384: a1 = u64 [a3 + 0x10]\n 36387: a2 = u64 [a3 + 0x8]\n 36390: a3 = u64 [a3]\n 36392: a0 = reverse a0\n 36394: u64 [s1 + 0x28] = a0\n 36397: a0 = reverse a1\n 36399: u64 [s1 + 0x20] = a0\n 36402: a0 = reverse a2\n 36404: u64 [s1 + 0x18] = a0\n 36407: a0 = reverse a3\n 36409: u64 [s1 + 0x10] = a0\n 36412: a0 = sp + 0xffffffffffffffe0\n 36415: a0 = a0 & 0xffffffffffffffe0\n 36418: u64 [s1 + 0x30] = a0\n 36421: sp = a0\n 36423: u64 [s1 + 312] = 0\n 36427: a0 = u64 [s1]\n 36429: u64 [s1 + 0x130] = a0\n 36433: a0 = u64 [s1 + 0x50]\n 36436: u64 [s1 + 0x128] = a0\n 36440: a1 = s1 + 0x120\n 36444: a0 = u64 [s1 + 0x58]\n 36447: u64 [s1 + 0x120] = a0\n 36451: a0 = 0\n 36453: ra = 1274, jump @9\n      : @1348 [@dyn 637] (gas: 12)\n 36460: a0 = u64 [s1 + 0x10]\n 36463: a3 = s1 + 0x100\n 36467: u64 [a3 + 0x18] = a0\n 36470: a0 = u64 [s1 + 0x18]\n 36473: u64 [a3 + 0x10] = a0\n 36476: a0 = u64 [s1 + 0x20]\n 36479: u64 [a3 + 0x8] = a0\n 36482: a0 = 0x20\n 36485: a1 = s1 + 0x100\n 36489: a2 = u64 [s1 + 0x28]\n 36492: u64 [a3] = a2\n 36494: ra = 1276, jump @9\n      : @1349 [@dyn 638] (gas: 3)\n 36501: a1 = u64 [s1 + 0x48]\n 36504: a0 = i32 [a1]\n 36506: jump @1351 if a0 >u 63\n      : @1350 (gas: 2)\n 36510: u32 [a1 + 0] = 0x40\n 36513: fallthrough\n      : @1351 (gas: 12)\n 36514: a0 = sp + 0xffffffffffffffe0\n 36517: a0 = a0 & 0xffffffffffffffe0\n 36520: u64 [s1 + 0x48] = a0\n 36523: sp = a0\n 36525: i32 a2 = a0 + 0\n 36527: a1 = 0x40\n 36530: a0 = u64 [s1 + 0x40]\n 36533: ra = 0x4fe\n 36537: ecalli 8 // 'hash_keccak_256'\n 36539: a3 = u64 [s1 + 0x48]\n 36542: t0 = 0x500\n 36546: jump @1811\n      : @1352 [@dyn 639] (gas: 2)\n 36549: a3 = u64 [s1 + 0x48]\n 36552: t0 = 1280, jump @1811\n      : @1353 [@dyn 640] (gas: 7)\n 36558: a1 = u64 [s1 + 0x30]\n 36561: u64 [a1 + 0x18] = a3\n 36564: u64 [a1 + 0x10] = a2\n 36567: u64 [a1 + 0x8] = a4\n 36570: u64 [a1] = a0\n 36572: a0 = s1 + 0xe0\n 36576: ra = 1282, jump @11\n      : @1354 [@dyn 641] (gas: 14)\n 36583: a0 = u64 [s1 + 0xe0]\n 36587: a1 = u64 [s1 + 0xe8]\n 36591: a2 = u64 [s1 + 0xf8]\n 36595: a3 = u64 [s1 + 0xf0]\n 36599: a0 = a0 & 0xffffffffffffff00\n 36603: a0 = a0 | 0x1\n 36606: a4 = s1 + 0x200\n 36610: u64 [a4 + 0x38] = a2\n 36613: u64 [a4 + 0x30] = a3\n 36616: u64 [a4 + 0x28] = a1\n 36619: u64 [a4 + 0x20] = a0\n 36622: a1 = s1 + 0x220\n 36626: a0 = u64 [s1 + 0x30]\n 36629: ra = 1284, jump @12\n      : @1355 [@dyn 642] (gas: 8)\n 36636: a0 = 0x30200\n 36641: u64 [s1 + 0x48] = a0\n 36644: i32 a0 = a0 + 0\n 36646: ra = 0x506\n 36650: ecalli 4 // 'caller'\n 36652: a2 = u64 [s1 + 0x48]\n 36655: t0 = 0x508\n 36659: jump @1767\n      : @1356 [@dyn 643] (gas: 2)\n 36662: a2 = u64 [s1 + 0x48]\n 36665: t0 = 1288, jump @1767\n      : @1357 [@dyn 644] (gas: 38)\n 36671: t0 = a1 | a0\n 36674: a3 = a3 >> 0x20\n 36677: a2 = reverse a2\n 36679: a1 = a2 << 0x20\n 36682: a1 = a1 | a3\n 36685: a2 = a2 >> 0x20\n 36688: u64 [s1 + 120] = 0\n 36691: u64 [s1 + 152] = 0\n 36695: a0 = u64 [s1]\n 36697: u64 [s1 + 0x90] = a0\n 36701: a0 = u64 [s1 + 0x50]\n 36704: u64 [s1 + 0x88] = a0\n 36708: a0 = u64 [s1 + 0x58]\n 36711: u64 [s1 + 0x80] = a0\n 36715: u64 [s1 + 184] = 0\n 36719: u64 [s1 + 176] = 0\n 36723: u64 [s1 + 168] = 0\n 36727: u64 [s1 + 160] = 0\n 36731: a3 = u64 [0x200a0]\n 36736: a4 = u64 [0x200a8]\n 36741: a5 = u64 [0x200b0]\n 36746: a0 = u64 [0x200b8]\n 36751: u64 [s1 + 0xd8] = a3\n 36755: u64 [s1 + 0xd0] = a4\n 36759: u64 [s1 + 0xc8] = a5\n 36763: u64 [s1 + 0xc0] = a0\n 36767: u64 [s1 + 0x70] = a2\n 36770: u64 [s1 + 0x68] = a1\n 36773: a2 = s1 + 0xc0\n 36777: a3 = s1 + 0xa0\n 36781: a4 = s1 + 0x80\n 36785: a5 = s1 + 0x60\n 36788: u64 [s1 + 0x60] = t0\n 36791: a0 = 0\n 36793: a1 = 0\n 36795: ra = 0x50a\n 36799: t0 = 0xa\n 36802: jump @1825\n      : @1358 [@dyn 645] (gas: 2)\n 36805: a1 = 0x1\n 36808: fallthrough\n      : @1359 (gas: 12)\n 36809: a2 = u64 [s1 + 0x38]\n 36812: u64 [a2] = a1\n 36814: u64 [a2 + 8] = 0\n 36817: u64 [a2 + 16] = 0\n 36820: u64 [a2 + 24] = 0\n 36823: sp = s0 + 0xfffffffffffffda0\n 36827: a0 = sp + 0x200\n 36831: ra = u64 [a0 + 0x58]\n 36834: s0 = u64 [a0 + 0x50]\n 36837: s1 = u64 [a0 + 0x48]\n 36840: sp = sp + 0x260\n 36844: ret\n      : @1360 [@dyn 646] (gas: 5)\n 36846: a1 = 0x24\n 36849: ra = 0x50e\n 36853: ecalli 2 // 'call_data_load'\n 36855: t0 = 0x510\n 36859: jump @1800\n      : @1361 [@dyn 647] (gas: 1)\n 36862: t0 = 1296, jump @1800\n      : @1362 [@dyn 648] (gas: 1)\n 36868: jump @1365 if a3 == 0\n      : @1363 (gas: 1)\n 36871: t0 = 1298, jump @1814\n      : @1364 [@dyn 649] (gas: 1)\n 36877: ret\n      : @1365 (gas: 8)\n 36879: a1 = 0x20200\n 36884: i32 a1 = a1 + 0\n 36886: a0 = 0x1\n 36889: a2 = 0\n 36891: ra = 0x514\n 36895: ecalli 13 // 'seal_return'\n 36897: t0 = 0x516\n 36901: jump @1793\n      : @1366 [@dyn 650] (gas: 1)\n 36904: t0 = 1302, jump @1793\n      : @1367 [@dyn 651] (gas: 5)\n 36910: a1 = 0x4\n 36913: ra = 0x518\n 36917: ecalli 2 // 'call_data_load'\n 36919: t0 = 0x51a\n 36923: jump @1800\n      : @1368 [@dyn 652] (gas: 1)\n 36926: t0 = 1306, jump @1800\n      : @1369 [@dyn 653] (gas: 1)\n 36932: jump @1372 if a3 == 0\n      : @1370 (gas: 1)\n 36935: t0 = 1308, jump @1814\n      : @1371 [@dyn 654] (gas: 1)\n 36941: ret\n      : @1372 (gas: 7)\n 36943: a1 = 0x20200\n 36948: i32 a1 = a1 + 0\n 36950: a0 = 0x1\n 36953: a2 = 0\n 36955: ra = 0x51e\n 36959: ecalli 13 // 'seal_return'\n 36961: fallthrough\n      : @1373 [@dyn 655] (gas: 23)\n 36962: sp = sp + 0xffffffffffffff00\n 36966: u64 [sp + 0xf8] = ra\n 36970: u64 [sp + 0xf0] = s0\n 36974: u64 [sp + 0xe8] = s1\n 36978: s0 = sp + 0x100\n 36982: sp = sp & 0xffffffffffffffe0\n 36985: s1 = sp\n 36987: u64 [s1 + 0x18] = a0\n 36990: a0 = u64 [a1]\n 36992: u64 [s1 + 0x20] = a0\n 36995: a0 = u64 [a1 + 0x8]\n 36998: u64 [s1 + 0x28] = a0\n 37001: a0 = u64 [a1 + 0x10]\n 37004: u64 [s1 + 0x30] = a0\n 37007: a0 = u64 [a1 + 0x18]\n 37010: u64 [s1 + 0x38] = a0\n 37013: u64 [s1 + 216] = 0\n 37017: u64 [s1 + 208] = 0\n 37021: u64 [s1 + 200] = 0\n 37025: u64 [s1 + 192] = 0x1\n 37030: a0 = s1 + 0xa0\n 37034: a1 = s1 + 0xc0\n 37038: ra = 1312, jump @11\n      : @1374 [@dyn 656] (gas: 20)\n 37045: a0 = u64 [s1 + 0xb8]\n 37049: t0 = u64 [s1 + 0xa0]\n 37053: a2 = u64 [s1 + 0xb0]\n 37057: a3 = u64 [s1 + 0xa8]\n 37061: a1 = u64 [s1 + 0x38]\n 37064: a4 = a0 ^ a1\n 37067: a1 = a1 <u a0\n 37070: a0 = u64 [s1 + 0x30]\n 37073: a5 = a0 <u a2\n 37076: a5 = a1 if a4 != 0\n 37079: a1 = u64 [s1 + 0x28]\n 37082: t1 = a3 ^ a1\n 37085: a3 = a1 <u a3\n 37088: a1 = u64 [s1 + 0x20]\n 37091: a1 = a1 <u t0\n 37094: a1 = a3 if t1 != 0\n 37097: a0 = a0 ^ a2\n 37100: a0 = a0 | a4\n 37103: a1 = a5 if a0 != 0\n 37106: jump @1379 if a1 == 0\n      : @1375 (gas: 7)\n 37110: u64 [s1 + 88] = 0\n 37113: u64 [s1 + 80] = 0\n 37116: u64 [s1 + 72] = 0\n 37119: a1 = s1 + 0x40\n 37122: u64 [s1 + 64] = 0x1\n 37126: a0 = 0\n 37128: ra = 1314, jump @9\n      : @1376 [@dyn 657] (gas: 2)\n 37135: a1 = i32 [0x201f0]\n 37140: jump @1378 if a1 >u 31\n      : @1377 (gas: 2)\n 37144: u32 [0x201f0] = 0x20\n 37150: fallthrough\n      : @1378 (gas: 72)\n 37151: a0 = sp + 0xffffffffffffffe0\n 37154: a2 = a0 & 0xffffffffffffffe0\n 37157: u64 [s1 + 0x10] = a2\n 37160: sp = a2\n 37162: a0 = 0x20200\n 37167: i32 a0 = a0 + 0\n 37169: i32 a2 = a2 + 0\n 37171: a1 = 0x20\n 37174: ecalli 8 // 'hash_keccak_256'\n 37176: t0 = u64 [s1 + 0x10]\n 37179: a0 = u64 [t0 + 0x18]\n 37182: a1 = u64 [t0 + 0x10]\n 37185: a3 = reverse a0\n 37187: a1 = reverse a1\n 37189: a4 = 0x5\n 37192: a0 = u64 [s1 + 0x20]\n 37195: a2 = a0 << 0x2\n 37198: t1 = a2 + a0\n 37201: a4 = a0 mulhu a4\n 37204: a2 = u64 [s1 + 0x28]\n 37207: a5 = a2 << 0x2\n 37210: a5 = a5 + a2\n 37213: a4 = a4 + a5\n 37216: t1 = t1 + a3\n 37219: a3 = t1 <u a3\n 37222: a0 = a1 + a4\n 37225: ra = a0 + a3\n 37228: a0 = ra ^ a1\n 37231: a1 = ra <u a1\n 37234: a1 = a3 if a0 == 0\n 37237: a0 = a4 <u a5\n 37240: a4 = 0x5\n 37243: a3 = a2 mulhu a4\n 37246: a0 = a0 + a3\n 37249: a2 = u64 [s1 + 0x30]\n 37252: a3 = a2 << 0x2\n 37255: t2 = a3 + a2\n 37258: a4 = a2 mulhu a4\n 37261: a5 = u64 [t0]\n 37263: a2 = u64 [s1 + 0x38]\n 37266: a3 = a2 << 0x2\n 37269: a3 = a3 + a2\n 37272: a3 = a3 + a4\n 37275: a4 = reverse a5\n 37277: a3 = a3 + a4\n 37280: a4 = u64 [t0 + 0x8]\n 37283: t2 = t2 + a0\n 37286: a0 = t2 <u a0\n 37289: a0 = a0 + a3\n 37292: a3 = reverse a4\n 37294: t2 = t2 + a3\n 37297: a3 = t2 <u a3\n 37300: a0 = a0 + a3\n 37303: a1 = a1 + t2\n 37306: a3 = a1 <u t2\n 37309: a0 = a0 + a3\n 37312: a3 = u64 [s1 + 0x18]\n 37315: u64 [a3] = t1\n 37317: u64 [a3 + 0x8] = ra\n 37320: u64 [a3 + 0x10] = a1\n 37323: u64 [a3 + 0x18] = a0\n 37326: a0 = 0\n 37328: u64 [a3 + 56] = 0\n 37331: u64 [a3 + 48] = 0\n 37334: u64 [a3 + 40] = 0\n 37337: u64 [a3 + 32] = 0\n 37340: sp = s0 + 0xffffffffffffff00\n 37344: ra = u64 [sp + 0xf8]\n 37348: s0 = u64 [sp + 0xf0]\n 37352: s1 = u64 [sp + 0xe8]\n 37356: sp = sp + 0x100\n 37360: ret\n      : @1379 (gas: 8)\n 37362: u64 [s1 + 144] = 0\n 37366: u64 [s1 + 136] = 0\n 37370: u64 [s1 + 128] = 0\n 37374: a0 = 0x4e487b7100000000\n 37384: a1 = s1 + 0x80\n 37388: u64 [s1 + 0x98] = a0\n 37392: a0 = 0\n 37394: ra = 1316, jump @9\n      : @1380 [@dyn 658] (gas: 7)\n 37401: u64 [s1 + 120] = 0\n 37404: u64 [s1 + 112] = 0\n 37407: u64 [s1 + 96] = 0x32\n 37411: a0 = 0x4\n 37414: a1 = s1 + 0x60\n 37417: u64 [s1 + 104] = 0\n 37420: ra = 1318, jump @9\n      : @1381 [@dyn 659] (gas: 2)\n 37427: a1 = i32 [0x201f0]\n 37432: jump @1383 if a1 >u 63\n      : @1382 (gas: 2)\n 37436: u32 [0x201f0] = 0x40\n 37442: fallthrough\n      : @1383 (gas: 8)\n 37443: a1 = 0x20200\n 37448: i32 a1 = a1 + 0\n 37450: a0 = 0x1\n 37453: a2 = 0x24\n 37456: ra = 0x528\n 37460: ecalli 13 // 'seal_return'\n 37462: t0 = 0x52a\n 37466: jump @1806\n      : @1384 [@dyn 660] (gas: 1)\n 37469: t0 = 1322, jump @1806\n      : @1385 [@dyn 661] (gas: 1)\n 37475: jump @1387 if a0 == 0\n      : @1386 (gas: 6)\n 37478: sp = s0 + 0xffffffffffffff20\n 37482: ra = u64 [sp + 0xd8]\n 37486: s0 = u64 [sp + 0xd0]\n 37490: s1 = u64 [sp + 0xc8]\n 37494: sp = sp + 0xe0\n 37498: ret\n      : @1387 (gas: 3)\n 37500: a0 = sp + 0xa0\n 37504: a1 = 0x40\n 37507: ra = 1324, jump @7\n      : @1388 [@dyn 662] (gas: 1)\n 37514: t0 = 1326, jump @1804\n      : @1389 [@dyn 663] (gas: 1)\n 37520: jump @1400 if a0 != 0\n      : @1390 (gas: 1)\n 37523: t0 = 1328, jump @1820\n      : @1391 [@dyn 664] (gas: 1)\n 37529: ra = 1330, jump @9\n      : @1392 [@dyn 665] (gas: 1)\n 37536: t0 = 1332, jump @1795\n      : @1393 [@dyn 666] (gas: 1)\n 37542: jump @1400 if a0 == 0\n      : @1394 (gas: 8)\n 37545: a0 = u64 [sp + 0x18]\n 37548: i32 a0 = a0 + 0x4\n 37551: u64 [sp + 120] = 0\n 37554: u64 [sp + 112] = 0\n 37557: u64 [sp + 96] = 0x20\n 37561: a1 = sp + 0x60\n 37564: u64 [sp + 104] = 0\n 37567: ra = 1334, jump @9\n      : @1395 [@dyn 667] (gas: 1)\n 37574: t0 = 1336, jump @1819\n      : @1396 [@dyn 668] (gas: 1)\n 37580: jump @1400 if a0 == 0\n      : @1397 (gas: 8)\n 37583: s1 = u64 [sp + 0x18]\n 37586: i32 a0 = s1 + 0x24\n 37589: u64 [sp + 88] = 0\n 37592: u64 [sp + 80] = 0\n 37595: u64 [sp + 64] = 0xe\n 37599: a1 = sp + 0x40\n 37602: u64 [sp + 72] = 0\n 37605: ra = 1338, jump @9\n      : @1398 [@dyn 669] (gas: 1)\n 37612: t0 = 1340, jump @1812\n      : @1399 [@dyn 670] (gas: 1)\n 37618: jump @1401 if a0 != 0\n      : @1400 (gas: 1)\n 37621: trap\n      : @1401 (gas: 10)\n 37622: s1 = u64 [sp + 0x18]\n 37625: i32 a0 = s1 + 0x44\n 37628: a1 = u64 [0x200c0]\n 37633: a2 = u64 [0x200c8]\n 37638: u64 [sp + 0x38] = a1\n 37641: u64 [sp + 40] = 0\n 37644: u64 [sp + 0x30] = a2\n 37647: a1 = sp + 0x20\n 37650: u64 [sp + 32] = 0\n 37653: ra = 1342, jump @9\n      : @1402 [@dyn 671] (gas: 3)\n 37660: a1 = 0x64\n 37663: a0 = s1\n 37665: ra = 1344, jump @18\n      : @1403 [@dyn 672] (gas: 7)\n 37672: i32 a1 = a0 + 0\n 37674: a0 = 0x1\n 37677: a2 = 0x64\n 37680: ra = 0x542\n 37684: ecalli 13 // 'seal_return'\n 37686: t0 = 0x544\n 37690: jump @1806\n      : @1404 [@dyn 673] (gas: 1)\n 37693: t0 = 1348, jump @1806\n      : @1405 [@dyn 674] (gas: 1)\n 37699: jump @1407 if a0 == 0\n      : @1406 (gas: 6)\n 37702: sp = s0 + 0xffffffffffffff20\n 37706: ra = u64 [sp + 0xd8]\n 37710: s0 = u64 [sp + 0xd0]\n 37714: s1 = u64 [sp + 0xc8]\n 37718: sp = sp + 0xe0\n 37722: ret\n      : @1407 (gas: 3)\n 37724: a0 = sp + 0xa0\n 37728: a1 = 0x40\n 37731: ra = 1350, jump @7\n      : @1408 [@dyn 675] (gas: 1)\n 37738: t0 = 1352, jump @1804\n      : @1409 [@dyn 676] (gas: 1)\n 37744: jump @1420 if a0 != 0\n      : @1410 (gas: 1)\n 37747: t0 = 1354, jump @1820\n      : @1411 [@dyn 677] (gas: 1)\n 37753: ra = 1356, jump @9\n      : @1412 [@dyn 678] (gas: 1)\n 37760: t0 = 1358, jump @1795\n      : @1413 [@dyn 679] (gas: 1)\n 37766: jump @1420 if a0 == 0\n      : @1414 (gas: 8)\n 37769: a0 = u64 [sp + 0x18]\n 37772: i32 a0 = a0 + 0x4\n 37775: u64 [sp + 120] = 0\n 37778: u64 [sp + 112] = 0\n 37781: u64 [sp + 96] = 0x20\n 37785: a1 = sp + 0x60\n 37788: u64 [sp + 104] = 0\n 37791: ra = 1360, jump @9\n      : @1415 [@dyn 680] (gas: 1)\n 37798: t0 = 1362, jump @1819\n      : @1416 [@dyn 681] (gas: 1)\n 37804: jump @1420 if a0 == 0\n      : @1417 (gas: 8)\n 37807: s1 = u64 [sp + 0x18]\n 37810: i32 a0 = s1 + 0x24\n 37813: u64 [sp + 88] = 0\n 37816: u64 [sp + 80] = 0\n 37819: u64 [sp + 64] = 0x1b\n 37823: a1 = sp + 0x40\n 37826: u64 [sp + 72] = 0\n 37829: ra = 1364, jump @9\n      : @1418 [@dyn 682] (gas: 1)\n 37836: t0 = 1366, jump @1812\n      : @1419 [@dyn 683] (gas: 1)\n 37842: jump @1421 if a0 != 0\n      : @1420 (gas: 1)\n 37845: trap\n      : @1421 (gas: 12)\n 37846: s1 = u64 [sp + 0x18]\n 37849: i32 a0 = s1 + 0x44\n 37852: a1 = u64 [0x200d0]\n 37857: a2 = u64 [0x200d8]\n 37862: a3 = u64 [0x200e0]\n 37867: u64 [sp + 0x38] = a1\n 37870: u64 [sp + 0x30] = a2\n 37873: u64 [sp + 0x28] = a3\n 37876: a2 = 0x7465640000000000\n 37886: a1 = sp + 0x20\n 37889: u64 [sp + 0x20] = a2\n 37892: ra = 1368, jump @9\n      : @1422 [@dyn 684] (gas: 3)\n 37899: a1 = 0x64\n 37902: a0 = s1\n 37904: ra = 1370, jump @18\n      : @1423 [@dyn 685] (gas: 7)\n 37911: i32 a1 = a0 + 0\n 37913: a0 = 0x1\n 37916: a2 = 0x64\n 37919: ra = 0x55c\n 37923: ecalli 13 // 'seal_return'\n 37925: t0 = 0x55e\n 37929: jump @1825\n      : @1424 [@dyn 686] (gas: 1)\n 37932: t0 = 1374, jump @1825\n      : @1425 [@dyn 687] (gas: 25)\n 37938: s1 = sp\n 37940: u64 [s1 + 0x38] = a0\n 37943: a0 = u64 [a2]\n 37945: u64 [s1 + 0x58] = a0\n 37948: a0 = u64 [a2 + 0x8]\n 37951: u64 [s1 + 0x40] = a0\n 37954: a0 = u64 [a2 + 0x10]\n 37957: u64 [s1 + 0x48] = a0\n 37960: a0 = u64 [a2 + 0x18]\n 37963: u64 [s1 + 0x50] = a0\n 37966: a0 = u64 [a1 + 0x18]\n 37969: a2 = u64 [a1 + 0x10]\n 37972: a3 = u64 [a1 + 0x8]\n 37975: a1 = u64 [a1]\n 37977: u64 [s1 + 0x30] = a0\n 37980: u64 [s1 + 0xf8] = a0\n 37984: u64 [s1 + 0x28] = a2\n 37987: u64 [s1 + 0xf0] = a2\n 37991: u64 [s1 + 0x20] = a3\n 37994: u64 [s1 + 0xe8] = a3\n 37998: u64 [s1 + 0x18] = a1\n 38001: u64 [s1 + 0xe0] = a1\n 38005: a0 = s1 + 0xc0\n 38009: a1 = s1 + 0xe0\n 38013: ra = 1376, jump @11\n      : @1426 [@dyn 688] (gas: 20)\n 38020: a0 = u64 [s1 + 0xd8]\n 38024: t0 = u64 [s1 + 0xc0]\n 38028: a2 = u64 [s1 + 0xd0]\n 38032: a3 = u64 [s1 + 0xc8]\n 38036: a1 = u64 [s1 + 0x50]\n 38039: a4 = a0 ^ a1\n 38042: a1 = a1 <u a0\n 38045: a0 = u64 [s1 + 0x48]\n 38048: a5 = a0 <u a2\n 38051: a5 = a1 if a4 != 0\n 38054: a1 = u64 [s1 + 0x40]\n 38057: t1 = a3 ^ a1\n 38060: a3 = a1 <u a3\n 38063: a1 = u64 [s1 + 0x58]\n 38066: a1 = a1 <u t0\n 38069: a1 = a3 if t1 != 0\n 38072: a0 = a0 ^ a2\n 38075: a0 = a0 | a4\n 38078: a1 = a5 if a0 != 0\n 38081: jump @1431 if a1 == 0\n      : @1427 (gas: 11)\n 38085: a0 = u64 [s1 + 0x18]\n 38088: u64 [s1 + 0x60] = a0\n 38091: a0 = u64 [s1 + 0x20]\n 38094: u64 [s1 + 0x68] = a0\n 38097: a0 = u64 [s1 + 0x28]\n 38100: u64 [s1 + 0x70] = a0\n 38103: a1 = s1 + 0x60\n 38106: a0 = u64 [s1 + 0x30]\n 38109: u64 [s1 + 0x78] = a0\n 38112: a0 = 0\n 38114: ra = 1378, jump @9\n      : @1428 [@dyn 689] (gas: 2)\n 38121: a1 = i32 [0x201f0]\n 38126: jump @1430 if a1 >u 31\n      : @1429 (gas: 2)\n 38130: u32 [0x201f0] = 0x20\n 38136: fallthrough\n      : @1430 (gas: 63)\n 38137: a0 = sp + 0xffffffffffffffe0\n 38140: a2 = a0 & 0xffffffffffffffe0\n 38143: u64 [s1 + 0x30] = a2\n 38146: sp = a2\n 38148: a0 = 0x20200\n 38153: i32 a0 = a0 + 0\n 38155: i32 a2 = a2 + 0\n 38157: a1 = 0x20\n 38160: ecalli 8 // 'hash_keccak_256'\n 38162: t2 = u64 [s1 + 0x30]\n 38165: a0 = u64 [t2 + 0x18]\n 38168: a1 = u64 [t2 + 0x10]\n 38171: a2 = reverse a0\n 38173: a3 = reverse a1\n 38175: t1 = u64 [s1 + 0x58]\n 38178: a0 = t1 >> 0x5\n 38181: a4 = u64 [s1 + 0x40]\n 38184: a1 = a4 << 0x3b\n 38187: a0 = a0 | a1\n 38190: a1 = a4 >> 0x5\n 38193: a5 = u64 [s1 + 0x48]\n 38196: a4 = a5 << 0x3b\n 38199: a1 = a1 | a4\n 38202: a1 = a1 + a3\n 38205: t0 = a2 + a0\n 38208: a2 = t0 <u a2\n 38211: a1 = a1 + a2\n 38214: a4 = a1 ^ a3\n 38217: a3 = a1 <u a3\n 38220: a3 = a2 if a4 == 0\n 38223: a2 = u64 [t2]\n 38225: a4 = a5 >> 0x5\n 38228: a0 = u64 [s1 + 0x50]\n 38231: a5 = a0 << 0x3b\n 38234: a4 = a4 | a5\n 38237: a5 = u64 [t2 + 0x8]\n 38240: a2 = reverse a2\n 38242: a0 = a0 >> 0x5\n 38245: a0 = a0 + a2\n 38248: a2 = reverse a5\n 38250: a4 = a4 + a2\n 38253: a2 = a4 <u a2\n 38256: a0 = a0 + a2\n 38259: a3 = a3 + a4\n 38262: a2 = a3 <u a4\n 38265: a0 = a0 + a2\n 38268: a2 = t1 & 0x1f\n 38271: a4 = u64 [s1 + 0x38]\n 38274: u64 [a4 + 0x20] = a2\n 38277: u64 [a4] = t0\n 38279: u64 [a4 + 0x8] = a1\n 38282: u64 [a4 + 0x10] = a3\n 38285: u64 [a4 + 0x18] = a0\n 38288: a0 = 0\n 38290: u64 [a4 + 56] = 0\n 38293: u64 [a4 + 48] = 0\n 38296: u64 [a4 + 40] = 0\n 38299: sp = s0 + 0xfffffffffffffee0\n 38303: ra = u64 [sp + 0x118]\n 38307: s0 = u64 [sp + 0x110]\n 38311: s1 = u64 [sp + 0x108]\n 38315: sp = sp + 0x120\n 38319: ret\n      : @1431 (gas: 8)\n 38321: u64 [s1 + 176] = 0\n 38325: u64 [s1 + 168] = 0\n 38329: u64 [s1 + 160] = 0\n 38333: a0 = 0x4e487b7100000000\n 38343: a1 = s1 + 0xa0\n 38347: u64 [s1 + 0xb8] = a0\n 38351: a0 = 0\n 38353: ra = 1380, jump @9\n      : @1432 [@dyn 690] (gas: 7)\n 38360: u64 [s1 + 152] = 0\n 38364: u64 [s1 + 144] = 0\n 38368: u64 [s1 + 128] = 0x32\n 38373: a0 = 0x4\n 38376: a1 = s1 + 0x80\n 38380: u64 [s1 + 136] = 0\n 38384: ra = 1382, jump @9\n      : @1433 [@dyn 691] (gas: 2)\n 38391: a1 = i32 [0x201f0]\n 38396: jump @1435 if a1 >u 63\n      : @1434 (gas: 2)\n 38400: u32 [0x201f0] = 0x40\n 38406: fallthrough\n      : @1435 (gas: 7)\n 38407: a1 = 0x20200\n 38412: i32 a1 = a1 + 0\n 38414: a0 = 0x1\n 38417: a2 = 0x24\n 38420: ra = 0x568\n 38424: ecalli 13 // 'seal_return'\n 38426: fallthrough\n      : @1436 [@dyn 692] (gas: 48)\n 38427: sp = sp + 0xffffffffffffff68\n 38431: u64 [sp + 0x90] = ra\n 38435: u64 [sp + 0x88] = s0\n 38439: u64 [sp + 0x80] = s1\n 38443: u64 [sp + 0x58] = a0\n 38446: a5 = u64 [a2]\n 38448: u64 [sp + 0x30] = a5\n 38451: s0 = u64 [a2 + 0x8]\n 38454: a0 = u64 [a1 + 0x10]\n 38457: u64 [sp + 0x50] = a0\n 38460: t0 = u64 [a2 + 0x10]\n 38463: s1 = a5 >> 0x3d\n 38466: a4 = s0 << 0x3\n 38469: a4 = a4 | s1\n 38472: a5 = a5 << 0x3\n 38475: a0 = a4 >u 0\n 38477: s1 = a5 <u 0x100\n 38481: t1 = a5\n 38483: a5 = s1 ^ 0x1\n 38486: a5 = a0 if a4 != 0\n 38489: s1 = a5\n 38491: a4 = u64 [a1 + 0x18]\n 38494: u64 [sp + 0x48] = a4\n 38497: s0 = s0 >> 0x3d\n 38500: a4 = t0 << 0x3\n 38503: a4 = a4 | s0\n 38506: a5 = u64 [a1]\n 38508: u64 [sp + 0x40] = a5\n 38511: a2 = u64 [a2 + 0x18]\n 38514: a1 = u64 [a1 + 0x8]\n 38517: u64 [sp + 0x38] = a1\n 38520: s0 = u8 [a3]\n 38522: u64 [sp + 0x28] = s0\n 38525: a0 = t0 >> 0x3d\n 38528: a2 = a2 << 0x3\n 38531: a0 = a0 | a2\n 38534: a1 = a0 >u 0\n 38536: a2 = a4 >u 0\n 38538: a2 = a1 if a0 != 0\n 38541: a0 = a0 | a4\n 38544: s1 = a2 if a0 != 0\n 38547: u64 [sp + 0x68] = s1\n 38550: i32 a2 = t1 + 0xffffffffffffff80\n 38553: s1 = t1\n 38555: u64 [sp + 0x20] = a2\n 38558: a0 = s0\n 38560: a1 = 0\n 38562: ra = 1386, jump @1833\n      : @1437 [@dyn 693] (gas: 7)\n 38568: u64 [sp + 0x70] = a0\n 38571: u64 [sp + 0x78] = a1\n 38574: i32 a2 = 0x80 - s1\n 38578: u64 [sp + 0x18] = a2\n 38581: a0 = s0\n 38583: a1 = 0\n 38585: ra = 1388, jump @1828\n      : @1438 [@dyn 694] (gas: 16)\n 38591: u64 [sp + 0x8] = s1\n 38594: s0 = s1 <u 0x80\n 38598: a3 = u64 [sp + 0x70]\n 38601: a0 = a3 if s0 == 0\n 38604: a0 = 0 if s1 == 0\n 38606: u64 [sp + 0x70] = a0\n 38609: a0 = u64 [sp + 0x78]\n 38612: a1 = a0 if s0 == 0\n 38615: a1 = 0 if s1 == 0\n 38617: u64 [sp + 0x78] = a1\n 38620: a0 = u64 [sp + 0x30]\n 38623: i32 a2 = a0 << 0x3\n 38626: u64 [sp + 0x10] = a2\n 38629: a0 = u64 [sp + 0x28]\n 38632: a1 = 0\n 38634: ra = 1390, jump @1833\n      : @1439 [@dyn 695] (gas: 18)\n 38640: u64 [sp + 0x60] = s0\n 38643: a0 = 0 if s0 == 0\n 38645: a1 = 0 if s0 == 0\n 38647: s1 = u64 [sp + 0x68]\n 38650: a1 = 0 if s1 != 0\n 38652: u64 [sp + 0x30] = a1\n 38655: a0 = 0 if s1 != 0\n 38657: u64 [sp + 0x28] = a0\n 38660: a0 = u64 [sp + 0x78]\n 38663: a0 = 0 if s1 != 0\n 38665: u64 [sp + 0x78] = a0\n 38668: a0 = u64 [sp + 0x70]\n 38671: a0 = 0 if s1 != 0\n 38673: u64 [sp + 0x70] = a0\n 38676: a0 = 0xff\n 38680: a1 = 0\n 38682: a2 = u64 [sp + 0x20]\n 38685: ra = 1392, jump @1833\n      : @1440 [@dyn 696] (gas: 6)\n 38691: u64 [sp] = a0\n 38693: u64 [sp + 0x20] = a1\n 38696: a0 = 0xff\n 38700: a1 = 0\n 38702: a2 = u64 [sp + 0x18]\n 38705: ra = 1394, jump @1828\n      : @1441 [@dyn 697] (gas: 14)\n 38711: s0 = a0\n 38713: s1 = a1\n 38715: a1 = u64 [sp + 0x60]\n 38718: a0 = u64 [sp]\n 38720: s0 = a0 if a1 == 0\n 38723: a0 = u64 [sp + 0x8]\n 38726: s0 = 0 if a0 == 0\n 38728: a2 = u64 [sp + 0x20]\n 38731: s1 = a2 if a1 == 0\n 38734: s1 = 0 if a0 == 0\n 38736: a0 = 0xff\n 38740: a1 = 0\n 38742: a2 = u64 [sp + 0x10]\n 38745: ra = 1396, jump @1833\n      : @1442 [@dyn 698] (gas: 38)\n 38751: a2 = u64 [sp + 0x60]\n 38754: a0 = 0 if a2 == 0\n 38756: a1 = 0 if a2 == 0\n 38758: a1 = a1 ^ 0xffffffffffffffff\n 38761: a0 = a0 ^ 0xffffffffffffffff\n 38764: a2 = s1 ^ 0xffffffffffffffff\n 38767: a3 = s0 ^ 0xffffffffffffffff\n 38770: a5 = u64 [sp + 0x68]\n 38773: a3 = 0xffffffffffffffff if a5 != 0\n 38776: a2 = 0xffffffffffffffff if a5 != 0\n 38779: a0 = 0xffffffffffffffff if a5 != 0\n 38782: a1 = 0xffffffffffffffff if a5 != 0\n 38785: a4 = u64 [sp + 0x38]\n 38788: a1 = a1 & a4\n 38791: a4 = u64 [sp + 0x40]\n 38794: a0 = a0 & a4\n 38797: a4 = u64 [sp + 0x48]\n 38800: a2 = a2 & a4\n 38803: a4 = u64 [sp + 0x50]\n 38806: a3 = a3 & a4\n 38809: a4 = u64 [sp + 0x70]\n 38812: a3 = a3 | a4\n 38815: a4 = u64 [sp + 0x78]\n 38818: a2 = a2 | a4\n 38821: a4 = u64 [sp + 0x28]\n 38824: a0 = a0 | a4\n 38827: a4 = u64 [sp + 0x30]\n 38830: a1 = a1 | a4\n 38833: a4 = u64 [sp + 0x58]\n 38836: u64 [a4 + 0x8] = a1\n 38839: u64 [a4] = a0\n 38841: u64 [a4 + 0x18] = a2\n 38844: u64 [a4 + 0x10] = a3\n 38847: ra = u64 [sp + 0x90]\n 38851: s0 = u64 [sp + 0x88]\n 38855: s1 = u64 [sp + 0x80]\n 38859: sp = sp + 0x98\n 38863: ret\n      : @1443 (gas: 19)\n 38865: sp = sp + 0xffffffffffffff90\n 38868: u64 [sp + 0x68] = ra\n 38871: u64 [sp + 0x60] = s0\n 38874: s0 = sp + 0x70\n 38877: sp = sp & 0xfffffffffffffff0\n 38880: a3 = u64 [a0 + 0x18]\n 38883: a2 = u64 [a0 + 0x10]\n 38886: t1 = u64 [a0]\n 38888: a0 = u64 [a0 + 0x8]\n 38891: a4 = a3 >u 0\n 38893: a5 = a2 >u 0\n 38895: a5 = a4 if a3 != 0\n 38898: t0 = a0 >u 0\n 38900: a4 = t1 <u 0xffffffffffffff00\n 38904: a4 = a4 ^ 0x1\n 38907: a4 = t0 if a0 != 0\n 38910: a1 = a2 | a3\n 38913: a4 = a5 if a1 != 0\n 38916: jump @1446 if a4 != 0\n      : @1444 (gas: 15)\n 38919: a1 = t1 + 0x100\n 38923: a4 = a1 <u t1\n 38926: a5 = a0 + a4\n 38929: a0 = a5 <u a0\n 38932: a0 = a4 if a4 == 0\n 38935: a0 = a0 + a2\n 38938: a2 = a0 <u a2\n 38941: a2 = a2 + a3\n 38944: u64 [sp + 0x40] = a1\n 38947: u64 [sp + 0x48] = a5\n 38950: u64 [sp + 0x50] = a0\n 38953: a0 = 0x40\n 38956: a1 = sp + a0\n 38959: u64 [sp + 0x58] = a2\n 38962: ra = 1398, jump @9\n      : @1445 [@dyn 699] (gas: 5)\n 38969: sp = s0 + 0xffffffffffffff90\n 38972: ra = u64 [sp + 0x68]\n 38975: s0 = u64 [sp + 0x60]\n 38978: sp = sp + 0x70\n 38981: ret\n      : @1446 (gas: 1)\n 38983: t0 = 1400, jump @1818\n      : @1447 [@dyn 700] (gas: 1)\n 38989: ra = 1402, jump @9\n      : @1448 [@dyn 701] (gas: 7)\n 38996: u64 [sp + 24] = 0\n 38999: u64 [sp + 16] = 0\n 39002: u64 [sp + 0] = 0x41\n 39005: a0 = 0x4\n 39008: a1 = sp\n 39010: u64 [sp + 8] = 0\n 39013: ra = 1404, jump @9\n      : @1449 [@dyn 702] (gas: 2)\n 39020: a1 = i32 [0x201f0]\n 39025: jump @1451 if a1 >u 63\n      : @1450 (gas: 2)\n 39029: u32 [0x201f0] = 0x40\n 39035: fallthrough\n      : @1451 (gas: 7)\n 39036: a1 = 0x20200\n 39041: i32 a1 = a1 + 0\n 39043: a0 = 0x1\n 39046: a2 = 0x24\n 39049: ra = 0x57e\n 39053: ecalli 13 // 'seal_return'\n 39055: fallthrough\n      : @1452 [@dyn 703] (gas: 46)\n 39056: sp = sp + 0xffffffffffffff70\n 39060: u64 [sp + 0x88] = ra\n 39064: u64 [sp + 0x80] = s0\n 39068: u64 [sp + 0x78] = s1\n 39071: s0 = sp + 0x90\n 39075: sp = sp & 0xfffffffffffffff0\n 39078: t0 = a0\n 39080: a2 = u64 [a1]\n 39082: t2 = u64 [a0 + 0x8]\n 39085: a5 = u64 [a1 + 0x8]\n 39088: t1 = u64 [a0]\n 39090: a3 = a2 + 0x1f\n 39093: ra = a3 <u a2\n 39096: a2 = a5 + ra\n 39099: a3 = a3 & 0xffffffffffffffe0\n 39102: u64 [sp + 0x8] = t1\n 39105: t1 = t1 + a3\n 39108: a4 = t1 <u a3\n 39111: a3 = a2 + t2\n 39114: a3 = a3 + a4\n 39117: s1 = a3 ^ a2\n 39120: a0 = a3 <u a2\n 39123: a0 = a4 if s1 == 0\n 39126: a4 = u64 [t0 + 0x18]\n 39129: a5 = a2 <u a5\n 39132: s1 = u64 [a1 + 0x10]\n 39135: t0 = u64 [t0 + 0x10]\n 39138: a1 = u64 [a1 + 0x18]\n 39141: a5 = ra if ra == 0\n 39144: a5 = a5 + s1\n 39147: s1 = a5 <u s1\n 39150: a2 = a5 + t0\n 39153: a0 = a0 + a2\n 39156: a5 = a2 <u a5\n 39159: a2 = a0 <u a2\n 39162: a1 = a1 + a4\n 39165: a1 = a1 + s1\n 39168: a1 = a1 + a5\n 39171: a5 = a1 + a2\n 39174: a1 = a5 >u 0\n 39176: a2 = a0 >u 0\n 39178: a2 = a1 if a5 != 0\n 39181: a1 = a0 | a5\n 39184: s1 = a3 >u 0\n 39186: s1 = a2 if a1 != 0\n 39189: jump @1456 if s1 != 0\n      : @1453 (gas: 13)\n 39192: a1 = u64 [sp + 0x8]\n 39195: a1 = t1 <u a1\n 39198: a2 = a3 ^ t2\n 39201: s1 = a3 <u t2\n 39204: s1 = a1 if a2 == 0\n 39207: a1 = a0 <u t0\n 39210: a2 = a5 ^ a4\n 39213: a4 = a5 <u a4\n 39216: a4 = a1 if a2 == 0\n 39219: a1 = a0 ^ t0\n 39222: a1 = a1 | a2\n 39225: a4 = s1 if a1 == 0\n 39228: jump @1456 if a4 != 0\n      : @1454 (gas: 7)\n 39231: u64 [sp + 0x50] = t1\n 39234: u64 [sp + 0x58] = a3\n 39237: u64 [sp + 0x60] = a0\n 39240: a0 = 0x40\n 39243: a1 = sp + 0x50\n 39246: u64 [sp + 0x68] = a5\n 39249: ra = 1408, jump @9\n      : @1455 [@dyn 704] (gas: 6)\n 39256: sp = s0 + 0xffffffffffffff70\n 39260: ra = u64 [sp + 0x88]\n 39264: s0 = u64 [sp + 0x80]\n 39268: s1 = u64 [sp + 0x78]\n 39271: sp = sp + 0x90\n 39275: ret\n      : @1456 (gas: 8)\n 39277: u64 [sp + 64] = 0\n 39280: u64 [sp + 56] = 0\n 39283: u64 [sp + 48] = 0\n 39286: a0 = 0x4e487b7100000000\n 39296: a1 = sp + 0x30\n 39299: u64 [sp + 0x48] = a0\n 39302: a0 = 0\n 39304: ra = 1410, jump @9\n      : @1457 [@dyn 705] (gas: 7)\n 39311: u64 [sp + 40] = 0\n 39314: u64 [sp + 32] = 0\n 39317: u64 [sp + 16] = 0x41\n 39321: a0 = 0x4\n 39324: a1 = sp + 0x10\n 39327: u64 [sp + 24] = 0\n 39330: ra = 1412, jump @9\n      : @1458 [@dyn 706] (gas: 2)\n 39337: a1 = i32 [0x201f0]\n 39342: jump @1460 if a1 >u 63\n      : @1459 (gas: 2)\n 39346: u32 [0x201f0] = 0x40\n 39352: fallthrough\n      : @1460 (gas: 7)\n 39353: a1 = 0x20200\n 39358: i32 a1 = a1 + 0\n 39360: a0 = 0x1\n 39363: a2 = 0x24\n 39366: ra = 0x586\n 39370: ecalli 13 // 'seal_return'\n 39372: fallthrough\n      : @1461 [@dyn 707] (gas: 19)\n 39373: sp = sp + 0xffffffffffffff40\n 39377: u64 [sp + 0xb8] = ra\n 39381: u64 [sp + 0xb0] = s0\n 39385: u64 [sp + 0xa8] = s1\n 39389: s0 = sp + 0xc0\n 39393: sp = sp & 0xffffffffffffffe0\n 39396: s1 = sp\n 39398: a2 = u64 [a1]\n 39400: a3 = u64 [a1 + 0x8]\n 39403: a4 = u64 [a1 + 0x10]\n 39406: a1 = u64 [a1 + 0x18]\n 39409: u64 [s1 + 0x18] = a0\n 39412: u64 [s1 + 0x78] = a1\n 39415: u64 [s1 + 0x70] = a4\n 39418: u64 [s1 + 0x68] = a3\n 39421: a1 = s1 + 0x60\n 39424: u64 [s1 + 0x60] = a2\n 39427: a0 = 0\n 39429: ra = 1416, jump @9\n      : @1462 [@dyn 708] (gas: 7)\n 39436: u64 [s1 + 88] = 0\n 39439: u64 [s1 + 80] = 0\n 39442: u64 [s1 + 72] = 0\n 39445: a0 = 0x20\n 39448: a1 = s1 + 0x40\n 39451: u64 [s1 + 64] = 0\n 39454: ra = 1418, jump @9\n      : @1463 [@dyn 709] (gas: 2)\n 39461: a1 = i32 [0x201f0]\n 39466: jump @1465 if a1 >u 63\n      : @1464 (gas: 2)\n 39470: u32 [0x201f0] = 0x40\n 39476: fallthrough\n      : @1465 (gas: 33)\n 39477: a0 = sp + 0xffffffffffffffe0\n 39480: a2 = a0 & 0xffffffffffffffe0\n 39483: u64 [s1 + 0x10] = a2\n 39486: sp = a2\n 39488: a0 = 0x20200\n 39493: i32 a0 = a0 + 0\n 39495: i32 a2 = a2 + 0\n 39497: a1 = 0x40\n 39500: ecalli 8 // 'hash_keccak_256'\n 39502: a3 = u64 [s1 + 0x10]\n 39505: a0 = u64 [a3]\n 39507: a1 = u64 [a3 + 0x8]\n 39510: a2 = u64 [a3 + 0x10]\n 39513: a3 = u64 [a3 + 0x18]\n 39516: a0 = reverse a0\n 39518: a1 = reverse a1\n 39520: a2 = reverse a2\n 39522: a3 = reverse a3\n 39524: a3 = a3 + 0x1\n 39527: a4 = a3 <u 0x1\n 39530: a2 = a2 + a4\n 39533: a4 = a3 | a2\n 39536: a4 = a4 <u 0x1\n 39539: a4 = a4 + a1\n 39542: a1 = a4 <u a1\n 39545: a0 = a0 + a1\n 39548: u64 [s1 + 0x80] = a3\n 39552: u64 [s1 + 0x88] = a2\n 39556: u64 [s1 + 0x90] = a4\n 39560: u64 [s1 + 0x98] = a0\n 39564: a0 = s1 + 0x20\n 39567: a1 = s1 + 0x80\n 39571: ra = 1420, jump @11\n      : @1466 [@dyn 710] (gas: 15)\n 39578: a0 = u64 [s1 + 0x30]\n 39581: a1 = u64 [s1 + 0x38]\n 39584: a2 = u64 [s1 + 0x20]\n 39587: a3 = u64 [s1 + 0x28]\n 39590: a4 = u64 [s1 + 0x18]\n 39593: u64 [a4 + 0x10] = a0\n 39596: u64 [a4 + 0x18] = a1\n 39599: u64 [a4] = a2\n 39601: u64 [a4 + 0x8] = a3\n 39604: sp = s0 + 0xffffffffffffff40\n 39608: ra = u64 [sp + 0xb8]\n 39612: s0 = u64 [sp + 0xb0]\n 39616: s1 = u64 [sp + 0xa8]\n 39620: sp = sp + 0xc0\n 39624: ret\n      : @1467 (gas: 10)\n 39626: a4 = u64 [a1 + 0x18]\n 39629: a3 = u64 [a1 + 0x10]\n 39632: t1 = u64 [a1 + 0x8]\n 39635: t0 = a4 >u 0\n 39637: a5 = a3 >u 0\n 39639: a5 = t0 if a4 != 0\n 39642: t0 = a3 | a4\n 39645: a2 = t1 >u 0\n 39647: a2 = a5 if t0 != 0\n 39650: jump @1469 if a2 != 0\n      : @1468 (gas: 24)\n 39653: a1 = u64 [a1]\n 39655: a2 = a3 >> 0x3b\n 39658: a4 = a4 << 0x5\n 39661: t0 = a4 | a2\n 39664: a4 = t1 >> 0x3b\n 39667: a3 = a3 << 0x5\n 39670: a3 = a3 | a4\n 39673: a4 = a1 >> 0x3b\n 39676: t1 = t1 << 0x5\n 39679: a4 = t1 | a4\n 39682: a1 = a1 << 0x5\n 39685: a5 = a1 + 0x20\n 39688: a1 = a5 <u a1\n 39691: a2 = a4 + a1\n 39694: a4 = a2 <u a4\n 39697: a4 = a1 if a1 == 0\n 39700: a4 = a4 + a3\n 39703: a1 = a4 <u a3\n 39706: a1 = a1 + t0\n 39709: u64 [a0] = a5\n 39711: u64 [a0 + 0x8] = a2\n 39714: u64 [a0 + 0x10] = a4\n 39717: u64 [a0 + 0x18] = a1\n 39720: ret\n      : @1469 (gas: 6)\n 39722: sp = sp + 0xffffffffffffffb0\n 39725: u64 [sp + 0x48] = ra\n 39728: u64 [sp + 0x40] = s0\n 39731: s0 = sp + 0x50\n 39734: sp = sp & 0xfffffffffffffff0\n 39737: t0 = 1422, jump @1818\n      : @1470 [@dyn 711] (gas: 1)\n 39743: ra = 1424, jump @9\n      : @1471 [@dyn 712] (gas: 7)\n 39750: u64 [sp + 24] = 0\n 39753: u64 [sp + 16] = 0\n 39756: u64 [sp + 0] = 0x41\n 39759: a0 = 0x4\n 39762: a1 = sp\n 39764: u64 [sp + 8] = 0\n 39767: ra = 1426, jump @9\n      : @1472 [@dyn 713] (gas: 2)\n 39774: a1 = i32 [0x201f0]\n 39779: jump @1474 if a1 >u 63\n      : @1473 (gas: 2)\n 39783: u32 [0x201f0] = 0x40\n 39789: fallthrough\n      : @1474 (gas: 8)\n 39790: a1 = 0x20200\n 39795: i32 a1 = a1 + 0\n 39797: a0 = 0x1\n 39800: a2 = 0x24\n 39803: ra = 0x594\n 39807: ecalli 13 // 'seal_return'\n 39809: t0 = 0x596\n 39813: jump @1793\n      : @1475 [@dyn 714] (gas: 1)\n 39816: t0 = 1430, jump @1793\n      : @1476 [@dyn 715] (gas: 15)\n 39822: ecalli 9 // 'now'\n 39824: a0 = u64 [sp]\n 39826: a1 = 0x5265c00\n 39832: a0 = a0 /u a1\n 39835: a1 = 0\n 39837: u64 [s1 + 24] = 0\n 39840: u64 [s1 + 16] = 0\n 39843: u64 [s1 + 8] = 0\n 39846: u64 [s1] = a0\n 39848: sp = s0 + 0xffffffffffffffc0\n 39851: ra = u64 [sp + 0x38]\n 39854: s0 = u64 [sp + 0x30]\n 39857: s1 = u64 [sp + 0x28]\n 39860: sp = sp + 0x40\n 39863: ret\n      : @1477 (gas: 53)\n 39865: sp = sp + 0xffffffffffffff90\n 39868: u64 [sp + 0x68] = ra\n 39871: u64 [sp + 0x60] = s0\n 39874: u64 [sp + 0x58] = s1\n 39877: s0 = sp + 0x70\n 39880: sp = sp & 0xfffffffffffffff0\n 39883: a3 = a1\n 39885: t2 = u64 [a1 + 0x10]\n 39888: a1 = u64 [a1 + 0x8]\n 39891: t0 = u64 [a2 + 0x8]\n 39894: s1 = u64 [a3]\n 39896: u64 [sp] = s1\n 39898: a4 = u64 [a2]\n 39900: u64 [sp + 0x8] = a4\n 39903: ra = u64 [a2 + 0x10]\n 39906: a5 = t0 ^ a1\n 39909: u64 [sp + 0x28] = a5\n 39912: a5 = t0 <u a1\n 39915: a4 = a4 <u s1\n 39918: t1 = u64 [sp + 0x28]\n 39921: a5 = a4 if t1 == 0\n 39924: s1 = a4\n 39926: a3 = u64 [a3 + 0x18]\n 39929: u64 [sp + 0x18] = a3\n 39932: a2 = u64 [a2 + 0x18]\n 39935: u64 [sp + 0x10] = a2\n 39938: a3 = ra - t2\n 39941: a2 = a3 - a5\n 39944: u64 [sp + 0x20] = a2\n 39947: a2 = a3 <u a5\n 39950: u64 [sp + 0x28] = t2\n 39953: a4 = ra <u t2\n 39956: t2 = u64 [sp + 0x18]\n 39959: a3 = u64 [sp + 0x10]\n 39962: a3 = a3 - t2\n 39965: a3 = a3 - a4\n 39968: a3 = a3 - a2\n 39971: a2 = t0 - a1\n 39974: a2 = a2 - s1\n 39977: t0 = u64 [sp]\n 39979: a4 = u64 [sp + 0x8]\n 39982: a4 = a4 - t0\n 39985: a5 = a2 >u 0\n 39987: a4 = a4 <u 0x20\n 39990: a4 = a4 ^ 0x1\n 39993: a4 = a5 if a2 != 0\n 39996: s1 = a3 >s 0\n 39998: a2 = u64 [sp + 0x20]\n 40001: a5 = a2 >u 0\n 40003: a5 = s1 if a3 != 0\n 40006: a2 = a2 | a3\n 40009: a4 = a5 if a2 != 0\n 40012: jump @1483 if a4 == 0\n      : @1478 (gas: 10)\n 40015: s1 = a0\n 40017: a3 = u64 [sp + 0x28]\n 40020: a0 = t0 | a3\n 40023: a2 = a1 | t2\n 40026: a0 = a0 | a2\n 40029: a0 = a0 >> 0x20\n 40032: a2 = a2 | a3\n 40035: a2 = a2 << 0x20\n 40038: a0 = a0 | a2\n 40041: jump @1482 if a0 != 0\n      : @1479 (gas: 3)\n 40044: a0 = sp + 0x30\n 40047: a1 = t0\n 40049: ra = 1432, jump @7\n      : @1480 [@dyn 716] (gas: 8)\n 40056: a0 = u64 [sp + 0x40]\n 40059: a1 = u64 [sp + 0x48]\n 40062: a2 = a0 ^ 0x1\n 40065: a2 = a2 | a1\n 40068: a3 = a0 <u 0x1\n 40071: a3 = 0 if a1 != 0\n 40073: a3 = 0 if a2 == 0\n 40075: jump @1484 if a3 == 0\n      : @1481 (gas: 12)\n 40078: a2 = u64 [sp + 0x30]\n 40081: a3 = u64 [sp + 0x38]\n 40084: u64 [s1] = a2\n 40086: u64 [s1 + 0x8] = a3\n 40089: u64 [s1 + 0x10] = a0\n 40092: u64 [s1 + 0x18] = a1\n 40095: sp = s0 + 0xffffffffffffff90\n 40098: ra = u64 [sp + 0x68]\n 40101: s0 = u64 [sp + 0x60]\n 40104: s1 = u64 [sp + 0x58]\n 40107: sp = sp + 0x70\n 40110: ret\n      : @1482 (gas: 1)\n 40112: trap\n      : @1483 (gas: 2)\n 40113: a1 = 0x20200\n 40118: jump @1485\n      : @1484 (gas: 2)\n 40120: a1 = 0x20200\n 40125: fallthrough\n      : @1485 (gas: 7)\n 40126: i32 a1 = a1 + 0\n 40128: a0 = 0x1\n 40131: a2 = 0\n 40133: ra = 0x59a\n 40137: ecalli 13 // 'seal_return'\n 40139: t0 = 0x59c\n 40143: jump @1810\n      : @1486 [@dyn 717] (gas: 1)\n 40146: t0 = 1436, jump @1810\n      : @1487 [@dyn 718] (gas: 16)\n 40152: a0 = u64 [0x200e8]\n 40157: u64 [s1 + 0x38] = a0\n 40160: a3 = s1 + 0x100\n 40164: u64 [a3 + 0x78] = a0\n 40167: a1 = u64 [0x200f0]\n 40172: a2 = u64 [0x200f8]\n 40177: a0 = u64 [0x20100]\n 40182: u64 [s1 + 0x28] = a1\n 40185: u64 [a3 + 0x70] = a1\n 40188: u64 [s1 + 0x20] = a2\n 40191: u64 [a3 + 0x68] = a2\n 40194: a1 = s1 + 0x160\n 40198: u64 [s1 + 0x30] = a0\n 40201: u64 [a3 + 0x60] = a0\n 40204: a0 = 0\n 40206: ra = 1438, jump @9\n      : @1488 [@dyn 719] (gas: 1)\n 40213: t0 = 1440, jump @1771\n      : @1489 [@dyn 720] (gas: 1)\n 40219: ra = 1442, jump @9\n      : @1490 [@dyn 721] (gas: 3)\n 40226: a1 = 0x201f0\n 40231: a0 = i32 [0x201f0]\n 40236: jump @1492 if a0 >u 63\n      : @1491 (gas: 2)\n 40240: u32 [0x201f0] = 0x40\n 40246: fallthrough\n      : @1492 (gas: 14)\n 40247: a0 = sp + 0xffffffffffffffe0\n 40250: a2 = a0 & 0xffffffffffffffe0\n 40253: u64 [s1 + 0x68] = a2\n 40256: sp = a2\n 40258: a0 = 0x20200\n 40263: i32 a0 = a0 + 0\n 40265: i32 a2 = a2 + 0\n 40267: u64 [s1 + 0x78] = a1\n 40270: a1 = 0x40\n 40273: u64 [s1 + 0x70] = a0\n 40276: ra = 0x5a4\n 40280: ecalli 8 // 'hash_keccak_256'\n 40282: t0 = 0x5a6\n 40286: jump @1761\n      : @1493 [@dyn 722] (gas: 1)\n 40289: t0 = 1446, jump @1761\n      : @1494 [@dyn 723] (gas: 8)\n 40295: a0 = 0x30200\n 40300: u64 [s1 + 0x68] = a0\n 40303: i32 a0 = a0 + 0\n 40305: u64 [s1 + 0x18] = a0\n 40308: ra = 0x5a8\n 40312: ecalli 4 // 'caller'\n 40314: t0 = 0x5aa\n 40318: jump @1758\n      : @1495 [@dyn 724] (gas: 1)\n 40321: t0 = 1450, jump @1758\n      : @1496 [@dyn 725] (gas: 1)\n 40327: ra = 1452, jump @9\n      : @1497 [@dyn 726] (gas: 1)\n 40334: t0 = 1454, jump @1777\n      : @1498 [@dyn 727] (gas: 1)\n 40340: ra = 1456, jump @9\n      : @1499 [@dyn 728] (gas: 3)\n 40347: a1 = u64 [s1 + 0x78]\n 40350: a0 = i32 [a1]\n 40352: jump @1501 if a0 >u 63\n      : @1500 (gas: 3)\n 40356: u32 [a1 + 0] = 0x40\n 40359: t0 = 0x5b2\n 40363: jump @1794\n      : @1501 (gas: 1)\n 40366: t0 = 1458, jump @1794\n      : @1502 [@dyn 729] (gas: 4)\n 40372: ra = 0x5b4\n 40376: ecalli 8 // 'hash_keccak_256'\n 40378: t0 = 0x5b6\n 40382: jump @1765\n      : @1503 [@dyn 730] (gas: 1)\n 40385: t0 = 1462, jump @1765\n      : @1504 [@dyn 731] (gas: 1)\n 40391: ra = 1464, jump @11\n      : @1505 [@dyn 732] (gas: 2)\n 40398: a0 = u8 [s1 + 0xe0]\n 40402: jump @1507 if a0 == 0\n      : @1506 (gas: 6)\n 40405: sp = s0 + 0xfffffffffffffe60\n 40409: ra = u64 [sp + 0x198]\n 40413: s0 = u64 [sp + 0x190]\n 40417: s1 = u64 [sp + 0x188]\n 40421: sp = sp + 0x1a0\n 40425: ret\n      : @1507 (gas: 1)\n 40427: t0 = 1466, jump @1774\n      : @1508 [@dyn 733] (gas: 1)\n 40433: ra = 1468, jump @9\n      : @1509 [@dyn 734] (gas: 5)\n 40440: a0 = u64 [s1 + 0x18]\n 40443: ra = 0x5be\n 40447: ecalli 4 // 'caller'\n 40449: t0 = 0x5c0\n 40453: jump @1760\n      : @1510 [@dyn 735] (gas: 1)\n 40456: t0 = 1472, jump @1760\n      : @1511 [@dyn 736] (gas: 1)\n 40462: ra = 1474, jump @9\n      : @1512 [@dyn 737] (gas: 1)\n 40469: t0 = 1476, jump @1813\n      : @1513 [@dyn 738] (gas: 1)\n 40475: ra = 1478, jump @9\n      : @1514 [@dyn 739] (gas: 3)\n 40482: a0 = u64 [s1 + 0x78]\n 40485: a0 = i32 [a0]\n 40487: jump @1516 if a0 >u 95\n      : @1515 (gas: 3)\n 40491: a1 = u64 [s1 + 0x78]\n 40494: u32 [a1 + 0] = 0x60\n 40497: fallthrough\n      : @1516 (gas: 7)\n 40498: a0 = 0x1\n 40501: a2 = 0x44\n 40504: a1 = u64 [s1 + 0x70]\n 40507: ra = 0x5c8\n 40511: ecalli 13 // 'seal_return'\n 40513: t0 = 0x5ca\n 40517: jump @1810\n      : @1517 [@dyn 740] (gas: 1)\n 40520: t0 = 1482, jump @1810\n      : @1518 [@dyn 741] (gas: 16)\n 40526: a0 = u64 [0x20108]\n 40531: u64 [s1 + 0x38] = a0\n 40534: a3 = s1 + 0x100\n 40538: u64 [a3 + 0x78] = a0\n 40541: a1 = u64 [0x20110]\n 40546: a2 = u64 [0x20118]\n 40551: a0 = u64 [0x20120]\n 40556: u64 [s1 + 0x28] = a1\n 40559: u64 [a3 + 0x70] = a1\n 40562: u64 [s1 + 0x20] = a2\n 40565: u64 [a3 + 0x68] = a2\n 40568: a1 = s1 + 0x160\n 40572: u64 [s1 + 0x30] = a0\n 40575: u64 [a3 + 0x60] = a0\n 40578: a0 = 0\n 40580: ra = 1484, jump @9\n      : @1519 [@dyn 742] (gas: 1)\n 40587: t0 = 1486, jump @1771\n      : @1520 [@dyn 743] (gas: 1)\n 40593: ra = 1488, jump @9\n      : @1521 [@dyn 744] (gas: 3)\n 40600: a1 = 0x201f0\n 40605: a0 = i32 [0x201f0]\n 40610: jump @1523 if a0 >u 63\n      : @1522 (gas: 2)\n 40614: u32 [0x201f0] = 0x40\n 40620: fallthrough\n      : @1523 (gas: 14)\n 40621: a0 = sp + 0xffffffffffffffe0\n 40624: a2 = a0 & 0xffffffffffffffe0\n 40627: u64 [s1 + 0x68] = a2\n 40630: sp = a2\n 40632: a0 = 0x20200\n 40637: i32 a0 = a0 + 0\n 40639: i32 a2 = a2 + 0\n 40641: u64 [s1 + 0x78] = a1\n 40644: a1 = 0x40\n 40647: u64 [s1 + 0x70] = a0\n 40650: ra = 0x5d2\n 40654: ecalli 8 // 'hash_keccak_256'\n 40656: t0 = 0x5d4\n 40660: jump @1761\n      : @1524 [@dyn 745] (gas: 1)\n 40663: t0 = 1492, jump @1761\n      : @1525 [@dyn 746] (gas: 8)\n 40669: a0 = 0x30200\n 40674: u64 [s1 + 0x68] = a0\n 40677: i32 a0 = a0 + 0\n 40679: u64 [s1 + 0x18] = a0\n 40682: ra = 0x5d6\n 40686: ecalli 4 // 'caller'\n 40688: t0 = 0x5d8\n 40692: jump @1758\n      : @1526 [@dyn 747] (gas: 1)\n 40695: t0 = 1496, jump @1758\n      : @1527 [@dyn 748] (gas: 1)\n 40701: ra = 1498, jump @9\n      : @1528 [@dyn 749] (gas: 1)\n 40708: t0 = 1500, jump @1777\n      : @1529 [@dyn 750] (gas: 1)\n 40714: ra = 1502, jump @9\n      : @1530 [@dyn 751] (gas: 3)\n 40721: a1 = u64 [s1 + 0x78]\n 40724: a0 = i32 [a1]\n 40726: jump @1532 if a0 >u 63\n      : @1531 (gas: 3)\n 40730: u32 [a1 + 0] = 0x40\n 40733: t0 = 0x5e0\n 40737: jump @1794\n      : @1532 (gas: 1)\n 40740: t0 = 1504, jump @1794\n      : @1533 [@dyn 752] (gas: 4)\n 40746: ra = 0x5e2\n 40750: ecalli 8 // 'hash_keccak_256'\n 40752: t0 = 0x5e4\n 40756: jump @1765\n      : @1534 [@dyn 753] (gas: 1)\n 40759: t0 = 1508, jump @1765\n      : @1535 [@dyn 754] (gas: 1)\n 40765: ra = 1510, jump @11\n      : @1536 [@dyn 755] (gas: 2)\n 40772: a0 = u8 [s1 + 0xe0]\n 40776: jump @1538 if a0 == 0\n      : @1537 (gas: 6)\n 40779: sp = s0 + 0xfffffffffffffe60\n 40783: ra = u64 [sp + 0x198]\n 40787: s0 = u64 [sp + 0x190]\n 40791: s1 = u64 [sp + 0x188]\n 40795: sp = sp + 0x1a0\n 40799: ret\n      : @1538 (gas: 1)\n 40801: t0 = 1512, jump @1774\n      : @1539 [@dyn 756] (gas: 1)\n 40807: ra = 1514, jump @9\n      : @1540 [@dyn 757] (gas: 5)\n 40814: a0 = u64 [s1 + 0x18]\n 40817: ra = 0x5ec\n 40821: ecalli 4 // 'caller'\n 40823: t0 = 0x5ee\n 40827: jump @1760\n      : @1541 [@dyn 758] (gas: 1)\n 40830: t0 = 1518, jump @1760\n      : @1542 [@dyn 759] (gas: 1)\n 40836: ra = 1520, jump @9\n      : @1543 [@dyn 760] (gas: 1)\n 40843: t0 = 1522, jump @1813\n      : @1544 [@dyn 761] (gas: 1)\n 40849: ra = 1524, jump @9\n      : @1545 [@dyn 762] (gas: 3)\n 40856: a0 = u64 [s1 + 0x78]\n 40859: a0 = i32 [a0]\n 40861: jump @1547 if a0 >u 95\n      : @1546 (gas: 3)\n 40865: a1 = u64 [s1 + 0x78]\n 40868: u32 [a1 + 0] = 0x60\n 40871: fallthrough\n      : @1547 (gas: 7)\n 40872: a0 = 0x1\n 40875: a2 = 0x44\n 40878: a1 = u64 [s1 + 0x70]\n 40881: ra = 0x5f6\n 40885: ecalli 13 // 'seal_return'\n 40887: t0 = 0x5f8\n 40891: jump @1810\n      : @1548 [@dyn 763] (gas: 1)\n 40894: t0 = 1528, jump @1810\n      : @1549 [@dyn 764] (gas: 16)\n 40900: a2 = u64 [a0]\n 40902: a1 = u64 [a0 + 0x8]\n 40905: a3 = u64 [a0 + 0x10]\n 40908: a0 = u64 [a0 + 0x18]\n 40911: u64 [s1 + 0x20] = a0\n 40914: a4 = s1 + 0x100\n 40918: u64 [a4 + 0x78] = a0\n 40921: u64 [s1 + 0x28] = a3\n 40924: u64 [a4 + 0x70] = a3\n 40927: u64 [s1 + 0x30] = a1\n 40930: u64 [a4 + 0x68] = a1\n 40933: a1 = s1 + 0x160\n 40937: u64 [s1 + 0x38] = a2\n 40940: u64 [a4 + 0x60] = a2\n 40943: a0 = 0\n 40945: ra = 1530, jump @9\n      : @1550 [@dyn 765] (gas: 1)\n 40952: t0 = 1532, jump @1771\n      : @1551 [@dyn 766] (gas: 1)\n 40958: ra = 1534, jump @9\n      : @1552 [@dyn 767] (gas: 3)\n 40965: a1 = 0x201f0\n 40970: a0 = i32 [0x201f0]\n 40975: jump @1554 if a0 >u 63\n      : @1553 (gas: 2)\n 40979: u32 [0x201f0] = 0x40\n 40985: fallthrough\n      : @1554 (gas: 14)\n 40986: a0 = sp + 0xffffffffffffffe0\n 40989: a2 = a0 & 0xffffffffffffffe0\n 40992: u64 [s1 + 0x68] = a2\n 40995: sp = a2\n 40997: a0 = 0x20200\n 41002: i32 a0 = a0 + 0\n 41004: i32 a2 = a2 + 0\n 41006: u64 [s1 + 0x78] = a1\n 41009: a1 = 0x40\n 41012: u64 [s1 + 0x70] = a0\n 41015: ra = 0x600\n 41019: ecalli 8 // 'hash_keccak_256'\n 41021: t0 = 0x602\n 41025: jump @1761\n      : @1555 [@dyn 768] (gas: 1)\n 41028: t0 = 1538, jump @1761\n      : @1556 [@dyn 769] (gas: 8)\n 41034: a0 = 0x30200\n 41039: u64 [s1 + 0x68] = a0\n 41042: i32 a0 = a0 + 0\n 41044: u64 [s1 + 0x18] = a0\n 41047: ra = 0x604\n 41051: ecalli 4 // 'caller'\n 41053: t0 = 0x606\n 41057: jump @1758\n      : @1557 [@dyn 770] (gas: 1)\n 41060: t0 = 1542, jump @1758\n      : @1558 [@dyn 771] (gas: 1)\n 41066: ra = 1544, jump @9\n      : @1559 [@dyn 772] (gas: 1)\n 41073: t0 = 1546, jump @1777\n      : @1560 [@dyn 773] (gas: 1)\n 41079: ra = 1548, jump @9\n      : @1561 [@dyn 774] (gas: 3)\n 41086: a1 = u64 [s1 + 0x78]\n 41089: a0 = i32 [a1]\n 41091: jump @1563 if a0 >u 63\n      : @1562 (gas: 3)\n 41095: u32 [a1 + 0] = 0x40\n 41098: t0 = 0x60e\n 41102: jump @1794\n      : @1563 (gas: 1)\n 41105: t0 = 1550, jump @1794\n      : @1564 [@dyn 775] (gas: 4)\n 41111: ra = 0x610\n 41115: ecalli 8 // 'hash_keccak_256'\n 41117: t0 = 0x612\n 41121: jump @1765\n      : @1565 [@dyn 776] (gas: 1)\n 41124: t0 = 1554, jump @1765\n      : @1566 [@dyn 777] (gas: 1)\n 41130: ra = 1556, jump @11\n      : @1567 [@dyn 778] (gas: 2)\n 41137: a0 = u8 [s1 + 0xe0]\n 41141: jump @1569 if a0 == 0\n      : @1568 (gas: 6)\n 41144: sp = s0 + 0xfffffffffffffe60\n 41148: ra = u64 [sp + 0x198]\n 41152: s0 = u64 [sp + 0x190]\n 41156: s1 = u64 [sp + 0x188]\n 41160: sp = sp + 0x1a0\n 41164: ret\n      : @1569 (gas: 1)\n 41166: t0 = 1558, jump @1774\n      : @1570 [@dyn 779] (gas: 1)\n 41172: ra = 1560, jump @9\n      : @1571 [@dyn 780] (gas: 5)\n 41179: a0 = u64 [s1 + 0x18]\n 41182: ra = 0x61a\n 41186: ecalli 4 // 'caller'\n 41188: t0 = 0x61c\n 41192: jump @1760\n      : @1572 [@dyn 781] (gas: 1)\n 41195: t0 = 1564, jump @1760\n      : @1573 [@dyn 782] (gas: 1)\n 41201: ra = 1566, jump @9\n      : @1574 [@dyn 783] (gas: 11)\n 41208: a0 = u64 [s1 + 0x20]\n 41211: u64 [s1 + 0x98] = a0\n 41215: a0 = u64 [s1 + 0x28]\n 41218: u64 [s1 + 0x90] = a0\n 41222: a0 = u64 [s1 + 0x30]\n 41225: u64 [s1 + 0x88] = a0\n 41229: a0 = 0x24\n 41232: a1 = s1 + 0x80\n 41236: a2 = u64 [s1 + 0x38]\n 41239: u64 [s1 + 0x80] = a2\n 41243: ra = 1568, jump @9\n      : @1575 [@dyn 784] (gas: 3)\n 41250: a0 = u64 [s1 + 0x78]\n 41253: a0 = i32 [a0]\n 41255: jump @1577 if a0 >u 95\n      : @1576 (gas: 3)\n 41259: a1 = u64 [s1 + 0x78]\n 41262: u32 [a1 + 0] = 0x60\n 41265: fallthrough\n      : @1577 (gas: 7)\n 41266: a0 = 0x1\n 41269: a2 = 0x44\n 41272: a1 = u64 [s1 + 0x70]\n 41275: ra = 0x622\n 41279: ecalli 13 // 'seal_return'\n 41281: t0 = 0x624\n 41285: jump @1815\n      : @1578 [@dyn 785] (gas: 1)\n 41288: t0 = 1572, jump @1815\n      : @1579 [@dyn 786] (gas: 22)\n 41294: u64 [s1 + 0x50] = a2\n 41297: a2 = u64 [a1 + 0x8]\n 41300: u64 [s1 + 0x70] = a2\n 41303: a1 = u64 [a1]\n 41305: u64 [s1 + 0x78] = a1\n 41308: u64 [s1 + 0x58] = a0\n 41311: a0 = u64 [0x20128]\n 41316: u64 [s1 + 0x20] = a0\n 41319: a3 = s1 + 0x200\n 41323: u64 [a3 + 0x38] = a0\n 41326: a1 = u64 [0x20130]\n 41331: a2 = u64 [0x20138]\n 41336: a0 = u64 [0x20140]\n 41341: u64 [s1 + 0x18] = a1\n 41344: u64 [a3 + 0x30] = a1\n 41347: u64 [s1 + 0x10] = a2\n 41350: u64 [a3 + 0x28] = a2\n 41353: a1 = s1 + 0x220\n 41357: u64 [s1 + 0x8] = a0\n 41360: u64 [a3 + 0x20] = a0\n 41363: a0 = 0\n 41365: ra = 1574, jump @9\n      : @1580 [@dyn 787] (gas: 1)\n 41372: t0 = 1576, jump @1773\n      : @1581 [@dyn 788] (gas: 1)\n 41378: ra = 1578, jump @9\n      : @1582 [@dyn 789] (gas: 3)\n 41385: a1 = 0x201f0\n 41390: a0 = i32 [0x201f0]\n 41395: jump @1584 if a0 >u 63\n      : @1583 (gas: 2)\n 41399: u32 [0x201f0] = 0x40\n 41405: fallthrough\n      : @1584 (gas: 6)\n 41406: a0 = sp + 0xffffffffffffffe0\n 41409: a2 = a0 & 0xffffffffffffffe0\n 41412: u64 [s1 + 0x48] = a2\n 41415: sp = a2\n 41417: a0 = 0x20200\n 41422: t0 = 1580, jump @1822\n      : @1585 [@dyn 790] (gas: 4)\n 41428: ra = 0x62e\n 41432: ecalli 8 // 'hash_keccak_256'\n 41434: t0 = 0x630\n 41438: jump @1763\n      : @1586 [@dyn 791] (gas: 1)\n 41441: t0 = 1584, jump @1763\n      : @1587 [@dyn 792] (gas: 1)\n 41447: ra = 1586, jump @9\n      : @1588 [@dyn 793] (gas: 1)\n 41454: t0 = 1588, jump @1803\n      : @1589 [@dyn 794] (gas: 1)\n 41460: ra = 1590, jump @9\n      : @1590 [@dyn 795] (gas: 3)\n 41467: a1 = u64 [s1 + 0x68]\n 41470: a0 = i32 [a1]\n 41472: jump @1592 if a0 >u 63\n      : @1591 (gas: 2)\n 41476: u32 [a1 + 0] = 0x40\n 41479: fallthrough\n      : @1592 (gas: 4)\n 41480: a0 = sp + 0xffffffffffffffe0\n 41483: a0 = a0 & 0xffffffffffffffe0\n 41486: u64 [s1 + 0x50] = a0\n 41489: t0 = 1592, jump @1776\n      : @1593 [@dyn 796] (gas: 4)\n 41495: ra = 0x63a\n 41499: ecalli 8 // 'hash_keccak_256'\n 41501: t0 = 0x63c\n 41505: jump @1787\n      : @1594 [@dyn 797] (gas: 1)\n 41508: t0 = 1596, jump @1787\n      : @1595 [@dyn 798] (gas: 1)\n 41514: ra = 1598, jump @11\n      : @1596 [@dyn 799] (gas: 2)\n 41521: a0 = u8 [s1 + 0x1a0]\n 41525: jump @1598 if a0 == 0\n      : @1597 (gas: 5)\n 41528: a1 = 0\n 41530: a0 = 0\n 41532: a2 = u64 [s1 + 0x58]\n 41535: t0 = 0x664\n 41539: jump @1769\n      : @1598 (gas: 12)\n 41542: a0 = u64 [s1 + 0x20]\n 41545: a2 = s1 + 0x100\n 41549: u64 [a2 + 0x98] = a0\n 41553: a0 = u64 [s1 + 0x18]\n 41556: u64 [a2 + 0x90] = a0\n 41560: a0 = u64 [s1 + 0x10]\n 41563: u64 [a2 + 0x88] = a0\n 41567: a1 = s1 + 0x180\n 41571: a0 = u64 [s1 + 0x8]\n 41574: u64 [a2 + 0x80] = a0\n 41578: a0 = 0\n 41580: ra = 1600, jump @9\n      : @1599 [@dyn 800] (gas: 1)\n 41587: t0 = 1602, jump @1772\n      : @1600 [@dyn 801] (gas: 1)\n 41593: ra = 1604, jump @9\n      : @1601 [@dyn 802] (gas: 3)\n 41600: a1 = u64 [s1 + 0x68]\n 41603: a0 = i32 [a1]\n 41605: jump @1603 if a0 >u 63\n      : @1602 (gas: 2)\n 41609: u32 [a1 + 0] = 0x40\n 41612: fallthrough\n      : @1603 (gas: 4)\n 41613: a0 = sp + 0xffffffffffffffe0\n 41616: a0 = a0 & 0xffffffffffffffe0\n 41619: u64 [s1 + 0x50] = a0\n 41622: t0 = 1606, jump @1776\n      : @1604 [@dyn 803] (gas: 4)\n 41628: ra = 0x648\n 41632: ecalli 8 // 'hash_keccak_256'\n 41634: t0 = 0x64a\n 41638: jump @1766\n      : @1605 [@dyn 804] (gas: 1)\n 41641: t0 = 1610, jump @1766\n      : @1606 [@dyn 805] (gas: 1)\n 41647: ra = 1612, jump @9\n      : @1607 [@dyn 806] (gas: 1)\n 41654: t0 = 1614, jump @1798\n      : @1608 [@dyn 807] (gas: 1)\n 41660: ra = 1616, jump @9\n      : @1609 [@dyn 808] (gas: 3)\n 41667: a1 = u64 [s1 + 0x68]\n 41670: a0 = i32 [a1]\n 41672: jump @1611 if a0 >u 63\n      : @1610 (gas: 2)\n 41676: u32 [a1 + 0] = 0x40\n 41679: fallthrough\n      : @1611 (gas: 4)\n 41680: a0 = sp + 0xffffffffffffffe0\n 41683: a0 = a0 & 0xffffffffffffffe0\n 41686: u64 [s1 + 0x68] = a0\n 41689: t0 = 1618, jump @1776\n      : @1612 [@dyn 809] (gas: 4)\n 41695: ra = 0x654\n 41699: ecalli 8 // 'hash_keccak_256'\n 41701: t0 = 0x656\n 41705: jump @1783\n      : @1613 [@dyn 810] (gas: 1)\n 41708: t0 = 1622, jump @1783\n      : @1614 [@dyn 811] (gas: 1)\n 41714: ra = 1624, jump @11\n      : @1615 [@dyn 812] (gas: 1)\n 41721: t0 = 1626, jump @1791\n      : @1616 [@dyn 813] (gas: 1)\n 41727: ra = 1628, jump @12\n      : @1617 [@dyn 814] (gas: 8)\n 41734: a0 = 0x30200\n 41739: u64 [s1 + 0x68] = a0\n 41742: i32 a0 = a0 + 0\n 41744: ra = 0x65e\n 41748: ecalli 4 // 'caller'\n 41750: a2 = u64 [s1 + 0x68]\n 41753: t0 = 0x660\n 41757: jump @1767\n      : @1618 [@dyn 815] (gas: 2)\n 41760: a2 = u64 [s1 + 0x68]\n 41763: t0 = 1632, jump @1767\n      : @1619 [@dyn 816] (gas: 42)\n 41769: t0 = a1 | a0\n 41772: a3 = a3 >> 0x20\n 41775: a2 = reverse a2\n 41777: a1 = a2 << 0x20\n 41780: a1 = a1 | a3\n 41783: a2 = a2 >> 0x20\n 41786: u64 [s1 + 152] = 0\n 41790: u64 [s1 + 184] = 0\n 41794: a0 = u64 [s1]\n 41796: u64 [s1 + 0xb0] = a0\n 41800: a0 = u64 [s1 + 0x70]\n 41803: u64 [s1 + 0xa8] = a0\n 41807: a0 = u64 [s1 + 0x78]\n 41810: u64 [s1 + 0xa0] = a0\n 41814: a0 = u64 [s1 + 0x20]\n 41817: u64 [s1 + 0xd8] = a0\n 41821: a0 = u64 [s1 + 0x18]\n 41824: u64 [s1 + 0xd0] = a0\n 41828: a0 = u64 [s1 + 0x10]\n 41831: u64 [s1 + 0xc8] = a0\n 41835: a0 = u64 [s1 + 0x8]\n 41838: u64 [s1 + 0xc0] = a0\n 41842: a3 = u64 [0x20148]\n 41847: a4 = u64 [0x20150]\n 41852: a5 = u64 [0x20158]\n 41857: a0 = u64 [0x20160]\n 41862: u64 [s1 + 0xf8] = a3\n 41866: u64 [s1 + 0xf0] = a4\n 41870: u64 [s1 + 0xe8] = a5\n 41874: u64 [s1 + 0xe0] = a0\n 41878: u64 [s1 + 0x90] = a2\n 41882: u64 [s1 + 0x88] = a1\n 41886: a2 = s1 + 0xe0\n 41890: a3 = s1 + 0xc0\n 41894: a4 = s1 + 0xa0\n 41898: a5 = s1 + 0x80\n 41902: u64 [s1 + 0x80] = t0\n 41906: a0 = 0\n 41908: a1 = 0\n 41910: ra = 0x662\n 41914: t0 = 0xa\n 41917: jump @1825\n      : @1620 [@dyn 817] (gas: 4)\n 41920: a0 = 0\n 41922: a1 = 0x1\n 41925: a2 = u64 [s1 + 0x58]\n 41928: t0 = 1636, jump @1769\n      : @1621 [@dyn 818] (gas: 1)\n 41934: ret\n      : @1622 [@dyn 819] (gas: 22)\n 41936: u64 [s1 + 0x50] = a3\n 41939: a3 = u64 [a2 + 0x8]\n 41942: u64 [s1 + 0x70] = a3\n 41945: a2 = u64 [a2]\n 41947: u64 [s1 + 0x78] = a2\n 41950: a2 = u64 [a1]\n 41952: a3 = u64 [a1 + 0x8]\n 41955: a4 = u64 [a1 + 0x10]\n 41958: a1 = u64 [a1 + 0x18]\n 41961: u64 [s1 + 0x58] = a0\n 41964: u64 [s1 + 0x8] = a1\n 41967: a0 = s1 + 0x200\n 41971: u64 [a0 + 0x38] = a1\n 41974: u64 [s1 + 0x10] = a4\n 41977: u64 [a0 + 0x30] = a4\n 41980: u64 [s1 + 0x18] = a3\n 41983: u64 [a0 + 0x28] = a3\n 41986: a1 = s1 + 0x220\n 41990: u64 [s1 + 0x20] = a2\n 41993: u64 [a0 + 0x20] = a2\n 41996: a0 = 0\n 41998: ra = 1640, jump @9\n      : @1623 [@dyn 820] (gas: 1)\n 42005: t0 = 1642, jump @1773\n      : @1624 [@dyn 821] (gas: 1)\n 42011: ra = 1644, jump @9\n      : @1625 [@dyn 822] (gas: 3)\n 42018: a1 = 0x201f0\n 42023: a0 = i32 [0x201f0]\n 42028: jump @1627 if a0 >u 63\n      : @1626 (gas: 2)\n 42032: u32 [0x201f0] = 0x40\n 42038: fallthrough\n      : @1627 (gas: 6)\n 42039: a0 = sp + 0xffffffffffffffe0\n 42042: a2 = a0 & 0xffffffffffffffe0\n 42045: u64 [s1 + 0x48] = a2\n 42048: sp = a2\n 42050: a0 = 0x20200\n 42055: t0 = 1646, jump @1822\n      : @1628 [@dyn 823] (gas: 4)\n 42061: ra = 0x670\n 42065: ecalli 8 // 'hash_keccak_256'\n 42067: t0 = 0x672\n 42071: jump @1763\n      : @1629 [@dyn 824] (gas: 1)\n 42074: t0 = 1650, jump @1763\n      : @1630 [@dyn 825] (gas: 1)\n 42080: ra = 1652, jump @9\n      : @1631 [@dyn 826] (gas: 1)\n 42087: t0 = 1654, jump @1803\n      : @1632 [@dyn 827] (gas: 1)\n 42093: ra = 1656, jump @9\n      : @1633 [@dyn 828] (gas: 3)\n 42100: a1 = u64 [s1 + 0x68]\n 42103: a0 = i32 [a1]\n 42105: jump @1635 if a0 >u 63\n      : @1634 (gas: 2)\n 42109: u32 [a1 + 0] = 0x40\n 42112: fallthrough\n      : @1635 (gas: 4)\n 42113: a0 = sp + 0xffffffffffffffe0\n 42116: a0 = a0 & 0xffffffffffffffe0\n 42119: u64 [s1 + 0x50] = a0\n 42122: t0 = 1658, jump @1776\n      : @1636 [@dyn 829] (gas: 4)\n 42128: ra = 0x67c\n 42132: ecalli 8 // 'hash_keccak_256'\n 42134: t0 = 0x67e\n 42138: jump @1787\n      : @1637 [@dyn 830] (gas: 1)\n 42141: t0 = 1662, jump @1787\n      : @1638 [@dyn 831] (gas: 1)\n 42147: ra = 1664, jump @11\n      : @1639 [@dyn 832] (gas: 2)\n 42154: a0 = u8 [s1 + 0x1a0]\n 42158: jump @1641 if a0 == 0\n      : @1640 (gas: 5)\n 42161: a1 = 0\n 42163: a0 = 0\n 42165: a2 = u64 [s1 + 0x58]\n 42168: t0 = 0x6a6\n 42172: jump @1769\n      : @1641 (gas: 12)\n 42175: a0 = u64 [s1 + 0x20]\n 42178: a2 = s1 + 0x100\n 42182: u64 [a2 + 0x80] = a0\n 42186: a0 = u64 [s1 + 0x18]\n 42189: u64 [a2 + 0x88] = a0\n 42193: a0 = u64 [s1 + 0x10]\n 42196: u64 [a2 + 0x90] = a0\n 42200: a1 = s1 + 0x180\n 42204: a0 = u64 [s1 + 0x8]\n 42207: u64 [a2 + 0x98] = a0\n 42211: a0 = 0\n 42213: ra = 1666, jump @9\n      : @1642 [@dyn 833] (gas: 1)\n 42220: t0 = 1668, jump @1772\n      : @1643 [@dyn 834] (gas: 1)\n 42226: ra = 1670, jump @9\n      : @1644 [@dyn 835] (gas: 3)\n 42233: a1 = u64 [s1 + 0x68]\n 42236: a0 = i32 [a1]\n 42238: jump @1646 if a0 >u 63\n      : @1645 (gas: 2)\n 42242: u32 [a1 + 0] = 0x40\n 42245: fallthrough\n      : @1646 (gas: 4)\n 42246: a0 = sp + 0xffffffffffffffe0\n 42249: a0 = a0 & 0xffffffffffffffe0\n 42252: u64 [s1 + 0x50] = a0\n 42255: t0 = 1672, jump @1776\n      : @1647 [@dyn 836] (gas: 4)\n 42261: ra = 0x68a\n 42265: ecalli 8 // 'hash_keccak_256'\n 42267: t0 = 0x68c\n 42271: jump @1766\n      : @1648 [@dyn 837] (gas: 1)\n 42274: t0 = 1676, jump @1766\n      : @1649 [@dyn 838] (gas: 1)\n 42280: ra = 1678, jump @9\n      : @1650 [@dyn 839] (gas: 1)\n 42287: t0 = 1680, jump @1798\n      : @1651 [@dyn 840] (gas: 1)\n 42293: ra = 1682, jump @9\n      : @1652 [@dyn 841] (gas: 3)\n 42300: a1 = u64 [s1 + 0x68]\n 42303: a0 = i32 [a1]\n 42305: jump @1654 if a0 >u 63\n      : @1653 (gas: 2)\n 42309: u32 [a1 + 0] = 0x40\n 42312: fallthrough\n      : @1654 (gas: 4)\n 42313: a0 = sp + 0xffffffffffffffe0\n 42316: a0 = a0 & 0xffffffffffffffe0\n 42319: u64 [s1 + 0x68] = a0\n 42322: t0 = 1684, jump @1776\n      : @1655 [@dyn 842] (gas: 4)\n 42328: ra = 0x696\n 42332: ecalli 8 // 'hash_keccak_256'\n 42334: t0 = 0x698\n 42338: jump @1783\n      : @1656 [@dyn 843] (gas: 1)\n 42341: t0 = 1688, jump @1783\n      : @1657 [@dyn 844] (gas: 1)\n 42347: ra = 1690, jump @11\n      : @1658 [@dyn 845] (gas: 1)\n 42354: t0 = 1692, jump @1791\n      : @1659 [@dyn 846] (gas: 1)\n 42360: ra = 1694, jump @12\n      : @1660 [@dyn 847] (gas: 8)\n 42367: a0 = 0x30200\n 42372: u64 [s1 + 0x68] = a0\n 42375: i32 a0 = a0 + 0\n 42377: ra = 0x6a0\n 42381: ecalli 4 // 'caller'\n 42383: a2 = u64 [s1 + 0x68]\n 42386: t0 = 0x6a2\n 42390: jump @1767\n      : @1661 [@dyn 848] (gas: 2)\n 42393: a2 = u64 [s1 + 0x68]\n 42396: t0 = 1698, jump @1767\n      : @1662 [@dyn 849] (gas: 42)\n 42402: t0 = a1 | a0\n 42405: a3 = a3 >> 0x20\n 42408: a2 = reverse a2\n 42410: a1 = a2 << 0x20\n 42413: a1 = a1 | a3\n 42416: a2 = a2 >> 0x20\n 42419: u64 [s1 + 152] = 0\n 42423: u64 [s1 + 184] = 0\n 42427: a0 = u64 [s1]\n 42429: u64 [s1 + 0xb0] = a0\n 42433: a0 = u64 [s1 + 0x70]\n 42436: u64 [s1 + 0xa8] = a0\n 42440: a0 = u64 [s1 + 0x78]\n 42443: u64 [s1 + 0xa0] = a0\n 42447: a0 = u64 [s1 + 0x8]\n 42450: u64 [s1 + 0xd8] = a0\n 42454: a0 = u64 [s1 + 0x10]\n 42457: u64 [s1 + 0xd0] = a0\n 42461: a0 = u64 [s1 + 0x18]\n 42464: u64 [s1 + 0xc8] = a0\n 42468: a0 = u64 [s1 + 0x20]\n 42471: u64 [s1 + 0xc0] = a0\n 42475: a3 = u64 [0x20168]\n 42480: a4 = u64 [0x20170]\n 42485: a5 = u64 [0x20178]\n 42490: a0 = u64 [0x20180]\n 42495: u64 [s1 + 0xf8] = a3\n 42499: u64 [s1 + 0xf0] = a4\n 42503: u64 [s1 + 0xe8] = a5\n 42507: u64 [s1 + 0xe0] = a0\n 42511: u64 [s1 + 0x90] = a2\n 42515: u64 [s1 + 0x88] = a1\n 42519: a2 = s1 + 0xe0\n 42523: a3 = s1 + 0xc0\n 42527: a4 = s1 + 0xa0\n 42531: a5 = s1 + 0x80\n 42535: u64 [s1 + 0x80] = t0\n 42539: a0 = 0\n 42541: a1 = 0\n 42543: ra = 0x6a4\n 42547: t0 = 0xa\n 42550: jump @1825\n      : @1663 [@dyn 850] (gas: 4)\n 42553: a0 = 0\n 42555: a1 = 0x1\n 42558: a2 = u64 [s1 + 0x58]\n 42561: t0 = 1702, jump @1769\n      : @1664 [@dyn 851] (gas: 1)\n 42567: ret\n      : @1665 [@dyn 852] (gas: 22)\n 42569: u64 [s1 + 0x38] = a2\n 42572: a2 = u64 [a1 + 0x8]\n 42575: u64 [s1 + 0x70] = a2\n 42578: a1 = u64 [a1]\n 42580: u64 [s1 + 0x78] = a1\n 42583: u64 [s1 + 0x30] = a0\n 42586: a0 = u64 [0x20188]\n 42591: u64 [s1 + 0x58] = a0\n 42594: a3 = s1 + 0x200\n 42598: u64 [a3 + 0x38] = a0\n 42601: a1 = u64 [0x20190]\n 42606: a2 = u64 [0x20198]\n 42611: a0 = u64 [0x201a0]\n 42616: u64 [s1 + 0x50] = a1\n 42619: u64 [a3 + 0x30] = a1\n 42622: u64 [s1 + 0x48] = a2\n 42625: u64 [a3 + 0x28] = a2\n 42628: a1 = s1 + 0x220\n 42632: u64 [s1 + 0x40] = a0\n 42635: u64 [a3 + 0x20] = a0\n 42638: a0 = 0\n 42640: ra = 1706, jump @9\n      : @1666 [@dyn 853] (gas: 1)\n 42647: t0 = 1708, jump @1773\n      : @1667 [@dyn 854] (gas: 1)\n 42653: ra = 1710, jump @9\n      : @1668 [@dyn 855] (gas: 3)\n 42660: a1 = 0x201f0\n 42665: a0 = i32 [0x201f0]\n 42670: jump @1670 if a0 >u 63\n      : @1669 (gas: 2)\n 42674: u32 [0x201f0] = 0x40\n 42680: fallthrough\n      : @1670 (gas: 6)\n 42681: a0 = sp + 0xffffffffffffffe0\n 42684: a2 = a0 & 0xffffffffffffffe0\n 42687: u64 [s1 + 0x28] = a2\n 42690: sp = a2\n 42692: a0 = 0x20200\n 42697: t0 = 1712, jump @1822\n      : @1671 [@dyn 856] (gas: 4)\n 42703: ra = 0x6b2\n 42707: ecalli 8 // 'hash_keccak_256'\n 42709: t0 = 0x6b4\n 42713: jump @1762\n      : @1672 [@dyn 857] (gas: 1)\n 42716: t0 = 1716, jump @1762\n      : @1673 [@dyn 858] (gas: 1)\n 42722: ra = 1718, jump @9\n      : @1674 [@dyn 859] (gas: 1)\n 42729: t0 = 1720, jump @1801\n      : @1675 [@dyn 860] (gas: 1)\n 42735: ra = 1722, jump @9\n      : @1676 [@dyn 861] (gas: 3)\n 42742: a1 = u64 [s1 + 0x68]\n 42745: a0 = i32 [a1]\n 42747: jump @1678 if a0 >u 63\n      : @1677 (gas: 2)\n 42751: u32 [a1 + 0] = 0x40\n 42754: fallthrough\n      : @1678 (gas: 4)\n 42755: a0 = sp + 0xffffffffffffffe0\n 42758: a0 = a0 & 0xffffffffffffffe0\n 42761: u64 [s1 + 0x20] = a0\n 42764: t0 = 1724, jump @1776\n      : @1679 [@dyn 862] (gas: 4)\n 42770: ra = 0x6be\n 42774: ecalli 8 // 'hash_keccak_256'\n 42776: t0 = 0x6c0\n 42780: jump @1786\n      : @1680 [@dyn 863] (gas: 1)\n 42783: t0 = 1728, jump @1786\n      : @1681 [@dyn 864] (gas: 1)\n 42789: ra = 1730, jump @11\n      : @1682 [@dyn 865] (gas: 2)\n 42796: a0 = u8 [s1 + 0x1a0]\n 42800: jump @1706 if a0 == 0\n      : @1683 (gas: 12)\n 42804: a0 = u64 [s1 + 0x58]\n 42807: a2 = s1 + 0x100\n 42811: u64 [a2 + 0x98] = a0\n 42815: a0 = u64 [s1 + 0x50]\n 42818: u64 [a2 + 0x90] = a0\n 42822: a0 = u64 [s1 + 0x48]\n 42825: u64 [a2 + 0x88] = a0\n 42829: a1 = s1 + 0x180\n 42833: a0 = u64 [s1 + 0x40]\n 42836: u64 [a2 + 0x80] = a0\n 42840: a0 = 0\n 42842: ra = 1732, jump @9\n      : @1684 [@dyn 866] (gas: 1)\n 42849: t0 = 1734, jump @1772\n      : @1685 [@dyn 867] (gas: 1)\n 42855: ra = 1736, jump @9\n      : @1686 [@dyn 868] (gas: 3)\n 42862: a1 = u64 [s1 + 0x68]\n 42865: a0 = i32 [a1]\n 42867: jump @1688 if a0 >u 63\n      : @1687 (gas: 2)\n 42871: u32 [a1 + 0] = 0x40\n 42874: fallthrough\n      : @1688 (gas: 4)\n 42875: a0 = sp + 0xffffffffffffffe0\n 42878: a0 = a0 & 0xffffffffffffffe0\n 42881: u64 [s1 + 0x28] = a0\n 42884: t0 = 1738, jump @1776\n      : @1689 [@dyn 869] (gas: 4)\n 42890: ra = 0x6cc\n 42894: ecalli 8 // 'hash_keccak_256'\n 42896: t0 = 0x6ce\n 42900: jump @1764\n      : @1690 [@dyn 870] (gas: 1)\n 42903: t0 = 1742, jump @1764\n      : @1691 [@dyn 871] (gas: 1)\n 42909: ra = 1744, jump @9\n      : @1692 [@dyn 872] (gas: 1)\n 42916: t0 = 1746, jump @1802\n      : @1693 [@dyn 873] (gas: 1)\n 42922: ra = 1748, jump @9\n      : @1694 [@dyn 874] (gas: 3)\n 42929: a1 = u64 [s1 + 0x68]\n 42932: a0 = i32 [a1]\n 42934: jump @1696 if a0 >u 63\n      : @1695 (gas: 2)\n 42938: u32 [a1 + 0] = 0x40\n 42941: fallthrough\n      : @1696 (gas: 4)\n 42942: a0 = sp + 0xffffffffffffffe0\n 42945: a0 = a0 & 0xffffffffffffffe0\n 42948: u64 [s1 + 0x68] = a0\n 42951: t0 = 1750, jump @1776\n      : @1697 [@dyn 875] (gas: 4)\n 42957: ra = 0x6d8\n 42961: ecalli 8 // 'hash_keccak_256'\n 42963: t0 = 0x6da\n 42967: jump @1782\n      : @1698 [@dyn 876] (gas: 1)\n 42970: t0 = 1754, jump @1782\n      : @1699 [@dyn 877] (gas: 1)\n 42976: ra = 1756, jump @11\n      : @1700 [@dyn 878] (gas: 1)\n 42983: t0 = 1758, jump @1792\n      : @1701 [@dyn 879] (gas: 1)\n 42989: ra = 1760, jump @12\n      : @1702 [@dyn 880] (gas: 8)\n 42996: a0 = 0x30200\n 43001: u64 [s1 + 0x68] = a0\n 43004: i32 a0 = a0 + 0\n 43006: ra = 0x6e2\n 43010: ecalli 4 // 'caller'\n 43012: a2 = u64 [s1 + 0x68]\n 43015: t0 = 0x6e4\n 43019: jump @1767\n      : @1703 [@dyn 881] (gas: 2)\n 43022: a2 = u64 [s1 + 0x68]\n 43025: t0 = 1764, jump @1767\n      : @1704 [@dyn 882] (gas: 42)\n 43031: t0 = a1 | a0\n 43034: a3 = a3 >> 0x20\n 43037: a2 = reverse a2\n 43039: a1 = a2 << 0x20\n 43042: a1 = a1 | a3\n 43045: a2 = a2 >> 0x20\n 43048: u64 [s1 + 152] = 0\n 43052: u64 [s1 + 184] = 0\n 43056: a0 = u64 [s1 + 0x38]\n 43059: u64 [s1 + 0xb0] = a0\n 43063: a0 = u64 [s1 + 0x70]\n 43066: u64 [s1 + 0xa8] = a0\n 43070: a0 = u64 [s1 + 0x78]\n 43073: u64 [s1 + 0xa0] = a0\n 43077: a0 = u64 [s1 + 0x58]\n 43080: u64 [s1 + 0xd8] = a0\n 43084: a0 = u64 [s1 + 0x50]\n 43087: u64 [s1 + 0xd0] = a0\n 43091: a0 = u64 [s1 + 0x48]\n 43094: u64 [s1 + 0xc8] = a0\n 43098: a0 = u64 [s1 + 0x40]\n 43101: u64 [s1 + 0xc0] = a0\n 43105: a3 = u64 [0x201a8]\n 43110: a4 = u64 [0x201b0]\n 43115: a5 = u64 [0x201b8]\n 43120: a0 = u64 [0x201c0]\n 43125: u64 [s1 + 0xf8] = a3\n 43129: u64 [s1 + 0xf0] = a4\n 43133: u64 [s1 + 0xe8] = a5\n 43137: u64 [s1 + 0xe0] = a0\n 43141: u64 [s1 + 0x90] = a2\n 43145: u64 [s1 + 0x88] = a1\n 43149: a2 = s1 + 0xe0\n 43153: a3 = s1 + 0xc0\n 43157: a4 = s1 + 0xa0\n 43161: a5 = s1 + 0x80\n 43165: u64 [s1 + 0x80] = t0\n 43169: a0 = 0\n 43171: a1 = 0\n 43173: ra = 0x6e6\n 43177: t0 = 0xa\n 43180: jump @1825\n      : @1705 [@dyn 883] (gas: 5)\n 43183: a0 = 0\n 43185: a1 = 0x1\n 43188: a2 = u64 [s1 + 0x30]\n 43191: t0 = 0x6e8\n 43195: jump @1769\n      : @1706 (gas: 3)\n 43198: a1 = 0\n 43200: a2 = u64 [s1 + 0x30]\n 43203: t0 = 1768, jump @1769\n      : @1707 [@dyn 884] (gas: 1)\n 43209: ret\n      : @1708 [@dyn 885] (gas: 22)\n 43211: u64 [s1 + 0x38] = a3\n 43214: a3 = u64 [a2 + 0x8]\n 43217: u64 [s1 + 0x70] = a3\n 43220: a2 = u64 [a2]\n 43222: u64 [s1 + 0x78] = a2\n 43225: a2 = u64 [a1]\n 43227: a3 = u64 [a1 + 0x8]\n 43230: a4 = u64 [a1 + 0x10]\n 43233: a1 = u64 [a1 + 0x18]\n 43236: u64 [s1 + 0x30] = a0\n 43239: u64 [s1 + 0x40] = a1\n 43242: a0 = s1 + 0x200\n 43246: u64 [a0 + 0x38] = a1\n 43249: u64 [s1 + 0x48] = a4\n 43252: u64 [a0 + 0x30] = a4\n 43255: u64 [s1 + 0x50] = a3\n 43258: u64 [a0 + 0x28] = a3\n 43261: a1 = s1 + 0x220\n 43265: u64 [s1 + 0x58] = a2\n 43268: u64 [a0 + 0x20] = a2\n 43271: a0 = 0\n 43273: ra = 1772, jump @9\n      : @1709 [@dyn 886] (gas: 1)\n 43280: t0 = 1774, jump @1773\n      : @1710 [@dyn 887] (gas: 1)\n 43286: ra = 1776, jump @9\n      : @1711 [@dyn 888] (gas: 3)\n 43293: a1 = 0x201f0\n 43298: a0 = i32 [0x201f0]\n 43303: jump @1713 if a0 >u 63\n      : @1712 (gas: 2)\n 43307: u32 [0x201f0] = 0x40\n 43313: fallthrough\n      : @1713 (gas: 6)\n 43314: a0 = sp + 0xffffffffffffffe0\n 43317: a2 = a0 & 0xffffffffffffffe0\n 43320: u64 [s1 + 0x28] = a2\n 43323: sp = a2\n 43325: a0 = 0x20200\n 43330: t0 = 1778, jump @1822\n      : @1714 [@dyn 889] (gas: 4)\n 43336: ra = 0x6f4\n 43340: ecalli 8 // 'hash_keccak_256'\n 43342: t0 = 0x6f6\n 43346: jump @1762\n      : @1715 [@dyn 890] (gas: 1)\n 43349: t0 = 1782, jump @1762\n      : @1716 [@dyn 891] (gas: 1)\n 43355: ra = 1784, jump @9\n      : @1717 [@dyn 892] (gas: 1)\n 43362: t0 = 1786, jump @1801\n      : @1718 [@dyn 893] (gas: 1)\n 43368: ra = 1788, jump @9\n      : @1719 [@dyn 894] (gas: 3)\n 43375: a1 = u64 [s1 + 0x68]\n 43378: a0 = i32 [a1]\n 43380: jump @1721 if a0 >u 63\n      : @1720 (gas: 2)\n 43384: u32 [a1 + 0] = 0x40\n 43387: fallthrough\n      : @1721 (gas: 4)\n 43388: a0 = sp + 0xffffffffffffffe0\n 43391: a0 = a0 & 0xffffffffffffffe0\n 43394: u64 [s1 + 0x20] = a0\n 43397: t0 = 1790, jump @1776\n      : @1722 [@dyn 895] (gas: 4)\n 43403: ra = 0x700\n 43407: ecalli 8 // 'hash_keccak_256'\n 43409: t0 = 0x702\n 43413: jump @1786\n      : @1723 [@dyn 896] (gas: 1)\n 43416: t0 = 1794, jump @1786\n      : @1724 [@dyn 897] (gas: 1)\n 43422: ra = 1796, jump @11\n      : @1725 [@dyn 898] (gas: 2)\n 43429: a0 = u8 [s1 + 0x1a0]\n 43433: jump @1749 if a0 == 0\n      : @1726 (gas: 12)\n 43437: a0 = u64 [s1 + 0x58]\n 43440: a2 = s1 + 0x100\n 43444: u64 [a2 + 0x80] = a0\n 43448: a0 = u64 [s1 + 0x50]\n 43451: u64 [a2 + 0x88] = a0\n 43455: a0 = u64 [s1 + 0x48]\n 43458: u64 [a2 + 0x90] = a0\n 43462: a1 = s1 + 0x180\n 43466: a0 = u64 [s1 + 0x40]\n 43469: u64 [a2 + 0x98] = a0\n 43473: a0 = 0\n 43475: ra = 1798, jump @9\n      : @1727 [@dyn 899] (gas: 1)\n 43482: t0 = 1800, jump @1772\n      : @1728 [@dyn 900] (gas: 1)\n 43488: ra = 1802, jump @9\n      : @1729 [@dyn 901] (gas: 3)\n 43495: a1 = u64 [s1 + 0x68]\n 43498: a0 = i32 [a1]\n 43500: jump @1731 if a0 >u 63\n      : @1730 (gas: 2)\n 43504: u32 [a1 + 0] = 0x40\n 43507: fallthrough\n      : @1731 (gas: 4)\n 43508: a0 = sp + 0xffffffffffffffe0\n 43511: a0 = a0 & 0xffffffffffffffe0\n 43514: u64 [s1 + 0x28] = a0\n 43517: t0 = 1804, jump @1776\n      : @1732 [@dyn 902] (gas: 4)\n 43523: ra = 0x70e\n 43527: ecalli 8 // 'hash_keccak_256'\n 43529: t0 = 0x710\n 43533: jump @1764\n      : @1733 [@dyn 903] (gas: 1)\n 43536: t0 = 1808, jump @1764\n      : @1734 [@dyn 904] (gas: 1)\n 43542: ra = 1810, jump @9\n      : @1735 [@dyn 905] (gas: 1)\n 43549: t0 = 1812, jump @1802\n      : @1736 [@dyn 906] (gas: 1)\n 43555: ra = 1814, jump @9\n      : @1737 [@dyn 907] (gas: 3)\n 43562: a1 = u64 [s1 + 0x68]\n 43565: a0 = i32 [a1]\n 43567: jump @1739 if a0 >u 63\n      : @1738 (gas: 2)\n 43571: u32 [a1 + 0] = 0x40\n 43574: fallthrough\n      : @1739 (gas: 4)\n 43575: a0 = sp + 0xffffffffffffffe0\n 43578: a0 = a0 & 0xffffffffffffffe0\n 43581: u64 [s1 + 0x68] = a0\n 43584: t0 = 1816, jump @1776\n      : @1740 [@dyn 908] (gas: 4)\n 43590: ra = 0x71a\n 43594: ecalli 8 // 'hash_keccak_256'\n 43596: t0 = 0x71c\n 43600: jump @1782\n      : @1741 [@dyn 909] (gas: 1)\n 43603: t0 = 1820, jump @1782\n      : @1742 [@dyn 910] (gas: 1)\n 43609: ra = 1822, jump @11\n      : @1743 [@dyn 911] (gas: 1)\n 43616: t0 = 1824, jump @1792\n      : @1744 [@dyn 912] (gas: 1)\n 43622: ra = 1826, jump @12\n      : @1745 [@dyn 913] (gas: 8)\n 43629: a0 = 0x30200\n 43634: u64 [s1 + 0x68] = a0\n 43637: i32 a0 = a0 + 0\n 43639: ra = 0x724\n 43643: ecalli 4 // 'caller'\n 43645: a2 = u64 [s1 + 0x68]\n 43648: t0 = 0x726\n 43652: jump @1767\n      : @1746 [@dyn 914] (gas: 2)\n 43655: a2 = u64 [s1 + 0x68]\n 43658: t0 = 1830, jump @1767\n      : @1747 [@dyn 915] (gas: 42)\n 43664: t0 = a1 | a0\n 43667: a3 = a3 >> 0x20\n 43670: a2 = reverse a2\n 43672: a1 = a2 << 0x20\n 43675: a1 = a1 | a3\n 43678: a2 = a2 >> 0x20\n 43681: u64 [s1 + 152] = 0\n 43685: u64 [s1 + 184] = 0\n 43689: a0 = u64 [s1 + 0x38]\n 43692: u64 [s1 + 0xb0] = a0\n 43696: a0 = u64 [s1 + 0x70]\n 43699: u64 [s1 + 0xa8] = a0\n 43703: a0 = u64 [s1 + 0x78]\n 43706: u64 [s1 + 0xa0] = a0\n 43710: a0 = u64 [s1 + 0x40]\n 43713: u64 [s1 + 0xd8] = a0\n 43717: a0 = u64 [s1 + 0x48]\n 43720: u64 [s1 + 0xd0] = a0\n 43724: a0 = u64 [s1 + 0x50]\n 43727: u64 [s1 + 0xc8] = a0\n 43731: a0 = u64 [s1 + 0x58]\n 43734: u64 [s1 + 0xc0] = a0\n 43738: a3 = u64 [0x201c8]\n 43743: a4 = u64 [0x201d0]\n 43748: a5 = u64 [0x201d8]\n 43753: a0 = u64 [0x201e0]\n 43758: u64 [s1 + 0xf8] = a3\n 43762: u64 [s1 + 0xf0] = a4\n 43766: u64 [s1 + 0xe8] = a5\n 43770: u64 [s1 + 0xe0] = a0\n 43774: u64 [s1 + 0x90] = a2\n 43778: u64 [s1 + 0x88] = a1\n 43782: a2 = s1 + 0xe0\n 43786: a3 = s1 + 0xc0\n 43790: a4 = s1 + 0xa0\n 43794: a5 = s1 + 0x80\n 43798: u64 [s1 + 0x80] = t0\n 43802: a0 = 0\n 43804: a1 = 0\n 43806: ra = 0x728\n 43810: t0 = 0xa\n 43813: jump @1825\n      : @1748 [@dyn 916] (gas: 5)\n 43816: a0 = 0\n 43818: a1 = 0x1\n 43821: a2 = u64 [s1 + 0x30]\n 43824: t0 = 0x72a\n 43828: jump @1769\n      : @1749 (gas: 3)\n 43831: a1 = 0\n 43833: a2 = u64 [s1 + 0x30]\n 43836: t0 = 1834, jump @1769\n      : @1750 [@dyn 917] (gas: 1)\n 43842: ret\n      : @1751 [export #0: 'call'] (gas: 2)\n 43844: a0 = 0\n 43846: ra = 1836, jump @24\n      : @1752 [@dyn 918] [export #1: 'deploy'] (gas: 2)\n 43853: a0 = 0x1\n 43856: ra = 1838, jump @24\n      : @1753 [@dyn 919] (gas: 15)\n 43863: a1 = a0 <u a1\n 43866: a5 = a3 + a1\n 43869: a3 = a5 <u a3\n 43872: a3 = a1 if a1 == 0\n 43875: a3 = a3 + a4\n 43878: a1 = a3 <u a4\n 43881: a1 = a1 + a2\n 43884: a2 = a0 | a3\n 43887: a1 = a1 | a5\n 43890: a2 = a2 | a1\n 43893: a2 = a2 >> 0x20\n 43896: a1 = a1 | a3\n 43899: a1 = a1 << 0x20\n 43902: a1 = a1 | a2\n 43905: jump [t0]\n      : @1754 (gas: 9)\n 43907: a1 = u64 [s1 + 0x110]\n 43911: a2 = u64 [s1 + 0x190]\n 43915: a1 = a2 <u a1\n 43918: a2 = u64 [s1 + 0xf8]\n 43922: a4 = u64 [s1 + 0x178]\n 43926: a3 = a4 ^ a2\n 43929: a4 = a4 <u a2\n 43932: a4 = a1 if a3 == 0\n 43935: jump [t0]\n      : @1755 (gas: 9)\n 43937: a1 = a0 | ra\n 43940: a2 = u64 [s1 + 0x270]\n 43944: a3 = t1 | a2\n 43947: a1 = a1 | a3\n 43950: a1 = a1 >> 0x20\n 43953: a2 = a3 | ra\n 43956: a2 = a2 << 0x20\n 43959: a1 = a1 | a2\n 43962: jump [t0]\n      : @1756 (gas: 6)\n 43964: a0 = u64 [s1 + 0x278]\n 43968: a1 = u64 [a0]\n 43970: a2 = u64 [a0 + 0x18]\n 43973: a3 = u64 [a0 + 0x8]\n 43976: a4 = u64 [a0 + 0x10]\n 43979: jump [t0]\n      : @1757 (gas: 4)\n 43981: a1 = a1 >u 0\n 43983: a2 = s1 + 0x7ff\n 43987: a2 = a2 + 0x1f9\n 43991: jump [t0]\n      : @1758 (gas: 21)\n 43993: a2 = u64 [s1 + 0x68]\n 43996: a0 = u64 [a2 + 0x8]\n 43999: a1 = i32 [a2 + 0x10]\n 44002: a2 = u64 [a2]\n 44004: a0 = reverse a0\n 44006: a3 = a0 << 0x20\n 44009: a1 = reverse a1\n 44011: a1 = a1 >> 0x20\n 44014: a3 = a3 | a1\n 44017: a0 = a0 >> 0x20\n 44020: a1 = reverse a2\n 44022: a2 = a1 << 0x20\n 44025: a0 = a0 | a2\n 44028: a1 = a1 >> 0x20\n 44031: u64 [s1 + 312] = 0\n 44035: u64 [s1 + 0x130] = a1\n 44039: u64 [s1 + 0x128] = a0\n 44043: a1 = s1 + 0x120\n 44047: u64 [s1 + 0x120] = a3\n 44051: a0 = 0\n 44053: jump [t0]\n      : @1759 (gas: 7)\n 44055: a1 = u64 [s1 + 0x1d8]\n 44059: a0 = a1 <u a0\n 44062: a1 = u64 [s1 + 0x1d0]\n 44066: a0 = 0 if a1 != 0\n 44068: a1 = u64 [s1 + 0x250]\n 44072: a0 = 0 if a1 != 0\n 44074: jump [t0]\n      : @1760 (gas: 21)\n 44076: a2 = u64 [s1 + 0x68]\n 44079: a0 = u64 [a2 + 0x8]\n 44082: a1 = i32 [a2 + 0x10]\n 44085: a2 = u64 [a2]\n 44087: a0 = reverse a0\n 44089: a3 = a0 << 0x20\n 44092: a1 = reverse a1\n 44094: a1 = a1 >> 0x20\n 44097: a3 = a3 | a1\n 44100: a0 = a0 >> 0x20\n 44103: a1 = reverse a2\n 44105: a2 = a1 << 0x20\n 44108: a0 = a0 | a2\n 44111: a1 = a1 >> 0x20\n 44114: u64 [s1 + 184] = 0\n 44118: u64 [s1 + 0xb0] = a1\n 44122: u64 [s1 + 0xa8] = a0\n 44126: a0 = 0x4\n 44129: a1 = s1 + 0xa0\n 44133: u64 [s1 + 0xa0] = a3\n 44137: jump [t0]\n      : @1761 (gas: 18)\n 44139: a3 = u64 [s1 + 0x68]\n 44142: a0 = u64 [a3 + 0x18]\n 44145: a1 = u64 [a3 + 0x10]\n 44148: a2 = u64 [a3 + 0x8]\n 44151: a3 = u64 [a3]\n 44153: a0 = reverse a0\n 44155: u64 [s1 + 0x58] = a0\n 44158: a0 = reverse a1\n 44160: u64 [s1 + 0x50] = a0\n 44163: a0 = reverse a2\n 44165: u64 [s1 + 0x48] = a0\n 44168: a0 = reverse a3\n 44170: u64 [s1 + 0x40] = a0\n 44173: a0 = sp + 0xffffffffffffffe0\n 44176: a0 = a0 & 0xffffffffffffffe0\n 44179: u64 [s1 + 0x60] = a0\n 44182: sp = a0\n 44184: jump [t0]\n      : @1762 (gas: 30)\n 44186: a3 = u64 [s1 + 0x28]\n 44189: a0 = u64 [a3 + 0x18]\n 44192: a1 = u64 [a3 + 0x10]\n 44195: a2 = u64 [a3 + 0x8]\n 44198: a3 = u64 [a3]\n 44200: a0 = reverse a0\n 44202: u64 [s1 + 0x20] = a0\n 44205: a0 = reverse a1\n 44207: u64 [s1 + 0x18] = a0\n 44210: a0 = reverse a2\n 44212: u64 [s1 + 0x10] = a0\n 44215: a0 = reverse a3\n 44217: u64 [s1 + 0x8] = a0\n 44220: a0 = sp + 0xffffffffffffffe0\n 44223: a0 = a0 & 0xffffffffffffffe0\n 44226: u64 [s1 + 0x28] = a0\n 44229: sp = a0\n 44231: a0 = u64 [s1 + 0x38]\n 44234: a0 = a0 << 0x20\n 44237: a0 = a0 >> 0x20\n 44240: u64 [s1 + 504] = 0\n 44244: u64 [s1 + 0x38] = a0\n 44247: u64 [s1 + 0x1f0] = a0\n 44251: a0 = u64 [s1 + 0x70]\n 44254: u64 [s1 + 0x1e8] = a0\n 44258: a1 = s1 + 0x1e0\n 44262: a0 = u64 [s1 + 0x78]\n 44265: u64 [s1 + 0x1e0] = a0\n 44269: a0 = 0\n 44271: jump [t0]\n      : @1763 (gas: 30)\n 44273: a3 = u64 [s1 + 0x48]\n 44276: a0 = u64 [a3 + 0x18]\n 44279: a1 = u64 [a3 + 0x10]\n 44282: a2 = u64 [a3 + 0x8]\n 44285: a3 = u64 [a3]\n 44287: a0 = reverse a0\n 44289: u64 [s1 + 0x40] = a0\n 44292: a0 = reverse a1\n 44294: u64 [s1 + 0x38] = a0\n 44297: a0 = reverse a2\n 44299: u64 [s1 + 0x30] = a0\n 44302: a0 = reverse a3\n 44304: u64 [s1 + 0x28] = a0\n 44307: a0 = sp + 0xffffffffffffffe0\n 44310: a0 = a0 & 0xffffffffffffffe0\n 44313: u64 [s1 + 0x48] = a0\n 44316: sp = a0\n 44318: a0 = u64 [s1 + 0x50]\n 44321: a0 = a0 << 0x20\n 44324: a0 = a0 >> 0x20\n 44327: u64 [s1 + 504] = 0\n 44331: u64 [s1] = a0\n 44333: u64 [s1 + 0x1f0] = a0\n 44337: a0 = u64 [s1 + 0x70]\n 44340: u64 [s1 + 0x1e8] = a0\n 44344: a1 = s1 + 0x1e0\n 44348: a0 = u64 [s1 + 0x78]\n 44351: u64 [s1 + 0x1e0] = a0\n 44355: a0 = 0\n 44357: jump [t0]\n      : @1764 (gas: 27)\n 44359: a3 = u64 [s1 + 0x28]\n 44362: a0 = u64 [a3 + 0x18]\n 44365: a1 = u64 [a3 + 0x10]\n 44368: a2 = u64 [a3 + 0x8]\n 44371: a3 = u64 [a3]\n 44373: a0 = reverse a0\n 44375: u64 [s1 + 0x20] = a0\n 44378: a0 = reverse a1\n 44380: u64 [s1 + 0x18] = a0\n 44383: a0 = reverse a2\n 44385: u64 [s1 + 0x10] = a0\n 44388: a0 = reverse a3\n 44390: u64 [s1 + 0x8] = a0\n 44393: a0 = sp + 0xffffffffffffffe0\n 44396: a0 = a0 & 0xffffffffffffffe0\n 44399: u64 [s1 + 0x28] = a0\n 44402: sp = a0\n 44404: u64 [s1 + 344] = 0\n 44408: a0 = u64 [s1 + 0x38]\n 44411: u64 [s1 + 0x150] = a0\n 44415: a0 = u64 [s1 + 0x70]\n 44418: u64 [s1 + 0x148] = a0\n 44422: a1 = s1 + 0x140\n 44426: a0 = u64 [s1 + 0x78]\n 44429: u64 [s1 + 0x140] = a0\n 44433: a0 = 0\n 44435: jump [t0]\n      : @1765 (gas: 16)\n 44437: a3 = u64 [s1 + 0x58]\n 44440: a0 = u64 [a3 + 0x18]\n 44443: a1 = u64 [a3 + 0x10]\n 44446: a2 = u64 [a3 + 0x8]\n 44449: a3 = u64 [a3]\n 44451: a0 = reverse a0\n 44453: a4 = reverse a1\n 44455: a2 = reverse a2\n 44457: a3 = reverse a3\n 44459: a1 = u64 [s1 + 0x60]\n 44462: u64 [a1 + 0x18] = a3\n 44465: u64 [a1 + 0x10] = a2\n 44468: u64 [a1 + 0x8] = a4\n 44471: u64 [a1] = a0\n 44473: a0 = s1 + 0xe0\n 44477: jump [t0]\n      : @1766 (gas: 27)\n 44479: a3 = u64 [s1 + 0x50]\n 44482: a0 = u64 [a3 + 0x18]\n 44485: a1 = u64 [a3 + 0x10]\n 44488: a2 = u64 [a3 + 0x8]\n 44491: a3 = u64 [a3]\n 44493: a0 = reverse a0\n 44495: u64 [s1 + 0x48] = a0\n 44498: a0 = reverse a1\n 44500: u64 [s1 + 0x40] = a0\n 44503: a0 = reverse a2\n 44505: u64 [s1 + 0x38] = a0\n 44508: a0 = reverse a3\n 44510: u64 [s1 + 0x30] = a0\n 44513: a0 = sp + 0xffffffffffffffe0\n 44516: a0 = a0 & 0xffffffffffffffe0\n 44519: u64 [s1 + 0x50] = a0\n 44522: sp = a0\n 44524: u64 [s1 + 344] = 0\n 44528: a0 = u64 [s1]\n 44530: u64 [s1 + 0x150] = a0\n 44534: a0 = u64 [s1 + 0x70]\n 44537: u64 [s1 + 0x148] = a0\n 44541: a1 = s1 + 0x140\n 44545: a0 = u64 [s1 + 0x78]\n 44548: u64 [s1 + 0x140] = a0\n 44552: a0 = 0\n 44554: jump [t0]\n      : @1767 (gas: 8)\n 44556: a0 = u64 [a2 + 0x8]\n 44559: a1 = i32 [a2 + 0x10]\n 44562: a2 = u64 [a2]\n 44564: a3 = reverse a0\n 44566: a0 = a3 << 0x20\n 44569: a1 = reverse a1\n 44571: a1 = a1 >> 0x20\n 44574: jump [t0]\n      : @1768 (gas: 14)\n 44576: a0 = u64 [a2 + 0x8]\n 44579: a1 = u64 [a2]\n 44581: a2 = i32 [a2 + 0x10]\n 44584: a0 = reverse a0\n 44586: a3 = a0 >> 0x20\n 44589: a1 = reverse a1\n 44591: a4 = a1 << 0x20\n 44594: a3 = a3 | a4\n 44597: a0 = a0 << 0x20\n 44600: a2 = reverse a2\n 44602: a2 = a2 >> 0x20\n 44605: a0 = a0 | a2\n 44608: a1 = a1 >> 0x20\n 44611: jump [t0]\n      : @1769 (gas: 11)\n 44613: u64 [a2] = a1\n 44615: u64 [a2 + 0x8] = a0\n 44618: u64 [a2 + 0x10] = a0\n 44621: u64 [a2 + 0x18] = a0\n 44624: sp = s0 + 0xfffffffffffffd80\n 44628: a0 = sp + 0x200\n 44632: ra = u64 [a0 + 0x78]\n 44635: s0 = u64 [a0 + 0x70]\n 44638: s1 = u64 [a0 + 0x68]\n 44641: sp = sp + 0x280\n 44645: jump [t0]\n      : @1770 (gas: 7)\n 44647: a1 = u64 [s1 + 0x98]\n 44651: a0 = a1 <u a0\n 44654: a1 = u64 [s1 + 0x90]\n 44658: a0 = 0 if a1 != 0\n 44660: a1 = u64 [s1 + 0x68]\n 44663: a0 = 0 if a1 != 0\n 44665: jump [t0]\n      : @1771 (gas: 7)\n 44667: u64 [s1 + 344] = 0\n 44671: u64 [s1 + 336] = 0\n 44675: u64 [s1 + 328] = 0\n 44679: a0 = 0x20\n 44682: a1 = s1 + 0x140\n 44686: u64 [s1 + 320] = 0\n 44690: jump [t0]\n      : @1772 (gas: 7)\n 44692: u64 [s1 + 376] = 0\n 44696: u64 [s1 + 368] = 0\n 44700: u64 [s1 + 360] = 0\n 44704: a0 = 0x20\n 44707: a1 = s1 + 0x160\n 44711: u64 [s1 + 352] = 0\n 44715: jump [t0]\n      : @1773 (gas: 7)\n 44717: u64 [s1 + 536] = 0\n 44721: u64 [s1 + 528] = 0\n 44725: u64 [s1 + 520] = 0\n 44729: a0 = 0x20\n 44732: a1 = s1 + 0x200\n 44736: u64 [s1 + 512] = 0\n 44740: jump [t0]\n      : @1774 (gas: 8)\n 44742: u64 [s1 + 208] = 0\n 44746: u64 [s1 + 200] = 0\n 44750: u64 [s1 + 192] = 0\n 44754: a0 = 0xe2517d3f00000000\n 44764: a1 = s1 + 0xc0\n 44768: u64 [s1 + 0xd8] = a0\n 44772: a0 = 0\n 44774: jump [t0]\n      : @1775 (gas: 9)\n 44776: a2 = s1 + 0x200\n 44780: a3 = u64 [a2 + 0x78]\n 44783: a0 = 0xffffffbc\n 44793: a0 = a3 <u a0\n 44796: a1 = u64 [a2 + 0x70]\n 44799: a0 = 0 if a1 != 0\n 44801: a1 = u64 [a2 + 0x68]\n 44804: a0 = 0 if a1 != 0\n 44806: jump [t0]\n      : @1776 (gas: 5)\n 44808: sp = a0\n 44810: i32 a2 = a0 + 0\n 44812: a1 = 0x40\n 44815: a0 = u64 [s1 + 0x60]\n 44818: jump [t0]\n      : @1777 (gas: 12)\n 44820: a0 = u64 [s1 + 0x40]\n 44823: a3 = s1 + 0x100\n 44827: u64 [a3 + 0x18] = a0\n 44830: a0 = u64 [s1 + 0x48]\n 44833: u64 [a3 + 0x10] = a0\n 44836: a0 = u64 [s1 + 0x50]\n 44839: u64 [a3 + 0x8] = a0\n 44842: a0 = 0x20\n 44845: a1 = s1 + 0x100\n 44849: a2 = u64 [s1 + 0x58]\n 44852: u64 [a3] = a2\n 44854: jump [t0]\n      : @1778 (gas: 5)\n 44856: a1 = a1 >u 0\n 44858: a2 = s1 + 0x7ff\n 44862: a2 = a2 + 0x1f9\n 44866: a3 = 0\n 44868: jump [t0]\n      : @1779 (gas: 13)\n 44870: a4 = s1 + 0x200\n 44874: a1 = u64 [a4 + 0x70]\n 44877: a2 = u64 [a4 + 0x60]\n 44880: a1 = a1 | a2\n 44883: a3 = u64 [a4 + 0x68]\n 44886: a2 = u64 [a4 + 0x78]\n 44889: a2 = a2 | a3\n 44892: a2 = a2 | a1\n 44895: a2 = a2 >> 0x20\n 44898: a1 = a1 | a3\n 44901: a1 = a1 << 0x20\n 44904: a1 = a1 | a2\n 44907: jump [t0]\n      : @1780 (gas: 12)\n 44909: a1 = a0 <u a1\n 44912: a3 = u64 [s1 + 0x270]\n 44916: a2 = a3 + a1\n 44919: a3 = a2 <u a3\n 44922: a3 = a1 if a1 == 0\n 44925: a1 = u64 [s1 + 0x260]\n 44929: a3 = a3 + a1\n 44932: a1 = a3 <u a1\n 44935: a4 = u64 [s1 + 0x278]\n 44939: a1 = a1 + a4\n 44942: a4 = s1 + 0x31f8\n 44946: jump [t0]\n      : @1781 (gas: 12)\n 44948: a1 = u64 [a0 + 0x10]\n 44951: a2 = u64 [a0 + 0x18]\n 44954: a3 = u64 [a0 + 0x8]\n 44957: a0 = u64 [a0]\n 44959: a2 = a2 | a3\n 44962: a3 = a0 | a1\n 44965: a3 = a3 | a2\n 44968: a3 = a3 >> 0x20\n 44971: a1 = a1 | a2\n 44974: a1 = a1 << 0x20\n 44977: a1 = a1 | a3\n 44980: jump [t0]\n      : @1782 (gas: 16)\n 44982: a3 = u64 [s1 + 0x68]\n 44985: a0 = u64 [a3 + 0x18]\n 44988: a1 = u64 [a3 + 0x10]\n 44991: a2 = u64 [a3 + 0x8]\n 44994: a3 = u64 [a3]\n 44996: a0 = reverse a0\n 44998: a4 = reverse a1\n 45000: a2 = reverse a2\n 45002: a3 = reverse a3\n 45004: a1 = u64 [s1 + 0x28]\n 45007: u64 [a1 + 0x18] = a3\n 45010: u64 [a1 + 0x10] = a2\n 45013: u64 [a1 + 0x8] = a4\n 45016: u64 [a1] = a0\n 45018: a0 = s1 + 0x100\n 45022: jump [t0]\n      : @1783 (gas: 16)\n 45024: a3 = u64 [s1 + 0x68]\n 45027: a0 = u64 [a3 + 0x18]\n 45030: a1 = u64 [a3 + 0x10]\n 45033: a2 = u64 [a3 + 0x8]\n 45036: a3 = u64 [a3]\n 45038: a0 = reverse a0\n 45040: a4 = reverse a1\n 45042: a2 = reverse a2\n 45044: a3 = reverse a3\n 45046: a1 = u64 [s1 + 0x50]\n 45049: u64 [a1 + 0x18] = a3\n 45052: u64 [a1 + 0x10] = a2\n 45055: u64 [a1 + 0x8] = a4\n 45058: u64 [a1] = a0\n 45060: a0 = s1 + 0x100\n 45064: jump [t0]\n      : @1784 (gas: 8)\n 45066: a4 = a4 | a2\n 45069: a2 = a0 | a1\n 45072: a2 = a2 | a4\n 45075: a2 = a2 >> 0x20\n 45078: a1 = a1 | a4\n 45081: a1 = a1 << 0x20\n 45084: a1 = a1 | a2\n 45087: jump [t0]\n      : @1785 (gas: 7)\n 45089: a4 = 0x100000000\n 45099: a0 = 0xfffffffc\n 45109: a0 = a1 <u a0\n 45112: a2 = u64 [a5 + 0x70]\n 45115: a0 = 0 if a2 != 0\n 45117: a0 = 0 if a3 != 0\n 45119: jump [t0]\n      : @1786 (gas: 16)\n 45121: a3 = u64 [s1 + 0x20]\n 45124: a0 = u64 [a3 + 0x18]\n 45127: a1 = u64 [a3 + 0x10]\n 45130: a2 = u64 [a3 + 0x8]\n 45133: a3 = u64 [a3]\n 45135: a0 = reverse a0\n 45137: a4 = reverse a1\n 45139: a2 = reverse a2\n 45141: a3 = reverse a3\n 45143: a1 = u64 [s1 + 0x28]\n 45146: u64 [a1 + 0x18] = a3\n 45149: u64 [a1 + 0x10] = a2\n 45152: u64 [a1 + 0x8] = a4\n 45155: u64 [a1] = a0\n 45157: a0 = s1 + 0x1a0\n 45161: jump [t0]\n      : @1787 (gas: 16)\n 45163: a3 = u64 [s1 + 0x50]\n 45166: a0 = u64 [a3 + 0x18]\n 45169: a1 = u64 [a3 + 0x10]\n 45172: a2 = u64 [a3 + 0x8]\n 45175: a3 = u64 [a3]\n 45177: a0 = reverse a0\n 45179: a4 = reverse a1\n 45181: a2 = reverse a2\n 45183: a3 = reverse a3\n 45185: a1 = u64 [s1 + 0x48]\n 45188: u64 [a1 + 0x18] = a3\n 45191: u64 [a1 + 0x10] = a2\n 45194: u64 [a1 + 0x8] = a4\n 45197: u64 [a1] = a0\n 45199: a0 = s1 + 0x1a0\n 45203: jump [t0]\n      : @1788 (gas: 4)\n 45205: a0 = 0x29f8\n 45209: a3 = s1 + a0\n 45212: a4 = a3 + 0x400\n 45216: jump [t0]\n      : @1789 (gas: 12)\n 45218: a1 = a0 <u a1\n 45221: a3 = u64 [s1 + 0x78]\n 45224: a2 = a3 + a1\n 45227: a3 = a2 <u a3\n 45230: a3 = a1 if a1 == 0\n 45233: a1 = u64 [s1 + 0x88]\n 45237: a3 = a3 + a1\n 45240: a1 = a3 <u a1\n 45243: a4 = u64 [s1 + 0x80]\n 45247: a1 = a1 + a4\n 45250: a4 = s1 + 0x29f8\n 45254: jump [t0]\n      : @1790 (gas: 11)\n 45256: a0 = a1 + 0x2\n 45259: a1 = a0 <u a1\n 45262: a3 = u64 [s1 + 0x258]\n 45266: a2 = a3 + a1\n 45269: a3 = a2 <u a3\n 45272: a3 = a1 if a1 == 0\n 45275: a1 = u64 [s1 + 0x268]\n 45279: a3 = a3 + a1\n 45282: a1 = a3 <u a1\n 45285: a4 = u64 [s1 + 0x260]\n 45289: jump [t0]\n      : @1791 (gas: 15)\n 45291: a4 = s1 + 0x100\n 45295: a0 = u64 [a4]\n 45297: a1 = u64 [a4 + 0x8]\n 45300: a2 = u64 [a4 + 0x18]\n 45303: a3 = u64 [a4 + 0x10]\n 45306: a0 = a0 & 0xffffffffffffff00\n 45310: a0 = a0 | 0x1\n 45313: a4 = s1 + 0x200\n 45317: u64 [a4 + 0x58] = a2\n 45320: u64 [a4 + 0x50] = a3\n 45323: u64 [a4 + 0x48] = a1\n 45326: u64 [a4 + 0x40] = a0\n 45329: a1 = s1 + 0x240\n 45333: a0 = u64 [s1 + 0x50]\n 45336: jump [t0]\n      : @1792 (gas: 14)\n 45338: a4 = s1 + 0x100\n 45342: a0 = u64 [a4]\n 45344: a1 = u64 [a4 + 0x18]\n 45347: a2 = u64 [a4 + 0x10]\n 45350: a3 = u64 [a4 + 0x8]\n 45353: a0 = a0 & 0xffffffffffffff00\n 45357: a4 = s1 + 0x200\n 45361: u64 [a4 + 0x58] = a1\n 45364: u64 [a4 + 0x50] = a2\n 45367: u64 [a4 + 0x48] = a3\n 45370: u64 [a4 + 0x40] = a0\n 45373: a1 = s1 + 0x240\n 45377: a0 = u64 [s1 + 0x28]\n 45380: jump [t0]\n      : @1793 (gas: 9)\n 45382: sp = sp + 0xffffffffffffffc0\n 45385: u64 [sp + 0x38] = ra\n 45388: u64 [sp + 0x30] = s0\n 45391: u64 [sp + 0x28] = s1\n 45394: s0 = sp + 0x40\n 45397: sp = sp & 0xffffffffffffffe0\n 45400: s1 = a0\n 45402: i32 a0 = sp + 0\n 45404: jump [t0]\n      : @1794 (gas: 8)\n 45406: a0 = sp + 0xffffffffffffffe0\n 45409: a0 = a0 & 0xffffffffffffffe0\n 45412: u64 [s1 + 0x58] = a0\n 45415: sp = a0\n 45417: i32 a2 = a0 + 0\n 45419: a1 = 0x40\n 45422: a0 = u64 [s1 + 0x70]\n 45425: jump [t0]\n      : @1795 (gas: 11)\n 45427: a2 = u64 [sp + 0x8]\n 45430: a2 = a2 | s1\n 45433: s1 = 0x100000000\n 45443: a0 = 0xfffffffc\n 45453: a1 = u64 [sp + 0x18]\n 45456: a0 = a1 <u a0\n 45459: a1 = u64 [sp + 0x10]\n 45462: a0 = 0 if a1 != 0\n 45464: u64 [sp + 0x8] = a2\n 45467: a0 = 0 if a2 != 0\n 45469: jump [t0]\n      : @1796 (gas: 16)\n 45471: a4 = u64 [a3]\n 45473: u64 [sp + 0x18] = a4\n 45476: a4 = u64 [a3 + 0x8]\n 45479: u64 [sp + 0x20] = a4\n 45482: a4 = u64 [a3 + 0x10]\n 45485: u64 [sp + 0x28] = a4\n 45488: a3 = u64 [a3 + 0x18]\n 45491: u64 [sp + 0x30] = a3\n 45494: s1 = u64 [a2]\n 45496: a3 = u64 [a2 + 0x8]\n 45499: u64 [sp] = a3\n 45501: a3 = u64 [a2 + 0x10]\n 45504: u64 [sp + 0x8] = a3\n 45507: a2 = u64 [a2 + 0x18]\n 45510: u64 [sp + 0x10] = a2\n 45513: jump [t0]\n      : @1797 (gas: 7)\n 45515: a1 = u64 [a2 + 0x78]\n 45518: a0 = a1 <u a0\n 45521: a1 = u64 [a2 + 0x70]\n 45524: a0 = 0 if a1 != 0\n 45526: a1 = u64 [a2 + 0x68]\n 45529: a0 = 0 if a1 != 0\n 45531: jump [t0]\n      : @1798 (gas: 12)\n 45533: a0 = u64 [s1 + 0x30]\n 45536: a3 = s1 + 0x100\n 45540: u64 [a3 + 0x38] = a0\n 45543: a0 = u64 [s1 + 0x38]\n 45546: u64 [a3 + 0x30] = a0\n 45549: a0 = u64 [s1 + 0x40]\n 45552: u64 [a3 + 0x28] = a0\n 45555: a0 = 0x20\n 45558: a1 = s1 + 0x120\n 45562: a2 = u64 [s1 + 0x48]\n 45565: u64 [a3 + 0x20] = a2\n 45568: jump [t0]\n      : @1799 (gas: 10)\n 45570: a4 = s1 + 0x200\n 45574: a3 = u64 [a4 + 0x68]\n 45577: a2 = u64 [a4 + 0x70]\n 45580: a1 = u64 [a4 + 0x78]\n 45583: a0 = u64 [a4 + 0x60]\n 45586: a0 = a0 + 0xffffffffffffffdc\n 45589: a0 = a1 <u a0\n 45592: a0 = 0 if a2 != 0\n 45594: a0 = 0 if a3 != 0\n 45596: jump [t0]\n      : @1800 (gas: 10)\n 45598: a0 = u64 [sp + 0x10]\n 45601: a1 = u64 [sp + 0x18]\n 45604: a2 = 0x100000000\n 45614: a2 = a2 ^ a0\n 45617: a2 = a2 | a1\n 45620: a3 = a0 >> 0x20\n 45623: a3 = a3 <u 0x1\n 45626: a3 = 0 if a1 != 0\n 45628: a3 = 0 if a2 == 0\n 45630: jump [t0]\n      : @1801 (gas: 12)\n 45632: a0 = u64 [s1 + 0x8]\n 45635: a3 = s1 + 0x100\n 45639: u64 [a3 + 0xd8] = a0\n 45643: a0 = u64 [s1 + 0x10]\n 45646: u64 [a3 + 0xd0] = a0\n 45650: a0 = u64 [s1 + 0x18]\n 45653: u64 [a3 + 0xc8] = a0\n 45657: a0 = 0x20\n 45660: a1 = s1 + 0x1c0\n 45664: a2 = u64 [s1 + 0x20]\n 45667: u64 [a3 + 0xc0] = a2\n 45671: jump [t0]\n      : @1802 (gas: 12)\n 45673: a0 = u64 [s1 + 0x8]\n 45676: a3 = s1 + 0x100\n 45680: u64 [a3 + 0x38] = a0\n 45683: a0 = u64 [s1 + 0x10]\n 45686: u64 [a3 + 0x30] = a0\n 45689: a0 = u64 [s1 + 0x18]\n 45692: u64 [a3 + 0x28] = a0\n 45695: a0 = 0x20\n 45698: a1 = s1 + 0x120\n 45702: a2 = u64 [s1 + 0x20]\n 45705: u64 [a3 + 0x20] = a2\n 45708: jump [t0]\n      : @1803 (gas: 12)\n 45710: a0 = u64 [s1 + 0x28]\n 45713: a3 = s1 + 0x100\n 45717: u64 [a3 + 0xd8] = a0\n 45721: a0 = u64 [s1 + 0x30]\n 45724: u64 [a3 + 0xd0] = a0\n 45728: a0 = u64 [s1 + 0x38]\n 45731: u64 [a3 + 0xc8] = a0\n 45735: a0 = 0x20\n 45738: a1 = s1 + 0x1c0\n 45742: a2 = u64 [s1 + 0x40]\n 45745: u64 [a3 + 0xc0] = a2\n 45749: jump [t0]\n      : @1804 (gas: 15)\n 45751: a2 = u64 [sp + 0xb8]\n 45755: s1 = u64 [sp + 0xb0]\n 45759: a0 = u64 [sp + 0xa8]\n 45763: a1 = u64 [sp + 0xa0]\n 45767: u64 [sp + 0x10] = a0\n 45770: u64 [sp + 0x8] = a2\n 45773: a0 = a0 | a2\n 45776: u64 [sp + 0x18] = a1\n 45779: a1 = a1 | s1\n 45782: a1 = a1 | a0\n 45785: a1 = a1 >> 0x20\n 45788: a0 = a0 | s1\n 45791: a0 = a0 << 0x20\n 45794: a0 = a0 | a1\n 45797: jump [t0]\n      : @1805 (gas: 6)\n 45799: i32 a0 = a2 + 0\n 45801: u64 [s1 + 0x270] = a0\n 45805: a0 = u64 [s1 + 0x278]\n 45809: a1 = a2\n 45811: u64 [s1 + 0x268] = a2\n 45815: jump [t0]\n      : @1806 (gas: 14)\n 45817: sp = sp + 0xffffffffffffff20\n 45821: u64 [sp + 0xd8] = ra\n 45825: u64 [sp + 0xd0] = s0\n 45829: u64 [sp + 0xc8] = s1\n 45833: s0 = sp + 0xe0\n 45837: sp = sp & 0xfffffffffffffff0\n 45840: a1 = u64 [a0 + 0x10]\n 45843: a2 = u64 [a0 + 0x18]\n 45846: a3 = u64 [a0 + 0x8]\n 45849: a0 = u64 [a0]\n 45851: a2 = a2 | a3\n 45854: a0 = a0 | a1\n 45857: a0 = a0 | a2\n 45860: jump [t0]\n      : @1807 (gas: 8)\n 45862: a0 = u64 [a4 + 0x98]\n 45866: a1 = u64 [a4 + 0xa0]\n 45870: a2 = u64 [a4 + 0x90]\n 45874: a3 = u64 [a4 + 0x88]\n 45878: a1 = a1 | a2\n 45881: a0 = a0 | a3\n 45884: a0 = a0 | a1\n 45887: jump [t0]\n      : @1808 (gas: 4)\n 45889: a0 = u64 [s1 + 0x278]\n 45893: a0 = i32 [a0]\n 45895: a1 = 0x23\n 45898: jump [t0]\n      : @1809 (gas: 10)\n 45900: a0 = a0 + 0x1\n 45903: a4 = a0 <u 0x1\n 45906: a2 = a2 + a4\n 45909: a4 = a0 | a2\n 45912: a4 = a4 <u 0x1\n 45915: a4 = a4 + a3\n 45918: a3 = a4 <u a3\n 45921: a1 = a1 + a3\n 45924: a3 = 0x3000\n 45928: jump [t0]\n      : @1810 (gas: 8)\n 45930: sp = sp + 0xfffffffffffffe60\n 45934: u64 [sp + 0x198] = ra\n 45938: u64 [sp + 0x190] = s0\n 45942: u64 [sp + 0x188] = s1\n 45946: s0 = sp + 0x1a0\n 45950: sp = sp & 0xffffffffffffffe0\n 45953: s1 = sp\n 45955: jump [t0]\n      : @1811 (gas: 9)\n 45957: a0 = u64 [a3 + 0x18]\n 45960: a1 = u64 [a3 + 0x10]\n 45963: a2 = u64 [a3 + 0x8]\n 45966: a3 = u64 [a3]\n 45968: a0 = reverse a0\n 45970: a4 = reverse a1\n 45972: a2 = reverse a2\n 45974: a3 = reverse a3\n 45976: jump [t0]\n      : @1812 (gas: 7)\n 45978: a0 = 0xffffffbc\n 45988: a0 = s1 <u a0\n 45991: a1 = u64 [sp + 0x10]\n 45994: a0 = 0 if a1 != 0\n 45996: a1 = u64 [sp + 0x8]\n 45999: a0 = 0 if a1 != 0\n 46001: jump [t0]\n      : @1813 (gas: 11)\n 46003: a0 = u64 [s1 + 0x38]\n 46006: u64 [s1 + 0x98] = a0\n 46010: a0 = u64 [s1 + 0x28]\n 46013: u64 [s1 + 0x90] = a0\n 46017: a0 = u64 [s1 + 0x20]\n 46020: u64 [s1 + 0x88] = a0\n 46024: a0 = 0x24\n 46027: a1 = s1 + 0x80\n 46031: a2 = u64 [s1 + 0x30]\n 46034: u64 [s1 + 0x80] = a2\n 46038: jump [t0]\n      : @1814 (gas: 12)\n 46040: a2 = u64 [sp]\n 46042: a3 = u64 [sp + 0x8]\n 46045: u64 [s1] = a2\n 46047: u64 [s1 + 0x8] = a3\n 46050: u64 [s1 + 0x10] = a0\n 46053: u64 [s1 + 0x18] = a1\n 46056: sp = s0 + 0xffffffffffffffc0\n 46059: ra = u64 [sp + 0x38]\n 46062: s0 = u64 [sp + 0x30]\n 46065: s1 = u64 [sp + 0x28]\n 46068: sp = sp + 0x40\n 46071: jump [t0]\n      : @1815 (gas: 10)\n 46073: sp = sp + 0xfffffffffffffd80\n 46077: a2 = sp + 0x200\n 46081: u64 [a2 + 0x78] = ra\n 46084: u64 [a2 + 0x70] = s0\n 46087: u64 [a2 + 0x68] = s1\n 46090: s0 = sp + 0x280\n 46094: sp = sp & 0xffffffffffffffe0\n 46097: s1 = sp\n 46099: a2 = u64 [a1 + 0x10]\n 46102: jump [t0]\n      : @1816 (gas: 10)\n 46104: sp = sp + 0xfffffffffffffd80\n 46108: a3 = sp + 0x200\n 46112: u64 [a3 + 0x78] = ra\n 46115: u64 [a3 + 0x70] = s0\n 46118: u64 [a3 + 0x68] = s1\n 46121: s0 = sp + 0x280\n 46125: sp = sp & 0xffffffffffffffe0\n 46128: s1 = sp\n 46130: a3 = u64 [a2 + 0x10]\n 46133: jump [t0]\n      : @1817 (gas: 8)\n 46135: a3 = s1 + 0x200\n 46139: a1 = u64 [a3 + 0x78]\n 46142: a0 = a1 <u a0\n 46145: a1 = u64 [a3 + 0x70]\n 46148: a0 = 0 if a1 != 0\n 46150: a1 = u64 [a3 + 0x68]\n 46153: a0 = 0 if a1 != 0\n 46155: jump [t0]\n      : @1818 (gas: 8)\n 46157: u64 [sp + 48] = 0\n 46160: u64 [sp + 40] = 0\n 46163: u64 [sp + 32] = 0\n 46166: a0 = 0x4e487b7100000000\n 46176: a1 = sp + 0x20\n 46179: u64 [sp + 0x38] = a0\n 46182: a0 = 0\n 46184: jump [t0]\n      : @1819 (gas: 8)\n 46186: a0 = s1 + 0xffffffffffffffdc\n 46189: a1 = u64 [sp + 0x18]\n 46192: a0 = a1 <u a0\n 46195: a1 = u64 [sp + 0x10]\n 46198: a0 = 0 if a1 != 0\n 46200: a1 = u64 [sp + 0x8]\n 46203: a0 = 0 if a1 != 0\n 46205: jump [t0]\n      : @1820 (gas: 8)\n 46207: u64 [sp + 144] = 0\n 46211: u64 [sp + 136] = 0\n 46215: u64 [sp + 128] = 0\n 46219: a0 = 0x8c379a000000000\n 46229: a1 = sp + 0x80\n 46233: u64 [sp + 0x98] = a0\n 46237: a0 = u64 [sp + 0x18]\n 46240: jump [t0]\n      : @1821 (gas: 4)\n 46242: a1 = a1 >u 0\n 46244: a2 = s1 + 0x11f8\n 46248: a3 = 0\n 46250: jump [t0]\n      : @1822 (gas: 6)\n 46252: i32 a0 = a0 + 0\n 46254: i32 a2 = a2 + 0\n 46256: u64 [s1 + 0x68] = a1\n 46259: a1 = 0x40\n 46262: u64 [s1 + 0x60] = a0\n 46265: jump [t0]\n      : @1823 (gas: 7)\n 46267: a1 = a1 | a2\n 46270: a1 = a1 | a0\n 46273: a1 = a1 >> 0x20\n 46276: a0 = a0 | a2\n 46279: a0 = a0 << 0x20\n 46282: a0 = a0 | a1\n 46285: jump [t0]\n      : @1824 (gas: 8)\n 46287: a0 = u64 [a4 + 0x58]\n 46290: a1 = u64 [a4 + 0x60]\n 46293: a2 = u64 [a4 + 0x50]\n 46296: a3 = u64 [a4 + 0x48]\n 46299: a1 = a1 | a2\n 46302: a0 = a0 | a3\n 46305: a0 = a0 | a1\n 46308: jump [t0]\n      : @1825 (gas: 7)\n 46310: sp = sp + 0xfffffffffffffee0\n 46314: u64 [sp + 0x118] = ra\n 46318: u64 [sp + 0x110] = s0\n 46322: u64 [sp + 0x108] = s1\n 46326: s0 = sp + 0x120\n 46330: sp = sp & 0xffffffffffffffe0\n 46333: jump [t0]\n      : @1826 (gas: 8)\n 46335: a0 = sp + 0xffffffffffffffe0\n 46338: a0 = a0 & 0xffffffffffffffe0\n 46341: u64 [s1 + 0x30] = a0\n 46344: sp = a0\n 46346: i32 a2 = a0 + 0\n 46348: a1 = 0x40\n 46351: a0 = u64 [s1 + 0x40]\n 46354: jump [t0]\n      : @1827 (gas: 8)\n 46356: a0 = u64 [a4 + 0xd8]\n 46360: a1 = u64 [a4 + 0xe0]\n 46364: a2 = u64 [a4 + 0xd0]\n 46368: a3 = u64 [a4 + 0xc8]\n 46372: a1 = a1 | a2\n 46375: a0 = a0 | a3\n 46378: a0 = a0 | a1\n 46381: jump [t0]\n      : @1828 (gas: 2)\n 46383: a3 = a2 & 0x40\n 46386: jump @1832 if a3 != 0\n      : @1829 (gas: 1)\n 46389: jump @1831 if a2 == 0\n      : @1830 (gas: 6)\n 46392: i32 a3 = 0x40 - a2\n 46395: a3 = a1 << a3\n 46398: a1 = a1 >> a2\n 46401: a0 = a0 >> a2\n 46404: a0 = a0 | a3\n 46407: ret\n      : @1831 (gas: 1)\n 46409: ret\n      : @1832 (gas: 4)\n 46411: a0 = a2 + 0xffffffffffffffc0\n 46414: a0 = a1 >> a0\n 46417: a1 = 0\n 46419: ret\n      : @1833 (gas: 2)\n 46421: a3 = a2 & 0x40\n 46424: jump @1837 if a3 != 0\n      : @1834 (gas: 1)\n 46427: jump @1836 if a2 == 0\n      : @1835 (gas: 6)\n 46430: i32 a3 = 0x40 - a2\n 46433: a3 = a0 >> a3\n 46436: a0 = a0 << a2\n 46439: a1 = a1 << a2\n 46442: a1 = a1 | a3\n 46445: ret\n      : @1836 (gas: 1)\n 46447: ret\n      : @1837 (gas: 4)\n 46449: a1 = a2 + 0xffffffffffffffc0\n 46452: a1 = a0 << a1\n 46455: a0 = 0\n 46457: ret\n      : @1838 (gas: 1)\n 46459: jump @1841 if a1 == 0\n      : @1839 (gas: 2)\n 46462: a5 = a1 <u 0\n 46464: jump @1842 if a5 != 0\n      : @1840 (gas: 5)\n 46467: sp = sp + 0xffffffffffffffd0\n 46470: u64 [sp + 0x28] = ra\n 46473: u64 [sp + 0x20] = s0\n 46476: u64 [sp + 0x18] = s1\n 46479: jump @1843\n      : @1841 (gas: 2)\n 46481: a5 = a0 <u a2\n 46484: jump @1840 if a5 == 0\n      : @1842 (gas: 3)\n 46487: a0 = 0\n 46489: a1 = 0\n 46491: jump @651\n      : @1843 (gas: 2)\n 46494: u64 [sp + 8] = 0\n 46497: jump @1856 if a1 >=u a2\n      : @1844 (gas: 30)\n 46501: a3 = a2 >> 0x1\n 46504: a3 = a3 | a2\n 46507: a5 = a3 >> 0x2\n 46510: a3 = a3 | a5\n 46513: a5 = a3 >> 0x4\n 46516: a3 = a3 | a5\n 46519: a5 = a3 >> 0x8\n 46522: a3 = a3 | a5\n 46525: a5 = a3 >> 0x10\n 46528: a3 = a3 | a5\n 46531: a5 = a3 >> 0x20\n 46534: a3 = a3 | a5\n 46537: a3 = a3 ^ 0xffffffffffffffff\n 46540: a5 = a3 >> 0x1\n 46543: s0 = 0x5555555555555555\n 46553: a5 = a5 & s0\n 46556: a3 = a3 - a5\n 46559: a5 = 0x3333333333333333\n 46569: s1 = a3 & a5\n 46572: a3 = a3 >> 0x2\n 46575: a3 = a3 & a5\n 46578: a3 = a3 + s1\n 46581: a5 = a3 >> 0x4\n 46584: a3 = a3 + a5\n 46587: a5 = 0xf0f0f0f0f0f0f0f\n 46597: a3 = a3 & a5\n 46600: a5 = 0x101010101010101\n 46610: a3 = a3 * a5\n 46613: a4 = a3 >> 0x38\n 46616: jump @1846 if a4 == 0\n      : @1845 (gas: 8)\n 46619: a2 = a2 << a4\n 46622: a1 = a1 << a4\n 46625: a3 = a4 ^ 0xffffffffffffffff\n 46628: a5 = a0 >> 0x1\n 46631: a3 = a5 >> a3\n 46634: a1 = a1 | a3\n 46637: a0 = a0 << a4\n 46640: fallthrough\n      : @1846 (gas: 10)\n 46641: ra = a2 >> 0x20\n 46644: a5 = a2 << 0x20\n 46647: a5 = a5 >> 0x20\n 46650: t1 = a0 >> 0x20\n 46653: a0 = a0 << 0x20\n 46656: a0 = a0 >> 0x20\n 46659: t0 = a1 /u ra\n 46662: a3 = t0 * ra\n 46665: s1 = a1 - a3\n 46668: jump @1848\n      : @1847 (gas: 4)\n 46670: s1 = s1 + ra\n 46673: a3 = s1 >> 0x20\n 46676: t0 = t0 + 0xffffffffffffffff\n 46679: jump @1850 if a3 != 0\n      : @1848 (gas: 2)\n 46682: s0 = t0 >> 0x20\n 46685: jump @1847 if s0 != 0\n      : @1849 (gas: 4)\n 46688: s0 = t0 * a5\n 46691: a3 = s1 << 0x20\n 46694: a3 = a3 | t1\n 46697: jump @1847 if a3 <u s0\n      : @1850 (gas: 9)\n 46700: a1 = a1 << 0x20\n 46703: a1 = t1 | a1\n 46706: a3 = t0 * a2\n 46709: a1 = a1 - a3\n 46712: t2 = a1 /u ra\n 46715: s1 = t2 * ra\n 46718: u64 [sp + 0x10] = a1\n 46721: a3 = a1 - s1\n 46724: jump @1852\n      : @1851 (gas: 4)\n 46726: a3 = a3 + ra\n 46729: a1 = a3 >> 0x20\n 46732: t2 = t2 + 0xffffffffffffffff\n 46735: jump @1854 if a1 != 0\n      : @1852 (gas: 2)\n 46738: a1 = t2 >> 0x20\n 46741: jump @1851 if a1 != 0\n      : @1853 (gas: 4)\n 46744: a1 = t2 * a5\n 46747: s0 = a3 << 0x20\n 46750: s1 = s0 | a0\n 46753: jump @1851 if s1 <u a1\n      : @1854 (gas: 11)\n 46756: t1 = 0\n 46758: a1 = u64 [sp + 0x10]\n 46761: a1 = a1 << 0x20\n 46764: a1 = a1 | a0\n 46767: a2 = t2 * a2\n 46770: a1 = a1 - a2\n 46773: a2 = a1 >> a4\n 46776: t0 = t0 << 0x20\n 46779: t2 = t2 + t0\n 46782: a4 = u64 [sp + 0x8]\n 46785: jump @1867 if a4 != 0\n      : @1855 (gas: 1)\n 46789: jump @1868\n      : @1856 (gas: 33)\n 46792: t1 = a1 /u a2\n 46795: t2 = t1 * a2\n 46798: a5 = a2 >> 0x1\n 46801: s1 = a2 | a5\n 46804: a5 = s1 >> 0x2\n 46807: s1 = s1 | a5\n 46810: a5 = s1 >> 0x4\n 46813: s1 = s1 | a5\n 46816: a5 = s1 >> 0x8\n 46819: s1 = s1 | a5\n 46822: a5 = s1 >> 0x10\n 46825: s1 = s1 | a5\n 46828: a5 = s1 >> 0x20\n 46831: a5 = a5 | s1\n 46834: a3 = a5 ^ 0xffffffffffffffff\n 46837: s0 = 0x5555555555555555\n 46847: a5 = a3 >> 0x1\n 46850: a5 = a5 & s0\n 46853: a3 = a3 - a5\n 46856: a5 = 0x3333333333333333\n 46866: s1 = a3 & a5\n 46869: a3 = a3 >> 0x2\n 46872: a3 = a3 & a5\n 46875: a3 = a3 + s1\n 46878: a5 = a3 >> 0x4\n 46881: a3 = a3 + a5\n 46884: a5 = 0xf0f0f0f0f0f0f0f\n 46894: a3 = a3 & a5\n 46897: a5 = 0x101010101010101\n 46907: a3 = a3 * a5\n 46910: ra = a3 >> 0x38\n 46913: t2 = a1 - t2\n 46916: jump @1858 if ra == 0\n      : @1857 (gas: 8)\n 46919: a2 = a2 << ra\n 46922: a1 = t2 << ra\n 46925: a3 = ra ^ 0xffffffffffffffff\n 46928: a5 = a0 >> 0x1\n 46931: a3 = a5 >> a3\n 46934: t2 = a1 | a3\n 46937: a0 = a0 << ra\n 46940: fallthrough\n      : @1858 (gas: 12)\n 46941: a5 = a2\n 46943: a2 = a2 >> 0x20\n 46946: a4 = a5\n 46948: a5 = a5 << 0x20\n 46951: a5 = a5 >> 0x20\n 46954: s0 = a0 >> 0x20\n 46957: a0 = a0 << 0x20\n 46960: a1 = a0 >> 0x20\n 46963: t0 = t2 /u a2\n 46966: s1 = t0 * a2\n 46969: a3 = t2 - s1\n 46972: jump @1860\n      : @1859 (gas: 4)\n 46974: a3 = a3 + a2\n 46977: a0 = a3 >> 0x20\n 46980: t0 = t0 + 0xffffffffffffffff\n 46983: jump @1862 if a0 != 0\n      : @1860 (gas: 2)\n 46986: a0 = t0 >> 0x20\n 46989: jump @1859 if a0 != 0\n      : @1861 (gas: 4)\n 46992: a0 = t0 * a5\n 46995: s1 = a3 << 0x20\n 46998: s1 = s1 | s0\n 47001: jump @1859 if s1 <u a0\n      : @1862 (gas: 8)\n 47004: t2 = t2 << 0x20\n 47007: a0 = s0 | t2\n 47010: a3 = t0 * a4\n 47013: s0 = a0 - a3\n 47016: t2 = s0 /u a2\n 47019: a0 = t2 * a2\n 47022: s1 = s0 - a0\n 47025: jump @1864\n      : @1863 (gas: 4)\n 47027: s1 = s1 + a2\n 47030: a0 = s1 >> 0x20\n 47033: t2 = t2 + 0xffffffffffffffff\n 47036: jump @1866 if a0 != 0\n      : @1864 (gas: 2)\n 47039: a0 = t2 >> 0x20\n 47042: jump @1863 if a0 != 0\n      : @1865 (gas: 4)\n 47045: a0 = t2 * a5\n 47048: a3 = s1 << 0x20\n 47051: a3 = a3 | a1\n 47054: jump @1863 if a3 <u a0\n      : @1866 (gas: 9)\n 47057: s0 = s0 << 0x20\n 47060: a1 = a1 | s0\n 47063: a0 = t2 * a4\n 47066: a1 = a1 - a0\n 47069: a2 = a1 >> ra\n 47072: t0 = t0 << 0x20\n 47075: t2 = t2 + t0\n 47078: a4 = u64 [sp + 0x8]\n 47081: jump @1868 if a4 == 0\n      : @1867 (gas: 3)\n 47084: u64 [a4 + 8] = 0\n 47087: u64 [a4] = a2\n 47089: fallthrough\n      : @1868 (gas: 7)\n 47090: ra = u64 [sp + 0x28]\n 47093: s0 = u64 [sp + 0x20]\n 47096: s1 = u64 [sp + 0x18]\n 47099: sp = sp + 0x30\n 47102: a0 = t2\n 47104: a1 = t1\n 47106: ret\n",
        "bytecode": {
          "object": "50564d000076d9000000000000010700c14002c000800381ec726566736e6172540064656c69616620676e656c6c6168436e20656d697420656c706d6f6320746f746579206465746555d3e45c200798a4e8568fa1a8f52e0987e2fb01a2f43c917517c29356095b829540cd3883d75b402276190028e46bfe3f12f5091e33b9821f4fbe3cb9d1ed4b207469736f706544646572697571657219f90f49ff23a6fab3727fcd63d85a7bd79bd09419132e3e79adfa80d67c0d261dff7e7e1188872fd1014979ec26e982400927504a02787c0d6f6533a74045306874756120746f4e000064657a69726f676e656c6c616843646165726c612065656c706d6f63207919f90f49ff23a6fab3727fcd63d85a7bd79bd09419132e3e79adfa80d67c0d2655d3e45c200798a4e8568fa1a8f52e0987e2fb01a2f43c917517c29356095b8219f90f49ff23a6fab3727fcd63d85a7bd79bd09419132e3e79adfa80d67c0d261dff7e7e1188872fd1014979ec26e982400927504a02787c0d6f6533a74045301dff7e7e1188872fd1014979ec26e982400927504a02787c0d6f6533a740453019f90f49ff23a6fab3727fcd63d85a7bd79bd09419132e3e79adfa80d67c0d269dc6d9325c1f39f67429440b67ea472a64fdc7edd13539b51b1739a847e021eb9dc6d9325c1f39f67429440b67ea472a64fdc7edd13539b51b1739a847e021eb2000000004811b11000000000400000012000000200000002e0000003400000041000000530000005e0000006d000000700000007d0000008d0000009d000000a8000000ba000000c500000063616c6c63616c6c5f646174615f636f707963616c6c5f646174615f6c6f616463616c6c5f646174615f73697a6563616c6c65726465706f7369745f6576656e746765745f696d6d757461626c655f646174616765745f73746f72616765686173685f6b656363616b5f3235366e6f777265665f74696d655f6c65667472657475726e5f646174615f636f707972657475726e5f646174615f73697a657365616c5f72657475726e7365745f696d6d757461626c655f646174617365745f73746f7261676576616c75655f7472616e73666572726564051302c044ab0463616c6cc04dab066465706c6f7906c039d6839702c004b86a00b2016a037203f9032d0435043f0544054a05b405bf05da0524066f067a06cc06df060a071f075e0783076b08e30846095c098b099109b809be094c0a640a7e0ac50ad30adf0af10a330b4c0b730bd50be50b0f0c290c590c690c940cae0cdf0c260d3a0d650db90dfa0d370e440ea30eee0e820f8f0fd30ff10f2f103c105e106c10ab10bc10f21058119511a011e41148127813b814ea14f114fb140c152a1531153b154c156a1571157b158c15aa15b115bc15cd15e815ef15fa150b1625162c163716481662166916741685169f16a616b116c216e516ec16f7163117381743177d1784178f17c917d017db1715181c182718611868187318ad18b418bf18f91800190b1945194c19571991199819a319dd19e419ef19291a301a3b1a741a7b1a861abf1ac61ad11a0a1b111b1c1b551b5c1b671b8d1b941b9f1bc51bcc1bd71bfd1b041c0f1c351c3c1c471c6d1c741c7f1ca51cac1cb71cdd1ce41cef1c2f1d271e5a1e871eaa1e431f721fa71fb21fcb1fe31ffa1f44206f20cc20eb201021492154219621d42142229a22a522ca2221235a23be23d523072449245024b624bd24f324122575257c259e25bd25c425f2252426a226cc261b2728278b27de27e42761287228012933293a2952295829a629b529d529f129492a582a652adc2be92b4c2caa2cfb2c5e2e1c2f472fa12f18305530c330f8301831393153315c317931e6316232b6321a336333be33093417344334523472349c34b834ee341f35583573359735a435d635e435f0353e364b36b236b8363d374e37de3713381938303836387f38de382939ca39f939d23a393b4f3b7f3b853bad3bb33be43bf13b1b3ca03cd63c143d9a3dde3d373e7b3e8a3ea43efa3e0c3f2a3f793ff73f2e403c4074409a40cb402f41484174419a413f42b44234436643e6437e45c545f9451c46894629476e47dc4729487448ee48734a7d4ae74af14b7e4c264d374d084e3c4e784ee64e134f194f2c4f324fef4f745076518451c751d4510d521752c852e35262537853065414542a54a554d554e354f9547455a455c7554256725680569a561557455753576d57e857185826584058bb58eb58f95813598e59be59cc59e659615a915a9f5ab95a345b645b725b8c5b075c375c455c5f5cda5c0a5d185d325dad5ddd5deb5d055e805eb05ebe5ed85e535f835f935fad5f2860586068608260fd602d613d615761d261026212622c62a762d762e76205638063b063c063de63596489649964b76432656265726590650b663b664b666966e466146724674267bd67ed67fd671b689668c668d668f4686f699f69af69cd69486a786a886aa66a216b516b616b7f6bfa6b2a6c3a6c586cd36c036d506d096e276e6d6e796e9b6ea96eed6efe6e746f866f09701a702770707081709f70f17002710f714a715b717971b471c571d3710e72207230728a72c772e5723d731b74c074b375c675cf75ef75727691770b78407853785c787c78ba78cd78d678f6783a794d7956797679b979cc79f0791b7ace7a4a7b847b927ba47bda7be87b167c497c867cbb7cce7cf27c427d487d4e7d607dac7db57d097e3d7e937ed47eda7ee07e8d7fad7fec7f6380b380b980ec80bb8128827d82ad820a833e837183ae83f8830e84348468847284af84dd8438855e85e9853186b386cf86ea86a387ed877c88a688c58815892d8943898389038a4d8a818aa08ace8a088b158ba38bc28bfc8b378c5b8ca68cc48c538d818d9a8dcb8df28df88dff8d188e6c8e958ec58ece8ee78e1c8f368f3f8fc58fee8ffe8f04900d9028902e903e9044904d906290b5900f91199233925d9263928a9290929992a092a692c692cc92ec92f2921c9328933d9343936a937093799380938693a693ac93cc93d2930b9417942c9432948494e994d895f7951b96a896bf96f096239737975f9739984d9854986c98909858998f99a999cd990c9a259a9a9a3f9b469b5e9b889b8e9b789cd29cd89c159d1b9d229d619d679d819d879d8e9d949d9b9db49dc19dc79dce9df19df89d089e0e9e159e1b9e229e489e4e9e8b9e919e989ed79edd9ef79efd9e049f0a9f119f2a9f379f3d9f449f679f6e9f7e9f849f8b9f919f989fbe9fc49ff89ffe9f05a044a04aa064a06aa071a077a07ea097a0a4a0aaa0b1a0d4a0dba0eba0f1a0f8a022a148a14ea19ca1a2a1a9a1d4a1e1a1e7a1eea1f4a1fba117a224a22aa231a273a279a280a29ca2a9a2afa2b6a2bca2c3a2dfa2eca2f2a2f9a2ffa206a320a329a3c0a3cea3d0a315a41ba422a44da45aa460a467a46da474a490a49da4a3a4aaa4eca4f2a4f9a415a522a528a52fa535a53ca558a565a56ba572a578a57fa599a5a2a539a647a649a697a69da6a4a6cfa6dca6e2a6e9a6efa6f6a612a71fa725a72ca761a767a76ea78aa797a79da7a4a7aaa7b1a7cda7daa7e0a7e7a7eda7f4a70ea817a8afa8c9a8cba810a916a91da948a955a95ba962a968a96fa98ba998a99ea9a5a9daa9e0a9e7a903aa10aa16aa1daa23aa2aaa46aa53aa59aa60aa66aa6daa87aa90aa28ab42ab4dab57ab9511e87b10107b15087b163306e801023905e8010251051c3307200203837783680a06013907e801022003e80102ac571082101082150882169511183200003908e801025108bd06330720020383770a0e28b0069511f07b10087b1564896475330820649750100280047c78017c797c7a027c7b03978808d4980897aa1097bb18d4ba0ad4a8087c79057c7a047c7b067c7c07979908d4a90997bb1097cc18d4cb0bd4b909979920d489027c79097c7a087c7b0a7c7c0b979908d4a90997bb1097cc18d4cb0bd4b9097c7a0d7c7b0c7c7c0e7c780f97aa08d4ba0a97cc10978818d4c808d4a808978820d498037c78117c7a107c7b127c7c13978808d4a80897bb1097cc18d4cb0bd4b8087c7a157c7b147c7c167c791797aa08d4ba0a97cc10979918d4c909d4a909979920d4890a7c78197c79187c7b1a7c7c1b978808d4980897bb1097cc18d4cb0bd4b8087c791d7c7b1c7c7c1e7c771f979908d4b90997cc10977718d4c707d49707977720d487076f776fa86f396f2a7b5a187b59107b58087b57821008821595111032009511d87b10207b15187b161082897b19088289087b1982851082861833082050100438036f686f59821a6faa821b086fbb787b18787a10787908787898bc38787c1f98bc30787c1e98bc28787c1d98bc20787c1c98bc18787c1b98bc10787c1a98bb08787b1998ab38787b1798ab30787b1698ab28787b1598ab20787b1498ab18787b1398ab10787b1298aa08787a11989a38787a0f989a30787a0e989a28787a0d989a20787a0c989a18787a0b989a10787a0a98990878790998893878790798893078790698892878790598892078790498891878790398891078790298880878780182102082151882161095112832009511a07b10587b15507b16489515608411e06476828718828910828a0882886f776f996faa6f887b18187b1a107b19087b17491138491130491128491120481140208318831a20831b403309ff33070a07821738821830821928821a206f776f886f996faa7b6a187b69107b68087b679551a082105882155082164895116032009511a07b10587b15509515608411e08272827a08827b108277188283828908828c108288186f746fbb6faa6f276f826fcc6f996f387b17187b1a107b1b087b147b18387b19307b1c287b12208318831a203309ff330b2033070a0f9551a082105882155095116032007b183850100878016f687b187882186f887b18708218086f887b18688218106f887b18608218186f887b1898008218206f887b1890008218286f887b1888008218306f887b1880008218406f887b18b8008218486f887b18b0008218506f887b18a8008218586f887b18a0008379811a388317603308030a05955120ff8210d8008215d0008216c8009511e000320082c67b166082c6087b166882c6107b167082cc187b1c7882bc7b1c3882bc087b1c4082bc107b1c4882bb187b1b5050120c78ad007b185850100eb5006f687b18980082186f887b1890008218086f887b1888008218106f887b1880008218186f887b18b8008218206f887b18b0008218286f887b18a8008218306f887b18a0008218386f887b18d8008218406f887b18d0008218486f887b18c8008218506f887b18c0008218606f887b18f8008218686f887b18f0008218706f887b18e8008218786f887b18e0008379811a58831780003308040a059551e0fe8210180182151001821608019511200132008b7910520931c8780883881f8488e05638000001253309f00102390af00102ae8a093d08f001020133080002028377c887073200009511f07b10087b158475010a03013308ec01023d07ec010251050d33001033021428abaf00501012e001501214a2af004921f8004921f0004921e8004921e0008317e0000a10018217f0008218f8008219e800821ae000d49808d4a707d48707520725013906ec010297672098772095771f8477e09578a000d878077b18c0007b17c80094777b17d0003307409518c0004921d800501016dffb3307a00064685010182bff8377646833090a010154161fe3009517a0003308a00050101a7ffa8217b0008219b80014080000000001000000d37808d49808987a2088aa01949a938a510abb008218a800821aa0007b1a80007b1888007b17900033078000c871087b19980050101c6ffb330600020383670a043a0708020339081002033a090002036f77977a206f88988820d48a0a9877206f98978920d497079888204911587b18507b17489517609518407b1a4050101ef28500951720330840501020dff9821738821830821928821620d49707d48609d47909989920d48707977720d497075107280033080002028388330701286e330800020283883307012862330800020283883307012856646733085010221efe8377330833090a016417330880005010247af9821718821910821a08821b3e073802033e093002033e0a2802033e0b2002032841f964673308501026e0fd8378330733093300280a0d280a33093300280a0d01951110fe7b10e8017b15e0017b16d8019515f0019511f0cb8411e064169569f82949296001492958014929480180003307409568402b4929500150102a35fa3307ec01027b6778023907ec010255170407286e7995670030837760fb330833002c0a02019569f82981978401524776371d8f0a286b2752475448d1910a283216956af831514772d754924d025247dffd17a20a284a2d5247bc7b81a70a2864185247124bfede0a28f12d5247421811e80a28b31e5247b3c545f80a284a2c5247adfdf2190a2846225147744bdd1bc0025247a39c8a240a28591d5247ebe7b8250a28901c5147dc98c4690a28732182677802817756174307282d6d95670030837720ff3308040a02019569f829959b000582b74082b83882ba30956b00027bb7407bb838d487077bba3088a801947852080628fb6c829728057b6770029567201f33002e33020c0528dfa8009568f81995890005829738956800027b87188297307b87208297287b87289567f829492760059567f829492758059567f829492750059567f8294927480595670030837740ff0a1001956bf82995bc000582c75882c86082c95082ca48d49808d4a707d487075107062828339567201933084050103076f79569f8118292400795980007828c38828b30828728d42b0ad4c708d4a808988820d4ca0a97aa20d4a80851080628d949492918074929100749290807140a00000000a079c308956800197b9a20077b6778027b6b70027b6260027b6c68025010324df8956c000282c87882c76882ca60d47a0a501234cba600520706288a498387049569f811492900074929f8064929e806209568e0184929f0067b6a68027b6b600250103608f850123877a800520706285549838724956af811492ae006492ad806492ac806109568c018492ad00650103adbf750123c30a50052070628284983a7443a087000023a09780002956bf8117bb8c006492bb0067bb9b8069568a018492ba8063300620228a1f7492aa000492a9800492a9000492a880095670030837780020a10956af8310182a7980082a8a00082a9900082aa8800d49808d4a707d4870751070628296b826778028177330803ac780628226b9567202333003e3302960528fea6009567f821827728017b67780295670023330840501040f5f5956af82195ac000182cb2082c81882c91082c70850124292a500510806286848492a0001492af800826878027ba8e8009568e022492af0007b67780233002a0228eaf64929a00349299803492990034929880395670030837780fd3300440a1001956af82995ab000350124659a800510706288e6a50124868a800ac7806288a6a9567e01533084050104a68f59568f811828700047b676802958c000382c9f8007b69600282cbf0007b6b700282cae8007b6a78027bc7e0007bc9d8007bcbd0009567c0157bcac80050104ca48c00956a000282a76882a870d4870782a96082a87850124e75a900510706289a479567f8114927c0034927b8034927b0039568a0154927a8038267780250105020f6956b000282b76882b960d47909140a00000000010000001407e0ffffff0000000082b878d8780782b87094879497520706284547826778028377209568f8117b69680264894928a003492898034928900395688015492988037b6a6002501052bef5956900028297609577c0501254eca500520706280147826778028377409569f811492980034929780349297003956860154929680350105684f5140900000000010000001407a0ffffff0000000050125814a80052070628bd46826778028377609568f8117b6960026489492860034928580349285003956840154929480350105a3af59569000282976095778050125c68a500520706287d4682677802837780009569f811492940034929380349293003956820154929280350105efff414090000000001000000140760ffffff000000005012608fa700520706283846826778028377a0009568f8117b69600264894928200349281803492810039568001549290803501062b4f4956a000282a96882a760957740ff82a878d8780782a8709487949752070628ec45826778028377c0009569f811492900034929f8024929e802609568e0144929f0025010646df4140720ffffff000000009569000250126697a40052070628ac45826778028377e0009569f8114929e0024929d8024929d0029568c0144929c8025010682ef49517e08477e07b6778026471956700308377a0fd3308040a02956af82995ab000382b9a80082b7b00082b8b80082bac000956bf81195bc00027bca80007bc8787bc77095678014956860147bc96850106aaf82009569f811959c000282c7980082c8a00082cb880082ca90007b678800826978027b97107b6880007b98187b6b707b9b7b6a787b9a089567401433084050106c5ff29567f811957c000282c9607b69700282c8587b68680282ca507b6a900082cb487b6b98007bc9407bc8387bca306478956720147b8b280250106ea08900956700148268780250107041f4826890008267980082697002d48909826b6802d4b708d49808988820d4b909979920d49808510806287d44956bf81195bc000282ca1882c81082c90897aa2098aa20492b000295bc00017bc9e8007bc8f0009568e0137bcaf800501072f0f2826770957701887801826978c89808d48709889901826a8800c8a909d8a90a826b8000c8ba0a956bf82995bc00037bc9d8007bc8d0007bc7c8007bcae0009567c0139568c02d50107497f3826a9800956b000282b77082b868d47809140700000000010000007bb7781407e0ffffff00000000d87a078268900094877b6968949752070628c2433302ff1409ffffffff00000000956bf81182bcd80182b3d00182b8c80182b7e0017b6768027b69607b6c7002d2c909d2230cd2280883a720492bc00195ba00017ba8a8007bacb0009568a0137ba9b8007b675850107611f2826778029577c0501278de9e00520706285743140700000000ff0000007b67180182687002d287078e7982679800837740956af811492aa001492a9801492a9001956880137ba988017b675050107ac0f1140700000000010000007b6778021407a0ffffff0000000050127c7c9e0052070628f5428267700298772882686802978818d4870982679800837760956af811492a8001492a7801492a7001956860137ba968017b674850107e64f1826870958702502280006da00095bc00037bcaf8007bc9f0007bc7e8007bb80004956740139568e02d5020820028f28267780295778050228400029e00520706287a42956af81195ab000182b74882b8507b6878028479ff8267980083778000492a4001492a3801492a3001956820137bb9287b674050208600e9f0140760ffffff0000000050228800b29d00520706282a42826978028499ff826898008387a000956af811492a2001492a1801492a1001956800137ba908017b671850208a00a2f09517e0847ce064c1826770957903d87907826878c8780ad88a08da770882678800c8870bd87b0782688000c887077b6750027b6c70027bc7187b6b58027bcb107b6a60027bca087b6968027bc99517e08477e07b67780264719567e01233084050208c0002ef956af81182a8f80082a7000182a9e80082aaf0007b6830826b78027bb8107b67387bb7187b69287bb97b6a207bba089567c0128268700250208e00f1f08267780250229000fb9d00510806284641956cf81182c9e00082c8d80082cad00082cbc8007b6b10017bcba8007b6af8007bcab0007b6808017bc8b8009568a0127b6900017bc9c00050209200b0ef826878028287828218828908828a10957b20d87b07c8790cd89c09da7709c8a909d8a907c827077b8b7b8c087b89107b8718956a000282a7509568f8117b87a00082a7587b87980082a7607b87900064899568801282a7687b9788003307502094004cef9517e08477e07b67c00064713908f0010256181f0b2003f0010220011408000000000000ff007b68f00014080000000000ff00007b68e800140800000000ff0000007b68e0001407000000ff000000007b67d8004926d00000ff00140700000000000000ff7b67c8009517e08479e07b69700264913307000202837783993308200a083309330333023308826a700282ac1882ab1082a70882a46fca6fbc6f7b6f478264c0007b47187b6b20017b4b10644b7bbc087bba017b6728017b6c30017b6a38017b69900186971f7b6770028267f800d3730c826a0801d8a200826b0001d3b8097b688001d8b80bda900b7b627001d3a208d489097b637801d8730782681001826a7002d88a087b6cb8007b67a000dbc7087b6bb0007b69a800db9b087b687002956760126448502096000eef9568f811828768828870847aff007b6a6802826bd000d2b70a7b6a6002847a0000ff007b6a58028263d800d2370a7b6a50028262e000d2270a7b6a4802826ce800d2c70a7b6a40028260f000d2070a7b6a38028264c800d247077b6730029569f811829778848aff007b6a2802d2b80a7b6a2002848a0000ff007b6a1802d2380a7b6a1002d2280a7b6a0802d2c80a7b6a0002d2080a7b6af801d248087b68f001829880008479ff007b69e801d2b7097b69e00184790000ff007b69d801d237097b69d00182691801d279097b69c801d2c7097b69c001640ad207097b69b801d247097b69b0018489ff007b69a801d2b80084840000ff00d23803d22802d28c0cd28a0a988938826b70027b675001956700017b78487b79407b7a587b7c607b6268017b6388017b6498017b60a001520b06285a3e8267780250229800e39a009569ff079599f90151080628263e826868028e88492900014929f8007b98e8009568ff079588e1024929f00050209a00aaec50229c00d2960095872050229e0063960051080628eb3d826860025022a000339a007b9ae0007b9ad8007b98c8009568ff079588c1027b9ad0005020a2006aec5022a4009296009587405022a60023960051080628ab3d826858025022a800f399007b9ac0007b9ab8007b98a8009568ff079588a1027b9ab0005020aa002aec5022ac005296009587605022ae00e39500510806286b3d826850025022b000b399007b9aa0007b9a98007b9888009568ff07958881027b9a90005020b200eaeb5022b400129600958780005022b600a29500510806282a3d826848025022b8007299007b9a80007b9a787b98689568ff07958861027b9a705020ba00aceb5022bc00d495009587a0005022be0064950051080628ec3c826840025022c0003499007b9a607b9a587b98489568ff07958841027b9a505020c2006feb5022c4009795009587c0005022c60027950051080628af3c826838025022c800f798007b9a407b9a387b98289568ff07958821027b9a305020ca0032eb5022cc005a95009587e0005022ce00ea940051080628723c826830025022d000ba98007b9a207b9a187b98089568ff07958801027b9a105020d200f5ea5022d4001d9500958700015022d600ad940051080628353c826828025022d80012950049094919f8956900107b98e0f99568ff079588e101956900104929e8f95020da00afea5022dc00d79400958720015022de0067940051080628ef3b826820028e88956900104929d8f9956900104929d0f9956900107b98c0f99568ff079588c101956900104929c8f95020e00063ea5022e2008b9400958740015022e4001b940051080628a33b826818028e88956900104929b8f9956900104929b0f9956900107b98a0f99568ff079588a101956900104929a8f95020e60017ea5022e8003f9400958760015022ea00cf930051080628573b826810028e8895690010492998f995690010492990f9956900107b9880f99568ff079588810195690010492988f95020ec00cbe95022ee00f39300958780015022f000839300510806280b3b826808028e8895690010492978f995690010492970f9956900107b9860f99568ff079588610195690010492968f95020f2007fe95022f400a793009587a0015022f60037930051080628bf3a826800028e8895690010492958f995690010492950f9956900107b9840f99568ff079588410195690010492948f95020f80033e95022fa005b93009587c0015022fc00eb920051080628733a8268f8018e8895690010492938f995690010492930f9956900107b9820f99568ff079588210195690010492928f95020fe00e7e8502200010f93009587e001502202019f920051080628273a8268f0018e8895690010492918f995690010492910f9956900107b9800f99568ff079588010195690010492908f9502004019be850220601c39200958700025022080153920051080628db398268e8018e88956900104929f8f8956900104929f0f8956900107b98e0f89568ff079588e100956900104929e8f850200a014fe850220c017792009587200250220e01079200510806288f398268e0018e88956900104929d8f8956900104929d0f8956900107b98c0f89568ff079588c100956900104929c8f85020100103e8502212012b92009587400250221401bb91005108062843398268d8018e88956900104929b8f8956900104929b0f8956900107b98a0f89568ff079588a100956900104929a8f850201601b7e750221801df91009587600250221a016f910051080628f7388268d0018e8895690010492998f895690010492990f8956900107b9880f89568ff079588810095690010492988f850201c016be750221e01939100958780025022200123910051080628ab388268c8018e8895690010492978f895690010492970f8956900107b9860f89568ff0795886195690010492968f85020220120e7502224014891009587a00250222601d890005108062860388268c0018e8895690010492958f895690010492950f8956900107b9840f89568ff0795884195690010492948f850202801d5e650222a01fd90009587c00250222c018d90005108062815388268b8018e8895690010492938f895690010492930f8956900107b9820f89568ff0795882195690010492928f850202e018ae650223001b290009587e0025022320142900051080628ca378268b0018e8895690010492918f895690010492910f8956900107b9800f89568ff0795880195690010492908f8502034013fe6502236016790009587000350223801f78f00510806287f378268a8018e884926f8074926f0077b68e0079568e0074926e80750203a0107e650223c012f90009587200350223e01bf8f005108062847378268a0018e884926d8074926d0077b68c0079568c0074926c80750204001cfe550224201f78f009587400350224401878f00510806280f37826898018e884926b8074926b0077b68a0079568a0074926a8075020460197e550224801bf8f009587600350224a014f8f0051080628d736826888018e8849269807492690077b688007956880074926880750204c015fe550224e01878f009587800350225001178f00510806289f36826868018e8849267807492670077b68600795686007492668075020520127e5502254014f8f009587a00350225601df8e00510806286736826860018e8849265807492650077b684007956840074926480750205801efe450225a01178f009587c00350225c01a78e00510806282f36826858018e8849263807492630077b682007956820074926280750205e01b7e450226001df8e009587e003502262016f8e0051080628f7351408ffffffffffffff0082694801d3980882695001e19808826940018e99938949261807492610077b69000795680007492608075020640165e4826878028287828218828908828a10957b0004d87b07c8790cd89c09da7709c8a909d8a907c827077b8b7b8c087b89107b8718826a380195aa0188a701826c3001c87c0cd4ca0788770182682001c87800d8800882672801c8870782689001958220d8820982687801c89803d8830bda990b82687001c88b0bd88b0982688001c898088264c00064497b97187b40107b9c087b9a7b602001642964b22835f59567f83149176049175849175049174895670030837740020a10956af8310182a75882a86082a95082aa48d49808d4a707d48707510706286f57826778028177330843ac78062868579567c0223300660133020c05282393009568f8218287d800956900027b97688287d0007b97708287c8007b977895670030837760023308040a0233026801956af8310182a76882a87082a97882aa8000956bf8217bbac0007bb9b8007bb8b0009568a0227bb7a800330750206a010de39567f8214927a00049279800492790006479330720956880224929880050206c01eae23308f001023907f0010256173f0b2003f0010240019517e08479e07b69500264913307000202837783997b6860023308407b6758020a08826a500282a71882a81082a90882aa6f777b6748026f877b6740026f977b6738026fa77b6730029517e08477e07b6750026471826768029777209877209569f821492980007b9778826770027b977095686022826778027b9768330750206e0151e2826730029568f8217b8760826738027b8758826740027b8750648a33072095684022826948027ba9485020700122e282686002818756173f08480840019517e08477e07b6778026471837933084082675802330072010a08826a78023302740128e29300826a780250227401da9300826850027b8a187b89107b8b087b879567202250207601bbe29567f8218277287b677802956700223308405020780177e0956af82182ab2082a81882a91082a70850227a0117900051080628ec327c6878028e88490a491af87ba8e89568e021491af07b67780233002a022871e1492ae000492ad800492ad000492ac800956700308377c00233007c010a10956af8312807956af8310182a7d80082a8e00082a9d00082aac800d49808d4a707d48707510706281f5550227e01d99200ac7806281a55956700308377e0023308040a029567f8318279e8007b6968028278f0007b686002827af8007b6a5802827b00017b6b5002956cf8217bcbc00595cb00057bbab8007bb8b0009567c0279568a0277bb9a800502080019c6f956af82195ab000582b7c80082b8e00082b9d00082bad8005022820168920083aaf801c86a0a95ac00017bc7087bc9107bcb187bc82095678027956800335020840176e19567f821827890057b687002827888057b684802807798057b67400233070002037b6778028377330086010a04826978023302880128db8c008269780250228801d38c0082694002d3980882694802d39707d4870782687002d3a808d487078877019568f82149288005492878057b876805956760274928700533008a0133022a05286791009517e08477e07b677002647182675002956af82195ab00057bb720826758027bb718826760027bb7109567202795680027826968027bb90850208c01946e9567f821957a000582ac387b6c680282a84082a9287b69500282ab307b6b5802826770027b7c107b781864827b6860027b797b7b089517e08478e06481959701887901c89b0bd4b709889901c8c909d8c90ac82a0a7b89107b8b087b877b8a189567e0267b68100250208e0144e09568f821828700057b674802958a000482a9f8007b69400282a7f0007b67080282a7e8007b670002140700000000ff000000d297078877014928e0044928d8047ba7c8009567c0264928d00433009001330244052863900082685002502292012a8e00c8b808956bf83195bc00017bc8407bca387bc9307bc7289567a0269568203350209401bcdf9569f821829aa804956b000282b74897771882b840988828d48707c8a7077bba387bb718d8a707647894788e8a7bb7287bb8307bba20db8a07510706288e528297b0047b67f80195678026330096013302960528298e009567f821827788048477ff956a000282a818d8870782a9288e98da970882a73082a920db7908520806284815956740243308405020980100dd956bf82182b2600295b80002828c58828a50828748d42a09d4c708d49808988820d4c909979920d4980851080628622f492b3802492b3002492b28027b6a7002140a00000000a079c308956820247bba40027b6778027b6268027b6c600250209a01d6dd956c000282c87882c76882ca60d47a0a50229c01538c0052070628112f8387049569f821492920024929180249291002330c20956800247b9c08027b6a68027b6b600250209e018ddd95690002829b68829a708298788297609577dcd8780794a794b752070628c52e8387249569f821492900024929f8014929e801209568e0234929f0015020a0014bdd5022a2019f8a0052070628962e83a7443a08100002956bf82195bc00017bc8e0003a081800023a092000023a0a2800027bc8d8007bc9d0009568c0237bcac800330062022801dd4929800449297804492970044929680495670030837760fe3300a4010a103302a60128e38b005022a601df8b0082b77882b8800082b97082ba68d49808d4a707d48707510706283851826778028177561703072833519567a0163308405020a80167db956af81195ac000482cbc00082c8b80082c9b00082c7a8005022aa01ff8a0051080628d42d3a0880000295ac00047bc8a0003a0b8800023a089000023a099800027bcb98007bc89000956880167bc988007b67780233002a022842dc4929400449293804492930044929280495670030837720fe3300ac010a103302ae0128248b005022ae01208b0082b73882b84082b93082ba28d49808d4a707d48707510706288a505022b001aa8d00ac780628855095670030837740fe3308043300b2010a023302b40128dc8a005022b401d88a0082b94882b75082b85882ba60956bf81195bc00047bca607bc8587bc75095676016956840167bc9485020b601e1739568f8119589000482978000956800027b87788297787b87708297707b87688297687b8760956720163308405020b80136da956af81195ac000482c74082c83882c93082cb28d49707d48b09d47909989920d48707977720d4970751070628992c9569000282976095ac00047bc7088297687bc7108297707bc718956800168297787bc72064b77b9b7833002a02280edb492a2003492a1803492a1003492a080395670030837700053300ba010a1001956af83195ab000382b71882b82082b91082ba08d49808d4a707d48707510706286c4f5022bc017c8c00ac780628674f95670030837720053308040a02956af8310182a7380382a84003857901d489098877019487939752070628424f82a730037b67700282a728037b6768023300be0133029c0528538c009567e02a3308405020c00132d99569f82982920001829cf800829bf0008297e800d42b0ad4c708d4a808988820d4ca0a97aa20d4a80851080628952b4929d8004929d0004929c800140a00000000421811e89568c02a7b9ae0007b6778027b6b60027b6c58027b6250025020c20109da956b000282b97882b75882b850d487071408fcffffff00000000d8890882ba6094a8947852080628372b839704956af829492ac000492ab800826868027ba8a8009568a02a826b70027babb0005020c401b6d95020c60122d83a082002037b6870023a083002037b6868023a072802037b6748020a0a826748026f77977820826968026f99989920d49808987720826970026f99330b000203979a20d4a7079899207b6b70023d091002033e070802033e080002039567f83149276003492758034927500349274803330824826778025020c8018adc7b676802330820826778025020ca0179dc9569f831959a0003481a6820492aa000ff492a9800ff492a9000ff492a8800ff8268700297882098882014090000000008000000d498029568403597882098882095698035979920d4890a8268680297882098882014090000000024000000d4980b97772098772095686035978820d4780c3308ff3309ff64270a015207062885519567802a3308405020cc0159d79567f8298278a0007b687002827898007b686802827890007b686002827788007b6778023300ce010a0c3302d001281786005022d00113860051080628ac29647998772051070628a1295022d2019c89005020d40193db9568f831826968027a89a8038377956800308388a00533090a0b9567f8318177a80328df0e5147fc38b2750a28c24c4929600749295807492950074929480795670030837740013300d6010a1001956af82995ab00075022d801218b0051070628e04c8267780281775617030728db4c9567601f3308405020da0185d6956af81995ac000582cb800082c87882c97082c7685022dc0120860051080628f5283a0830000295ac00057bc8603a0b3800023a084000023a094800027bcb587bc8509568401f7bc9487b67780233002a022867d74929a00249299802492990024929880295670030837780fc3300de010a1001956af82995ab00025022e001d58800510706284d4c5022e201e38800ac780628484c956700308377a0fc3308040a02019569f82995970002827cc000827ab800827bb000d4ca0788b801947852080628204c8298a802826778028074958723d88709c89b027b6b6002d8b20bda990bc8ab0b7b6a6802d8ab097b6c7002c8c909d4b909d847079427949752070628ea4b7b685802838804956700308377c0fc0a0201956af82982a7e00282a0d80282a9d0027b671002d47007889801947852080628be4b82aac80298a73b979805d4780b7b6af80197a80582675802957a24d87a0482636002c84307c8b702c8a8087b6838027b6a4802d8a80bc8b202d3720cd8720adacb0a980b3b826c100297cc05d4cb0b7b690002989c3b7b600802970805d4c8087b675802d8370cda440c82676802c87c0cd87c0982677002c87909c8c8087b695002c89b0b7b6c4002d8c809c8b909826b780280bbc88a0ad88a08c8980882673802d87b09882b01859901db2b0988870188ab01db870bd4a808db8b0952090628034b3300e40133029c05289287009567e0063308405020e60171d495680006828af800828bf000828ce8008287e000d4ac09d4b708d49808988820d4b909979920d4980851080628d4264926d0064926c8064926c006140900000000adfdf2199568c0067b69d8067b67e8017b6ad8017b6bd0017b6ce0015020e80148d5956900018298e8008297d800829bd000d47b0b140c00000000010000001407fcffffff00000000d87807829ae00094a794b75207062868268387044926b8064926b0064926a006209568a0064926a8067b6b78027b6c70025020ea01ead4826ae0018269e801826770029577dcd8790794a78268780294875207062822268397248268f801956900067b988000826800027b988800826808027b98900095688006826b10027b9b98005020ec0199d4330c330a33033304956b000182b8e8009587447b677002d8870782b9e000c879087b686802d89808da770882b7d000c878087b686002d8780782b8d800c887077b6778021407ffffffff000000007bb7f0008262480282604002018267f801d87c0782690002d39a087b6a3802d89a09da8709826b0802d8b307826a1002d3a408d8a40ada870ad3b307d48707da790a520a0628901ed402078268500282695802d49808d48707987720d40808978820d487075107062838257b6320027b6428027b6c30027b6040027b6248028328956700308377e0fc0a02019562f829822b00038228f8028eb9988a208eaadbb90a8269f001d38909d4b909939a510a0628f02482677002826c6002d4c7098264780282636802d4430ad4a909989920d4ca0a97aa20d4a90951090628c4248229f002822ae8027b6aa005956a00057ba9a8007ba8b0009568a0057babb8007b6478027b6770027b6368027b6c60025020ee0136d3826870029587207b671802d8870982676802c89703d8730ada990a82676002c8a700d8700a82677802c8a7077b67780282674802957220d8720b82675802c8b709d87907dabb0782684002c88707d8870b82685002c8b8087b685002826c300295cc0188cb01826a3802c8ba0ad4ac0b88bb0182682002c88b0bd88b0882642802c88404826818027b6870027b6368027b6060027b695802647064b3285cfe4929800749297807492970074929680795670030837760013300f0010a1001956af82995ab000782b77882b8800082b97082ba68d49808d4a707d4870751070628a7475022f201018400ac780628a24795670030837780013308040a029568f829958900078297a0007b677002829798007b677802829790007b676802829788007b6760024928c0074928b8074928b0074929a80001956760219568a0315020f401e5d2826470028263680282626002956cf81995c9000782977082986882c07807829a8000d3730bd87307d88208dbb708d3a407d8a409826a7802d80a0bdb790bd30a09d49707db7b085208062809479517e08477e07b67580264717bc420077bca18077bc3100795672021956800217bc208075020f60150609568f819958c000782cb387b6b600282c7407b67780282ca287b6a680282c9307b697002826858027b8b107b87187b8a7b89089567e0205020f80131d29568f819958900068297f8007b6748028297f0007b6758028297e8007b6750028267680295770188780182697002c898089569f829959a00077ba8d000d478087ba7c80088870182686002c887077ba7d800d8870782687802c887077ba7e0009567c0209568c0315020fa01c3d19568f819958900068297e0007b6728028297d8007b6740028297d0007b6730028297c8007b673802826868029587025022fc017b7e7bb895b800ff7b8af8007b89f0007b87e8009567a0209568e0315020fe016ed19568f8198287b0067b6718028287a8067b67200282686802958704502200023a7e7bb8207bba187bb9107bb70895678020956800325020020233d1330204029568f81901828790067b676802828788067b6760029567602033084050200602e1ce956bf81982b2800695b80006828c78828a70828768d42a09d4c708d49808988820d4c909979920d49808510806284321826848029788207b6a7002988a20492b60068268500295b900067b9848826858027b9850956840207b9a587b6778027b6258027b6c500250200802aecf956a000282ab7882a75882ac50d47c0c140900000000010000001407e0ffffff00000000d87b0782a870948794c752070628d2201408ffffffff000000007b69500282694002d28909826830028488ff826a380284aaff83b720956bf819492b40067bba28067bb83006956820207bb938067b6c580250200a0232cf956a000282a97882a7509577c0d8790782a870948782a8589487520706286a20140700000000ff00000082684002d287078e788397409569f81949292006492918067b980806956800204929100650200c02dece956b000282b978140a00000000010000001407a0ffffff00000000d8790782b870948782b85894875207062808208267400298772882682802978818d478088397609569f819492900064929f8057b98e8059568e01f4929f0057b6a500250200e027ace956a000282a97882a750957780d8790782a870948782a858948752070628b21f826720028478ff839780009569f8194929e0054929d8057b98c8059568c01f4929d0055020100231ce95670002827b58827a7082797814080000000001000000140760ffffff00000000d8790794a794b7520706285b1f826718027b6850028478ff8397a0009569f8194929c0054929b8057b98a8059568a01f4929b00550201202d6cd95690002829a78829750957740ffd87a0782987094878298589487520706280d1f83a7c000956bf819492ba005492b9805826860027bb888059568801f826968027bb99005502014028bcd3308e0008267780250201602d4d083783309e00033070a0d289601492ae003492ad803492ad003492ac803956700308377c005330018020a1001956af83195ab000350221a02c9800051070628a7428267780281775617030728a2429567202b33084050201c02e8cb9567f829957900018298407b6878028298387b6870028298307b6860028297287b67680250201e026acb956b000282b77882b860d4870782b868648a82b970502220020a8000510706282e1e3a092002033a082802033807300203956bf829492b200195bc00017bc7187bc8109568002b7bc90864a750202202a6cc3308208267680233002c0228eccf492ac000492ab800492ab000492aa800956700308377a0020a1033022402956af8310182a7b80082a8c00082a9b00082aaa800d49808d4a707d4870751070628d1418267780281775617030728cc41956760233308405020260202cb956af82195ac000182cb800082c87882c97082c768502228029d7a51080628731d492a6001492a5801492a500195684023492a48017b67780250202a02fdcb3308208267780250202c0247cf837833092033070a0d280a33092033070a0d01492a6002492a5802492a5002492a4802956700308377400433002e020a1001956af83195ab000250223002f17e51070628354150223202577dac780628314195670030837760043308040a02956af8310182a7780282a88002857901d4890988770194879397520706280c4182a770027b67680282a768027b6770023300340233029c05282f7d9567c029330840502036020fca9569f8218292e00795980007828cd800828bd0008287c800d42b0ad4c708d4a808988820d4ca0a97aa20d4a808510806286e1c7b6238027b6c40027b6b48024929b8074929b0074929a807140a000000006fecc9649568a0297b9ac0077b67780250203802e2ca50203a024ec93a082002037b6860023a083002037b6858023a072802037b6750020a0a826750026f77977820826958026f99989920d49808987720826960026f99330b000203979a20d4a7079899207b6b60023d091002033e070802033e080002039568f8314928a00249289802826768027b879002826770027b8788023308048267780250203c02aecd7b6770023308208267780250203e029dcd9569f8314829a80220959a0002492ae000ff492ad800ff492ad000ff492ac800ff82686002978820988820140a0000000008000000d4a80295688034978820988820956ac03497aa20d48a0a8268700297882098882014090000000004000000d4980b9777209877209568a034978820d4780c3308ff3309ff64270a0152070628663f95678029330840502040027cc89567f821957900078298a0007b687002829898007b686802829890007b686002829788007b677802330042020a0c3302440228367750224402337751080628cd1a647998772051070628c21a50224602bd7a50204802b5cc9568f831826968027a89e8028377956800308388e00433090a0b9567f8318177e8020182687002ae870628891a0a0c016478987720510706287b1a826778027b68700250204a026ccc8378816970023307010a0d3308000202286b1a1407ffffffff00ffffff82684002d2870714080000000001000000d487079569f83182680002959a00017ba848826808027ba850826848027ba8607ba758956840338267100250204c0229ca956c000282c850958704d8870882ca58c88a09d8a90ada880a82c868c88a0ad88a0882cb60c8b808956bf83195bc00017bca787bc9707bc7687bc88000956760269568603350204e025dc98267f8018478ff82603802d880079a7951090628df3e9564f82182426804824b7004c98008d6820aca8b0cc8ac07d8c70ad68b0cc8ac0cca920ac8a7077b676802d8a703ca9b07d69b0bd69209c89303c8c303d8c30cc87303c8cb0bd8730cc8cb0bc89707c8a707c83a0ad83a09c8b707c897078e798eabdb790bd4a707937b510b0628ef3e52000628633fca82077b676002956740268268700250205002bcc89567f821957900048298487b6870028298587b6858028297507b67500282676002826868028269380250205202887b7b6768027b6860020a0a826850026f88978920826a58026faa98aa20d4a909988820826a70026faa97ab20d4b80898aa20826b78027aba107bb8087bb99569f8314929a0014929980182686002959a00017ba89000826868027ba888004829a8018e77fc089a787ba8e0007ba8d8007ba8d0007ba8c80097b820988820977723d4870795688033978820988820330b0002029569c033979920d4890a7b6b480297bb2098bb209568a033978820d4b80c3308ff3309ff0a7b6778020a0c01826978025207a00c52090628a93f9567a0253308405020540288c59569f8218292c00395980003828cb800828bb0008287a800d42b0ad4c708d4a808988820d4ca0a97aa20d4a80851080628e717492998034929900349298803140a00000000a079c308956880257b9aa0037b6778027b6b70027b6260027b6c6802502056025bc6956c000282c87882c76882ca60d47a0a50225802d8745207062897178387049569f8214929800349297803492968032095686025492970037b6a68027b6b600250205a0215c650225c028376520706286117838724956af821492a6003492a5803492a48030f95684025492a500350205e02e7c5502260023b7352070628331783a7443a080000023a09080002956bf8217bb84003492b30037bb9380395682025492b280350206202b0c53308648267780250206402fac883783307013309640a0d01492b8005492b7805492b7005492b6805019567001f9568602f502066026bc69562f81995270005827b20827c18827a108eb78ec8dbb708d4bc078ea9db780951090628563d822708057b6788019577019569f8294929880501887801c8a8087b97a805d487077b98b005887701c8c7077b97b805d8c707c8b7077b97c0054929a00549299805492990059567802f9568a02f7b6ba0017b6c98017b6a90015020680267c6956af8198267a00195ab00047bb7c000826798017bb7b800826790017bb7b0009567c01e9568a01e826988017bb9a80050206a0292539517e08477e07b6750026471956af8198267a00195ab00047bb760826798017bb758826790017bb7509567601e9568401e826988017bb94850206c0254539567f819957c000482cb787b6b680282c880007b68600282ca687b6a480282c9707b695802826750027b7b107b78187b7a7b790833070002037b67800183777b6778010a048269800182970881981082996f77977a206f88988820d4a8087b6810029877206f98978920d497077b6708029888207b6800029567201e8268500250206e02ecc49568f81980873c048288400497772082690002d497079569f829959a00057ba8e000826808027ba8d000826810027ba8c8007ba7d8009568c02f826750025020700229c59517e0847ce064c18267480295770188780182695802c89808d48709889901826a6802c8a909d8a90a826b6002c8ba0a7bca187bc9107bc8087bc764c87b6ca801826718029777209877207b6750029567001e502072024fc49568f81980871c049777208288200482695002d4970782692002956af82995ab00057bb9f000826928027bb9e8007ba800067bb7f8009568e02f8267a801502074028cc49567e01d330076023302960528bf729567f8198277e8037b6750029567c01d8268a80150207802e2c3956af81995ab000382b7c80082b8d00082b9e00082bad800826c500298cb1897cc2898992897992897aa1898aa18d4ca0ad4b909956bf82995bc00067bc8107bc7087bc9207bca18956800308267a80150207a020dc49517e0847ce064c18268480250227c02c271c88b0b64c87b6c50027bcb187bca107bc9087bc79567a01d50207e025cc39569f819959a000382a7b00082a8b80082a9c000826a3002d4a707826a3802d4a808826a4002d4a909956af829826b700295ac00067bcb287bc9407bc8387bc7309568203082675002502080028ec39517e0847ce064c182684802958704d88708826a5802c88a09d8a90ada880a82686802c88a0ad88a08826b6002c8b8087b6c40027bc8187bca107bc9087bc79567f82949276006492758064927500649274806956700308377400a109567f829827848067b683802827850067b6830029567801d82684002502082028fc29568f8198287a003828898039569f829826a3002959b00067bba70826a38027bba687bb780007bb878956860308267400250208402d9c29567601d82685002502086024ac29569f819959a000382a7800082a87882a968956af829492a900695ab00067bb7a0007bb898007bb9880095688030826750025020880293c29569f8194929400349293803492930039567401d9568201d826a70027b9a280350208a02365a9567f819957900038298487b6850028298507b6830028298587b6828028298607b6820029567001d33084050208c028fbf9567f819827920037b691002827818037b681802827c10037b6c3802827b08037b6b4002826a20027b7ae002826a28027b7ad802826a30027b7ad002826a50027b7ac8027b7900037b78f8027b7cf00264799567e01c9568c01c7b9be80250208e026757956a000282a71082a838d4870782a91882a840502290027973510706289e119567f8194927c0024927b8024927b0029568a01c826970027b79a802826740025020920220c09569f8194929800249297802826770027b9768029567801c9568601c49297002502094023659956af81995ab000282b7880082b8a00082b9900082ba98009572e0d87207c8790b95bbffd39b0cd89b09dac70995a7ffc87909d8790788aa01c9a808c88707d49208d4b707d47808988820d49707977720d4870751070628f810956a000282a71082a818d487071408e0ffffff0000000082a940d8890882a9389498947852080628ce108267780281777b677802826740029577207b67500264287b62700250209602acc2837781687002826978020a019517e0847ce064c182674802957903d8790782685802c8780ad88a08da770882676802c8870bd87b0782686002c887077b67e0017bc7187b6bd0017bcb107b6ad8017bca087b69e8017b6c78027bc99517e08477e07b67700264719567401c8268400250209802a6bd9568f81901958c000282c95882ca6082c74882cb50826870027b89107b8a187b67f0017b87648c8ea78e98dba7087b6908027b6a0002d4a9078eb9db78097b6bf8017bcb08510906289a398267400282685002d8780782693802c879087b684002d89808da770882671802c878087b6848029567201c8268780250209a0252bf9567f819957900028298407b6860028298387b6868028298307b6858028297287b673802826778028268700250209c02a1bf8268f80182695802d39807d89808826bf00182693802d89b09db7809826c080282676802d87c02826a000282686002d38a03d88a0ada320ad3c707d43707da790a84b71f7b67b001510af8049567f819956a000182a8e800957b00027bb80882a8d8007bb81082a8d0007bb8189568001c82a9e0007bb920330750209e02aebd3908f0010256181f0b2003f0010220019517e08479e07b69300264913307000202837783993308200a08018267f00195781fd87807826af801c87a09d8a90ada770a82620802c8a202972a3b989b05d4ba0a82673002827b1897993b827c10988805d498086fbb6fc9c8b8087b687802d8b80cc8c908c8a808d3980a7b687002d89803daac038267380295741fd8740782685802c8780cd88c0ada770a82606802c8a00097073b98c805d4870797cc3b984805d4c808c8b8087b685802d8b808c8890bc87b0bd39b077b6b3802d89b09da7809826830028287088288826a0802d8a20b826a0002c8ba0a982c0597ab3bd4cb0b6f886f7798aa05c87b0bc88a0ad87b0cc8ca0ac8b303d8b30bc8ba02826a6802d8a00a826b6002c8ba0a980b0597ac3bd4cb0b98aa05c8a808c87b0bd87b07c8780cc8b9097b693002d8b9098267b001510771019517e08478e07b68c0016481826a780288a7017b6c2002826b7002c97b07d4ab0b88bb017b69c801c9b309d8b30bc9b20b95aaff7b8b187b89107b87087b8a9567e01b7b6268027b6360025020a00208bd9567f819827800027b68b801957900018298f8007b6870018298f0007b6868018297e8007b6760018267b0019778037b6848019a8900017b6928023307ff3308ff5020a202706f7b6740017b682801826a280288a980007b693801648b939b7b6b5801647893987b6850019aa980003307ff3308ff5020a402626f7b67300182672801d487077b672801826748019a7980003307ff3308ff5020a602196f826a380182692801dba90882694001826b3001d4b909daa709826a280293a8ff93a9ff82676001d2970782696801d2980882697001826a5001d2a909826ab801826b5801d2ba0a956bf82995bc00067bcac0007bc9b8007bc8b0007bc7a8009568a0308267c0015020a8027ebc8269c801826c2002826360028262680201c8c909956800027b89289517e08470e06401828b78828c707b6020020182675802d87b0782693802d39c08d89c09da870982673002d87304826a2802d3a208d8a20ada840ad37307d48707da790a64077b7b7b7c087b03107b02189567f829510aad014927e0064927d8064927d0064927c8069568c03064077b6b78027b6c70027b6268027b6360025020aa02debb826020028262680295690002829c70829b7895bb0188b701c87c0cd4cb07887701829860c88707d88708c882026473285fff0a0c7b675802956720263308405020ac02ecb8956cf82182c240047b62600282c338047b63500282c430047b64680282c028047b6070028268580295871fd887088477e0957920d87907c8780ad88a0bda770b492c00047bc9e8037bc220047bc318047bc410047bc008047bcaf003956700269568e0257bcbf8035020ae02ba50956b000282b97082b76082b868d4870782ba50d4a908d47808988820d4a707977720d487075207e80a9567f8214927e0034927d8034927d0039568c025826a58027b7ac80364975020b0026bb90a0c01956c000282ca7082c86082c950d498081409e0ffffff00000000d89a0982cb6894b994895109990a64789877205207900a83a72064897b68680283887b68700264985020b20277bc9568f831826968027a89e8018377956800308388e00333090a0b019567f8318177e8018269780282687002ac874a0a281cf295690002829748829818d887077b97789567f819956a000182a8e800957b00017bb8c80082a8d8007bb8d00082a8d0007bb8d8009568c01b82a9e0007bb9e00033075020b402a6b83908f0010256181f0b2003f0010220018267100282687802c887077b6768029517e08479e07b69780264913307000202837783993308200a083302330c33038267f0019877058269f80197983bd487077b67e0019897058269080297983bd487077b67d801989705826b000297b83bd487077b67f001826a780282a782a80882a91082aa186f777b67c8016f87956800017b87d0006f977b87c0006fa7330a7b87b80098bb057b8be800018267e001d872078269d801d39c08d89c09da8709826bf001d8ba0464a7826ae801d3a308d8a30ada840a7b671802d3b707d48707da790a510a8705956900027b9c087b6210029517e08477e07b67f801647149262002492638024926300249262802330433007b630002330349267802829850829b48829c40018e07884920859a01db070a8e37826278028e29da27097b637002d42307da7a09956700027b78507b7b487b7c4052092801d4b80782696802d4c909d49707987720d4b909979920d4970752078c089567401a7b6460027b6058025020b602e7b5956bf8195022b802586a8e72956cf811492ce007492cd807492cd007826778027bb78267700295b800ff7b87f800826758027b87f000826760027b87e800826728027bb720826730027bb718826738027bb710826720027bb7089567201a9568001a9569e019956ac0197bc2c8075020ba023a4b82605802826460029568f8198287407b6728028287387b673002828730648b7b67380282685002958720d8870982684002c8980cd88c0ada990a82b8287b68200282684802c88a0ad88a0982686802c898087b686802954401884901c89000d4040988990182687002c89803d8830b82687802c8b8087b687802647864ab28aefe826bf801826720027bb7826738027bb708826730027bb710826728027bb7188267b80182681002c87802d882088269c00182670802c87909c88909d3790ad87907daa8078268d001826a1802c8a808d8a803826cc801826a0002c8ac0cc83c0ac88707d88708c8a808956af8297ba2e8067ba9f0067ba7f8067ba800079567e03064b85020bc0216b782630002826c080282621002952201882701c87c0cd4c20788770182681802c88707d88708c88303647a287efd8267e80182637002d87304826ce00182686802d3c80ad8c809daa409826ad001826b6002c9ab00d8ab02826bd801826a7802c9ba0bc92b0bd8900ac9ab0b7b6b6002c990097b695802c9c808c948087b686802c973077b6778025020be0288b33a082002037b6870023a083002037b6850023a072802037b6748020a0a01826748026f77977820826950026f99989920d49808987720826970026f99330b000203979a20d4a7079899203d091002033e070802033e080002039569f829492920034929180349291003826778026472826c5802d4c70782686002826a6802d4a808d48707987720d4c808978820d48707492908035207d7058267e80164287b6b68025020c002c5b77b6770023308208267e8015020c202b4b79569f829959a0003481a2820491a60ff491a58ff491a50ff491a48ff956c000282c86897882098882014090000000008000000d498029568002d9788209888209569402d979920d4890a82c87097882098882082cb7897bb20d48b0b9777209877209568202d978820d4780c3308ff3309ff64270a0152072c010a0c01330820ae87080a0c647801956b000182b9e80082bad8007b687002956c00067bc8207bc940492628064926780282b7e0007bc7484926300682b7d0007bc7504926380695674006956820067bca585020c4028e4a826a78028ea782687002888820858801dba7088ea78ea9daa709d4aa07da7809520906281531956700068268e8015020c6021eb2956b000682b71882b81082b982ba08956b00027bb7787bb870d487077bb9688898027bba6094a8947852080628ec309567e0053308405020c802e2b1956b000582b7f80082b8f00082b9e80082bae000d49707d48a09d47909989920d48707977720d497075207480495690002829768956b00057bb7c0008297607bb7c8008297707bb7d0009568c0058297787bb7d80064a77b9a7833002a0228b8b2956760063308405020ca0274b1956800068287787b6770028287707b6768028287687b6760028287607b6778023300cc020a0c3302ce022836605022ce0233605208d00364799877205207c7035022d002c1635020d202b9b59568f829826968027a896803837795680030838860fd33090a0b9567f829817768032805e98267b00151071b029517e08477e07b671802647149262002492638024926300249262802330c33093304330395670002827850827a4882624002827b68018267b001d87c078577017b6978029497017b6370027b646002d4340994970152073b017b6c5802d4a807d4b209d49707987720d4a909979920d497077b6a48027b6240027b6b680252070c039567a01b7b6850025020d4026bb0956cf81982c7b80182c8c00182c9b00182caa801d49808d4a707d487078e7b492c4001492c3801492c3001826770027bc76001826760027bc75801826778027bc75001826758027bc74801826728027bc78001826730027bc77801826738027bc77001826720027bc768019567801b9568601b9569401b956a201b7bcb28015020d602ad45956b000282bc589568f8198287a0017bb728828798017bb730828790017bb73882b750957220d8720982b740c89704d8740ada990a828888017bb82082b748c87a0ad87a0982b768c8970795cc0188c90182607802c89000d40c0988990182b860c88909d8890b82637002c8b3036428644264946409647b28a9fe8267e0018268b801c87802d882098268d801826bc001c8b808c89807d3b70ad8b70bdaa90b956a000282a81882a9207b8982a9387b890882a9307b891082a9287b89188269c801826ae801c8a909826af001826cd001c8ca0ad8ca0cc8c909c8ab0bd8ab0ac8a909956af8297ba2080795ac00077bc7107bcb187bc920956700315020d80291b19567001b8268a8015020da0202b1956af81995ab000182b70882b81082b91882ba20140bffffffff00ffffffd2b909956bf82995bc00077bca407bc8307bc7287bc938956820318267a8015020dc0240b19567e01a3308405020de0286ae9568f819828700017b6778028287f8007b6770028287f0007b6768028287e8007b676002826778013300e0020a04826980013302e20228025c826980015022e202fb5bd4780298aa206f99979820d4a808989920826aa0019567f8197b7aa0003a0a5000023a0b580002826c98017b7c9800826c90017b7c90007b7ae0007b7bd8003a0a6000023a0b680002826c88017b7c88004927c0007b7ad0007b7bc8007b79b8007b78b0009569c01a956aa01a956b801a7b72a800330733083300e402951120ff7b10d8007b15d0007b16c8009515e0008411e082bc7b1c4082bc087b1c4882bc107b1c5082bb187b1b5833020628da5e956b000282b77882b868d4870782b860648a82b9705022e602de6152070628762c003308000202838833070133090a0d280c838833070133090a0d018267100182689001d8780c826778028278187b68700282701082730882778268b8008269a000db890c8268b0008269a800db980c510c8200d4070c82687002d48308d48c0c98cc20d40808978820d4c808520894826868025022e80246617b9a607b9a587b9848956840127b9a505020ea021cae826a780282a882a21882a90882ab10958720d8870cc8c903d89309dacc09c89b00d8b00bc82b0b7ba77ba3087ba0107b6b70027bab18826890018688017b689001018268100182699001d8890b8268f80082697801d3890cd8890adacb0a8262080195690001829b70d82b048298829c8000d38c09d88c08da9408d32b0bd49b0bdaba085108a3005022ec02a1575208e3fe826860025022ee0294607b9a407b9a387b9828956820127b9a305020f0026aad826b780282b882b21882b90882ba10958720d88708c88903d89309da8809c89a00d8a008c88202956c000182ca900095aa0188a80182c978c889097bc9787bca9000d49a0888880182c970c89808d8980a82c98000c8a9097bc980007bb77bb3087bb0107b6270027bb2187bc8703302f20228e7565022f202e4568262080195690001829870d82804829c829a8000d3ca09d8ca0cda940cd32808d49808da8b0c510ca3005022f402d256520814fe826858025022f602c55f7b9a207b9a187b9808956800127b9a105020f8029bac826b780282b882b21882b90882ba10958720d88708c88903d89309da8809c89a00d8a008c88202956c000182ca900095aa0188a80182c978c889097bc9787bca9000d49a0888880182c970c89808d8980a82c98000c8a9097bc980007bb77bb3087bb0107b6270027bb2187bc8703302fa022818565022fa0215568262080195690001829870d82804829c829a8000d3ca09d8ca0cda940cd32808d49808da8b0c510ca2005022fc020356520845fd826850028e889569f81149094919f87b98e89568e0114919f05020fe02cdab826b780282b882b21882b90882ba10958720d88708c88903d89309da8809c89a00d8a008c88202956c000182ca900095aa0188a80182c978c889097bc9787bca9000d49a0888880182c970c89808d8980a82c98000c8a9097bc980007bb77bb3087bb0107b6270027bb2187bc87033020003284a555022000347558262080195690001829870d82804829c829a8000d3ca09d8ca0cda940cd32808d49808da8b0c510ca700502202033555520877fc826848025022040353554929e0074929d8077b98c8079568c0114929d00750200603faaa826b780282b882b21882b90882ba10958720d88708c88903d89309da8809c89a00d8a008c88202956c000182ca900095aa0188a80182c978c889097bc9787bca9000d49a0888880182c970c89808d8980a82c98000c8a9097bc980007bb77bb3087bb0107b6270027bb2187bc870330208032877545022080374548262080195690001829870d82804829c829a8000d3ca09d8ca0cda940cd32808d49808da8b0c510ca70050220a0362545208a4fb8268400250220c0380544929c0074929b8077b98a8079568a0114929b00750200e0327aa826b780282b882b21882b90882ba10958720d88708c88903d89309da8809c89a00d8a008c88202956c000182ca900095aa0188a80182c978c889097bc9787bca9000d49a0888880182c970c89808d8980a82c98000c8a9097bc980007bb77bb3087bb0107b6270027bb2187bc8703302100328a45350221003a1538262080195690001829870d82804829c829a8000d3ca09d8ca0cda940cd32808d49808da8b0c510ca700502212038f535208d1fa8268380250221403ad534929a007492998077b98880795688011492990075020160354a9826b780282b882b21882b90882ba10958720d88708c88903d89309da8809c89a00d8a008c88202956c000182ca900095aa0188a80182c978c889097bc9787bca9000d49a0888880182c970c89808d8980a82c98000c8a9097bc980007bb77bb3087bb0107b6270027bb2187bc8703302180328d15250221803ce528262080195690001829870d82804829c829a8000d3ca09d8ca0cda940cd32808d49808da8b0c510ca70050221a03bc525208fef98268300250221c03da5249298007492978077b986807956860114929700750201e0381a8826b780282b882b21882b90882ba10958720d88708c88903d89309da8809c89a00d8a008c88202956c000182ca900095aa0188a80182c978c889097bc9787bca9000d49a0888880182c970c89808d8980a82c98000c8a9097bc980007bb77bb3087bb0107b6270027bb2187bc8703302200328fe5150222003fb518262080195690001829870d82804829c829a8000d3ca09d8ca0cda940cd32808d49808da8b0c510ca70050222203e95152082bf98268280250222403075249296007492958077b984807956840114929500750202603aea7826b780282b882b21882b90882ba10958720d88708c88903d89309da8809c89a00d8a008c88202956c000182ca900095aa0188a80182c978c889097bc9787bca9000d49a0888880182c970c89808d8980a82c98000c8a9097bc980007bb77bb3087bb0107b6270027bb2187bc87033022803282b515022280328518262080195690001829870d82804829c829a8000d3ca09d8ca0cda940cd32808d49808da8b0c510ca70050222a031651520858f88268200250222c03345149294007492938077b982807956820114929300750202e03dba6826b780282b882b21882b90882ba10958720d88708c88903d89309da8809c89a00d8a008c88202956c000182ca900095aa0188a80182c978c889097bc9787bca9000d49a0888880182c970c89808d8980a82c98000c8a9097bc980007bb77bb3087bb0107b6270027bb2187bc870330230032858505022300355508262080195690001829870d82804829c829a8000d3ca09d8ca0cda940cd32808d49808da8b0c510ca700502232034350520885f78268180250223403615049292007492918077b98080795680011492910075020360308a6826b780282b882b21882b90882ba10958720d88708c88903d89309da8809c89a00d8a008c88202956c000182ca900095aa0188a80182c978c889097bc9787bca9000d49a0888880182c970c89808d8980a82c98000c8a9097bc980007bb77bb3087bb0107b6270027bb2187bc8703302380328854f50223803824f8262080195690001829870d82804829c829a8000d3ca09d8ca0cda940cd32808d49808da8b0c510ca70050223a03704f5208b2f68268100250223c038e4f492900074929f8067b98e8069568e0104929f00650203e0335a5826b780282b882b21882b90882ba10958720d88708c88903d89309da8809c89a00d8a008c88202956c000182ca900095aa0188a80182c978c889097bc9787bca9000d49a0888880182c970c89808d8980a82c98000c8a9097bc980007bb77bb3087bb0107b6270027bb2187bc8703302400328b24e50224003af4e8262080195690001829870d82804829c829a8000d3ca09d8ca0cda940cd32808d49808da8b0c510ca700502242039d4e5208dff58268080250224403bb4e4929e0064929d8067b98c8069568c0104929d0065020460362a4826b780282b882b21882b90882ba10958720d88708c88903d89309da8809c89a00d8a008c88202956c000182ca900095aa0188a80182c978c889097bc9787bca9000d49a0888880182c970c89808d8980a82c98000c8a9097bc980007bb77bb3087bb0107b6270027bb2187bc8703302480328df4d50224803dc4d8262080195690001829870d82804829c829a8000d3ca09d8ca0cda940cd32808d49808da8b0c510ca70050224a03ca4d52080cf58268000250224c03e84d4929c0064929b8067b98a8069568a0104929b00650204e038fa3826b780282b882b21882b90882ba10958720d88708c88903d89309da8809c89a00d8a008c88202956c000182ca900095aa0188a80182c978c889097bc9787bca9000d49a0888880182c970c89808d8980a82c98000c8a9097bc980007bb77bb3087bb0107b6270027bb2187bc87033025003280c4d50225003094d8262080195690001829870d82804829c829a8000d3ca09d8ca0cda940cd32808d49808da8b0c510ca70050225203f74c520839f48268f80150225403154d4929a006492998067b988806956880104929900650205603bca2826b780282b882b21882b90882ba10958720d88708c88903d89309da8809c89a00d8a008c88202956c000182ca900095aa0188a80182c978c889097bc9787bca9000d49a0888880182c970c89808d8980a82c98000c8a9097bc980007bb77bb3087bb0107b6270027bb2187bc8703302580328394c50225803364c8262080195690001829870d82804829c829a8000d3ca09d8ca0cda940cd32808d49808da8b0c510ca90050225a03244c5108062863f38268f00150225c03404c49298006492978067b986806956860104929700650205e03e7a1826b780282b882b21882b90882ba10958720d88708c88903d89309da8809c89a00d8a008c88202956c000182ca900095aa0188a80182c978c889097bc9787bca9000d49a0888880182c970c89808d8980a82c98000c8a9097bc980007bb77bb3087bb0107b6270027bb2187bc8703302600328644b50226003614b8262080195690001829870d82804829c829a8000d3ca09d8ca0cda940cd32808d49808da8b0c510ca900502262034f4b510806288ef28268e801502264036b4b49296006492958067b98480695684010492950065020660312a1826b780282b882b21882b90882ba10958720d88708c88903d89309da8809c89a00d8a008c88202956c000182ca900095aa0188a80182c978c889097bc9787bca9000d49a0888880182c970c89808d8980a82c98000c8a9097bc980007bb77bb3087bb0107b6270027bb2187bc87033026803288f4a502268038c4a8262080195690001829870d82804829c829a8000d3ca09d8ca0cda940cd32808d49808da8b0c510ca90050226a037a4a51080628b9f18268e00150226c03964a49294006492938067b982806956820104929300650206e033da0826b780282b882b21882b90882ba10958720d88708c88903d89309da8809c89a00d8a008c88202956c000182ca900095aa0188a80182c978c889097bc9787bca9000d49a0888880182c970c89808d8980a82c98000c8a9097bc980007bb77bb3087bb0107b6270027bb2187bc8703302700328ba4950227003b7498262080195690001829870d82804829c829a8000d3ca09d8ca0cda940cd32808d49808da8b0c510ca90050227203a54951080628e4f08268d80150227403c14949292006492918067b980806956800104929100650207603689f826b780282b882b21882b90882ba10958720d88708c88903d89309da8809c89a00d8a008c88202956c000182ca900095aa0188a80182c978c889097bc9787bca9000d49a0888880182c970c89808d8980a82c98000c8a9097bc980007bb77bb3087bb0107b6270027bb2187bc8703302780328e54850227803e2488262080195690001829870d82804829c829a8000d3ca09d8ca0cda940cd32808d49808da8b0c510cad0050227a03d048510806280ff08268d00150227c03ec48492900064929f8057b98e8059568ff079588e1074929f00550207e038f9e826b780282b882b21882b90882ba10958720d88708c88903d89309da8809c89a00d8a008c88202956c000182ca900095aa0188a80182c978c889097bc9787bca9000d49a0888880182c970c89808d8980a82c98000c8a9097bc980007bb77bb3087bb0107b6270027bb2187bc87033028003280c485022800309488262080195690001829870d82804829c829a8000d3ca09d8ca0cda940cd32808d49808da8b0c510cad0050228203f7475108062836ef8268c8015022840313484929e0054929d8057b98c8059568ff079588c1074929d00550208603b69d826b780282b882b21882b90882ba10958720d88708c88903d89309da8809c89a00d8a008c88202956c000182ca900095aa0188a80182c978c889097bc9787bca9000d49a0888880182c970c89808d8980a82c98000c8a9097bc980007bb77bb3087bb0107b6270027bb2187bc870330288032833475022880330478262080195690001829870d82804829c829a8000d3ca09d8ca0cda940cd32808d49808da8b0c510cad0050228a031e47510806285dee8268c00150228c033a474929c0054929b8057b98a8059568ff079588a1074929b00550208e03dd9c826b780282b882b21882b90882ba10958720d88708c88903d89309da8809c89a00d8a008c88202956c000182ca900095aa0188a80182c978c889097bc9787bca9000d49a0888880182c970c89808d8980a82c98000c8a9097bc980007bb77bb3087bb0107b6270027bb2187bc87033029003285a465022900357468262080195690001829870d82804829c829a8000d3ca09d8ca0cda940cd32808d49808da8b0c510cad005022920345465108062884ed8268b8015022940361464929a005492998057b9888059568ff07958881074929900550209603049c826b780282b882b21882b90882ba10958720d88708c88903d89309da8809c89a00d8a008c88202956c000182ca900095aa0188a80182c978c889097bc9787bca9000d49a0888880182c970c89808d8980a82c98000c8a9097bc980007bb77bb3087bb0107b6270027bb2187bc87033029803288145502298037e458262080195690001829870d82804829c829a8000d3ca09d8ca0cda940cd32808d49808da8b0c510cad0050229a036c4551080628abec8268b00150229c03884549298005492978057b9868059568ff07958861074929700550209e032b9b826b780282b882b21882b90882ba10958720d88708c88903d89309da8809c89a00d8a008c88202956c000182ca900095aa0188a80182c978c889097bc9787bca9000d49a0888880182c970c89808d8980a82c98000c8a9097bc980007bb77bb3087bb0107b6270027bb2187bc8703302a00328a8445022a003a5448262080195690001829870d82804829c829a8000d3ca09d8ca0cda940cd32808d49808da8b0c510cad005022a203934451080628d2eb8268a8015022a403af4449296005492958057b9848059568ff0795884107492950055020a603529a826b780282b882b21882b90882ba10958720d88708c88903d89309da8809c89a00d8a008c88202956c000182ca900095aa0188a80182c978c889097bc9787bca9000d49a0888880182c970c89808d8980a82c98000c8a9097bc980007bb77bb3087bb0107b6270027bb2187bc8703302a80328cf435022a803cc438262080195690001829870d82804829c829a8000d3ca09d8ca0cda940cd32808d49808da8b0c510cad005022aa03ba4351080628f9ea8268a0015022ac03d64349294005492938057b9828059568ff0795882107492930055020ae037999826b780282b882b21882b90882ba10958720d88708c88903d89309da8809c89a00d8a008c88202956c000182ca900095aa0188a80182c978c889097bc9787bca9000d49a0888880182c970c89808d8980a82c98000c8a9097bc980007bb77bb3087bb0107b6270027bb2187bc8703302b00328f6425022b003f3428262080195690001829870d82804829c829a8000d3ca09d8ca0cda940cd32808d49808da8b0c510cad005022b203e1425108062820ea826898015022b403fd4249292005492918057b9808059568ff0795880107492910055020b603a098826b780282b882b21882b90882ba10958720d88708c88903d89309da8809c89a00d8a008c88202956c000182ca900095aa0188a80182c978c889097bc9787bca9000d49a0888880182c970c89808d8980a82c98000c8a9097bc980007bb77bb3087bb0107b6270027bb2187bc8703302b803281d425022b8031a428262080195690001829870d82804829c829a8000d3ca09d8ca0cda940cd32808d49808da8b0c510cad005022ba0308425108062847e9826888015022bc032442492900054929f8047b98e8049568ff079588e1064929f0045020be03c797826b780282b882b21882b90882ba10958720d88708c88903d89309da8809c89a00d8a008c88202956c000182ca900095aa0188a80182c978c889097bc9787bca9000d49a0888880182c970c89808d8980a82c98000c8a9097bc980007bb77bb3087bb0107b6270027bb2187bc8703302c0032844415022c00341418262080195690001829870d82804829c829a8000d3ca09d8ca0cda940cd32808d49808da8b0c510cad005022c2032f41510806286ee8826868015022c4034b414929e0044929d8047b98c8049568ff079588c1064929d0045020c603ee96826b780282b882b21882b90882ba10958720d88708c88903d89309da8809c89a00d8a008c88202956c000182ca900095aa0188a80182c978c889097bc9787bca9000d49a0888880182c970c89808d8980a82c98000c8a9097bc980007bb77bb3087bb0107b6270027bb2187bc8703302c803286b405022c80368408262080195690001829870d82804829c829a8000d3ca09d8ca0cda940cd32808d49808da8b0c510cad005022ca0356405108062895e7826860015022cc0372404929c0044929b8047b98a8049568ff079588a1064929b0045020ce031596826b780282b882b21882b90882ba10958720d88708c88903d89309da8809c89a00d8a008c88202956c000182ca900095aa0188a80182c978c889097bc9787bca9000d49a0888880182c970c89808d8980a82c98000c8a9097bc980007bb77bb3087bb0107b6270027bb2187bc8703302d00328923f5022d0038f3f8262080195690001829870d82804829c829a8000d3ca09d8ca0cda940cd32808d49808da8b0c510cad005022d2037d3f51080628bce6826858015022d403993f4929a004492998047b9888049568ff0795888106492990045020d6033c95826b780282b882b21882b90882ba10958720d88708c88903d89309da8809c89a00d8a008c88202956c000182ca900095aa0188a80182c978c889097bc9787bca9000d49a0888880182c970c89808d8980a82c98000c8a9097bc980007bb77bb3087bb0107b6270027bb2187bc8703302d80328b93e5022d803b63e8262080195690001829870d82804829c829a8000d3ca09d8ca0cda940cd32808d49808da8b0c510c8e005022da03a43e51080628e3e51408ffffffffffffff00956a000182a948d3980882a950e1980882a9408e999389956aff0795aaf901492a8004492a78047ba968049568ff0795886106492a70045020dc034494826b780282b882b21882b90882ba10958720d88708c88903d89309da8809c89a00d8a008c828087bb77bb3087bb0107b6870027bb81801826228d827097b697802826a20d3a308d8a30bda890b826430c94008d84000826c7002826938c99c0cc90c0cd8b809c99c00c9b80cc9a30982687802c98909c92707956bff0795bbf9017bb2480495b800047b87287b8a507bb458047b89308267387b87607b8c389567ff07957741069568ff07958821067bb040045020de038d2a140700000000010000007b677802140740ffffff000000005022e003464052070628bfe482679800837ac0009567ff079577f901826828957b00047bb8088268207bb8108268307bb8189568ff07958801068269387bb9207b6a700264a75020e20327938268709587045022e4032f4295bc00047bc9107bc7087bca187bc8209567ff079577e1059568002e5020e603eb9382677802957720ff5022e803c43f520706283de4956bff0795bbf90195bc000382caf00082c8e800826998008397e000492be003492bd8037bc8c8009568ff079588c1057bcad0007b67b8015020ea03a7929567ff079577a1053308405020ec035c919568ff079588f901958b000382b9c00082bab80082b7b00082b8a800956b00017bb7d0007bb9c800d497077bb8d800d4a808d478089888207bbac000d4a707977720d4870751070628a3e39569ff079599f9014929a00349299803492990039568ff079588810549298803208267d8015020ee0320929567ff0795776105826898005020f003d490956a000182a7c80082a8c000d47809140700000000010000007b6778021407e0ffffff0000000082a8d800d8780782a8d00094877b69500294975207062826e3956bff0795bbf90195bc000382c77882c87082c968826a60d27a0a8488ff8499ff8267d801837720492b60037bc9487bc8509568ff07958841057bca585020f2038b919567ff07957721058268585020f4034090826778029577c05022f603f63b52070628bfe2956bff0795bbf90195bc000382c73882c83082c928826a60d27a0a8488ff8499ff8267d801837740492b20037bc9087bc8109568ff07958801057bca185020f80324919567ff079577e1048268505020fa03d98f140700000000010000007b6778021407a0ffffff000000005022fc037e3b5207062847e2956bff0795bbf90182b7000395bc000282c8f80082c9e80082caf000d49808d4a707d487078e788267d801837760492be002492bd8027bc8c8009568ff079588c104492bd0025020fe03a3909567ff079577a10482684850200004588f82677802957780502202040e3b52070628d7e19569ff079599f9018297a8028478ff8267d801837780004929a002492998027b9888029568ff079588810449299002502004044a909567ff079577610482684050200604ff8e140700000000010000007b677802140760ffffff0000000050220804a43a520706286de19569ff079599f901829768028478ff8267d8018377a00049296002492958027b9848029568ff07958841044929500250200a04e08f9567ff079577210482681850200c04958e82677802957740ff50220e044a3a5207062813e19569ff079599f901829728028478ff8267d8018377c00049292002492918027b9808029568ff07958801044929100250201004868f9567ff079577e10382687002502012043a8e140720ffffff0000000050221404ed3952070628b6e09569ff079599f901829700027b676802959a000182a7f8007b67600282a7f0007b67580282a7e8007b6778028267d8018377e0004929e0014929d801492ac80000019568ff079588c1034929d001502016040a8f956b000282b96082b778d4970782b86882ba58d4a808d48707987720d49808978820d487075107062837e09567ff079577a1038268780250201804938d140700000000010000007b6718021407e0feffff0000000050221a0438395207062801e09569ff079599f9018292c001959a000182a8b80082abb00082aca8008267d801837720017b6ce8017bac88007b6bf0017bab90007b68f8017ba898009568ff07958881037b6200027b92a00150201c04578e49263802492630024926200249262802956a000182a8d80095874001956b00027bb770d8870782a8d000c878097bb948d88908da770882a7c000c878087bb840d8780782a8c800c887077bb75082b7189577e07ba7e00001956c000182c7e80082683802d8780782c9f000826a3002d39a08d89a09da870982cbf80095680002828720d8b702828a828c28d3ac08d8ac0ada820ad3b707d48707da790a510ac10b956a000282a76882a860d4870782a8788269e001d8980882a9589498947852080628eade826778029578209567ff07957721037b68180250201e043f8c956b000282b77082ba40d4a70782b85082b948d49808d48707987720d4a808978820d4870751070628a6de8267780282681802d8780782685802c878097b691002d88908da7708826b6002c8b8087b680802956cff0795ccf90182c2400182c3380182c9280182ca3001d8b80b82676802c8b7077b676802d43908d42a07d487078e77492c2001492c1801492c10019568ff07958801037bc708018267700250202004d48c82687002958720d88708826a4802c88a09d8a90ada880a82684002c88a0ad88a08826b5002c88b0b7b6b5002826b380295bb0188b801826c3002c88c0c7b6b38027b6c3002d4cb08888801826b2002c8b808d8b80b826c2802c8bc0c956b00027bbc287bb7707bb9487bba4082b7187bb77882b7107bb75882b7087bb7607bb8202854fe330800020228b1dd330800020228a9dd330800020228a1dd33080002022899dd33080002022891dd33080002022889dd33080002022881dd33080002022879dd33080002022871dd33080002022869dd4929b8014929b0014929a80133022204140700000000717b484e33080020018388a003c868087b97c001330750202404ce8b330226049568f821014928a0014928980149288801116489330704956880234929900150202804a58b3908f0010256183f122003f001024033080002022809043308000202280104330800020228e7dc330800020228dfdc330800020228d7dc330800020228cfdc330800020228c7dc330800020228bfdc330800020228b7dc5247539e6d91d5039567f831491740491738491730491728956700308377200233002a040a10956af8312807956af8310182a73882a84082a93082aa28d49808d4a707d487075107120533080002022865dc3308000202285ddc33080002022855dc3308000202284ddc33080002022845dc3308000202283ddc33080002022835dc3308000202282ddc330800020283883307010a0d33080002022819dc33080002022811dc33080002022809dc33080002022801dc330800020228f9db330800020228f1db330800020228e9db330800020228e1db330800020228d9db330800020228d1db330800020228c9db49267002200a0c0156171f0b0a0c7b677002019569f82182677002959b00077bb748826778027bb7684926680249295007826748027bb77049295807826740027bb778492960079567602995684029826a38027bba800050202c0405218262780282677002c82700d8700882634802826c6802c83c09c88909d3c90ad8c90bdaa80b826a4002c8ac08c88b0bd88b04d8c80882673802c87c0cc8c808c884049568f8217b8bf8067b89f0067b80e8067b8720077b8a18077b8310077b820807648b95672029956800299569e0287bb4000750202e04b42333080002028388330733090a0d28ecda9567f821492798024927900249278802647933023004140700000000717b484e330800200183888004c868087b97a0023307502032044189330234049568f8210149288002492878024928680211648933070495686024492970025020360418893908f0010256183f122003f00102403308000202287c0133080002022874014924d8024924d0024924c80233023804140700000000717b484e33080020018388c004c868087b47e002330750203a04c78833023c049568f821014928c0024928b8024928a8021164893307049568a0244929b00250203e049e883908f0010256183f122003f00102403308000202280201330800020228fa009567f821492718034927100349270803647933024004140700000000717b484e330800200183880005c868087b9720033307502042044788330244049568f82101492800034928f8024928e8021264893307049568e0244929f002502046041e883908f0010256183f122003f001024033080002022882003308000202287a9567f811492778074927700749276807647933024804140700000000717b484e3308002001838860f9c868087b978007330750204a04c8879568f811492860074928580749284807416489330704956840194929500750204c04a4873908f0010256183f112003f001024033080002022808330800020201838833070133092433004e040a0d0152471f7447d53f019567f8314927200249271802492710024927080295670030837700040a1001956af83195ab000282b71882b82082b91082ba08d49808d4a707d487075107950133080002022892d88168480233070a0d2844bb49267002200a0c0156171f0b0a0c7b677002019567f829826870027b7848826878027b786849266802491750826860027b7870491758826858027b787849176064799567602a9568402a826a50027b9a800050205004c81d8262780282687002c82807d8870882636002826c6802c83c09c88909d3c90ad8c90bdaa80b82605802c80c08c88b0bd88b04d8c808826a5002c8ac0cc8c808c884049568f821958c00077bcbf8007bc9f0007bc7e8009567f8297b7a207b70187b73107b7208647b9567202a9568002a9569e0297bb450205204752033080002028388330733090a0d28add75247a7c9ff01559567f8294927a00149279801492790014927880195670030837780fb330054040a1001956af82995ab0001502256049a375107c8013308000202285fd750225804a337ac78633308000202284ed75247718c681162019567f8294927e0014927d8014927d0014927c801956700308377c0fb33005a040a1001956af82995ab000150225c0432395107040333080002022809d78267780281775617437201330800020228f6d69567c02133005e04330216052833359567f819957900078298c8007b6878028298d0007b6870028298d8007b6868028298e0007b686002330060043302ca052824379567f819956b000282b860957900077b98a00082b8687b98980082b8707b989000647a9567a0219568802182b9787ba98807330062043302a80628763733080002028388330733090a0d2871d69567f8114927b8074927b0074927a807647933026404140700000000717b484e33080020018388a0f9c868087b97c007330750206604c6849568f8114928a0074928980749288807416489330704956880194929900750206804a2843908f0010256183f122003f001024033080002022806fd330800020228fefc52475df12f2f92019567f8294927a00449279804492790044927880495670030837780fe33006a040a1033026c0428563350226c04533350226e04de3551072203330800020228a3d550227004e735ac789f0133080002022891d595670030837720043308040a029567f831957900028298287b6878028298307b6870028298387b6868028297407b6760029567c0283300720433020c05289d33330274049568f82101958900068297c8007b6758028297d0007b6750028297d8007b6748028297e0007b674002826760027b97a000826768027b979800826770027b979000648a9567a02895688028826978027ba9880650207604ca1b956bf82195bc000682c8a80082c7b00082c9b80082cac0007bca80007bc9787bc770956760287bc868330078043302f8052830359567f821956c000282c840957900067b982082c8487b981882c8507b981082c8587b980882c8607b984082c8687b983882c8707b9830647b95674028956820289569002882ca787bba280633007a043302ea0628883533080002028388330733090a0d2864d45247641c5636e0019567f8294927e0044927d8044927d0044927c804956700308377c0fe33007c040a1033027e0428c43150227e04c131502280043a365107060233080002022811d48267780281775617430602330800020228fed3956700308377a0fb3308040a02019568f829958b000182b7c00082b9b80082baa80082b8b000977b2098bb20d4a909d48b0bd49b0b510b3902330800020228bdd3330800020283883307010a0d330800020228a9d3330800020228a1d39567f819956b000182b888007b786882b890007b787082b898007b78789568601a82b9a0007b79800064a75020820407823308208267600233002c02284d859567ff07957761038268b80150208404ad80956aff0795aaf90195ac000182c76882c870330bffd2b709d2b8088267d80183770001492a6001492a58017bc8509568ff07958841037bc94850208604a881826370028260d801d80304826cd00182684802d3c80ad8c809daa409826ac001826b4002c9ab07d8ab02826bc801826a5002c9ba0bc92b0bd8970ac9ab0bc9970ac9c809c94909c90307d4b909647bd4a707d49707d4a908987720978820d487075107062899d28267d80164b87b6b780250208804888483788169780233070a0d284ab58267780281775617436e013308000202287ad29569f8295247be8a563657492900054929f8044929f0044929e804956700308377e0fe33008a040a1033028c0428e52f50228c04e22f82b7f80082a8000582b9f00082bae800d49808d4a707d48707510748023308000202281fd233080002022817d250228e045b32ac78430233080002022805d2956700308377e0fb3308040a029568f829828700027b674002958900018297f8007b6748028297f0007b6750028297e8007b67580295670030837700fc3308240a02019568f829958a000282a92082a71882a810956a00027ba7707ba968d497077ba878888801947852085d0233080002022890d1140a000000000bdb6579d37a0ad48a0ad49a0a88aa01140b00000000a7c9ff01d3b707d48707d49707887701d4a70749269802492690027b67800233078000956880024926880250209004da7fff3908f0010256289f00182003f00102a00033070002028378800028dab333070002028378800028ceb3956700308377a0fe3308040a029567f829957900048298a8007b6878028298b0007b6870028298b8007b6868028297c0007b676002956780173300920433020c0528212f9568f81195890005829788007b675802829790007b675002829798007b6748028297a0007b674002826760027b9760826768027b9758826770027b9750648a9567601795684017826978027ba94805502094045617956bf81195bc000582c86882c77082c97882ca80007bca407bc9387bc730956720177bc828330096043302f80528c0309567f811956c000282c840957900047b98e00082c8487b98d80082c8507b98d00082c8587b98c80082c8607b78000582c8687b98f80082c8707b98f000647b956700179568e0169569c01682ca787bbae804330098043302660628113133080002028388330733090a0d28edcf826778028177330843ac789c07330800020228cecf9567e01733009a0433021605280b2e9567f811957900058298e8007b6878028298f0007b6870028298f8007b686802827800067b68600233009c043302ca0528fc2f9567f811956b000282b860957900057b98c00082b8687b98b80082b8707b98b000647a9567c0179568a01782b9787ba9a80533009e0433022406284e3033080002028388330733090a0d2849cf9567f829827708027b676002826758027b674005826750027b674805826748027b6750059567600595684005826940027b6958055020a004700c826760058268780582696805826a70055022a204442f83aaf8f9c86a0a95ac00027bc7287bc9307bcb387bc840956720059568202c5020a404537eff826728057b673802826720057b673002806730057b67280233070002037b67200283773300a6040a04826920023302a80428bb29826920025022a804b42982692802d3980882693002d39707d4870782683802d3a808d4870788770149261805492610057b67000595670005492608053300aa0433022a05284d2e826740027b67b804826748027b67b004826750027b67a8049567c0049568a004826958027b69a0045020ac048b0b8267c0047b674802826bd8047b6b58028269c8047b694002826ad0047b6a5002957701887801c89808d48709889901c8a909d8a90ac8ba0a956bf82995bc00027bc7487bc8507bc9587bca60956780049568402c5020ae044f7dff7c67940488770149267804492670047b67600495676004492668043300b00433024405289e2d82674802957a03d87a0782684002c87809d88908da770882675002c87808d87807826b5802c87b0b9517e08477e07b6708026471826768027b67f803826770027b67f003826778027b67e803826760027b67e0037b6b10027b6b18047b6818027b6810047b6920027b69080495672004956800049569e0037b6a28027b6a00043300b20433025e0528002f956b000482b7587b67380282b7507b67e80182b7487b67e00182b7407b67300282b73082b83882b92082ba28826b08027bb7107bb8187bb97bba0864b89567c0035020b404567cff956800038287d0007b6708028287d8007b6700028287c0007b67f8018287c8007b67f001826b300298b73d8269e001979803d4870798983d826ae80197a903d4980898a93d826a380297aa03d4a90997bc037b6c38028e7a88cb000185bb01db7a0b8e978e8adb970ad49808db8a0b7b6bd00183c9803307ff0033085020b604a82e7b67c8017b68e001826838028d8980003307ff0033085020b804662e7b67e8017b68d801826730028a79033307ff0033085020ba04712e8269d0015209528262380288298000826be801826ac801da9a0b826ce001826ad801da9c0a932b932a939793988269f001d298088269f801d2970782690002d2a909826a0802d2ba0ad4a707d49808d487075207c0049517e08477e07b6738026471826768027b675803826770027b675003826778027b674803826760027b674003826710027b677803826718027b677003826720027b676803956780039568600395694003826a28027b6a60033300bc0433025e0528462d8267b8037b6778028267b0037b6770028267a8037b6768028267a0037b67600282679003826b980382698003826a8803826838027b87107b8b187b897b8a08956720035020be049a7aff826720037b672002826728037b671802826730037b671002826738037b6700029517e08477e07b6708026471826b600298b73d82696802979803d4870798983d826a700297a903d4980898a93d826a780297aa03d4a90997ba037b6a780264b28e9c8e8bdb9c0b8e7388ac000185cc01db730cd49808db8b0c7b6c28028a29037b69300233070133085020c004df2c826a780288a980007b69600293977b67700293987b68680283a9807b69e80133070133085020c204b52c7b67f0017b68f801826878028d8980007b69e00133070133085020c404702c6479826a60028267f001daa709826778029379826bf801daab0893788267280294787b68f80194797b69f0018268680294787b6868028268700294787b6870023307ff0033088269e8015020c604462c7b67d8017b68e8013307ff0033088269e0015020c804082c7b67e0017b68d00133073308826930025020ca04182c826ae001d47a0a826760028269d801da790a82697802939a7b6ae001826ad001d48a0a8268e801da780a939a7b6a78023307ff003308826930025020cc04d82b8269600293979398826978028599ff826ae00185aaff8588ff8577ff826b280294baff94b9ff94b7ff94b8ff826b0002d2b909826b1002d2ba0a826b1802d2b808826b2002d2b707826b7002d4b707826b6802d4b808826bf001d4ba0a826bf801d4b909826b08027bb9187bba107bb8087bb764b8826738025020ce040579ff9517e08478e0648182694802959702d8970b826a4002c8ba09d8a90adabb0a826b5002c8ba0ad8ba0c826b5802c8cb0b7b8b187b8a107b89087b87956700037b6878025020d0043a78ff826808037b6870025218ff5e014926d0024926c8024926c002140700000000717b484e9568c0027b67d80233075020d2041477ff4926b8024926b0024926a002113307049568a0024926a8025020d404f576ff3908f0010256183f122003f001024033080002022858ef33080002022850ef956780183300d60433020c05287b269567f811957900068298a0007b686002829898007b686802829890007b687002829788007b67780233070002037b67580283773300d8040a0401956c000282c9585022da04112382c968979920989920d3980882c978d39707d4870782c870d3a808d487075207d90095670030837700ff3308040a029569f829959b000582ba0882b71082b81882b920956bf811826c60027bbc2006826c68027bbc1806826c70027bbc1006826c78027bbc080695bc00067bc9407bc8387bc7309567401895682018956900187bca283300dc043302ea0628782833080002028388330733090a0d2854c79567e002826878025020de04c576ff956c000282c7e00082c8f80082c9f00082ca7095aa01956bf8297bba700295ba00027ba880007ba9787ba7689568602c82c7785020e0040c77ff33080002028388330733090a0d28fbc69569f811492978064929700614070000000032b297667b978006956860184929680633075020e2045e75ff3908f0010256181f0b2003f001022001330800020283883307013309043300e4040a0d019511a0fd951900027b90587b95507b9648951560028411e064168289107b69308289087b695082887b68587b6738492618024926100249260802956800024926000233075020e604ef74ff4926f8014926f0014926e8013307209568e0014926e0015020e804d174ff3308f001023907f0010256173f0b2003f0010240019517e08479e07b692864913307000202837783997b68483308407b67400a08826a2882a71882a81082a90882aa6f777b67206f877b67186f977b67106fa77b67089517e08477e07b672864718267309777209877204926d8017b677b67d0018267507b67c8019568c0018267587b67c00133075020ea044274ff826708956a00017ba7b8008267107ba7b0008267187ba7a8003307209568a0018269207ba9a0005020ec041474ff826848818756173f0e4808403302ee04286e275022ee046b270a08826a3082a71882a81082a90882aa6f776f8b6f996faa8268287b8a187b89107b8b087b87956780015020f004bc74ff7c678001510708330828f50149267801492670014926680195686001492660015020f204a373ff5022f40489205020f6049673ff826848818756173f0e4808403302f80428f0265022f804ed260a08826a3082a71882a81082a90882aa6f777b67286f877b67206f977b67186fa77b67109517e08477e07b673064714926380182677b6730018267507b672801956820018267587b67200133075020fa042973ff826710956a00017ba7188267187ba7108267207ba708330720956800018269287ba95020fc040073ff826848818756173f08480840019517e08477e07b6748647183793308408267403300fe040a08826a483302000528c324826a4850220005bd248268307b8a187b89107b8b087b879567e00050200205a073ff8267e0008268e8008269f800826af000847700ff867701956b00027bb9387bba307bb8287bb7209568200282673050200405ec73ff33070002037b67488377330006050a048269483302080528d91e82694850220805d31ed4780298aa206f99979820d4a8089899204916784926980082677b6790008267507b6788008267587b6780004926b8004926b0004926a8004926a0003a0aa000023a0ba800023a0cb000023a07b800027b6ad8007b6bd0007b6cc8007b67c0007b69707b68689569c000956aa000956b8000956c607b62603307330833000a0533020a282425330801018269387b984919084919104919189551a0fd9517000282705882755082764895116002320033082433000e050a0233021005282322502210052022510a0b50221205d1233200330800020283883307013309330014050a0d33021605282121502216051e21330804330018050a0233021a0528e32150221a05e021510a0b50221c059123320033080002028388330701330933001e050a0d01951100ff7b10f8007b15f0007b16e800951500018411e064167b671882877b67208287087b67288287107b67308287187b67384926d8004926d0004926c8004926c000019567a0009568c00050202005d271ff8267b8008262a0008269b000826aa800826838d3870bd87808826730d8970cdbb80c826828d38a03d8a80a826820d82808db3a08d39707d4b707db7c0851080001491658491650491648956840491640013307502022058670ff3908f0010256181f0b2003f0010220019517e08479e07b691064913307000202837783993308200a088262108227188228106f7a6f88330b05826720977902c87903d6b70b826928979c02c89c0cc8cb0bc8a303d8a30ac8b807c8a700d38007d88008da7a08d8cb07330b05d6b90ac8a707826930979a02c89a04d6b90b822c826938979a02c89a0ac8ba0a6fcbc8ba0a822b08c87404d87407c8a7076fbac8a404d8a40ac8a707c84808d8480ac8a707826a187ba37ba0087ba8107ba7183307491a38491a30491a28491a20955100ff8210f8008215f0008216e800951100013200492690004926880049268000140700000000717b484e956880007b6798003307502024057c6fff4916784916704916603233070495686049166850202605626fff3908f0010256183f0b2003f00102400133080002028388330701330924330028050a0d33022a05289f2050222a059c20510719955120ff8210d8008215d0008216c8009511e00032009517a00033084050202c05d16dff50222e052d2052076550223005ec2150203205f56eff50223405d31e51074f8217188377044911784911704911602095186049116850203605cf6eff50223805a4215107298216188367244911584911504911400e95184049114850203a05a96eff50223c05ae20520704008216188367443a08c000023a09c800027b18384911287b193095182049112050203e05796eff330864646750204005c471ff8378330701330964330042050a0d3302440528bf1f50224405bc1f510719955120ff8210d8008215d0008216c8009511e00032009517a00033084050204605f16cff502248054d1f52076550224a050c2150204c05156eff50224e05f31d51074f8217188377044911784911704911602095186049116850205005ef6dff50225205c4205107298216188367244911584911504911401b95184049114850205405c96dff50225605ce1f520704008216188367443a08d000023a09d800023a0ae000027b18387b19307b1a28140900000000006465749518207b1920502058058a6dff330864646750205a05d570ff837833070133096433005c050a0d33025e0528bd2050225e05ba2064167b673882977b67588297087b67408297107b67488297187b6750828718828910828a0882887b67307b67f8007b69287b69f0007b6a207b6ae8007b68187b68e0009567c0009568e00050206005036eff8267d8008262c0008269d000826ac800826850d3870bd87808826748d8970cdbb80c826840d38a03d8a80a826858d82808db3a08d39707d4b707db7c085108f0008267187b67608267207b67688267287b67709568608267307b6778330750206205ac6cff3908f0010256181f0b2003f0010220019517e08479e07b693064913307000202837783993308200a088264308247188248106f796f8a826358983705826b4097b83bd4870798b805826c4897cb3bd4b808c8a808c87902d89209c89808d3a80bd8a80adab90a824998cb05826750977c3bd4cb0b824c086f99987705c897076fc9c89b0bd89b09c89707c8ba0ad8ba09c8970784391f826b387bb9207bb27bb8087bba107bb7183307491b38491b30491b289551e0fe8210180182151001821608019511200132004926b0004926a8004926a000140700000000717b484e9568a0007b67b800330750206405bd6bff492698004926900049268000323307049568800049268800502066059e6bff3908f0010256183f0b2003f00102400133080002028388330701330924330068050a0d01951168ff7b1090007b1588007b1680007b1758829c7b1c308295088287107b175082921098c63d975b03d46b0b97cc038eb788c6000164c3856c01dbb70c64c6828b187b1b4898553d972b03d45b0b828c7b1c408299188288087b18387ca57b152898273d979903d497078e788eb9db7809d4b707db79067b166883398064367b19206457330850206a05b31e7b17707b18788d6980007b19186457330850206c05761e7b160888658000821a70da5a0793677b1770821778da570893687b18788217308a79037b1910821728330850206e056b1e7b15609357935882166894687b183094677b172882177894677b177882177094677b17703307ff00330882192050207005381e7b177b18203307ff00330882191850207205fe1d647564868218608217da87058217089375821920da890693763307ff00330882191050207405fc1d821960939793988588ff8577ff8569ff855aff821c6894caff94c9ff94c7ff94c8ff821b38d2b808821b40d2b707821b48d2b909821b50d2ba0a821b70d4ba0a821b78d4b909821b28d4b707821b30d4b808821b587bb8087bb77bb9187bba108210900082158800821680009511980032009511907b10687b15609515708411f0827a1882791082738277088eab8e9cdbab0c8e72883b00ff85bb01db720bd4a908db8c0b520b4395380001d8380bc8b70cd87c07dabb07c89707d89709c8a9097b18407b1c487b1750330740c871087b1958502076055c69ff955190821068821560951170320050227805061c50207a054169ff491118491110490141330704641849110850207c052969ff3908f0010256183f0b2003f0010240013308000202838833070133092433007e050a0d01951170ff7b1088007b1580007b1678951590008411f064728289827408828c088273959a1fd89a00c80c0984aae07b1308c8a303d8a30bc8490ac8ba0ad39a06d89a07da6b07822b18d8c90c828610822210828818da000cc86c0cd86c06c82c09c89707d8c90cd89709c8b808c86808c8c808c8980c8ec88e79dbc809d4c7088ea6db8906520658821808d88308d34a09d84a06da9806d82708d3bc09d8bc0bda980bd32708d49808da860b520b317b13507b1a587b17603307409518507b1c68502080053d68ff955170ff8210880082158000821678951190003200491140491138491130140700000000717b484e9518307b17483307502082050668ff4911284911204911104133070495181049111850208405ec67ff3908f0010256183f0b2003f00102400133080002028388330701330924330086050a0d01951140ff7b10b8007b15b0007b16a8009515c0008411e064168289828a08828b108288187b67187b68787b6b707b6a689568607b69603307502088058967ff49165849165049164833072095684049164050208a057067ff3908f0010256183f0b2003f0010240019517e08479e07b691064913307000202837783993308400a08826a1082a782a80882a91082aa186f776f886f996faa95aa0188ab01c8b909d49a0b88bb01c88b0bd88b08c887077b6a80007b6988007b6b90007b6798009567209568800050208c05ed67ff826730826838826920826a28826b187bb7107bb8187bb97bba08955140ff8210b8008215b0008216a8009511c0003200828b18828a108283088eb28eacdbb20cd4ba028e39db2c09520948828898a93b97bb05d49b02983b3b97aa05d4ba0a988b3b973305d4b30b978805958c20d88c08c88b09d8b90bda880bc8ab0bd8ab08c828087b7c7b79087b7b107b781832009511b07b10487b15409515508411f050228e051419502090054f66ff4911184911104901413307046418491108502092053766ff3908f0010256183f0b2003f00102400133080002028388330701330924330094050a0d3302960528c11550229605be150a0982173308005c2605cb870733084916184916104916087b679551c082103882153082162895114032009511907b10687b15607b16589515708411f0648a82841082880882920882a67b16829b7b1b08829010d3820c7b1c28d8820cd86b0b821328da3b0c64b682aa187b1a188299187b1910c9400ac9ca097b1920d8ca097b1428d8400b821418821a10c94a0ac9ba0ac99a0ac98209c969098212821b08c92b0b8e9c88bb2085bb01db9c0b8fa68219208e9cdba60cd4a909db9c0b510b656476821a28d4a207d44809d49707987720d4a909979920d49707520747951730642850209805e363ff821740821848857901d48909887a01948a939a510a2d821930821a387b697b6a087b67107b6818955190821068821560821658951170320000330800020228083308000202018388330701330933009a050a0d33029c05289b1650229c0598163a07e800027b6738956a00017ba7783a08f000023a09f800023a070001027b68287ba8707b69207ba968956860017b67307ba760330750209e058064ff5022a00566115020a2057364ff3308f001023907f0010256173f0b2003f0010240019517e08479e07b696864913307000202837783997b68783308407b67703300a4050a083302a605280d0f5022a6050a0f33070002037b676883777b67183300a8050a043302aa05285b0e5022aa05580e5020ac050764ff5022ae0586115020b005fa63ff826878818756173f0e4808403302b20528b3135022b205b0133300b4050a083302b60528d70f5022b605d40f5020b805b964ff7c67e000510719955160fe8210980182159001821688019511a00132005022ba05db105020bc059d63ff8267183300be050a043302c00528270e5022c005240e5020c2058063ff5022c4059e155020c6057363ff826778817756175f0b826878480860013307013309448268703300c8050a0d3302ca052825155022ca0522153a070801027b6738956a00017ba7783a081001023a091801023a072001027b68287ba8707b69207ba968956860017b67307ba76033075020cc050a63ff5022ce05f00f5020d005fd62ff3308f001023907f0010256173f0b2003f0010240019517e08479e07b696864913307000202837783997b68783308407b67703300d2050a083302d40528970d5022d405940d33070002037b676883777b67183300d6050a043302d80528e50c5022d805e20c5020da059162ff5022dc0510105020de058462ff826878818756173f0e4808403302e005283d125022e0053a123300e2050a083302e40528610e5022e4055e0e5020e6054363ff7c67e000510719955160fe8210980182159001821688019511a00132005022e805650f5020ea052762ff8267183300ec050a043302ee0528b10c5022ee05ae0c5020f0050a62ff5022f20528145020f405fd61ff826778817756175f0b826878480860013307013309448268703300f6050a0d3302f80528af135022f805ac138279827808827a108277187b6720956b00017bb7787b6a287bba707b68307bb868956860017b69387bb96033075020fa059d61ff5022fc05830e5020fe059061ff3308f001023907f0010256173f0b2003f0010240019517e08479e07b696864913307000202837783997b68783308407b6770330000060a0833020206282a0c50220206270c33070002037b676883777b6718330004060a043302060628780b50220606750b502008062461ff50220a06a30e50200c061761ff826878818756173f0e48084033020e0628d01050220e06cd10330010060a083302120628f40c50221206f10c50201406d661ff7c67e000510719955160fe8210980182159001821688019511a001320050221606f80d50201806ba60ff82671833001a060a0433021c0628440b50221c06410b50201e069d60ff8267207b6798008267287b6790008267307b678800330724956880008269387b698000502020067360ff826778817756175f0b82687848086001330701330944826870330022060a0d3302240628b41250222406b1127b69508289087b697082887b68787b67583a072801027b6720956a00027ba7383a083001023a093801023a074001027b68187ba8307b69107ba928956820027b67087ba720330750202606f95fff50222806110d50202a06ec5fff3308f001023907f0010256173f0b2003f0010240019517e08479e07b69486491330700020250222c06de1233002e060a083302300628130b50223006100b50203206a75fff50223406a010502036069a5fff826868818756173f08480840019517e08477e07b675050223806f70c33003a060a0833023c06284a0e50223c06470e50203e065660ff7c67a001510711330833078269583302640628020c826720956900017b9798008267187b9790008267107b978800956880018267087b978000330750204006225fff50224206210c50204406155fff826868818756173f08480840019517e08477e07b675050224606720c330048060a0833024a0628190b50224a06160b50204c06df5eff50224e06270f50205006d25eff826868818756173f08480840019517e08477e07b6768502252062f0c330054060a083302560628f70c50225606f40c502058068e5fff50225a06f20d50205c060260ff33070002037b6768837733005e060a048269683302600628ef0a82696850226006e90ad4780298aa206f99979820d4a808989920492698004926b80082677b67b0008267707b67a8008267787b67a0008267207b67d8008267187b67d0008267107b67c8008267087b67c0003a0a4801023a0b5001023a0c5801023a076001027b6af8007b6bf0007b6ce8007b67e0007b6990007b6888009569e000956ac000956ba000956c80007b628000330733083300620633020a2829113307330801826958502264067d0a32007b6a50829a087b6a7082997b69788289828a08828b108288187b67587b6808956700027b78387b6b107b7b307b6a187b7a28956820027b69207b7920330750206806805dff50226a06980a50206c06735dff3308f001023907f0010256173f0b2003f0010240019517e08479e07b69486491330700020250226e066510330070060a0833027206289a08502272069708502074062e5dff50227606270e50207806215dff826868818756173f08480840019517e08477e07b675050227a067e0a33007c060a0833027e0628d10b50227e06ce0b50208006dd5dff7c67a001510711330833078269583302a606288909826720956900017b9780008267187b9788008267107b979000956880018267087b979800330750208206a95cff50228406a809502086069c5cff826868818756173f08480840019517e08477e07b675050228806f90933008a060a0833028c0628a00850228c069d0850208e06665cff50229006ae0c50209206595cff826868818756173f08480840019517e08477e07b676850229406b609330096060a0833029806287e0a502298067b0a50209a06155dff50229c06790b50209e06895dff33070002037b676883773300a0060a048269683302a2062876088269685022a2067008d4780298aa206f99979820d4a808989920492698004926b80082677b67b0008267707b67a8008267787b67a0008267087b67d8008267107b67d0008267187b67c8008267207b67c0003a0a6801023a0b7001023a0c7801023a078001027b6af8007b6bf0007b6ce8007b67e0007b6990007b6888009569e000956ac000956ba000956c80007b628000330733083300a40633020a28b00e33073308018269585022a606040832007b69388289087b697082887b68787b67303a078801027b6758956a00027ba7383a089001023a099801023a07a001027b68507ba8307b69487ba928956820027b67407ba72033075020aa06fe5aff5022ac0616085020ae06f15aff3308f001023907f0010256173f0b2003f0010240019517e08479e07b6928649133070002025022b006e30d3300b2060a083302b40628c1055022b406be055020b606ac5aff5022b806570b5020ba069f5aff826868818756173f08480840019517e08477e07b67205022bc06fc073300be060a083302c0062825095022c00622095020c2065b5bff7c67a00151078e01826758956900017b9798008267507b9790008267487b978800956880018267407b97800033075020c406345aff5022c60633075020c806275aff826868818756173f08480840019517e08477e07b67285022ca0684073300cc060a083302ce0628b3055022ce06b0055020d006f159ff5022d206c50a5020d406e459ff826868818756173f08480840019517e08477e07b67685022d60641073300d8060a083302da0628df075022da06dc075020dc06a05aff5022de0633095020e006145bff33070002037b676883773300e2060a048269683302e4062801068269685022e406fb05d4780298aa206f99979820d4a808989920492698004926b8008267387b67b0008267707b67a8008267787b67a0008267587b67d8008267507b67d0008267487b67c8008267407b67c0003a0aa801023a0bb001023a0cb801023a07c001027b6af8007b6bf0007b6ce8007b67e0007b6990007b6888009569e000956ac000956ba000956c80007b628000330733083300e60633020a283a0c33073308018269303302e806288a0533088269305022e806820532007b6a38829a087b6a7082997b69788289828a08828b108288187b67307b6840956700027b78387b6b487b7b307b6a507b7a28956820027b69587b792033075020ec068558ff5022ee069d055020f0067858ff3308f001023907f0010256173f0b2003f0010240019517e08479e07b6928649133070002025022f2066a0b3300f4060a083302f6062848035022f60645035020f8063358ff5022fa06de085020fc062658ff826868818756173f08480840019517e08477e07b67205022fe068305330000070a083302020728ac0650220207a90650200407e258ff7c67a00151078e01826758956900017b9780008267507b9788008267487b979000956880018267407b979800330750200607bb57ff50220807ba0450200a07ae57ff826868818756173f08480840019517e08477e07b672850220c070b0533000e070a0833021007283a03502210073703502012077857ff502214074c08502016076b57ff826868818756173f08480840019517e08477e07b676850221807c80433001a070a0833021c0728660550221c07630550201e072758ff50222007ba06502022079b58ff33070002037b67688377330024070a0482696833022607288803826968502226078203d4780298aa206f99979820d4a808989920492698004926b8008267387b67b0008267707b67a8008267787b67a0008267407b67d8008267487b67d0008267507b67c8008267587b67c0003a0ac801023a0bd001023a0cd801023a07e001027b6af8007b6bf0007b6ce8007b67e0007b6990007b6888009569e000956ac000956ba000956c80007b628000330733083300280733020a28c109330733080182693033022a07281103330882693050222a0709033200330750202c07d459ff33070150202e07ca59ffd88708c88a0cd8ac0ada880ac8ba0ad8ba08c89808d4a709d4c808d48909989920d4a808978820d4980832028268100182699001d889088269f800826b7801d39b0ad89b0bdaa80b3202d4070882697002d4930ad4a808988820d40a09979920d498083202826778028278827918827a08827b1032028e889569ff079599f901320282696882970881981082996f77977a206f88988820d48a0a9877206f98978920d49707988820492638017b6830017b672801956820017b6a2001330732028268d801d878078268d0019487826850029487320282696882970881981082996f77977a206f88988820d48a0a9877206f98978920d497079888204926b8007b68b0007b67a8003307049568a0007b6aa0003202826a6882a71882a81082a90882aa6f777b67586f877b67506f977b67486fa77b67409517e08477e07b676064713202826a2882a71882a81082a90882aa6f777b67206f877b67186f977b67106fa77b67089517e08477e07b672864718267389777209877204926f8017b67387b67f0018267707b67e8019568e0018267787b67e00133073202826a4882a71882a81082a90882aa6f777b67406f877b67386f977b67306fa77b67289517e08477e07b674864718267509777209877204926f8017b677b67f0018267707b67e8019568e0018267787b67e00133073202826a2882a71882a81082a90882aa6f777b67206f877b67186f977b67106fa77b67089517e08477e07b67286471492658018267387b6750018267707b674801956840018267787b67400133073202826a5882a71882a81082a90882aa6f776f8b6f996faa8268607b8a187b89107b8b087b879567e0003202826a5082a71882a81082a90882aa6f777b67486f877b67406f977b67386fa77b67309517e08477e07b675064714926580182677b6750018267707b674801956840018267787b6740013307320282970881981082996f7a97a7206f88988820320282970882988199106f77987a206f88978b20d4ba0a9777206f99989920d4970798882032027b987b97087b97107b9718955180fd9517000282707882757082766895118002320282689800d87807826890009487826868948732024926580149265001492648013307209568400149264001320249267801492670014926680133072095686001492660013202492618024926100249260802330720956800024926000232024926d0004926c8004926c0001407000000003f7d51e29568c0007b67d8003307320295690002829a781407bcffffff00000000d87a07829870948782986894873202647183793308408267603202826740956a00017ba7188267487ba7108267507ba708330720956800018269587ba932028e889569ff079599f901330a3202956b000282b87082b960d4980882ba6882b978d4a909d48909989920d4a808978820d498083202d88708826a7002c88a09d8a90ada880a82686002c88a0ad88a08826b7802c8b808956bf8313202827810827918827a088277d4a909d4870ad49a0a98aa20d49808978820d4a8083202826a6882a71882a81082a90882aa6f776f8b6f996faa8268287b8a187b89107b8b087b87956700013202826a6882a71882a81082a90882aa6f776f8b6f996faa8268507b8a187b89107b8b087b87956700013202d49b0bd48709d4b909989920d4b808978820d498083202140b00000000010000001407fcffffff00000000d8780782c970949794a73202826a2082a71882a81082a90882aa6f776f8b6f996faa8268287b8a187b89107b8b087b879567a0013202826a5082a71882a81082a90882aa6f776f8b6f996faa8268487b8a187b89107b8b087b879567a00132023307f829c8760a95ab00043202d88708826a78c88a09d8a90ada880a82688800c88a0ad88a08826b8000c8b808956bf8293202958702d88708826a5802c88a09d8a90ada880a82686802c88a0ad88a08826b60023202956b000182b782b80882b91882ba10847700ff867701956b00027bb9587bba507bb8487bb740956840028267503202956b000182b782b81882b91082ba08847700ff956b00027bb8587bb9507bba487bb7409568400282672832029511c07b10387b15307b16289515408411e06476831732029517e08477e07b6758647183793308408267703202821908d46909140600000000010000001407fcffffff00000000821818d8780782181094877b19089497320282ab7b1b1882ab087b1b2082ab107b1b2882aa187b1a308296829a087b1a829a107b1a088299187b19103202829878d87807829870948782986894873202826730956a00017ba7388267387ba7308267407ba728330720956820018269487ba9203202956b000282ba6882b97082b87882b7609577dcd87807949794a7320282171082181814090000000001000000d37909d48909987a2088aa01948a939a3202826708956a00017ba7d8008267107ba7d0008267187ba7c8003307209568c0018269207ba9c0003202826708956a00017ba7388267107ba7308267187ba728330720956820018269207ba9203202826728956a00017ba7d8008267307ba7d0008267387ba7c8003307209568c0018269407ba9c00032028219b8008216b0008217a8008218a0007b17107b1908d497077b1818d46808d47808988820d46707977720d48707320283977b6770028267780264987b6968023202951120ff7b10d8007b15d0007b16c8009515e0008411f0827810827918827a088277d4a909d48707d49707320282b7980082b8a00082b9900082ba8800d49808d4a707d4870732028267780281773308233202957701887b01c8b909d4970b88bb01c8ab0bd8ab0ac8a808330a00303202951160fe7b1098017b1590017b1688019515a0018411e06416320282a71882a81082a90882aa6f776f8b6f996faa32021407bcffffff00000000d876078218109487821808948732028267387b6798008267287b6790008267207b678800330724956880008269307b69800032028219821a087b697b6a087b67107b68189551c08210388215308216289511403202951180fd951900027b90787b95707b9668951580028411e064168289103202951180fd951a00027ba0787ba5707ba668951580028411e06416829a103202956a000282a878d8780782a870948782a86894873202491130491128491120140700000000717b484e9518207b1738330732029567dc821818d87807821810948782180894873202492190004921880049218000140700000000a079c308951880007b17980082171832028e889569f811330a3202837783997b68683308407b67603202d49808d47808988820d49707977720d48707320282b75882b86082b95082ba48d49808d4a707d4870732029511e0fe7b1018017b1510017b160801951520018411e032029517e08477e07b673064718379330840826740320282b7d80082b8e00082b9d00082bac800d49808d4a707d487073202849a40520a195109148d9a40cfa80ad09808d09707d4a707320032009597c0d0780733083200849a40520a195109148d9a40d0a70acf9707cf9808d4a808320032009598c0cf870833073200510816888c520c179511d07b10287b15207b1618280fd8970c510cef33073308285e84491108ae982701989a01d49a0a98ac02d4ca0a98ac04d4ca0a98ac08d4ca0a98ac10d4ca0a98ac20d4ca0a85aaff98ac0114055555555555555555d25c0cc9ca0a140c3333333333333333d2ca0698aa02d2ca0ac86a0a98ac04c8ca0a140c0f0f0f0f0f0f0f0fd2ca0a140c0101010101010101caca0a98ab38510b19cfb909cfb80885baff987c01d0ac0ad4a808cfb70701989020979c2098cc20987320977720987720cb0802ca020ac9a806280ec80606986a209522ff520a159825205205f1cac205976a20d43a0aac5ae5978820d48308ca920ac9a808cb0804ca04067b1810c9680a280ec80a0a98a8209544ff5208159848205208f1cac40897a520d47506ac86e53303821810978820d47808ca9409c99808d0b809972220c82404821b08520b2b01282d01cb9803ca9304989c01d4c906986c02d4c606986c04d4c606986c08d4c606986c10d4c606986c20d46c0c85caff1405555555555555555598ac01d25c0cc9ca0a140c3333333333333333d2ca0698aa02d2ca0ac86a0a98ac04c8ca0a140c0f0f0f0f0f0f0f0fd2ca0a140c0101010101010101caca0a98a038c94804510019cf0909cf0408850aff987c01d0ac0ad4a804cf070701649c98992064cb97cc2098cc20987520977720987820cb9402ca9206c9640a280ec89a0a98a7209522ff5207159827205207f1cac20797a620d45606ac76e5974420d44507cab20ac9a705cb9504ca9407c97506280ec896069867209544ff5207159847205207f1cac407976a20d48a0aac7ae5975520d45808cab407c97808d00809972220c82404821b08510b09491b087bb901821028821520821618951130644764383200490a21a11a4292d210a1925429a42449922449922449922449922449922449922449922449922449922449922449aa9294529294942454a5242549922449922449922449922449922449922449922449499294a4aa24254994a492a42a494992922425294955559292a424952425944a4a4a8a142952a448912245498a88884a922425499220a1a8489122458a142952a4489122458a14294aa488882849128490309426a521248910444444232292444892484491881085aa2122440490241511111189102a84504a52922449822424499224c9500aa550aa505584248510422a54a9d28888881411412242881089288d08249008082490400209249080400209248a44a411492249521211898848244922222222221a912449924888882449922489880022222242244990242242444408924444880841921022222222111111c588882449942412111191109124411211111191888888342248822412222222222222222288244990444444448824010490a4924844111111219220894444448400020892484411111122099288888888104000411211514444844822492511111122420011241111111121892252444444442411092222222212494924442412894492228288101189244992882449444444489224914422222222424492001240a294248088888844924444442444822480881489888848082002089248249188888884241011111141249044249188888824082090442222222212242549924822118944a2248a0411119148929288200249444444444444441025499224294924229128120549142218400410014400110820922854aa8a24554522a511118948241249249188442422110591444422884844221291884424221144229148242222114422128912898804499288489288882402114914111111041248221011111104124822101111110412482210111111042290442092880481082411481291201081240249221204229044204944824004920894888888201081248a8888888808021148a28888888888201081248a8888888808021148a28888888888201081248a8888888808021148a28888888888201081248a8888888808021148a28888888888201081248a8888888808021148a28888888888201081248a8888888808021148a2888888484410884012454444442282400492282222221211042290441111119188201081248a8888201081248a8888201081248a8888201081248a8888201081248a8888201081248a8888201081248a8888201081248048242a2222822849244992924412492289441249228944498a4a2449443149922451928888884824129122268988888882888812118410c1240a158922494551144914494422112988482452221244914954228a8808449222884424882409245149242211111151142322922481242245444444444444444410111111884492440411111111a228222210892492444444444412454422918848109148221149519292244992121144444444440490444444444420114912114444922449aa24492222222212494a922412444492244992444404101111412449204944442222824892a49244448808024942448410222222111111514420912449a2482488888808242122841011119188888828229024499240129128229024114922124444244992481091244992248944922492128988888846244992249044a41891a492888888880411119124499288082022222288240920a924111111114110224488a24449a29024420811119108221144440821441240228924920092449274120922222222228a082425090411514445249088888868442089229120229204921009212491884444444423024920894823222229892849248944924a22118d8888a42492442289241149924412892492482289441225892449922411110922222249922411114044444410119100024854928810111144445294242222222222a88a4824124924128900226224124924922449129124491211114534224a89a42422114992241111111111114124124922894424912492484412492289444444252222221a91489224812422454444444444448808222222894892249224491245444404118944221149892022222222924844241289442222888888888888044544440411111109922422881811110922224992244922918848241211412449000124950410914824111111114492a494041029111111412480009252128924111111114492a494442222222288240104904a2212111111412491949288888888082282a2121111118d0824512412442412894410495202490821229248412212111151c48888244914890411912448222222824450aad48888886844900449448a11492a89888848248888884892244944444400111104214284284a94240a49228410111111892012418408218448024824914412409248924e224144444444441409929204414414511123694922822285041009201191482411412449922449449288082291928848922449244992244992a49292241111442412898808228a122589924452444444444411114912498824924892d18824124444442449922422028888880822498224111122228220494484882048124244444490084a1a1121228848524949221221894412494444444404111111111111411245442291884810918848242229218a22a994444a221111444422111111111141522491249248928a482282884424222222222288884444441011111149922411491211244590224911444444241289882489089222892491442249111111292222228288888844221141441011494444444410111111114424128944248888888888888888888828228248920449444444441011111111444444244992244992244912490248524914912882224a8a24924412894422112551441023492289aa44a444928844228944441091482412114144129144242249924444442412894841886012854a23892491249124a944924412492489244992489248224522492a499224124992244924228922114922499214114144444444442422922022222a2a22092212114910918824924824221189888888082222269294c448248944922495242222228a8808222249922449292241444444444492244944444444441049922449222222220a1a4912405251224551101145d4888848244944444444444441886044228942a52a1249249248241125298a282a12239124522489241189248a88a828922c495122892491489224222288a0888828222222229148242222828848245244124912914422491249242a114522918824224912914424492222220a22224912494a4422924424114912892412418810211a254a128524218488882812912449441441248288888888240124924892244922493a9ad48888482222118988045124a924494410498924492a890411119124492212914844a2442241241289441409a24410444411159188248a88a88a24329248441291244922222282888848524444444444444444444444441089482492244922499224922489549588242249124949924424224992884812414410912401242249228248101111111111452482a4241111424444440811111111115111111129499224912425488652951a9148244524229148922411248904519224499292482446242249445224491241449024124449922449229224912489444924912022299224892022481209a224499224114992489244a2249248109114499244105194448228499224494492249224912889241244244592241144041111114449922449229224912489444924912022299224892022888888204a922449129124892449244a228904114991244904114144440451922449928824492449225112492488488a24492288082222228892244992442449224912899248224144522449124144101111419424499224224912499248944412092292224992082282888808a224499224114992489244a224924810911449924410114444441025499224894892449224122591448288a448922482882022228228499224494492249224912889241244244592241144041111114449922449229224912489444924912022299224892022888888204a922449129124892449244a228904114991244904114144440451922449928824492449225112492488488a2449224822888888204a922449129124892449244a228904114991244904490411111144499224492292249124894449249120222992248920892022228228499224494492249224912889241244244592241124114444441025499224894892449224122591448288a4489224822482888888204a922449129124892449244a22890411499124490449041111114194244992242249124992489444120922922249920892082222228228499224494492249224912889241244244592241124114444440451922449928824492449225112492488488a244922482288888808a224499224114992489244a22492481091144992449044101111114449922449229224912489444924912022299224892089202222228892244992442449224912899248224144522449124112414444441025499224894892449224122591448288a4489224822482888888204a922449129124892449244a22890411499124490449041111114194244992242249124992489444120922922249920892082222228228499224494492249224912889241244244592241124114444440451922449928824492449225112492488488a24492248028824494544444404519224499292c8249224492449924822229248928888080288008224222291248948a220092249222288089288888888888888202241444444444422492449222222224410114144248008201245494424499248241109221244822422922449249288041109028800822422222292148988880822124482242212111111114424082002089288484444444410912022482222111111114144040104494444444444444404111144922449922422820022802089888888888888888888202222222289248924912431221291242229499244244924954422228824499224494422914422222222914852444444049144924822114924228924124992244912121212121212121212121111408c4441c48850228210414848484848484848484024494414c52449122121212121212121a11412121212121212121212121ac58848242212918888082292882449244924898888882822220855898828028891288818114a44102208098988082046a22062442811418820242422a2082046a2206244281141882024141151041023511011a1440421825058120d888888884624499208894a681423128944124911114144129124892489241111114952441484aa04222222221a1144489090808888888846041112859088484444444444442212914814918848a84a444411408c4441448412118408424202222222228a044184041112912212894422221231222222222222228a8808222222228944242291244992242922121109550988888888281204111285908834222222491221a114121211894422a2201189882022922411118948109188241149449224494a92248922282a510889404444441409222292444848102111292222222222228d481249922224802409204912111111082110222112912222222222222211111111119148a4888820224924894424221189442291481411898884aa44899088484444444444442212914814918848a84a444444444444041111412492242210111111a22822114422892411111191888888888820222222224992242249220291888888482491249248124544444444444444444444229148249224925204222222222212492249248922a9249128888888828848144422221291aa482412491249141111111111111111111189888888888888a444202222222289229124924492a852244924521011459148414444a4a0884491a228a288228a20228a20a2228844248a48a48822888a4492489248241289442291485211488a249244124952442022444400110522422202218290908848444444444488a291204992248988149124111111111149222211095589084444241111492410aa12110144448110c150128d481229494a2222a24044242210420493142a49495229a524294914894814484422914804522412942455254911889488880804811489042549a59492a4281291289048922452204526a9244a24419214818888482449241052944882a424892291888808218488882422928a245392882451a24890a0508a2241a24890a0508a4644444a49922422424420222249922449924492448110c124854a492a4992244992244992a4242949529224294949121111454400110592481208110c255124484444140904090241922492409024892410641242922490022551244844441409040902419224924090248924106412424812401248819228129492244992128944222210119124499224492249922405420493142a25a9244992244992922425254992a4242589888822228088021121118110c150128d8848499224294a4a929424254925494a0549a482445292922405a994929212252851824a494951825492244992244992244992928888922449a914499248922449920492a4209024251022184aa2119148252549922449922449922449252549922449922449021191284900498124920442044349342222524992242990244920443049a1524a529524491211910824499212111125a9a4a4244992244992a42425498240929440886028892241052949499292242949952449529224499224494a4a524a92922449920249924a529224494361298a042191104292445220088410c124854a124582901245824010489148104582402422220a028922412008a4482689224148248490249114080221443049a192449120a44491201004522412449120108988888240a248100802299249a2485092449224920241208408262954922812849428120482408a44822812042211115110481409028944229108a448268922419292904808214922291004428860924210458240104891498228120422954822128948140802293249104582401048914982281204824048512209929244148944229148841042444444444454242541494a49924892445220088410c12485208a04812090229304512408442a9144241291281004526492208a04812090229304512408048190a244122425892812894422910821848888888888a8484a82929484444208491249812010420493148228120482408a4c124491201091884422120582408a4c124491201004526492208a0481201052944882a4241189442291482442082122222222222a929248094a524a9244922492024120840826290451240804811499248822412022118944240a04811499248822412008a4c824411409024120a42891044949221289442291488410424444444444542425911254208124499224498a4844921249921425a98892544a52928888a8481495a45292924444224a924a2925492549a59492a424914844a292a4524a495292281291a824a9945292148944242a49aa4a92a224a99452921445221295544a29a52425a9241149a248948a8844141189282212514404105191009252959448922452455424499224299124924894a424495292549524454952559214254992020820a992a4aa24294a92aa92a428122549228944492489248a9244224922454922922452922455924a4a02082049a992244929494a522a9124492445922455124092548948241289124992445222128944a28888244992a4228a222222494a52444492a2942449124544442a49550590944a24128944a52449922292444a114922a548522a4900492549a9880820221555494a92a42449524444a42495141191a42449924a2a4992a4924a4992924a22499224499200920092240920012449922493244952922449922449529224495292244922499224499224802401244912400248922449b2942449529224499224494a9224499224499226490500"
        },
        "methodIdentifiers": {
          "ADMIN_ROLE()": "75b238fc",
          "AI_AGENT_ROLE()": "25b8e7eb",
          "DEFAULT_ADMIN_ROLE()": "a217fddf",
          "bond(uint128)": "defe4b12",
          "challenges(uint256)": "8f1d3776",
          "completeChallenge(uint256)": "a7817bbc",
          "getChallenge(uint256)": "1bdd4b74",
          "getCurrentDate()": "9254d772",
          "getRoleAdmin(bytes32)": "248a9ca3",
          "grantAiAgentRole(address)": "36561c64",
          "grantRole(bytes32,address)": "2f2ff15d",
          "hasRole(bytes32,address)": "91d14854",
          "nominate(address[])": "19f2fdad",
          "renounceRole(bytes32,address)": "36568abe",
          "reportMissedSleep(uint256,uint64)": "11688c71",
          "revokeAiAgentRole(address)": "916d9e53",
          "revokeRole(bytes32,address)": "d547741f",
          "stakingPrecompile()": "f845c5b3",
          "startChallenge(uint64,address)": "69c498dc",
          "supportsInterface(bytes4)": "01ffc9a7",
          "unbond(uint128)": "e8111842"
        }
      },
      "hash": "63517be6f0abbe72612c237e65e3c1d7cb2307c565c94322874574434fdad07f",
      "factoryDependencies": {}
    }
  }
}